{
  "contractName": "BorrowerOperationsFacet",
  "abi": [
    {
      "inputs": [
        {
          "internalType": "address",
          "name": "token",
          "type": "address"
        }
      ],
      "name": "SafeERC20FailedOperation",
      "type": "error"
    },
    {
      "inputs": [],
      "name": "UintUtils__InsufficientPadding",
      "type": "error"
    },
    {
      "anonymous": false,
      "inputs": [
        {
          "indexed": true,
          "internalType": "address",
          "name": "borrower",
          "type": "address"
        },
        {
          "indexed": true,
          "internalType": "contract IERC20",
          "name": "collateralToken",
          "type": "address"
        },
        {
          "indexed": false,
          "internalType": "uint256",
          "name": "amount",
          "type": "uint256"
        }
      ],
      "name": "BorrowingFeePaid",
      "type": "event"
    },
    {
      "anonymous": false,
      "inputs": [
        {
          "indexed": true,
          "internalType": "address",
          "name": "caller",
          "type": "address"
        },
        {
          "indexed": true,
          "internalType": "address",
          "name": "delegate",
          "type": "address"
        },
        {
          "indexed": false,
          "internalType": "bool",
          "name": "isApproved",
          "type": "bool"
        }
      ],
      "name": "DelegateApprovalSet",
      "type": "event"
    },
    {
      "anonymous": false,
      "inputs": [
        {
          "indexed": false,
          "internalType": "uint256",
          "name": "_minNetDebt",
          "type": "uint256"
        }
      ],
      "name": "MinNetDebtUpdated",
      "type": "event"
    },
    {
      "anonymous": false,
      "inputs": [
        {
          "indexed": true,
          "internalType": "bytes32",
          "name": "role",
          "type": "bytes32"
        },
        {
          "indexed": true,
          "internalType": "bytes32",
          "name": "previousAdminRole",
          "type": "bytes32"
        },
        {
          "indexed": true,
          "internalType": "bytes32",
          "name": "newAdminRole",
          "type": "bytes32"
        }
      ],
      "name": "RoleAdminChanged",
      "type": "event"
    },
    {
      "anonymous": false,
      "inputs": [
        {
          "indexed": true,
          "internalType": "bytes32",
          "name": "role",
          "type": "bytes32"
        },
        {
          "indexed": true,
          "internalType": "address",
          "name": "account",
          "type": "address"
        },
        {
          "indexed": true,
          "internalType": "address",
          "name": "sender",
          "type": "address"
        }
      ],
      "name": "RoleGranted",
      "type": "event"
    },
    {
      "anonymous": false,
      "inputs": [
        {
          "indexed": true,
          "internalType": "bytes32",
          "name": "role",
          "type": "bytes32"
        },
        {
          "indexed": true,
          "internalType": "address",
          "name": "account",
          "type": "address"
        },
        {
          "indexed": true,
          "internalType": "address",
          "name": "sender",
          "type": "address"
        }
      ],
      "name": "RoleRevoked",
      "type": "event"
    },
    {
      "anonymous": false,
      "inputs": [
        {
          "indexed": true,
          "internalType": "address",
          "name": "_borrower",
          "type": "address"
        },
        {
          "indexed": false,
          "internalType": "uint256",
          "name": "arrayIndex",
          "type": "uint256"
        }
      ],
      "name": "TroveCreated",
      "type": "event"
    },
    {
      "anonymous": false,
      "inputs": [
        {
          "indexed": true,
          "internalType": "contract ITroveManager",
          "name": "troveManager",
          "type": "address"
        }
      ],
      "name": "TroveManagerRemoved",
      "type": "event"
    },
    {
      "inputs": [
        {
          "internalType": "contract ITroveManager",
          "name": "troveManager",
          "type": "address"
        },
        {
          "internalType": "address",
          "name": "account",
          "type": "address"
        },
        {
          "internalType": "uint256",
          "name": "_collateralAmount",
          "type": "uint256"
        },
        {
          "internalType": "address",
          "name": "_upperHint",
          "type": "address"
        },
        {
          "internalType": "address",
          "name": "_lowerHint",
          "type": "address"
        }
      ],
      "name": "addColl",
      "outputs": [],
      "stateMutability": "nonpayable",
      "type": "function"
    },
    {
      "inputs": [
        {
          "internalType": "contract ITroveManager",
          "name": "troveManager",
          "type": "address"
        },
        {
          "internalType": "address",
          "name": "account",
          "type": "address"
        },
        {
          "internalType": "uint256",
          "name": "_maxFeePercentage",
          "type": "uint256"
        },
        {
          "internalType": "uint256",
          "name": "_collDeposit",
          "type": "uint256"
        },
        {
          "internalType": "uint256",
          "name": "_collWithdrawal",
          "type": "uint256"
        },
        {
          "internalType": "uint256",
          "name": "_debtChange",
          "type": "uint256"
        },
        {
          "internalType": "bool",
          "name": "_isDebtIncrease",
          "type": "bool"
        },
        {
          "internalType": "address",
          "name": "_upperHint",
          "type": "address"
        },
        {
          "internalType": "address",
          "name": "_lowerHint",
          "type": "address"
        }
      ],
      "name": "adjustTrove",
      "outputs": [],
      "stateMutability": "nonpayable",
      "type": "function"
    },
    {
      "inputs": [
        {
          "internalType": "uint256",
          "name": "TCR",
          "type": "uint256"
        }
      ],
      "name": "checkRecoveryMode",
      "outputs": [
        {
          "internalType": "bool",
          "name": "",
          "type": "bool"
        }
      ],
      "stateMutability": "pure",
      "type": "function"
    },
    {
      "inputs": [
        {
          "internalType": "contract ITroveManager",
          "name": "troveManager",
          "type": "address"
        },
        {
          "internalType": "address",
          "name": "account",
          "type": "address"
        }
      ],
      "name": "closeTrove",
      "outputs": [],
      "stateMutability": "nonpayable",
      "type": "function"
    },
    {
      "inputs": [],
      "name": "fetchBalances",
      "outputs": [
        {
          "components": [
            {
              "internalType": "uint256[]",
              "name": "collaterals",
              "type": "uint256[]"
            },
            {
              "internalType": "uint256[]",
              "name": "debts",
              "type": "uint256[]"
            },
            {
              "internalType": "uint256[]",
              "name": "prices",
              "type": "uint256[]"
            },
            {
              "internalType": "uint8[]",
              "name": "decimals",
              "type": "uint8[]"
            }
          ],
          "internalType": "struct Balances",
          "name": "balances",
          "type": "tuple"
        }
      ],
      "stateMutability": "nonpayable",
      "type": "function"
    },
    {
      "inputs": [
        {
          "internalType": "contract ITroveManager[]",
          "name": "_troveManagers",
          "type": "address[]"
        }
      ],
      "name": "forceResetTM",
      "outputs": [],
      "stateMutability": "nonpayable",
      "type": "function"
    },
    {
      "inputs": [
        {
          "internalType": "uint256",
          "name": "_debt",
          "type": "uint256"
        }
      ],
      "name": "getCompositeDebt",
      "outputs": [
        {
          "internalType": "uint256",
          "name": "",
          "type": "uint256"
        }
      ],
      "stateMutability": "view",
      "type": "function"
    },
    {
      "inputs": [],
      "name": "getGlobalSystemBalances",
      "outputs": [
        {
          "internalType": "uint256",
          "name": "totalPricedCollateral",
          "type": "uint256"
        },
        {
          "internalType": "uint256",
          "name": "totalDebt",
          "type": "uint256"
        }
      ],
      "stateMutability": "nonpayable",
      "type": "function"
    },
    {
      "inputs": [],
      "name": "getTCR",
      "outputs": [
        {
          "internalType": "uint256",
          "name": "globalTotalCollateralRatio",
          "type": "uint256"
        }
      ],
      "stateMutability": "nonpayable",
      "type": "function"
    },
    {
      "inputs": [
        {
          "internalType": "address",
          "name": "_account",
          "type": "address"
        },
        {
          "internalType": "address",
          "name": "_delegate",
          "type": "address"
        }
      ],
      "name": "isApprovedDelegate",
      "outputs": [
        {
          "internalType": "bool",
          "name": "",
          "type": "bool"
        }
      ],
      "stateMutability": "view",
      "type": "function"
    },
    {
      "inputs": [],
      "name": "minNetDebt",
      "outputs": [
        {
          "internalType": "uint256",
          "name": "",
          "type": "uint256"
        }
      ],
      "stateMutability": "view",
      "type": "function"
    },
    {
      "inputs": [
        {
          "internalType": "contract ITroveManager",
          "name": "troveManager",
          "type": "address"
        },
        {
          "internalType": "address",
          "name": "account",
          "type": "address"
        },
        {
          "internalType": "uint256",
          "name": "_maxFeePercentage",
          "type": "uint256"
        },
        {
          "internalType": "uint256",
          "name": "_collateralAmount",
          "type": "uint256"
        },
        {
          "internalType": "uint256",
          "name": "_debtAmount",
          "type": "uint256"
        },
        {
          "internalType": "address",
          "name": "_upperHint",
          "type": "address"
        },
        {
          "internalType": "address",
          "name": "_lowerHint",
          "type": "address"
        }
      ],
      "name": "openTrove",
      "outputs": [],
      "stateMutability": "nonpayable",
      "type": "function"
    },
    {
      "inputs": [
        {
          "internalType": "contract ITroveManager",
          "name": "troveManager",
          "type": "address"
        }
      ],
      "name": "removeTroveManager",
      "outputs": [],
      "stateMutability": "nonpayable",
      "type": "function"
    },
    {
      "inputs": [
        {
          "internalType": "contract ITroveManager",
          "name": "troveManager",
          "type": "address"
        },
        {
          "internalType": "address",
          "name": "account",
          "type": "address"
        },
        {
          "internalType": "uint256",
          "name": "_debtAmount",
          "type": "uint256"
        },
        {
          "internalType": "address",
          "name": "_upperHint",
          "type": "address"
        },
        {
          "internalType": "address",
          "name": "_lowerHint",
          "type": "address"
        }
      ],
      "name": "repayDebt",
      "outputs": [],
      "stateMutability": "nonpayable",
      "type": "function"
    },
    {
      "inputs": [
        {
          "internalType": "address",
          "name": "_delegate",
          "type": "address"
        },
        {
          "internalType": "bool",
          "name": "_isApproved",
          "type": "bool"
        }
      ],
      "name": "setDelegateApproval",
      "outputs": [],
      "stateMutability": "nonpayable",
      "type": "function"
    },
    {
      "inputs": [
        {
          "internalType": "uint256",
          "name": "_minNetDebt",
          "type": "uint256"
        }
      ],
      "name": "setMinNetDebt",
      "outputs": [],
      "stateMutability": "nonpayable",
      "type": "function"
    },
    {
      "inputs": [
        {
          "internalType": "contract ITroveManager",
          "name": "_troveManager",
          "type": "address"
        }
      ],
      "name": "troveManagersData",
      "outputs": [
        {
          "internalType": "contract IERC20",
          "name": "",
          "type": "address"
        },
        {
          "internalType": "uint16",
          "name": "",
          "type": "uint16"
        }
      ],
      "stateMutability": "view",
      "type": "function"
    },
    {
      "inputs": [
        {
          "internalType": "contract ITroveManager",
          "name": "troveManager",
          "type": "address"
        },
        {
          "internalType": "address",
          "name": "account",
          "type": "address"
        },
        {
          "internalType": "uint256",
          "name": "_collWithdrawal",
          "type": "uint256"
        },
        {
          "internalType": "address",
          "name": "_upperHint",
          "type": "address"
        },
        {
          "internalType": "address",
          "name": "_lowerHint",
          "type": "address"
        }
      ],
      "name": "withdrawColl",
      "outputs": [],
      "stateMutability": "nonpayable",
      "type": "function"
    },
    {
      "inputs": [
        {
          "internalType": "contract ITroveManager",
          "name": "troveManager",
          "type": "address"
        },
        {
          "internalType": "address",
          "name": "account",
          "type": "address"
        },
        {
          "internalType": "uint256",
          "name": "_maxFeePercentage",
          "type": "uint256"
        },
        {
          "internalType": "uint256",
          "name": "_debtAmount",
          "type": "uint256"
        },
        {
          "internalType": "address",
          "name": "_upperHint",
          "type": "address"
        },
        {
          "internalType": "address",
          "name": "_lowerHint",
          "type": "address"
        }
      ],
      "name": "withdrawDebt",
      "outputs": [],
      "stateMutability": "nonpayable",
      "type": "function"
    }
  ],
  "bytecode": "0x608060405234801561001057600080fd5b50d3801561001d57600080fd5b50d2801561002a57600080fd5b506136fe806200003b6000396000f3fe608060405234801561001057600080fd5b50d3801561001d57600080fd5b50d2801561002a57600080fd5b506004361061013b5760003560e01c8063a2e8dc0a116100c7578063c2af1eca1161008b578063c2af1eca14610287578063c3c854b61461029a578063c5a62a99146102ad578063e19c80c2146102c0578063fded3d35146102d357600080fd5b8063a2e8dc0a14610231578063a6b6c8ee14610244578063b163e19014610257578063b51237a91461026a578063b620115d1461027f57600080fd5b80634ff814431161010e5780634ff81443146101a3578063568d6fe5146101c45780635f548614146101f9578063716c53c21461020c578063969c24521461022957600080fd5b806311c61ad3146101405780631930e82514610155578063438d641a1461017d5780634e443d9e14610190575b600080fd5b61015361014e366004612eb2565b6102e6565b005b610168610163366004612f44565b610774565b60405190151581526020015b60405180910390f35b61015361018b366004612f8a565b6107b5565b61016861019e366004612f8a565b6107ec565b6101b66101b1366004612f8a565b6107ff565b604051908152602001610174565b6101d76101d2366004612fa3565b610816565b604080516001600160a01b03909316835261ffff909116602083015201610174565b610153610207366004612f44565b61086c565b610214610bf2565b60408051928352602083019190915201610174565b6101b6610c23565b61015361023f366004612fd0565b610c36565b610153610252366004612fd0565b610d40565b61015361026536600461304f565b610d86565b610272610ebe565b6040516101749190613100565b6101b6610efe565b6101536102953660046131a6565b610f2b565b6101536102a836600461323b565b611084565b6101536102bb36600461327d565b6110ff565b6101536102ce366004612fa3565b6112e1565b6101536102e1366004612fd0565b6115ba565b60006102f0611657565b600681015490915060ff16156103435760405162461bcd60e51b815260206004820152601360248201527211195c1bdcda5d1cc8185c99481c185d5cd959606a1b60448201526064015b60405180910390fd5b61034d8188611685565b6103695760405162461bcd60e51b815260040161033a9061332e565b60006103ba6040518061012001604052806000815260200160008152602001600081526020016000815260200160008152602001600081526020016000815260200160008152602001600081525090565b60006103c6848c6116ca565b6040870191909152602086019190915290845290935090506103e7896117a5565b6103f5848c858d8d8c61181b565b6103ff9088613371565b606083018190526104119085906119d3565b6000836001600160a01b031663313ce5676040518163ffffffff1660e01b8152600401602060405180830381865afa158015610451573d6000803e3d6000fd5b505050506040513d601f19601f820116820180604052508101906104759190613384565b905060006104838a83611a4d565b9050610497846060015187600a0154611ac4565b6080850181905284516104ab918391611ad0565b60a085015260808401516104c0908b90611b03565b60c085015282156104dd576104d88460a00151611b39565b610587565b61054c8460a001518e6001600160a01b031663794e57246040518163ffffffff1660e01b8152600401602060405180830381865afa158015610523573d6000803e3d6000fd5b505050506040513d601f19601f8201168201806040525081019061054791906133a7565b611bb7565b600061057a8560200151866040015187600001518e61056b91906133c0565b60018960800151600189611c3f565b905061058581611ca9565b505b608084015160c0850151604051633ed058fd60e11b81526001600160a01b038f81166004830152602482018e905260448201939093526064810191909152898216608482015288821660a4820152908e1690637da0b1fa9060c40160408051808303816000875af1158015610600573d6000803e3d6000fd5b505050506040513d601f19601f8201168201806040525081019061062491906133d7565b61010086015260e08501526106446001600160a01b038616338f8d611d39565b600886015460405163467fafdf60e11b8152336004820152602481018b90526001600160a01b0390911690638cff5fbe90604401600060405180830381600087803b15801561069257600080fd5b505af11580156106a6573d6000803e3d6000fd5b505050508c6001600160a01b03166396660b186040518163ffffffff1660e01b8152600401602060405180830381865afa1580156106e8573d6000803e3d6000fd5b505050506040513d601f19601f8201168201806040525081019061070c91906133a7565b15610765578c6001600160a01b0316637a83a34e6040518163ffffffff1660e01b8152600401600060405180830381600087803b15801561074c57600080fd5b505af1158015610760573d6000803e3d6000fd5b505050505b50505050505050505050505050565b600061077e611657565b6001600160a01b038085166000908152600b9290920160209081526040808420928616845291905290205460ff1690505b92915050565b7fb19546dff01e856fb3f010c267a7b1c60363cf8a4664e21cc89c26224620214e6107df81611da6565b6107e882611db0565b5050565b60006107af826714d1120d7b1600001190565b60006107af8261080d611657565b600a0154611ac4565b6000806000610823611657565b6001600160a01b039485166000908152600f919091016020908152604091829020825180840190935254958616808352600160a01b90960461ffff169101819052939492505050565b6000610876611657565b90506108828183611685565b61089e5760405162461bcd60e51b815260040161033a9061332e565b6000808080806108ae86896116ca565b939850919650919450909250905082156109305760405162461bcd60e51b815260206004820152603960248201527f426f72726f7765724f70733a204f7065726174696f6e206e6f74207065726d6960448201527f7474656420647572696e67205265636f76657279204d6f646500000000000000606482015260840161033a565b6000856001600160a01b031663313ce5676040518163ffffffff1660e01b8152600401602060405180830381865afa158015610970573d6000803e3d6000fd5b505050506040513d601f19601f820116820180604052508101906109949190613384565b604051630b07655760e01b81526001600160a01b038a811660048301529192506000918291908c1690630b0765579060240160408051808303816000875af11580156109e4573d6000803e3d6000fd5b505050506040513d601f19601f82011682018060405250810190610a0891906133d7565b90925090506000610a298686610a1e8b876133c0565b60008660008a611c3f565b9050610a3481611ca9565b60405163c9a4cbf160e01b81526001600160a01b038c8116600483015233602483015260448201859052606482018490528d169063c9a4cbf190608401600060405180830381600087803b158015610a8b57600080fd5b505af1158015610a9f573d6000803e3d6000fd5b50505060088b0154600a8c01546001600160a01b0390911691506385177509903390610acb90866133fb565b6040516001600160e01b031960e085901b1681526001600160a01b0390921660048301526024820152604401600060405180830381600087803b158015610b1157600080fd5b505af1158015610b25573d6000803e3d6000fd5b505050508b6001600160a01b03166396660b186040518163ffffffff1660e01b8152600401602060405180830381865afa158015610b67573d6000803e3d6000fd5b505050506040513d601f19601f82011682018060405250810190610b8b91906133a7565b15610be4578b6001600160a01b0316637a83a34e6040518163ffffffff1660e01b8152600401600060405180830381600087803b158015610bcb57600080fd5b505af1158015610bdf573d6000803e3d6000fd5b505050505b505050505050505050505050565b6000806000610bff611657565b90506000610c0c82611e64565b9050610c17816121dc565b90969095509350505050565b6000610c2d611657565b60090154905090565b6000610c40611657565b9050610c4c8186611685565b610c685760405162461bcd60e51b815260040161033a9061332e565b610c7d81878760008060008a60008b8b6122b0565b856001600160a01b03166396660b186040518163ffffffff1660e01b8152600401602060405180830381865afa158015610cbb573d6000803e3d6000fd5b505050506040513d601f19601f82011682018060405250810190610cdf91906133a7565b15610d3857856001600160a01b0316637a83a34e6040518163ffffffff1660e01b8152600401600060405180830381600087803b158015610d1f57600080fd5b505af1158015610d33573d6000803e3d6000fd5b505050505b505050505050565b6000610d4a611657565b9050610d568186611685565b610d725760405162461bcd60e51b815260040161033a9061332e565b610c7d818787600080896000808b8b6122b0565b7fb19546dff01e856fb3f010c267a7b1c60363cf8a4664e21cc89c26224620214e610db081611da6565b6000610dba611657565b9050610dca601082016000612e6b565b60005b83811015610eb7576000858583818110610de957610de961340e565b9050602002016020810190610dfe9190612fa3565b6001600160a01b038082166000908152600f860160205260409020549192501680610e2b57610e2b613424565b6040805180820182526001600160a01b03928316815260108601805461ffff90811660208085019182529686166000818152600f8b018952958620945185549251909316600160a01b026001600160b01b03199092169290961691909117179091558054600181810183559183529390912090920180546001600160a01b031916909117905501610dcd565b5050505050565b610ee96040518060800160405280606081526020016060815260200160608152602001606081525090565b610ef9610ef4611657565b611e64565b905090565b600080610f09611657565b90506000610f1682611e64565b9050610f21816121dc565b5090949350505050565b6000610f35611657565b600681015490915060ff1615610f865760405162461bcd60e51b815260206004820152601660248201527515da5d1a191c985dd85b1cc8185c99481c185d5cd95960521b604482015260640161033a565b610f908187611685565b610fac5760405162461bcd60e51b815260040161033a9061332e565b610fc0818888886000808a60018b8b6122b0565b866001600160a01b03166396660b186040518163ffffffff1660e01b8152600401602060405180830381865afa158015610ffe573d6000803e3d6000fd5b505050506040513d601f19601f8201168201806040525081019061102291906133a7565b1561107b57866001600160a01b0316637a83a34e6040518163ffffffff1660e01b8152600401600060405180830381600087803b15801561106257600080fd5b505af1158015611076573d6000803e3d6000fd5b505050505b50505050505050565b600061108e611657565b336000818152600b8301602090815260408083206001600160a01b03891680855290835292819020805460ff1916881515908117909155905190815293945090927f92d241afb0a1a9b3441bf1bd6bea0f9164cf5a2562cbe4bcc34ab943b2465608910160405180910390a3505050565b6000611109611657565b905086158015611117575083155b806111275750600681015460ff16155b6111735760405162461bcd60e51b815260206004820152601c60248201527f54726f76652061646a7573746d656e7473206172652070617573656400000000604482015260640161033a565b86158061117e575085155b6111e35760405162461bcd60e51b815260206004820152603060248201527f426f72726f7765724f7065726174696f6e733a2043616e6e6f7420776974686460448201526f1c985dc8185b99081859190818dbdb1b60821b606482015260840161033a565b6111ed818a611685565b6112095760405162461bcd60e51b815260040161033a9061332e565b61121b818b8b8b8b8b8b8b8b8b6122b0565b896001600160a01b03166396660b186040518163ffffffff1660e01b8152600401602060405180830381865afa158015611259573d6000803e3d6000fd5b505050506040513d601f19601f8201168201806040525081019061127d91906133a7565b15610d3357896001600160a01b0316637a83a34e6040518163ffffffff1660e01b8152600401600060405180830381600087803b1580156112bd57600080fd5b505af11580156112d1573d6000803e3d6000fd5b5050505050505050505050505050565b60006112eb611657565b6001600160a01b038381166000908152600f83016020908152604091829020825180840190935254928316808352600160a01b90930461ffff1690820152919250158015906113975750826001600160a01b0316639484fb8e6040518163ffffffff1660e01b8152600401602060405180830381865afa158015611373573d6000803e3d6000fd5b505050506040513d601f19601f82011682018060405250810190611397919061343a565b80156114025750826001600160a01b031663795d26c36040518163ffffffff1660e01b8152600401602060405180830381865afa1580156113dc573d6000803e3d6000fd5b505050506040513d601f19601f8201168201806040525081019061140091906133a7565b155b61144e5760405162461bcd60e51b815260206004820152601f60248201527f54726f7665204d616e616765722063616e6e6f742062652072656d6f76656400604482015260640161033a565b6001600160a01b0383166000908152600f83016020526040812080546001600160b01b03191690556010830154611487906001906133fb565b905080826020015161ffff16101561154b5760008360100182815481106114b0576114b061340e565b9060005260206000200160009054906101000a90046001600160a01b031690508084601001846020015161ffff16815481106114ee576114ee61340e565b6000918252602080832090910180546001600160a01b039485166001600160a01b031990911617905585810151939092168152600f860190915260409020805461ffff909216600160a01b0261ffff60a01b199092169190911790555b8260100180548061155e5761155e613457565b600082815260208120820160001990810180546001600160a01b03191690559091019091556040516001600160a01b038616917fe44bbef3bc872937d7daf489db0badffc044d1813a027aea391838c54651430391a250505050565b60006115c4611657565b600681015490915060ff161561161c5760405162461bcd60e51b815260206004820152601c60248201527f54726f76652061646a7573746d656e7473206172652070617573656400000000604482015260640161033a565b6116268186611685565b6116425760405162461bcd60e51b815260040161033a9061332e565b610c7d81878760008860008060008b8b6122b0565b6000806107af60017f32dc5fac1ec0f102a33b5c15528dfb46fd85a8972ea61127a23d80a03590a7826133fb565b6000336001600160a01b03831614806116c357506001600160a01b0382166000908152600b84016020908152604080832033845290915290205460ff165b9392505050565b6001600160a01b038181166000908152600f84016020526040812080549283169282918291829190600160a01b900461ffff16866117435760405162461bcd60e51b815260206004820152601660248201527510dbdb1b185d195c985b081b9bdd08195b98589b195960521b604482015260640161033a565b60008061174f8b611e64565b905061175a816121dc565b90985096509150611772826714d1120d7b1600001190565b9450888160400151848151811061178b5761178b61340e565b602002602001015198509850505050509295509295909350565b670de0b6b3a76400008111156118185760405162461bcd60e51b815260206004820152603260248201527f4d6178206665652070657263656e74616765206d757374206c657373207468616044820152716e206f7220657175616c20746f203130302560701b606482015260840161033a565b50565b60405163b2f29d7b60e01b81526004810182905260009081906001600160a01b0388169063b2f29d7b906024016020604051808303816000875af1158015611867573d6000803e3d6000fd5b505050506040513d601f19601f8201168201806040525081019061188b91906133a7565b905061189881848661278c565b600288015460088901546040516340c10f1960e01b8152306004820152602481018490526001600160a01b0392831692909116906340c10f1990604401600060405180830381600087803b1580156118ef57600080fd5b505af1158015611903573d6000803e3d6000fd5b50505060088a015461192091506001600160a01b031682846127fd565b60405163d053316f60e01b8152600481018390526001600160a01b0382169063d053316f90602401600060405180830381600087803b15801561196257600080fd5b505af1158015611976573d6000803e3d6000fd5b50505050866001600160a01b0316866001600160a01b03167fd89359f0d8e7f936d0682c5565cc5a16989a91560a80c7b06c46c28e52a5d43a846040516119bf91815260200190565b60405180910390a350979650505050505050565b81600901548110156107e85760405162461bcd60e51b815260206004820152603a60248201527f426f72726f7765724f70733a2054726f76652773206e65742064656274206d7560448201527f73742062652067726561746572207468616e206d696e696d756d000000000000606482015260840161033a565b600080601260111960ff851601611a6657849150611abc565b8060ff168460ff161015611a9a57611a7e848261346d565b611a8990600a61356a565b611a9390866133c0565b9150611abc565b611aa4818561346d565b611aaf90600a61356a565b611ab99086613579565b91505b509392505050565b60006116c38284613371565b60008215611af857600083611ae584876133c0565b611aef9190613579565b91506116c39050565b506000199392505050565b60008115611b305781611b1f68056bc75e2d63100000856133c0565b611b299190613579565b90506107af565b506000196107af565b6714d1120d7b1600008110156118185760405162461bcd60e51b815260206004820152603760248201527f426f72726f7765724f70733a204f7065726174696f6e206d757374206c65617660448201527f652074726f7665207769746820494352203e3d20434352000000000000000000606482015260840161033a565b808210156107e85760405162461bcd60e51b815260206004820152604960248201527f426f72726f7765724f70733a20416e206f7065726174696f6e2074686174207760448201527f6f756c6420726573756c7420696e20494352203c204d4352206973206e6f74206064820152681c195c9b5a5d1d195960ba1b608482015260a40161033a565b600082611c5557611c5084886133fb565b611c5f565b611c5f8488613371565b965084611c7557611c7086896133fb565b611c7f565b611c7f8689613371565b97506000611c8d8984611a4d565b90506000611c9b828a612887565b9a9950505050505050505050565b6714d1120d7b1600008110156118185760405162461bcd60e51b815260206004820152604960248201527f426f72726f7765724f70733a20416e206f7065726174696f6e2074686174207760448201527f6f756c6420726573756c7420696e20544352203c20434352206973206e6f74206064820152681c195c9b5a5d1d195960ba1b608482015260a40161033a565b6040516001600160a01b038481166024830152838116604483015260648201839052611da09186918216906323b872dd906084015b604051602081830303815290604052915060e01b6020820180516001600160e01b0383818316178352505050506128a4565b50505050565b6118188133612915565b80600003611e195760405162461bcd60e51b815260206004820152603060248201527f426f72726f7765724f70733a204d696e206e65742064656274206d757374206260448201526f0652067726561746572207468616e20360841b606482015260840161033a565b6000611e23611657565b600981018390556040518381529091507fcfc0c88ac9bb8b061975a4c8304a9e092b6bdfc7c44af00235a2d0d0c59e592d9060200160405180910390a15050565b611e8f6040518060800160405280606081526020016060815260200160608152602001606081525090565b60108201546040805160808101909152808267ffffffffffffffff811115611eb957611eb961359b565b604051908082528060200260200182016040528015611ee2578160200160208202803683370190505b5081526020018267ffffffffffffffff811115611f0157611f0161359b565b604051908082528060200260200182016040528015611f2a578160200160208202803683370190505b5081526020018267ffffffffffffffff811115611f4957611f4961359b565b604051908082528060200260200182016040528015611f72578160200160208202803683370190505b5081526020018267ffffffffffffffff811115611f9157611f9161359b565b604051908082528060200260200182016040528015611fba578160200160208202803683370190505b509052915060005b818110156121d5576000846010018281548110611fe157611fe161340e565b9060005260206000200160009054906101000a90046001600160a01b031690506000806000836001600160a01b03166301c799fc6040518163ffffffff1660e01b81526004016060604051808303816000875af1158015612046573d6000803e3d6000fd5b505050506040513d601f19601f8201168201806040525081019061206a91906135b1565b92509250925082876000015186815181106120875761208761340e565b60200260200101818152505081876020015186815181106120aa576120aa61340e565b60200260200101818152505080876040015186815181106120cd576120cd61340e565b602002602001018181525050836001600160a01b031663b2016bd46040518163ffffffff1660e01b8152600401602060405180830381865afa158015612117573d6000803e3d6000fd5b505050506040513d601f19601f8201168201806040525081019061213b91906135df565b6001600160a01b031663313ce5676040518163ffffffff1660e01b8152600401602060405180830381865afa158015612178573d6000803e3d6000fd5b505050506040513d601f19601f8201168201806040525081019061219c9190613384565b876060015186815181106121b2576121b261340e565b602002602001019060ff16908160ff168152505084600101945050505050611fc2565b5050919050565b80515160009081908190815b8181101561229b57856040015181815181106122065761220661340e565b6020026020010151612252876000015183815181106122275761222761340e565b6020026020010151886060015184815181106122455761224561340e565b6020026020010151611a4d565b61225c91906133c0565b6122669085613371565b93508560200151818151811061227e5761227e61340e565b6020026020010151836122919190613371565b92506001016121e8565b506122a68383612887565b9350509193909250565b851515806122bd57508415155b806122c757508315155b6123485760405162461bcd60e51b815260206004820152604660248201527f426f72726f7765724f70733a205468657265206d75737420626520656974686560448201527f72206120636f6c6c61746572616c206368616e6765206f7220612064656274206064820152656368616e676560d01b608482015260a40161033a565b60006123ce604051806101e00160405280600081526020016000815260200160008152602001600081526020016000815260200160001515815260200160008152602001600081526020016000815260200160008152602001600081526020016000815260200160006001600160a01b0316815260200160008152602001600081525090565b60006123da8d8d6116ca565b60408781019290925260208701929092529185529051630b07655760e01b81526001600160a01b038e81166004830152929550909250908d1690630b0765579060240160408051808303816000875af115801561243b573d6000803e3d6000fd5b505050506040513d601f19601f8201168201806040525081019061245f91906133d7565b60c084015260e08301526124738989612977565b151560a084015260608301526080820187905261016082018790526001600160a01b03808c1661018084015260408051631e5395c960e21b81529051918e169163794e5724916004808201926020929091908290030181865afa1580156124de573d6000803e3d6000fd5b505050506040513d601f19601f8201168201806040525081019061250291906133a7565b6101a0830152600a8d01546101c083015285156125bb578660000361258f5760405162461bcd60e51b815260206004820152603760248201527f426f72726f7765724f70733a204465627420696e63726561736520726571756960448201527f726573206e6f6e2d7a65726f20646562744368616e6765000000000000000000606482015260840161033a565b6125988a6117a5565b6125a68d8d858e8e8c61181b565b826080018181516125b79190613371565b9052505b6000836001600160a01b031663313ce5676040518163ffffffff1660e01b8152600401602060405180830381865afa1580156125fb573d6000803e3d6000fd5b505050506040513d601f19601f8201168201806040525081019061261f9190613384565b905061263883602001518460400151848c8b8887612996565b8615801561264557508715155b15612675576126758e84608001516126668660c00151876101c00151612ac9565b61267091906133fb565b6119d3565b8260a00151156126a3576126a3338e8560600151876001600160a01b0316611d39909392919063ffffffff16565b610160830151608084015160a0850151606086015161018087015160405163f158c80960e01b81528c1515600482015260248101959095526044850193909352901515606484015260848301526001600160a01b0388811660a484015287811660c484015290811660e4830152336101048301528e169063f158c80990610124016060604051808303816000875af1158015612743573d6000803e3d6000fd5b505050506040513d601f19601f8201168201806040525081019061276791906135b1565b6101408601526101008501526101209093019290925250505050505050505050505050565b6000826127a1670de0b6b3a7640000866133c0565b6127ab9190613579565b905081811115611da05760405162461bcd60e51b815260206004820152601d60248201527f4665652065786365656465642070726f7669646564206d6178696d756d000000604482015260640161033a565b604051636eb1769f60e11b81523060048201526001600160a01b0383811660248301526000919085169063dd62ed3e90604401602060405180830381865afa15801561284d573d6000803e3d6000fd5b505050506040513d601f19601f8201168201806040525081019061287191906133a7565b9050611da084846128828585613371565b612ad5565b60008115611b3057600061289b8385613579565b91506107af9050565b600080602060008451602086016000885af1806128c7576040513d6000823e3d81fd5b50506000513d915081156128df5780600114156128ec565b6001600160a01b0384163b155b15611da057604051635274afe760e01b81526001600160a01b038516600482015260240161033a565b61291f8282612b65565b6107e857612935816001600160a01b0316612b9c565b612940836020612bae565b604051602001612951929190613620565b60408051601f198184030181529082905262461bcd60e51b825261033a91600401613695565b600080831561298b5750829050600161298f565b8291505b9250929050565b60006129a68360e0015183611a4d565b905060006129bd828560c001518660000151611ad0565b905060006129e98560e001518660c0015187606001518860a0015189608001518b8b600001518b612ced565b90508715612a83578615612a655760405162461bcd60e51b815260206004820152603e60248201527f426f72726f7765724f70733a20436f6c6c61746572616c20776974686472617760448201527f616c206e6f74207065726d6974746564205265636f76657279204d6f64650000606482015260840161033a565b8515612a7e57612a7481611b39565b612a7e8183612d30565b610d33565b612a9281866101a00151611bb7565b6000612abe8b8b88600001518960600151612aad91906133c0565b8960a001518a608001518c8b611c3f565b905061107681611ca9565b60006116c382846133fb565b604080516001600160a01b038416602482015260448082018490528251808303909101815260649091019091526020810180516001600160e01b031663095ea7b360e01b179052612b268482612da6565b611da0576040516001600160a01b03848116602483015260006044830152612b5b91869182169063095ea7b390606401611d6e565b611da084826128a4565b60008281527fd3889cc5458b268d0544e5534672df1296288ca3f93cbd39bd6f497a5c622811602052604081206116c39083612df5565b60606107af6001600160a01b03831660145b60011b600201606060008267ffffffffffffffff811115612bd157612bd161359b565b6040519080825280601f01601f191660200182016040528015612bfb576020820181803683370190505b509050600360fc1b81600081518110612c1657612c1661340e565b60200101906001600160f81b031916908160001a905350600f60fb1b81600181518110612c4557612c4561340e565b60200101906001600160f81b031916908160001a9053505b6002831115612cce57600019909201916f181899199a1a9b1b9c1cb0b131b232b360811b600f851660108110612c9557612c9561340e565b1a60f81b818481518110612cab57612cab61340e565b60200101906001600160f81b031916908160001a905350600484901c9350612c5d565b83156116c3576040516355a04ff160e11b815260040160405180910390fd5b6000806000612d008b8b8b8b8b8b612e17565b915091506000612d108386611a4d565b90506000612d1f828489611ad0565b9d9c50505050505050505050505050565b808210156107e85760405162461bcd60e51b815260206004820152603e60248201527f426f72726f7765724f70733a2043616e6e6f7420646563726561736520796f7560448201527f722054726f766527732049435220696e205265636f76657279204d6f64650000606482015260840161033a565b6000806000806020600086516020880160008a5af192503d91506000519050828015612deb57508115612ddc5780600114612deb565b6000866001600160a01b03163b115b9695505050505050565b6001600160a01b038116600090815260018301602052604081205415156116c3565b600080878786612e3057612e2b888b6133fb565b612e3a565b612e3a888b613371565b915084612e5057612e4b868a6133fb565b612e5a565b612e5a868a613371565b919a91995090975050505050505050565b508054600082559060005260206000209081019061181891905b80821115612e995760008155600101612e85565b5090565b6001600160a81b038116811461181857600080fd5b600080600080600080600060e0888a031215612ecd57600080fd5b8735612ed881612e9d565b6001600160a01b039081169750602089013590612ef482612e9d565b908116965060408901359550606089013594506080890135935060a089013590612f1d82612e9d565b908116925060c089013590612f3182612e9d565b8082169250505092959891949750929550565b60008060408385031215612f5757600080fd5b8235612f6281612e9d565b6001600160a01b039081169250602084013590612f7e82612e9d565b92959216935090915050565b600060208284031215612f9c57600080fd5b5035919050565b600060208284031215612fb557600080fd5b8135612fc081612e9d565b6001600160a01b03169392505050565b600080600080600060a08688031215612fe857600080fd5b8535612ff381612e9d565b6001600160a01b03908116955060208701359061300f82612e9d565b90811694506040870135935060608701359061302a82612e9d565b908116925060808701359061303e82612e9d565b808216925050509295509295909350565b6000806020838503121561306257600080fd5b823567ffffffffffffffff8082111561307a57600080fd5b818501915085601f83011261308e57600080fd5b81358181111561309d57600080fd5b8660208260051b85010111156130b257600080fd5b60209290920196919550909350505050565b60008151808452602080850194506020840160005b838110156130f5578151875295820195908201906001016130d9565b509495945050505050565b60006020808352835160808285015261311c60a08501826130c4565b905081850151601f198086840301604087015261313983836130c4565b9250604087015191508086840301606087015261315683836130c4565b6060880151878203909201608088015281518082529185019350600092508401905b8083101561319b57835160ff168252928401926001929092019190840190613178565b509695505050505050565b60008060008060008060c087890312156131bf57600080fd5b86356131ca81612e9d565b6001600160a01b0390811696506020880135906131e682612e9d565b9081169550604088013594506060880135935060808801359061320882612e9d565b908116925060a08801359061321c82612e9d565b808216925050509295509295509295565b801515811461181857600080fd5b6000806040838503121561324e57600080fd5b823561325981612e9d565b6001600160a01b0316915060208301356132728161322d565b809150509250929050565b60008060008060008060008060006101208a8c03121561329c57600080fd5b89356132a781612e9d565b6001600160a01b03908116995060208b0135906132c382612e9d565b908116985060408b0135975060608b0135965060808b0135955060a08b0135945060c08b0135906132f38261322d565b90935060e08b01359061330582612e9d565b90811692506101008b01359061331a82612e9d565b808216925050509295985092959850929598565b60208082526013908201527210d85b1b195c881b9bdd08185c1c1c9bdd9959606a1b604082015260600190565b634e487b7160e01b600052601160045260246000fd5b808201808211156107af576107af61335b565b60006020828403121561339657600080fd5b815160ff811681146116c357600080fd5b6000602082840312156133b957600080fd5b5051919050565b80820281158282048414176107af576107af61335b565b600080604083850312156133ea57600080fd5b505080516020909101519092909150565b818103818111156107af576107af61335b565b634e487b7160e01b600052603260045260246000fd5b634e487b7160e01b600052600160045260246000fd5b60006020828403121561344c57600080fd5b81516116c38161322d565b634e487b7160e01b600052603160045260246000fd5b60ff82811682821603908111156107af576107af61335b565b600181815b808511156134c15781600019048211156134a7576134a761335b565b808516156134b457918102915b93841c939080029061348b565b509250929050565b6000826134d8575060016107af565b816134e5575060006107af565b81600181146134fb576002811461350557613521565b60019150506107af565b60ff8411156135165761351661335b565b50506001821b6107af565b5060208310610133831016604e8410600b8410161715613544575081810a6107af565b61354e8383613486565b80600019048211156135625761356261335b565b029392505050565b60006116c360ff8416836134c9565b60008261359657634e487b7160e01b600052601260045260246000fd5b500490565b634e487b7160e01b600052604160045260246000fd5b6000806000606084860312156135c657600080fd5b8351925060208401519150604084015190509250925092565b6000602082840312156135f157600080fd5b8151612fc081612e9d565b60005b838110156136175781810151838201526020016135ff565b50506000910152565b7f416363657373436f6e74726f6c3a206163636f756e74200000000000000000008152600083516136588160178501602088016135fc565b7001034b99036b4b9b9b4b733903937b6329607d1b60179184019182015283516136898160288401602088016135fc565b01602801949350505050565b60208152600082518060208401526136b48160408501602087016135fc565b601f01601f1916919091016040019291505056fea26474726f6e58221220af14a7c0a9cdca5c5ff8ba7f36650d29b7e6275bb128c783b8caa91b953e15f164736f6c63430008160033",
  "source": "// SPDX-License-Identifier: UNLICENSED\npragma solidity ^0.8.20;\n\nimport { IRewardManager } from \"../../OSHI/interfaces/IRewardManager.sol\";\nimport { SatoshiMath } from \"../../library/SatoshiMath.sol\";\nimport { AppStorage } from \"../AppStorage.sol\";\n\nimport { Config } from \"../Config.sol\";\nimport {\n    Balances,\n    BorrowerOperation,\n    IBorrowerOperationsFacet,\n    TroveManagerData\n} from \"../interfaces/IBorrowerOperationsFacet.sol\";\nimport { IDebtToken } from \"../interfaces/IDebtToken.sol\";\nimport { ITroveManager } from \"../interfaces/ITroveManager.sol\";\n\nimport { BorrowerOperationsLib } from \"../libs/BorrowerOperationsLib.sol\";\nimport { IERC20 } from \"@openzeppelin/contracts/token/ERC20/IERC20.sol\";\nimport { IERC20Metadata } from \"@openzeppelin/contracts/token/ERC20/extensions/IERC20Metadata.sol\";\nimport { SafeERC20 } from \"@openzeppelin/contracts/token/ERC20/utils/SafeERC20.sol\";\nimport { AccessControlInternal } from \"@solidstate/contracts/access/access_control/AccessControlInternal.sol\";\nimport { OwnableInternal } from \"@solidstate/contracts/access/ownable/OwnableInternal.sol\";\n\ncontract BorrowerOperationsFacet is IBorrowerOperationsFacet, AccessControlInternal {\n    using SafeERC20 for IERC20;\n    using SafeERC20 for IDebtToken;\n    using BorrowerOperationsLib for *;\n\n    struct LocalVariables_adjustTrove {\n        uint256 price;\n        uint256 totalPricedCollateral;\n        uint256 totalDebt;\n        uint256 collChange;\n        uint256 netDebtChange;\n        bool isCollIncrease;\n        uint256 debt;\n        uint256 coll;\n        uint256 newDebt;\n        uint256 newColl;\n        uint256 stake;\n        uint256 debtChange;\n        address account;\n        uint256 MCR;\n        uint256 debtGasCompensation;\n    }\n\n    struct LocalVariables_openTrove {\n        uint256 price;\n        uint256 totalPricedCollateral;\n        uint256 totalDebt;\n        uint256 netDebt;\n        uint256 compositeDebt;\n        uint256 ICR;\n        uint256 NICR;\n        uint256 stake;\n        uint256 arrayIndex;\n    }\n\n    function isApprovedDelegate(address _account, address _delegate) external view returns (bool) {\n        return AppStorage.layout().isApprovedDelegate[_account][_delegate];\n    }\n\n    function setDelegateApproval(address _delegate, bool _isApproved) external {\n        AppStorage.Layout storage s = AppStorage.layout();\n        s.isApprovedDelegate[msg.sender][_delegate] = _isApproved;\n        emit DelegateApprovalSet(msg.sender, _delegate, _isApproved);\n    }\n\n    function setMinNetDebt(uint256 _minNetDebt) external onlyRole(Config.OWNER_ROLE) {\n        _setMinNetDebt(_minNetDebt);\n    }\n\n    function _setMinNetDebt(uint256 _minNetDebt) internal {\n        require(_minNetDebt != 0, \"BorrowerOps: Min net debt must be greater than 0\");\n        AppStorage.Layout storage s = AppStorage.layout();\n        s.minNetDebt = _minNetDebt;\n        emit MinNetDebtUpdated(_minNetDebt);\n    }\n\n    ///@notice force function to fix factory deployNewInstance bug\n    ///@notice upgrade in 2025.2.13\n    function forceResetTM(ITroveManager[] calldata _troveManagers) external onlyRole(Config.OWNER_ROLE) {\n        AppStorage.Layout storage s = AppStorage.layout();\n        delete s.troveManagers;\n\n        for (uint256 i; i < _troveManagers.length; i++) {\n            ITroveManager troveManager = _troveManagers[i];\n            IERC20 collateralToken = s.troveManagersData[troveManager].collateralToken;\n            assert(address(collateralToken) != address(0));\n\n            s.troveManagersData[troveManager] = TroveManagerData(collateralToken, uint16(s.troveManagers.length));\n            s.troveManagers.push(troveManager);\n        }\n    }\n\n    function removeTroveManager(ITroveManager troveManager) external {\n        AppStorage.Layout storage s = AppStorage.layout();\n        TroveManagerData memory tmData = s.troveManagersData[troveManager];\n        require(\n            address(tmData.collateralToken) != address(0) && troveManager.sunsetting()\n                && troveManager.getEntireSystemDebt() == 0,\n            \"Trove Manager cannot be removed\"\n        );\n        delete s.troveManagersData[troveManager];\n        uint256 lastIndex = s.troveManagers.length - 1;\n        if (tmData.index < lastIndex) {\n            ITroveManager lastTm = s.troveManagers[lastIndex];\n            s.troveManagers[tmData.index] = lastTm;\n            s.troveManagersData[lastTm].index = tmData.index;\n        }\n\n        s.troveManagers.pop();\n        emit TroveManagerRemoved(troveManager);\n    }\n\n    /**\n     * @notice Get the global total collateral ratio\n     *     @dev Not a view because fetching from the oracle is state changing.\n     *          Can still be accessed as a view from within the UX.\n     */\n    function getTCR() external returns (uint256 globalTotalCollateralRatio) {\n        AppStorage.Layout storage s = AppStorage.layout();\n        Balances memory balances = s._fetchBalances();\n        (globalTotalCollateralRatio,,) = BorrowerOperationsLib._getTCRData(balances);\n        return globalTotalCollateralRatio;\n    }\n\n    function fetchBalances() external returns (Balances memory balances) {\n        return BorrowerOperationsLib._fetchBalances(AppStorage.layout());\n    }\n\n    function checkRecoveryMode(uint256 TCR) external pure returns (bool) {\n        return BorrowerOperationsLib._checkRecoveryMode(TCR);\n    }\n\n    function getCompositeDebt(uint256 _debt) external view returns (uint256) {\n        return SatoshiMath._getCompositeDebt(_debt, AppStorage.layout().gasCompensation);\n    }\n\n    // --- Borrower Trove Operations ---\n\n    function openTrove(\n        ITroveManager troveManager,\n        address account,\n        uint256 _maxFeePercentage,\n        uint256 _collateralAmount,\n        uint256 _debtAmount,\n        address _upperHint,\n        address _lowerHint\n    )\n        external\n    {\n        AppStorage.Layout storage s = AppStorage.layout();\n        require(!s.paused, \"Deposits are paused\");\n        require(s._isCallerOrDelegated(account), \"Caller not approved\");\n\n        IERC20 collateralToken;\n        LocalVariables_openTrove memory vars;\n        bool isRecoveryMode;\n\n        (collateralToken, vars.price, vars.totalPricedCollateral, vars.totalDebt, isRecoveryMode) =\n            s._getCollateralAndTCRData(troveManager);\n\n        BorrowerOperationsLib._requireValidMaxFeePercentage(_maxFeePercentage);\n\n        vars.netDebt = _debtAmount\n            + _triggerBorrowingFee(s, troveManager, collateralToken, account, _maxFeePercentage, _debtAmount);\n\n        BorrowerOperationsLib._requireAtLeastMinNetDebt(s, vars.netDebt);\n\n        uint8 decimals = IERC20Metadata(address(collateralToken)).decimals();\n        uint256 scaledCollateralAmount = SatoshiMath._getScaledCollateralAmount(_collateralAmount, decimals);\n\n        // ICR is based on the composite debt, i.e. the requested Debt amount + Debt borrowing fee + Debt gas comp.\n        vars.compositeDebt = SatoshiMath._getCompositeDebt(vars.netDebt, s.gasCompensation);\n        vars.ICR = SatoshiMath._computeCR(scaledCollateralAmount, vars.compositeDebt, vars.price);\n        vars.NICR = SatoshiMath._computeNominalCR(_collateralAmount, vars.compositeDebt);\n\n        if (isRecoveryMode) {\n            BorrowerOperationsLib._requireICRisAboveCCR(vars.ICR);\n        } else {\n            BorrowerOperationsLib._requireICRisAboveMCR(vars.ICR, troveManager.MCR());\n            uint256 newTCR = BorrowerOperationsLib._getNewTCRFromTroveChange(\n                vars.totalPricedCollateral,\n                vars.totalDebt,\n                _collateralAmount * vars.price,\n                true,\n                vars.compositeDebt,\n                true,\n                decimals\n            ); // bools: coll increase, debt increase\n            BorrowerOperationsLib._requireNewTCRisAboveCCR(newTCR);\n        }\n\n        // Create the trove\n        (vars.stake, vars.arrayIndex) =\n            troveManager.openTrove(account, _collateralAmount, vars.compositeDebt, vars.NICR, _upperHint, _lowerHint);\n\n        // Move the collateral to the Trove Manager\n        collateralToken.safeTransferFrom(msg.sender, address(troveManager), _collateralAmount);\n\n        //  and mint the DebtAmount to the caller and gas compensation for Gas Pool\n        s.debtToken.mintWithGasCompensation(msg.sender, _debtAmount);\n\n        // collect interest payable to rewardManager\n        if (troveManager.interestPayable() != 0) {\n            troveManager.collectInterests();\n        }\n    }\n\n    // Send collateral to a trove\n    function addColl(\n        ITroveManager troveManager,\n        address account,\n        uint256 _collateralAmount,\n        address _upperHint,\n        address _lowerHint\n    )\n        external\n    {\n        AppStorage.Layout storage s = AppStorage.layout();\n        require(!s.paused, \"Trove adjustments are paused\");\n        require(s._isCallerOrDelegated(account), \"Caller not approved\");\n\n        _adjustTrove(s, troveManager, account, 0, _collateralAmount, 0, 0, false, _upperHint, _lowerHint);\n\n        // collect interest payable to rewardManager\n        if (troveManager.interestPayable() != 0) {\n            troveManager.collectInterests();\n        }\n    }\n\n    // Withdraw collateral from a trove\n    function withdrawColl(\n        ITroveManager troveManager,\n        address account,\n        uint256 _collWithdrawal,\n        address _upperHint,\n        address _lowerHint\n    )\n        external\n    {\n        AppStorage.Layout storage s = AppStorage.layout();\n        require(s._isCallerOrDelegated(account), \"Caller not approved\");\n        _adjustTrove(s, troveManager, account, 0, 0, _collWithdrawal, 0, false, _upperHint, _lowerHint);\n\n        // collect interest payable to rewardManager\n        if (troveManager.interestPayable() != 0) {\n            troveManager.collectInterests();\n        }\n    }\n\n    // Withdraw Debt tokens from a trove: mint new Debt tokens to the owner, and increase the trove's debt accordingly\n    function withdrawDebt(\n        ITroveManager troveManager,\n        address account,\n        uint256 _maxFeePercentage,\n        uint256 _debtAmount,\n        address _upperHint,\n        address _lowerHint\n    )\n        external\n    {\n        AppStorage.Layout storage s = AppStorage.layout();\n        require(!s.paused, \"Withdrawals are paused\");\n        require(s._isCallerOrDelegated(account), \"Caller not approved\");\n        _adjustTrove(s, troveManager, account, _maxFeePercentage, 0, 0, _debtAmount, true, _upperHint, _lowerHint);\n\n        // collect interest payable to rewardManager\n        if (troveManager.interestPayable() != 0) {\n            troveManager.collectInterests();\n        }\n    }\n\n    // Repay Debt tokens to a Trove: Burn the repaid Debt tokens, and reduce the trove's debt accordingly\n    function repayDebt(\n        ITroveManager troveManager,\n        address account,\n        uint256 _debtAmount,\n        address _upperHint,\n        address _lowerHint\n    )\n        external\n    {\n        AppStorage.Layout storage s = AppStorage.layout();\n        require(s._isCallerOrDelegated(account), \"Caller not approved\");\n        _adjustTrove(s, troveManager, account, 0, 0, 0, _debtAmount, false, _upperHint, _lowerHint);\n\n        // collect interest payable to rewardManager\n        if (troveManager.interestPayable() != 0) {\n            troveManager.collectInterests();\n        }\n    }\n\n    function adjustTrove(\n        ITroveManager troveManager,\n        address account,\n        uint256 _maxFeePercentage,\n        uint256 _collDeposit,\n        uint256 _collWithdrawal,\n        uint256 _debtChange,\n        bool _isDebtIncrease,\n        address _upperHint,\n        address _lowerHint\n    )\n        external\n    {\n        AppStorage.Layout storage s = AppStorage.layout();\n        require((_collDeposit == 0 && !_isDebtIncrease) || !s.paused, \"Trove adjustments are paused\");\n        require(_collDeposit == 0 || _collWithdrawal == 0, \"BorrowerOperations: Cannot withdraw and add coll\");\n        require(s._isCallerOrDelegated(account), \"Caller not approved\");\n        _adjustTrove(\n            s,\n            troveManager,\n            account,\n            _maxFeePercentage,\n            _collDeposit,\n            _collWithdrawal,\n            _debtChange,\n            _isDebtIncrease,\n            _upperHint,\n            _lowerHint\n        );\n\n        // collect interest payable to rewardManager\n        if (troveManager.interestPayable() != 0) {\n            troveManager.collectInterests();\n        }\n    }\n\n    function _adjustTrove(\n        AppStorage.Layout storage s,\n        ITroveManager troveManager,\n        address account,\n        uint256 _maxFeePercentage,\n        uint256 _collDeposit,\n        uint256 _collWithdrawal,\n        uint256 _debtChange,\n        bool _isDebtIncrease,\n        address _upperHint,\n        address _lowerHint\n    )\n        internal\n    {\n        require(\n            _collDeposit != 0 || _collWithdrawal != 0 || _debtChange != 0,\n            \"BorrowerOps: There must be either a collateral change or a debt change\"\n        );\n\n        IERC20 collateralToken;\n        LocalVariables_adjustTrove memory vars;\n        bool isRecoveryMode;\n        (collateralToken, vars.price, vars.totalPricedCollateral, vars.totalDebt, isRecoveryMode) =\n            s._getCollateralAndTCRData(troveManager);\n\n        (vars.coll, vars.debt) = troveManager.applyPendingRewards(account);\n\n        // Get the collChange based on whether or not collateral was sent in the transaction\n        (vars.collChange, vars.isCollIncrease) = BorrowerOperationsLib._getCollChange(_collDeposit, _collWithdrawal);\n        vars.netDebtChange = _debtChange;\n        vars.debtChange = _debtChange;\n        vars.account = account;\n        vars.MCR = troveManager.MCR();\n        vars.debtGasCompensation = s.gasCompensation;\n\n        if (_isDebtIncrease) {\n            require(_debtChange != 0, \"BorrowerOps: Debt increase requires non-zero debtChange\");\n            BorrowerOperationsLib._requireValidMaxFeePercentage(_maxFeePercentage);\n\n            vars.netDebtChange += _triggerBorrowingFee(\n                s, troveManager, collateralToken, account, _maxFeePercentage, _debtChange\n            );\n        }\n\n        // Calculate old and new ICRs and check if adjustment satisfies all conditions for the current system mode\n        uint8 decimals = IERC20Metadata(address(collateralToken)).decimals();\n        _requireValidAdjustmentInCurrentMode(\n            vars.totalPricedCollateral, vars.totalDebt, isRecoveryMode, _collWithdrawal, _isDebtIncrease, vars, decimals\n        );\n\n        // When the adjustment is a debt repayment, check it's a valid amount and that the caller has enough Debt\n        if (!_isDebtIncrease && _debtChange != 0) {\n            BorrowerOperationsLib._requireAtLeastMinNetDebt(\n                s, SatoshiMath._getNetDebt(vars.debt, vars.debtGasCompensation) - vars.netDebtChange\n            );\n        }\n\n        // If we are incrasing collateral, send tokens to the trove manager prior to adjusting the trove\n        if (vars.isCollIncrease) collateralToken.safeTransferFrom(msg.sender, address(troveManager), vars.collChange);\n\n        (vars.newColl, vars.newDebt, vars.stake) = troveManager.updateTroveFromAdjustment(\n            _isDebtIncrease,\n            vars.debtChange,\n            vars.netDebtChange,\n            vars.isCollIncrease,\n            vars.collChange,\n            _upperHint,\n            _lowerHint,\n            vars.account,\n            msg.sender\n        );\n    }\n\n    function closeTrove(ITroveManager troveManager, address account) external {\n        AppStorage.Layout storage s = AppStorage.layout();\n        require(s._isCallerOrDelegated(account), \"Caller not approved\");\n\n        IERC20 collateralToken;\n        uint256 price;\n        bool isRecoveryMode;\n        uint256 totalPricedCollateral;\n        uint256 totalDebt;\n        (collateralToken, price, totalPricedCollateral, totalDebt, isRecoveryMode) =\n            s._getCollateralAndTCRData(troveManager);\n        require(!isRecoveryMode, \"BorrowerOps: Operation not permitted during Recovery Mode\");\n        uint8 decimals = IERC20Metadata(address(collateralToken)).decimals();\n        (uint256 coll, uint256 debt) = troveManager.applyPendingRewards(account);\n\n        uint256 newTCR = BorrowerOperationsLib._getNewTCRFromTroveChange(\n            totalPricedCollateral, totalDebt, coll * price, false, debt, false, decimals\n        );\n\n        BorrowerOperationsLib._requireNewTCRisAboveCCR(newTCR);\n\n        troveManager.closeTrove(account, msg.sender, coll, debt);\n\n        // Burn the repaid Debt from the user's balance and the gas compensation from the Gas Pool\n        s.debtToken.burnWithGasCompensation(msg.sender, debt - s.gasCompensation);\n\n        // collect interest payable to rewardManager\n        if (troveManager.interestPayable() != 0) {\n            troveManager.collectInterests();\n        }\n    }\n\n    function troveManagersData(ITroveManager _troveManager) external view returns (IERC20, uint16) {\n        TroveManagerData memory _troveManagersData = AppStorage.layout().troveManagersData[_troveManager];\n        return (_troveManagersData.collateralToken, _troveManagersData.index);\n    }\n\n    function minNetDebt() external view returns (uint256) {\n        return AppStorage.layout().minNetDebt;\n    }\n\n    // --- Helper functions ---\n\n    function _triggerBorrowingFee(\n        AppStorage.Layout storage s,\n        ITroveManager _troveManager,\n        IERC20 collateralToken,\n        address _caller,\n        uint256 _maxFeePercentage,\n        uint256 _debtAmount\n    )\n        internal\n        returns (uint256)\n    {\n        uint256 debtFee = _troveManager.decayBaseRateAndGetBorrowingFee(_debtAmount);\n\n        SatoshiMath._requireUserAcceptsFee(debtFee, _debtAmount, _maxFeePercentage);\n\n        address rewardManager = address(s.rewardManager);\n        s.debtToken.mint(address(this), debtFee);\n        s.debtToken.safeIncreaseAllowance(rewardManager, debtFee);\n        IRewardManager(rewardManager).increaseSATPerUintStaked(debtFee);\n\n        emit BorrowingFeePaid(_caller, collateralToken, debtFee);\n\n        return debtFee;\n    }\n\n    function _requireValidAdjustmentInCurrentMode(\n        uint256 totalPricedCollateral,\n        uint256 totalDebt,\n        bool _isRecoveryMode,\n        uint256 _collWithdrawal,\n        bool _isDebtIncrease,\n        LocalVariables_adjustTrove memory _vars,\n        uint8 decimals\n    )\n        internal\n        pure\n    {\n        /*\n         *In Recovery Mode, only allow:\n         *\n         * - Pure collateral top-up\n         * - Pure debt repayment\n         * - Collateral top-up with debt repayment\n         * - A debt increase combined with a collateral top-up which makes the ICR >= 150% and improves the ICR (and by extension improves the TCR).\n         *\n         * In Normal Mode, ensure:\n         *\n         * - The new ICR is above MCR\n         * - The adjustment won't pull the TCR below CCR\n         */\n\n        // Get the trove's old ICR before the adjustment\n        uint256 scaledCollAmount = SatoshiMath._getScaledCollateralAmount(_vars.coll, decimals);\n        uint256 oldICR = SatoshiMath._computeCR(scaledCollAmount, _vars.debt, _vars.price);\n\n        // Get the trove's new ICR after the adjustment\n        uint256 newICR = BorrowerOperationsLib._getNewICRFromTroveChange(\n            _vars.coll,\n            _vars.debt,\n            _vars.collChange,\n            _vars.isCollIncrease,\n            _vars.netDebtChange,\n            _isDebtIncrease,\n            _vars.price,\n            decimals\n        );\n\n        if (_isRecoveryMode) {\n            require(_collWithdrawal == 0, \"BorrowerOps: Collateral withdrawal not permitted Recovery Mode\");\n            if (_isDebtIncrease) {\n                BorrowerOperationsLib._requireICRisAboveCCR(newICR);\n                BorrowerOperationsLib._requireNewICRisAboveOldICR(newICR, oldICR);\n            }\n        } else {\n            // if Normal Mode\n            BorrowerOperationsLib._requireICRisAboveMCR(newICR, _vars.MCR);\n            uint256 newTCR = BorrowerOperationsLib._getNewTCRFromTroveChange(\n                totalPricedCollateral,\n                totalDebt,\n                _vars.collChange * _vars.price,\n                _vars.isCollIncrease,\n                _vars.netDebtChange,\n                _isDebtIncrease,\n                decimals\n            );\n            BorrowerOperationsLib._requireNewTCRisAboveCCR(newTCR);\n        }\n    }\n\n    function getGlobalSystemBalances() external returns (uint256 totalPricedCollateral, uint256 totalDebt) {\n        AppStorage.Layout storage s = AppStorage.layout();\n        Balances memory balances = s._fetchBalances();\n        (, totalPricedCollateral, totalDebt) = BorrowerOperationsLib._getTCRData(balances);\n    }\n}\n",
  "sourcePath": "/Users/ashley/Documents/satoshi/satoshi-v2/src/core/facets/BorrowerOperationsFacet.sol",
  "compiler": {
    "name": "solc",
    "version": "0.8.22+commit.5ed3e10f.Emscripten.clang"
  },
  "schemaVersion": "2.0.1",
  "updatedAt": "2026-04-14T07:11:27.741Z"
}