{
  "contractName": "CommunityIssuance",
  "abi": [
    {
      "inputs": [],
      "stateMutability": "nonpayable",
      "type": "constructor"
    },
    {
      "inputs": [
        {
          "internalType": "address",
          "name": "target",
          "type": "address"
        }
      ],
      "name": "AddressEmptyCode",
      "type": "error"
    },
    {
      "inputs": [
        {
          "internalType": "address",
          "name": "implementation",
          "type": "address"
        }
      ],
      "name": "ERC1967InvalidImplementation",
      "type": "error"
    },
    {
      "inputs": [],
      "name": "ERC1967NonPayable",
      "type": "error"
    },
    {
      "inputs": [],
      "name": "FailedCall",
      "type": "error"
    },
    {
      "inputs": [],
      "name": "InvalidInitialization",
      "type": "error"
    },
    {
      "inputs": [],
      "name": "NotInitializing",
      "type": "error"
    },
    {
      "inputs": [
        {
          "internalType": "address",
          "name": "owner",
          "type": "address"
        }
      ],
      "name": "OwnableInvalidOwner",
      "type": "error"
    },
    {
      "inputs": [
        {
          "internalType": "address",
          "name": "account",
          "type": "address"
        }
      ],
      "name": "OwnableUnauthorizedAccount",
      "type": "error"
    },
    {
      "inputs": [],
      "name": "UUPSUnauthorizedCallContext",
      "type": "error"
    },
    {
      "inputs": [
        {
          "internalType": "bytes32",
          "name": "slot",
          "type": "bytes32"
        }
      ],
      "name": "UUPSUnsupportedProxiableUUID",
      "type": "error"
    },
    {
      "inputs": [],
      "name": "ZeroAddress",
      "type": "error"
    },
    {
      "anonymous": false,
      "inputs": [
        {
          "indexed": false,
          "internalType": "uint64",
          "name": "version",
          "type": "uint64"
        }
      ],
      "name": "Initialized",
      "type": "event"
    },
    {
      "anonymous": false,
      "inputs": [
        {
          "indexed": false,
          "internalType": "contract IOSHIToken",
          "name": "_oshiToken",
          "type": "address"
        }
      ],
      "name": "OSHITokenSet",
      "type": "event"
    },
    {
      "anonymous": false,
      "inputs": [
        {
          "indexed": true,
          "internalType": "address",
          "name": "previousOwner",
          "type": "address"
        },
        {
          "indexed": true,
          "internalType": "address",
          "name": "newOwner",
          "type": "address"
        }
      ],
      "name": "OwnershipTransferred",
      "type": "event"
    },
    {
      "anonymous": false,
      "inputs": [
        {
          "indexed": false,
          "internalType": "address",
          "name": "_satoshiXApp",
          "type": "address"
        }
      ],
      "name": "SatoshiXappSet",
      "type": "event"
    },
    {
      "anonymous": false,
      "inputs": [
        {
          "indexed": true,
          "internalType": "address",
          "name": "receiver",
          "type": "address"
        },
        {
          "indexed": false,
          "internalType": "uint256",
          "name": "amount",
          "type": "uint256"
        }
      ],
      "name": "SetAllocation",
      "type": "event"
    },
    {
      "anonymous": false,
      "inputs": [
        {
          "indexed": true,
          "internalType": "address",
          "name": "implementation",
          "type": "address"
        }
      ],
      "name": "Upgraded",
      "type": "event"
    },
    {
      "inputs": [],
      "name": "OSHIToken",
      "outputs": [
        {
          "internalType": "contract IOSHIToken",
          "name": "",
          "type": "address"
        }
      ],
      "stateMutability": "view",
      "type": "function"
    },
    {
      "inputs": [],
      "name": "UPGRADE_INTERFACE_VERSION",
      "outputs": [
        {
          "internalType": "string",
          "name": "",
          "type": "string"
        }
      ],
      "stateMutability": "view",
      "type": "function"
    },
    {
      "inputs": [
        {
          "internalType": "address",
          "name": "",
          "type": "address"
        }
      ],
      "name": "allocated",
      "outputs": [
        {
          "internalType": "uint256",
          "name": "",
          "type": "uint256"
        }
      ],
      "stateMutability": "view",
      "type": "function"
    },
    {
      "inputs": [
        {
          "internalType": "uint256",
          "name": "amount",
          "type": "uint256"
        }
      ],
      "name": "collectAllocatedTokens",
      "outputs": [],
      "stateMutability": "nonpayable",
      "type": "function"
    },
    {
      "inputs": [
        {
          "internalType": "address",
          "name": "",
          "type": "address"
        }
      ],
      "name": "collected",
      "outputs": [
        {
          "internalType": "uint256",
          "name": "",
          "type": "uint256"
        }
      ],
      "stateMutability": "view",
      "type": "function"
    },
    {
      "inputs": [
        {
          "internalType": "address",
          "name": "owner",
          "type": "address"
        },
        {
          "internalType": "contract IOSHIToken",
          "name": "_oshiToken",
          "type": "address"
        },
        {
          "internalType": "address",
          "name": "_satoshiXApp",
          "type": "address"
        }
      ],
      "name": "initialize",
      "outputs": [],
      "stateMutability": "nonpayable",
      "type": "function"
    },
    {
      "inputs": [],
      "name": "owner",
      "outputs": [
        {
          "internalType": "address",
          "name": "",
          "type": "address"
        }
      ],
      "stateMutability": "view",
      "type": "function"
    },
    {
      "inputs": [],
      "name": "proxiableUUID",
      "outputs": [
        {
          "internalType": "bytes32",
          "name": "",
          "type": "bytes32"
        }
      ],
      "stateMutability": "view",
      "type": "function"
    },
    {
      "inputs": [],
      "name": "renounceOwnership",
      "outputs": [],
      "stateMutability": "nonpayable",
      "type": "function"
    },
    {
      "inputs": [],
      "name": "satoshiXApp",
      "outputs": [
        {
          "internalType": "address",
          "name": "",
          "type": "address"
        }
      ],
      "stateMutability": "view",
      "type": "function"
    },
    {
      "inputs": [
        {
          "internalType": "address[]",
          "name": "_recipients",
          "type": "address[]"
        },
        {
          "internalType": "uint256[]",
          "name": "_amounts",
          "type": "uint256[]"
        }
      ],
      "name": "setAllocated",
      "outputs": [],
      "stateMutability": "nonpayable",
      "type": "function"
    },
    {
      "inputs": [
        {
          "internalType": "address",
          "name": "receiver",
          "type": "address"
        },
        {
          "internalType": "uint256",
          "name": "amount",
          "type": "uint256"
        }
      ],
      "name": "transferAllocatedTokens",
      "outputs": [],
      "stateMutability": "nonpayable",
      "type": "function"
    },
    {
      "inputs": [
        {
          "internalType": "address",
          "name": "newOwner",
          "type": "address"
        }
      ],
      "name": "transferOwnership",
      "outputs": [],
      "stateMutability": "nonpayable",
      "type": "function"
    },
    {
      "inputs": [
        {
          "internalType": "address",
          "name": "newImplementation",
          "type": "address"
        },
        {
          "internalType": "bytes",
          "name": "data",
          "type": "bytes"
        }
      ],
      "name": "upgradeToAndCall",
      "outputs": [],
      "stateMutability": "payable",
      "type": "function"
    }
  ],
  "bytecode": "0x60a06040523060805234801561001457600080fd5b50d3801561002157600080fd5b50d2801561002e57600080fd5b5061003761003c565b6100ee565b7ff0c57e16840df040f15088dc2f81fe391c3923bec73e23a9662efc9c229c6a00805468010000000000000000900460ff161561008c5760405163f92ee8a960e01b815260040160405180910390fd5b80546001600160401b03908116146100eb5780546001600160401b0319166001600160401b0390811782556040519081527fc7f505b2f371ae2175ee4913f4499e1f2633a7b5936321eed1cdaeb6115181d29060200160405180910390a15b50565b6080516112726101176000396000818161097d015281816109a60152610ae701526112726000f3fe6080604052600436106100dd5760003560e01c8063acb0382c1161007f578063c0c53b8b11610059578063c0c53b8b14610367578063cf6120bd146103a1578063f2fde38b146103db578063f6bd04d81461041557600080fd5b8063acb0382c1461029b578063ad3cb1cc146102d5578063b76b0c081461032d57600080fd5b806352d1902d116100bb57806352d1902d14610198578063715018a6146101c75780638da5cb5b146101f6578063a96e3f8e1461026157600080fd5b806338e43840146100e25780634225e5bb1461013c5780634f1ef28614610183575b600080fd5b3480156100ee57600080fd5b50d380156100fb57600080fd5b50d2801561010857600080fd5b50610129610117366004610e60565b60036020526000908152604090205481565b6040519081526020015b60405180910390f35b34801561014857600080fd5b50d3801561015557600080fd5b50d2801561016257600080fd5b50610129610171366004610e60565b60026020526000908152604090205481565b610196610191366004610ea3565b61044f565b005b3480156101a457600080fd5b50d380156101b157600080fd5b50d280156101be57600080fd5b5061012961046e565b3480156101d357600080fd5b50d380156101e057600080fd5b50d280156101ed57600080fd5b5061019661048b565b34801561020257600080fd5b50d3801561020f57600080fd5b50d2801561021c57600080fd5b507f9016d09d72d40fdae2fd8ceac6b6234c7706214fd39c1cd1e609a0528c199300546001600160a01b03165b6040516001600160a01b039091168152602001610133565b34801561026d57600080fd5b50d3801561027a57600080fd5b50d2801561028757600080fd5b50610196610296366004610fbc565b61049f565b3480156102a757600080fd5b50d380156102b457600080fd5b50d280156102c157600080fd5b50600154610249906001600160a01b031681565b3480156102e157600080fd5b50d380156102ee57600080fd5b50d280156102fb57600080fd5b50610320604051806040016040528060058152602001640352e302e360dc1b81525081565b604051610133919061104c565b34801561033957600080fd5b50d3801561034657600080fd5b50d2801561035357600080fd5b50600054610249906001600160a01b031681565b34801561037357600080fd5b50d3801561038057600080fd5b50d2801561038d57600080fd5b5061019661039c36600461107f565b61060f565b3480156103ad57600080fd5b50d380156103ba57600080fd5b50d280156103c757600080fd5b506101966103d63660046110dd565b6107e1565b3480156103e757600080fd5b50d380156103f457600080fd5b50d2801561040157600080fd5b50610196610410366004610e60565b610862565b34801561042157600080fd5b50d3801561042e57600080fd5b50d2801561043b57600080fd5b5061019661044a3660046110f6565b61089d565b610457610972565b61046082610a17565b61046a8282610a1f565b5050565b6000610478610adc565b5060008051602061121d83398151915290565b610493610b25565b61049d6000610b80565b565b6104a7610b25565b8281146105165760405162461bcd60e51b815260206004820152603260248201527f436f6d6d756e6974792049737375616e63653a20417272617973206d757374206044820152710c4ca40decc40cae2eac2d840d8cadccee8d60731b60648201526084015b60405180910390fd5b60005b83811015610608578282828181106105335761053361112b565b90506020020135600260008787858181106105505761055061112b565b90506020020160208101906105659190610e60565b6001600160a01b031681526020810191909152604001600020558484828181106105915761059161112b565b90506020020160208101906105a69190610e60565b6001600160a01b03167fb0f2d10e59353b15eaf8cf7c36c9bdca7026a85deaadb65882e12b6fc1b661f88484848181106105e2576105e261112b565b905060200201356040516105f891815260200190565b60405180910390a2600101610519565b5050505050565b7ff0c57e16840df040f15088dc2f81fe391c3923bec73e23a9662efc9c229c6a008054600160401b810460ff16159067ffffffffffffffff166000811580156106555750825b905060008267ffffffffffffffff1660011480156106725750303b155b905081158015610680575080155b1561069e5760405163f92ee8a960e01b815260040160405180910390fd5b845467ffffffffffffffff1916600117855583156106c857845460ff60401b1916600160401b1785555b6106d188610bf1565b6106da87610bf1565b6106e386610bf1565b6106eb610c18565b6106f488610c20565b600180546001600160a01b038981166001600160a01b0319928316811790935560008054918a16919092161790556040519081527f470ca2010a1d1fd617fbf2d3ec851b4674bda05f4795c0d7b86da46f6810d72d9060200160405180910390a16040516001600160a01b03871681527f636ef48a457e65a80b78ff7dc628882eea0a3fc567db8232532cfc0bac13635c9060200160405180910390a183156107d757845460ff60401b19168555604051600181527fc7f505b2f371ae2175ee4913f4499e1f2633a7b5936321eed1cdaeb6115181d29060200160405180910390a15b5050505050505050565b801561085f57336000908152600260205260409020548111156108165760405162461bcd60e51b815260040161050d90611141565b336000908152600260205260408120805483929061083590849061119f565b909155505033600090815260036020526040812080548392906108599084906111b2565b90915550505b50565b61086a610b25565b6001600160a01b03811661089457604051631e4fbdf760e01b81526000600482015260240161050d565b61085f81610b80565b801561046a57336000908152600360205260409020548111156108d25760405162461bcd60e51b815260040161050d90611141565b33600090815260036020526040812080548392906108f190849061119f565b909155505060015460405163a9059cbb60e01b81526001600160a01b038481166004830152602482018490529091169063a9059cbb906044016020604051808303816000875af1158015610949573d6000803e3d6000fd5b505050506040513d601f19601f8201168201806040525081019061096d91906111c5565b505050565b306001600160a01b037f00000000000000000000000000000000000000000000000000000000000000001614806109f957507f00000000000000000000000000000000000000000000000000000000000000006001600160a01b03166109ed60008051602061121d833981519152546001600160a01b031690565b6001600160a01b031614155b1561049d5760405163703e46dd60e11b815260040160405180910390fd5b61085f610b25565b816001600160a01b03166352d1902d6040518163ffffffff1660e01b8152600401602060405180830381865afa925050508015610a79575060408051601f3d908101601f19168201909252610a76918101906111e7565b60015b610aa157604051634c9c8ce360e01b81526001600160a01b038316600482015260240161050d565b60008051602061121d8339815191528114610ad257604051632a87526960e21b81526004810182905260240161050d565b61096d8383610c28565b306001600160a01b037f0000000000000000000000000000000000000000000000000000000000000000161461049d5760405163703e46dd60e11b815260040160405180910390fd5b33610b577f9016d09d72d40fdae2fd8ceac6b6234c7706214fd39c1cd1e609a0528c199300546001600160a01b031690565b6001600160a01b03161461049d5760405163118cdaa760e01b815233600482015260240161050d565b7f9016d09d72d40fdae2fd8ceac6b6234c7706214fd39c1cd1e609a0528c19930080546001600160a01b031981166001600160a01b03848116918217845560405192169182907f8be0079c531659141344cd1fd0a4f28419497f9722a3daafe3b4186f6b6457e090600090a3505050565b6001600160a01b03811661085f5760405163d92e233d60e01b815260040160405180910390fd5b61049d610c7e565b61086a610c7e565b610c3182610cc7565b6040516001600160a01b038316907fbc7cd75a20ee27fd9adebab32041f755214dbc6bffa90cc0225b39da2e5c2d3b90600090a2805115610c765761096d8282610d2c565b61046a610da4565b7ff0c57e16840df040f15088dc2f81fe391c3923bec73e23a9662efc9c229c6a0054600160401b900460ff1661049d57604051631afcd79f60e31b815260040160405180910390fd5b806001600160a01b03163b600003610cfd57604051634c9c8ce360e01b81526001600160a01b038216600482015260240161050d565b60008051602061121d83398151915280546001600160a01b0319166001600160a01b0392909216919091179055565b6060600080846001600160a01b031684604051610d499190611200565b600060405180830381855af49150503d8060008114610d84576040519150601f19603f3d011682016040523d82523d6000602084013e610d89565b606091505b5091509150610d99858383610dc3565b925050505b92915050565b341561049d5760405163b398979f60e01b815260040160405180910390fd5b606082610dd857610dd382610e22565b610e1b565b8151158015610def57506001600160a01b0384163b155b15610e1857604051639996b31560e01b81526001600160a01b038516600482015260240161050d565b50805b9392505050565b805115610e325780518082602001fd5b60405163d6bda27560e01b815260040160405180910390fd5b6001600160a81b038116811461085f57600080fd5b600060208284031215610e7257600080fd5b8135610e7d81610e4b565b6001600160a01b03169392505050565b634e487b7160e01b600052604160045260246000fd5b60008060408385031215610eb657600080fd5b8235610ec181610e4b565b6001600160a01b03169150602083013567ffffffffffffffff80821115610ee757600080fd5b818501915085601f830112610efb57600080fd5b813581811115610f0d57610f0d610e8d565b604051601f8201601f19908116603f01168101908382118183101715610f3557610f35610e8d565b81604052828152886020848701011115610f4e57600080fd5b8260208601602083013760006020848301015280955050505050509250929050565b60008083601f840112610f8257600080fd5b50813567ffffffffffffffff811115610f9a57600080fd5b6020830191508360208260051b8501011115610fb557600080fd5b9250929050565b60008060008060408587031215610fd257600080fd5b843567ffffffffffffffff80821115610fea57600080fd5b610ff688838901610f70565b9096509450602087013591508082111561100f57600080fd5b5061101c87828801610f70565b95989497509550505050565b60005b8381101561104357818101518382015260200161102b565b50506000910152565b602081526000825180602084015261106b816040850160208701611028565b601f01601f19169190910160400192915050565b60008060006060848603121561109457600080fd5b833561109f81610e4b565b6001600160a01b0390811693506020850135906110bb82610e4b565b90811692506040850135906110cf82610e4b565b808216925050509250925092565b6000602082840312156110ef57600080fd5b5035919050565b6000806040838503121561110957600080fd5b823561111481610e4b565b6001600160a01b0316946020939093013593505050565b634e487b7160e01b600052603260045260246000fd5b60208082526028908201527f436f6d6d756e6974792049737375616e63653a20496e73756666696369656e746040820152672062616c616e636560c01b606082015260800190565b634e487b7160e01b600052601160045260246000fd5b81810381811115610d9e57610d9e611189565b80820180821115610d9e57610d9e611189565b6000602082840312156111d757600080fd5b81518015158114610e1b57600080fd5b6000602082840312156111f957600080fd5b5051919050565b60008251611212818460208701611028565b919091019291505056fe360894a13ba1a3210667c828492db98dca3e2076cc3735a920a3ca505d382bbca26474726f6e58221220592e2445bb09d9925398b9a6158afc44c2c4bd9e553eff5f365680f92af51e8d64736f6c63430008160033",
  "source": "// SPDX-License-Identifier: MIT\npragma solidity ^0.8.20;\n\nimport { Utils } from \"../library/Utils.sol\";\nimport { ICommunityIssuance } from \"./interfaces/ICommunityIssuance.sol\";\nimport { IOSHIToken } from \"./interfaces/IOSHIToken.sol\";\nimport { OwnableUpgradeable } from \"@openzeppelin/contracts-upgradeable/access/OwnableUpgradeable.sol\";\nimport { UUPSUpgradeable } from \"@openzeppelin/contracts-upgradeable/proxy/utils/UUPSUpgradeable.sol\";\nimport { SafeERC20 } from \"@openzeppelin/contracts/token/ERC20/utils/SafeERC20.sol\";\n\ncontract CommunityIssuance is ICommunityIssuance, UUPSUpgradeable, OwnableUpgradeable {\n    address public satoshiXApp;\n    IOSHIToken public OSHIToken;\n\n    mapping(address => uint256) public allocated; // allocate to troveManagers and SP\n    mapping(address => uint256) public collected;\n\n    constructor() {\n        _disableInitializers();\n    }\n\n    /// @notice Override the _authorizeUpgrade function inherited from UUPSUpgradeable contract\n    // solhint-disable-next-line no-empty-blocks\n    function _authorizeUpgrade(address newImplementation) internal view override onlyOwner {\n        // No additional authorization logic is needed for this contract\n    }\n\n    function initialize(address owner, IOSHIToken _oshiToken, address _satoshiXApp) external initializer {\n        Utils.ensureNonzeroAddress(owner);\n        Utils.ensureNonzeroAddress(address(_oshiToken));\n        Utils.ensureNonzeroAddress(_satoshiXApp);\n\n        __UUPSUpgradeable_init_unchained();\n        __Ownable_init_unchained(owner);\n        OSHIToken = _oshiToken;\n        satoshiXApp = _satoshiXApp;\n\n        emit OSHITokenSet(_oshiToken);\n        emit SatoshiXappSet(_satoshiXApp);\n    }\n\n    function setAllocated(address[] calldata _recipients, uint256[] calldata _amounts) external onlyOwner {\n        require(_recipients.length == _amounts.length, \"Community Issuance: Arrays must be of equal length\");\n        for (uint256 i; i < _recipients.length; ++i) {\n            allocated[_recipients[i]] = _amounts[i];\n            emit SetAllocation(_recipients[i], _amounts[i]);\n        }\n    }\n\n    function transferAllocatedTokens(address receiver, uint256 amount) external {\n        if (amount > 0) {\n            require(collected[msg.sender] >= amount, \"Community Issuance: Insufficient balance\");\n            collected[msg.sender] -= amount;\n            OSHIToken.transfer(receiver, amount);\n        }\n    }\n\n    function collectAllocatedTokens(uint256 amount) external {\n        if (amount > 0) {\n            require(allocated[msg.sender] >= amount, \"Community Issuance: Insufficient balance\");\n            allocated[msg.sender] -= amount;\n            collected[msg.sender] += amount;\n        }\n    }\n}\n",
  "sourcePath": "/Users/ashley/Documents/satoshi/satoshi-v2/src/OSHI/CommunityIssuance.sol",
  "compiler": {
    "name": "solc",
    "version": "0.8.22+commit.5ed3e10f.Emscripten.clang"
  },
  "schemaVersion": "2.0.1",
  "updatedAt": "2026-04-14T07:11:27.714Z"
}