{
  "contractName": "Config",
  "abi": [
    {
      "inputs": [],
      "name": "BASIS_POINTS_DIVISOR",
      "outputs": [
        {
          "internalType": "uint256",
          "name": "",
          "type": "uint256"
        }
      ],
      "stateMutability": "view",
      "type": "function"
    },
    {
      "inputs": [],
      "name": "BOOTSTRAP_PERIOD",
      "outputs": [
        {
          "internalType": "uint256",
          "name": "",
          "type": "uint256"
        }
      ],
      "stateMutability": "view",
      "type": "function"
    },
    {
      "inputs": [],
      "name": "MANTISSA_ONE",
      "outputs": [
        {
          "internalType": "uint256",
          "name": "",
          "type": "uint256"
        }
      ],
      "stateMutability": "view",
      "type": "function"
    },
    {
      "inputs": [],
      "name": "ONE_DOLLAR",
      "outputs": [
        {
          "internalType": "uint256",
          "name": "",
          "type": "uint256"
        }
      ],
      "stateMutability": "view",
      "type": "function"
    },
    {
      "inputs": [],
      "name": "PRICE_TARGET_DIGITS",
      "outputs": [
        {
          "internalType": "uint256",
          "name": "",
          "type": "uint256"
        }
      ],
      "stateMutability": "view",
      "type": "function"
    },
    {
      "inputs": [],
      "name": "TARGET_DIGITS",
      "outputs": [
        {
          "internalType": "uint256",
          "name": "",
          "type": "uint256"
        }
      ],
      "stateMutability": "view",
      "type": "function"
    }
  ],
  "bytecode": "0x60d8610039600b82828239805160001a60731461002c57634e487b7160e01b600052600060045260246000fd5b30600052607381538281f3fe730000000000000000000000000000000000000000301460806040526004361060655760003560e01c8063126082cf14606a5780631be5c92f146084578063572ca9e714608b578063c35bc550146099578063d183409a146084578063f23c0f4014608b575b600080fd5b607261271081565b60405190815260200160405180910390f35b6072601281565b6072670de0b6b3a764000081565b6072621275008156fea26474726f6e5822122059f88130208c64036611423deb8033d1f1b29b978afb8cc1a24bd4c4c6627ff264736f6c63430008160033",
  "source": "// SPDX-License-Identifier: MIT\npragma solidity ^0.8.20;\n\nlibrary Config {\n    bytes32 internal constant OWNER_ROLE = keccak256(\"OWNER_ROLE\");\n    bytes32 internal constant GUARDIAN_ROLE = keccak256(\"GUARDIAN_ROLE\");\n\n    // During bootsrap period redemptions are not allowed\n    uint256 public constant BOOTSTRAP_PERIOD = 14 days;\n    uint256 internal constant CCR = 1_500_000_000_000_000_000; // 150%\n\n    uint256 internal constant PERCENT_DIVISOR = 200; // dividing by 200 yields 0.5%\n\n    /* stability pool */\n    uint256 internal constant DEBT_TOKEN_DECIMALS = 18;\n    uint256 internal constant DEBT_TOKEN_DECIMALS_BASE = 1e18;\n\n    uint128 internal constant SUNSET_DURATION = 180 days;\n\n    uint256 internal constant OSHI_EMISSION_DURATION = 5 * 365 days; // 5 years\n\n    uint128 internal constant SP_MAX_REWARD_RATE = 63_419_583_967_529_168; // 10_000_000e18 / (5 * 31536000)\n\n    uint256 internal constant SCALE_FACTOR = 1e9;\n\n    /* Factory */\n    uint128 internal constant TM_MAX_REWARD_RATE = 126_839_167_935_058_336; //  (20_000_000e18 / (5 * 31536000))\n\n    /* Liquidation */\n    uint256 internal constant _100_PCT = 1_000_000_000_000_000_000; // 1e18 == 100%\n\n    /* PriceFeedAggregator */\n    uint256 public constant PRICE_TARGET_DIGITS = 18;\n\n    /* Nexus Yield Manager */\n    uint256 public constant TARGET_DIGITS = 18;\n\n    uint256 public constant BASIS_POINTS_DIVISOR = 10_000;\n\n    uint256 public constant MANTISSA_ONE = 1e18;\n\n    uint256 public constant ONE_DOLLAR = 1e18;\n\n    /**\n     * Farming\n     */\n    uint256 constant FARMING_PRECISION = 1e4;\n}\n",
  "sourcePath": "/Users/ashley/Documents/satoshi/satoshi-v2/src/core/Config.sol",
  "compiler": {
    "name": "solc",
    "version": "0.8.22+commit.5ed3e10f.Emscripten.clang"
  },
  "schemaVersion": "2.0.1",
  "updatedAt": "2026-04-14T07:11:27.722Z"
}