{
  "contractName": "CoreFacet",
  "abi": [
    {
      "inputs": [],
      "name": "UintUtils__InsufficientPadding",
      "type": "error"
    },
    {
      "anonymous": false,
      "inputs": [
        {
          "indexed": false,
          "internalType": "address",
          "name": "feeReceiver",
          "type": "address"
        }
      ],
      "name": "FeeReceiverSet",
      "type": "event"
    },
    {
      "anonymous": false,
      "inputs": [
        {
          "indexed": false,
          "internalType": "address",
          "name": "guardian",
          "type": "address"
        }
      ],
      "name": "GuardianSet",
      "type": "event"
    },
    {
      "anonymous": false,
      "inputs": [],
      "name": "Paused",
      "type": "event"
    },
    {
      "anonymous": false,
      "inputs": [
        {
          "indexed": false,
          "internalType": "address",
          "name": "rewardManager",
          "type": "address"
        }
      ],
      "name": "RewardManagerSet",
      "type": "event"
    },
    {
      "anonymous": false,
      "inputs": [
        {
          "indexed": true,
          "internalType": "bytes32",
          "name": "role",
          "type": "bytes32"
        },
        {
          "indexed": true,
          "internalType": "bytes32",
          "name": "previousAdminRole",
          "type": "bytes32"
        },
        {
          "indexed": true,
          "internalType": "bytes32",
          "name": "newAdminRole",
          "type": "bytes32"
        }
      ],
      "name": "RoleAdminChanged",
      "type": "event"
    },
    {
      "anonymous": false,
      "inputs": [
        {
          "indexed": true,
          "internalType": "bytes32",
          "name": "role",
          "type": "bytes32"
        },
        {
          "indexed": true,
          "internalType": "address",
          "name": "account",
          "type": "address"
        },
        {
          "indexed": true,
          "internalType": "address",
          "name": "sender",
          "type": "address"
        }
      ],
      "name": "RoleGranted",
      "type": "event"
    },
    {
      "anonymous": false,
      "inputs": [
        {
          "indexed": true,
          "internalType": "bytes32",
          "name": "role",
          "type": "bytes32"
        },
        {
          "indexed": true,
          "internalType": "address",
          "name": "account",
          "type": "address"
        },
        {
          "indexed": true,
          "internalType": "address",
          "name": "sender",
          "type": "address"
        }
      ],
      "name": "RoleRevoked",
      "type": "event"
    },
    {
      "anonymous": false,
      "inputs": [],
      "name": "Unpaused",
      "type": "event"
    },
    {
      "inputs": [],
      "name": "communityIssuance",
      "outputs": [
        {
          "internalType": "contract ICommunityIssuance",
          "name": "",
          "type": "address"
        }
      ],
      "stateMutability": "view",
      "type": "function"
    },
    {
      "inputs": [],
      "name": "debtToken",
      "outputs": [
        {
          "internalType": "contract IDebtToken",
          "name": "",
          "type": "address"
        }
      ],
      "stateMutability": "view",
      "type": "function"
    },
    {
      "inputs": [],
      "name": "feeReceiver",
      "outputs": [
        {
          "internalType": "address",
          "name": "",
          "type": "address"
        }
      ],
      "stateMutability": "view",
      "type": "function"
    },
    {
      "inputs": [],
      "name": "gasCompensation",
      "outputs": [
        {
          "internalType": "uint256",
          "name": "",
          "type": "uint256"
        }
      ],
      "stateMutability": "view",
      "type": "function"
    },
    {
      "inputs": [],
      "name": "paused",
      "outputs": [
        {
          "internalType": "bool",
          "name": "",
          "type": "bool"
        }
      ],
      "stateMutability": "view",
      "type": "function"
    },
    {
      "inputs": [],
      "name": "rewardManager",
      "outputs": [
        {
          "internalType": "contract IRewardManager",
          "name": "",
          "type": "address"
        }
      ],
      "stateMutability": "view",
      "type": "function"
    },
    {
      "inputs": [
        {
          "internalType": "address",
          "name": "_feeReceiver",
          "type": "address"
        }
      ],
      "name": "setFeeReceiver",
      "outputs": [],
      "stateMutability": "nonpayable",
      "type": "function"
    },
    {
      "inputs": [
        {
          "internalType": "bool",
          "name": "_paused",
          "type": "bool"
        }
      ],
      "name": "setPaused",
      "outputs": [],
      "stateMutability": "nonpayable",
      "type": "function"
    },
    {
      "inputs": [
        {
          "internalType": "address",
          "name": "_rewardManager",
          "type": "address"
        }
      ],
      "name": "setRewardManager",
      "outputs": [],
      "stateMutability": "nonpayable",
      "type": "function"
    },
    {
      "inputs": [],
      "name": "sortedTrovesBeacon",
      "outputs": [
        {
          "internalType": "contract IBeacon",
          "name": "",
          "type": "address"
        }
      ],
      "stateMutability": "view",
      "type": "function"
    },
    {
      "inputs": [],
      "name": "startTime",
      "outputs": [
        {
          "internalType": "uint256",
          "name": "",
          "type": "uint256"
        }
      ],
      "stateMutability": "view",
      "type": "function"
    },
    {
      "inputs": [],
      "name": "troveManagerBeacon",
      "outputs": [
        {
          "internalType": "contract IBeacon",
          "name": "",
          "type": "address"
        }
      ],
      "stateMutability": "view",
      "type": "function"
    }
  ],
  "bytecode": "0x608060405234801561001057600080fd5b50d3801561001d57600080fd5b50d2801561002a57600080fd5b506108a48061003a6000396000f3fe608060405234801561001057600080fd5b50d3801561001d57600080fd5b50d2801561002a57600080fd5b50600436106100ce5760003560e01c806384f5c2d21161008b57806384f5c2d21461015657806395fb16bb1461015e5780639868e1bf14610166578063b3f006741461016e578063efdcd97414610176578063f8d898981461018957600080fd5b80630f4ef8a6146100d3578063153ee554146100f857806316c38b3c1461010d5780633edc8ceb146101205780635c975abb1461012857806378e9792514610140575b600080fd5b6100db610191565b6040516001600160a01b0390911681526020015b60405180910390f35b61010b6101063660046106fa565b6101ad565b005b61010b61011b366004610733565b61023d565b6100db61035f565b61013061037b565b60405190151581526020016100ef565b610148610391565b6040519081526020016100ef565b6101486103a4565b6100db6103b7565b6100db6103d3565b6100db6103ef565b61010b6101843660046106fa565b610408565b6100db61048a565b600061019b6104a6565b600201546001600160a01b0316919050565b7fb19546dff01e856fb3f010c267a7b1c60363cf8a4664e21cc89c26224620214e6101d7816104da565b60006101e16104a6565b6002810180546001600160a01b0319166001600160a01b0386169081179091556040519081529091507f4b722357462a92ae2776fce05f39902ac96cb04d2fe661eb688f4a72ab069cff906020015b60405180910390a1505050565b60006102476104a6565b905081801561027b575061027b7f55435dd261a4b9b3364963f7738a7a662ad9c84396d64be3365284bb7f0a5041336104e7565b806102ab57506102ab7fb19546dff01e856fb3f010c267a7b1c60363cf8a4664e21cc89c26224620214e336104e7565b6102eb5760405162461bcd60e51b815260206004820152600c60248201526b155b985d5d1a1bdc9a5e995960a21b60448201526064015b60405180910390fd5b60068101805460ff19168315801591909117909155610331576040517f9e87fac88ff661f02d44f95383c817fece4bce600a3dab7a54406878b965e75290600090a15050565b6040517fa45f47fdea8a1efdd9029a5691c7f759c32b7c698632b563573e155625d1693390600090a15b5050565b60006103696104a6565b600c01546001600160a01b0316919050565b60006103856104a6565b6006015460ff16919050565b600061039b6104a6565b60070154905090565b60006103ae6104a6565b600a0154905090565b60006103c16104a6565b600301546001600160a01b0316919050565b60006103dd6104a6565b600d01546001600160a01b0316919050565b60006103f96104a6565b546001600160a01b0316919050565b7fb19546dff01e856fb3f010c267a7b1c60363cf8a4664e21cc89c26224620214e610432816104da565b600061043c6104a6565b80546001600160a01b0319166001600160a01b03851690811782556040519081529091507fbdf37c276f641820b141429d245add2552b4118c0866e5a78638e3de5ef18d9d90602001610230565b60006104946104a6565b600801546001600160a01b0316919050565b6000806104d460017f32dc5fac1ec0f102a33b5c15528dfb46fd85a8972ea61127a23d80a03590a782610755565b92915050565b6104e48133610525565b50565b60008281527fd3889cc5458b268d0544e5534672df1296288ca3f93cbd39bd6f497a5c6228116020526040812061051e9083610587565b9392505050565b61052f82826104e7565b61035b57610545816001600160a01b03166105a9565b6105508360206105bb565b60405160200161056192919061079a565b60408051601f198184030181529082905262461bcd60e51b82526102e29160040161080f565b6001600160a01b0381166000908152600183016020526040812054151561051e565b60606104d46001600160a01b03831660145b60011b600201606060008267ffffffffffffffff8111156105de576105de610842565b6040519080825280601f01601f191660200182016040528015610608576020820181803683370190505b509050600360fc1b8160008151811061062357610623610858565b60200101906001600160f81b031916908160001a905350600f60fb1b8160018151811061065257610652610858565b60200101906001600160f81b031916908160001a9053505b60028311156106db57600019909201916f181899199a1a9b1b9c1cb0b131b232b360811b600f8516601081106106a2576106a2610858565b1a60f81b8184815181106106b8576106b8610858565b60200101906001600160f81b031916908160001a905350600484901c935061066a565b831561051e576040516355a04ff160e11b815260040160405180910390fd5b60006020828403121561070c57600080fd5b81356001600160a81b038116811461072357600080fd5b6001600160a01b03169392505050565b60006020828403121561074557600080fd5b8135801515811461051e57600080fd5b818103818111156104d457634e487b7160e01b600052601160045260246000fd5b60005b83811015610791578181015183820152602001610779565b50506000910152565b7f416363657373436f6e74726f6c3a206163636f756e74200000000000000000008152600083516107d2816017850160208801610776565b7001034b99036b4b9b9b4b733903937b6329607d1b6017918401918201528351610803816028840160208801610776565b01602801949350505050565b602081526000825180602084015261082e816040850160208701610776565b601f01601f19169190910160400192915050565b634e487b7160e01b600052604160045260246000fd5b634e487b7160e01b600052603260045260246000fdfea26474726f6e58221220eeb6d949a0e9bdfd29efbb937ae44e2cd78778d820f4af11e4e5e534411fbe2464736f6c63430008160033",
  "source": "// SPDX-License-Identifier: MIT\npragma solidity ^0.8.20;\n\nimport { ICommunityIssuance } from \"../../OSHI/interfaces/ICommunityIssuance.sol\";\nimport { IRewardManager } from \"../../OSHI/interfaces/IRewardManager.sol\";\nimport { AppStorage } from \"../AppStorage.sol\";\n\nimport { Config } from \"../Config.sol\";\nimport { ICoreFacet } from \"../interfaces/ICoreFacet.sol\";\nimport { IDebtToken } from \"../interfaces/IDebtToken.sol\";\nimport { IBeacon } from \"@openzeppelin/contracts/proxy/beacon/IBeacon.sol\";\nimport { AccessControlInternal } from \"@solidstate/contracts/access/access_control/AccessControlInternal.sol\";\nimport { OwnableInternal } from \"@solidstate/contracts/access/ownable/OwnableInternal.sol\";\n\ncontract CoreFacet is ICoreFacet, AccessControlInternal {\n    /**\n     * @notice Set the receiver of one time borrow fee in the protocol\n     * @param _feeReceiver Address of the fee's recipient\n     */\n    function setFeeReceiver(address _feeReceiver) external onlyRole(Config.OWNER_ROLE) {\n        AppStorage.Layout storage s = AppStorage.layout();\n        s.feeReceiver = _feeReceiver;\n        emit FeeReceiverSet(_feeReceiver);\n    }\n\n    /**\n     * @notice Set the reward manager address\n     * @param _rewardManager Reward manager address\n     */\n    function setRewardManager(address _rewardManager) external onlyRole(Config.OWNER_ROLE) {\n        AppStorage.Layout storage s = AppStorage.layout();\n        s.rewardManager = IRewardManager(_rewardManager);\n        emit RewardManagerSet(_rewardManager);\n    }\n\n    /**\n     * @notice Sets the global pause state of the protocol\n     *         Pausing is used to mitigate risks in exceptional circumstances\n     *         Functionalities affected by pausing are:\n     *         - New borrowing is not possible\n     *         - New collateral deposits are not possible\n     *         - New stability pool deposits are not possible\n     * @param _paused If true the protocol is paused\n     */\n    function setPaused(bool _paused) external {\n        AppStorage.Layout storage s = AppStorage.layout();\n        require(\n            (_paused && _hasRole(Config.GUARDIAN_ROLE, msg.sender)) || _hasRole(Config.OWNER_ROLE, msg.sender),\n            \"Unauthorized\"\n        );\n        s.paused = _paused;\n        if (_paused) {\n            emit Paused();\n        } else {\n            emit Unpaused();\n        }\n    }\n\n    function feeReceiver() external view returns (address) {\n        return AppStorage.layout().feeReceiver;\n    }\n\n    function rewardManager() external view returns (IRewardManager) {\n        return AppStorage.layout().rewardManager;\n    }\n\n    function paused() external view returns (bool) {\n        return AppStorage.layout().paused;\n    }\n\n    function startTime() external view returns (uint256) {\n        return AppStorage.layout().startTime;\n    }\n\n    function debtToken() external view returns (IDebtToken) {\n        return AppStorage.layout().debtToken;\n    }\n\n    function sortedTrovesBeacon() external view returns (IBeacon) {\n        return AppStorage.layout().sortedTrovesBeacon;\n    }\n\n    function troveManagerBeacon() external view returns (IBeacon) {\n        return AppStorage.layout().troveManagerBeacon;\n    }\n\n    function communityIssuance() external view returns (ICommunityIssuance) {\n        return AppStorage.layout().communityIssuance;\n    }\n\n    function gasCompensation() external view returns (uint256) {\n        return AppStorage.layout().gasCompensation;\n    }\n}\n",
  "sourcePath": "/Users/ashley/Documents/satoshi/satoshi-v2/src/core/facets/CoreFacet.sol",
  "compiler": {
    "name": "solc",
    "version": "0.8.22+commit.5ed3e10f.Emscripten.clang"
  },
  "schemaVersion": "2.0.1",
  "updatedAt": "2026-04-14T07:11:27.745Z"
}