{
  "contractName": "DebtTokenWithLz",
  "abi": [
    {
      "inputs": [
        {
          "internalType": "address",
          "name": "_lzEndpoint",
          "type": "address"
        }
      ],
      "stateMutability": "nonpayable",
      "type": "constructor"
    },
    {
      "inputs": [
        {
          "internalType": "address",
          "name": "target",
          "type": "address"
        }
      ],
      "name": "AddressEmptyCode",
      "type": "error"
    },
    {
      "inputs": [],
      "name": "ECDSAInvalidSignature",
      "type": "error"
    },
    {
      "inputs": [
        {
          "internalType": "uint256",
          "name": "length",
          "type": "uint256"
        }
      ],
      "name": "ECDSAInvalidSignatureLength",
      "type": "error"
    },
    {
      "inputs": [
        {
          "internalType": "bytes32",
          "name": "s",
          "type": "bytes32"
        }
      ],
      "name": "ECDSAInvalidSignatureS",
      "type": "error"
    },
    {
      "inputs": [
        {
          "internalType": "address",
          "name": "implementation",
          "type": "address"
        }
      ],
      "name": "ERC1967InvalidImplementation",
      "type": "error"
    },
    {
      "inputs": [],
      "name": "ERC1967NonPayable",
      "type": "error"
    },
    {
      "inputs": [
        {
          "internalType": "address",
          "name": "spender",
          "type": "address"
        },
        {
          "internalType": "uint256",
          "name": "allowance",
          "type": "uint256"
        },
        {
          "internalType": "uint256",
          "name": "needed",
          "type": "uint256"
        }
      ],
      "name": "ERC20InsufficientAllowance",
      "type": "error"
    },
    {
      "inputs": [
        {
          "internalType": "address",
          "name": "sender",
          "type": "address"
        },
        {
          "internalType": "uint256",
          "name": "balance",
          "type": "uint256"
        },
        {
          "internalType": "uint256",
          "name": "needed",
          "type": "uint256"
        }
      ],
      "name": "ERC20InsufficientBalance",
      "type": "error"
    },
    {
      "inputs": [
        {
          "internalType": "address",
          "name": "approver",
          "type": "address"
        }
      ],
      "name": "ERC20InvalidApprover",
      "type": "error"
    },
    {
      "inputs": [
        {
          "internalType": "address",
          "name": "receiver",
          "type": "address"
        }
      ],
      "name": "ERC20InvalidReceiver",
      "type": "error"
    },
    {
      "inputs": [
        {
          "internalType": "address",
          "name": "sender",
          "type": "address"
        }
      ],
      "name": "ERC20InvalidSender",
      "type": "error"
    },
    {
      "inputs": [
        {
          "internalType": "address",
          "name": "spender",
          "type": "address"
        }
      ],
      "name": "ERC20InvalidSpender",
      "type": "error"
    },
    {
      "inputs": [
        {
          "internalType": "uint256",
          "name": "deadline",
          "type": "uint256"
        }
      ],
      "name": "ERC2612ExpiredSignature",
      "type": "error"
    },
    {
      "inputs": [
        {
          "internalType": "address",
          "name": "signer",
          "type": "address"
        },
        {
          "internalType": "address",
          "name": "owner",
          "type": "address"
        }
      ],
      "name": "ERC2612InvalidSigner",
      "type": "error"
    },
    {
      "inputs": [],
      "name": "FailedCall",
      "type": "error"
    },
    {
      "inputs": [
        {
          "internalType": "address",
          "name": "account",
          "type": "address"
        },
        {
          "internalType": "uint256",
          "name": "currentNonce",
          "type": "uint256"
        }
      ],
      "name": "InvalidAccountNonce",
      "type": "error"
    },
    {
      "inputs": [],
      "name": "InvalidDelegate",
      "type": "error"
    },
    {
      "inputs": [],
      "name": "InvalidEndpointCall",
      "type": "error"
    },
    {
      "inputs": [],
      "name": "InvalidInitialization",
      "type": "error"
    },
    {
      "inputs": [],
      "name": "InvalidLocalDecimals",
      "type": "error"
    },
    {
      "inputs": [
        {
          "internalType": "bytes",
          "name": "options",
          "type": "bytes"
        }
      ],
      "name": "InvalidOptions",
      "type": "error"
    },
    {
      "inputs": [],
      "name": "LzTokenUnavailable",
      "type": "error"
    },
    {
      "inputs": [
        {
          "internalType": "uint32",
          "name": "eid",
          "type": "uint32"
        }
      ],
      "name": "NoPeer",
      "type": "error"
    },
    {
      "inputs": [
        {
          "internalType": "uint256",
          "name": "msgValue",
          "type": "uint256"
        }
      ],
      "name": "NotEnoughNative",
      "type": "error"
    },
    {
      "inputs": [],
      "name": "NotInitializing",
      "type": "error"
    },
    {
      "inputs": [
        {
          "internalType": "address",
          "name": "addr",
          "type": "address"
        }
      ],
      "name": "OnlyEndpoint",
      "type": "error"
    },
    {
      "inputs": [
        {
          "internalType": "uint32",
          "name": "eid",
          "type": "uint32"
        },
        {
          "internalType": "bytes32",
          "name": "sender",
          "type": "bytes32"
        }
      ],
      "name": "OnlyPeer",
      "type": "error"
    },
    {
      "inputs": [],
      "name": "OnlySelf",
      "type": "error"
    },
    {
      "inputs": [
        {
          "internalType": "address",
          "name": "owner",
          "type": "address"
        }
      ],
      "name": "OwnableInvalidOwner",
      "type": "error"
    },
    {
      "inputs": [
        {
          "internalType": "address",
          "name": "account",
          "type": "address"
        }
      ],
      "name": "OwnableUnauthorizedAccount",
      "type": "error"
    },
    {
      "inputs": [
        {
          "internalType": "address",
          "name": "token",
          "type": "address"
        }
      ],
      "name": "SafeERC20FailedOperation",
      "type": "error"
    },
    {
      "inputs": [
        {
          "internalType": "bytes",
          "name": "result",
          "type": "bytes"
        }
      ],
      "name": "SimulationResult",
      "type": "error"
    },
    {
      "inputs": [
        {
          "internalType": "uint256",
          "name": "amountLD",
          "type": "uint256"
        },
        {
          "internalType": "uint256",
          "name": "minAmountLD",
          "type": "uint256"
        }
      ],
      "name": "SlippageExceeded",
      "type": "error"
    },
    {
      "inputs": [],
      "name": "UUPSUnauthorizedCallContext",
      "type": "error"
    },
    {
      "inputs": [
        {
          "internalType": "bytes32",
          "name": "slot",
          "type": "bytes32"
        }
      ],
      "name": "UUPSUnsupportedProxiableUUID",
      "type": "error"
    },
    {
      "inputs": [],
      "name": "ZeroAddress",
      "type": "error"
    },
    {
      "inputs": [],
      "name": "ZeroValue",
      "type": "error"
    },
    {
      "anonymous": false,
      "inputs": [
        {
          "indexed": true,
          "internalType": "address",
          "name": "owner",
          "type": "address"
        },
        {
          "indexed": true,
          "internalType": "address",
          "name": "spender",
          "type": "address"
        },
        {
          "indexed": false,
          "internalType": "uint256",
          "name": "value",
          "type": "uint256"
        }
      ],
      "name": "Approval",
      "type": "event"
    },
    {
      "anonymous": false,
      "inputs": [],
      "name": "EIP712DomainChanged",
      "type": "event"
    },
    {
      "anonymous": false,
      "inputs": [
        {
          "components": [
            {
              "internalType": "uint32",
              "name": "eid",
              "type": "uint32"
            },
            {
              "internalType": "uint16",
              "name": "msgType",
              "type": "uint16"
            },
            {
              "internalType": "bytes",
              "name": "options",
              "type": "bytes"
            }
          ],
          "indexed": false,
          "internalType": "struct EnforcedOptionParam[]",
          "name": "_enforcedOptions",
          "type": "tuple[]"
        }
      ],
      "name": "EnforcedOptionSet",
      "type": "event"
    },
    {
      "anonymous": false,
      "inputs": [
        {
          "indexed": false,
          "internalType": "uint64",
          "name": "version",
          "type": "uint64"
        }
      ],
      "name": "Initialized",
      "type": "event"
    },
    {
      "anonymous": false,
      "inputs": [
        {
          "indexed": false,
          "internalType": "address",
          "name": "inspector",
          "type": "address"
        }
      ],
      "name": "MsgInspectorSet",
      "type": "event"
    },
    {
      "anonymous": false,
      "inputs": [
        {
          "indexed": true,
          "internalType": "bytes32",
          "name": "guid",
          "type": "bytes32"
        },
        {
          "indexed": false,
          "internalType": "uint32",
          "name": "srcEid",
          "type": "uint32"
        },
        {
          "indexed": true,
          "internalType": "address",
          "name": "toAddress",
          "type": "address"
        },
        {
          "indexed": false,
          "internalType": "uint256",
          "name": "amountReceivedLD",
          "type": "uint256"
        }
      ],
      "name": "OFTReceived",
      "type": "event"
    },
    {
      "anonymous": false,
      "inputs": [
        {
          "indexed": true,
          "internalType": "bytes32",
          "name": "guid",
          "type": "bytes32"
        },
        {
          "indexed": false,
          "internalType": "uint32",
          "name": "dstEid",
          "type": "uint32"
        },
        {
          "indexed": true,
          "internalType": "address",
          "name": "fromAddress",
          "type": "address"
        },
        {
          "indexed": false,
          "internalType": "uint256",
          "name": "amountSentLD",
          "type": "uint256"
        },
        {
          "indexed": false,
          "internalType": "uint256",
          "name": "amountReceivedLD",
          "type": "uint256"
        }
      ],
      "name": "OFTSent",
      "type": "event"
    },
    {
      "anonymous": false,
      "inputs": [
        {
          "indexed": true,
          "internalType": "address",
          "name": "previousOwner",
          "type": "address"
        },
        {
          "indexed": true,
          "internalType": "address",
          "name": "newOwner",
          "type": "address"
        }
      ],
      "name": "OwnershipTransferred",
      "type": "event"
    },
    {
      "anonymous": false,
      "inputs": [
        {
          "indexed": false,
          "internalType": "uint32",
          "name": "eid",
          "type": "uint32"
        },
        {
          "indexed": false,
          "internalType": "bytes32",
          "name": "peer",
          "type": "bytes32"
        }
      ],
      "name": "PeerSet",
      "type": "event"
    },
    {
      "anonymous": false,
      "inputs": [
        {
          "indexed": false,
          "internalType": "address",
          "name": "preCrimeAddress",
          "type": "address"
        }
      ],
      "name": "PreCrimeSet",
      "type": "event"
    },
    {
      "anonymous": false,
      "inputs": [
        {
          "indexed": true,
          "internalType": "address",
          "name": "from",
          "type": "address"
        },
        {
          "indexed": true,
          "internalType": "address",
          "name": "to",
          "type": "address"
        },
        {
          "indexed": false,
          "internalType": "uint256",
          "name": "value",
          "type": "uint256"
        }
      ],
      "name": "Transfer",
      "type": "event"
    },
    {
      "anonymous": false,
      "inputs": [
        {
          "indexed": true,
          "internalType": "address",
          "name": "implementation",
          "type": "address"
        }
      ],
      "name": "Upgraded",
      "type": "event"
    },
    {
      "inputs": [],
      "name": "DEBT_GAS_COMPENSATION",
      "outputs": [
        {
          "internalType": "uint256",
          "name": "",
          "type": "uint256"
        }
      ],
      "stateMutability": "view",
      "type": "function"
    },
    {
      "inputs": [],
      "name": "DOMAIN_SEPARATOR",
      "outputs": [
        {
          "internalType": "bytes32",
          "name": "",
          "type": "bytes32"
        }
      ],
      "stateMutability": "view",
      "type": "function"
    },
    {
      "inputs": [],
      "name": "FLASH_LOAN_FEE",
      "outputs": [
        {
          "internalType": "uint256",
          "name": "",
          "type": "uint256"
        }
      ],
      "stateMutability": "view",
      "type": "function"
    },
    {
      "inputs": [],
      "name": "SEND",
      "outputs": [
        {
          "internalType": "uint16",
          "name": "",
          "type": "uint16"
        }
      ],
      "stateMutability": "view",
      "type": "function"
    },
    {
      "inputs": [],
      "name": "SEND_AND_CALL",
      "outputs": [
        {
          "internalType": "uint16",
          "name": "",
          "type": "uint16"
        }
      ],
      "stateMutability": "view",
      "type": "function"
    },
    {
      "inputs": [],
      "name": "UPGRADE_INTERFACE_VERSION",
      "outputs": [
        {
          "internalType": "string",
          "name": "",
          "type": "string"
        }
      ],
      "stateMutability": "view",
      "type": "function"
    },
    {
      "inputs": [
        {
          "components": [
            {
              "internalType": "uint32",
              "name": "srcEid",
              "type": "uint32"
            },
            {
              "internalType": "bytes32",
              "name": "sender",
              "type": "bytes32"
            },
            {
              "internalType": "uint64",
              "name": "nonce",
              "type": "uint64"
            }
          ],
          "internalType": "struct Origin",
          "name": "origin",
          "type": "tuple"
        }
      ],
      "name": "allowInitializePath",
      "outputs": [
        {
          "internalType": "bool",
          "name": "",
          "type": "bool"
        }
      ],
      "stateMutability": "view",
      "type": "function"
    },
    {
      "inputs": [
        {
          "internalType": "address",
          "name": "owner",
          "type": "address"
        },
        {
          "internalType": "address",
          "name": "spender",
          "type": "address"
        }
      ],
      "name": "allowance",
      "outputs": [
        {
          "internalType": "uint256",
          "name": "",
          "type": "uint256"
        }
      ],
      "stateMutability": "view",
      "type": "function"
    },
    {
      "inputs": [],
      "name": "approvalRequired",
      "outputs": [
        {
          "internalType": "bool",
          "name": "",
          "type": "bool"
        }
      ],
      "stateMutability": "pure",
      "type": "function"
    },
    {
      "inputs": [
        {
          "internalType": "address",
          "name": "spender",
          "type": "address"
        },
        {
          "internalType": "uint256",
          "name": "value",
          "type": "uint256"
        }
      ],
      "name": "approve",
      "outputs": [
        {
          "internalType": "bool",
          "name": "",
          "type": "bool"
        }
      ],
      "stateMutability": "nonpayable",
      "type": "function"
    },
    {
      "inputs": [
        {
          "internalType": "address",
          "name": "account",
          "type": "address"
        }
      ],
      "name": "balanceOf",
      "outputs": [
        {
          "internalType": "uint256",
          "name": "",
          "type": "uint256"
        }
      ],
      "stateMutability": "view",
      "type": "function"
    },
    {
      "inputs": [
        {
          "internalType": "address",
          "name": "_account",
          "type": "address"
        },
        {
          "internalType": "uint256",
          "name": "_amount",
          "type": "uint256"
        }
      ],
      "name": "burn",
      "outputs": [],
      "stateMutability": "nonpayable",
      "type": "function"
    },
    {
      "inputs": [
        {
          "internalType": "address",
          "name": "_account",
          "type": "address"
        },
        {
          "internalType": "uint256",
          "name": "_amount",
          "type": "uint256"
        }
      ],
      "name": "burnWithGasCompensation",
      "outputs": [],
      "stateMutability": "nonpayable",
      "type": "function"
    },
    {
      "inputs": [
        {
          "internalType": "uint32",
          "name": "_eid",
          "type": "uint32"
        },
        {
          "internalType": "uint16",
          "name": "_msgType",
          "type": "uint16"
        },
        {
          "internalType": "bytes",
          "name": "_extraOptions",
          "type": "bytes"
        }
      ],
      "name": "combineOptions",
      "outputs": [
        {
          "internalType": "bytes",
          "name": "",
          "type": "bytes"
        }
      ],
      "stateMutability": "view",
      "type": "function"
    },
    {
      "inputs": [],
      "name": "decimalConversionRate",
      "outputs": [
        {
          "internalType": "uint256",
          "name": "",
          "type": "uint256"
        }
      ],
      "stateMutability": "view",
      "type": "function"
    },
    {
      "inputs": [],
      "name": "decimals",
      "outputs": [
        {
          "internalType": "uint8",
          "name": "",
          "type": "uint8"
        }
      ],
      "stateMutability": "view",
      "type": "function"
    },
    {
      "inputs": [
        {
          "internalType": "address",
          "name": "usr",
          "type": "address"
        }
      ],
      "name": "deny",
      "outputs": [],
      "stateMutability": "nonpayable",
      "type": "function"
    },
    {
      "inputs": [],
      "name": "eip712Domain",
      "outputs": [
        {
          "internalType": "bytes1",
          "name": "fields",
          "type": "bytes1"
        },
        {
          "internalType": "string",
          "name": "name",
          "type": "string"
        },
        {
          "internalType": "string",
          "name": "version",
          "type": "string"
        },
        {
          "internalType": "uint256",
          "name": "chainId",
          "type": "uint256"
        },
        {
          "internalType": "address",
          "name": "verifyingContract",
          "type": "address"
        },
        {
          "internalType": "bytes32",
          "name": "salt",
          "type": "bytes32"
        },
        {
          "internalType": "uint256[]",
          "name": "extensions",
          "type": "uint256[]"
        }
      ],
      "stateMutability": "view",
      "type": "function"
    },
    {
      "inputs": [
        {
          "internalType": "contract ITroveManager",
          "name": "_troveManager",
          "type": "address"
        }
      ],
      "name": "enableTroveManager",
      "outputs": [],
      "stateMutability": "nonpayable",
      "type": "function"
    },
    {
      "inputs": [],
      "name": "endpoint",
      "outputs": [
        {
          "internalType": "contract ILayerZeroEndpointV2",
          "name": "",
          "type": "address"
        }
      ],
      "stateMutability": "view",
      "type": "function"
    },
    {
      "inputs": [
        {
          "internalType": "uint32",
          "name": "_eid",
          "type": "uint32"
        },
        {
          "internalType": "uint16",
          "name": "_msgType",
          "type": "uint16"
        }
      ],
      "name": "enforcedOptions",
      "outputs": [
        {
          "internalType": "bytes",
          "name": "",
          "type": "bytes"
        }
      ],
      "stateMutability": "view",
      "type": "function"
    },
    {
      "inputs": [
        {
          "internalType": "address",
          "name": "token",
          "type": "address"
        },
        {
          "internalType": "uint256",
          "name": "amount",
          "type": "uint256"
        }
      ],
      "name": "flashFee",
      "outputs": [
        {
          "internalType": "uint256",
          "name": "",
          "type": "uint256"
        }
      ],
      "stateMutability": "view",
      "type": "function"
    },
    {
      "inputs": [
        {
          "internalType": "contract IERC3156FlashBorrower",
          "name": "receiver",
          "type": "address"
        },
        {
          "internalType": "address",
          "name": "token",
          "type": "address"
        },
        {
          "internalType": "uint256",
          "name": "amount",
          "type": "uint256"
        },
        {
          "internalType": "bytes",
          "name": "data",
          "type": "bytes"
        }
      ],
      "name": "flashLoan",
      "outputs": [
        {
          "internalType": "bool",
          "name": "",
          "type": "bool"
        }
      ],
      "stateMutability": "nonpayable",
      "type": "function"
    },
    {
      "inputs": [],
      "name": "gasPool",
      "outputs": [
        {
          "internalType": "address",
          "name": "",
          "type": "address"
        }
      ],
      "stateMutability": "view",
      "type": "function"
    },
    {
      "inputs": [
        {
          "internalType": "string",
          "name": "_name",
          "type": "string"
        },
        {
          "internalType": "string",
          "name": "_symbol",
          "type": "string"
        },
        {
          "internalType": "address",
          "name": "_gasPool",
          "type": "address"
        },
        {
          "internalType": "address",
          "name": "_satoshiXApp",
          "type": "address"
        },
        {
          "internalType": "address",
          "name": "_owner",
          "type": "address"
        },
        {
          "internalType": "uint256",
          "name": "debtGasCompensation_",
          "type": "uint256"
        }
      ],
      "name": "initialize",
      "outputs": [],
      "stateMutability": "nonpayable",
      "type": "function"
    },
    {
      "inputs": [
        {
          "components": [
            {
              "internalType": "uint32",
              "name": "srcEid",
              "type": "uint32"
            },
            {
              "internalType": "bytes32",
              "name": "sender",
              "type": "bytes32"
            },
            {
              "internalType": "uint64",
              "name": "nonce",
              "type": "uint64"
            }
          ],
          "internalType": "struct Origin",
          "name": "",
          "type": "tuple"
        },
        {
          "internalType": "bytes",
          "name": "",
          "type": "bytes"
        },
        {
          "internalType": "address",
          "name": "_sender",
          "type": "address"
        }
      ],
      "name": "isComposeMsgSender",
      "outputs": [
        {
          "internalType": "bool",
          "name": "",
          "type": "bool"
        }
      ],
      "stateMutability": "view",
      "type": "function"
    },
    {
      "inputs": [
        {
          "internalType": "uint32",
          "name": "_eid",
          "type": "uint32"
        },
        {
          "internalType": "bytes32",
          "name": "_peer",
          "type": "bytes32"
        }
      ],
      "name": "isPeer",
      "outputs": [
        {
          "internalType": "bool",
          "name": "",
          "type": "bool"
        }
      ],
      "stateMutability": "view",
      "type": "function"
    },
    {
      "inputs": [
        {
          "components": [
            {
              "internalType": "uint32",
              "name": "srcEid",
              "type": "uint32"
            },
            {
              "internalType": "bytes32",
              "name": "sender",
              "type": "bytes32"
            },
            {
              "internalType": "uint64",
              "name": "nonce",
              "type": "uint64"
            }
          ],
          "internalType": "struct Origin",
          "name": "_origin",
          "type": "tuple"
        },
        {
          "internalType": "bytes32",
          "name": "_guid",
          "type": "bytes32"
        },
        {
          "internalType": "bytes",
          "name": "_message",
          "type": "bytes"
        },
        {
          "internalType": "address",
          "name": "_executor",
          "type": "address"
        },
        {
          "internalType": "bytes",
          "name": "_extraData",
          "type": "bytes"
        }
      ],
      "name": "lzReceive",
      "outputs": [],
      "stateMutability": "payable",
      "type": "function"
    },
    {
      "inputs": [
        {
          "components": [
            {
              "components": [
                {
                  "internalType": "uint32",
                  "name": "srcEid",
                  "type": "uint32"
                },
                {
                  "internalType": "bytes32",
                  "name": "sender",
                  "type": "bytes32"
                },
                {
                  "internalType": "uint64",
                  "name": "nonce",
                  "type": "uint64"
                }
              ],
              "internalType": "struct Origin",
              "name": "origin",
              "type": "tuple"
            },
            {
              "internalType": "uint32",
              "name": "dstEid",
              "type": "uint32"
            },
            {
              "internalType": "address",
              "name": "receiver",
              "type": "address"
            },
            {
              "internalType": "bytes32",
              "name": "guid",
              "type": "bytes32"
            },
            {
              "internalType": "uint256",
              "name": "value",
              "type": "uint256"
            },
            {
              "internalType": "address",
              "name": "executor",
              "type": "address"
            },
            {
              "internalType": "bytes",
              "name": "message",
              "type": "bytes"
            },
            {
              "internalType": "bytes",
              "name": "extraData",
              "type": "bytes"
            }
          ],
          "internalType": "struct InboundPacket[]",
          "name": "_packets",
          "type": "tuple[]"
        }
      ],
      "name": "lzReceiveAndRevert",
      "outputs": [],
      "stateMutability": "payable",
      "type": "function"
    },
    {
      "inputs": [
        {
          "components": [
            {
              "internalType": "uint32",
              "name": "srcEid",
              "type": "uint32"
            },
            {
              "internalType": "bytes32",
              "name": "sender",
              "type": "bytes32"
            },
            {
              "internalType": "uint64",
              "name": "nonce",
              "type": "uint64"
            }
          ],
          "internalType": "struct Origin",
          "name": "_origin",
          "type": "tuple"
        },
        {
          "internalType": "bytes32",
          "name": "_guid",
          "type": "bytes32"
        },
        {
          "internalType": "bytes",
          "name": "_message",
          "type": "bytes"
        },
        {
          "internalType": "address",
          "name": "_executor",
          "type": "address"
        },
        {
          "internalType": "bytes",
          "name": "_extraData",
          "type": "bytes"
        }
      ],
      "name": "lzReceiveSimulate",
      "outputs": [],
      "stateMutability": "payable",
      "type": "function"
    },
    {
      "inputs": [
        {
          "internalType": "address",
          "name": "token",
          "type": "address"
        }
      ],
      "name": "maxFlashLoan",
      "outputs": [
        {
          "internalType": "uint256",
          "name": "",
          "type": "uint256"
        }
      ],
      "stateMutability": "view",
      "type": "function"
    },
    {
      "inputs": [
        {
          "internalType": "address",
          "name": "_account",
          "type": "address"
        },
        {
          "internalType": "uint256",
          "name": "_amount",
          "type": "uint256"
        }
      ],
      "name": "mint",
      "outputs": [],
      "stateMutability": "nonpayable",
      "type": "function"
    },
    {
      "inputs": [
        {
          "internalType": "address",
          "name": "_account",
          "type": "address"
        },
        {
          "internalType": "uint256",
          "name": "_amount",
          "type": "uint256"
        }
      ],
      "name": "mintWithGasCompensation",
      "outputs": [],
      "stateMutability": "nonpayable",
      "type": "function"
    },
    {
      "inputs": [],
      "name": "msgInspector",
      "outputs": [
        {
          "internalType": "address",
          "name": "",
          "type": "address"
        }
      ],
      "stateMutability": "view",
      "type": "function"
    },
    {
      "inputs": [],
      "name": "name",
      "outputs": [
        {
          "internalType": "string",
          "name": "",
          "type": "string"
        }
      ],
      "stateMutability": "view",
      "type": "function"
    },
    {
      "inputs": [
        {
          "internalType": "uint32",
          "name": "",
          "type": "uint32"
        },
        {
          "internalType": "bytes32",
          "name": "",
          "type": "bytes32"
        }
      ],
      "name": "nextNonce",
      "outputs": [
        {
          "internalType": "uint64",
          "name": "nonce",
          "type": "uint64"
        }
      ],
      "stateMutability": "view",
      "type": "function"
    },
    {
      "inputs": [
        {
          "internalType": "address",
          "name": "owner",
          "type": "address"
        }
      ],
      "name": "nonces",
      "outputs": [
        {
          "internalType": "uint256",
          "name": "",
          "type": "uint256"
        }
      ],
      "stateMutability": "view",
      "type": "function"
    },
    {
      "inputs": [],
      "name": "oApp",
      "outputs": [
        {
          "internalType": "address",
          "name": "",
          "type": "address"
        }
      ],
      "stateMutability": "view",
      "type": "function"
    },
    {
      "inputs": [],
      "name": "oAppVersion",
      "outputs": [
        {
          "internalType": "uint64",
          "name": "senderVersion",
          "type": "uint64"
        },
        {
          "internalType": "uint64",
          "name": "receiverVersion",
          "type": "uint64"
        }
      ],
      "stateMutability": "pure",
      "type": "function"
    },
    {
      "inputs": [],
      "name": "oftVersion",
      "outputs": [
        {
          "internalType": "bytes4",
          "name": "interfaceId",
          "type": "bytes4"
        },
        {
          "internalType": "uint64",
          "name": "version",
          "type": "uint64"
        }
      ],
      "stateMutability": "pure",
      "type": "function"
    },
    {
      "inputs": [],
      "name": "owner",
      "outputs": [
        {
          "internalType": "address",
          "name": "",
          "type": "address"
        }
      ],
      "stateMutability": "view",
      "type": "function"
    },
    {
      "inputs": [
        {
          "internalType": "uint32",
          "name": "_eid",
          "type": "uint32"
        }
      ],
      "name": "peers",
      "outputs": [
        {
          "internalType": "bytes32",
          "name": "",
          "type": "bytes32"
        }
      ],
      "stateMutability": "view",
      "type": "function"
    },
    {
      "inputs": [
        {
          "internalType": "address",
          "name": "owner",
          "type": "address"
        },
        {
          "internalType": "address",
          "name": "spender",
          "type": "address"
        },
        {
          "internalType": "uint256",
          "name": "value",
          "type": "uint256"
        },
        {
          "internalType": "uint256",
          "name": "deadline",
          "type": "uint256"
        },
        {
          "internalType": "uint8",
          "name": "v",
          "type": "uint8"
        },
        {
          "internalType": "bytes32",
          "name": "r",
          "type": "bytes32"
        },
        {
          "internalType": "bytes32",
          "name": "s",
          "type": "bytes32"
        }
      ],
      "name": "permit",
      "outputs": [],
      "stateMutability": "nonpayable",
      "type": "function"
    },
    {
      "inputs": [],
      "name": "preCrime",
      "outputs": [
        {
          "internalType": "address",
          "name": "",
          "type": "address"
        }
      ],
      "stateMutability": "view",
      "type": "function"
    },
    {
      "inputs": [],
      "name": "proxiableUUID",
      "outputs": [
        {
          "internalType": "bytes32",
          "name": "",
          "type": "bytes32"
        }
      ],
      "stateMutability": "view",
      "type": "function"
    },
    {
      "inputs": [
        {
          "components": [
            {
              "internalType": "uint32",
              "name": "dstEid",
              "type": "uint32"
            },
            {
              "internalType": "bytes32",
              "name": "to",
              "type": "bytes32"
            },
            {
              "internalType": "uint256",
              "name": "amountLD",
              "type": "uint256"
            },
            {
              "internalType": "uint256",
              "name": "minAmountLD",
              "type": "uint256"
            },
            {
              "internalType": "bytes",
              "name": "extraOptions",
              "type": "bytes"
            },
            {
              "internalType": "bytes",
              "name": "composeMsg",
              "type": "bytes"
            },
            {
              "internalType": "bytes",
              "name": "oftCmd",
              "type": "bytes"
            }
          ],
          "internalType": "struct SendParam",
          "name": "_sendParam",
          "type": "tuple"
        }
      ],
      "name": "quoteOFT",
      "outputs": [
        {
          "components": [
            {
              "internalType": "uint256",
              "name": "minAmountLD",
              "type": "uint256"
            },
            {
              "internalType": "uint256",
              "name": "maxAmountLD",
              "type": "uint256"
            }
          ],
          "internalType": "struct OFTLimit",
          "name": "oftLimit",
          "type": "tuple"
        },
        {
          "components": [
            {
              "internalType": "int256",
              "name": "feeAmountLD",
              "type": "int256"
            },
            {
              "internalType": "string",
              "name": "description",
              "type": "string"
            }
          ],
          "internalType": "struct OFTFeeDetail[]",
          "name": "oftFeeDetails",
          "type": "tuple[]"
        },
        {
          "components": [
            {
              "internalType": "uint256",
              "name": "amountSentLD",
              "type": "uint256"
            },
            {
              "internalType": "uint256",
              "name": "amountReceivedLD",
              "type": "uint256"
            }
          ],
          "internalType": "struct OFTReceipt",
          "name": "oftReceipt",
          "type": "tuple"
        }
      ],
      "stateMutability": "view",
      "type": "function"
    },
    {
      "inputs": [
        {
          "components": [
            {
              "internalType": "uint32",
              "name": "dstEid",
              "type": "uint32"
            },
            {
              "internalType": "bytes32",
              "name": "to",
              "type": "bytes32"
            },
            {
              "internalType": "uint256",
              "name": "amountLD",
              "type": "uint256"
            },
            {
              "internalType": "uint256",
              "name": "minAmountLD",
              "type": "uint256"
            },
            {
              "internalType": "bytes",
              "name": "extraOptions",
              "type": "bytes"
            },
            {
              "internalType": "bytes",
              "name": "composeMsg",
              "type": "bytes"
            },
            {
              "internalType": "bytes",
              "name": "oftCmd",
              "type": "bytes"
            }
          ],
          "internalType": "struct SendParam",
          "name": "_sendParam",
          "type": "tuple"
        },
        {
          "internalType": "bool",
          "name": "_payInLzToken",
          "type": "bool"
        }
      ],
      "name": "quoteSend",
      "outputs": [
        {
          "components": [
            {
              "internalType": "uint256",
              "name": "nativeFee",
              "type": "uint256"
            },
            {
              "internalType": "uint256",
              "name": "lzTokenFee",
              "type": "uint256"
            }
          ],
          "internalType": "struct MessagingFee",
          "name": "msgFee",
          "type": "tuple"
        }
      ],
      "stateMutability": "view",
      "type": "function"
    },
    {
      "inputs": [
        {
          "internalType": "address",
          "name": "usr",
          "type": "address"
        }
      ],
      "name": "rely",
      "outputs": [],
      "stateMutability": "nonpayable",
      "type": "function"
    },
    {
      "inputs": [],
      "name": "renounceOwnership",
      "outputs": [],
      "stateMutability": "nonpayable",
      "type": "function"
    },
    {
      "inputs": [
        {
          "internalType": "address",
          "name": "_poolAddress",
          "type": "address"
        },
        {
          "internalType": "address",
          "name": "_receiver",
          "type": "address"
        },
        {
          "internalType": "uint256",
          "name": "_amount",
          "type": "uint256"
        }
      ],
      "name": "returnFromPool",
      "outputs": [],
      "stateMutability": "nonpayable",
      "type": "function"
    },
    {
      "inputs": [],
      "name": "satoshiXApp",
      "outputs": [
        {
          "internalType": "address",
          "name": "",
          "type": "address"
        }
      ],
      "stateMutability": "view",
      "type": "function"
    },
    {
      "inputs": [
        {
          "components": [
            {
              "internalType": "uint32",
              "name": "dstEid",
              "type": "uint32"
            },
            {
              "internalType": "bytes32",
              "name": "to",
              "type": "bytes32"
            },
            {
              "internalType": "uint256",
              "name": "amountLD",
              "type": "uint256"
            },
            {
              "internalType": "uint256",
              "name": "minAmountLD",
              "type": "uint256"
            },
            {
              "internalType": "bytes",
              "name": "extraOptions",
              "type": "bytes"
            },
            {
              "internalType": "bytes",
              "name": "composeMsg",
              "type": "bytes"
            },
            {
              "internalType": "bytes",
              "name": "oftCmd",
              "type": "bytes"
            }
          ],
          "internalType": "struct SendParam",
          "name": "_sendParam",
          "type": "tuple"
        },
        {
          "components": [
            {
              "internalType": "uint256",
              "name": "nativeFee",
              "type": "uint256"
            },
            {
              "internalType": "uint256",
              "name": "lzTokenFee",
              "type": "uint256"
            }
          ],
          "internalType": "struct MessagingFee",
          "name": "_fee",
          "type": "tuple"
        },
        {
          "internalType": "address",
          "name": "_refundAddress",
          "type": "address"
        }
      ],
      "name": "send",
      "outputs": [
        {
          "components": [
            {
              "internalType": "bytes32",
              "name": "guid",
              "type": "bytes32"
            },
            {
              "internalType": "uint64",
              "name": "nonce",
              "type": "uint64"
            },
            {
              "components": [
                {
                  "internalType": "uint256",
                  "name": "nativeFee",
                  "type": "uint256"
                },
                {
                  "internalType": "uint256",
                  "name": "lzTokenFee",
                  "type": "uint256"
                }
              ],
              "internalType": "struct MessagingFee",
              "name": "fee",
              "type": "tuple"
            }
          ],
          "internalType": "struct MessagingReceipt",
          "name": "msgReceipt",
          "type": "tuple"
        },
        {
          "components": [
            {
              "internalType": "uint256",
              "name": "amountSentLD",
              "type": "uint256"
            },
            {
              "internalType": "uint256",
              "name": "amountReceivedLD",
              "type": "uint256"
            }
          ],
          "internalType": "struct OFTReceipt",
          "name": "oftReceipt",
          "type": "tuple"
        }
      ],
      "stateMutability": "payable",
      "type": "function"
    },
    {
      "inputs": [
        {
          "internalType": "address",
          "name": "_sender",
          "type": "address"
        },
        {
          "internalType": "uint256",
          "name": "_amount",
          "type": "uint256"
        }
      ],
      "name": "sendToXApp",
      "outputs": [],
      "stateMutability": "nonpayable",
      "type": "function"
    },
    {
      "inputs": [
        {
          "internalType": "address",
          "name": "_delegate",
          "type": "address"
        }
      ],
      "name": "setDelegate",
      "outputs": [],
      "stateMutability": "nonpayable",
      "type": "function"
    },
    {
      "inputs": [
        {
          "components": [
            {
              "internalType": "uint32",
              "name": "eid",
              "type": "uint32"
            },
            {
              "internalType": "uint16",
              "name": "msgType",
              "type": "uint16"
            },
            {
              "internalType": "bytes",
              "name": "options",
              "type": "bytes"
            }
          ],
          "internalType": "struct EnforcedOptionParam[]",
          "name": "_enforcedOptions",
          "type": "tuple[]"
        }
      ],
      "name": "setEnforcedOptions",
      "outputs": [],
      "stateMutability": "nonpayable",
      "type": "function"
    },
    {
      "inputs": [
        {
          "internalType": "address",
          "name": "_msgInspector",
          "type": "address"
        }
      ],
      "name": "setMsgInspector",
      "outputs": [],
      "stateMutability": "nonpayable",
      "type": "function"
    },
    {
      "inputs": [
        {
          "internalType": "uint32",
          "name": "_eid",
          "type": "uint32"
        },
        {
          "internalType": "bytes32",
          "name": "_peer",
          "type": "bytes32"
        }
      ],
      "name": "setPeer",
      "outputs": [],
      "stateMutability": "nonpayable",
      "type": "function"
    },
    {
      "inputs": [
        {
          "internalType": "address",
          "name": "_preCrime",
          "type": "address"
        }
      ],
      "name": "setPreCrime",
      "outputs": [],
      "stateMutability": "nonpayable",
      "type": "function"
    },
    {
      "inputs": [],
      "name": "sharedDecimals",
      "outputs": [
        {
          "internalType": "uint8",
          "name": "",
          "type": "uint8"
        }
      ],
      "stateMutability": "pure",
      "type": "function"
    },
    {
      "inputs": [],
      "name": "symbol",
      "outputs": [
        {
          "internalType": "string",
          "name": "",
          "type": "string"
        }
      ],
      "stateMutability": "view",
      "type": "function"
    },
    {
      "inputs": [],
      "name": "token",
      "outputs": [
        {
          "internalType": "address",
          "name": "",
          "type": "address"
        }
      ],
      "stateMutability": "view",
      "type": "function"
    },
    {
      "inputs": [],
      "name": "totalSupply",
      "outputs": [
        {
          "internalType": "uint256",
          "name": "",
          "type": "uint256"
        }
      ],
      "stateMutability": "view",
      "type": "function"
    },
    {
      "inputs": [
        {
          "internalType": "address",
          "name": "recipient",
          "type": "address"
        },
        {
          "internalType": "uint256",
          "name": "amount",
          "type": "uint256"
        }
      ],
      "name": "transfer",
      "outputs": [
        {
          "internalType": "bool",
          "name": "",
          "type": "bool"
        }
      ],
      "stateMutability": "nonpayable",
      "type": "function"
    },
    {
      "inputs": [
        {
          "internalType": "address",
          "name": "sender",
          "type": "address"
        },
        {
          "internalType": "address",
          "name": "recipient",
          "type": "address"
        },
        {
          "internalType": "uint256",
          "name": "amount",
          "type": "uint256"
        }
      ],
      "name": "transferFrom",
      "outputs": [
        {
          "internalType": "bool",
          "name": "",
          "type": "bool"
        }
      ],
      "stateMutability": "nonpayable",
      "type": "function"
    },
    {
      "inputs": [
        {
          "internalType": "address",
          "name": "newOwner",
          "type": "address"
        }
      ],
      "name": "transferOwnership",
      "outputs": [],
      "stateMutability": "nonpayable",
      "type": "function"
    },
    {
      "inputs": [
        {
          "internalType": "contract ITroveManager",
          "name": "",
          "type": "address"
        }
      ],
      "name": "troveManager",
      "outputs": [
        {
          "internalType": "bool",
          "name": "",
          "type": "bool"
        }
      ],
      "stateMutability": "view",
      "type": "function"
    },
    {
      "inputs": [
        {
          "internalType": "address",
          "name": "newImplementation",
          "type": "address"
        },
        {
          "internalType": "bytes",
          "name": "data",
          "type": "bytes"
        }
      ],
      "name": "upgradeToAndCall",
      "outputs": [],
      "stateMutability": "payable",
      "type": "function"
    },
    {
      "inputs": [
        {
          "internalType": "address",
          "name": "",
          "type": "address"
        }
      ],
      "name": "wards",
      "outputs": [
        {
          "internalType": "bool",
          "name": "",
          "type": "bool"
        }
      ],
      "stateMutability": "view",
      "type": "function"
    }
  ],
  "bytecode": "0x60e06040523060c0523480156200001557600080fd5b50d380156200002357600080fd5b50d280156200003157600080fd5b5060405162005b7838038062005b7883398101604081905262000054916200014b565b6001600160a01b03811660805280601281620000726006836200019c565b6200007f90600a620002bb565b60a052506200009091505062000097565b50620002d3565b7ff0c57e16840df040f15088dc2f81fe391c3923bec73e23a9662efc9c229c6a00805468010000000000000000900460ff1615620000e85760405163f92ee8a960e01b815260040160405180910390fd5b80546001600160401b0390811614620001485780546001600160401b0319166001600160401b0390811782556040519081527fc7f505b2f371ae2175ee4913f4499e1f2633a7b5936321eed1cdaeb6115181d29060200160405180910390a15b50565b6000602082840312156200015e57600080fd5b81516001600160a81b03811681146200017657600080fd5b6001600160a01b03169392505050565b634e487b7160e01b600052601160045260246000fd5b60ff8281168282160390811115620001b857620001b862000186565b92915050565b600181815b80851115620001ff578160001904821115620001e357620001e362000186565b80851615620001f157918102915b93841c9390800290620001c3565b509250929050565b6000826200021857506001620001b8565b816200022757506000620001b8565b81600181146200024057600281146200024b576200026b565b6001915050620001b8565b60ff8411156200025f576200025f62000186565b50506001821b620001b8565b5060208310610133831016604e8410600b841016171562000290575081810a620001b8565b6200029c8383620001be565b8060001904821115620002b357620002b362000186565b029392505050565b6000620002cc60ff84168362000207565b9392505050565b60805160a05160c0516158216200035760003960008181613178015281816131a101526132e2015260008181610db701528181613814015281816138890152613b15015260008181610a18015281816114e70152818161264301528181612c160152818161306c0152818161357101528181613c360152613cef01526158216000f3fe6080604052600436106103ef5760003560e01c806382413eac11610208578063b98bd07011610118578063d4243885116100ab578063edf3e29e1161007a578063edf3e29e14611234578063f2fde38b1461126e578063fa08b038146112a8578063fc0c546a146108be578063ff7bd03d146112e257600080fd5b8063d42438851461114c578063d505accf14611186578063d9d98ce4146111c0578063dd62ed3e146111fa57600080fd5b8063bf353dbb116100e7578063bf353dbb14611094578063c7c7f5b3146110de578063ca5eb5e1146110ff578063d045a0dc1461113957600080fd5b8063b98bd07014610fb3578063bb0b6a5314610fed578063bc70b35414611047578063bd815db01461108157600080fd5b8063963efcaa1161019b578063a49d39931161016a578063a49d399314610e7b578063a9059cbb14610ec5578063ad3cb1cc14610eff578063b731ea0a14610f4a578063b76b0c0814610f7957600080fd5b8063963efcaa14610d8b5780639c52a7f114610dd95780639dc29fac14610e135780639f68b96414610e4d57600080fd5b80638cff5fbe116101d75780638cff5fbe14610cc45780638da5cb5b14610cfe5780638ffaacaa14610d2d57806395d89b4114610d5c57600080fd5b806382413eac14610be057806384b0196e14610c1a5780638517750914610c5c578063857749b014610c9657600080fd5b80633b6f743b116103035780635cffe9de116102965780636fc1b31e116102655780636fc1b31e14610aae57806370a0823114610ae8578063715018a614610b225780637d25a05e14610b515780637ecebe0014610ba657600080fd5b80635cffe9de146109b25780635e280f11146109ec578063613255ab14610a3a57806365fae35e14610a7457600080fd5b806352ae2879116102d257806352ae2879146108be57806352d1902d146108eb5780635535d4611461091a5780635a0dfe4d1461095457600080fd5b80633b6f743b146107fb57806340c10f19146108425780634ba4a28b1461087c5780634f1ef286146108ab57600080fd5b806317442b701161038657806320c582be1161035557806320c582be146106e257806323b872dd1461071c578063313ce567146107565780633400288b146107925780633644e515146107cc57600080fd5b806317442b70146105e557806317dd676d1461062157806318160ddd1461065b5780631f5e1334146106b357600080fd5b806313137d65116103c257806313137d6514610513578063134d4f2514610528578063136db03a1461056a578063156a0d0f146105a457600080fd5b806306fdde03146103f4578063095ea7b3146104395780630d35b41514610483578063111ecdad146104cc575b600080fd5b34801561040057600080fd5b50d3801561040d57600080fd5b50d2801561041a57600080fd5b5061042361131c565b60405161043091906143d4565b60405180910390f35b34801561044557600080fd5b50d3801561045257600080fd5b50d2801561045f57600080fd5b5061047361046e3660046143fc565b6113c5565b6040519015158152602001610430565b34801561048f57600080fd5b50d3801561049c57600080fd5b50d280156104a957600080fd5b506104bd6104b8366004614449565b6113df565b6040516104309392919061447d565b3480156104d857600080fd5b50d380156104e557600080fd5b50d280156104f257600080fd5b506104fb6114b0565b6040516001600160a01b039091168152602001610430565b610526610521366004614570565b6114e5565b005b34801561053457600080fd5b50d3801561054157600080fd5b50d2801561054e57600080fd5b50610557600281565b60405161ffff9091168152602001610430565b34801561057657600080fd5b50d3801561058357600080fd5b50d2801561059057600080fd5b5061052661059f3660046143fc565b6115a5565b3480156105b057600080fd5b50d380156105bd57600080fd5b50d280156105ca57600080fd5b506040805162b9270b60e21b81526001602082015201610430565b3480156105f157600080fd5b50d380156105fe57600080fd5b50d2801561060b57600080fd5b5060408051600181526002602082015201610430565b34801561062d57600080fd5b50d3801561063a57600080fd5b50d2801561064757600080fd5b5061052661065636600461461a565b61160e565b34801561066757600080fd5b50d3801561067457600080fd5b50d2801561068157600080fd5b507f52c63247e1f47db19d5ce0460030c497f067ca4cebf71ba98eeadabe20bace02545b604051908152602001610430565b3480156106bf57600080fd5b50d380156106cc57600080fd5b50d280156106d957600080fd5b50610557600181565b3480156106ee57600080fd5b50d380156106fb57600080fd5b50d2801561070857600080fd5b50610526610717366004614647565b61165c565b34801561072857600080fd5b50d3801561073557600080fd5b50d2801561074257600080fd5b50610473610751366004614647565b6116e0565b34801561076257600080fd5b50d3801561076f57600080fd5b50d2801561077c57600080fd5b5060125b60405160ff9091168152602001610430565b34801561079e57600080fd5b50d380156107ab57600080fd5b50d280156107b857600080fd5b506105266107c73660046146ae565b611700565b3480156107d857600080fd5b50d380156107e557600080fd5b50d280156107f257600080fd5b506106a561176d565b34801561080757600080fd5b50d3801561081457600080fd5b50d2801561082157600080fd5b506108356108303660046146e6565b61177c565b6040516104309190614737565b34801561084e57600080fd5b50d3801561085b57600080fd5b50d2801561086857600080fd5b506105266108773660046143fc565b6117e3565b34801561088857600080fd5b50d3801561089557600080fd5b50d280156108a257600080fd5b506002546106a5565b6105266108b9366004614821565b611887565b3480156108ca57600080fd5b50d380156108d757600080fd5b50d280156108e457600080fd5b50306104fb565b3480156108f757600080fd5b50d3801561090457600080fd5b50d2801561091157600080fd5b506106a56118a2565b34801561092657600080fd5b50d3801561093357600080fd5b50d2801561094057600080fd5b5061042361094f36600461489f565b6118bf565b34801561096057600080fd5b50d3801561096d57600080fd5b50d2801561097a57600080fd5b506104736109893660046146ae565b63ffffffff91909116600090815260008051602061578c83398151915260205260409020541490565b3480156109be57600080fd5b50d380156109cb57600080fd5b50d280156109d857600080fd5b506104736109e73660046148d2565b61199a565b3480156109f857600080fd5b50d38015610a0557600080fd5b50d28015610a1257600080fd5b506104fb7f000000000000000000000000000000000000000000000000000000000000000081565b348015610a4657600080fd5b50d38015610a5357600080fd5b50d28015610a6057600080fd5b506106a5610a6f36600461461a565b611c77565b348015610a8057600080fd5b50d38015610a8d57600080fd5b50d28015610a9a57600080fd5b50610526610aa936600461461a565b611cbe565b348015610aba57600080fd5b50d38015610ac757600080fd5b50d28015610ad457600080fd5b50610526610ae336600461461a565b611cea565b348015610af457600080fd5b50d38015610b0157600080fd5b50d28015610b0e57600080fd5b506106a5610b1d36600461461a565b611d66565b348015610b2e57600080fd5b50d38015610b3b57600080fd5b50d28015610b4857600080fd5b50610526611d99565b348015610b5d57600080fd5b50d38015610b6a57600080fd5b50d28015610b7757600080fd5b50610b8e610b863660046146ae565b600092915050565b6040516001600160401b039091168152602001610430565b348015610bb257600080fd5b50d38015610bbf57600080fd5b50d28015610bcc57600080fd5b506106a5610bdb36600461461a565b611dad565b348015610bec57600080fd5b50d38015610bf957600080fd5b50d28015610c0657600080fd5b50610473610c15366004614951565b611db8565b348015610c2657600080fd5b50d38015610c3357600080fd5b50d28015610c4057600080fd5b50610c49611dcd565b60405161043097969594939291906149c3565b348015610c6857600080fd5b50d38015610c7557600080fd5b50d28015610c8257600080fd5b50610526610c913660046143fc565b611e79565b348015610ca257600080fd5b50d38015610caf57600080fd5b50d28015610cbc57600080fd5b506006610780565b348015610cd057600080fd5b50d38015610cdd57600080fd5b50d28015610cea57600080fd5b50610526610cf93660046143fc565b611ec6565b348015610d0a57600080fd5b50d38015610d1757600080fd5b50d28015610d2457600080fd5b506104fb611f13565b348015610d3957600080fd5b50d38015610d4657600080fd5b50d28015610d5357600080fd5b506106a5600981565b348015610d6857600080fd5b50d38015610d7557600080fd5b50d28015610d8257600080fd5b50610423611f3c565b348015610d9757600080fd5b50d38015610da457600080fd5b50d28015610db157600080fd5b506106a57f000000000000000000000000000000000000000000000000000000000000000081565b348015610de557600080fd5b50d38015610df257600080fd5b50d28015610dff57600080fd5b50610526610e0e36600461461a565b611f7b565b348015610e1f57600080fd5b50d38015610e2c57600080fd5b50d28015610e3957600080fd5b50610526610e483660046143fc565b611fa4565b348015610e5957600080fd5b50d38015610e6657600080fd5b50d28015610e7357600080fd5b506000610473565b348015610e8757600080fd5b50d38015610e9457600080fd5b50d28015610ea157600080fd5b50610473610eb036600461461a565b60036020526000908152604090205460ff1681565b348015610ed157600080fd5b50d38015610ede57600080fd5b50d28015610eeb57600080fd5b50610473610efa3660046143fc565b612035565b348015610f0b57600080fd5b50d38015610f1857600080fd5b50d28015610f2557600080fd5b50610423604051806040016040528060058152602001640352e302e360dc1b81525081565b348015610f5657600080fd5b50d38015610f6357600080fd5b50d28015610f7057600080fd5b506104fb61204a565b348015610f8557600080fd5b50d38015610f9257600080fd5b50d28015610f9f57600080fd5b506001546104fb906001600160a01b031681565b348015610fbf57600080fd5b50d38015610fcc57600080fd5b50d28015610fd957600080fd5b50610526610fe8366004614aa0565b612073565b348015610ff957600080fd5b50d3801561100657600080fd5b50d2801561101357600080fd5b506106a5611022366004614ae1565b63ffffffff16600090815260008051602061578c833981519152602052604090205490565b34801561105357600080fd5b50d3801561106057600080fd5b50d2801561106d57600080fd5b5061042361107c366004614afc565b6121f4565b61052661108f366004614aa0565b61238a565b3480156110a057600080fd5b50d380156110ad57600080fd5b50d280156110ba57600080fd5b506104736110c936600461461a565b60046020526000908152604090205460ff1681565b6110f16110ec366004614b5c565b612521565b604051610430929190614bd3565b34801561110b57600080fd5b50d3801561111857600080fd5b50d2801561112557600080fd5b5061052661113436600461461a565b61261c565b610526611147366004614570565b6126a2565b34801561115857600080fd5b50d3801561116557600080fd5b50d2801561117257600080fd5b5061052661118136600461461a565b6126d1565b34801561119257600080fd5b50d3801561119f57600080fd5b50d280156111ac57600080fd5b506105266111bb366004614c25565b612745565b3480156111cc57600080fd5b50d380156111d957600080fd5b50d280156111e657600080fd5b506106a56111f53660046143fc565b61289e565b34801561120657600080fd5b50d3801561121357600080fd5b50d2801561122057600080fd5b506106a561122f366004614ca9565b6128c0565b34801561124057600080fd5b50d3801561124d57600080fd5b50d2801561125a57600080fd5b50610526611269366004614d0f565b61290a565b34801561127a57600080fd5b50d3801561128757600080fd5b50d2801561129457600080fd5b506105266112a336600461461a565b612a89565b3480156112b457600080fd5b50d380156112c157600080fd5b50d280156112ce57600080fd5b506000546104fb906001600160a01b031681565b3480156112ee57600080fd5b50d380156112fb57600080fd5b50d2801561130857600080fd5b50610473611317366004614dc7565b612ac7565b6060600060008051602061576c8339815191525b905080600301805461134190614de3565b80601f016020809104026020016040519081016040528092919081815260200182805461136d90614de3565b80156113ba5780601f1061138f576101008083540402835291602001916113ba565b820191906000526020600020905b81548152906001019060200180831161139d57829003601f168201915b505050505091505090565b6000336113d3818585612ae5565b60019150505b92915050565b60408051808201909152600080825260208201526060611412604051806040016040528060008152602001600081525090565b60408051808201825260008082526001600160401b0360208084018290528451838152908101909452919550918261146d565b6040805180820190915260008152606060208201528152602001906001900390816114455790505b509350600080611492604089013560608a013561148d60208c018c614ae1565b612af2565b60408051808201909152918252602082015296989597505050505050565b6000807f41db8a78b0206aba5c54bcbfc2bda0d84082a84eb88e680379a57b9e9f653c005b546001600160a01b031692915050565b7f00000000000000000000000000000000000000000000000000000000000000006001600160a01b03163314611535576040516391ac5e4f60e01b81523360048201526024015b60405180910390fd5b6020870180359061154f9061154a908a614ae1565b612b36565b1461158d576115616020880188614ae1565b60405163309afaf360e21b815263ffffffff90911660048201526020880135602482015260440161152c565b61159c87878787878787612b81565b50505050505050565b6001546001600160a01b031633146115ff5760405162461bcd60e51b815260206004820152601c60248201527f446562743a2043616c6c6572206e6f74205361746f7368695861707000000000604482015260640161152c565b61160a823383612ce8565b5050565b6001546001600160a01b031633146116385760405162461bcd60e51b815260040161152c90614e17565b6001600160a01b03166000908152600360205260409020805460ff19166001179055565b6001546001600160a01b031633148061168457503360009081526003602052604090205460ff165b6116d05760405162461bcd60e51b815260206004820152601f60248201527f446562743a2043616c6c6572206e6f7420544d2f5361746f7368695861707000604482015260640161152c565b6116db838383612ce8565b505050565b60006116eb83612d47565b6116f6848484612eb1565b90505b9392505050565b611708612ed5565b63ffffffff8216600081815260008051602061578c833981519152602081815260409283902085905582519384528301849052917f238399d427b947898edb290f5ff0f9109849b1c3ba196a42e35f00c50a54b98b91015b60405180910390a1505050565b6000611777612f07565b905090565b604080518082019091526000808252602082015260006117ac6040850135606086013561148d6020880188614ae1565b9150506000806117bc8684612f11565b90925090506117d96117d16020880188614ae1565b838388613056565b9695505050505050565b6001546001600160a01b031633148061180b57503360009081526003602052604090205460ff165b8061182557503360009081526004602052604090205460ff165b61187d5760405162461bcd60e51b8152602060048201526024808201527f446562743a2043616c6c6572206e6f74205361746f736869586170702f544d2f6044820152630c2eae8d60e31b606482015260840161152c565b61160a8282613137565b61188f61316d565b61189882613212565b61160a828261321a565b60006118ac6132d7565b506000805160206157cc83398151915290565b63ffffffff821660009081527f8d2bda5d9f6ffb5796910376005392955773acee5548d0fcdb10e7c264ea00006020818152604080842061ffff861685529091529091208054606092919061191390614de3565b80601f016020809104026020016040519081016040528092919081815260200182805461193f90614de3565b801561198c5780601f106119615761010080835404028352916020019161198c565b820191906000526020600020905b81548152906001019060200180831161196f57829003601f168201915b505050505091505092915050565b60006001600160a01b03851630146119f45760405162461bcd60e51b815260206004820152601b60248201527f4552433230466c6173684d696e743a2077726f6e6720746f6b656e0000000000604482015260640161152c565b6119fd85611c77565b841115611a605760405162461bcd60e51b815260206004820152602b60248201527f4552433230466c6173684d696e743a20616d6f756e742065786365656473206d60448201526a30bc233630b9b42637b0b760a91b606482015260840161152c565b6000611a6b85613320565b9050611a778786613137565b6040516323e30c8b60e01b81527f439148f0bbc682ca079e46d6e2c2f0c1e3b820f1a291b069d8882abf8cf18dd9906001600160a01b038916906323e30c8b90611acf9033908b908b9088908c908c90600401614e87565b6020604051808303816000875af1158015611aee573d6000803e3d6000fd5b505050506040513d601f19601f82011682018060405250810190611b129190614ece565b14611b6b5760405162461bcd60e51b8152602060048201526024808201527f4552433230466c6173684d696e743a20696e76616c69642072657475726e2076604482015263616c756560e01b606482015260840161152c565b611b7f8730611b7a8489614efd565b61333a565b611b8987866133a1565b600154604080516307a77c5360e11b815290516000926001600160a01b031691630f4ef8a69160048083019260209291908290030181865afa158015611bd3573d6000803e3d6000fd5b505050506040513d601f19601f82011682018060405250810190611bf79190614f10565b9050611c04883084612ce8565b611c0f308284612ae5565b60405163d053316f60e01b8152600481018390526001600160a01b0382169063d053316f90602401600060405180830381600087803b158015611c5157600080fd5b505af1158015611c65573d6000803e3d6000fd5b5060019b9a5050505050505050505050565b60006001600160a01b0382163014611c905760006113d9565b7f52c63247e1f47db19d5ce0460030c497f067ca4cebf71ba98eeadabe20bace02546113d990600019614f2d565b611cc6612ed5565b6001600160a01b03166000908152600460205260409020805460ff19166001179055565b611cf2612ed5565b7f41db8a78b0206aba5c54bcbfc2bda0d84082a84eb88e680379a57b9e9f653c0080546001600160a01b0319166001600160a01b03831690811782556040519081527ff0be4f1e87349231d80c36b33f9e8639658eeaf474014dee15a3e6a4d4414197906020015b60405180910390a15050565b60008060008051602061576c8339815191525b6001600160a01b0390931660009081526020939093525050604090205490565b611da1612ed5565b611dab60006133d7565b565b60006113d982613448565b6001600160a01b03811630145b949350505050565b600060608082808083816000805160206157ac8339815191528054909150158015611dfa57506001810154155b611e3e5760405162461bcd60e51b81526020600482015260156024820152741152540dcc4c8e88155b9a5b9a5d1a585b1a5e9959605a1b604482015260640161152c565b611e46613471565b611e4e6134b0565b60408051600080825260208201909252600f60f81b9c939b5091995046985030975095509350915050565b6001546001600160a01b03163314611ea35760405162461bcd60e51b815260040161152c90614e17565b611ead82826133a1565b60005460025461160a916001600160a01b0316906133a1565b6001546001600160a01b03163314611ef05760405162461bcd60e51b815260040161152c90614e17565b611efa8282613137565b60005460025461160a916001600160a01b031690613137565b6000807f9016d09d72d40fdae2fd8ceac6b6234c7706214fd39c1cd1e609a0528c1993006114d5565b7f52c63247e1f47db19d5ce0460030c497f067ca4cebf71ba98eeadabe20bace04805460609160008051602061576c8339815191529161134190614de3565b611f83612ed5565b6001600160a01b03166000908152600460205260409020805460ff19169055565b3360009081526003602052604090205460ff1680611fd157503360009081526004602052604090205460ff165b61202b5760405162461bcd60e51b815260206004820152602560248201527f446562743a2043616c6c6572206e6f742054726f76654d616e61676572206f72604482015264040c2eae8d60db1b606482015260840161152c565b61160a82826133a1565b600061204083612d47565b6116f983836134c8565b6000807fefb041d771d6daaa55702fff6eb740d63ba559a75d2d1d3e151c78ff2480b6006114d5565b61207b612ed5565b7f8d2bda5d9f6ffb5796910376005392955773acee5548d0fcdb10e7c264ea000060005b828110156121c2576120e18484838181106120bc576120bc614f40565b90506020028101906120ce9190614f56565b6120dc906040810190614f76565b6134d6565b8383828181106120f3576120f3614f40565b90506020028101906121059190614f56565b612113906040810190614f76565b83600087878681811061212857612128614f40565b905060200281019061213a9190614f56565b612148906020810190614ae1565b63ffffffff1663ffffffff168152602001908152602001600020600087878681811061217657612176614f40565b90506020028101906121889190614f56565b612199906040810190602001614fbc565b61ffff1681526020810191909152604001600020916121b9919083615027565b5060010161209f565b507fbe4864a8e820971c0247f5992e2da559595f7bf076a21cb5928d443d2a13b67483836040516117609291906150e6565b63ffffffff841660009081527f8d2bda5d9f6ffb5796910376005392955773acee5548d0fcdb10e7c264ea00006020818152604080842061ffff8816855290915282208054606093919061224790614de3565b80601f016020809104026020016040519081016040528092919081815260200182805461227390614de3565b80156122c05780601f10612295576101008083540402835291602001916122c0565b820191906000526020600020905b8154815290600101906020018083116122a357829003601f168201915b5050505050905080516000036123115784848080601f016020809104026020016040519081016040528093929190818152602001838380828437600092019190915250929550611dc5945050505050565b6000849003612323579150611dc59050565b6002841061236d5761233585856134d6565b8061234385600281896151ca565b604051602001612355939291906151f4565b60405160208183030381529060405292505050611dc5565b8484604051639a6d49cd60e01b815260040161152c92919061521c565b60005b818110156124a057368383838181106123a8576123a8614f40565b90506020028101906123ba9190615230565b90506123fa6123cc6020830183614ae1565b602083013563ffffffff91909116600090815260008051602061578c83398151915260205260409020541490565b6124045750612498565b3063d045a0dc60c08301358360a0810135612423610100830183614f76565b612434610100890160e08a0161461a565b6124426101208a018a614f76565b6040518963ffffffff1660e01b8152600401612464979695949392919061525c565b6000604051808303818588803b15801561247d57600080fd5b505af1158015612491573d6000803e3d6000fd5b5050505050505b60010161238d565b50336001600160a01b0316638e9e70996040518163ffffffff1660e01b8152600401600060405180830381865afa1580156124df573d6000803e3d6000fd5b505050506040513d6000823e601f3d908101601f1916820160405261250791908101906152e2565b604051638351eea760e01b815260040161152c91906143d4565b61252961433d565b604080518082019091526000808252602082015260008061256033604089013560608a013561255b60208c018c614ae1565b613518565b915091506000806125718984612f11565b909250905061259d61258660208b018b614ae1565b8383612597368d90038d018d61534f565b8b61353e565b60408051808201909152858152602080820186905282519298509096503391907f85496b760a4b7f8d66384b9df21b381f5d1b1e79f229a47aaf4c232edc2fe59a906125eb908d018d614ae1565b6040805163ffffffff909216825260208201899052810187905260600160405180910390a350505050935093915050565b612624612ed5565b60405163ca5eb5e160e01b81526001600160a01b0382811660048301527f0000000000000000000000000000000000000000000000000000000000000000169063ca5eb5e190602401600060405180830381600087803b15801561268757600080fd5b505af115801561269b573d6000803e3d6000fd5b5050505050565b3330146126c25760405163029a949d60e31b815260040160405180910390fd5b61159c8787878787878761158d565b6126d9612ed5565b7fefb041d771d6daaa55702fff6eb740d63ba559a75d2d1d3e151c78ff2480b60080546001600160a01b0319166001600160a01b03831690811782556040519081527fd48d879cef83a1c0bdda516f27b13ddb1b3f8bbac1c9e1511bb2a659c242776090602001611d5a565b834211156127695760405163313c898160e11b81526004810185905260240161152c565b60007f6e71edae12b1b97f4d1f60370fef10105fa2faae0126114a169c64845d6126c98888886127d58c6001600160a01b031660009081527f5ab42ced628888259c08ac98db1eb0cf702fc1501344311d8b100cd1bfe4bb006020526040902080546001810190915590565b6040805160208101969096526001600160a01b0394851690860152929091166060840152608083015260a082015260c0810186905260e001604051602081830303815290604052805190602001209050600061283082613649565b9050600061284082878787613676565b9050896001600160a01b0316816001600160a01b031614612887576040516325c0072360e11b81526001600160a01b0380831660048301528b16602482015260440161152c565b6128928a8a8a612ae5565b50505050505050505050565b60006001600160a01b03831630146128b75760006116f9565b6116f982613320565b6001600160a01b0391821660009081527f52c63247e1f47db19d5ce0460030c497f067ca4cebf71ba98eeadabe20bace016020908152604080832093909416825291909152205490565b7ff0c57e16840df040f15088dc2f81fe391c3923bec73e23a9662efc9c229c6a008054600160401b810460ff1615906001600160401b031660008115801561294f5750825b90506000826001600160401b0316600114801561296b5750303b155b905081158015612979575080155b156129975760405163f92ee8a960e01b815260040160405180910390fd5b845467ffffffffffffffff1916600117855583156129c157845460ff60401b1916600160401b1785555b6129ca886136a4565b6129d3876136a4565b6129dc896136a4565b6129e5866136cb565b6129ed6136ec565b6129f88b8b896136f4565b612a0187613718565b600080546001600160a01b03808c166001600160a01b03199283161790925560018054928b169290911691909117905560028690558315612a7c57845460ff60401b19168555604051600181527fc7f505b2f371ae2175ee4913f4499e1f2633a7b5936321eed1cdaeb6115181d29060200160405180910390a15b5050505050505050505050565b612a91612ed5565b6001600160a01b038116612abb57604051631e4fbdf760e01b81526000600482015260240161152c565b612ac4816133d7565b50565b600060208201803590612ade906110229085614ae1565b1492915050565b6116db8383836001613729565b600080612afe85613810565b915081905083811015612b2e576040516371c4efed60e01b8152600481018290526024810185905260440161152c565b935093915050565b63ffffffff8116600090815260008051602061578c83398151915260208190526040822054806116f95760405163f6ff4fb760e01b815263ffffffff8516600482015260240161152c565b6000612b93612b908787613847565b90565b90506000612bbf82612bad612ba88a8a61385f565b613882565b612bba60208d018d614ae1565b6138b7565b90506028861115612c86576000612bfc612bdf60608c0160408d01615381565b612bec60208d018d614ae1565b84612bf78c8c6138df565b61392a565b604051633e5ac80960e11b81529091506001600160a01b037f00000000000000000000000000000000000000000000000000000000000000001690637cb5901290612c529086908d90600090879060040161539e565b600060405180830381600087803b158015612c6c57600080fd5b505af1158015612c80573d6000803e3d6000fd5b50505050505b6001600160a01b038216887fefed6d3500546b29533b128a29e3a94d70788727f0507505ac12eaf2e578fd9c612cbf60208d018d614ae1565b6040805163ffffffff9092168252602082018690520160405180910390a3505050505050505050565b6001600160a01b038316612d1257604051634b637e8f60e11b81526000600482015260240161152c565b6001600160a01b038216612d3c5760405163ec442f0560e01b81526000600482015260240161152c565b6116db83838361395c565b6001600160a01b03811615801590612d6857506001600160a01b0381163014155b612df75760405162461bcd60e51b815260206004820152605460248201527f446562743a2043616e6e6f74207472616e7366657220746f6b656e732064697260448201527f6563746c7920746f20746865204465627420746f6b656e20636f6e7472616374606482015273206f7220746865207a65726f206164647265737360601b608482015260a40161152c565b6001546001600160a01b03828116911614801590612e2e57506001600160a01b03811660009081526003602052604090205460ff16155b612ac45760405162461bcd60e51b815260206004820152604860248201527f446562743a2043616e6e6f74207472616e7366657220746f6b656e732064697260448201527f6563746c7920746f20746865205361746f73686958417070206f722054726f7660648201526732a6b0b730b3b2b960c11b608482015260a40161152c565b600033612ebf85828561333a565b612eca858585612ce8565b506001949350505050565b33612ede611f13565b6001600160a01b031614611dab5760405163118cdaa760e01b815233600482015260240161152c565b6000611777613a9a565b6060806000612f6e8560200135612f2786613b0e565b612f3460a0890189614f76565b8080601f016020809104026020016040519081016040528093929190818152602001838380828437600092019190915250613b3a92505050565b9093509050600081612f81576001612f84565b60025b9050612fa4612f966020880188614ae1565b8261107c60808a018a614f76565b7f41db8a78b0206aba5c54bcbfc2bda0d84082a84eb88e680379a57b9e9f653c008054919450906001600160a01b0316801561304b5760405163043a78eb60e01b81526001600160a01b0382169063043a78eb9061300890899089906004016153cf565b602060405180830381865afa158015613025573d6000803e3d6000fd5b505050506040513d601f19601f8201168201806040525081019061304991906153f4565b505b505050509250929050565b60408051808201909152600080825260208201527f00000000000000000000000000000000000000000000000000000000000000006001600160a01b031663ddc28c586040518060a001604052808863ffffffff1681526020016130b989612b36565b8152602001878152602001868152602001851515815250306040518363ffffffff1660e01b81526004016130ee929190615411565b6040805180830381865afa15801561310a573d6000803e3d6000fd5b505050506040513d601f19601f8201168201806040525081019061312e91906154ba565b95945050505050565b6001600160a01b0382166131615760405163ec442f0560e01b81526000600482015260240161152c565b61160a6000838361395c565b306001600160a01b037f00000000000000000000000000000000000000000000000000000000000000001614806131f457507f00000000000000000000000000000000000000000000000000000000000000006001600160a01b03166131e86000805160206157cc833981519152546001600160a01b031690565b6001600160a01b031614155b15611dab5760405163703e46dd60e11b815260040160405180910390fd5b612ac4612ed5565b816001600160a01b03166352d1902d6040518163ffffffff1660e01b8152600401602060405180830381865afa925050508015613274575060408051601f3d908101601f1916820190925261327191810190614ece565b60015b61329c57604051634c9c8ce360e01b81526001600160a01b038316600482015260240161152c565b6000805160206157cc83398151915281146132cd57604051632a87526960e21b81526004810182905260240161152c565b6116db8383613bb4565b306001600160a01b037f00000000000000000000000000000000000000000000000000000000000000001614611dab5760405163703e46dd60e11b815260040160405180910390fd5b60006127106133306009846154d6565b6113d991906154ed565b600061334684846128c0565b905060001981101561339b578181101561338c57604051637dc7a0d960e11b81526001600160a01b0384166004820152602481018290526044810183905260640161152c565b61339b84848484036000613729565b50505050565b6001600160a01b0382166133cb57604051634b637e8f60e11b81526000600482015260240161152c565b61160a8260008361395c565b7f9016d09d72d40fdae2fd8ceac6b6234c7706214fd39c1cd1e609a0528c19930080546001600160a01b031981166001600160a01b03848116918217845560405192169182907f8be0079c531659141344cd1fd0a4f28419497f9722a3daafe3b4186f6b6457e090600090a3505050565b6000807f5ab42ced628888259c08ac98db1eb0cf702fc1501344311d8b100cd1bfe4bb00611d79565b7fa16a46d94261c7517cc8ff89f61c0ce93598e3c849801011dee649a6a557d10280546060916000805160206157ac8339815191529161134190614de3565b606060006000805160206157ac833981519152611330565b6000336113d3818585612ce8565b60006134e560028284866151ca565b6134ee9161550f565b60f01c9050600381146116db578282604051639a6d49cd60e01b815260040161152c92919061521c565b600080613526858585612af2565b909250905061353586836133a1565b94509492505050565b61354661433d565b60006135558460000151613c0a565b60208501519091501561356f5761356f8460200151613c32565b7f00000000000000000000000000000000000000000000000000000000000000006001600160a01b0316632637a450826040518060a001604052808b63ffffffff1681526020016135bf8c612b36565b81526020018a815260200189815260200160008960200151111515815250866040518463ffffffff1660e01b81526004016135fb929190615411565b60806040518083038185885af1158015613619573d6000803e3d6000fd5b50505050506040513d601f19601f8201168201806040525081019061363e919061553f565b979650505050505050565b60006113d9613656612f07565b8360405161190160f01b8152600281019290925260228201526042902090565b60008060008061368888888888613d14565b9250925092506136988282613de3565b50909695505050505050565b6001600160a01b038116612ac45760405163d92e233d60e01b815260040160405180910390fd5b80600003612ac457604051637c946ed760e01b815260040160405180910390fd5b611dab613e9c565b6136fc613e9c565b6137068383613ee5565b61370f83613ef7565b6116db81613f22565b613720613e9c565b612ac481613f43565b60008051602061576c8339815191526001600160a01b0385166137625760405163e602df0560e01b81526000600482015260240161152c565b6001600160a01b03841661378c57604051634a1406b160e11b81526000600482015260240161152c565b6001600160a01b0380861660009081526001830160209081526040808320938816835292905220839055811561269b57836001600160a01b0316856001600160a01b03167f8c5be1e5ebec7d5bd14f71427d1e84f3dd0314c0f7b2291e5b200ac8c7c3b9258560405161380191815260200190565b60405180910390a35050505050565b60007f000000000000000000000000000000000000000000000000000000000000000061383d81846154ed565b6113d991906154d6565b600061385660208284866151ca565b6116f9916155a6565b600061386f6028602084866151ca565b613878916155c4565b60c01c9392505050565b60006113d97f00000000000000000000000000000000000000000000000000000000000000006001600160401b0384166154d6565b60006001600160a01b0384166138cd5761dead93505b6138d78484613137565b509092915050565b60606138ee82602881866151ca565b8080601f016020809104026020016040519081016040528093929190818152602001838380828437600092019190915250929695505050505050565b60608484848460405160200161394394939291906155f2565b6040516020818303038152906040529050949350505050565b60008051602061576c8339815191526001600160a01b038416613998578181600201600082825461398d9190614efd565b90915550613a0a9050565b6001600160a01b038416600090815260208290526040902054828110156139eb5760405163391434e360e21b81526001600160a01b0386166004820152602481018290526044810184905260640161152c565b6001600160a01b03851660009081526020839052604090209083900390555b6001600160a01b038316613a28576002810180548390039055613a47565b6001600160a01b03831660009081526020829052604090208054830190555b826001600160a01b0316846001600160a01b03167fddf252ad1be2c89b69c2b068fc378daa952ba7f163c4a11628f55a4df523b3ef84604051613a8c91815260200190565b60405180910390a350505050565b60007f8b73c3c69bb8fe3d512ecc4cf759cc79239f7b179b0ffacaa9a75d522b39400f613ac5613f4b565b613acd613fb5565b60408051602081019490945283019190915260608201524660808201523060a082015260c00160405160208183030381529060405280519060200120905090565b60006113d97f0000000000000000000000000000000000000000000000000000000000000000836154ed565b8051606090151580613b83578484604051602001613b6f92919091825260c01b6001600160c01b031916602082015260280190565b604051602081830303815290604052613baa565b84843385604051602001613b9a9493929190615641565b6040516020818303038152906040525b9150935093915050565b613bbd82613ff9565b6040516001600160a01b038316907fbc7cd75a20ee27fd9adebab32041f755214dbc6bffa90cc0225b39da2e5c2d3b90600090a2805115613c02576116db828261405e565b61160a6140cb565b6000813414613c2e576040516304fb820960e51b815234600482015260240161152c565b5090565b60007f00000000000000000000000000000000000000000000000000000000000000006001600160a01b031663e4fe1d946040518163ffffffff1660e01b8152600401602060405180830381865afa158015613c92573d6000803e3d6000fd5b505050506040513d601f19601f82011682018060405250810190613cb69190614f10565b90506001600160a01b038116613cdf576040516329b99a9560e11b815260040160405180910390fd5b61160a6001600160a01b038216337f0000000000000000000000000000000000000000000000000000000000000000856140ea565b600080807f7fffffffffffffffffffffffffffffff5d576e7357a4501ddfe92f46681b20a0841115613d4f5750600091506003905082613dd9565b604080516000808252602082018084528a905260ff891692820192909252606081018790526080810186905260019060a0016020604051602081039080840390855afa158015613da3573d6000803e3d6000fd5b5050604051601f1901519150506001600160a01b038116613dcf57506000925060019150829050613dd9565b9250600091508190505b9450945094915050565b6000826003811115613df757613df7615684565b03613e00575050565b6001826003811115613e1457613e14615684565b03613e325760405163f645eedf60e01b815260040160405180910390fd5b6002826003811115613e4657613e46615684565b03613e675760405163fce698f760e01b81526004810182905260240161152c565b6003826003811115613e7b57613e7b615684565b0361160a576040516335e2f38360e21b81526004810182905260240161152c565b7ff0c57e16840df040f15088dc2f81fe391c3923bec73e23a9662efc9c229c6a0054600160401b900460ff16611dab57604051631afcd79f60e31b815260040160405180910390fd5b613eed613e9c565b61160a8282614144565b613eff613e9c565b612ac481604051806040016040528060018152602001603160f81b815250614195565b613f2a613e9c565b613f33816141f6565b613f3b6136ec565b612ac46136ec565b612a91613e9c565b60006000805160206157ac83398151915281613f65613471565b805190915015613f7d57805160209091012092915050565b81548015613f8c579392505050565b7fc5d2460186f7233c927e7db2dcc703c0e500b653ca82273b7bfad8045d85a470935050505090565b60006000805160206157ac83398151915281613fcf6134b0565b805190915015613fe757805160209091012092915050565b60018201548015613f8c579392505050565b806001600160a01b03163b60000361402f57604051634c9c8ce360e01b81526001600160a01b038216600482015260240161152c565b6000805160206157cc83398151915280546001600160a01b0319166001600160a01b0392909216919091179055565b6060600080846001600160a01b03168460405161407b919061569a565b600060405180830381855af49150503d80600081146140b6576040519150601f19603f3d011682016040523d82523d6000602084013e6140bb565b606091505b509150915061312e858383614207565b3415611dab5760405163b398979f60e01b815260040160405180910390fd5b604080516001600160a01b0385811660248301528416604482015260648082018490528251808303909101815260849091019091526020810180516001600160e01b03166323b872dd60e01b17905261339b908590614263565b61414c613e9c565b60008051602061576c8339815191527f52c63247e1f47db19d5ce0460030c497f067ca4cebf71ba98eeadabe20bace0361418684826156ac565b506004810161339b83826156ac565b61419d613e9c565b6000805160206157ac8339815191527fa16a46d94261c7517cc8ff89f61c0ce93598e3c849801011dee649a6a557d1026141d784826156ac565b50600381016141e683826156ac565b5060008082556001909101555050565b6141fe613e9c565b613f33816142d4565b60608261421c57614217826142e5565b6116f9565b815115801561423357506001600160a01b0384163b155b1561425c57604051639996b31560e01b81526001600160a01b038516600482015260240161152c565b50806116f9565b600080602060008451602086016000885af180614286576040513d6000823e3d81fd5b50506000513d9150811561429e5780600114156142ab565b6001600160a01b0384163b155b1561339b57604051635274afe760e01b81526001600160a01b038516600482015260240161152c565b6142dc613e9c565b612ac48161430e565b8051156142f55780518082602001fd5b60405163d6bda27560e01b815260040160405180910390fd5b614316613e9c565b6001600160a01b03811661262457604051632d618d8160e21b815260040160405180910390fd5b60405180606001604052806000801916815260200160006001600160401b0316815260200161437f604051806040016040528060008152602001600081525090565b905290565b60005b8381101561439f578181015183820152602001614387565b50506000910152565b600081518084526143c0816020860160208601614384565b601f01601f19169290920160200192915050565b6020815260006116f960208301846143a8565b6001600160a81b0381168114612ac457600080fd5b6000806040838503121561440f57600080fd5b823561441a816143e7565b6001600160a01b0316946020939093013593505050565b600060e0828403121561444357600080fd5b50919050565b60006020828403121561445b57600080fd5b81356001600160401b0381111561447157600080fd5b611dc584828501614431565b8351815260208085015190820152600060a08201604060a0604085015281865180845260c08601915060c08160051b8701019350602080890160005b838110156144f85788870360bf190185528151805188528301518388018790526144e5878901826143a8565b97505093820193908201906001016144b9565b50508751606088015250505060208501516080850152509050611dc5565b60006060828403121561444357600080fd5b60008083601f84011261453a57600080fd5b5081356001600160401b0381111561455157600080fd5b60208301915083602082850101111561456957600080fd5b9250929050565b600080600080600080600060e0888a03121561458b57600080fd5b6145958989614516565b96506060880135955060808801356001600160401b03808211156145b857600080fd5b6145c48b838c01614528565b909750955060a08a013591506145d9826143e7565b6001600160a01b0391909116935060c089013590808211156145fa57600080fd5b506146078a828b01614528565b989b979a50959850939692959293505050565b60006020828403121561462c57600080fd5b8135614637816143e7565b6001600160a01b03169392505050565b60008060006060848603121561465c57600080fd5b8335614667816143e7565b6001600160a01b039081169350602085013590614683826143e7565b93969316945050506040919091013590565b803563ffffffff811681146146a957600080fd5b919050565b600080604083850312156146c157600080fd5b6146ca83614695565b946020939093013593505050565b8015158114612ac457600080fd5b600080604083850312156146f957600080fd5b82356001600160401b0381111561470f57600080fd5b61471b85828601614431565b925050602083013561472c816146d8565b809150509250929050565b8151815260208083015190820152604081016113d9565b634e487b7160e01b600052604160045260246000fd5b604080519081016001600160401b03811182821017156147865761478661474e565b60405290565b604051601f8201601f191681016001600160401b03811182821017156147b4576147b461474e565b604052919050565b60006001600160401b038211156147d5576147d561474e565b50601f01601f191660200190565b60006147f66147f1846147bc565b61478c565b905082815283838301111561480a57600080fd5b828260208301376000602084830101529392505050565b6000806040838503121561483457600080fd5b823561483f816143e7565b6001600160a01b0316915060208301356001600160401b0381111561486357600080fd5b8301601f8101851361487457600080fd5b614883858235602084016147e3565b9150509250929050565b803561ffff811681146146a957600080fd5b600080604083850312156148b257600080fd5b6148bb83614695565b91506148c96020840161488d565b90509250929050565b6000806000806000608086880312156148ea57600080fd5b85356148f5816143e7565b6001600160a01b039081169550602087013590614911826143e7565b1693506040860135925060608601356001600160401b0381111561493457600080fd5b61494088828901614528565b969995985093965092949392505050565b60008060008060a0858703121561496757600080fd5b6149718686614516565b935060608501356001600160401b0381111561498c57600080fd5b61499887828801614528565b90945092505060808501356149ac816143e7565b9396929550909350506001600160a01b0390911690565b60ff60f81b881681526000602060e060208401526149e460e084018a6143a8565b83810360408501526149f6818a6143a8565b606085018990526001600160a01b038816608086015260a0850187905284810360c08601528551808252602080880193509091019060005b81811015614a4a57835183529284019291840191600101614a2e565b50909c9b505050505050505050505050565b60008083601f840112614a6e57600080fd5b5081356001600160401b03811115614a8557600080fd5b6020830191508360208260051b850101111561456957600080fd5b60008060208385031215614ab357600080fd5b82356001600160401b03811115614ac957600080fd5b614ad585828601614a5c565b90969095509350505050565b600060208284031215614af357600080fd5b6116f982614695565b60008060008060608587031215614b1257600080fd5b614b1b85614695565b9350614b296020860161488d565b925060408501356001600160401b03811115614b4457600080fd5b614b5087828801614528565b95989497509550505050565b60008060008385036080811215614b7257600080fd5b84356001600160401b03811115614b8857600080fd5b614b9487828801614431565b9450506040601f1982011215614ba957600080fd5b506020840191506060840135614bbe816143e7565b9295919450506001600160a01b039091169150565b600060c082019050835182526001600160401b0360208501511660208301526040840151614c0e604084018280518252602090810151910152565b5082516080830152602083015160a08301526116f9565b600080600080600080600060e0888a031215614c4057600080fd5b8735614c4b816143e7565b6001600160a01b039081169750602089013590614c67826143e7565b1695506040880135945060608801359350608088013560ff81168114614c8c57600080fd5b9699959850939692959460a0840135945060c09093013592915050565b60008060408385031215614cbc57600080fd5b8235614cc7816143e7565b6001600160a01b039081169250602084013590614ce3826143e7565b92959216935090915050565b600082601f830112614d0057600080fd5b6116f9838335602085016147e3565b60008060008060008060c08789031215614d2857600080fd5b86356001600160401b0380821115614d3f57600080fd5b614d4b8a838b01614cef565b97506020890135915080821115614d6157600080fd5b50614d6e89828a01614cef565b9550506040870135614d7f816143e7565b6001600160a01b039081169450606088013590614d9b826143e7565b9081169350608088013590614daf826143e7565b8082169350505060a087013590509295509295509295565b600060608284031215614dd957600080fd5b6116f98383614516565b600181811c90821680614df757607f821691505b60208210810361444357634e487b7160e01b600052602260045260246000fd5b60208082526027908201527f44656274546f6b656e576974684c7a3a2043616c6c6572206e6f74205361746f6040820152660736869586170760cc1b606082015260800190565b81835281816020850137506000828201602090810191909152601f909101601f19169091010190565b6001600160a01b03878116825286166020820152604081018590526060810184905260a060808201819052600090614ec29083018486614e5e565b98975050505050505050565b600060208284031215614ee057600080fd5b5051919050565b634e487b7160e01b600052601160045260246000fd5b808201808211156113d9576113d9614ee7565b600060208284031215614f2257600080fd5b8151614637816143e7565b818103818111156113d9576113d9614ee7565b634e487b7160e01b600052603260045260246000fd5b60008235605e19833603018112614f6c57600080fd5b9190910192915050565b6000808335601e19843603018112614f8d57600080fd5b8301803591506001600160401b03821115614fa757600080fd5b60200191503681900382131561456957600080fd5b600060208284031215614fce57600080fd5b6116f98261488d565b601f8211156116db576000816000526020600020601f850160051c810160208610156150005750805b601f850160051c820191505b8181101561501f5782815560010161500c565b505050505050565b6001600160401b0383111561503e5761503e61474e565b6150528361504c8354614de3565b83614fd7565b6000601f841160018114615086576000851561506e5750838201355b600019600387901b1c1916600186901b17835561269b565b600083815260209020601f19861690835b828110156150b75786850135825560209485019460019092019101615097565b50868210156150d45760001960f88860031b161c19848701351681555b505060018560011b0183555050505050565b60208082528181018390526000906040808401600586901b8501820187855b888110156151bc57878303603f190184528135368b9003605e1901811261512b57600080fd5b8a01606063ffffffff61513d83614695565b16855261ffff61514e89840161488d565b168886015286820135601e1983360301811261516957600080fd5b9091018781019190356001600160401b0381111561518657600080fd5b80360383131561519557600080fd5b81888701526151a78287018285614e5e565b96890196955050509186019150600101615105565b509098975050505050505050565b600080858511156151da57600080fd5b838611156151e757600080fd5b5050820193919092039150565b60008451615206818460208901614384565b8201838582376000930192835250909392505050565b6020815260006116f6602083018486614e5e565b6000823561013e19833603018112614f6c57600080fd5b6001600160401b0381168114612ac457600080fd5b63ffffffff61526a89614695565b168152602088013560208201526000604089013561528781615247565b6001600160401b03811660408401525087606083015260e060808301526152b260e083018789614e5e565b6001600160a01b03861660a084015282810360c08401526152d4818587614e5e565b9a9950505050505050505050565b6000602082840312156152f457600080fd5b81516001600160401b0381111561530a57600080fd5b8201601f8101841361531b57600080fd5b80516153296147f1826147bc565b81815285602083850101111561533e57600080fd5b61312e826020830160208601614384565b60006040828403121561536157600080fd5b615369614764565b82358152602083013560208201528091505092915050565b60006020828403121561539357600080fd5b81356116f981615247565b60018060a01b038516815283602082015261ffff831660408201526080606082015260006117d960808301846143a8565b6040815260006153e260408301856143a8565b828103602084015261312e81856143a8565b60006020828403121561540657600080fd5b81516116f9816146d8565b6040815263ffffffff8351166040820152602083015160608201526000604084015160a0608084015261544760e08401826143a8565b90506060850151603f198483030160a085015261546482826143a8565b60809690960151151560c08501525050506001600160a01b039190911660209091015290565b60006040828403121561549c57600080fd5b6154a4614764565b9050815181526020820151602082015292915050565b6000604082840312156154cc57600080fd5b6116f9838361548a565b80820281158282048414176113d9576113d9614ee7565b60008261550a57634e487b7160e01b600052601260045260246000fd5b500490565b6001600160f01b031981358181169160028510156155375780818660020360031b1b83161692505b505092915050565b60006080828403121561555157600080fd5b604051606081018181106001600160401b03821117156155735761557361474e565b60405282518152602083015161558881615247565b602082015261559a846040850161548a565b60408201529392505050565b803560208310156113d957600019602084900360031b1b1692915050565b6001600160c01b031981358181169160088510156155375760089490940360031b84901b1690921692915050565b6001600160401b0360c01b8560c01b16815263ffffffff60e01b8460e01b16600882015282600c8201526000825161563181602c850160208701614384565b91909101602c0195945050505050565b8481526001600160401b0360c01b8460c01b16602082015282602882015260008251615674816048850160208701614384565b9190910160480195945050505050565b634e487b7160e01b600052602160045260246000fd5b60008251614f6c818460208701614384565b81516001600160401b038111156156c5576156c561474e565b6156d9816156d38454614de3565b84614fd7565b602080601f83116001811461570e57600084156156f65750858301515b600019600386901b1c1916600185901b17855561501f565b600085815260208120601f198616915b8281101561573d5788860151825594840194600190910190840161571e565b508582101561575b5787850151600019600388901b60f8161c191681555b5050505050600190811b0190555056fe52c63247e1f47db19d5ce0460030c497f067ca4cebf71ba98eeadabe20bace0072ab1bc1039b79dc4724ffca13de82c96834302d3c7e0d4252232d4b2dd8f900a16a46d94261c7517cc8ff89f61c0ce93598e3c849801011dee649a6a557d100360894a13ba1a3210667c828492db98dca3e2076cc3735a920a3ca505d382bbca26474726f6e58221220c0720e076c7a894861bbcd675a1d721b8b9f55b1fdafa87acab2c76cfb2fdb8164736f6c63430008160033",
  "source": "// SPDX-License-Identifier: MIT\npragma solidity ^0.8.20;\n\nimport { UUPSUpgradeable } from \"@openzeppelin/contracts-upgradeable/proxy/utils/UUPSUpgradeable.sol\";\nimport { ERC20Upgradeable } from \"@openzeppelin/contracts-upgradeable/token/ERC20/ERC20Upgradeable.sol\";\nimport { IERC3156FlashBorrower } from \"@openzeppelin/contracts/interfaces/IERC3156FlashBorrower.sol\";\nimport { ERC20 } from \"@openzeppelin/contracts/token/ERC20/ERC20.sol\";\n\nimport { IRewardManager } from \"../OSHI/interfaces/IRewardManager.sol\";\n\nimport { Utils } from \"../library/Utils.sol\";\nimport { ICoreFacet } from \"./interfaces/ICoreFacet.sol\";\nimport { IDebtToken } from \"./interfaces/IDebtToken.sol\";\nimport { ITroveManager } from \"./interfaces/ITroveManager.sol\";\n\nimport { OFTPermitUpgradeable } from \"./libs/OFTPermitUpgradeable.sol\";\n\n/**\n * @title DebtTokenWithLz\n * @dev Only deploy when LayerZero has already integrated the chain. The constructor must specify lzEndpoint.\n *      If LayerZero has not yet integrated the chain, the `./DebtToken.sol` contract must be used,\n *      and integration should be completed later using the OFT Adapter.\n * @notice DebtToken with LayerZero OFT implementation, ERC20 permit and ERC3156 Flash Loan support\n *      used for cross-chain circulation of debt tokens\n */\ncontract DebtTokenWithLz is IDebtToken, UUPSUpgradeable, OFTPermitUpgradeable {\n    // --- ERC 3156 Data ---\n    bytes32 private constant _RETURN_VALUE = keccak256(\"ERC3156FlashBorrower.onFlashLoan\");\n    uint256 public constant FLASH_LOAN_FEE = 9; // 1 = 0.0001%\n\n    // --- Addresses ---\n    address public gasPool;\n    address public satoshiXApp;\n\n    uint256 internal _debtGasCompensation;\n\n    mapping(ITroveManager => bool) public troveManager;\n\n    // --- Auth ---\n    mapping(address => bool) public wards;\n\n    function rely(address usr) external onlyOwner {\n        wards[usr] = true;\n    }\n\n    function deny(address usr) external onlyOwner {\n        wards[usr] = false;\n    }\n\n    modifier auth() {\n        require(wards[msg.sender], \"DebtTokenWithLz: not-authorized\");\n        _;\n    }\n\n    constructor(address _lzEndpoint) OFTPermitUpgradeable(_lzEndpoint) {\n        _disableInitializers();\n    }\n\n    /// @notice Override the _authorizeUpgrade function inherited from UUPSUpgradeable contract\n    // solhint-disable-next-line no-empty-blocks\n    function _authorizeUpgrade(address newImplementation) internal view override onlyOwner {\n        // No additional authorization logic is needed for this contract\n    }\n\n    function initialize(\n        string memory _name,\n        string memory _symbol,\n        address _gasPool,\n        address _satoshiXApp,\n        address _owner,\n        uint256 debtGasCompensation_\n    )\n        external\n        initializer\n    {\n        Utils.ensureNonzeroAddress(_satoshiXApp);\n        Utils.ensureNonzeroAddress(_owner);\n        Utils.ensureNonzeroAddress(_gasPool);\n        Utils.ensureNonZero(debtGasCompensation_);\n\n        __UUPSUpgradeable_init_unchained();\n        __OFT_init(_name, _symbol, _owner);\n        __Ownable_init(_owner);\n        gasPool = _gasPool;\n        satoshiXApp = _satoshiXApp;\n        _debtGasCompensation = debtGasCompensation_;\n    }\n\n    function enableTroveManager(ITroveManager _troveManager) external {\n        require(msg.sender == satoshiXApp, \"DebtTokenWithLz: Caller not SatoshiXapp\");\n        troveManager[_troveManager] = true;\n    }\n\n    // --- Functions for intra-Satoshi calls ---\n\n    function mintWithGasCompensation(address _account, uint256 _amount) external {\n        require(msg.sender == satoshiXApp, \"DebtTokenWithLz: Caller not SatoshiXapp\");\n        _mint(_account, _amount);\n        _mint(gasPool, _debtGasCompensation);\n    }\n\n    function burnWithGasCompensation(address _account, uint256 _amount) external {\n        require(msg.sender == satoshiXApp, \"DebtTokenWithLz: Caller not SatoshiXapp\");\n        _burn(_account, _amount);\n        _burn(gasPool, _debtGasCompensation);\n    }\n\n    function mint(address _account, uint256 _amount) external {\n        require(\n            msg.sender == satoshiXApp || troveManager[ITroveManager(msg.sender)] || wards[msg.sender],\n            \"Debt: Caller not SatoshiXapp/TM/auth\"\n        );\n        _mint(_account, _amount);\n    }\n\n    function burn(address _account, uint256 _amount) external {\n        require(troveManager[ITroveManager(msg.sender)] || wards[msg.sender], \"Debt: Caller not TroveManager or auth\");\n        _burn(_account, _amount);\n    }\n\n    function sendToXApp(address _sender, uint256 _amount) external {\n        require(msg.sender == satoshiXApp, \"Debt: Caller not SatoshiXapp\");\n        _transfer(_sender, msg.sender, _amount);\n    }\n\n    function returnFromPool(address _poolAddress, address _receiver, uint256 _amount) external {\n        require(msg.sender == satoshiXApp || troveManager[ITroveManager(msg.sender)], \"Debt: Caller not TM/SatoshiXapp\");\n        _transfer(_poolAddress, _receiver, _amount);\n    }\n\n    // --- External functions ---\n\n    function transfer(address recipient, uint256 amount) public override(IDebtToken, ERC20Upgradeable) returns (bool) {\n        _requireValidRecipient(recipient);\n        return super.transfer(recipient, amount);\n    }\n\n    function transferFrom(\n        address sender,\n        address recipient,\n        uint256 amount\n    )\n        public\n        override(IDebtToken, ERC20Upgradeable)\n        returns (bool)\n    {\n        _requireValidRecipient(recipient);\n        return super.transferFrom(sender, recipient, amount);\n    }\n\n    function DEBT_GAS_COMPENSATION() external view returns (uint256) {\n        return _debtGasCompensation;\n    }\n\n    // --- ERC 3156 Functions ---\n\n    /**\n     * @dev Returns the maximum amount of tokens available for loan.\n     * @param token The address of the token that is requested.\n     * @return The amount of token that can be loaned.\n     */\n    function maxFlashLoan(address token) public view returns (uint256) {\n        return token == address(this) ? type(uint256).max - totalSupply() : 0;\n    }\n\n    /**\n     * @dev Returns the fee applied when doing flash loans. This function calls\n     * the {_flashFee} function which returns the fee applied when doing flash\n     * loans.\n     * @param token The token to be flash loaned.\n     * @param amount The amount of tokens to be loaned.\n     * @return The fees applied to the corresponding flash loan.\n     */\n    function flashFee(address token, uint256 amount) external view returns (uint256) {\n        return token == address(this) ? _flashFee(amount) : 0;\n    }\n\n    /**\n     * @dev Returns the fee applied when doing flash loans. By default this\n     * implementation has 0 fees. This function can be overloaded to make\n     * the flash loan mechanism deflationary.\n     * @param amount The amount of tokens to be loaned.\n     * @return The fees applied to the corresponding flash loan.\n     */\n    function _flashFee(uint256 amount) internal pure returns (uint256) {\n        return (amount * FLASH_LOAN_FEE) / 10_000;\n    }\n\n    /**\n     * @dev Performs a flash loan. New tokens are minted and sent to the\n     * `receiver`, who is required to implement the {IERC3156FlashBorrower}\n     * interface. By the end of the flash loan, the receiver is expected to own\n     * amount + fee tokens and have them approved back to the token contract itself so\n     * they can be burned.\n     * @param receiver The receiver of the flash loan. Should implement the\n     * {IERC3156FlashBorrower-onFlashLoan} interface.\n     * @param token The token to be flash loaned. Only `address(this)` is\n     * supported.\n     * @param amount The amount of tokens to be loaned.\n     * @param data An arbitrary datafield that is passed to the receiver.\n     * @return `true` if the flash loan was successful.\n     */\n    // This function can reenter, but it doesn't pose a risk because it always preserves the property that the amount\n    // minted at the beginning is always recovered and burned at the end, or else the entire function will revert.\n    // slither-disable-next-line reentrancy-no-eth\n    function flashLoan(\n        IERC3156FlashBorrower receiver,\n        address token,\n        uint256 amount,\n        bytes calldata data\n    )\n        external\n        returns (bool)\n    {\n        require(token == address(this), \"ERC20FlashMint: wrong token\");\n        require(amount <= maxFlashLoan(token), \"ERC20FlashMint: amount exceeds maxFlashLoan\");\n        uint256 fee = _flashFee(amount);\n        _mint(address(receiver), amount);\n        require(\n            receiver.onFlashLoan(msg.sender, token, amount, fee, data) == _RETURN_VALUE,\n            \"ERC20FlashMint: invalid return value\"\n        );\n        _spendAllowance(address(receiver), address(this), amount + fee);\n        _burn(address(receiver), amount);\n\n        address rewardManager = address(ICoreFacet(satoshiXApp).rewardManager());\n        _transfer(address(receiver), address(this), fee);\n        _approve(address(this), rewardManager, fee);\n        IRewardManager(rewardManager).increaseSATPerUintStaked(fee);\n        return true;\n    }\n\n    // --- 'require' functions ---\n\n    function _requireValidRecipient(address _recipient) internal view {\n        require(\n            _recipient != address(0) && _recipient != address(this),\n            \"Debt: Cannot transfer tokens directly to the Debt token contract or the zero address\"\n        );\n        // NOTE: it is not allowing transfers to the SatoshiXApp or TroveManager contracts, if needed, only use sendToXApp or returnFromPool functions\n        require(\n            _recipient != satoshiXApp && !troveManager[ITroveManager(_recipient)],\n            \"Debt: Cannot transfer tokens directly to the SatoshiXApp or TroveManager\"\n        );\n    }\n}\n",
  "sourcePath": "/Users/ashley/Documents/satoshi/satoshi-v2/src/core/DebtTokenWithLz.sol",
  "compiler": {
    "name": "solc",
    "version": "0.8.22+commit.5ed3e10f.Emscripten.clang"
  },
  "schemaVersion": "2.0.1",
  "updatedAt": "2026-04-14T07:11:27.722Z"
}