{
  "contractName": "DebtToken",
  "abi": [
    {
      "inputs": [],
      "stateMutability": "nonpayable",
      "type": "constructor"
    },
    {
      "inputs": [
        {
          "internalType": "address",
          "name": "target",
          "type": "address"
        }
      ],
      "name": "AddressEmptyCode",
      "type": "error"
    },
    {
      "inputs": [],
      "name": "ECDSAInvalidSignature",
      "type": "error"
    },
    {
      "inputs": [
        {
          "internalType": "uint256",
          "name": "length",
          "type": "uint256"
        }
      ],
      "name": "ECDSAInvalidSignatureLength",
      "type": "error"
    },
    {
      "inputs": [
        {
          "internalType": "bytes32",
          "name": "s",
          "type": "bytes32"
        }
      ],
      "name": "ECDSAInvalidSignatureS",
      "type": "error"
    },
    {
      "inputs": [
        {
          "internalType": "address",
          "name": "implementation",
          "type": "address"
        }
      ],
      "name": "ERC1967InvalidImplementation",
      "type": "error"
    },
    {
      "inputs": [],
      "name": "ERC1967NonPayable",
      "type": "error"
    },
    {
      "inputs": [
        {
          "internalType": "address",
          "name": "spender",
          "type": "address"
        },
        {
          "internalType": "uint256",
          "name": "allowance",
          "type": "uint256"
        },
        {
          "internalType": "uint256",
          "name": "needed",
          "type": "uint256"
        }
      ],
      "name": "ERC20InsufficientAllowance",
      "type": "error"
    },
    {
      "inputs": [
        {
          "internalType": "address",
          "name": "sender",
          "type": "address"
        },
        {
          "internalType": "uint256",
          "name": "balance",
          "type": "uint256"
        },
        {
          "internalType": "uint256",
          "name": "needed",
          "type": "uint256"
        }
      ],
      "name": "ERC20InsufficientBalance",
      "type": "error"
    },
    {
      "inputs": [
        {
          "internalType": "address",
          "name": "approver",
          "type": "address"
        }
      ],
      "name": "ERC20InvalidApprover",
      "type": "error"
    },
    {
      "inputs": [
        {
          "internalType": "address",
          "name": "receiver",
          "type": "address"
        }
      ],
      "name": "ERC20InvalidReceiver",
      "type": "error"
    },
    {
      "inputs": [
        {
          "internalType": "address",
          "name": "sender",
          "type": "address"
        }
      ],
      "name": "ERC20InvalidSender",
      "type": "error"
    },
    {
      "inputs": [
        {
          "internalType": "address",
          "name": "spender",
          "type": "address"
        }
      ],
      "name": "ERC20InvalidSpender",
      "type": "error"
    },
    {
      "inputs": [
        {
          "internalType": "uint256",
          "name": "deadline",
          "type": "uint256"
        }
      ],
      "name": "ERC2612ExpiredSignature",
      "type": "error"
    },
    {
      "inputs": [
        {
          "internalType": "address",
          "name": "signer",
          "type": "address"
        },
        {
          "internalType": "address",
          "name": "owner",
          "type": "address"
        }
      ],
      "name": "ERC2612InvalidSigner",
      "type": "error"
    },
    {
      "inputs": [],
      "name": "FailedCall",
      "type": "error"
    },
    {
      "inputs": [
        {
          "internalType": "address",
          "name": "account",
          "type": "address"
        },
        {
          "internalType": "uint256",
          "name": "currentNonce",
          "type": "uint256"
        }
      ],
      "name": "InvalidAccountNonce",
      "type": "error"
    },
    {
      "inputs": [],
      "name": "InvalidInitialization",
      "type": "error"
    },
    {
      "inputs": [],
      "name": "NotInitializing",
      "type": "error"
    },
    {
      "inputs": [
        {
          "internalType": "address",
          "name": "owner",
          "type": "address"
        }
      ],
      "name": "OwnableInvalidOwner",
      "type": "error"
    },
    {
      "inputs": [
        {
          "internalType": "address",
          "name": "account",
          "type": "address"
        }
      ],
      "name": "OwnableUnauthorizedAccount",
      "type": "error"
    },
    {
      "inputs": [],
      "name": "UUPSUnauthorizedCallContext",
      "type": "error"
    },
    {
      "inputs": [
        {
          "internalType": "bytes32",
          "name": "slot",
          "type": "bytes32"
        }
      ],
      "name": "UUPSUnsupportedProxiableUUID",
      "type": "error"
    },
    {
      "inputs": [],
      "name": "ZeroAddress",
      "type": "error"
    },
    {
      "inputs": [],
      "name": "ZeroValue",
      "type": "error"
    },
    {
      "anonymous": false,
      "inputs": [
        {
          "indexed": true,
          "internalType": "address",
          "name": "owner",
          "type": "address"
        },
        {
          "indexed": true,
          "internalType": "address",
          "name": "spender",
          "type": "address"
        },
        {
          "indexed": false,
          "internalType": "uint256",
          "name": "value",
          "type": "uint256"
        }
      ],
      "name": "Approval",
      "type": "event"
    },
    {
      "anonymous": false,
      "inputs": [],
      "name": "EIP712DomainChanged",
      "type": "event"
    },
    {
      "anonymous": false,
      "inputs": [
        {
          "indexed": false,
          "internalType": "uint64",
          "name": "version",
          "type": "uint64"
        }
      ],
      "name": "Initialized",
      "type": "event"
    },
    {
      "anonymous": false,
      "inputs": [
        {
          "indexed": true,
          "internalType": "address",
          "name": "previousOwner",
          "type": "address"
        },
        {
          "indexed": true,
          "internalType": "address",
          "name": "newOwner",
          "type": "address"
        }
      ],
      "name": "OwnershipTransferred",
      "type": "event"
    },
    {
      "anonymous": false,
      "inputs": [
        {
          "indexed": true,
          "internalType": "address",
          "name": "from",
          "type": "address"
        },
        {
          "indexed": true,
          "internalType": "address",
          "name": "to",
          "type": "address"
        },
        {
          "indexed": false,
          "internalType": "uint256",
          "name": "value",
          "type": "uint256"
        }
      ],
      "name": "Transfer",
      "type": "event"
    },
    {
      "anonymous": false,
      "inputs": [
        {
          "indexed": true,
          "internalType": "address",
          "name": "implementation",
          "type": "address"
        }
      ],
      "name": "Upgraded",
      "type": "event"
    },
    {
      "inputs": [],
      "name": "DEBT_GAS_COMPENSATION",
      "outputs": [
        {
          "internalType": "uint256",
          "name": "",
          "type": "uint256"
        }
      ],
      "stateMutability": "view",
      "type": "function"
    },
    {
      "inputs": [],
      "name": "DOMAIN_SEPARATOR",
      "outputs": [
        {
          "internalType": "bytes32",
          "name": "",
          "type": "bytes32"
        }
      ],
      "stateMutability": "view",
      "type": "function"
    },
    {
      "inputs": [],
      "name": "FLASH_LOAN_FEE",
      "outputs": [
        {
          "internalType": "uint256",
          "name": "",
          "type": "uint256"
        }
      ],
      "stateMutability": "view",
      "type": "function"
    },
    {
      "inputs": [],
      "name": "UPGRADE_INTERFACE_VERSION",
      "outputs": [
        {
          "internalType": "string",
          "name": "",
          "type": "string"
        }
      ],
      "stateMutability": "view",
      "type": "function"
    },
    {
      "inputs": [
        {
          "internalType": "address",
          "name": "owner",
          "type": "address"
        },
        {
          "internalType": "address",
          "name": "spender",
          "type": "address"
        }
      ],
      "name": "allowance",
      "outputs": [
        {
          "internalType": "uint256",
          "name": "",
          "type": "uint256"
        }
      ],
      "stateMutability": "view",
      "type": "function"
    },
    {
      "inputs": [
        {
          "internalType": "address",
          "name": "spender",
          "type": "address"
        },
        {
          "internalType": "uint256",
          "name": "value",
          "type": "uint256"
        }
      ],
      "name": "approve",
      "outputs": [
        {
          "internalType": "bool",
          "name": "",
          "type": "bool"
        }
      ],
      "stateMutability": "nonpayable",
      "type": "function"
    },
    {
      "inputs": [
        {
          "internalType": "address",
          "name": "account",
          "type": "address"
        }
      ],
      "name": "balanceOf",
      "outputs": [
        {
          "internalType": "uint256",
          "name": "",
          "type": "uint256"
        }
      ],
      "stateMutability": "view",
      "type": "function"
    },
    {
      "inputs": [
        {
          "internalType": "address",
          "name": "_account",
          "type": "address"
        },
        {
          "internalType": "uint256",
          "name": "_amount",
          "type": "uint256"
        }
      ],
      "name": "burn",
      "outputs": [],
      "stateMutability": "nonpayable",
      "type": "function"
    },
    {
      "inputs": [
        {
          "internalType": "address",
          "name": "_account",
          "type": "address"
        },
        {
          "internalType": "uint256",
          "name": "_amount",
          "type": "uint256"
        }
      ],
      "name": "burnWithGasCompensation",
      "outputs": [],
      "stateMutability": "nonpayable",
      "type": "function"
    },
    {
      "inputs": [],
      "name": "decimals",
      "outputs": [
        {
          "internalType": "uint8",
          "name": "",
          "type": "uint8"
        }
      ],
      "stateMutability": "view",
      "type": "function"
    },
    {
      "inputs": [
        {
          "internalType": "address",
          "name": "usr",
          "type": "address"
        }
      ],
      "name": "deny",
      "outputs": [],
      "stateMutability": "nonpayable",
      "type": "function"
    },
    {
      "inputs": [],
      "name": "eip712Domain",
      "outputs": [
        {
          "internalType": "bytes1",
          "name": "fields",
          "type": "bytes1"
        },
        {
          "internalType": "string",
          "name": "name",
          "type": "string"
        },
        {
          "internalType": "string",
          "name": "version",
          "type": "string"
        },
        {
          "internalType": "uint256",
          "name": "chainId",
          "type": "uint256"
        },
        {
          "internalType": "address",
          "name": "verifyingContract",
          "type": "address"
        },
        {
          "internalType": "bytes32",
          "name": "salt",
          "type": "bytes32"
        },
        {
          "internalType": "uint256[]",
          "name": "extensions",
          "type": "uint256[]"
        }
      ],
      "stateMutability": "view",
      "type": "function"
    },
    {
      "inputs": [
        {
          "internalType": "contract ITroveManager",
          "name": "_troveManager",
          "type": "address"
        }
      ],
      "name": "enableTroveManager",
      "outputs": [],
      "stateMutability": "nonpayable",
      "type": "function"
    },
    {
      "inputs": [
        {
          "internalType": "address",
          "name": "token",
          "type": "address"
        },
        {
          "internalType": "uint256",
          "name": "amount",
          "type": "uint256"
        }
      ],
      "name": "flashFee",
      "outputs": [
        {
          "internalType": "uint256",
          "name": "",
          "type": "uint256"
        }
      ],
      "stateMutability": "view",
      "type": "function"
    },
    {
      "inputs": [
        {
          "internalType": "contract IERC3156FlashBorrower",
          "name": "receiver",
          "type": "address"
        },
        {
          "internalType": "address",
          "name": "token",
          "type": "address"
        },
        {
          "internalType": "uint256",
          "name": "amount",
          "type": "uint256"
        },
        {
          "internalType": "bytes",
          "name": "data",
          "type": "bytes"
        }
      ],
      "name": "flashLoan",
      "outputs": [
        {
          "internalType": "bool",
          "name": "",
          "type": "bool"
        }
      ],
      "stateMutability": "nonpayable",
      "type": "function"
    },
    {
      "inputs": [],
      "name": "gasPool",
      "outputs": [
        {
          "internalType": "address",
          "name": "",
          "type": "address"
        }
      ],
      "stateMutability": "view",
      "type": "function"
    },
    {
      "inputs": [
        {
          "internalType": "string",
          "name": "_name",
          "type": "string"
        },
        {
          "internalType": "string",
          "name": "_symbol",
          "type": "string"
        },
        {
          "internalType": "address",
          "name": "_gasPool",
          "type": "address"
        },
        {
          "internalType": "address",
          "name": "_satoshiXApp",
          "type": "address"
        },
        {
          "internalType": "address",
          "name": "_owner",
          "type": "address"
        },
        {
          "internalType": "uint256",
          "name": "debtGasCompensation_",
          "type": "uint256"
        }
      ],
      "name": "initialize",
      "outputs": [],
      "stateMutability": "nonpayable",
      "type": "function"
    },
    {
      "inputs": [
        {
          "internalType": "address",
          "name": "token",
          "type": "address"
        }
      ],
      "name": "maxFlashLoan",
      "outputs": [
        {
          "internalType": "uint256",
          "name": "",
          "type": "uint256"
        }
      ],
      "stateMutability": "view",
      "type": "function"
    },
    {
      "inputs": [
        {
          "internalType": "address",
          "name": "_account",
          "type": "address"
        },
        {
          "internalType": "uint256",
          "name": "_amount",
          "type": "uint256"
        }
      ],
      "name": "mint",
      "outputs": [],
      "stateMutability": "nonpayable",
      "type": "function"
    },
    {
      "inputs": [
        {
          "internalType": "address",
          "name": "_account",
          "type": "address"
        },
        {
          "internalType": "uint256",
          "name": "_amount",
          "type": "uint256"
        }
      ],
      "name": "mintWithGasCompensation",
      "outputs": [],
      "stateMutability": "nonpayable",
      "type": "function"
    },
    {
      "inputs": [],
      "name": "name",
      "outputs": [
        {
          "internalType": "string",
          "name": "",
          "type": "string"
        }
      ],
      "stateMutability": "view",
      "type": "function"
    },
    {
      "inputs": [
        {
          "internalType": "address",
          "name": "owner",
          "type": "address"
        }
      ],
      "name": "nonces",
      "outputs": [
        {
          "internalType": "uint256",
          "name": "",
          "type": "uint256"
        }
      ],
      "stateMutability": "view",
      "type": "function"
    },
    {
      "inputs": [],
      "name": "owner",
      "outputs": [
        {
          "internalType": "address",
          "name": "",
          "type": "address"
        }
      ],
      "stateMutability": "view",
      "type": "function"
    },
    {
      "inputs": [
        {
          "internalType": "address",
          "name": "owner",
          "type": "address"
        },
        {
          "internalType": "address",
          "name": "spender",
          "type": "address"
        },
        {
          "internalType": "uint256",
          "name": "value",
          "type": "uint256"
        },
        {
          "internalType": "uint256",
          "name": "deadline",
          "type": "uint256"
        },
        {
          "internalType": "uint8",
          "name": "v",
          "type": "uint8"
        },
        {
          "internalType": "bytes32",
          "name": "r",
          "type": "bytes32"
        },
        {
          "internalType": "bytes32",
          "name": "s",
          "type": "bytes32"
        }
      ],
      "name": "permit",
      "outputs": [],
      "stateMutability": "nonpayable",
      "type": "function"
    },
    {
      "inputs": [],
      "name": "proxiableUUID",
      "outputs": [
        {
          "internalType": "bytes32",
          "name": "",
          "type": "bytes32"
        }
      ],
      "stateMutability": "view",
      "type": "function"
    },
    {
      "inputs": [
        {
          "internalType": "address",
          "name": "usr",
          "type": "address"
        }
      ],
      "name": "rely",
      "outputs": [],
      "stateMutability": "nonpayable",
      "type": "function"
    },
    {
      "inputs": [],
      "name": "renounceOwnership",
      "outputs": [],
      "stateMutability": "nonpayable",
      "type": "function"
    },
    {
      "inputs": [
        {
          "internalType": "address",
          "name": "_poolAddress",
          "type": "address"
        },
        {
          "internalType": "address",
          "name": "_receiver",
          "type": "address"
        },
        {
          "internalType": "uint256",
          "name": "_amount",
          "type": "uint256"
        }
      ],
      "name": "returnFromPool",
      "outputs": [],
      "stateMutability": "nonpayable",
      "type": "function"
    },
    {
      "inputs": [],
      "name": "satoshiXApp",
      "outputs": [
        {
          "internalType": "address",
          "name": "",
          "type": "address"
        }
      ],
      "stateMutability": "view",
      "type": "function"
    },
    {
      "inputs": [
        {
          "internalType": "address",
          "name": "_sender",
          "type": "address"
        },
        {
          "internalType": "uint256",
          "name": "_amount",
          "type": "uint256"
        }
      ],
      "name": "sendToXApp",
      "outputs": [],
      "stateMutability": "nonpayable",
      "type": "function"
    },
    {
      "inputs": [],
      "name": "symbol",
      "outputs": [
        {
          "internalType": "string",
          "name": "",
          "type": "string"
        }
      ],
      "stateMutability": "view",
      "type": "function"
    },
    {
      "inputs": [],
      "name": "totalSupply",
      "outputs": [
        {
          "internalType": "uint256",
          "name": "",
          "type": "uint256"
        }
      ],
      "stateMutability": "view",
      "type": "function"
    },
    {
      "inputs": [
        {
          "internalType": "address",
          "name": "recipient",
          "type": "address"
        },
        {
          "internalType": "uint256",
          "name": "amount",
          "type": "uint256"
        }
      ],
      "name": "transfer",
      "outputs": [
        {
          "internalType": "bool",
          "name": "",
          "type": "bool"
        }
      ],
      "stateMutability": "nonpayable",
      "type": "function"
    },
    {
      "inputs": [
        {
          "internalType": "address",
          "name": "sender",
          "type": "address"
        },
        {
          "internalType": "address",
          "name": "recipient",
          "type": "address"
        },
        {
          "internalType": "uint256",
          "name": "amount",
          "type": "uint256"
        }
      ],
      "name": "transferFrom",
      "outputs": [
        {
          "internalType": "bool",
          "name": "",
          "type": "bool"
        }
      ],
      "stateMutability": "nonpayable",
      "type": "function"
    },
    {
      "inputs": [
        {
          "internalType": "address",
          "name": "newOwner",
          "type": "address"
        }
      ],
      "name": "transferOwnership",
      "outputs": [],
      "stateMutability": "nonpayable",
      "type": "function"
    },
    {
      "inputs": [
        {
          "internalType": "contract ITroveManager",
          "name": "",
          "type": "address"
        }
      ],
      "name": "troveManager",
      "outputs": [
        {
          "internalType": "bool",
          "name": "",
          "type": "bool"
        }
      ],
      "stateMutability": "view",
      "type": "function"
    },
    {
      "inputs": [
        {
          "internalType": "address",
          "name": "newImplementation",
          "type": "address"
        },
        {
          "internalType": "bytes",
          "name": "data",
          "type": "bytes"
        }
      ],
      "name": "upgradeToAndCall",
      "outputs": [],
      "stateMutability": "payable",
      "type": "function"
    },
    {
      "inputs": [
        {
          "internalType": "address",
          "name": "",
          "type": "address"
        }
      ],
      "name": "wards",
      "outputs": [
        {
          "internalType": "bool",
          "name": "",
          "type": "bool"
        }
      ],
      "stateMutability": "view",
      "type": "function"
    }
  ],
  "bytecode": "0x60a0604052306080523480156200001557600080fd5b50d380156200002357600080fd5b50d280156200003157600080fd5b506200003c62000042565b620000f6565b7ff0c57e16840df040f15088dc2f81fe391c3923bec73e23a9662efc9c229c6a00805468010000000000000000900460ff1615620000935760405163f92ee8a960e01b815260040160405180910390fd5b80546001600160401b0390811614620000f35780546001600160401b0319166001600160401b0390811782556040519081527fc7f505b2f371ae2175ee4913f4499e1f2633a7b5936321eed1cdaeb6115181d29060200160405180910390a15b50565b608051612e9062000120600039600081816119d3015281816119fc0152611b3d0152612e906000f3fe6080604052600436106102255760003560e01c806384b0196e11610123578063a9059cbb116100ab578063d9d98ce41161006f578063d9d98ce4146109dc578063dd62ed3e14610a16578063edf3e29e14610a50578063f2fde38b14610a8a578063fa08b03814610ac457600080fd5b8063a9059cbb14610899578063ad3cb1cc146108d3578063b76b0c081461091e578063bf353dbb14610958578063d505accf146109a257600080fd5b80638ffaacaa116100f25780638ffaacaa1461077d57806395d89b41146107ac5780639c52a7f1146107db5780639dc29fac14610815578063a49d39931461084f57600080fd5b806384b0196e1461065c578063851775091461069e5780638cff5fbe146106d85780638da5cb5b1461071257600080fd5b806340c10f19116101b1578063613255ab11610175578063613255ab1461054557806365fae35e1461057f57806370a08231146105b9578063715018a6146105f35780637ecebe001461062257600080fd5b806340c10f19146104605780634ba4a28b1461049a5780634f1ef286146104c957806352d1902d146104dc5780635cffe9de1461050b57600080fd5b806318160ddd116101f857806318160ddd1461032f57806320c582be1461038757806323b872dd146103c1578063313ce567146103fb5780633644e5151461043157600080fd5b806306fdde031461022a578063095ea7b31461026f578063136db03a146102b957806317dd676d146102f5575b600080fd5b34801561023657600080fd5b50d3801561024357600080fd5b50d2801561025057600080fd5b50610259610afe565b604051610266919061267d565b60405180910390f35b34801561027b57600080fd5b50d3801561028857600080fd5b50d2801561029557600080fd5b506102a96102a43660046126a5565b610ba7565b6040519015158152602001610266565b3480156102c557600080fd5b50d380156102d257600080fd5b50d280156102df57600080fd5b506102f36102ee3660046126a5565b610bc1565b005b34801561030157600080fd5b50d3801561030e57600080fd5b50d2801561031b57600080fd5b506102f361032a3660046126da565b610c2f565b34801561033b57600080fd5b50d3801561034857600080fd5b50d2801561035557600080fd5b507f52c63247e1f47db19d5ce0460030c497f067ca4cebf71ba98eeadabe20bace02545b604051908152602001610266565b34801561039357600080fd5b50d380156103a057600080fd5b50d280156103ad57600080fd5b506102f36103bc366004612707565b610c7d565b3480156103cd57600080fd5b50d380156103da57600080fd5b50d280156103e757600080fd5b506102a96103f6366004612707565b610d01565b34801561040757600080fd5b50d3801561041457600080fd5b50d2801561042157600080fd5b5060405160128152602001610266565b34801561043d57600080fd5b50d3801561044a57600080fd5b50d2801561045757600080fd5b50610379610d21565b34801561046c57600080fd5b50d3801561047957600080fd5b50d2801561048657600080fd5b506102f36104953660046126a5565b610d30565b3480156104a657600080fd5b50d380156104b357600080fd5b50d280156104c057600080fd5b50600254610379565b6102f36104d73660046127e1565b610dd4565b3480156104e857600080fd5b50d380156104f557600080fd5b50d2801561050257600080fd5b50610379610def565b34801561051757600080fd5b50d3801561052457600080fd5b50d2801561053157600080fd5b506102a961054036600461284e565b610e0c565b34801561055157600080fd5b50d3801561055e57600080fd5b50d2801561056b57600080fd5b5061037961057a3660046126da565b6110e9565b34801561058b57600080fd5b50d3801561059857600080fd5b50d280156105a557600080fd5b506102f36105b43660046126da565b611130565b3480156105c557600080fd5b50d380156105d257600080fd5b50d280156105df57600080fd5b506103796105ee3660046126da565b61115c565b3480156105ff57600080fd5b50d3801561060c57600080fd5b50d2801561061957600080fd5b506102f361118f565b34801561062e57600080fd5b50d3801561063b57600080fd5b50d2801561064857600080fd5b506103796106573660046126da565b6111a3565b34801561066857600080fd5b50d3801561067557600080fd5b50d2801561068257600080fd5b5061068b6111ae565b60405161026697969594939291906128fa565b3480156106aa57600080fd5b50d380156106b757600080fd5b50d280156106c457600080fd5b506102f36106d33660046126a5565b61125a565b3480156106e457600080fd5b50d380156106f157600080fd5b50d280156106fe57600080fd5b506102f361070d3660046126a5565b6112a7565b34801561071e57600080fd5b50d3801561072b57600080fd5b50d2801561073857600080fd5b507f9016d09d72d40fdae2fd8ceac6b6234c7706214fd39c1cd1e609a0528c199300546001600160a01b03165b6040516001600160a01b039091168152602001610266565b34801561078957600080fd5b50d3801561079657600080fd5b50d280156107a357600080fd5b50610379600981565b3480156107b857600080fd5b50d380156107c557600080fd5b50d280156107d257600080fd5b506102596112f4565b3480156107e757600080fd5b50d380156107f457600080fd5b50d2801561080157600080fd5b506102f36108103660046126da565b611333565b34801561082157600080fd5b50d3801561082e57600080fd5b50d2801561083b57600080fd5b506102f361084a3660046126a5565b61135c565b34801561085b57600080fd5b50d3801561086857600080fd5b50d2801561087557600080fd5b506102a96108843660046126da565b60036020526000908152604090205460ff1681565b3480156108a557600080fd5b50d380156108b257600080fd5b50d280156108bf57600080fd5b506102a96108ce3660046126a5565b6113ed565b3480156108df57600080fd5b50d380156108ec57600080fd5b50d280156108f957600080fd5b50610259604051806040016040528060058152602001640352e302e360dc1b81525081565b34801561092a57600080fd5b50d3801561093757600080fd5b50d2801561094457600080fd5b50600154610765906001600160a01b031681565b34801561096457600080fd5b50d3801561097157600080fd5b50d2801561097e57600080fd5b506102a961098d3660046126da565b60046020526000908152604090205460ff1681565b3480156109ae57600080fd5b50d380156109bb57600080fd5b50d280156109c857600080fd5b506102f36109d7366004612993565b611402565b3480156109e857600080fd5b50d380156109f557600080fd5b50d28015610a0257600080fd5b50610379610a113660046126a5565b61155b565b348015610a2257600080fd5b50d38015610a2f57600080fd5b50d28015610a3c57600080fd5b50610379610a4b366004612a17565b61157d565b348015610a5c57600080fd5b50d38015610a6957600080fd5b50d28015610a7657600080fd5b506102f3610a85366004612a7d565b6115c7565b348015610a9657600080fd5b50d38015610aa357600080fd5b50d28015610ab057600080fd5b506102f3610abf3660046126da565b611750565b348015610ad057600080fd5b50d38015610add57600080fd5b50d28015610aea57600080fd5b50600054610765906001600160a01b031681565b60606000600080516020612dfb8339815191525b9050806003018054610b2390612b36565b80601f0160208091040260200160405190810160405280929190818152602001828054610b4f90612b36565b8015610b9c5780601f10610b7157610100808354040283529160200191610b9c565b820191906000526020600020905b815481529060010190602001808311610b7f57829003601f168201915b505050505091505090565b600033610bb581858561178e565b60019150505b92915050565b6001546001600160a01b03163314610c205760405162461bcd60e51b815260206004820152601c60248201527f446562743a2043616c6c6572206e6f74205361746f736869586170700000000060448201526064015b60405180910390fd5b610c2b82338361179b565b5050565b6001546001600160a01b03163314610c595760405162461bcd60e51b8152600401610c1790612b70565b6001600160a01b03166000908152600360205260409020805460ff19166001179055565b6001546001600160a01b0316331480610ca557503360009081526003602052604090205460ff165b610cf15760405162461bcd60e51b815260206004820152601f60248201527f446562743a2043616c6c6572206e6f7420544d2f5361746f73686958617070006044820152606401610c17565b610cfc83838361179b565b505050565b6000610d0c836117fa565b610d17848484611964565b90505b9392505050565b6000610d2b611988565b905090565b6001546001600160a01b0316331480610d5857503360009081526003602052604090205460ff165b80610d7257503360009081526004602052604090205460ff165b610dca5760405162461bcd60e51b8152602060048201526024808201527f446562743a2043616c6c6572206e6f74205361746f736869586170702f544d2f6044820152630c2eae8d60e31b6064820152608401610c17565b610c2b8282611992565b610ddc6119c8565b610de582611a6d565b610c2b8282611a75565b6000610df9611b32565b50600080516020612e3b83398151915290565b60006001600160a01b0385163014610e665760405162461bcd60e51b815260206004820152601b60248201527f4552433230466c6173684d696e743a2077726f6e6720746f6b656e00000000006044820152606401610c17565b610e6f856110e9565b841115610ed25760405162461bcd60e51b815260206004820152602b60248201527f4552433230466c6173684d696e743a20616d6f756e742065786365656473206d60448201526a30bc233630b9b42637b0b760a91b6064820152608401610c17565b6000610edd85611b7b565b9050610ee98786611992565b6040516323e30c8b60e01b81527f439148f0bbc682ca079e46d6e2c2f0c1e3b820f1a291b069d8882abf8cf18dd9906001600160a01b038916906323e30c8b90610f419033908b908b9088908c908c90600401612bb1565b6020604051808303816000875af1158015610f60573d6000803e3d6000fd5b505050506040513d601f19601f82011682018060405250810190610f849190612c0d565b14610fdd5760405162461bcd60e51b8152602060048201526024808201527f4552433230466c6173684d696e743a20696e76616c69642072657475726e2076604482015263616c756560e01b6064820152608401610c17565b610ff18730610fec8489612c3c565b611b95565b610ffb8786611bfc565b600154604080516307a77c5360e11b815290516000926001600160a01b031691630f4ef8a69160048083019260209291908290030181865afa158015611045573d6000803e3d6000fd5b505050506040513d601f19601f820116820180604052508101906110699190612c4f565b905061107688308461179b565b61108130828461178e565b60405163d053316f60e01b8152600481018390526001600160a01b0382169063d053316f90602401600060405180830381600087803b1580156110c357600080fd5b505af11580156110d7573d6000803e3d6000fd5b5060019b9a5050505050505050505050565b60006001600160a01b0382163014611102576000610bbb565b7f52c63247e1f47db19d5ce0460030c497f067ca4cebf71ba98eeadabe20bace0254610bbb90600019612c6c565b611138611c32565b6001600160a01b03166000908152600460205260409020805460ff19166001179055565b600080600080516020612dfb8339815191525b6001600160a01b0390931660009081526020939093525050604090205490565b611197611c32565b6111a16000611c8d565b565b6000610bbb82611cfe565b60006060808280808381600080516020612e1b83398151915280549091501580156111db57506001810154155b61121f5760405162461bcd60e51b81526020600482015260156024820152741152540dcc4c8e88155b9a5b9a5d1a585b1a5e9959605a1b6044820152606401610c17565b611227611d27565b61122f611d66565b60408051600080825260208201909252600f60f81b9c939b5091995046985030975095509350915050565b6001546001600160a01b031633146112845760405162461bcd60e51b8152600401610c1790612b70565b61128e8282611bfc565b600054600254610c2b916001600160a01b031690611bfc565b6001546001600160a01b031633146112d15760405162461bcd60e51b8152600401610c1790612b70565b6112db8282611992565b600054600254610c2b916001600160a01b031690611992565b7f52c63247e1f47db19d5ce0460030c497f067ca4cebf71ba98eeadabe20bace048054606091600080516020612dfb83398151915291610b2390612b36565b61133b611c32565b6001600160a01b03166000908152600460205260409020805460ff19169055565b3360009081526003602052604090205460ff168061138957503360009081526004602052604090205460ff165b6113e35760405162461bcd60e51b815260206004820152602560248201527f446562743a2043616c6c6572206e6f742054726f76654d616e61676572206f72604482015264040c2eae8d60db1b6064820152608401610c17565b610c2b8282611bfc565b60006113f8836117fa565b610d1a8383611d7e565b834211156114265760405163313c898160e11b815260048101859052602401610c17565b60007f6e71edae12b1b97f4d1f60370fef10105fa2faae0126114a169c64845d6126c98888886114928c6001600160a01b031660009081527f5ab42ced628888259c08ac98db1eb0cf702fc1501344311d8b100cd1bfe4bb006020526040902080546001810190915590565b6040805160208101969096526001600160a01b0394851690860152929091166060840152608083015260a082015260c0810186905260e00160405160208183030381529060405280519060200120905060006114ed82611d8c565b905060006114fd82878787611db9565b9050896001600160a01b0316816001600160a01b031614611544576040516325c0072360e11b81526001600160a01b0380831660048301528b166024820152604401610c17565b61154f8a8a8a61178e565b50505050505050505050565b60006001600160a01b0383163014611574576000610d1a565b610d1a82611b7b565b6001600160a01b0391821660009081527f52c63247e1f47db19d5ce0460030c497f067ca4cebf71ba98eeadabe20bace016020908152604080832093909416825291909152205490565b7ff0c57e16840df040f15088dc2f81fe391c3923bec73e23a9662efc9c229c6a008054600160401b810460ff16159067ffffffffffffffff1660008115801561160d5750825b905060008267ffffffffffffffff16600114801561162a5750303b155b905081158015611638575080155b156116565760405163f92ee8a960e01b815260040160405180910390fd5b845467ffffffffffffffff19166001178555831561168057845460ff60401b1916600160401b1785555b61168988611de7565b61169287611de7565b61169b89611de7565b6116a486611e0e565b6116ac611e2f565b6116b58b611e37565b6116bf8b8b611e62565b6116c887611e74565b600080546001600160a01b03808c166001600160a01b03199283161790925560018054928b16929091169190911790556002869055831561174357845460ff60401b19168555604051600181527fc7f505b2f371ae2175ee4913f4499e1f2633a7b5936321eed1cdaeb6115181d29060200160405180910390a15b5050505050505050505050565b611758611c32565b6001600160a01b03811661178257604051631e4fbdf760e01b815260006004820152602401610c17565b61178b81611c8d565b50565b610cfc8383836001611e85565b6001600160a01b0383166117c557604051634b637e8f60e11b815260006004820152602401610c17565b6001600160a01b0382166117ef5760405163ec442f0560e01b815260006004820152602401610c17565b610cfc838383611f6d565b6001600160a01b0381161580159061181b57506001600160a01b0381163014155b6118aa5760405162461bcd60e51b815260206004820152605460248201527f446562743a2043616e6e6f74207472616e7366657220746f6b656e732064697260448201527f6563746c7920746f20746865204465627420746f6b656e20636f6e7472616374606482015273206f7220746865207a65726f206164647265737360601b608482015260a401610c17565b6001546001600160a01b038281169116148015906118e157506001600160a01b03811660009081526003602052604090205460ff16155b61178b5760405162461bcd60e51b815260206004820152604860248201527f446562743a2043616e6e6f74207472616e7366657220746f6b656e732064697260448201527f6563746c7920746f20746865205361746f73686958417070206f722054726f7660648201526732a6b0b730b3b2b960c11b608482015260a401610c17565b600033611972858285611b95565b61197d85858561179b565b506001949350505050565b6000610d2b6120ab565b6001600160a01b0382166119bc5760405163ec442f0560e01b815260006004820152602401610c17565b610c2b60008383611f6d565b306001600160a01b037f0000000000000000000000000000000000000000000000000000000000000000161480611a4f57507f00000000000000000000000000000000000000000000000000000000000000006001600160a01b0316611a43600080516020612e3b833981519152546001600160a01b031690565b6001600160a01b031614155b156111a15760405163703e46dd60e11b815260040160405180910390fd5b61178b611c32565b816001600160a01b03166352d1902d6040518163ffffffff1660e01b8152600401602060405180830381865afa925050508015611acf575060408051601f3d908101601f19168201909252611acc91810190612c0d565b60015b611af757604051634c9c8ce360e01b81526001600160a01b0383166004820152602401610c17565b600080516020612e3b8339815191528114611b2857604051632a87526960e21b815260048101829052602401610c17565b610cfc838361211f565b306001600160a01b037f000000000000000000000000000000000000000000000000000000000000000016146111a15760405163703e46dd60e11b815260040160405180910390fd5b6000612710611b8b600984612c7f565b610bbb9190612c96565b6000611ba1848461157d565b9050600019811015611bf65781811015611be757604051637dc7a0d960e11b81526001600160a01b03841660048201526024810182905260448101839052606401610c17565b611bf684848484036000611e85565b50505050565b6001600160a01b038216611c2657604051634b637e8f60e11b815260006004820152602401610c17565b610c2b82600083611f6d565b33611c647f9016d09d72d40fdae2fd8ceac6b6234c7706214fd39c1cd1e609a0528c199300546001600160a01b031690565b6001600160a01b0316146111a15760405163118cdaa760e01b8152336004820152602401610c17565b7f9016d09d72d40fdae2fd8ceac6b6234c7706214fd39c1cd1e609a0528c19930080546001600160a01b031981166001600160a01b03848116918217845560405192169182907f8be0079c531659141344cd1fd0a4f28419497f9722a3daafe3b4186f6b6457e090600090a3505050565b6000807f5ab42ced628888259c08ac98db1eb0cf702fc1501344311d8b100cd1bfe4bb0061116f565b7fa16a46d94261c7517cc8ff89f61c0ce93598e3c849801011dee649a6a557d1028054606091600080516020612e1b83398151915291610b2390612b36565b60606000600080516020612e1b833981519152610b12565b600033610bb581858561179b565b6000610bbb611d99611988565b8360405161190160f01b8152600281019290925260228201526042902090565b600080600080611dcb88888888612175565b925092509250611ddb8282612244565b50909695505050505050565b6001600160a01b03811661178b5760405163d92e233d60e01b815260040160405180910390fd5b8060000361178b57604051637c946ed760e01b815260040160405180910390fd5b6111a16122fd565b611e3f6122fd565b61178b81604051806040016040528060018152602001603160f81b815250612346565b611e6a6122fd565b610c2b82826123a7565b611e7c6122fd565b61178b816123f8565b600080516020612dfb8339815191526001600160a01b038516611ebe5760405163e602df0560e01b815260006004820152602401610c17565b6001600160a01b038416611ee857604051634a1406b160e11b815260006004820152602401610c17565b6001600160a01b03808616600090815260018301602090815260408083209388168352929052208390558115611f6657836001600160a01b0316856001600160a01b03167f8c5be1e5ebec7d5bd14f71427d1e84f3dd0314c0f7b2291e5b200ac8c7c3b92585604051611f5d91815260200190565b60405180910390a35b5050505050565b600080516020612dfb8339815191526001600160a01b038416611fa95781816002016000828254611f9e9190612c3c565b9091555061201b9050565b6001600160a01b03841660009081526020829052604090205482811015611ffc5760405163391434e360e21b81526001600160a01b03861660048201526024810182905260448101849052606401610c17565b6001600160a01b03851660009081526020839052604090209083900390555b6001600160a01b038316612039576002810180548390039055612058565b6001600160a01b03831660009081526020829052604090208054830190555b826001600160a01b0316846001600160a01b03167fddf252ad1be2c89b69c2b068fc378daa952ba7f163c4a11628f55a4df523b3ef8460405161209d91815260200190565b60405180910390a350505050565b60007f8b73c3c69bb8fe3d512ecc4cf759cc79239f7b179b0ffacaa9a75d522b39400f6120d6612400565b6120de61246a565b60408051602081019490945283019190915260608201524660808201523060a082015260c00160405160208183030381529060405280519060200120905090565b612128826124ae565b6040516001600160a01b038316907fbc7cd75a20ee27fd9adebab32041f755214dbc6bffa90cc0225b39da2e5c2d3b90600090a280511561216d57610cfc8282612513565b610c2b612589565b600080807f7fffffffffffffffffffffffffffffff5d576e7357a4501ddfe92f46681b20a08411156121b0575060009150600390508261223a565b604080516000808252602082018084528a905260ff891692820192909252606081018790526080810186905260019060a0016020604051602081039080840390855afa158015612204573d6000803e3d6000fd5b5050604051601f1901519150506001600160a01b0381166122305750600092506001915082905061223a565b9250600091508190505b9450945094915050565b600082600381111561225857612258612cb8565b03612261575050565b600182600381111561227557612275612cb8565b036122935760405163f645eedf60e01b815260040160405180910390fd5b60028260038111156122a7576122a7612cb8565b036122c85760405163fce698f760e01b815260048101829052602401610c17565b60038260038111156122dc576122dc612cb8565b03610c2b576040516335e2f38360e21b815260048101829052602401610c17565b7ff0c57e16840df040f15088dc2f81fe391c3923bec73e23a9662efc9c229c6a0054600160401b900460ff166111a157604051631afcd79f60e31b815260040160405180910390fd5b61234e6122fd565b600080516020612e1b8339815191527fa16a46d94261c7517cc8ff89f61c0ce93598e3c849801011dee649a6a557d1026123888482612d1e565b50600381016123978382612d1e565b5060008082556001909101555050565b6123af6122fd565b600080516020612dfb8339815191527f52c63247e1f47db19d5ce0460030c497f067ca4cebf71ba98eeadabe20bace036123e98482612d1e565b5060048101611bf68382612d1e565b6117586122fd565b6000600080516020612e1b8339815191528161241a611d27565b80519091501561243257805160209091012092915050565b81548015612441579392505050565b7fc5d2460186f7233c927e7db2dcc703c0e500b653ca82273b7bfad8045d85a470935050505090565b6000600080516020612e1b83398151915281612484611d66565b80519091501561249c57805160209091012092915050565b60018201548015612441579392505050565b806001600160a01b03163b6000036124e457604051634c9c8ce360e01b81526001600160a01b0382166004820152602401610c17565b600080516020612e3b83398151915280546001600160a01b0319166001600160a01b0392909216919091179055565b6060600080846001600160a01b0316846040516125309190612dde565b600060405180830381855af49150503d806000811461256b576040519150601f19603f3d011682016040523d82523d6000602084013e612570565b606091505b50915091506125808583836125a8565b95945050505050565b34156111a15760405163b398979f60e01b815260040160405180910390fd5b6060826125bd576125b882612604565b610d1a565b81511580156125d457506001600160a01b0384163b155b156125fd57604051639996b31560e01b81526001600160a01b0385166004820152602401610c17565b5080610d1a565b8051156126145780518082602001fd5b60405163d6bda27560e01b815260040160405180910390fd5b60005b83811015612648578181015183820152602001612630565b50506000910152565b6000815180845261266981602086016020860161262d565b601f01601f19169290920160200192915050565b602081526000610d1a6020830184612651565b6001600160a81b038116811461178b57600080fd5b600080604083850312156126b857600080fd5b82356126c381612690565b6001600160a01b0316946020939093013593505050565b6000602082840312156126ec57600080fd5b81356126f781612690565b6001600160a01b03169392505050565b60008060006060848603121561271c57600080fd5b833561272781612690565b6001600160a01b03908116935060208501359061274382612690565b93969316945050506040919091013590565b634e487b7160e01b600052604160045260246000fd5b600067ffffffffffffffff8084111561278657612786612755565b604051601f8501601f19908116603f011681019082821181831017156127ae576127ae612755565b816040528093508581528686860111156127c757600080fd5b858560208301376000602087830101525050509392505050565b600080604083850312156127f457600080fd5b82356127ff81612690565b6001600160a01b03169150602083013567ffffffffffffffff81111561282457600080fd5b8301601f8101851361283557600080fd5b6128448582356020840161276b565b9150509250929050565b60008060008060006080868803121561286657600080fd5b853561287181612690565b6001600160a01b03908116955060208701359061288d82612690565b16935060408601359250606086013567ffffffffffffffff808211156128b257600080fd5b818801915088601f8301126128c657600080fd5b8135818111156128d557600080fd5b8960208285010111156128e757600080fd5b9699959850939650602001949392505050565b60ff60f81b881681526000602060e0602084015261291b60e084018a612651565b838103604085015261292d818a612651565b606085018990526001600160a01b038816608086015260a0850187905284810360c08601528551808252602080880193509091019060005b8181101561298157835183529284019291840191600101612965565b50909c9b505050505050505050505050565b600080600080600080600060e0888a0312156129ae57600080fd5b87356129b981612690565b6001600160a01b0390811697506020890135906129d582612690565b1695506040880135945060608801359350608088013560ff811681146129fa57600080fd5b9699959850939692959460a0840135945060c09093013592915050565b60008060408385031215612a2a57600080fd5b8235612a3581612690565b6001600160a01b039081169250602084013590612a5182612690565b92959216935090915050565b600082601f830112612a6e57600080fd5b610d1a8383356020850161276b565b60008060008060008060c08789031215612a9657600080fd5b863567ffffffffffffffff80821115612aae57600080fd5b612aba8a838b01612a5d565b97506020890135915080821115612ad057600080fd5b50612add89828a01612a5d565b9550506040870135612aee81612690565b6001600160a01b039081169450606088013590612b0a82612690565b9081169350608088013590612b1e82612690565b8082169350505060a087013590509295509295509295565b600181811c90821680612b4a57607f821691505b602082108103612b6a57634e487b7160e01b600052602260045260246000fd5b50919050565b60208082526021908201527f44656274546f6b656e3a2043616c6c6572206e6f74205361746f7368695861706040820152600760fc1b606082015260800190565b6001600160a01b03878116825286166020820152604081018590526060810184905260a06080820181905281018290526000828460c0840137600060c0848401015260c0601f19601f8501168301019050979650505050505050565b600060208284031215612c1f57600080fd5b5051919050565b634e487b7160e01b600052601160045260246000fd5b80820180821115610bbb57610bbb612c26565b600060208284031215612c6157600080fd5b81516126f781612690565b81810381811115610bbb57610bbb612c26565b8082028115828204841417610bbb57610bbb612c26565b600082612cb357634e487b7160e01b600052601260045260246000fd5b500490565b634e487b7160e01b600052602160045260246000fd5b601f821115610cfc576000816000526020600020601f850160051c81016020861015612cf75750805b601f850160051c820191505b81811015612d1657828155600101612d03565b505050505050565b815167ffffffffffffffff811115612d3857612d38612755565b612d4c81612d468454612b36565b84612cce565b602080601f831160018114612d815760008415612d695750858301515b600019600386901b1c1916600185901b178555612d16565b600085815260208120601f198616915b82811015612db057888601518255948401946001909101908401612d91565b5085821015612dce5787850151600019600388901b60f8161c191681555b5050505050600190811b01905550565b60008251612df081846020870161262d565b919091019291505056fe52c63247e1f47db19d5ce0460030c497f067ca4cebf71ba98eeadabe20bace00a16a46d94261c7517cc8ff89f61c0ce93598e3c849801011dee649a6a557d100360894a13ba1a3210667c828492db98dca3e2076cc3735a920a3ca505d382bbca26474726f6e582212200f99ef9a72e8fed13de33982b5d4b55ab3c348b127ee90a261b1e302d9a7a66964736f6c63430008160033",
  "source": "// SPDX-License-Identifier: MIT\npragma solidity ^0.8.20;\n\nimport { UUPSUpgradeable } from \"@openzeppelin/contracts-upgradeable/proxy/utils/UUPSUpgradeable.sol\";\nimport { ERC20Upgradeable } from \"@openzeppelin/contracts-upgradeable/token/ERC20/ERC20Upgradeable.sol\";\nimport { IERC3156FlashBorrower } from \"@openzeppelin/contracts/interfaces/IERC3156FlashBorrower.sol\";\nimport { ERC20 } from \"@openzeppelin/contracts/token/ERC20/ERC20.sol\";\n\nimport { IRewardManager } from \"../OSHI/interfaces/IRewardManager.sol\";\n\nimport { Utils } from \"../library/Utils.sol\";\nimport { ICoreFacet } from \"./interfaces/ICoreFacet.sol\";\nimport { IDebtToken } from \"./interfaces/IDebtToken.sol\";\nimport { ITroveManager } from \"./interfaces/ITroveManager.sol\";\n\nimport { OwnableUpgradeable } from \"@openzeppelin/contracts-upgradeable/access/OwnableUpgradeable.sol\";\nimport {\n    ERC20PermitUpgradeable\n} from \"@openzeppelin/contracts-upgradeable/token/ERC20/extensions/ERC20PermitUpgradeable.sol\";\n\n/**\n * @title DebtToken\n * @dev A standalone DebtToken contract for chains that have not yet integrated with LayerZero.\n *      Once LayerZero integration is available, the OFT Adapter can be used to enable cross-chain functionality.\n * @notice DebtToken with ERC20 permit and ERC3156 Flash Loan support\n */\ncontract DebtToken is IDebtToken, UUPSUpgradeable, ERC20PermitUpgradeable, OwnableUpgradeable {\n    // --- ERC 3156 Data ---\n    bytes32 private constant _RETURN_VALUE = keccak256(\"ERC3156FlashBorrower.onFlashLoan\");\n    uint256 public constant FLASH_LOAN_FEE = 9; // 1 = 0.0001%\n\n    // --- Addresses ---\n    address public gasPool;\n    address public satoshiXApp;\n\n    uint256 internal _debtGasCompensation;\n\n    mapping(ITroveManager => bool) public troveManager;\n\n    // --- Auth ---\n    mapping(address => bool) public wards;\n\n    function rely(address usr) external onlyOwner {\n        wards[usr] = true;\n    }\n\n    function deny(address usr) external onlyOwner {\n        wards[usr] = false;\n    }\n\n    modifier auth() {\n        require(wards[msg.sender], \"DebtToken: not-authorized\");\n        _;\n    }\n\n    constructor() {\n        _disableInitializers();\n    }\n\n    /// @notice Override the _authorizeUpgrade function inherited from UUPSUpgradeable contract\n    // solhint-disable-next-line no-empty-blocks\n    function _authorizeUpgrade(address newImplementation) internal view override onlyOwner {\n        // No additional authorization logic is needed for this contract\n    }\n\n    function initialize(\n        string memory _name,\n        string memory _symbol,\n        address _gasPool,\n        address _satoshiXApp,\n        address _owner,\n        uint256 debtGasCompensation_\n    )\n        external\n        initializer\n    {\n        Utils.ensureNonzeroAddress(_satoshiXApp);\n        Utils.ensureNonzeroAddress(_owner);\n        Utils.ensureNonzeroAddress(_gasPool);\n        Utils.ensureNonZero(debtGasCompensation_);\n\n        __UUPSUpgradeable_init_unchained();\n        __ERC20Permit_init(_name);\n        __ERC20_init(_name, _symbol);\n        __Ownable_init(_owner);\n        gasPool = _gasPool;\n        satoshiXApp = _satoshiXApp;\n        _debtGasCompensation = debtGasCompensation_;\n    }\n\n    function enableTroveManager(ITroveManager _troveManager) external {\n        require(msg.sender == satoshiXApp, \"DebtToken: Caller not SatoshiXapp\");\n        troveManager[_troveManager] = true;\n    }\n\n    // --- Functions for intra-Satoshi calls ---\n\n    function mintWithGasCompensation(address _account, uint256 _amount) external {\n        require(msg.sender == satoshiXApp, \"DebtToken: Caller not SatoshiXapp\");\n        _mint(_account, _amount);\n        _mint(gasPool, _debtGasCompensation);\n    }\n\n    function burnWithGasCompensation(address _account, uint256 _amount) external {\n        require(msg.sender == satoshiXApp, \"DebtToken: Caller not SatoshiXapp\");\n        _burn(_account, _amount);\n        _burn(gasPool, _debtGasCompensation);\n    }\n\n    function mint(address _account, uint256 _amount) external {\n        require(\n            msg.sender == satoshiXApp || troveManager[ITroveManager(msg.sender)] || wards[msg.sender],\n            \"Debt: Caller not SatoshiXapp/TM/auth\"\n        );\n        _mint(_account, _amount);\n    }\n\n    function burn(address _account, uint256 _amount) external {\n        require(troveManager[ITroveManager(msg.sender)] || wards[msg.sender], \"Debt: Caller not TroveManager or auth\");\n        _burn(_account, _amount);\n    }\n\n    function sendToXApp(address _sender, uint256 _amount) external {\n        require(msg.sender == satoshiXApp, \"Debt: Caller not SatoshiXapp\");\n        _transfer(_sender, msg.sender, _amount);\n    }\n\n    function returnFromPool(address _poolAddress, address _receiver, uint256 _amount) external {\n        require(msg.sender == satoshiXApp || troveManager[ITroveManager(msg.sender)], \"Debt: Caller not TM/SatoshiXapp\");\n        _transfer(_poolAddress, _receiver, _amount);\n    }\n\n    // --- External functions ---\n\n    function transfer(address recipient, uint256 amount) public override(IDebtToken, ERC20Upgradeable) returns (bool) {\n        _requireValidRecipient(recipient);\n        return super.transfer(recipient, amount);\n    }\n\n    function transferFrom(\n        address sender,\n        address recipient,\n        uint256 amount\n    )\n        public\n        override(IDebtToken, ERC20Upgradeable)\n        returns (bool)\n    {\n        _requireValidRecipient(recipient);\n        return super.transferFrom(sender, recipient, amount);\n    }\n\n    function DEBT_GAS_COMPENSATION() external view returns (uint256) {\n        return _debtGasCompensation;\n    }\n\n    // --- ERC 3156 Functions ---\n\n    /**\n     * @dev Returns the maximum amount of tokens available for loan.\n     * @param token The address of the token that is requested.\n     * @return The amount of token that can be loaned.\n     */\n    function maxFlashLoan(address token) public view returns (uint256) {\n        return token == address(this) ? type(uint256).max - totalSupply() : 0;\n    }\n\n    /**\n     * @dev Returns the fee applied when doing flash loans. This function calls\n     * the {_flashFee} function which returns the fee applied when doing flash\n     * loans.\n     * @param token The token to be flash loaned.\n     * @param amount The amount of tokens to be loaned.\n     * @return The fees applied to the corresponding flash loan.\n     */\n    function flashFee(address token, uint256 amount) external view returns (uint256) {\n        return token == address(this) ? _flashFee(amount) : 0;\n    }\n\n    /**\n     * @dev Returns the fee applied when doing flash loans. By default this\n     * implementation has 0 fees. This function can be overloaded to make\n     * the flash loan mechanism deflationary.\n     * @param amount The amount of tokens to be loaned.\n     * @return The fees applied to the corresponding flash loan.\n     */\n    function _flashFee(uint256 amount) internal pure returns (uint256) {\n        return (amount * FLASH_LOAN_FEE) / 10_000;\n    }\n\n    /**\n     * @dev Performs a flash loan. New tokens are minted and sent to the\n     * `receiver`, who is required to implement the {IERC3156FlashBorrower}\n     * interface. By the end of the flash loan, the receiver is expected to own\n     * amount + fee tokens and have them approved back to the token contract itself so\n     * they can be burned.\n     * @param receiver The receiver of the flash loan. Should implement the\n     * {IERC3156FlashBorrower-onFlashLoan} interface.\n     * @param token The token to be flash loaned. Only `address(this)` is\n     * supported.\n     * @param amount The amount of tokens to be loaned.\n     * @param data An arbitrary datafield that is passed to the receiver.\n     * @return `true` if the flash loan was successful.\n     */\n    // This function can reenter, but it doesn't pose a risk because it always preserves the property that the amount\n    // minted at the beginning is always recovered and burned at the end, or else the entire function will revert.\n    // slither-disable-next-line reentrancy-no-eth\n    function flashLoan(\n        IERC3156FlashBorrower receiver,\n        address token,\n        uint256 amount,\n        bytes calldata data\n    )\n        external\n        returns (bool)\n    {\n        require(token == address(this), \"ERC20FlashMint: wrong token\");\n        require(amount <= maxFlashLoan(token), \"ERC20FlashMint: amount exceeds maxFlashLoan\");\n        uint256 fee = _flashFee(amount);\n        _mint(address(receiver), amount);\n        require(\n            receiver.onFlashLoan(msg.sender, token, amount, fee, data) == _RETURN_VALUE,\n            \"ERC20FlashMint: invalid return value\"\n        );\n        _spendAllowance(address(receiver), address(this), amount + fee);\n        _burn(address(receiver), amount);\n\n        address rewardManager = address(ICoreFacet(satoshiXApp).rewardManager());\n        _transfer(address(receiver), address(this), fee);\n        _approve(address(this), rewardManager, fee);\n        IRewardManager(rewardManager).increaseSATPerUintStaked(fee);\n        return true;\n    }\n\n    // --- 'require' functions ---\n\n    function _requireValidRecipient(address _recipient) internal view {\n        require(\n            _recipient != address(0) && _recipient != address(this),\n            \"Debt: Cannot transfer tokens directly to the Debt token contract or the zero address\"\n        );\n        // NOTE: it is not allowing transfers to the SatoshiXApp or TroveManager contracts, if needed, only use sendToXApp or returnFromPool functions\n        require(\n            _recipient != satoshiXApp && !troveManager[ITroveManager(_recipient)],\n            \"Debt: Cannot transfer tokens directly to the SatoshiXApp or TroveManager\"\n        );\n    }\n}\n",
  "sourcePath": "/Users/ashley/Documents/satoshi/satoshi-v2/src/core/DebtToken.sol",
  "compiler": {
    "name": "solc",
    "version": "0.8.22+commit.5ed3e10f.Emscripten.clang"
  },
  "schemaVersion": "2.0.1",
  "updatedAt": "2026-04-14T07:11:27.724Z"
}