{
  "contractName": "FactoryFacet",
  "abi": [
    {
      "inputs": [],
      "name": "UintUtils__InsufficientPadding",
      "type": "error"
    },
    {
      "anonymous": false,
      "inputs": [
        {
          "indexed": false,
          "internalType": "contract ITroveManager",
          "name": "troveManager",
          "type": "address"
        },
        {
          "indexed": true,
          "internalType": "contract IERC20",
          "name": "collateralToken",
          "type": "address"
        }
      ],
      "name": "CollateralConfigured",
      "type": "event"
    },
    {
      "anonymous": false,
      "inputs": [
        {
          "indexed": false,
          "internalType": "contract IERC20",
          "name": "oldCollateralToken",
          "type": "address"
        },
        {
          "indexed": false,
          "internalType": "contract IERC20",
          "name": "newCollateralToken",
          "type": "address"
        }
      ],
      "name": "CollateralOverwritten",
      "type": "event"
    },
    {
      "anonymous": false,
      "inputs": [
        {
          "indexed": true,
          "internalType": "contract IERC20",
          "name": "collateral",
          "type": "address"
        },
        {
          "indexed": false,
          "internalType": "contract IPriceFeed",
          "name": "priceFeed",
          "type": "address"
        },
        {
          "indexed": false,
          "internalType": "contract ITroveManager",
          "name": "troveManager",
          "type": "address"
        },
        {
          "indexed": false,
          "internalType": "contract ISortedTroves",
          "name": "sortedTroves",
          "type": "address"
        }
      ],
      "name": "NewDeployment",
      "type": "event"
    },
    {
      "anonymous": false,
      "inputs": [
        {
          "indexed": true,
          "internalType": "bytes32",
          "name": "role",
          "type": "bytes32"
        },
        {
          "indexed": true,
          "internalType": "bytes32",
          "name": "previousAdminRole",
          "type": "bytes32"
        },
        {
          "indexed": true,
          "internalType": "bytes32",
          "name": "newAdminRole",
          "type": "bytes32"
        }
      ],
      "name": "RoleAdminChanged",
      "type": "event"
    },
    {
      "anonymous": false,
      "inputs": [
        {
          "indexed": true,
          "internalType": "bytes32",
          "name": "role",
          "type": "bytes32"
        },
        {
          "indexed": true,
          "internalType": "address",
          "name": "account",
          "type": "address"
        },
        {
          "indexed": true,
          "internalType": "address",
          "name": "sender",
          "type": "address"
        }
      ],
      "name": "RoleGranted",
      "type": "event"
    },
    {
      "anonymous": false,
      "inputs": [
        {
          "indexed": true,
          "internalType": "bytes32",
          "name": "role",
          "type": "bytes32"
        },
        {
          "indexed": true,
          "internalType": "address",
          "name": "account",
          "type": "address"
        },
        {
          "indexed": true,
          "internalType": "address",
          "name": "sender",
          "type": "address"
        }
      ],
      "name": "RoleRevoked",
      "type": "event"
    },
    {
      "inputs": [
        {
          "internalType": "contract IERC20",
          "name": "collateralToken",
          "type": "address"
        },
        {
          "internalType": "contract IPriceFeed",
          "name": "priceFeed",
          "type": "address"
        },
        {
          "components": [
            {
              "internalType": "uint256",
              "name": "minuteDecayFactor",
              "type": "uint256"
            },
            {
              "internalType": "uint256",
              "name": "redemptionFeeFloor",
              "type": "uint256"
            },
            {
              "internalType": "uint256",
              "name": "maxRedemptionFee",
              "type": "uint256"
            },
            {
              "internalType": "uint256",
              "name": "borrowingFeeFloor",
              "type": "uint256"
            },
            {
              "internalType": "uint256",
              "name": "maxBorrowingFee",
              "type": "uint256"
            },
            {
              "internalType": "uint256",
              "name": "interestRateInBps",
              "type": "uint256"
            },
            {
              "internalType": "uint256",
              "name": "maxDebt",
              "type": "uint256"
            },
            {
              "internalType": "uint256",
              "name": "MCR",
              "type": "uint256"
            },
            {
              "internalType": "uint128",
              "name": "rewardRate",
              "type": "uint128"
            },
            {
              "internalType": "uint256",
              "name": "OSHIAllocation",
              "type": "uint256"
            },
            {
              "internalType": "uint32",
              "name": "claimStartTime",
              "type": "uint32"
            }
          ],
          "internalType": "struct DeploymentParams",
          "name": "params",
          "type": "tuple"
        }
      ],
      "name": "deployNewInstance",
      "outputs": [
        {
          "internalType": "contract ITroveManager",
          "name": "troveManagerBeaconProxy",
          "type": "address"
        },
        {
          "internalType": "contract ISortedTroves",
          "name": "sortedTrovesBeaconProxy",
          "type": "address"
        }
      ],
      "stateMutability": "nonpayable",
      "type": "function"
    },
    {
      "inputs": [],
      "name": "maxTMRewardRate",
      "outputs": [
        {
          "internalType": "uint128",
          "name": "",
          "type": "uint128"
        }
      ],
      "stateMutability": "pure",
      "type": "function"
    },
    {
      "inputs": [
        {
          "internalType": "uint128[]",
          "name": "_numerator",
          "type": "uint128[]"
        },
        {
          "internalType": "uint128",
          "name": "_denominator",
          "type": "uint128"
        }
      ],
      "name": "setTMRewardRate",
      "outputs": [],
      "stateMutability": "nonpayable",
      "type": "function"
    },
    {
      "inputs": [],
      "name": "troveManagerCount",
      "outputs": [
        {
          "internalType": "uint256",
          "name": "",
          "type": "uint256"
        }
      ],
      "stateMutability": "view",
      "type": "function"
    },
    {
      "inputs": [
        {
          "internalType": "uint256",
          "name": "index",
          "type": "uint256"
        }
      ],
      "name": "troveManagers",
      "outputs": [
        {
          "internalType": "contract ITroveManager",
          "name": "",
          "type": "address"
        }
      ],
      "stateMutability": "view",
      "type": "function"
    }
  ],
  "bytecode": "0x608060405234801561001057600080fd5b50d3801561001d57600080fd5b50d2801561002a57600080fd5b506119978061003a6000396000f3fe60806040523480156200001157600080fd5b50d380156200001f57600080fd5b50d280156200002d57600080fd5b50600436106200007a5760003560e01c80633b707478146200007f5780634e3fa2d914620000b3578063679df0d914620000cc57806380a7314514620000e5578063fcffc82414620000fc575b600080fd5b620000966200009036600462000fbd565b62000134565b6040516001600160a01b0390911681526020015b60405180910390f35b620000ca620000c436600462000ff4565b62000177565b005b620000d662000385565b604051908152602001620000aa565b6040516701c29f8d1c6011a08152602001620000aa565b620001136200010d36600462001095565b6200039c565b604080516001600160a01b03938416815292909116602083015201620000aa565b6000806200014162000723565b90508060100183815481106200015b576200015b620010fd565b6000918252602090912001546001600160a01b03169392505050565b7fb19546dff01e856fb3f010c267a7b1c60363cf8a4664e21cc89c26224620214e620001a38162000759565b6000620001af62000723565b601081015490915084146200020b5760405162461bcd60e51b815260206004820152601760248201527f466163746f72793a20696e76616c6964206c656e67746800000000000000000060448201526064015b60405180910390fd5b6000805b858110156200030e576000856701c29f8d1c6011a0898985818110620002395762000239620010fd565b905060200201602081019062000250919062001113565b6200025c919062001147565b62000268919062001175565b9050620002768184620011aa565b9250836010018281548110620002905762000290620010fd565b600091825260209091200154604051631341154360e01b81526001600160801b03831660048201526001600160a01b0390911690631341154390602401600060405180830381600087803b158015620002e857600080fd5b505af1158015620002fd573d6000803e3d6000fd5b50505050508060010190506200020f565b506701c29f8d1c6011a06001600160801b03821611156200037d5760405162461bcd60e51b815260206004820152602260248201527f466163746f72793a20696e76616c696420746f74616c20726577617264207261604482015261746560f01b606482015260840162000202565b505050505050565b6000806200039262000723565b6010015492915050565b6000807fb19546dff01e856fb3f010c267a7b1c60363cf8a4664e21cc89c26224620214e620003cb8162000759565b6000620003d762000723565b9050620003e48162000768565b9250620003f181620007f6565b604051630838f6f560e21b81526001600160a01b038083166004830152919550908416906320e3dbd490602401600060405180830381600087803b1580156200043957600080fd5b505af11580156200044e573d6000803e3d6000fd5b505060405163b602024b60e01b81526001600160a01b0386811660048301528a811660248301528716925063b602024b9150604401600060405180830381600087803b1580156200049e57600080fd5b505af1158015620004b3573d6000803e3d6000fd5b50505050836001600160a01b0316630fdb11cf6040518163ffffffff1660e01b81526004016020604051808303816000875af1158015620004f8573d6000803e3d6000fd5b505050506040513d601f19601f820116820180604052508101906200051e9190620011d4565b5060088101546040516317dd676d60e01b81526001600160a01b038681166004830152909116906317dd676d90602401600060405180830381600087803b1580156200056957600080fd5b505af11580156200057e573d6000803e3d6000fd5b505050506200058e818862000893565b6200059b81858962000a97565b620005c881856001600160a01b03166000908152600e90910160205260409020805460ff19166001179055565b836001600160a01b0316630a4e72a286600001358760200135886040013589606001358a608001358b60a001358c60c001358d60e001358e61010001602081019062000615919062001113565b8f6101400160208101906200062b9190620011ee565b6040516001600160e01b031960e08d901b168152600481019a909a5260248a019890985260448901969096526064880194909452608487019290925260a486015260c485015260e48401526001600160801b031661010483015263ffffffff1661012482015261014401600060405180830381600087803b158015620006b057600080fd5b505af1158015620006c5573d6000803e3d6000fd5b5050604080516001600160a01b038a811682528881166020830152878116828401529151918b1693507f49d89791026fa3ea04294a3105fde8a3c3d62de8ceeb5cf79f78098a1dd711aa925081900360600190a25050935093915050565b6000806200075360017f32dc5fac1ec0f102a33b5c15528dfb46fd85a8972ea61127a23d80a03590a78262001216565b92915050565b62000765813362000b52565b50565b604051336024820152600090819060440160408051601f198184030181529181526020820180516001600160e01b031663189acdbd60e31b179052600c85015490519192506001600160a01b0316908290620007c49062000faf565b620007d192919062001280565b604051809103906000f080158015620007ee573d6000803e3d6000fd5b509392505050565b600181015460088201546003830154600a8401546040513360248201526001600160a01b0394851660448201529284166064840152921660848201523060a482015260c4810191909152600090819060e40160408051601f198184030181529181526020820180516001600160e01b031663256dbbc360e21b179052600d85015490519192506001600160a01b0316908290620007c49062000faf565b60138201546000805b82811015620008f557836001600160a01b0316856013018281548110620008c757620008c7620010fd565b6000918252602090912001546001600160a01b031603620008ec5760019150620008f5565b6001016200089c565b508062000a285760408051808201909152601685015461ffff8082168084526201000090920416602083018190521115620009db57805161ffff1660009081526017860160209081526040918290208251808401909352546001600160801b038082168452600160801b90910416908201819052421115620009d957601686018054601788019160009161ffff1690826200099083620012ae565b82546101009290920a61ffff818102199093169183160217909155168152602081019190915260400160009081205580516200037d90879087906001600160801b031662000bc3565b505b506013840180546001810182556000828152602080822090920180546001600160a01b0319166001600160a01b038816908117909155925492815260128701909152604090205562000a91565b6001600160a01b038316600090815260128501602052604090205462000a915760405162461bcd60e51b815260206004820152601860248201527f436f6c6c61746572616c2069732073756e73657474696e670000000000000000604482015260640162000202565b50505050565b6040805180820182526001600160a01b0383811680835260108701805461ffff90811660208087019182528986166000818152600f8d018352898120985189549451909516600160a01b026001600160b01b03199094169490971693909317919091179095558154600181018355918452928490200180546001600160a01b0319168317905592519081527ff6e0528dc0c0ef50525339faff44940d57e7897bee18b67dd0aa23bba1749ad2910160405180910390a2505050565b62000b5e828262000ded565b62000bbf5762000b77816001600160a01b031662000e4a565b62000b8483602062000e5d565b60405160200162000b97929190620012d2565b60408051601f198184030181529082905262461bcd60e51b825262000202916004016200134b565b5050565b6001600160a01b03821660009081526012840160205260409020541562000c2d5760405162461bcd60e51b815260206004820152601960248201527f436f6c6c61746572616c206d7573742062652073756e73657400000000000000604482015260640162000202565b601383015480821062000c755760405162461bcd60e51b815260206004820152600f60248201526e496e64657820746f6f206c6172676560881b604482015260640162000202565b60158401546001600160801b03600160801b82048116911660005b82816001600160801b03161162000d085760005b82816001600160801b03161162000cfe576001600160801b03808316600090815260148a0160209081526040808320938516835292905290812087610100811062000cf35762000cf3620010fd565b015560010162000ca4565b5060010162000c90565b5062000d1684600162001360565b6001600160a01b03861660009081526012880160205260409020556013860180547f9e147d339c63698deb55c3d0d44ed3eba29bac2a068a88c4bc5bde17d6331e1991908690811062000d6d5762000d6d620010fd565b60009182526020918290200154604080516001600160a01b039283168152918916928201929092520160405180910390a18486601301858154811062000db75762000db7620010fd565b9060005260206000200160006101000a8154816001600160a01b0302191690836001600160a01b03160217905550505050505050565b600062000e43827fd3889cc5458b268d0544e5534672df1296288ca3f93cbd39bd6f497a5c622811600086815260209190915260409020906001600160a01b038116600090815260018301602052604081205415155b9392505050565b6060620007536001600160a01b03831660145b60011b600201606060008267ffffffffffffffff81111562000e835762000e8362001376565b6040519080825280601f01601f19166020018201604052801562000eae576020820181803683370190505b509050600360fc1b8160008151811062000ecc5762000ecc620010fd565b60200101906001600160f81b031916908160001a905350600f60fb1b8160018151811062000efe5762000efe620010fd565b60200101906001600160f81b031916908160001a9053505b600283111562000f8f57600019909201916f181899199a1a9b1b9c1cb0b131b232b360811b600f85166010811062000f525762000f52620010fd565b1a60f81b81848151811062000f6b5762000f6b620010fd565b60200101906001600160f81b031916908160001a905350600484901c935062000f16565b831562000e43576040516355a04ff160e11b815260040160405180910390fd5b6105d5806200138d83390190565b60006020828403121562000fd057600080fd5b5035919050565b80356001600160801b038116811462000fef57600080fd5b919050565b6000806000604084860312156200100a57600080fd5b833567ffffffffffffffff808211156200102357600080fd5b818601915086601f8301126200103857600080fd5b8135818111156200104857600080fd5b8760208260051b85010111156200105e57600080fd5b60209283019550935062001076918601905062000fd7565b90509250925092565b6001600160a81b03811681146200076557600080fd5b60008060008385036101a0811215620010ad57600080fd5b8435620010ba816200107f565b6001600160a01b039081169450602086013590620010d8826200107f565b169250610160603f1982011215620010ef57600080fd5b506040840190509250925092565b634e487b7160e01b600052603260045260246000fd5b6000602082840312156200112657600080fd5b62000e438262000fd7565b634e487b7160e01b600052601160045260246000fd5b6001600160801b038181168382160280821691908281146200116d576200116d62001131565b505092915050565b60006001600160801b03808416806200119e57634e487b7160e01b600052601260045260246000fd5b92169190910492915050565b6001600160801b03818116838216019080821115620011cd57620011cd62001131565b5092915050565b600060208284031215620011e757600080fd5b5051919050565b6000602082840312156200120157600080fd5b813563ffffffff8116811462000e4357600080fd5b8181038181111562000753576200075362001131565b60005b83811015620012495781810151838201526020016200122f565b50506000910152565b600081518084526200126c8160208601602086016200122c565b601f01601f19169290920160200192915050565b6001600160a01b0383168152604060208201819052600090620012a69083018462001252565b949350505050565b600061ffff808316818103620012c857620012c862001131565b6001019392505050565b7f416363657373436f6e74726f6c3a206163636f756e74200000000000000000008152600083516200130c8160178501602088016200122c565b7001034b99036b4b9b9b4b733903937b6329607d1b60179184019182015283516200133f8160288401602088016200122c565b01602801949350505050565b60208152600062000e43602083018462001252565b8082018082111562000753576200075362001131565b634e487b7160e01b600052604160045260246000fdfe60a06040526040516105d53803806105d583398101604081905261002291610394565b61002c828261003e565b506001600160a01b031660805261048b565b610047826100fe565b6040516001600160a01b038316907f1cf3b03a6cf19fa2baba4df148e9dcabedea7f8a5c07840e207e5c089be95d3e90600090a28051156100f2576100ed826001600160a01b0316635c60da1b6040518163ffffffff1660e01b8152600401602060405180830381865afa1580156100c3573d6000803e3d6000fd5b505050506040513d601f19601f820116820180604052508101906100e79190610454565b82610211565b505050565b6100fa610288565b5050565b806001600160a01b03163b60000361013957604051631933b43b60e21b81526001600160a01b03821660048201526024015b60405180910390fd5b807fa3f0ad74e5423aebfd80d3ef4346578335a9a72aeaee59ff6cb3582b35133d5080546001600160a01b0319166001600160a01b0392831617905560408051635c60da1b60e01b81529051600092841691635c60da1b9160048083019260209291908290030181865afa1580156101b5573d6000803e3d6000fd5b505050506040513d601f19601f820116820180604052508101906101d99190610454565b9050806001600160a01b03163b6000036100fa57604051634c9c8ce360e01b81526001600160a01b0382166004820152602401610130565b6060600080846001600160a01b03168460405161022e919061046f565b600060405180830381855af49150503d8060008114610269576040519150601f19603f3d011682016040523d82523d6000602084013e61026e565b606091505b50909250905061027f8583836102a9565b95945050505050565b34156102a75760405163b398979f60e01b815260040160405180910390fd5b565b6060826102be576102b982610308565b610301565b81511580156102d557506001600160a01b0384163b155b156102fe57604051639996b31560e01b81526001600160a01b0385166004820152602401610130565b50805b9392505050565b8051156103185780518082602001fd5b60405163d6bda27560e01b815260040160405180910390fd5b80516000906001600160a81b038116811461034b57600080fd5b6001600160a01b031692915050565b634e487b7160e01b600052604160045260246000fd5b60005b8381101561038b578181015183820152602001610373565b50506000910152565b600080604083850312156103a757600080fd5b6103b083610331565b60208401519092506001600160401b03808211156103cd57600080fd5b818501915085601f8301126103e157600080fd5b8151818111156103f3576103f361035a565b604051601f8201601f19908116603f0116810190838211818310171561041b5761041b61035a565b8160405282815288602084870101111561043457600080fd5b610445836020830160208801610370565b80955050505050509250929050565b60006020828403121561046657600080fd5b61030182610331565b60008251610481818460208701610370565b9190910192915050565b6080516101306104a56000396000601e01526101306000f3fe6080604052600a600c565b005b60186014601a565b60a0565b565b60007f00000000000000000000000000000000000000000000000000000000000000006001600160a01b0316635c60da1b6040518163ffffffff1660e01b8152600401602060405180830381865afa1580156079573d6000803e3d6000fd5b505050506040513d601f19601f82011682018060405250810190609b919060c3565b905090565b3660008037600080366000845af43d6000803e80801560be573d6000f35b3d6000fd5b60006020828403121560d457600080fd5b81516001600160a81b038116811460ea57600080fd5b6001600160a01b0316939250505056fea26474726f6e58221220b2dcd0ede49a8fd4bd6022374e3fba86991fdf097084612ff867047e96b164b964736f6c63430008160033a26474726f6e58221220ea0af391dc28b8604c15e8518859acbccdbd750d2e01e5b00e9340acf93d522864736f6c63430008160033",
  "source": "// SPDX-License-Identifier: MIT\npragma solidity ^0.8.20;\n\nimport { ICommunityIssuance } from \"../../OSHI/interfaces/ICommunityIssuance.sol\";\nimport { IPriceFeed } from \"../../priceFeed/interfaces/IPriceFeed.sol\";\nimport { AppStorage } from \"../AppStorage.sol\";\n\nimport { Config } from \"../Config.sol\";\nimport { TroveManagerData } from \"../interfaces/IBorrowerOperationsFacet.sol\";\nimport { IDebtToken } from \"../interfaces/IDebtToken.sol\";\nimport { DeploymentParams, IFactoryFacet } from \"../interfaces/IFactoryFacet.sol\";\nimport { ISortedTroves } from \"../interfaces/ISortedTroves.sol\";\n\nimport { Queue, SunsetIndex } from \"../interfaces/IStabilityPoolFacet.sol\";\nimport { ITroveManager } from \"../interfaces/ITroveManager.sol\";\nimport { BeaconProxy } from \"@openzeppelin/contracts/proxy/beacon/BeaconProxy.sol\";\nimport { IERC20 } from \"@openzeppelin/contracts/token/ERC20/IERC20.sol\";\nimport { AccessControlInternal } from \"@solidstate/contracts/access/access_control/AccessControlInternal.sol\";\n\ncontract FactoryFacet is IFactoryFacet, AccessControlInternal {\n    function troveManagerCount() external view returns (uint256) {\n        AppStorage.Layout storage s = AppStorage.layout();\n        return s.troveManagers.length;\n    }\n\n    function troveManagers(uint256 index) external view returns (ITroveManager) {\n        AppStorage.Layout storage s = AppStorage.layout();\n        return s.troveManagers[index];\n    }\n\n    function maxTMRewardRate() external pure returns (uint128) {\n        return Config.TM_MAX_REWARD_RATE;\n    }\n\n    function deployNewInstance(\n        IERC20 collateralToken,\n        IPriceFeed priceFeed,\n        DeploymentParams calldata params\n    )\n        external\n        onlyRole(Config.OWNER_ROLE)\n        returns (ITroveManager troveManagerBeaconProxy, ISortedTroves sortedTrovesBeaconProxy)\n    {\n        AppStorage.Layout storage s = AppStorage.layout();\n        sortedTrovesBeaconProxy = _deploySortedTrovesBeaconProxy(s);\n        troveManagerBeaconProxy = _deployTroveManagerBeaconProxy(s);\n\n        sortedTrovesBeaconProxy.setConfig(troveManagerBeaconProxy);\n        troveManagerBeaconProxy.setConfig(sortedTrovesBeaconProxy, collateralToken);\n\n        // verify that the oracle is correctly working\n        troveManagerBeaconProxy.fetchPrice();\n\n        s.debtToken.enableTroveManager(troveManagerBeaconProxy);\n        _enableCollateral(s, collateralToken);\n        _configureCollateral(s, troveManagerBeaconProxy, collateralToken);\n        _enableTroveManager(s, troveManagerBeaconProxy);\n\n        troveManagerBeaconProxy.setParameters(\n            params.minuteDecayFactor,\n            params.redemptionFeeFloor,\n            params.maxRedemptionFee,\n            params.borrowingFeeFloor,\n            params.maxBorrowingFee,\n            params.interestRateInBps,\n            params.maxDebt,\n            params.MCR,\n            params.rewardRate,\n            params.claimStartTime\n        );\n\n        emit NewDeployment(collateralToken, priceFeed, troveManagerBeaconProxy, sortedTrovesBeaconProxy);\n\n        return (troveManagerBeaconProxy, sortedTrovesBeaconProxy);\n    }\n\n    function _enableCollateral(AppStorage.Layout storage s, IERC20 _collateral) internal {\n        uint256 length = s.collateralTokens.length;\n        bool collateralEnabled;\n        for (uint256 i = 0; i < length; i++) {\n            if (s.collateralTokens[i] == _collateral) {\n                collateralEnabled = true;\n                break;\n            }\n        }\n        if (!collateralEnabled) {\n            Queue memory queueCached = s.queue;\n            if (queueCached.nextSunsetIndexKey > queueCached.firstSunsetIndexKey) {\n                SunsetIndex memory sIdx = s.sunsetIndexes[queueCached.firstSunsetIndexKey];\n                if (sIdx.expiry < block.timestamp) {\n                    delete s.sunsetIndexes[s.queue.firstSunsetIndexKey++];\n                    _overwriteCollateral(s, _collateral, sIdx.idx);\n                    return;\n                }\n            }\n            s.collateralTokens.push(_collateral);\n            s.indexByCollateral[_collateral] = s.collateralTokens.length;\n        } else {\n            // revert if the factory is trying to deploy a new TM with a sunset collateral\n            require(s.indexByCollateral[_collateral] > 0, \"Collateral is sunsetting\");\n        }\n    }\n\n    function _overwriteCollateral(AppStorage.Layout storage s, IERC20 _newCollateral, uint256 idx) internal {\n        require(s.indexByCollateral[_newCollateral] == 0, \"Collateral must be sunset\");\n        uint256 length = s.collateralTokens.length;\n        require(idx < length, \"Index too large\");\n        uint256 externalLoopEnd = s.currentEpoch;\n        uint256 internalLoopEnd = s.currentScale;\n        for (uint128 i; i <= externalLoopEnd;) {\n            for (uint128 j; j <= internalLoopEnd;) {\n                s.epochToScaleToSums[i][j][idx] = 0;\n                unchecked {\n                    ++j;\n                }\n            }\n            unchecked {\n                ++i;\n            }\n        }\n        s.indexByCollateral[_newCollateral] = idx + 1;\n        emit CollateralOverwritten(s.collateralTokens[idx], _newCollateral);\n        s.collateralTokens[idx] = _newCollateral;\n    }\n\n    function _configureCollateral(\n        AppStorage.Layout storage s,\n        ITroveManager troveManager,\n        IERC20 collateralToken\n    )\n        internal\n    {\n        s.troveManagersData[troveManager] = TroveManagerData(collateralToken, uint16(s.troveManagers.length));\n        s.troveManagers.push(troveManager);\n        emit CollateralConfigured(troveManager, collateralToken);\n    }\n\n    function _enableTroveManager(AppStorage.Layout storage s, ITroveManager _troveManager) internal {\n        s.enabledTroveManagers[_troveManager] = true;\n    }\n\n    function _deploySortedTrovesBeaconProxy(AppStorage.Layout storage s) internal returns (ISortedTroves) {\n        bytes memory data = abi.encodeCall(ISortedTroves.initialize, msg.sender);\n        return ISortedTroves(address(new BeaconProxy(address(s.sortedTrovesBeacon), data)));\n    }\n\n    function _deployTroveManagerBeaconProxy(AppStorage.Layout storage s) internal returns (ITroveManager) {\n        bytes memory data = abi.encodeCall(\n            ITroveManager.initialize,\n            (msg.sender, s.gasPool, s.debtToken, s.communityIssuance, address(this), s.gasCompensation)\n        );\n        return ITroveManager(address(new BeaconProxy(address(s.troveManagerBeacon), data)));\n    }\n\n    function setTMRewardRate(uint128[] calldata _numerator, uint128 _denominator) external onlyRole(Config.OWNER_ROLE) {\n        AppStorage.Layout storage s = AppStorage.layout();\n        // console.log(\"setTMRewardRate\", _numerator.length, s.troveManagers.length);\n        require(_numerator.length == s.troveManagers.length, \"Factory: invalid length\");\n        uint128 totalRewardRate;\n        for (uint256 i; i < _numerator.length; ++i) {\n            uint128 troveRewardRate = _numerator[i] * Config.TM_MAX_REWARD_RATE / _denominator;\n            totalRewardRate += troveRewardRate;\n            s.troveManagers[i].setTMRewardRate(troveRewardRate);\n        }\n        require(totalRewardRate <= Config.TM_MAX_REWARD_RATE, \"Factory: invalid total reward rate\");\n    }\n}\n",
  "sourcePath": "/Users/ashley/Documents/satoshi/satoshi-v2/src/core/facets/FactoryFacet.sol",
  "compiler": {
    "name": "solc",
    "version": "0.8.22+commit.5ed3e10f.Emscripten.clang"
  },
  "schemaVersion": "2.0.1",
  "updatedAt": "2026-04-14T07:11:27.745Z"
}