{
  "contractName": "Initializer",
  "abi": [
    {
      "inputs": [],
      "name": "Initializable__AlreadyInitialized",
      "type": "error"
    },
    {
      "inputs": [],
      "name": "Ownable__NotOwner",
      "type": "error"
    },
    {
      "inputs": [],
      "name": "Ownable__NotTransitiveOwner",
      "type": "error"
    },
    {
      "inputs": [],
      "name": "ZeroAddress",
      "type": "error"
    },
    {
      "inputs": [],
      "name": "ZeroValue",
      "type": "error"
    },
    {
      "anonymous": false,
      "inputs": [
        {
          "indexed": false,
          "internalType": "uint8",
          "name": "version",
          "type": "uint8"
        }
      ],
      "name": "Initialized",
      "type": "event"
    },
    {
      "anonymous": false,
      "inputs": [
        {
          "indexed": true,
          "internalType": "address",
          "name": "previousOwner",
          "type": "address"
        },
        {
          "indexed": true,
          "internalType": "address",
          "name": "newOwner",
          "type": "address"
        }
      ],
      "name": "OwnershipTransferred",
      "type": "event"
    },
    {
      "anonymous": false,
      "inputs": [
        {
          "indexed": true,
          "internalType": "bytes32",
          "name": "role",
          "type": "bytes32"
        },
        {
          "indexed": true,
          "internalType": "bytes32",
          "name": "previousAdminRole",
          "type": "bytes32"
        },
        {
          "indexed": true,
          "internalType": "bytes32",
          "name": "newAdminRole",
          "type": "bytes32"
        }
      ],
      "name": "RoleAdminChanged",
      "type": "event"
    },
    {
      "anonymous": false,
      "inputs": [
        {
          "indexed": true,
          "internalType": "bytes32",
          "name": "role",
          "type": "bytes32"
        },
        {
          "indexed": true,
          "internalType": "address",
          "name": "account",
          "type": "address"
        },
        {
          "indexed": true,
          "internalType": "address",
          "name": "sender",
          "type": "address"
        }
      ],
      "name": "RoleGranted",
      "type": "event"
    },
    {
      "anonymous": false,
      "inputs": [
        {
          "indexed": true,
          "internalType": "bytes32",
          "name": "role",
          "type": "bytes32"
        },
        {
          "indexed": true,
          "internalType": "address",
          "name": "account",
          "type": "address"
        },
        {
          "indexed": true,
          "internalType": "address",
          "name": "sender",
          "type": "address"
        }
      ],
      "name": "RoleRevoked",
      "type": "event"
    },
    {
      "inputs": [
        {
          "internalType": "bytes",
          "name": "data",
          "type": "bytes"
        }
      ],
      "name": "init",
      "outputs": [],
      "stateMutability": "nonpayable",
      "type": "function"
    }
  ],
  "bytecode": "0x608060405234801561001057600080fd5b50d3801561001d57600080fd5b50d2801561002a57600080fd5b506106ee8061003a6000396000f3fe608060405234801561001057600080fd5b50d3801561001d57600080fd5b50d2801561002a57600080fd5b50600436106100455760003560e01c80634ddf47d41461004a575b600080fd5b61005d61005836600461053f565b61005f565b005b61006960016102f5565b6000808080808080808080806100818c8e018e6105d9565b9a509a509a509a509a509a509a509a509a509a509a506100a98b6001600160a01b0316610383565b6100bb8a6001600160a01b0316610383565b6100cd896001600160a01b0316610383565b6100df886001600160a01b0316610383565b6100f1876001600160a01b0316610383565b610103866001600160a01b0316610383565b610115856001600160a01b0316610383565b610127846001600160a01b0316610383565b610139836001600160a01b0316610383565b610142826103ad565b61014b816103ad565b6101757fb19546dff01e856fb3f010c267a7b1c60363cf8a4664e21cc89c26224620214e806103ce565b6101bf7f55435dd261a4b9b3364963f7738a7a662ad9c84396d64be3365284bb7f0a50417fb19546dff01e856fb3f010c267a7b1c60363cf8a4664e21cc89c26224620214e6103ce565b6101e97fb19546dff01e856fb3f010c267a7b1c60363cf8a4664e21cc89c26224620214e86610438565b6102137f55435dd261a4b9b3364963f7738a7a662ad9c84396d64be3365284bb7f0a504185610438565b600061021d6104ac565b80546001600160a01b03199081166001600160a01b0396871617825560028201805482169e87169e909e17909d556008810180548e169c86169c909c17909b555060038a0180548c16998416999099179098554260078a0181905560018a0180548c16968416969096179095556009890155600a8801969096555050600c85018054871693851693909317909255600d84018054909516921691909117909255670de0b6b3a76400006019820155601101805463ffffffff60801b1916600160801b63ffffffff909316929092029190911790555050565b7f58200b7f57da39f2faa846ff29bd836ec3d3f012ed3975da2cd78f1b83b59cf1805460ff83811691161061033d576040516317456d5560e11b815260040160405180910390fd5b805460ff191660ff831690811782556040519081527f7f26b83ff96e1f2b6a682f133852f6798a09c465da95921460cefb38474024989060200160405180910390a15050565b6001600160a01b0381166103aa5760405163d92e233d60e01b815260040160405180910390fd5b50565b806000036103aa57604051637c946ed760e01b815260040160405180910390fd5b60008281527fd3889cc5458b268d0544e5534672df1296288ca3f93cbd39bd6f497a5c6228116020526040808220600201805490849055905190918391839186917fbd79b86ffe0ab8e8776151514217cd7cacd52c909f66475c3af44e129f0b00ff9190a4505050565b60008281527fd3889cc5458b268d0544e5534672df1296288ca3f93cbd39bd6f497a5c6228116020526040902061046f90826104e0565b5060405133906001600160a01b0383169084907f2f8788117e7eff1d82e926ec794901d17c78024a50270940304540a733656f0d90600090a45050565b6000806104da60017f32dc5fac1ec0f102a33b5c15528dfb46fd85a8972ea61127a23d80a03590a782610697565b92915050565b60006104f5836001600160a01b0384166104fc565b9392505050565b60008181526001830160205260408120546104da575081546001808201845560008481526020808220909301849055845493815293810190915260409092205590565b6000806020838503121561055257600080fd5b823567ffffffffffffffff8082111561056a57600080fd5b818501915085601f83011261057e57600080fd5b81358181111561058d57600080fd5b86602082850101111561059f57600080fd5b60209290920196919550909350505050565b600081356001600160a81b03811681146105ca57600080fd5b6001600160a01b031692915050565b60008060008060008060008060008060006101608c8e0312156105fb57600080fd5b6106048c6105b1565b9a5061061260208d016105b1565b995061062060408d016105b1565b985061062e60608d016105b1565b975061063c60808d016105b1565b965061064a60a08d016105b1565b955061065860c08d016105b1565b945061066660e08d016105b1565b93506106756101008d016105b1565b92506101208c013591506101408c013590509295989b509295989b9093969950565b818103818111156104da57634e487b7160e01b600052601160045260246000fdfea26474726f6e58221220c59b084034ded9fdc2646802366d55cc3c17261bd5f167e801fff36a193f586764736f6c63430008160033",
  "source": "// SPDX-License-Identifier: MIT\npragma solidity ^0.8.20;\n\nimport { ICommunityIssuance } from \"../OSHI/interfaces/ICommunityIssuance.sol\";\nimport { IRewardManager } from \"../OSHI/interfaces/IRewardManager.sol\";\nimport { Utils } from \"../library/Utils.sol\";\nimport { AppStorage } from \"./AppStorage.sol\";\nimport { Config } from \"./Config.sol\";\nimport { IDebtToken } from \"./interfaces/IDebtToken.sol\";\nimport { IBeacon } from \"@openzeppelin/contracts/proxy/beacon/IBeacon.sol\";\nimport { AccessControlInternal } from \"@solidstate/contracts/access/access_control/AccessControlInternal.sol\";\nimport { OwnableInternal } from \"@solidstate/contracts/access/ownable/OwnableInternal.sol\";\nimport { Initializable } from \"@solidstate/contracts/security/initializable/Initializable.sol\";\n\nimport { ICommunityIssuance } from \"../OSHI/interfaces/ICommunityIssuance.sol\";\nimport { IRewardManager } from \"../OSHI/interfaces/IRewardManager.sol\";\n\ncontract Initializer is Initializable, AccessControlInternal, OwnableInternal {\n    using Utils for *;\n\n    /**\n     * @notice Initialize function for the SatoshiXAPP contract\n     * @dev This function is called only once when the protocol is deployed\n     * @param data The encoded data for the initializer\n     */\n    function init(bytes calldata data) external initializer {\n        (\n            address rewardManager,\n            address debtToken,\n            address communityIssuance,\n            address sortedTrovesBeacon,\n            address troveManagerBeacon,\n            address gasPool,\n            address owner,\n            address guardian,\n            address feeReceiver,\n            uint256 minNetDebt,\n            uint256 gasCompensation\n        ) = abi.decode(\n            data, (address, address, address, address, address, address, address, address, address, uint256, uint256)\n        );\n\n        rewardManager.ensureNonzeroAddress();\n        debtToken.ensureNonzeroAddress();\n        communityIssuance.ensureNonzeroAddress();\n        sortedTrovesBeacon.ensureNonzeroAddress();\n        troveManagerBeacon.ensureNonzeroAddress();\n        gasPool.ensureNonzeroAddress();\n        owner.ensureNonzeroAddress();\n        guardian.ensureNonzeroAddress();\n        feeReceiver.ensureNonzeroAddress();\n        minNetDebt.ensureNonZero();\n        gasCompensation.ensureNonZero();\n\n        // set roles\n        _setRoleAdmin(Config.OWNER_ROLE, Config.OWNER_ROLE);\n        _setRoleAdmin(Config.GUARDIAN_ROLE, Config.OWNER_ROLE);\n        _grantRole(Config.OWNER_ROLE, owner);\n        _grantRole(Config.GUARDIAN_ROLE, guardian);\n\n        AppStorage.Layout storage s = AppStorage.layout();\n        s.feeReceiver = feeReceiver;\n        s.rewardManager = IRewardManager(rewardManager);\n        s.debtToken = IDebtToken(debtToken);\n        s.communityIssuance = ICommunityIssuance(communityIssuance);\n        s.startTime = block.timestamp;\n        s.gasPool = gasPool;\n\n        /**\n         * BorrowerOperationsFacet\n         */\n        s.minNetDebt = minNetDebt;\n\n        /**\n         * CoreFacet\n         */\n        s.gasCompensation = gasCompensation;\n        // feeReceiver\n        // rewardManager\n        // startTime\n        // guardian\n\n        /**\n         * FactoryFacet\n         */\n        s.sortedTrovesBeacon = IBeacon(sortedTrovesBeacon);\n        s.troveManagerBeacon = IBeacon(troveManagerBeacon);\n\n        /**\n         * LiquidationFacet\n         */\n        // None\n\n        /**\n         * PriceFeedAggregatorFacet\n         */\n        // None\n\n        /**\n         * StabilityPoolFacet\n         */\n        // communityIssuance\n        s.P = Config.DEBT_TOKEN_DECIMALS_BASE;\n        s.lastUpdate = uint32(block.timestamp);\n\n        /**\n         * NexusYieldManagerFacet\n         */\n        // debtToken\n        // rewardManager\n    }\n}\n",
  "sourcePath": "/Users/ashley/Documents/satoshi/satoshi-v2/src/core/Initializer.sol",
  "compiler": {
    "name": "solc",
    "version": "0.8.22+commit.5ed3e10f.Emscripten.clang"
  },
  "schemaVersion": "2.0.1",
  "updatedAt": "2026-04-14T07:11:27.726Z"
}