{
  "contractName": "LiquidationFacet",
  "abi": [
    {
      "inputs": [],
      "name": "Ownable__NotOwner",
      "type": "error"
    },
    {
      "inputs": [],
      "name": "Ownable__NotTransitiveOwner",
      "type": "error"
    },
    {
      "anonymous": false,
      "inputs": [
        {
          "indexed": false,
          "internalType": "uint128",
          "name": "_currentEpoch",
          "type": "uint128"
        }
      ],
      "name": "EpochUpdated",
      "type": "event"
    },
    {
      "anonymous": false,
      "inputs": [
        {
          "indexed": false,
          "internalType": "uint256",
          "name": "_G",
          "type": "uint256"
        },
        {
          "indexed": false,
          "internalType": "uint128",
          "name": "_epoch",
          "type": "uint128"
        },
        {
          "indexed": false,
          "internalType": "uint128",
          "name": "_scale",
          "type": "uint128"
        }
      ],
      "name": "G_Updated",
      "type": "event"
    },
    {
      "anonymous": false,
      "inputs": [
        {
          "indexed": false,
          "internalType": "uint256",
          "name": "_liquidatedDebt",
          "type": "uint256"
        },
        {
          "indexed": false,
          "internalType": "uint256",
          "name": "_liquidatedColl",
          "type": "uint256"
        },
        {
          "indexed": false,
          "internalType": "uint256",
          "name": "_collGasCompensation",
          "type": "uint256"
        },
        {
          "indexed": false,
          "internalType": "uint256",
          "name": "_debtGasCompensation",
          "type": "uint256"
        }
      ],
      "name": "Liquidation",
      "type": "event"
    },
    {
      "anonymous": false,
      "inputs": [
        {
          "indexed": true,
          "internalType": "address",
          "name": "_troveManager",
          "type": "address"
        },
        {
          "indexed": false,
          "internalType": "uint256",
          "name": "_liquidatedDebt",
          "type": "uint256"
        },
        {
          "indexed": false,
          "internalType": "uint256",
          "name": "_liquidatedColl",
          "type": "uint256"
        },
        {
          "indexed": false,
          "internalType": "uint256",
          "name": "_collGasCompensation",
          "type": "uint256"
        },
        {
          "indexed": false,
          "internalType": "uint256",
          "name": "_debtGasCompensation",
          "type": "uint256"
        }
      ],
      "name": "LiquidationTroves",
      "type": "event"
    },
    {
      "anonymous": false,
      "inputs": [
        {
          "indexed": true,
          "internalType": "address",
          "name": "previousOwner",
          "type": "address"
        },
        {
          "indexed": true,
          "internalType": "address",
          "name": "newOwner",
          "type": "address"
        }
      ],
      "name": "OwnershipTransferred",
      "type": "event"
    },
    {
      "anonymous": false,
      "inputs": [
        {
          "indexed": false,
          "internalType": "uint256",
          "name": "_P",
          "type": "uint256"
        }
      ],
      "name": "P_Updated",
      "type": "event"
    },
    {
      "anonymous": false,
      "inputs": [
        {
          "indexed": true,
          "internalType": "bytes32",
          "name": "role",
          "type": "bytes32"
        },
        {
          "indexed": true,
          "internalType": "bytes32",
          "name": "previousAdminRole",
          "type": "bytes32"
        },
        {
          "indexed": true,
          "internalType": "bytes32",
          "name": "newAdminRole",
          "type": "bytes32"
        }
      ],
      "name": "RoleAdminChanged",
      "type": "event"
    },
    {
      "anonymous": false,
      "inputs": [
        {
          "indexed": true,
          "internalType": "bytes32",
          "name": "role",
          "type": "bytes32"
        },
        {
          "indexed": true,
          "internalType": "address",
          "name": "account",
          "type": "address"
        },
        {
          "indexed": true,
          "internalType": "address",
          "name": "sender",
          "type": "address"
        }
      ],
      "name": "RoleGranted",
      "type": "event"
    },
    {
      "anonymous": false,
      "inputs": [
        {
          "indexed": true,
          "internalType": "bytes32",
          "name": "role",
          "type": "bytes32"
        },
        {
          "indexed": true,
          "internalType": "address",
          "name": "account",
          "type": "address"
        },
        {
          "indexed": true,
          "internalType": "address",
          "name": "sender",
          "type": "address"
        }
      ],
      "name": "RoleRevoked",
      "type": "event"
    },
    {
      "anonymous": false,
      "inputs": [
        {
          "indexed": false,
          "internalType": "uint256",
          "name": "idx",
          "type": "uint256"
        },
        {
          "indexed": false,
          "internalType": "uint256",
          "name": "_S",
          "type": "uint256"
        },
        {
          "indexed": false,
          "internalType": "uint128",
          "name": "_epoch",
          "type": "uint128"
        },
        {
          "indexed": false,
          "internalType": "uint128",
          "name": "_scale",
          "type": "uint128"
        }
      ],
      "name": "S_Updated",
      "type": "event"
    },
    {
      "anonymous": false,
      "inputs": [
        {
          "indexed": false,
          "internalType": "uint128",
          "name": "_currentScale",
          "type": "uint128"
        }
      ],
      "name": "ScaleUpdated",
      "type": "event"
    },
    {
      "anonymous": false,
      "inputs": [
        {
          "indexed": false,
          "internalType": "uint256",
          "name": "_newBalance",
          "type": "uint256"
        }
      ],
      "name": "StabilityPoolDebtBalanceUpdated",
      "type": "event"
    },
    {
      "anonymous": false,
      "inputs": [
        {
          "indexed": true,
          "internalType": "address",
          "name": "_borrower",
          "type": "address"
        },
        {
          "indexed": false,
          "internalType": "uint256",
          "name": "_debt",
          "type": "uint256"
        },
        {
          "indexed": false,
          "internalType": "uint256",
          "name": "_coll",
          "type": "uint256"
        },
        {
          "indexed": false,
          "internalType": "uint8",
          "name": "_operation",
          "type": "uint8"
        }
      ],
      "name": "TroveLiquidated",
      "type": "event"
    },
    {
      "inputs": [
        {
          "internalType": "contract ITroveManager",
          "name": "troveManager",
          "type": "address"
        },
        {
          "internalType": "address[]",
          "name": "_troveArray",
          "type": "address[]"
        }
      ],
      "name": "batchLiquidateTroves",
      "outputs": [],
      "stateMutability": "nonpayable",
      "type": "function"
    },
    {
      "inputs": [
        {
          "internalType": "contract ITroveManager",
          "name": "troveManager",
          "type": "address"
        },
        {
          "internalType": "address",
          "name": "borrower",
          "type": "address"
        }
      ],
      "name": "liquidate",
      "outputs": [],
      "stateMutability": "nonpayable",
      "type": "function"
    },
    {
      "inputs": [
        {
          "internalType": "contract ITroveManager",
          "name": "troveManager",
          "type": "address"
        },
        {
          "internalType": "uint256",
          "name": "maxTrovesToLiquidate",
          "type": "uint256"
        },
        {
          "internalType": "uint256",
          "name": "maxICR",
          "type": "uint256"
        }
      ],
      "name": "liquidateTroves",
      "outputs": [],
      "stateMutability": "nonpayable",
      "type": "function"
    }
  ],
  "bytecode": "0x608060405234801561001057600080fd5b50d3801561001d57600080fd5b50d2801561002a57600080fd5b50612fbb8061003a6000396000f3fe608060405234801561001057600080fd5b50d3801561001d57600080fd5b50d2801561002a57600080fd5b506004361061005b5760003560e01c80637b5031b2146100605780637c92590f1461007557806386b9d81f14610088575b600080fd5b61007361006e366004612b19565b61009b565b005b610073610083366004612b6d565b610a75565b610073610096366004612c50565b611380565b60006100a56114b6565b6001600160a01b0385166000908152600e8201602052604090205490915060ff166101135760405162461bcd60e51b8152602060048201526019602482015278151c9bdd9953585b9859d95c881b9bdd08185c1c1c9bdd9959603a1b60448201526064015b60405180910390fd5b836001600160a01b0316636f3fe4046040518163ffffffff1660e01b8152600401600060405180830381600087803b15801561014e57600080fd5b505af1158015610162573d6000803e3d6000fd5b505050506000846001600160a01b031663ae9187546040518163ffffffff1660e01b8152600401602060405180830381865afa1580156101a6573d6000803e3d6000fd5b505050506040513d601f19601f820116820180604052508101906101ca9190612c96565b90506101d4612a99565b6101dc612a99565b610202604051806060016040528060008152602001600081526020016000151581525090565b60008790506000896001600160a01b03166349eefeee6040518163ffffffff1660e01b8152600401602060405180830381865afa158015610247573d6000803e3d6000fd5b505050506040513d601f19601f8201168201806040525081019061026b9190612cc3565b9050896001600160a01b0316630fdb11cf6040518163ffffffff1660e01b81526004016020604051808303816000875af11580156102ad573d6000803e3d6000fd5b505050506040513d601f19601f820116820180604052508101906102d19190612cc3565b836000018181525050896001600160a01b0316639484fb8e6040518163ffffffff1660e01b8152600401602060405180830381865afa158015610318573d6000803e3d6000fd5b505050506040513d601f19601f8201168201806040525081019061033c9190612cdc565b836040019015159081151581525050896001600160a01b031663794e57246040518163ffffffff1660e01b8152600401602060405180830381865afa158015610389573d6000803e3d6000fd5b505050506040513d601f19601f820116820180604052508101906103ad9190612cc3565b602084015260006103bf886018015490565b90505b6000831180156103d25750600182115b1561055c576000876001600160a01b0316634d6228316040518163ffffffff1660e01b8152600401602060405180830381865afa158015610417573d6000803e3d6000fd5b505050506040513d601f19601f8201168201806040525081019061043b9190612c96565b8551604051630d293c7160e41b81526001600160a01b0380841660048301526024820192909252919250600091908e169063d293c71090604401602060405180830381865afa158015610492573d6000803e3d6000fd5b505050506040513d601f19601f820116820180604052508101906104b69190612cc3565b90508a8111156104cb5760009450505061055c565b670de0b6b3a764000081111580156104e657506104e66114ea565b15610507576104f68a8e8461152f565b975061050287896116c2565b610549565b8560200151811015610542576105248a8e84868a604001516117a5565b97508760800151836105369190612d14565b925061050287896116c2565b505061055c565b50506000199283019291909101906103c2565b60008311801561056e57508360400151155b801561057a5750600182115b1561082b5760008061058b8a61194a565b91509150866040015186600001518860a001516105a89190612d27565b6105b29190612d3e565b6105bc9083612d14565b91508660800151816105ce9190612d14565b90506000896001600160a01b0316634d6228316040518163ffffffff1660e01b8152600401602060405180830381865afa158015610610573d6000803e3d6000fd5b505050506040513d601f19601f820116820180604052508101906106349190612c96565b90508d5b6000871180156106485750600186115b156108265760008f6001600160a01b031663d293c710848b600001516040518363ffffffff1660e01b81526004016106959291906001600160a01b03929092168252602082015260400190565b602060405180830381865afa1580156106b2573d6000803e3d6000fd5b505050506040513d601f19601f820116820180604052508101906106d69190612cc3565b90508d8111156106e65750610826565b604051632dc9c0eb60e21b81526001600160a01b03808516600483015260001999909901988491908e169063b72703ac90602401602060405180830381865afa158015610737573d6000803e3d6000fd5b505050506040513d601f19601f8201168201806040525081019061075b9190612c96565b93506000610769878761196f565b90506714d1120d7b160000811015806107825750808310155b1561078f57505050610826565b6107a484838a8e602001518f60000151611996565b9c508c608001516000036107ba57505050610638565b60808d01516107c99089612d14565b97508a600001518d61010001518e60a001516107e59190612d3e565b6107ef9190612d27565b6107f99088612d14565b96508c608001518661080b9190612d14565b95506108178c8e6116c2565b50506000199096019550610638565b505050505b600085602001511161084f5760405162461bcd60e51b815260040161010a90612d51565b600085608001511180610866575060008560a00151115b15610954576108e38b6001600160a01b031663b2016bd46040518163ffffffff1660e01b8152600401602060405180830381865afa1580156108ac573d6000803e3d6000fd5b505050506040513d601f19601f820116820180604052508101906108d09190612c96565b608087015160a08801518b929190611ca0565b608085015160a0860151604051633a461b2560e21b8152306004820152602481019290925260448201526001600160a01b038c169063e9186c9490606401600060405180830381600087803b15801561093b57600080fd5b505af115801561094f573d6000803e3d6000fd5b505050505b60c085015160e086015161010087015160608801516040808a01519051637511d13d60e11b8152336004820152602481019590955260448501939093526064840191909152608483015260a48201526001600160a01b038c169063ea23a27a9060c401600060405180830381600087803b1580156109d157600080fd5b505af11580156109e5573d6000803e3d6000fd5b505050508a6001600160a01b03167f8f9720fc68dad7e48b7c94ab1b8995940223b2a86d2b49c46d32f032b31c0374866020015187610100015188604001518960000151610a339190612d14565b610a3d9190612d14565b6040808a01516060808c0151835195865260208601949094529184015282015260800160405180910390a25050505050505050505050565b6000610a7f6114b6565b6001600160a01b0384166000908152600e8201602052604090205490915060ff16610ae85760405162461bcd60e51b8152602060048201526019602482015278151c9bdd9953585b9859d95c881b9bdd08185c1c1c9bdd9959603a1b604482015260640161010a565b8151600003610b585760405162461bcd60e51b815260206004820152603660248201527f54726f76654d616e616765723a2043616c6c646174612061646472657373206160448201527572726179206d757374206e6f7420626520656d70747960501b606482015260840161010a565b826001600160a01b0316636f3fe4046040518163ffffffff1660e01b8152600401600060405180830381600087803b158015610b9357600080fd5b505af1158015610ba7573d6000803e3d6000fd5b50505050610bb3612a99565b610bbb612a99565b610be1604051806060016040528060008152602001600081526020016000151581525090565b6000610bee856018015490565b9050866001600160a01b0316630fdb11cf6040518163ffffffff1660e01b81526004016020604051808303816000875af1158015610c30573d6000803e3d6000fd5b505050506040513d601f19601f82011682018060405250810190610c549190612cc3565b826000018181525050866001600160a01b0316639484fb8e6040518163ffffffff1660e01b8152600401602060405180830381865afa158015610c9b573d6000803e3d6000fd5b505050506040513d601f19601f82011682018060405250810190610cbf9190612cdc565b826040019015159081151581525050866001600160a01b031663794e57246040518163ffffffff1660e01b8152600401602060405180830381865afa158015610d0c573d6000803e3d6000fd5b505050506040513d601f19601f82011682018060405250810190610d309190612cc3565b8260200181815250506000876001600160a01b03166349eefeee6040518163ffffffff1660e01b8152600401602060405180830381865afa158015610d79573d6000803e3d6000fd5b505050506040513d601f19601f82011682018060405250810190610d9d9190612cc3565b875190915060005b8181108015610db45750600183115b15610edf576000898281518110610dcd57610dcd612d93565b60209081029190910101518651604051630d293c7160e41b81526001600160a01b0380841660048301526024820192909252919250600091908d169063d293c71090604401602060405180830381865afa158015610e2f573d6000803e3d6000fd5b505050506040513d601f19601f82011682018060405250810190610e539190612cc3565b9050670de0b6b3a76400008111158015610e705750610e706114ea565b15610e8757610e808a8d8461152f565b9850610ec4565b8660200151811015610ebd57610ea48a8d84898b604001516117a5565b9850886080015186610eb69190612d14565b9550610ec4565b5050610edf565b610ece888a6116c2565b505060001990920191600101610da5565b8181108015610eee5750600183115b1561113757600080610eff8a61194a565b91509150876040015187600001518960a00151610f1c9190612d27565b610f269190612d3e565b610f309083612d14565b9150876080015181610f429190612d14565b90505b8383108015610f545750600185115b156111345760008b8481518110610f6d57610f6d612d93565b60209081029190910101518851604051630d293c7160e41b81526001600160a01b0380841660048301526024820192909252919250600091908f169063d293c71090604401602060405180830381865afa158015610fcf573d6000803e3d6000fd5b505050506040513d601f19601f82011682018060405250810190610ff39190612cc3565b9050846001019450670de0b6b3a7640000811115801561101657506110166114ea565b1561102d576110268c8f8461152f565b9a506110ba565b886020015181101561104a576110268c8f848b8d604001516117a5565b88604001511561105b575050610f45565b6000611067858561196f565b90506714d1120d7b160000811015806110805750808210155b1561108d57505050610f45565b6110a28f848b8d602001518e60000151611996565b9b508b608001516000036110b857505050610f45565b505b60808b01516110c99089612d14565b97508a6040015189600001518c61010001518d60a001516110ea9190612d3e565b6110f49190612d27565b6110fe9190612d3e565b6111089085612d14565b93508a608001518361111a9190612d14565b92506111268a8c6116c2565b505060001990940193610f45565b50505b600086602001511161115b5760405162461bcd60e51b815260040161010a90612d51565b600086608001511180611172575060008660a00151115b15611260576111ef8a6001600160a01b031663b2016bd46040518163ffffffff1660e01b8152600401602060405180830381865afa1580156111b8573d6000803e3d6000fd5b505050506040513d601f19601f820116820180604052508101906111dc9190612c96565b608088015160a08901518b929190611ca0565b608086015160a0870151604051633a461b2560e21b8152306004820152602481019290925260448201526001600160a01b038b169063e9186c9490606401600060405180830381600087803b15801561124757600080fd5b505af115801561125b573d6000803e3d6000fd5b505050505b60c086015160e087015161010088015160608901516040808b01519051637511d13d60e11b8152336004820152602481019590955260448501939093526064840191909152608483015260a48201526001600160a01b038b169063ea23a27a9060c401600060405180830381600087803b1580156112dd57600080fd5b505af11580156112f1573d6000803e3d6000fd5b50505050896001600160a01b03167f8f9720fc68dad7e48b7c94ab1b8995940223b2a86d2b49c46d32f032b31c0374876020015188610100015189604001518a6000015161133f9190612d14565b6113499190612d14565b6040808b01516060808d0151835195865260208601949094529184015282015260800160405180910390a250505050505050505050565b6040516321e3780160e01b81526001600160a01b0382811660048301528316906321e3780190602401602060405180830381865afa1580156113c6573d6000803e3d6000fd5b505050506040513d601f19601f820116820180604052508101906113ea9190612cc3565b6001146114515760405162461bcd60e51b815260206004820152602f60248201527f54726f76654d616e616765723a2054726f766520646f6573206e6f742065786960448201526e1cdd081bdc881a5cc818db1bdcd959608a1b606482015260840161010a565b60408051600180825281830190925260009160208083019080368337019050509050818160008151811061148757611487612d93565b60200260200101906001600160a01b031690816001600160a01b0316815250506114b18382610a75565b505050565b6000806114e460017f32dc5fac1ec0f102a33b5c15528dfb46fd85a8972ea61127a23d80a03590a782612d14565b92915050565b6000806114f56114b6565b90506000806115038361194a565b915091506000611513838361196f565b9050611526816714d1120d7b1600001190565b94505050505090565b611537612a99565b604051632e46be5f60e21b81526001600160a01b038381166004830152600091829186169063b91af97c90602401608060405180830381865afa158015611582573d6000803e3d6000fd5b505050506040513d601f19601f820116820180604052508101906115a69190612da9565b6020870183905292865293509091506115be90611d99565b604084810191909152600a87015460608501525163eb3007fd60e01b815260048101839052602481018290526001600160a01b0386169063eb3007fd90604401600060405180830381600087803b15801561161857600080fd5b505af115801561162c573d6000803e3d6000fd5b505060006080860181905260a08601525050825160c0840152604083015160208401516116599190612d14565b60e08401526040516325019ee960e01b81526001600160a01b0385811660048301528616906325019ee990602401600060405180830381600087803b1580156116a157600080fd5b505af11580156116b5573d6000803e3d6000fd5b5050505050509392505050565b806040015182604001516116d69190612d3e565b6040830152606080820151908301516116ef9190612d3e565b6060830152805160208301516117059190612d3e565b602080840191909152810151825161171d9190612d3e565b8252608080820151908301516117339190612d3e565b608083015260a0808201519083015161174c9190612d3e565b60a083015260c080820151908301516117659190612d3e565b60c083015260e0808201519083015161177e9190612d3e565b60e083015261010080820151908301516117989190612d3e565b6101009092019190915250565b6117ad612a99565b604051632e46be5f60e21b81526001600160a01b038581166004830152600091829188169063b91af97c90602401608060405180830381865afa1580156117f8573d6000803e3d6000fd5b505050506040513d601f19601f8201168201806040525081019061181c9190612da9565b602087019290925291855260405163eb3007fd60e01b8152600481018390526024810182905291935091506001600160a01b0388169063eb3007fd90604401600060405180830381600087803b15801561187557600080fd5b505af1158015611889573d6000803e3d6000fd5b5050505061189a8360200151611d99565b60408401819052600a890154606085015260208401516000916118bc91612d14565b90506118ce8460000151828888611da6565b60e088015260c087015260a086015260808501526040516325019ee960e01b81526001600160a01b0388811660048301528916906325019ee990602401600060405180830381600087803b15801561192557600080fd5b505af1158015611939573d6000803e3d6000fd5b505050505050505b95945050505050565b600080600061195884611e17565b90506119638161218f565b90969095509350505050565b6000811561198c5760006119838385612ddf565b91506114e49050565b5060001992915050565b61199e612a99565b604051632e46be5f60e21b81526001600160a01b0386811660048301526000918291829182918b169063b91af97c90602401608060405180830381865afa1580156119ed573d6000803e3d6000fd5b505050506040513d601f19601f82011682018060405250810190611a119190612da9565b9296509094509250905087841115611a2c5750505050611941565b60405163eb3007fd60e01b815260048101839052602481018290526001600160a01b038b169063eb3007fd90604401600060405180830381600087803b158015611a7557600080fd5b505af1158015611a89573d6000803e3d6000fd5b50505084865250602085018390526000611b7987611aa78a88612d27565b611ab19190612ddf565b8c6001600160a01b031663b2016bd46040518163ffffffff1660e01b8152600401602060405180830381865afa158015611aef573d6000803e3d6000fd5b505050506040513d601f19601f82011682018060405250810190611b139190612c96565b6001600160a01b031663313ce5676040518163ffffffff1660e01b8152600401602060405180830381865afa158015611b50573d6000803e3d6000fd5b505050506040513d601f19601f82011682018060405250810190611b749190612e01565b612263565b9050611b8481611d99565b6040870152611b916114b6565b600a01546060870152608086018590526040860151611bb09082612d14565b60a08701526040516325019ee960e01b81526001600160a01b038b811660048301528c16906325019ee990602401600060405180830381600087803b158015611bf857600080fd5b505af1158015611c0c573d6000803e3d6000fd5b5050505060008185611c1e9190612d14565b90508015611c9157610100870181905260405163789c6b9360e01b81526001600160a01b038c81166004830152602482018390528d169063789c6b9390604401600060405180830381600087803b158015611c7857600080fd5b505af1158015611c8c573d6000803e3d6000fd5b505050505b50505050505095945050505050565b6001600160a01b0383166000908152601285016020526040902054611cc6600182612d14565b6018860154909150801580611cd9575083155b15611ce5575050611d93565b611cee866122da565b6000856001600160a01b031663313ce5676040518163ffffffff1660e01b8152600401602060405180830381865afa158015611d2e573d6000803e3d6000fd5b505050506040513d601f19601f82011682018060405250810190611d529190612e01565b90506000611d608583612372565b9050600080611d728a848a888a6123d7565b91509150611d828a8383896124cf565b611d8c8a89612802565b5050505050505b50505050565b60006114e460c883612ddf565b600080600080600086118015611dba575084155b15611dff57611dc98887612856565b935087611dd68589612d27565b611de09190612ddf565b9250611dec8489612d14565b9150611df88388612d14565b9050611e0c565b5060009250829150869050855b945094509450949050565b611e426040518060800160405280606081526020016060815260200160608152602001606081525090565b60108201546040805160808101909152808267ffffffffffffffff811115611e6c57611e6c612b57565b604051908082528060200260200182016040528015611e95578160200160208202803683370190505b5081526020018267ffffffffffffffff811115611eb457611eb4612b57565b604051908082528060200260200182016040528015611edd578160200160208202803683370190505b5081526020018267ffffffffffffffff811115611efc57611efc612b57565b604051908082528060200260200182016040528015611f25578160200160208202803683370190505b5081526020018267ffffffffffffffff811115611f4457611f44612b57565b604051908082528060200260200182016040528015611f6d578160200160208202803683370190505b509052915060005b81811015612188576000846010018281548110611f9457611f94612d93565b9060005260206000200160009054906101000a90046001600160a01b031690506000806000836001600160a01b03166301c799fc6040518163ffffffff1660e01b81526004016060604051808303816000875af1158015611ff9573d6000803e3d6000fd5b505050506040513d601f19601f8201168201806040525081019061201d9190612e24565b925092509250828760000151868151811061203a5761203a612d93565b602002602001018181525050818760200151868151811061205d5761205d612d93565b602002602001018181525050808760400151868151811061208057612080612d93565b602002602001018181525050836001600160a01b031663b2016bd46040518163ffffffff1660e01b8152600401602060405180830381865afa1580156120ca573d6000803e3d6000fd5b505050506040513d601f19601f820116820180604052508101906120ee9190612c96565b6001600160a01b031663313ce5676040518163ffffffff1660e01b8152600401602060405180830381865afa15801561212b573d6000803e3d6000fd5b505050506040513d601f19601f8201168201806040525081019061214f9190612e01565b8760600151868151811061216557612165612d93565b602002602001019060ff16908160ff168152505084600101945050505050611f75565b5050919050565b80515160009081908190815b8181101561224e57856040015181815181106121b9576121b9612d93565b6020026020010151612205876000015183815181106121da576121da612d93565b6020026020010151886060015184815181106121f8576121f8612d93565b6020026020010151612372565b61220f9190612d27565b6122199085612d3e565b93508560200151818151811061223157612231612d93565b6020026020010151836122449190612d3e565b925060010161219b565b50612259838361196f565b9350509193909250565b600080601260111960ff85160161227c578491506122d2565b8060ff168460ff1610156122b0576122948482612e52565b61229f90600a612f4f565b6122a99086612ddf565b91506122d2565b6122ba8185612e52565b6122c590600a612f4f565b6122cf9086612d27565b91505b509392505050565b60006122e58261286e565b600383015460405163cf6120bd60e01b8152600481018390529192506001600160a01b03169063cf6120bd90602401600060405180830381600087803b15801561232e57600080fd5b505af1158015612342573d6000803e3d6000fd5b505050506123508282612933565b50601101805463ffffffff60801b1916600160801b4263ffffffff1602179055565b600080601260111960ff85160161238b578491506122d2565b8060ff168460ff1610156123b8576123a38482612e52565b6123ae90600a612f4f565b6122a99086612d27565b6123c28185612e52565b6123cd90600a612f4f565b6122cf9086612ddf565b600080600087601a018461010081106123f2576123f2612d93565b0154612406670de0b6b3a764000089612d27565b6124109190612d3e565b905084860361243157600061011a890155670de0b6b3a7640000915061248c565b61011a88015460009061244c670de0b6b3a764000089612d27565b6124569190612d14565b90506124628682612ddf565b61246d906001612d3e565b92508061247a8785612d27565b6124849190612d14565b61011a8a0155505b6124968582612ddf565b92506124a28584612d27565b6124ac9082612d14565b88601a018561010081106124c2576124c2612d93565b0155509550959350505050565b60198401546000806124e985670de0b6b3a7640000612d14565b60158801546001600160801b03600160801b82048116600081815260148c016020908152604080832094909516808352939052928320939450909290919087610100811061253957612539612d93565b015490506000612549878b612d27565b905060006125578284612d3e565b6001600160801b03808616600090815260148f0160209081526040808320938a1683529290522090915081908a610100811061259557612595612d93565b0155604080518a8152602081018390526001600160801b03868116828401528716606082015290517fe150473acddd94d1c6add794bd840c8d3e297dc3e50d863b56c0fba04d0d02479181900360800190a1856000036126a7576125fa846001612f5e565b60158d0180546001600160801b03908116600160801b93821684021791829055604051929091041681527fb50f0f59e7cb5b421dc77581c3a9919e3806e076e5fa78a874c3f120cb7d874d9060200160405180910390a160158c0180546001600160801b0319169055604051600081527f1f9dfc70cd666adb18a39d60a797518f7b4febf4b6e24ef37d44f6e1e7219fbe9060200160405180910390a1670de0b6b3a76400009650612781565b633b9aca00670de0b6b3a76400006126bf888b612d27565b6126c99190612ddf565b101561276157670de0b6b3a7640000633b9aca006126e7888b612d27565b6126f19190612d27565b6126fb9190612ddf565b9650612708856001612f5e565b60158d0180546001600160801b0319166001600160801b039290921691821790556040519081527f1f9dfc70cd666adb18a39d60a797518f7b4febf4b6e24ef37d44f6e1e7219fbe9060200160405180910390a1612781565b670de0b6b3a7640000612774878a612d27565b61277e9190612ddf565b96505b600087116127ba5760405162461bcd60e51b815260040161010a9060208082526004908201526304e6577560e41b604082015260600190565b60198c018790556040518781527fc1a9618cb59ebca77cbdbc2949f126823c407ff13edb285fd0262519a9c18e8c9060200160405180910390a1505050505050505050505050565b60008183601801546128149190612d14565b601884018190556040518181529091507f5c1eb83edfbe7709b9a63e8c7e294df8731e15bc212a85bf6e95cb906600bcbb9060200160405180910390a1505050565b60008183106128655781612867565b825b9392505050565b6011810154600090819061288f90600160801b900463ffffffff1642612d14565b60118401549091506000906128ad906001600160801b031683612d27565b6003850154604051634225e5bb60e01b81523060048201529192506000916001600160a01b0390911690634225e5bb90602401602060405180830381865afa1580156128fd573d6000803e3d6000fd5b505050506040513d601f19601f820116820180604052508101906129219190612cc3565b9050808211156122d257949350505050565b6018820154801580612943575081155b1561294d57505050565b600061295a848484612a3e565b601585015460198601549192506001600160801b03600160801b82048116929116906000906129899085612d27565b6001600160801b03808516600090815261011c8a0160209081526040808320938716835292905290812054919250906129c3908390612d3e565b6001600160801b03858116600081815261011c8c0160209081526040808320948916808452948252918290208590558151858152908101929092528101919091529091507f2d6127771b164a9cc8827d24b5955db2a77e7a81dac389107ebb8bce9fb649689060600160405180910390a15050505050505050565b6000808461011b0154670de0b6b3a764000085612a5b9190612d27565b612a659190612d3e565b90506000612a738483612ddf565b9050612a7f8482612d27565b612a899083612d14565b61011b8701559150509392505050565b6040518061012001604052806000815260200160008152602001600081526020016000815260200160008152602001600081526020016000815260200160008152602001600081525090565b6001600160a81b0381168114612afa57600080fd5b50565b60008135612b0a81612ae5565b6001600160a01b031692915050565b600080600060608486031215612b2e57600080fd5b8335612b3981612ae5565b6001600160a01b031695602085013595506040909401359392505050565b634e487b7160e01b600052604160045260246000fd5b60008060408385031215612b8057600080fd5b8235612b8b81612ae5565b6001600160a01b0316915060208381013567ffffffffffffffff80821115612bb257600080fd5b818601915086601f830112612bc657600080fd5b813581811115612bd857612bd8612b57565b8060051b604051601f19603f83011681018181108582111715612bfd57612bfd612b57565b604052918252848201925083810185019189831115612c1b57600080fd5b938501935b82851015612c4057612c3185612afd565b84529385019392850192612c20565b8096505050505050509250929050565b60008060408385031215612c6357600080fd5b8235612c6e81612ae5565b6001600160a01b039081169250602084013590612c8a82612ae5565b92959216935090915050565b600060208284031215612ca857600080fd5b8151612cb381612ae5565b6001600160a01b03169392505050565b600060208284031215612cd557600080fd5b5051919050565b600060208284031215612cee57600080fd5b8151801515811461286757600080fd5b634e487b7160e01b600052601160045260246000fd5b818103818111156114e4576114e4612cfe565b80820281158282048414176114e4576114e4612cfe565b808201808211156114e4576114e4612cfe565b60208082526022908201527f54726f76654d616e616765723a206e6f7468696e6720746f206c697175696461604082015261746560f01b606082015260800190565b634e487b7160e01b600052603260045260246000fd5b60008060008060808587031215612dbf57600080fd5b505082516020840151604085015160609095015191969095509092509050565b600082612dfc57634e487b7160e01b600052601260045260246000fd5b500490565b600060208284031215612e1357600080fd5b815160ff8116811461286757600080fd5b600080600060608486031215612e3957600080fd5b8351925060208401519150604084015190509250925092565b60ff82811682821603908111156114e4576114e4612cfe565b600181815b80851115612ea6578160001904821115612e8c57612e8c612cfe565b80851615612e9957918102915b93841c9390800290612e70565b509250929050565b600082612ebd575060016114e4565b81612eca575060006114e4565b8160018114612ee05760028114612eea57612f06565b60019150506114e4565b60ff841115612efb57612efb612cfe565b50506001821b6114e4565b5060208310610133831016604e8410600b8410161715612f29575081810a6114e4565b612f338383612e6b565b8060001904821115612f4757612f47612cfe565b029392505050565b600061286760ff841683612eae565b6001600160801b03818116838216019080821115612f7e57612f7e612cfe565b509291505056fea26474726f6e58221220bad77a720940ee46fcf34e30230b9c53960c8d444c5ee773587df7a1e6c53a3064736f6c63430008160033",
  "source": "// SPDX-License-Identifier: MIT\npragma solidity ^0.8.20;\n\nimport { SatoshiMath } from \"../../library/SatoshiMath.sol\";\n\nimport { AppStorage } from \"../AppStorage.sol\";\nimport { Config } from \"../Config.sol\";\nimport {\n    ILiquidationFacet,\n    LiquidationTotals,\n    LiquidationValues,\n    TroveManagerValues\n} from \"../interfaces/ILiquidationFacet.sol\";\nimport { ISortedTroves } from \"../interfaces/ISortedTroves.sol\";\nimport { IStabilityPoolFacet } from \"../interfaces/IStabilityPoolFacet.sol\";\nimport { ITroveManager } from \"../interfaces/ITroveManager.sol\";\n\nimport { BorrowerOperationsLib } from \"../libs/BorrowerOperationsLib.sol\";\nimport { StabilityPoolLib } from \"../libs/StabilityPoolLib.sol\";\nimport { AccessControlInternal } from \"@solidstate/contracts/access/access_control/AccessControlInternal.sol\";\nimport { OwnableInternal } from \"@solidstate/contracts/access/ownable/OwnableInternal.sol\";\nimport { ISolidStateERC20 } from \"@solidstate/contracts/token/ERC20/ISolidStateERC20.sol\";\nimport { IERC20Metadata } from \"@solidstate/contracts/token/ERC20/metadata/IERC20Metadata.sol\";\n\ncontract LiquidationFacet is ILiquidationFacet, AccessControlInternal, OwnableInternal {\n    using StabilityPoolLib for AppStorage.Layout;\n    using BorrowerOperationsLib for AppStorage.Layout;\n\n    // --- Trove Liquidation functions ---\n\n    /**\n     * @notice Liquidate a single trove\n     *     @dev Reverts if the trove is not active, or cannot be liquidated\n     *     @param borrower Borrower address to liquidate\n     */\n    function liquidate(ITroveManager troveManager, address borrower) external {\n        require(troveManager.getTroveStatus(borrower) == 1, \"TroveManager: Trove does not exist or is closed\");\n\n        address[] memory borrowers = new address[](1);\n        borrowers[0] = borrower;\n        batchLiquidateTroves(troveManager, borrowers);\n    }\n\n    /**\n     * @notice Liquidate a sequence of troves\n     *     @dev Iterates through troves starting with the lowest ICR\n     *     @param maxTrovesToLiquidate The maximum number of troves to liquidate\n     *     @param maxICR Maximum ICR to liquidate. Should be set to MCR if the system\n     *                   is not in recovery mode, to minimize gas costs for this call.\n     */\n    function liquidateTroves(ITroveManager troveManager, uint256 maxTrovesToLiquidate, uint256 maxICR) external {\n        AppStorage.Layout storage s = AppStorage.layout();\n        require(s.enabledTroveManagers[troveManager], \"TroveManager not approved\");\n\n        troveManager.updateBalances();\n\n        ISortedTroves sortedTrovesCached = troveManager.sortedTroves();\n\n        LiquidationValues memory singleLiquidation;\n        LiquidationTotals memory totals;\n        TroveManagerValues memory troveManagerValues;\n\n        uint256 trovesRemaining = maxTrovesToLiquidate;\n        uint256 troveCount = troveManager.getTroveOwnersCount();\n        troveManagerValues.price = troveManager.fetchPrice();\n        troveManagerValues.sunsetting = troveManager.sunsetting();\n        troveManagerValues.MCR = troveManager.MCR();\n        uint256 debtInStabPool = s._getTotalDebtTokenDeposits();\n\n        while (trovesRemaining > 0 && troveCount > 1) {\n            address account = sortedTrovesCached.getLast();\n            uint256 ICR = troveManager.getCurrentICR(account, troveManagerValues.price);\n            if (ICR > maxICR) {\n                // set to 0 to ensure the next if block evaluates false\n                trovesRemaining = 0;\n                break;\n            }\n            if (ICR <= Config._100_PCT && _inRecoveryMode()) {\n                singleLiquidation = _liquidateWithoutSP(s, troveManager, account);\n                _applyLiquidationValuesToTotals(totals, singleLiquidation);\n            } else if (ICR < troveManagerValues.MCR) {\n                singleLiquidation =\n                    _liquidateNormalMode(s, troveManager, account, debtInStabPool, troveManagerValues.sunsetting);\n                debtInStabPool -= singleLiquidation.debtToOffset;\n                _applyLiquidationValuesToTotals(totals, singleLiquidation);\n            } else {\n                break;\n            } // break if the loop reaches a Trove with ICR >= MCR\n            unchecked {\n                --trovesRemaining;\n                --troveCount;\n            }\n        }\n        if (trovesRemaining > 0 && !troveManagerValues.sunsetting && troveCount > 1) {\n            (uint256 entireSystemColl, uint256 entireSystemDebt) = s._getGlobalSystemBalances();\n            entireSystemColl -= totals.totalCollToSendToSP * troveManagerValues.price + totals.totalCollGasCompensation;\n            entireSystemDebt -= totals.totalDebtToOffset;\n            address nextAccount = sortedTrovesCached.getLast();\n            ITroveManager _troveManager = troveManager; //stack too deep workaround\n            while (trovesRemaining > 0 && troveCount > 1) {\n                uint256 ICR = troveManager.getCurrentICR(nextAccount, troveManagerValues.price);\n                if (ICR > maxICR) break;\n                unchecked {\n                    --trovesRemaining;\n                }\n                address account = nextAccount;\n                nextAccount = sortedTrovesCached.getPrev(account);\n\n                uint256 TCR = SatoshiMath._computeCR(entireSystemColl, entireSystemDebt);\n                if (TCR >= Config.CCR || ICR >= TCR) break;\n\n                singleLiquidation = _tryLiquidateWithCap(\n                    _troveManager, account, debtInStabPool, troveManagerValues.MCR, troveManagerValues.price\n                );\n                if (singleLiquidation.debtToOffset == 0) continue;\n                debtInStabPool -= singleLiquidation.debtToOffset;\n                entireSystemColl -= (singleLiquidation.collToSendToSP + singleLiquidation.collSurplus)\n                    * troveManagerValues.price;\n                entireSystemDebt -= singleLiquidation.debtToOffset;\n                _applyLiquidationValuesToTotals(totals, singleLiquidation);\n                unchecked {\n                    --troveCount;\n                }\n            }\n        }\n\n        require(totals.totalDebtInSequence > 0, \"TroveManager: nothing to liquidate\");\n        if (totals.totalDebtToOffset > 0 || totals.totalCollToSendToSP > 0) {\n            // Move liquidated collateral and Debt to the appropriate pools\n            s._offset(troveManager.collateralToken(), totals.totalDebtToOffset, totals.totalCollToSendToSP);\n            troveManager.decreaseDebtAndSendCollateral(\n                address(this), totals.totalDebtToOffset, totals.totalCollToSendToSP\n            );\n        }\n        troveManager.finalizeLiquidation(\n            msg.sender,\n            totals.totalDebtToRedistribute,\n            totals.totalCollToRedistribute,\n            totals.totalCollSurplus,\n            totals.totalDebtGasCompensation,\n            totals.totalCollGasCompensation\n        );\n\n        emit LiquidationTroves(\n            address(troveManager),\n            totals.totalDebtInSequence,\n            totals.totalCollInSequence - totals.totalCollGasCompensation - totals.totalCollSurplus,\n            totals.totalCollGasCompensation,\n            totals.totalDebtGasCompensation\n        );\n    }\n\n    /**\n     * @notice Liquidate a custom list of troves\n     *     @dev Reverts if there is not a single trove that can be liquidated\n     *     @param _troveArray List of borrower addresses to liquidate. Troves that were already\n     *                        liquidated, or cannot be liquidated, are ignored.\n     */\n    /*\n     * Attempt to liquidate a custom list of troves provided by the caller.\n     */\n    function batchLiquidateTroves(ITroveManager troveManager, address[] memory _troveArray) public {\n        AppStorage.Layout storage s = AppStorage.layout();\n        require(s.enabledTroveManagers[troveManager], \"TroveManager not approved\");\n        require(_troveArray.length != 0, \"TroveManager: Calldata address array must not be empty\");\n        troveManager.updateBalances();\n\n        LiquidationValues memory singleLiquidation;\n        LiquidationTotals memory totals;\n        TroveManagerValues memory troveManagerValues;\n\n        uint256 debtInStabPool = s._getTotalDebtTokenDeposits();\n        troveManagerValues.price = troveManager.fetchPrice();\n        troveManagerValues.sunsetting = troveManager.sunsetting();\n        troveManagerValues.MCR = troveManager.MCR();\n        uint256 troveCount = troveManager.getTroveOwnersCount();\n        uint256 length = _troveArray.length;\n        uint256 troveIter;\n        while (troveIter < length && troveCount > 1) {\n            // first iteration round, when all liquidated troves have ICR < MCR we do not need to track TCR\n            address account = _troveArray[troveIter];\n\n            // closed / non-existent troves return an ICR of type(uint).max and are ignored\n            uint256 ICR = troveManager.getCurrentICR(account, troveManagerValues.price);\n            if (ICR <= Config._100_PCT && _inRecoveryMode()) {\n                singleLiquidation = _liquidateWithoutSP(s, troveManager, account);\n            } else if (ICR < troveManagerValues.MCR) {\n                singleLiquidation =\n                    _liquidateNormalMode(s, troveManager, account, debtInStabPool, troveManagerValues.sunsetting);\n                debtInStabPool -= singleLiquidation.debtToOffset;\n            } else {\n                // As soon as we find a trove with ICR >= MCR we need to start tracking the global TCR with the next loop\n                break;\n            }\n            _applyLiquidationValuesToTotals(totals, singleLiquidation);\n            unchecked {\n                ++troveIter;\n                --troveCount;\n            }\n        }\n\n        if (troveIter < length && troveCount > 1) {\n            // second iteration round, if we receive a trove with ICR > MCR and need to track TCR\n            (uint256 entireSystemColl, uint256 entireSystemDebt) = s._getGlobalSystemBalances();\n            entireSystemColl -= totals.totalCollToSendToSP * troveManagerValues.price + totals.totalCollGasCompensation;\n            entireSystemDebt -= totals.totalDebtToOffset;\n            while (troveIter < length && troveCount > 1) {\n                address account = _troveArray[troveIter];\n                uint256 ICR = troveManager.getCurrentICR(account, troveManagerValues.price);\n                unchecked {\n                    ++troveIter;\n                }\n                if (ICR <= Config._100_PCT && _inRecoveryMode()) {\n                    singleLiquidation = _liquidateWithoutSP(s, troveManager, account);\n                } else if (ICR < troveManagerValues.MCR) {\n                    singleLiquidation =\n                        _liquidateNormalMode(s, troveManager, account, debtInStabPool, troveManagerValues.sunsetting);\n                } else {\n                    if (troveManagerValues.sunsetting) continue;\n                    uint256 TCR = SatoshiMath._computeCR(entireSystemColl, entireSystemDebt);\n                    if (TCR >= Config.CCR || ICR >= TCR) continue;\n                    singleLiquidation = _tryLiquidateWithCap(\n                        troveManager, account, debtInStabPool, troveManagerValues.MCR, troveManagerValues.price\n                    );\n                    if (singleLiquidation.debtToOffset == 0) continue;\n                }\n\n                debtInStabPool -= singleLiquidation.debtToOffset;\n                entireSystemColl -= (singleLiquidation.collToSendToSP + singleLiquidation.collSurplus)\n                    * troveManagerValues.price + singleLiquidation.collGasCompensation;\n                entireSystemDebt -= singleLiquidation.debtToOffset;\n                _applyLiquidationValuesToTotals(totals, singleLiquidation);\n                unchecked {\n                    --troveCount;\n                }\n            }\n        }\n\n        require(totals.totalDebtInSequence > 0, \"TroveManager: nothing to liquidate\");\n\n        if (totals.totalDebtToOffset > 0 || totals.totalCollToSendToSP > 0) {\n            // Move liquidated collateral and Debt to the appropriate pools\n            s._offset(troveManager.collateralToken(), totals.totalDebtToOffset, totals.totalCollToSendToSP);\n            troveManager.decreaseDebtAndSendCollateral(\n                address(this), totals.totalDebtToOffset, totals.totalCollToSendToSP\n            );\n        }\n        troveManager.finalizeLiquidation(\n            msg.sender,\n            totals.totalDebtToRedistribute,\n            totals.totalCollToRedistribute,\n            totals.totalCollSurplus,\n            totals.totalDebtGasCompensation,\n            totals.totalCollGasCompensation\n        );\n\n        emit LiquidationTroves(\n            address(troveManager),\n            totals.totalDebtInSequence,\n            totals.totalCollInSequence - totals.totalCollGasCompensation - totals.totalCollSurplus,\n            totals.totalCollGasCompensation,\n            totals.totalDebtGasCompensation\n        );\n    }\n\n    /**\n     * @dev Perform a \"normal\" liquidation, where ICR < MCR. The trove\n     *          is liquidated as much as possible using the stability pool. Any\n     *          remaining debt and collateral are redistributed between active troves.\n     */\n    function _liquidateNormalMode(\n        AppStorage.Layout storage s,\n        ITroveManager troveManager,\n        address _borrower,\n        uint256 _debtInStabPool,\n        bool sunsetting\n    )\n        internal\n        returns (LiquidationValues memory singleLiquidation)\n    {\n        uint256 pendingDebtReward;\n        uint256 pendingCollReward;\n\n        (singleLiquidation.entireTroveDebt, singleLiquidation.entireTroveColl, pendingDebtReward, pendingCollReward) =\n            troveManager.getEntireDebtAndColl(_borrower);\n\n        troveManager.movePendingTroveRewardsToActiveBalances(pendingDebtReward, pendingCollReward);\n\n        singleLiquidation.collGasCompensation = SatoshiMath._getCollGasCompensation(singleLiquidation.entireTroveColl);\n        singleLiquidation.debtGasCompensation = s.gasCompensation;\n        uint256 collToLiquidate = singleLiquidation.entireTroveColl - singleLiquidation.collGasCompensation;\n\n        (\n            singleLiquidation.debtToOffset,\n            singleLiquidation.collToSendToSP,\n            singleLiquidation.debtToRedistribute,\n            singleLiquidation.collToRedistribute\n        ) =\n            _getOffsetAndRedistributionVals(\n                singleLiquidation.entireTroveDebt, collToLiquidate, _debtInStabPool, sunsetting\n            );\n\n        troveManager.closeTroveByLiquidation(_borrower);\n\n        return singleLiquidation;\n    }\n\n    /**\n     * @dev Attempt to liquidate a single trove in recovery mode.\n     *          If MCR <= ICR < current TCR (accounting for the preceding liquidations in the current sequence)\n     *          and there is Debt in the Stability Pool, only offset, with no redistribution,\n     *          but at a capped rate of 1.1 and only if the whole debt can be liquidated.\n     *          The remainder due to the capped rate will be claimable as collateral surplus.\n     */\n    function _tryLiquidateWithCap(\n        ITroveManager troveManager,\n        address _borrower,\n        uint256 _debtInStabPool,\n        uint256 _MCR,\n        uint256 _price\n    )\n        internal\n        returns (LiquidationValues memory singleLiquidation)\n    {\n        uint256 entireTroveDebt;\n        uint256 entireTroveColl;\n        uint256 pendingDebtReward;\n        uint256 pendingCollReward;\n\n        (entireTroveDebt, entireTroveColl, pendingDebtReward, pendingCollReward) =\n            troveManager.getEntireDebtAndColl(_borrower);\n\n        if (entireTroveDebt > _debtInStabPool) {\n            // do not liquidate if the entire trove cannot be liquidated via SP\n            return singleLiquidation;\n        }\n\n        troveManager.movePendingTroveRewardsToActiveBalances(pendingDebtReward, pendingCollReward);\n\n        singleLiquidation.entireTroveDebt = entireTroveDebt;\n        singleLiquidation.entireTroveColl = entireTroveColl;\n        uint256 collToOffset = SatoshiMath._getOriginalCollateralAmount(\n            (entireTroveDebt * _MCR) / _price, IERC20Metadata(address(troveManager.collateralToken())).decimals()\n        );\n\n        singleLiquidation.collGasCompensation = SatoshiMath._getCollGasCompensation(collToOffset);\n        singleLiquidation.debtGasCompensation = AppStorage.layout().gasCompensation;\n\n        singleLiquidation.debtToOffset = entireTroveDebt;\n        singleLiquidation.collToSendToSP = collToOffset - singleLiquidation.collGasCompensation;\n\n        troveManager.closeTroveByLiquidation(_borrower);\n\n        uint256 collSurplus = entireTroveColl - collToOffset;\n        if (collSurplus > 0) {\n            singleLiquidation.collSurplus = collSurplus;\n            troveManager.addCollateralSurplus(_borrower, collSurplus);\n        }\n\n        return singleLiquidation;\n    }\n\n    /**\n     * @dev Liquidate a trove without using the stability pool. All debt and collateral\n     *          are distributed porportionally between the remaining active troves.\n     */\n    function _liquidateWithoutSP(\n        AppStorage.Layout storage s,\n        ITroveManager troveManager,\n        address _borrower\n    )\n        internal\n        returns (LiquidationValues memory singleLiquidation)\n    {\n        uint256 pendingDebtReward;\n        uint256 pendingCollReward;\n\n        (singleLiquidation.entireTroveDebt, singleLiquidation.entireTroveColl, pendingDebtReward, pendingCollReward) =\n            troveManager.getEntireDebtAndColl(_borrower);\n\n        singleLiquidation.collGasCompensation = SatoshiMath._getCollGasCompensation(singleLiquidation.entireTroveColl);\n        singleLiquidation.debtGasCompensation = s.gasCompensation;\n        troveManager.movePendingTroveRewardsToActiveBalances(pendingDebtReward, pendingCollReward);\n\n        singleLiquidation.debtToOffset = 0;\n        singleLiquidation.collToSendToSP = 0;\n        singleLiquidation.debtToRedistribute = singleLiquidation.entireTroveDebt;\n        singleLiquidation.collToRedistribute = singleLiquidation.entireTroveColl - singleLiquidation.collGasCompensation;\n\n        troveManager.closeTroveByLiquidation(_borrower);\n\n        return singleLiquidation;\n    }\n\n    /* In a full liquidation, returns the values for a trove's coll and debt to be offset, and coll and debt to be\n     * redistributed to active troves.\n     */\n    function _getOffsetAndRedistributionVals(\n        uint256 _debt,\n        uint256 _coll,\n        uint256 _debtInStabPool,\n        bool sunsetting\n    )\n        internal\n        pure\n        returns (uint256 debtToOffset, uint256 collToSendToSP, uint256 debtToRedistribute, uint256 collToRedistribute)\n    {\n        if (_debtInStabPool > 0 && !sunsetting) {\n            /*\n             * Offset as much debt & collateral as possible against the Stability Pool, and redistribute the remainder\n             * between all active troves.\n             *\n             *  If the trove's debt is larger than the deposited Debt in the Stability Pool:\n             *\n             *  - Offset an amount of the trove's debt equal to the Debt in the Stability Pool\n             *  - Send a fraction of the trove's collateral to the Stability Pool, equal to the fraction of its offset debt\n             *\n             */\n            debtToOffset = SatoshiMath._min(_debt, _debtInStabPool);\n            collToSendToSP = (_coll * debtToOffset) / _debt;\n            debtToRedistribute = _debt - debtToOffset;\n            collToRedistribute = _coll - collToSendToSP;\n        } else {\n            debtToOffset = 0;\n            collToSendToSP = 0;\n            debtToRedistribute = _debt;\n            collToRedistribute = _coll;\n        }\n    }\n\n    /**\n     * @dev Adds values from `singleLiquidation` to `totals`\n     *          Calling this function mutates `totals`, the change is done in-place\n     *          to avoid needless expansion of memory\n     */\n    function _applyLiquidationValuesToTotals(\n        LiquidationTotals memory totals,\n        LiquidationValues memory singleLiquidation\n    )\n        internal\n        pure\n    {\n        // Tally all the values with their respective running totals\n        totals.totalCollGasCompensation = totals.totalCollGasCompensation + singleLiquidation.collGasCompensation;\n        totals.totalDebtGasCompensation = totals.totalDebtGasCompensation + singleLiquidation.debtGasCompensation;\n        totals.totalDebtInSequence = totals.totalDebtInSequence + singleLiquidation.entireTroveDebt;\n        totals.totalCollInSequence = totals.totalCollInSequence + singleLiquidation.entireTroveColl;\n        totals.totalDebtToOffset = totals.totalDebtToOffset + singleLiquidation.debtToOffset;\n        totals.totalCollToSendToSP = totals.totalCollToSendToSP + singleLiquidation.collToSendToSP;\n        totals.totalDebtToRedistribute = totals.totalDebtToRedistribute + singleLiquidation.debtToRedistribute;\n        totals.totalCollToRedistribute = totals.totalCollToRedistribute + singleLiquidation.collToRedistribute;\n        totals.totalCollSurplus = totals.totalCollSurplus + singleLiquidation.collSurplus;\n    }\n\n    function _inRecoveryMode() internal returns (bool) {\n        AppStorage.Layout storage s = AppStorage.layout();\n        (uint256 _entireSystemColl, uint256 _entireSystemDebt) = s._getGlobalSystemBalances();\n        uint256 TCR = SatoshiMath._computeCR(_entireSystemColl, _entireSystemDebt);\n        return BorrowerOperationsLib._checkRecoveryMode(TCR);\n    }\n}\n",
  "sourcePath": "/Users/ashley/Documents/satoshi/satoshi-v2/src/core/facets/LiquidationFacet.sol",
  "compiler": {
    "name": "solc",
    "version": "0.8.22+commit.5ed3e10f.Emscripten.clang"
  },
  "schemaVersion": "2.0.1",
  "updatedAt": "2026-04-14T07:11:27.747Z"
}