{
  "contractName": "MultiTroveGetter",
  "abi": [
    {
      "inputs": [],
      "stateMutability": "nonpayable",
      "type": "constructor"
    },
    {
      "inputs": [
        {
          "internalType": "contract ITroveManager",
          "name": "troveManager",
          "type": "address"
        },
        {
          "internalType": "int256",
          "name": "_startIdx",
          "type": "int256"
        },
        {
          "internalType": "uint256",
          "name": "_count",
          "type": "uint256"
        },
        {
          "internalType": "uint256",
          "name": "price",
          "type": "uint256"
        }
      ],
      "name": "getMultipleSortedTroves",
      "outputs": [
        {
          "components": [
            {
              "internalType": "address",
              "name": "owner",
              "type": "address"
            },
            {
              "internalType": "uint256",
              "name": "debt",
              "type": "uint256"
            },
            {
              "internalType": "uint256",
              "name": "coll",
              "type": "uint256"
            },
            {
              "internalType": "uint256",
              "name": "stake",
              "type": "uint256"
            },
            {
              "internalType": "uint256",
              "name": "snapshotCollateral",
              "type": "uint256"
            },
            {
              "internalType": "uint256",
              "name": "snapshotDebt",
              "type": "uint256"
            },
            {
              "internalType": "uint256",
              "name": "nominalICR",
              "type": "uint256"
            },
            {
              "internalType": "uint256",
              "name": "currentICR",
              "type": "uint256"
            },
            {
              "internalType": "uint256",
              "name": "entireDebt",
              "type": "uint256"
            },
            {
              "internalType": "uint256",
              "name": "entireColl",
              "type": "uint256"
            },
            {
              "internalType": "uint256",
              "name": "pendingDebtReward",
              "type": "uint256"
            },
            {
              "internalType": "uint256",
              "name": "pendingCollReward",
              "type": "uint256"
            }
          ],
          "internalType": "struct CombinedTroveData[]",
          "name": "_troves",
          "type": "tuple[]"
        }
      ],
      "stateMutability": "view",
      "type": "function"
    }
  ],
  "bytecode": "0x608060405234801561001057600080fd5b50d3801561001d57600080fd5b50d2801561002a57600080fd5b506110588061003a6000396000f3fe608060405234801561001057600080fd5b50d3801561001d57600080fd5b50d2801561002a57600080fd5b50600436106100455760003560e01c80634d1b6fd61461004a575b600080fd5b61005d610058366004610d65565b610073565b60405161006a9190610da9565b60405180910390f35b60606000856001600160a01b031663ae9187546040518163ffffffff1660e01b8152600401602060405180830381865afa1580156100b5573d6000803e3d6000fd5b505050506040513d601f19601f820116820180604052508101906100d99190610e6b565b9050600080600087126100f15750859050600161010c565b6100fc876001610eae565b61010590610ed6565b9150600090505b6000836001600160a01b031663de8fa4316040518163ffffffff1660e01b8152600401602060405180830381865afa15801561014c573d6000803e3d6000fd5b505050506040513d601f19601f820116820180604052508101906101709190610ef2565b90508083106101b25760408051600080825260208201909252906101aa565b610197610ce3565b81526020019060019003908161018f5790505b5094506101f8565b60006101be8483610f21565b9050808811156101cc578097505b82156101e6576101df8a86868b8b610204565b95506101f6565b6101f38a86868b8b610779565b95505b505b50505050949350505050565b60606000856001600160a01b0316631e2231436040518163ffffffff1660e01b8152600401602060405180830381865afa158015610246573d6000803e3d6000fd5b505050506040513d601f19601f8201168201806040525081019061026a9190610e6b565b905060005b858110156102eb5760405163765e015960e01b81526001600160a01b03838116600483015288169063765e015990602401602060405180830381865afa1580156102bd573d6000803e3d6000fd5b505050506040513d601f19601f820116820180604052508101906102e19190610e6b565b915060010161026f565b508367ffffffffffffffff81111561030557610305610f0b565b60405190808252806020026020018201604052801561033e57816020015b61032b610ce3565b8152602001906001900390816103235790505b50915060005b8481101561076e578183828151811061035f5761035f610f3a565b60209081029190910101516001600160a01b039182169052604051633fafb71d60e21b815283821660048201529089169063febedc749060240160c060405180830381865afa1580156103b6573d6000803e3d6000fd5b505050506040513d601f19601f820116820180604052508101906103da9190610f50565b50508651879150859081106103f1576103f1610f3a565b602002602001015160200186858151811061040e5761040e610f3a565b602002602001015160400187868151811061042b5761042b610f3a565b60209081029190910101516060019290925291905252604051630b39e3cd60e11b81526001600160a01b038381166004830152891690631673c79a906024016040805180830381865afa158015610486573d6000803e3d6000fd5b505050506040513d601f19601f820116820180604052508101906104aa9190610fc8565b8483815181106104bc576104bc610f3a565b60200260200101516080018584815181106104d9576104d9610f3a565b602090810291909101015160a001919091525260405163b0d8e18160e01b81526001600160a01b03838116600483015289169063b0d8e18190602401602060405180830381865afa158015610532573d6000803e3d6000fd5b505050506040513d601f19601f820116820180604052508101906105569190610ef2565b83828151811061056857610568610f3a565b602090810291909101015160c00152604051630d293c7160e41b81526001600160a01b0383811660048301526024820186905289169063d293c71090604401602060405180830381865afa1580156105c4573d6000803e3d6000fd5b505050506040513d601f19601f820116820180604052508101906105e89190610ef2565b8382815181106105fa576105fa610f3a565b602090810291909101015160e00152604051632e46be5f60e21b81526001600160a01b03838116600483015289169063b91af97c90602401608060405180830381865afa15801561064f573d6000803e3d6000fd5b505050506040513d601f19601f820116820180604052508101906106739190610fec565b86858151811061068557610685610f3a565b6020026020010151610100018786815181106106a3576106a3610f3a565b6020026020010151610120018887815181106106c1576106c1610f3a565b6020026020010151610140018988815181106106df576106df610f3a565b60209081029190910101516101600193909352929091529190525260405163765e015960e01b81526001600160a01b03838116600483015288169063765e015990602401602060405180830381865afa158015610740573d6000803e3d6000fd5b505050506040513d601f19601f820116820180604052508101906107649190610e6b565b9150600101610344565b505095945050505050565b60606000856001600160a01b0316634d6228316040518163ffffffff1660e01b8152600401602060405180830381865afa1580156107bb573d6000803e3d6000fd5b505050506040513d601f19601f820116820180604052508101906107df9190610e6b565b905060005b8581101561086057604051632dc9c0eb60e21b81526001600160a01b03838116600483015288169063b72703ac90602401602060405180830381865afa158015610832573d6000803e3d6000fd5b505050506040513d601f19601f820116820180604052508101906108569190610e6b565b91506001016107e4565b508367ffffffffffffffff81111561087a5761087a610f0b565b6040519080825280602002602001820160405280156108b357816020015b6108a0610ce3565b8152602001906001900390816108985790505b50915060005b8481101561076e57818382815181106108d4576108d4610f3a565b60209081029190910101516001600160a01b039182169052604051633fafb71d60e21b815283821660048201529089169063febedc749060240160c060405180830381865afa15801561092b573d6000803e3d6000fd5b505050506040513d601f19601f8201168201806040525081019061094f9190610f50565b505086518791508590811061096657610966610f3a565b602002602001015160200186858151811061098357610983610f3a565b60200260200101516040018786815181106109a0576109a0610f3a565b60209081029190910101516060019290925291905252604051630b39e3cd60e11b81526001600160a01b038381166004830152891690631673c79a906024016040805180830381865afa1580156109fb573d6000803e3d6000fd5b505050506040513d601f19601f82011682018060405250810190610a1f9190610fc8565b848381518110610a3157610a31610f3a565b6020026020010151608001858481518110610a4e57610a4e610f3a565b602090810291909101015160a001919091525260405163b0d8e18160e01b81526001600160a01b03838116600483015289169063b0d8e18190602401602060405180830381865afa158015610aa7573d6000803e3d6000fd5b505050506040513d601f19601f82011682018060405250810190610acb9190610ef2565b838281518110610add57610add610f3a565b602090810291909101015160c00152604051630d293c7160e41b81526001600160a01b0383811660048301526024820186905289169063d293c71090604401602060405180830381865afa158015610b39573d6000803e3d6000fd5b505050506040513d601f19601f82011682018060405250810190610b5d9190610ef2565b838281518110610b6f57610b6f610f3a565b602090810291909101015160e00152604051632e46be5f60e21b81526001600160a01b03838116600483015289169063b91af97c90602401608060405180830381865afa158015610bc4573d6000803e3d6000fd5b505050506040513d601f19601f82011682018060405250810190610be89190610fec565b868581518110610bfa57610bfa610f3a565b602002602001015161010001878681518110610c1857610c18610f3a565b602002602001015161012001888781518110610c3657610c36610f3a565b602002602001015161014001898881518110610c5457610c54610f3a565b602090810291909101015161016001939093529290915291905252604051632dc9c0eb60e21b81526001600160a01b03838116600483015288169063b72703ac90602401602060405180830381865afa158015610cb5573d6000803e3d6000fd5b505050506040513d601f19601f82011682018060405250810190610cd99190610e6b565b91506001016108b9565b60405180610180016040528060006001600160a01b0316815260200160008152602001600081526020016000815260200160008152602001600081526020016000815260200160008152602001600081526020016000815260200160008152602001600081525090565b6001600160a81b0381168114610d6257600080fd5b50565b60008060008060808587031215610d7b57600080fd5b8435610d8681610d4d565b6001600160a01b0316966020860135965060408601359560600135945092505050565b602080825282518282018190526000919060409081850190868401855b82811015610e5e57815180516001600160a01b0316855280870151858801528581015186860152606080820151908601526080808201519086015260a0808201519086015260c0808201519086015260e0808201519086015261010080820151908601526101208082015190860152610140808201519086015261016090810151908501526101809093019290850190600101610dc6565b5091979650505050505050565b600060208284031215610e7d57600080fd5b8151610e8881610d4d565b6001600160a01b03169392505050565b634e487b7160e01b600052601160045260246000fd5b8082018281126000831280158216821582161715610ece57610ece610e98565b505092915050565b6000600160ff1b8201610eeb57610eeb610e98565b5060000390565b600060208284031215610f0457600080fd5b5051919050565b634e487b7160e01b600052604160045260246000fd5b81810381811115610f3457610f34610e98565b92915050565b634e487b7160e01b600052603260045260246000fd5b60008060008060008060c08789031215610f6957600080fd5b865195506020870151945060408701519350606087015160058110610f8d57600080fd5b60808801519093506fffffffffffffffffffffffffffffffff81168114610fb357600080fd5b8092505060a087015190509295509295509295565b60008060408385031215610fdb57600080fd5b505080516020909101519092909150565b6000806000806080858703121561100257600080fd5b50508251602084015160408501516060909501519196909550909250905056fea26474726f6e58221220e36d2b9d9f815fc95c5a4dc204da17a8739310051bd8da602110fc670ec8827964736f6c63430008160033",
  "source": "// SPDX-License-Identifier: MIT\npragma solidity ^0.8.20;\n\nimport { ISortedTroves } from \"../interfaces/ISortedTroves.sol\";\nimport { ITroveManager } from \"../interfaces/ITroveManager.sol\";\nimport { CombinedTroveData, IMultiTroveGetter } from \"./interfaces/IMultiTroveGetter.sol\";\n\ncontract MultiTroveGetter is IMultiTroveGetter {\n    constructor() { }\n\n    function getMultipleSortedTroves(\n        ITroveManager troveManager,\n        int256 _startIdx,\n        uint256 _count,\n        uint256 price\n    )\n        external\n        view\n        returns (CombinedTroveData[] memory _troves)\n    {\n        ISortedTroves sortedTroves = ISortedTroves(troveManager.sortedTroves());\n        uint256 startIdx;\n        bool descend;\n\n        if (_startIdx >= 0) {\n            startIdx = uint256(_startIdx);\n            descend = true;\n        } else {\n            startIdx = uint256(-(_startIdx + 1));\n            descend = false;\n        }\n\n        uint256 sortedTrovesSize = sortedTroves.getSize();\n\n        if (startIdx >= sortedTrovesSize) {\n            _troves = new CombinedTroveData[](0);\n        } else {\n            uint256 maxCount = sortedTrovesSize - startIdx;\n\n            if (_count > maxCount) {\n                _count = maxCount;\n            }\n\n            if (descend) {\n                _troves = _getMultipleSortedTrovesFromHead(troveManager, sortedTroves, startIdx, _count, price);\n            } else {\n                _troves = _getMultipleSortedTrovesFromTail(troveManager, sortedTroves, startIdx, _count, price);\n            }\n        }\n    }\n\n    function _getMultipleSortedTrovesFromHead(\n        ITroveManager troveManager,\n        ISortedTroves sortedTroves,\n        uint256 _startIdx,\n        uint256 _count,\n        uint256 price\n    )\n        internal\n        view\n        returns (CombinedTroveData[] memory _troves)\n    {\n        address currentTroveowner = sortedTroves.getFirst();\n\n        for (uint256 idx = 0; idx < _startIdx; ++idx) {\n            currentTroveowner = sortedTroves.getNext(currentTroveowner);\n        }\n\n        _troves = new CombinedTroveData[](_count);\n\n        for (uint256 idx = 0; idx < _count; ++idx) {\n            _troves[idx].owner = currentTroveowner;\n            (\n                _troves[idx].debt,\n                _troves[idx].coll,\n                _troves[idx].stake,\n                /* status */\n                /* arrayIndex */\n                /* interestIndex */,,\n            ) = troveManager.troves(currentTroveowner);\n\n            (_troves[idx].snapshotCollateral, _troves[idx].snapshotDebt) =\n                troveManager.rewardSnapshots(currentTroveowner);\n\n            _troves[idx].nominalICR = troveManager.getNominalICR(currentTroveowner);\n            _troves[idx].currentICR = troveManager.getCurrentICR(currentTroveowner, price);\n\n            (\n                _troves[idx].entireDebt,\n                _troves[idx].entireColl,\n                _troves[idx].pendingDebtReward,\n                _troves[idx].pendingCollReward\n            ) = troveManager.getEntireDebtAndColl(currentTroveowner);\n\n            currentTroveowner = sortedTroves.getNext(currentTroveowner);\n        }\n    }\n\n    function _getMultipleSortedTrovesFromTail(\n        ITroveManager troveManager,\n        ISortedTroves sortedTroves,\n        uint256 _startIdx,\n        uint256 _count,\n        uint256 price\n    )\n        internal\n        view\n        returns (CombinedTroveData[] memory _troves)\n    {\n        address currentTroveowner = sortedTroves.getLast();\n\n        for (uint256 idx = 0; idx < _startIdx; ++idx) {\n            currentTroveowner = sortedTroves.getPrev(currentTroveowner);\n        }\n\n        _troves = new CombinedTroveData[](_count);\n\n        for (uint256 idx = 0; idx < _count; ++idx) {\n            _troves[idx].owner = currentTroveowner;\n            (\n                _troves[idx].debt,\n                _troves[idx].coll,\n                _troves[idx].stake,\n                /* status */\n                /* arrayIndex */\n                /* interestIndex */,,\n            ) = troveManager.troves(currentTroveowner);\n\n            (_troves[idx].snapshotCollateral, _troves[idx].snapshotDebt) =\n                troveManager.rewardSnapshots(currentTroveowner);\n\n            _troves[idx].nominalICR = troveManager.getNominalICR(currentTroveowner);\n            _troves[idx].currentICR = troveManager.getCurrentICR(currentTroveowner, price);\n\n            (\n                _troves[idx].entireDebt,\n                _troves[idx].entireColl,\n                _troves[idx].pendingDebtReward,\n                _troves[idx].pendingCollReward\n            ) = troveManager.getEntireDebtAndColl(currentTroveowner);\n\n            currentTroveowner = sortedTroves.getPrev(currentTroveowner);\n        }\n    }\n}\n",
  "sourcePath": "/Users/ashley/Documents/satoshi/satoshi-v2/src/core/helpers/MultiTroveGetter.sol",
  "compiler": {
    "name": "solc",
    "version": "0.8.22+commit.5ed3e10f.Emscripten.clang"
  },
  "schemaVersion": "2.0.1",
  "updatedAt": "2026-04-14T07:11:27.761Z"
}