{
  "contractName": "MultiCollateralHintHelpers",
  "abi": [
    {
      "inputs": [
        {
          "internalType": "address",
          "name": "_satoshiXApp",
          "type": "address"
        }
      ],
      "stateMutability": "nonpayable",
      "type": "constructor"
    },
    {
      "inputs": [
        {
          "internalType": "uint256",
          "name": "_coll",
          "type": "uint256"
        },
        {
          "internalType": "uint256",
          "name": "_debt",
          "type": "uint256"
        },
        {
          "internalType": "uint256",
          "name": "_price",
          "type": "uint256"
        }
      ],
      "name": "computeCR",
      "outputs": [
        {
          "internalType": "uint256",
          "name": "",
          "type": "uint256"
        }
      ],
      "stateMutability": "pure",
      "type": "function"
    },
    {
      "inputs": [
        {
          "internalType": "uint256",
          "name": "_coll",
          "type": "uint256"
        },
        {
          "internalType": "uint256",
          "name": "_debt",
          "type": "uint256"
        }
      ],
      "name": "computeNominalCR",
      "outputs": [
        {
          "internalType": "uint256",
          "name": "",
          "type": "uint256"
        }
      ],
      "stateMutability": "pure",
      "type": "function"
    },
    {
      "inputs": [
        {
          "internalType": "contract ITroveManager",
          "name": "troveManager",
          "type": "address"
        },
        {
          "internalType": "uint256",
          "name": "_CR",
          "type": "uint256"
        },
        {
          "internalType": "uint256",
          "name": "_numTrials",
          "type": "uint256"
        },
        {
          "internalType": "uint256",
          "name": "_inputRandomSeed",
          "type": "uint256"
        }
      ],
      "name": "getApproxHint",
      "outputs": [
        {
          "internalType": "address",
          "name": "hintAddress",
          "type": "address"
        },
        {
          "internalType": "uint256",
          "name": "diff",
          "type": "uint256"
        },
        {
          "internalType": "uint256",
          "name": "latestRandomSeed",
          "type": "uint256"
        }
      ],
      "stateMutability": "view",
      "type": "function"
    },
    {
      "inputs": [
        {
          "internalType": "contract ITroveManager",
          "name": "troveManager",
          "type": "address"
        },
        {
          "internalType": "uint256",
          "name": "_debtAmount",
          "type": "uint256"
        },
        {
          "internalType": "uint256",
          "name": "_price",
          "type": "uint256"
        },
        {
          "internalType": "uint256",
          "name": "_maxIterations",
          "type": "uint256"
        }
      ],
      "name": "getRedemptionHints",
      "outputs": [
        {
          "internalType": "address",
          "name": "firstRedemptionHint",
          "type": "address"
        },
        {
          "internalType": "uint256",
          "name": "partialRedemptionHintNICR",
          "type": "uint256"
        },
        {
          "internalType": "uint256",
          "name": "truncatedDebtAmount",
          "type": "uint256"
        }
      ],
      "stateMutability": "view",
      "type": "function"
    },
    {
      "inputs": [],
      "name": "satoshiXApp",
      "outputs": [
        {
          "internalType": "address",
          "name": "",
          "type": "address"
        }
      ],
      "stateMutability": "view",
      "type": "function"
    }
  ],
  "bytecode": "0x60a060405234801561001057600080fd5b50d3801561001d57600080fd5b50d2801561002a57600080fd5b5060405161108a38038061108a8339810160408190526100499161005a565b6001600160a01b0316608052610093565b60006020828403121561006c57600080fd5b81516001600160a81b038116811461008357600080fd5b6001600160a01b03169392505050565b608051610fc86100c26000396000818160ec01528181610480015281816105b401526106b00152610fc86000f3fe608060405234801561001057600080fd5b50d3801561001d57600080fd5b50d2801561002a57600080fd5b50600436106100715760003560e01c8063301be45914610076578063525acdbb146100b3578063701526b4146100d4578063b76b0c08146100e7578063c394a7fa14610126575b600080fd5b610089610084366004610c94565b610139565b604080516001600160a01b0390941684526020840192909252908201526060015b60405180910390f35b6100c66100c1366004610cd8565b6107f9565b6040519081526020016100aa565b6100896100e2366004610c94565b610810565b61010e7f000000000000000000000000000000000000000000000000000000000000000081565b6040516001600160a01b0390911681526020016100aa565b6100c6610134366004610d04565b610b38565b600080600061016560405180606001604052806000815260200160008152602001600060ff1681525090565b6000886001600160a01b031663ae9187546040518163ffffffff1660e01b8152600401602060405180830381865afa1580156101a5573d6000803e3d6000fd5b505050506040513d601f19601f820116820180604052508101906101c99190610d26565b905060008890506000826001600160a01b0316634d6228316040518163ffffffff1660e01b8152600401602060405180830381865afa158015610210573d6000803e3d6000fd5b505050506040513d601f19601f820116820180604052508101906102349190610d26565b90508a6001600160a01b031663794e57246040518163ffffffff1660e01b8152600401602060405180830381865afa158015610274573d6000803e3d6000fd5b505050506040513d601f19601f820116820180604052508101906102989190610d53565b8460000181815250508a6001600160a01b031663b2016bd46040518163ffffffff1660e01b8152600401602060405180830381865afa1580156102df573d6000803e3d6000fd5b505050506040513d601f19601f820116820180604052508101906103039190610d26565b6001600160a01b031663313ce5676040518163ffffffff1660e01b8152600401602060405180830381865afa158015610340573d6000803e3d6000fd5b505050506040513d601f19601f820116820180604052508101906103649190610d6c565b60ff1660408501525b6001600160a01b038116158015906103f557508351604051630d293c7160e41b81526001600160a01b038381166004830152602482018c90528d169063d293c71090604401602060405180830381865afa1580156103cf573d6000803e3d6000fd5b505050506040513d601f19601f820116820180604052508101906103f39190610d53565b105b1561046b57604051632dc9c0eb60e21b81526001600160a01b03828116600483015284169063b72703ac90602401602060405180830381865afa158015610440573d6000803e3d6000fd5b505050506040513d601f19601f820116820180604052508101906104649190610d26565b905061036d565b8096508760000361047c5760001997505b60007f00000000000000000000000000000000000000000000000000000000000000006001600160a01b031663969c24526040518163ffffffff1660e01b8152600401602060405180830381865afa1580156104dc573d6000803e3d6000fd5b505050506040513d601f19601f820116820180604052508101906105009190610d53565b90505b6001600160a01b0382161580159061051b5750600083115b8015610532575060008961052e81610da5565b9a50115b156107de57604051632e46be5f60e21b81526001600160a01b03838116600483015260009182918f169063b91af97c90602401608060405180830381865afa158015610582573d6000803e3d6000fd5b505050506040513d601f19601f820116820180604052508101906105a69190610dbc565b5050915091506000610639837f00000000000000000000000000000000000000000000000000000000000000006001600160a01b03166384f5c2d26040518163ffffffff1660e01b8152600401602060405180830381865afa158015610610573d6000803e3d6000fd5b505050506040513d601f19601f820116820180604052508101906106349190610d53565b610b4d565b90508581111561075c57838111156107545760006106608761065b8785610df2565b610b59565b9050600061068e8f61067a670de0b6b3a764000085610e05565b6106849190610e32565b8b60400151610b6f565b6106989085610df2565b905060006106a68385610df2565b90506000610735827f00000000000000000000000000000000000000000000000000000000000000006001600160a01b03166384f5c2d26040518163ffffffff1660e01b8152600401602060405180830381865afa15801561070c573d6000803e3d6000fd5b505050506040513d601f19601f820116820180604052508101906107309190610d53565b610be6565b90506107418382610bf2565b9d5061074d848b610df2565b9950505050505b5050506107de565b6107668187610df2565b604051632dc9c0eb60e21b81526001600160a01b0387811660048301529197509088169063b72703ac90602401602060405180830381865afa1580156107b0573d6000803e3d6000fd5b505050506040513d601f19601f820116820180604052508101906107d49190610d26565b9450505050610503565b6107e8838c610df2565b955050505050509450945094915050565b6000610806848484610c28565b90505b9392505050565b600080600080876001600160a01b031663ae9187546040518163ffffffff1660e01b8152600401602060405180830381865afa158015610854573d6000803e3d6000fd5b505050506040513d601f19601f820116820180604052508101906108789190610d26565b90506000886001600160a01b03166349eefeee6040518163ffffffff1660e01b8152600401602060405180830381865afa1580156108ba573d6000803e3d6000fd5b505050506040513d601f19601f820116820180604052508101906108de9190610d53565b9050806000036108f957600080879450945094505050610b2e565b816001600160a01b0316634d6228316040518163ffffffff1660e01b8152600401602060405180830381865afa158015610937573d6000803e3d6000fd5b505050506040513d601f19601f8201168201806040525081019061095b9190610d26565b60405163b0d8e18160e01b81526001600160a01b0380831660048301529196506109d4918a91908c169063b0d8e18190602401602060405180830381865afa1580156109ab573d6000803e3d6000fd5b505050506040513d601f19601f820116820180604052508101906109cf9190610d53565b610c59565b935085925060015b87811015610b2a5760408051602081018690520160408051601f19818403018152919052805160209091012093506000610a168386610e46565b604051633669c91160e21b8152600481018290529091506000906001600160a01b038d169063d9a7244490602401602060405180830381865afa158015610a61573d6000803e3d6000fd5b505050506040513d601f19601f82011682018060405250810190610a859190610d26565b60405163b0d8e18160e01b81526001600160a01b0380831660048301529192506000918e169063b0d8e18190602401602060405180830381865afa158015610ad1573d6000803e3d6000fd5b505050506040513d601f19601f82011682018060405250810190610af59190610d53565b90506000610b03828e610c59565b905088811015610b14578098508299505b84610b1e81610e5a565b955050505050506109dc565b5050505b9450945094915050565b6000610b448383610bf2565b90505b92915050565b6000610b448284610df2565b6000818310610b685781610b44565b5090919050565b600080601260111960ff851601610b8857849150610bde565b8060ff168460ff161015610bbc57610ba08482610e73565b610bab90600a610f70565b610bb59086610e32565b9150610bde565b610bc68185610e73565b610bd190600a610f70565b610bdb9086610e05565b91505b509392505050565b6000610b448284610f7f565b60008115610c1f5781610c0e68056bc75e2d6310000085610e05565b610c189190610e32565b9050610b47565b50600019610b47565b60008215610c5057600083610c3d8487610e05565b610c479190610e32565b91506108099050565b50600019610809565b600081831015610c7257610c6d8383610df2565b610b44565b610b448284610df2565b6001600160a81b0381168114610c9157600080fd5b50565b60008060008060808587031215610caa57600080fd5b8435610cb581610c7c565b6001600160a01b0316966020860135965060408601359560600135945092505050565b600080600060608486031215610ced57600080fd5b505081359360208301359350604090920135919050565b60008060408385031215610d1757600080fd5b50508035926020909101359150565b600060208284031215610d3857600080fd5b8151610d4381610c7c565b6001600160a01b03169392505050565b600060208284031215610d6557600080fd5b5051919050565b600060208284031215610d7e57600080fd5b815160ff8116811461080957600080fd5b634e487b7160e01b600052601160045260246000fd5b600081610db457610db4610d8f565b506000190190565b60008060008060808587031215610dd257600080fd5b505082516020840151604085015160609095015191969095509092509050565b81810381811115610b4757610b47610d8f565b8082028115828204841417610b4757610b47610d8f565b634e487b7160e01b600052601260045260246000fd5b600082610e4157610e41610e1c565b500490565b600082610e5557610e55610e1c565b500690565b600060018201610e6c57610e6c610d8f565b5060010190565b60ff8281168282160390811115610b4757610b47610d8f565b600181815b80851115610ec7578160001904821115610ead57610ead610d8f565b80851615610eba57918102915b93841c9390800290610e91565b509250929050565b600082610ede57506001610b47565b81610eeb57506000610b47565b8160018114610f015760028114610f0b57610f27565b6001915050610b47565b60ff841115610f1c57610f1c610d8f565b50506001821b610b47565b5060208310610133831016604e8410600b8410161715610f4a575081810a610b47565b610f548383610e8c565b8060001904821115610f6857610f68610d8f565b029392505050565b6000610b4460ff841683610ecf565b80820180821115610b4757610b47610d8f56fea26474726f6e58221220da632150a9503016c8c1e012b522ac1a03667cd7f0c9a6c3436f26c85c5851ca64736f6c63430008160033",
  "source": "// SPDX-License-Identifier: MIT\npragma solidity ^0.8.20;\n\nimport { SatoshiMath } from \"../../library/SatoshiMath.sol\";\nimport { Config } from \"../Config.sol\";\nimport { IBorrowerOperationsFacet } from \"../interfaces/IBorrowerOperationsFacet.sol\";\nimport { ICoreFacet } from \"../interfaces/ICoreFacet.sol\";\nimport { ISortedTroves } from \"../interfaces/ISortedTroves.sol\";\nimport { ITroveManager } from \"../interfaces/ITroveManager.sol\";\nimport { IMultiCollateralHintHelpers } from \"./interfaces/IMultiCollateralHintHelpers.sol\";\nimport { IERC20Metadata } from \"@openzeppelin/contracts/token/ERC20/extensions/IERC20Metadata.sol\";\n\n/**\n * @title Multiple Collateral Hint Helpers Contract\n *        Mutated from:\n *        https://github.com/prisma-fi/prisma-contracts/blob/main/contracts/core/helpers/MultiCollateralHintHelpers.sol\n *\n */\ncontract MultiCollateralHintHelpers is IMultiCollateralHintHelpers {\n    address public immutable satoshiXApp;\n\n    constructor(address _satoshiXApp) {\n        satoshiXApp = _satoshiXApp;\n    }\n\n    // --- Functions ---\n\n    /* getRedemptionHints() - Helper function for finding the right hints to pass to redeemCollateral().\n     *\n     * It simulates a redemption of `_debtAmount` to figure out where the redemption sequence will start and what state the final Trove\n     * of the sequence will end up in.\n     *\n     * Returns three hints:\n     *  - `firstRedemptionHint` is the address of the first Trove with ICR >= MCR (i.e. the first Trove that will be redeemed).\n     *  - `partialRedemptionHintNICR` is the final nominal ICR of the last Trove of the sequence after being hit by partial redemption,\n     *     or zero in case of no partial redemption.\n     *  - `truncatedDebtAmount` is the maximum amount that can be redeemed out of the the provided `_debtAmount`. This can be lower than\n     *    `_debtAmount` when redeeming the full amount would leave the last Trove of the redemption sequence with less net debt than the\n     *    minimum allowed value (i.e. MIN_NET_DEBT).\n     *\n     * The number of Troves to consider for redemption can be capped by passing a non-zero value as `_maxIterations`, while passing zero\n     * will leave it uncapped.\n     */\n\n    function getRedemptionHints(\n        ITroveManager troveManager,\n        uint256 _debtAmount,\n        uint256 _price,\n        uint256 _maxIterations\n    )\n        external\n        view\n        returns (address firstRedemptionHint, uint256 partialRedemptionHintNICR, uint256 truncatedDebtAmount)\n    {\n        TroveManagerInfo memory info;\n        ISortedTroves sortedTrovesCached = ISortedTroves(troveManager.sortedTroves());\n\n        uint256 remainingDebt = _debtAmount;\n        address currentTroveuser = sortedTrovesCached.getLast();\n        info.MCR = troveManager.MCR();\n        info.decimals = IERC20Metadata(address(troveManager.collateralToken())).decimals();\n\n        while (currentTroveuser != address(0) && troveManager.getCurrentICR(currentTroveuser, _price) < info.MCR) {\n            currentTroveuser = sortedTrovesCached.getPrev(currentTroveuser);\n        }\n\n        firstRedemptionHint = currentTroveuser;\n\n        if (_maxIterations == 0) {\n            _maxIterations = type(uint256).max;\n        }\n\n        uint256 minNetDebt = IBorrowerOperationsFacet(satoshiXApp).minNetDebt();\n        while (currentTroveuser != address(0) && remainingDebt > 0 && _maxIterations-- > 0) {\n            (uint256 debt, uint256 coll,,) = troveManager.getEntireDebtAndColl(currentTroveuser);\n            uint256 netDebt = SatoshiMath._getNetDebt(debt, ICoreFacet(satoshiXApp).gasCompensation());\n\n            if (netDebt > remainingDebt) {\n                if (netDebt > minNetDebt) {\n                    uint256 maxRedeemableDebt = SatoshiMath._min(remainingDebt, netDebt - minNetDebt);\n\n                    uint256 newColl = coll\n                        - SatoshiMath._getOriginalCollateralAmount(\n                            ((maxRedeemableDebt * SatoshiMath.DECIMAL_PRECISION) / _price), info.decimals\n                        );\n                    uint256 newDebt = netDebt - maxRedeemableDebt;\n\n                    uint256 compositeDebt =\n                        SatoshiMath._getCompositeDebt(newDebt, ICoreFacet(satoshiXApp).gasCompensation());\n                    partialRedemptionHintNICR = SatoshiMath._computeNominalCR(newColl, compositeDebt);\n\n                    remainingDebt = remainingDebt - maxRedeemableDebt;\n                }\n                break;\n            } else {\n                remainingDebt = remainingDebt - netDebt;\n            }\n\n            currentTroveuser = sortedTrovesCached.getPrev(currentTroveuser);\n        }\n\n        truncatedDebtAmount = _debtAmount - remainingDebt;\n    }\n\n    /* getApproxHint() - return address of a Trove that is, on average, (length / numTrials) positions away in the\n    sortedTroves list from the correct insert position of the Trove to be inserted.\n\n    Note: The output address is worst-case O(n) positions away from the correct insert position, however, the function\n    is probabilistic. Input can be tuned to guarantee results to a high degree of confidence, e.g:\n\n    Submitting numTrials = k * sqrt(length), with k = 15 makes it very, very likely that the ouput address will\n    be <= sqrt(length) positions away from the correct insert position.\n    */\n    function getApproxHint(\n        ITroveManager troveManager,\n        uint256 _CR,\n        uint256 _numTrials,\n        uint256 _inputRandomSeed\n    )\n        external\n        view\n        returns (address hintAddress, uint256 diff, uint256 latestRandomSeed)\n    {\n        ISortedTroves sortedTroves = ISortedTroves(troveManager.sortedTroves());\n        uint256 arrayLength = troveManager.getTroveOwnersCount();\n\n        if (arrayLength == 0) {\n            return (address(0), 0, _inputRandomSeed);\n        }\n\n        hintAddress = sortedTroves.getLast();\n        diff = SatoshiMath._getAbsoluteDifference(_CR, troveManager.getNominalICR(hintAddress));\n        latestRandomSeed = _inputRandomSeed;\n\n        uint256 i = 1;\n\n        while (i < _numTrials) {\n            latestRandomSeed = uint256(keccak256(abi.encodePacked(latestRandomSeed)));\n\n            uint256 arrayIndex = latestRandomSeed % arrayLength;\n            address currentAddress = troveManager.getTroveFromTroveOwnersArray(arrayIndex);\n            uint256 currentNICR = troveManager.getNominalICR(currentAddress);\n\n            // check if abs(current - CR) > abs(closest - CR), and update closest if current is closer\n            uint256 currentDiff = SatoshiMath._getAbsoluteDifference(currentNICR, _CR);\n\n            if (currentDiff < diff) {\n                diff = currentDiff;\n                hintAddress = currentAddress;\n            }\n            i++;\n        }\n    }\n\n    function computeNominalCR(uint256 _coll, uint256 _debt) external pure returns (uint256) {\n        return SatoshiMath._computeNominalCR(_coll, _debt);\n    }\n\n    function computeCR(uint256 _coll, uint256 _debt, uint256 _price) external pure returns (uint256) {\n        return SatoshiMath._computeCR(_coll, _debt, _price);\n    }\n}\n",
  "sourcePath": "/Users/ashley/Documents/satoshi/satoshi-v2/src/core/helpers/MultiCollateralHintHelpers.sol",
  "compiler": {
    "name": "solc",
    "version": "0.8.22+commit.5ed3e10f.Emscripten.clang"
  },
  "schemaVersion": "2.0.1",
  "updatedAt": "2026-04-14T07:11:27.760Z"
}