{
  "contractName": "NexusYieldManagerFacet",
  "abi": [
    {
      "inputs": [],
      "name": "AlreadyPaused",
      "type": "error"
    },
    {
      "inputs": [
        {
          "internalType": "uint256",
          "name": "feeAmount",
          "type": "uint256"
        }
      ],
      "name": "AmountTooSmall",
      "type": "error"
    },
    {
      "inputs": [
        {
          "internalType": "uint256",
          "name": "assetAmount",
          "type": "uint256"
        },
        {
          "internalType": "uint256",
          "name": "transferAmount",
          "type": "uint256"
        }
      ],
      "name": "AssetNotEnough",
      "type": "error"
    },
    {
      "inputs": [
        {
          "internalType": "address",
          "name": "asset",
          "type": "address"
        }
      ],
      "name": "AssetNotSupported",
      "type": "error"
    },
    {
      "inputs": [
        {
          "internalType": "uint256",
          "name": "dailyMinted",
          "type": "uint256"
        },
        {
          "internalType": "uint256",
          "name": "amountToMint",
          "type": "uint256"
        },
        {
          "internalType": "uint256",
          "name": "dailyDebtTokenMintCap",
          "type": "uint256"
        }
      ],
      "name": "DebtTokenDailyMintCapReached",
      "type": "error"
    },
    {
      "inputs": [
        {
          "internalType": "uint256",
          "name": "debtTokenMinted",
          "type": "uint256"
        },
        {
          "internalType": "uint256",
          "name": "amountToMint",
          "type": "uint256"
        },
        {
          "internalType": "uint256",
          "name": "debtTokenMintCap",
          "type": "uint256"
        }
      ],
      "name": "DebtTokenMintCapReached",
      "type": "error"
    },
    {
      "inputs": [
        {
          "internalType": "uint256",
          "name": "debtTokenMinted",
          "type": "uint256"
        },
        {
          "internalType": "uint256",
          "name": "stableTknAmount",
          "type": "uint256"
        }
      ],
      "name": "DebtTokenMintedUnderflow",
      "type": "error"
    },
    {
      "inputs": [
        {
          "internalType": "uint256",
          "name": "debtTokenAmount",
          "type": "uint256"
        },
        {
          "internalType": "uint256",
          "name": "transferAmount",
          "type": "uint256"
        }
      ],
      "name": "DebtTokenNotEnough",
      "type": "error"
    },
    {
      "inputs": [],
      "name": "InvalidChainId",
      "type": "error"
    },
    {
      "inputs": [
        {
          "internalType": "uint256",
          "name": "feeIn",
          "type": "uint256"
        },
        {
          "internalType": "uint256",
          "name": "feeOut",
          "type": "uint256"
        }
      ],
      "name": "InvalidFee",
      "type": "error"
    },
    {
      "inputs": [
        {
          "internalType": "uint256",
          "name": "price",
          "type": "uint256"
        }
      ],
      "name": "InvalidPrice",
      "type": "error"
    },
    {
      "inputs": [
        {
          "internalType": "address",
          "name": "",
          "type": "address"
        },
        {
          "internalType": "address",
          "name": "",
          "type": "address"
        }
      ],
      "name": "InvalidSourceChainSender",
      "type": "error"
    },
    {
      "inputs": [],
      "name": "NoActiveAssets",
      "type": "error"
    },
    {
      "inputs": [
        {
          "internalType": "uint256",
          "name": "debtBalance",
          "type": "uint256"
        },
        {
          "internalType": "uint256",
          "name": "stableTknAmount",
          "type": "uint256"
        }
      ],
      "name": "NotEnoughDebtToken",
      "type": "error"
    },
    {
      "inputs": [],
      "name": "NotPaused",
      "type": "error"
    },
    {
      "inputs": [
        {
          "internalType": "address",
          "name": "addr",
          "type": "address"
        }
      ],
      "name": "NotPrivileged",
      "type": "error"
    },
    {
      "inputs": [],
      "name": "Paused",
      "type": "error"
    },
    {
      "inputs": [],
      "name": "ReentrancyGuard__ReentrantCall",
      "type": "error"
    },
    {
      "inputs": [
        {
          "internalType": "address",
          "name": "token",
          "type": "address"
        }
      ],
      "name": "SafeERC20FailedOperation",
      "type": "error"
    },
    {
      "inputs": [],
      "name": "UintUtils__InsufficientPadding",
      "type": "error"
    },
    {
      "inputs": [
        {
          "internalType": "uint32",
          "name": "withdrawalTime",
          "type": "uint32"
        }
      ],
      "name": "WithdrawalAlreadyScheduled",
      "type": "error"
    },
    {
      "inputs": [
        {
          "internalType": "uint32",
          "name": "withdrawalTime",
          "type": "uint32"
        }
      ],
      "name": "WithdrawalNotAvailable",
      "type": "error"
    },
    {
      "inputs": [],
      "name": "ZeroAddress",
      "type": "error"
    },
    {
      "inputs": [],
      "name": "ZeroAmount",
      "type": "error"
    },
    {
      "anonymous": false,
      "inputs": [
        {
          "indexed": false,
          "internalType": "address",
          "name": "asset",
          "type": "address"
        },
        {
          "components": [
            {
              "internalType": "uint256",
              "name": "feeIn",
              "type": "uint256"
            },
            {
              "internalType": "uint256",
              "name": "feeOut",
              "type": "uint256"
            },
            {
              "internalType": "uint256",
              "name": "debtTokenMintCap",
              "type": "uint256"
            },
            {
              "internalType": "uint256",
              "name": "dailyDebtTokenMintCap",
              "type": "uint256"
            },
            {
              "internalType": "uint256",
              "name": "debtTokenMinted",
              "type": "uint256"
            },
            {
              "internalType": "uint256",
              "name": "swapWaitingPeriod",
              "type": "uint256"
            },
            {
              "internalType": "uint256",
              "name": "maxPrice",
              "type": "uint256"
            },
            {
              "internalType": "uint256",
              "name": "minPrice",
              "type": "uint256"
            },
            {
              "internalType": "bool",
              "name": "isUsingOracle",
              "type": "bool"
            }
          ],
          "indexed": false,
          "internalType": "struct AssetConfig",
          "name": "config",
          "type": "tuple"
        }
      ],
      "name": "AssetConfigSetting",
      "type": "event"
    },
    {
      "anonymous": false,
      "inputs": [
        {
          "indexed": false,
          "internalType": "address",
          "name": "caller",
          "type": "address"
        },
        {
          "indexed": false,
          "internalType": "address",
          "name": "receiver",
          "type": "address"
        },
        {
          "indexed": false,
          "internalType": "address",
          "name": "asset",
          "type": "address"
        },
        {
          "indexed": false,
          "internalType": "uint256",
          "name": "stableIn",
          "type": "uint256"
        },
        {
          "indexed": false,
          "internalType": "uint256",
          "name": "tokenOut",
          "type": "uint256"
        },
        {
          "indexed": false,
          "internalType": "uint256",
          "name": "fee",
          "type": "uint256"
        }
      ],
      "name": "AssetForDebtTokenSwapped",
      "type": "event"
    },
    {
      "anonymous": false,
      "inputs": [
        {
          "indexed": false,
          "internalType": "address",
          "name": "asset",
          "type": "address"
        }
      ],
      "name": "AssetSunset",
      "type": "event"
    },
    {
      "anonymous": false,
      "inputs": [
        {
          "indexed": false,
          "internalType": "address",
          "name": "caller",
          "type": "address"
        },
        {
          "indexed": false,
          "internalType": "address",
          "name": "receiver",
          "type": "address"
        },
        {
          "indexed": false,
          "internalType": "address",
          "name": "asset",
          "type": "address"
        },
        {
          "indexed": false,
          "internalType": "uint256",
          "name": "debtTokenBurnt",
          "type": "uint256"
        },
        {
          "indexed": false,
          "internalType": "uint256",
          "name": "stableOut",
          "type": "uint256"
        },
        {
          "indexed": false,
          "internalType": "uint256",
          "name": "fee",
          "type": "uint256"
        }
      ],
      "name": "DebtTokenForAssetSwapped",
      "type": "event"
    },
    {
      "anonymous": false,
      "inputs": [
        {
          "indexed": true,
          "internalType": "address",
          "name": "admin",
          "type": "address"
        }
      ],
      "name": "NYMPaused",
      "type": "event"
    },
    {
      "anonymous": false,
      "inputs": [
        {
          "indexed": true,
          "internalType": "address",
          "name": "admin",
          "type": "address"
        }
      ],
      "name": "NYMResumed",
      "type": "event"
    },
    {
      "anonymous": false,
      "inputs": [
        {
          "indexed": false,
          "internalType": "address",
          "name": "privileged",
          "type": "address"
        },
        {
          "indexed": false,
          "internalType": "bool",
          "name": "isPrivileged",
          "type": "bool"
        }
      ],
      "name": "PrivilegedSet",
      "type": "event"
    },
    {
      "anonymous": false,
      "inputs": [
        {
          "indexed": true,
          "internalType": "address",
          "name": "oldTreasury",
          "type": "address"
        },
        {
          "indexed": true,
          "internalType": "address",
          "name": "newTreasury",
          "type": "address"
        }
      ],
      "name": "RewardManagerChanged",
      "type": "event"
    },
    {
      "anonymous": false,
      "inputs": [
        {
          "indexed": true,
          "internalType": "bytes32",
          "name": "role",
          "type": "bytes32"
        },
        {
          "indexed": true,
          "internalType": "bytes32",
          "name": "previousAdminRole",
          "type": "bytes32"
        },
        {
          "indexed": true,
          "internalType": "bytes32",
          "name": "newAdminRole",
          "type": "bytes32"
        }
      ],
      "name": "RoleAdminChanged",
      "type": "event"
    },
    {
      "anonymous": false,
      "inputs": [
        {
          "indexed": true,
          "internalType": "bytes32",
          "name": "role",
          "type": "bytes32"
        },
        {
          "indexed": true,
          "internalType": "address",
          "name": "account",
          "type": "address"
        },
        {
          "indexed": true,
          "internalType": "address",
          "name": "sender",
          "type": "address"
        }
      ],
      "name": "RoleGranted",
      "type": "event"
    },
    {
      "anonymous": false,
      "inputs": [
        {
          "indexed": true,
          "internalType": "bytes32",
          "name": "role",
          "type": "bytes32"
        },
        {
          "indexed": true,
          "internalType": "address",
          "name": "account",
          "type": "address"
        },
        {
          "indexed": true,
          "internalType": "address",
          "name": "sender",
          "type": "address"
        }
      ],
      "name": "RoleRevoked",
      "type": "event"
    },
    {
      "anonymous": false,
      "inputs": [
        {
          "indexed": true,
          "internalType": "address",
          "name": "token",
          "type": "address"
        },
        {
          "indexed": true,
          "internalType": "address",
          "name": "to",
          "type": "address"
        },
        {
          "indexed": false,
          "internalType": "uint256",
          "name": "amount",
          "type": "uint256"
        }
      ],
      "name": "TokenTransferred",
      "type": "event"
    },
    {
      "anonymous": false,
      "inputs": [
        {
          "indexed": false,
          "internalType": "address",
          "name": "asset",
          "type": "address"
        },
        {
          "indexed": false,
          "internalType": "address",
          "name": "user",
          "type": "address"
        },
        {
          "indexed": false,
          "internalType": "uint256",
          "name": "amount",
          "type": "uint256"
        }
      ],
      "name": "Withdraw",
      "type": "event"
    },
    {
      "anonymous": false,
      "inputs": [
        {
          "indexed": false,
          "internalType": "address",
          "name": "asset",
          "type": "address"
        },
        {
          "indexed": false,
          "internalType": "address",
          "name": "user",
          "type": "address"
        },
        {
          "indexed": false,
          "internalType": "uint256",
          "name": "amount",
          "type": "uint256"
        },
        {
          "indexed": false,
          "internalType": "uint256",
          "name": "fee",
          "type": "uint256"
        },
        {
          "indexed": false,
          "internalType": "uint32",
          "name": "time",
          "type": "uint32"
        }
      ],
      "name": "WithdrawalScheduled",
      "type": "event"
    },
    {
      "inputs": [
        {
          "internalType": "address",
          "name": "asset",
          "type": "address"
        },
        {
          "internalType": "uint256",
          "name": "amount",
          "type": "uint256"
        }
      ],
      "name": "convertAssetToDebtTokenAmount",
      "outputs": [
        {
          "internalType": "uint256",
          "name": "",
          "type": "uint256"
        }
      ],
      "stateMutability": "view",
      "type": "function"
    },
    {
      "inputs": [
        {
          "internalType": "address",
          "name": "asset",
          "type": "address"
        },
        {
          "internalType": "uint256",
          "name": "amount",
          "type": "uint256"
        }
      ],
      "name": "convertDebtTokenToAssetAmount",
      "outputs": [
        {
          "internalType": "uint256",
          "name": "",
          "type": "uint256"
        }
      ],
      "stateMutability": "view",
      "type": "function"
    },
    {
      "inputs": [
        {
          "internalType": "address",
          "name": "asset",
          "type": "address"
        }
      ],
      "name": "dailyDebtTokenMintCap",
      "outputs": [
        {
          "internalType": "uint256",
          "name": "",
          "type": "uint256"
        }
      ],
      "stateMutability": "view",
      "type": "function"
    },
    {
      "inputs": [
        {
          "internalType": "address",
          "name": "asset",
          "type": "address"
        }
      ],
      "name": "dailyMintCount",
      "outputs": [
        {
          "internalType": "uint256",
          "name": "",
          "type": "uint256"
        }
      ],
      "stateMutability": "view",
      "type": "function"
    },
    {
      "inputs": [
        {
          "internalType": "address",
          "name": "asset",
          "type": "address"
        }
      ],
      "name": "debtTokenDailyMintCapRemain",
      "outputs": [
        {
          "internalType": "uint256",
          "name": "",
          "type": "uint256"
        }
      ],
      "stateMutability": "view",
      "type": "function"
    },
    {
      "inputs": [
        {
          "internalType": "address",
          "name": "asset",
          "type": "address"
        }
      ],
      "name": "debtTokenMintCap",
      "outputs": [
        {
          "internalType": "uint256",
          "name": "",
          "type": "uint256"
        }
      ],
      "stateMutability": "view",
      "type": "function"
    },
    {
      "inputs": [
        {
          "internalType": "address",
          "name": "asset",
          "type": "address"
        }
      ],
      "name": "debtTokenMinted",
      "outputs": [
        {
          "internalType": "uint256",
          "name": "",
          "type": "uint256"
        }
      ],
      "stateMutability": "view",
      "type": "function"
    },
    {
      "inputs": [
        {
          "internalType": "address",
          "name": "asset",
          "type": "address"
        }
      ],
      "name": "feeIn",
      "outputs": [
        {
          "internalType": "uint256",
          "name": "",
          "type": "uint256"
        }
      ],
      "stateMutability": "view",
      "type": "function"
    },
    {
      "inputs": [
        {
          "internalType": "address",
          "name": "asset",
          "type": "address"
        }
      ],
      "name": "feeOut",
      "outputs": [
        {
          "internalType": "uint256",
          "name": "",
          "type": "uint256"
        }
      ],
      "stateMutability": "view",
      "type": "function"
    },
    {
      "inputs": [
        {
          "internalType": "address",
          "name": "asset",
          "type": "address"
        }
      ],
      "name": "getAssetConfig",
      "outputs": [
        {
          "components": [
            {
              "internalType": "uint256",
              "name": "feeIn",
              "type": "uint256"
            },
            {
              "internalType": "uint256",
              "name": "feeOut",
              "type": "uint256"
            },
            {
              "internalType": "uint256",
              "name": "debtTokenMintCap",
              "type": "uint256"
            },
            {
              "internalType": "uint256",
              "name": "dailyDebtTokenMintCap",
              "type": "uint256"
            },
            {
              "internalType": "uint256",
              "name": "debtTokenMinted",
              "type": "uint256"
            },
            {
              "internalType": "uint256",
              "name": "swapWaitingPeriod",
              "type": "uint256"
            },
            {
              "internalType": "uint256",
              "name": "maxPrice",
              "type": "uint256"
            },
            {
              "internalType": "uint256",
              "name": "minPrice",
              "type": "uint256"
            },
            {
              "internalType": "bool",
              "name": "isUsingOracle",
              "type": "bool"
            }
          ],
          "internalType": "struct AssetConfig",
          "name": "",
          "type": "tuple"
        }
      ],
      "stateMutability": "view",
      "type": "function"
    },
    {
      "inputs": [],
      "name": "getWeightedAssetRate",
      "outputs": [
        {
          "internalType": "uint256",
          "name": "",
          "type": "uint256"
        }
      ],
      "stateMutability": "nonpayable",
      "type": "function"
    },
    {
      "inputs": [
        {
          "internalType": "address",
          "name": "asset",
          "type": "address"
        }
      ],
      "name": "isAssetSupported",
      "outputs": [
        {
          "internalType": "bool",
          "name": "",
          "type": "bool"
        }
      ],
      "stateMutability": "view",
      "type": "function"
    },
    {
      "inputs": [],
      "name": "isNymPaused",
      "outputs": [
        {
          "internalType": "bool",
          "name": "",
          "type": "bool"
        }
      ],
      "stateMutability": "view",
      "type": "function"
    },
    {
      "inputs": [
        {
          "internalType": "address",
          "name": "asset",
          "type": "address"
        }
      ],
      "name": "isUsingOracle",
      "outputs": [
        {
          "internalType": "bool",
          "name": "",
          "type": "bool"
        }
      ],
      "stateMutability": "view",
      "type": "function"
    },
    {
      "inputs": [],
      "name": "pause",
      "outputs": [],
      "stateMutability": "nonpayable",
      "type": "function"
    },
    {
      "inputs": [
        {
          "internalType": "address",
          "name": "asset",
          "type": "address"
        },
        {
          "internalType": "address",
          "name": "account",
          "type": "address"
        }
      ],
      "name": "pendingWithdrawal",
      "outputs": [
        {
          "internalType": "uint256",
          "name": "",
          "type": "uint256"
        },
        {
          "internalType": "uint32",
          "name": "",
          "type": "uint32"
        }
      ],
      "stateMutability": "view",
      "type": "function"
    },
    {
      "inputs": [
        {
          "internalType": "address[]",
          "name": "assets",
          "type": "address[]"
        },
        {
          "internalType": "address",
          "name": "account",
          "type": "address"
        }
      ],
      "name": "pendingWithdrawals",
      "outputs": [
        {
          "internalType": "uint256[]",
          "name": "",
          "type": "uint256[]"
        },
        {
          "internalType": "uint32[]",
          "name": "",
          "type": "uint32[]"
        }
      ],
      "stateMutability": "view",
      "type": "function"
    },
    {
      "inputs": [
        {
          "internalType": "address",
          "name": "asset",
          "type": "address"
        },
        {
          "internalType": "uint256",
          "name": "assetAmount",
          "type": "uint256"
        }
      ],
      "name": "previewSwapIn",
      "outputs": [
        {
          "internalType": "uint256",
          "name": "",
          "type": "uint256"
        },
        {
          "internalType": "uint256",
          "name": "",
          "type": "uint256"
        }
      ],
      "stateMutability": "nonpayable",
      "type": "function"
    },
    {
      "inputs": [
        {
          "internalType": "address",
          "name": "asset",
          "type": "address"
        },
        {
          "internalType": "uint256",
          "name": "amount",
          "type": "uint256"
        }
      ],
      "name": "previewSwapOut",
      "outputs": [
        {
          "internalType": "uint256",
          "name": "",
          "type": "uint256"
        },
        {
          "internalType": "uint256",
          "name": "",
          "type": "uint256"
        }
      ],
      "stateMutability": "nonpayable",
      "type": "function"
    },
    {
      "inputs": [],
      "name": "resume",
      "outputs": [],
      "stateMutability": "nonpayable",
      "type": "function"
    },
    {
      "inputs": [
        {
          "internalType": "address",
          "name": "asset",
          "type": "address"
        },
        {
          "internalType": "uint256",
          "name": "amount",
          "type": "uint256"
        }
      ],
      "name": "scheduleSwapOut",
      "outputs": [
        {
          "internalType": "uint256",
          "name": "",
          "type": "uint256"
        }
      ],
      "stateMutability": "nonpayable",
      "type": "function"
    },
    {
      "inputs": [
        {
          "internalType": "address",
          "name": "asset",
          "type": "address"
        },
        {
          "components": [
            {
              "internalType": "uint256",
              "name": "feeIn",
              "type": "uint256"
            },
            {
              "internalType": "uint256",
              "name": "feeOut",
              "type": "uint256"
            },
            {
              "internalType": "uint256",
              "name": "debtTokenMintCap",
              "type": "uint256"
            },
            {
              "internalType": "uint256",
              "name": "dailyDebtTokenMintCap",
              "type": "uint256"
            },
            {
              "internalType": "uint256",
              "name": "debtTokenMinted",
              "type": "uint256"
            },
            {
              "internalType": "uint256",
              "name": "swapWaitingPeriod",
              "type": "uint256"
            },
            {
              "internalType": "uint256",
              "name": "maxPrice",
              "type": "uint256"
            },
            {
              "internalType": "uint256",
              "name": "minPrice",
              "type": "uint256"
            },
            {
              "internalType": "bool",
              "name": "isUsingOracle",
              "type": "bool"
            }
          ],
          "internalType": "struct AssetConfig",
          "name": "assetConfig_",
          "type": "tuple"
        }
      ],
      "name": "setAssetConfig",
      "outputs": [],
      "stateMutability": "nonpayable",
      "type": "function"
    },
    {
      "inputs": [
        {
          "internalType": "address",
          "name": "account",
          "type": "address"
        },
        {
          "internalType": "bool",
          "name": "isPrivileged_",
          "type": "bool"
        }
      ],
      "name": "setPrivileged",
      "outputs": [],
      "stateMutability": "nonpayable",
      "type": "function"
    },
    {
      "inputs": [
        {
          "internalType": "address",
          "name": "asset",
          "type": "address"
        }
      ],
      "name": "sunsetAsset",
      "outputs": [],
      "stateMutability": "nonpayable",
      "type": "function"
    },
    {
      "inputs": [
        {
          "internalType": "address",
          "name": "asset",
          "type": "address"
        },
        {
          "internalType": "address",
          "name": "receiver",
          "type": "address"
        },
        {
          "internalType": "uint256",
          "name": "assetAmount",
          "type": "uint256"
        }
      ],
      "name": "swapIn",
      "outputs": [
        {
          "internalType": "uint256",
          "name": "",
          "type": "uint256"
        }
      ],
      "stateMutability": "nonpayable",
      "type": "function"
    },
    {
      "inputs": [
        {
          "internalType": "address",
          "name": "asset",
          "type": "address"
        },
        {
          "internalType": "address",
          "name": "receiver",
          "type": "address"
        },
        {
          "internalType": "uint256",
          "name": "assetAmount",
          "type": "uint256"
        }
      ],
      "name": "swapInPrivileged",
      "outputs": [
        {
          "internalType": "uint256",
          "name": "",
          "type": "uint256"
        }
      ],
      "stateMutability": "nonpayable",
      "type": "function"
    },
    {
      "inputs": [
        {
          "internalType": "address",
          "name": "asset",
          "type": "address"
        },
        {
          "internalType": "address",
          "name": "receiver",
          "type": "address"
        },
        {
          "internalType": "uint256",
          "name": "amount",
          "type": "uint256"
        }
      ],
      "name": "swapOutPrivileged",
      "outputs": [
        {
          "internalType": "uint256",
          "name": "",
          "type": "uint256"
        }
      ],
      "stateMutability": "nonpayable",
      "type": "function"
    },
    {
      "inputs": [
        {
          "internalType": "address",
          "name": "asset",
          "type": "address"
        }
      ],
      "name": "swapWaitingPeriod",
      "outputs": [
        {
          "internalType": "uint256",
          "name": "",
          "type": "uint256"
        }
      ],
      "stateMutability": "view",
      "type": "function"
    },
    {
      "inputs": [
        {
          "internalType": "address",
          "name": "token",
          "type": "address"
        },
        {
          "internalType": "address",
          "name": "vault",
          "type": "address"
        },
        {
          "internalType": "uint256",
          "name": "amount",
          "type": "uint256"
        }
      ],
      "name": "transferTokenToPrivilegedVault",
      "outputs": [],
      "stateMutability": "nonpayable",
      "type": "function"
    },
    {
      "inputs": [
        {
          "internalType": "address",
          "name": "asset",
          "type": "address"
        }
      ],
      "name": "withdraw",
      "outputs": [],
      "stateMutability": "nonpayable",
      "type": "function"
    }
  ],
  "bytecode": "0x608060405234801561001057600080fd5b50d3801561001d57600080fd5b50d2801561002a57600080fd5b506133908061003a6000396000f3fe608060405234801561001057600080fd5b50d3801561001d57600080fd5b50d2801561002a57600080fd5b50600436106101f45760003560e01c806376238c2f1161011e578063db3788bb116100bc578063e9f1ab341161008b578063e9f1ab3414610497578063ed6c9448146104aa578063f78d880e146104b2578063facf676e146104c557600080fd5b8063db3788bb1461043d578063dca81c9714610450578063e15a56c814610471578063e396563d1461048457600080fd5b8063889de79c116100f8578063889de79c146103d7578063b199189a14610404578063b1f3a46f14610417578063c1029e5f1461042a57600080fd5b806376238c2f146103a95780638456cb59146103bc57806387844b79146103c457600080fd5b8063464b4158116101965780635e435bd7116101655780635e435bd7146102ee57806368bef94f146103015780636ec3ab67146103145780637500e7cf1461039657600080fd5b8063464b41581461028d57806351cff8d9146102a057806353d4b83e146102b357806357304964146102c657600080fd5b80631f398af9116101d25780631f398af91461023c578063271b0b071461025f578063327b6d161461026757806334f6171f1461027a57600080fd5b8063046f7da2146101f95780630ae54597146102035780631e0c2d5814610229575b600080fd5b6102016104d8565b005b610216610211366004612c82565b61055f565b6040519081526020015b60405180910390f35b610216610237366004612c9d565b6105b7565b61024f61024a366004612c82565b610690565b6040519015158152602001610220565b6102166106c4565b610216610275366004612c82565b61088d565b610216610288366004612c82565b6108be565b61024f61029b366004612c82565b6108ef565b6102016102ae366004612c82565b610920565b6102166102c1366004612c82565b610ad1565b6102d96102d4366004612c9d565b610aff565b60408051928352602083019190915201610220565b6102166102fc366004612c82565b610b47565b61020161030f366004612c82565b610b78565b610327610322366004612c82565b610d41565b6040516102209190600061012082019050825182526020830151602083015260408301516040830152606083015160608301526080830151608083015260a083015160a083015260c083015160c083015260e083015160e0830152610100808401511515818401525092915050565b6102166103a4366004612c82565b610e2c565b6102016103b7366004612cc7565b610eb2565b610201611068565b6102166103d2366004612c82565b6110f3565b6103ea6103e5366004612d08565b611124565b6040805192835263ffffffff909116602083015201610220565b610216610412366004612d3b565b611189565b610216610425366004612c9d565b6114c2565b6102d9610438366004612c9d565b611587565b61021661044b366004612c9d565b6115d5565b61046361045e366004612d8d565b611a8a565b604051610220929190612e64565b61020161047f366004612ef3565b611c69565b610216610492366004612d3b565b611cf6565b6102016104a5366004612d3b565b611fba565b61024f61208e565b6102166104c0366004612d3b565b6120a7565b6102166104d3366004612c82565b6124db565b60008051602061331b8339815191526104f08161250c565b60006104fa612519565b61012381015490915060ff1661052357604051636cd6020160e01b815260040160405180910390fd5b6101238101805460ff1916905560405133907f656d0bc3a6565d7f61e4f9c1d657119d5daa8fa17d624432e4f55c9aced5d83c90600090a25050565b60008061056a612519565b9050600061057b6201518042612f40565b9050816101240154811115610594575060009392505050565b506001600160a01b03909216600090815261012a90920160205250604090205490565b6000806000846001600160a01b031663313ce5676040518163ffffffff1660e01b8152600401602060405180830381865afa1580156105fa573d6000803e3d6000fd5b505050506040513d601f19601f8201168201806040525081019061061e9190612f62565b60ff1690506012810361063357839150610686565b601281101561066357610647816012612f85565b61065290600a61307c565b61065c9085613088565b9150610686565b61066e601282612f85565b61067990600a61307c565b6106839085612f40565b91505b5090505b92915050565b60008061069b612519565b6001600160a01b0390931660009081526101289093016020525050604090206008015460ff1690565b6000806106cf612519565b905060008060005b61012b8401548110156108595760008461012b0182815481106106fc576106fc61309f565b60009182526020808320909101546001600160a01b0316808352610129880190915260409091205490915060ff166107345750610851565b6001600160a01b03811660009081526101288601602052604081206004810154909181900361076557505050610851565b600882015460009060ff166107835750670de0b6b3a764000061082a565b604051635670bcc760e11b81526001600160a01b0385166004820152309063ace1798e906024016020604051808303816000875af11580156107c9573d6000803e3d6000fd5b505050506040513d601f19601f820116820180604052508101906107ed91906130b5565b905082600601548111806108045750826007015481105b1561082a57604051637cb1974360e11b8152600481018290526024015b60405180910390fd5b6108348282613088565b61083e90876130ce565b955061084a82886130ce565b9650505050505b6001016106d7565b508160000361087b5760405163ca93979f60e01b815260040160405180910390fd5b6108858282612f40565b935050505090565b600080610898612519565b6001600160a01b0390931660009081526101289093016020525050604090206004015490565b6000806108c9612519565b6001600160a01b0390931660009081526101289093016020525050604090206005015490565b6000806108fa612519565b6001600160a01b0390931660009081526101299093016020525050604090205460ff1690565b600061092a612519565b6001600160a01b038316600090815261012682016020908152604080832033845290915290205490915063ffffffff1680158061096c57508063ffffffff1642105b156109915760405162c4c09760e31b815263ffffffff82166004820152602401610821565b6001600160a01b038316600081815261012684016020908152604080832033808552908352818420805463ffffffff191690558484526101278701835281842090845290915280822080549083905590516370a0823160e01b81523060048201529092906370a0823190602401602060405180830381865afa158015610a1b573d6000803e3d6000fd5b505050506040513d601f19601f82011682018060405250810190610a3f91906130b5565b905081811015610a6c5760405163e48c29a760e01b81526004810182905260248101839052604401610821565b610a806001600160a01b0386163384612547565b604080516001600160a01b03871681523360208201529081018390527f9b1bfa7fa9ee420a16e124f794c35ac9f90472acc99140eb2f6447c714cad8eb906060015b60405180910390a15050505050565b600080610adc612519565b6001600160a01b0390931660009081526101289093016020525050604090205490565b600080610b0b836125ab565b610b14846125cc565b6000610b2285856001612624565b90506000610b3b86610b348488612f85565b60016126d6565b96919550909350505050565b600080610b52612519565b6001600160a01b0390931660009081526101289093016020525050604090206003015490565b60008051602061331b833981519152610b908161250c565b6000610b9a612519565b6001600160a01b0384166000908152610129820160209081526040808320805460ff1916905561012c840190915290205490915060ff1615610d00576001600160a01b038316600090815261012d8201602052604081205461012b830154909190610c0790600190612f85565b9050808214610c985760008361012b018281548110610c2857610c2861309f565b60009182526020909120015461012b850180546001600160a01b039092169250829185908110610c5a57610c5a61309f565b600091825260208083209190910180546001600160a01b0319166001600160a01b0394851617905592909116815261012d8501909152604090208290555b8261012b01805480610cac57610cac6130e1565b60008281526020808220830160001990810180546001600160a01b03191690559092019092556001600160a01b038716825261012c850181526040808320805460ff1916905561012d860190915281205550505b6040516001600160a01b03841681527f575d69234c3244700d3458dec4cca003c2522fe8c56dd98a54b9ca0b1f7fb8299060200160405180910390a1505050565b610d9260405180610120016040528060008152602001600081526020016000815260200160008152602001600081526020016000815260200160008152602001600081526020016000151581525090565b6000610d9c612519565b6001600160a01b0390931660009081526101289093016020908152604093849020845161012081018652815481526001820154928101929092526002810154948201949094526003840154606082015260048401546080820152600584015460a0820152600684015460c0820152600784015460e082015260089093015460ff1615156101008401525090919050565b600080610e37612519565b90506000610e486201518042612f40565b90506000826101240154821115610e6157506000610e7f565b506001600160a01b038416600090815261012a830160205260409020545b6001600160a01b038516600090815261012884016020526040902060030154610ea9908290612f85565b95945050505050565b60008051602061331b833981519152610eca8161250c565b6000610ed4612519565b90506127108335101580610eee5750612710836020013510155b15610f1957604051631e0bd6c160e31b81528335600482015260208401356024820152604401610821565b6001600160a01b038416600090815261012882016020908152604091829020853581559085013560018201559084013560028201556060840135600382015560a0840135600582015560c0840135600682015560e08401356007820155610f88610120850161010086016130f7565b60088201805491151560ff199283161790556001600160a01b0386166000908152610129840160209081526040808320805490941660011790935561012c85019052205460ff166110375761012b820180546001600160a01b038716600081815261012d8601602090815260408083209490945561012c87018152928120805460ff19166001908117909155845490810185559381529190912090910180546001600160a01b03191690911790555b7fac16a7982eb371c3c074fbe0faa7a13f9e007fec3918ff98e33667295c0e03158585604051610ac2929190613114565b60008051602061331b8339815191526110808161250c565b600061108a612519565b61012381015490915060ff16156110b457604051631785c68160e01b815260040160405180910390fd5b6101238101805460ff1916600117905560405133907fecdba5bea222c42350184df1b01c76a81248e3f274b8ac3a62f575cacfa4083790600090a25050565b6000806110fe612519565b6001600160a01b0390931660009081526101289093016020525050604090206002015490565b6000806000611131612519565b6001600160a01b038087166000818152610127840160209081526040808320948a16808452948252808320549383526101269095018152848220938252929092529190205490935063ffffffff169150509250929050565b600080611194612519565b61012381015490915060ff16156111be576040516313d0ff5960e31b815260040160405180910390fd5b60006111c8612519565b3360009081526101258201602052604090205490915060ff166111fd5760405162461bcd60e51b815260040161082190613197565b60008051602061333b8339815191525460020361122d57604051635db5c7cd60e11b815260040160405180910390fd5b611244600260008051602061333b83398151915255565b61124d85612711565b611256846125ab565b61125f866125cc565b6000611269612519565b6040516370a0823160e01b81523060048201529091506000906001600160a01b038916906370a0823190602401602060405180830381865afa1580156112b3573d6000803e3d6000fd5b505050506040513d601f19601f820116820180604052508101906112d791906130b5565b90506112ee6001600160a01b038916333089612738565b6040516370a0823160e01b81523060048201526000906001600160a01b038a16906370a0823190602401602060405180830381865afa158015611335573d6000803e3d6000fd5b505050506040513d601f19601f8201168201806040525081019061135991906130b5565b905060006113678383612f85565b905060006113778b836000612777565b6001600160a01b038c1660009081526101288701602052604090206002810154600482015492935090916113ac9084906130ce565b11156113e557600481810154600283015460405163de5119d160e01b815292830191909152602482018490526044820152606401610821565b600481810180548401905560088701546040516340c10f1960e01b81526001600160a01b038e811693820193909352602481018590529116906340c10f1990604401600060405180830381600087803b15801561144157600080fd5b505af1158015611455573d6000803e3d6000fd5b505050507f1b1629da5a8e7e72dd9c9846e728e1a28d816bbd216ee25704c948a2f6579d59338c8e86866000604051611493969594939291906131e2565b60405180910390a1509650505050506114b9600160008051602061333b83398151915255565b50509392505050565b6000806000846001600160a01b031663313ce5676040518163ffffffff1660e01b8152600401602060405180830381865afa158015611505573d6000803e3d6000fd5b505050506040513d601f19601f820116820180604052508101906115299190612f62565b60ff1690506012810361153e57839150610686565b601281101561156757611552816012612f85565b61155d90600a61307c565b61065c9085612f40565b611572601282612f85565b61157d90600a61307c565b6106839085613088565b600080611593836125ab565b61159c846125cc565b60006115aa85856000612777565b905060006115ba86836000612624565b905060006115c88284612f85565b9791965090945050505050565b6000806115e0612519565b61012381015490915060ff161561160a576040516313d0ff5960e31b815260040160405180910390fd5b60008051602061333b8339815191525460020361163a57604051635db5c7cd60e11b815260040160405180910390fd5b611651600260008051602061333b83398151915255565b61165a836125ab565b611663846125cc565b600061166d612519565b6001600160a01b038616600090815261012682016020908152604080832033845290915290205490915063ffffffff1680156116c457604051630583c45f60e01b815263ffffffff82166004820152602401610821565b6001600160a01b038616600090815261012883016020526040812060058101549091906116f190426130ce565b6001600160a01b03891660009081526101268601602090815260408083203384529091528120805463ffffffff191663ffffffff841617905590915061173989896001612624565b90506000611747828a612f85565b905060006117578b8360016126d6565b60088801546040516370a0823160e01b81523360048201529192506000916001600160a01b03909116906370a0823190602401602060405180830381865afa1580156117a7573d6000803e3d6000fd5b505050506040513d601f19601f820116820180604052508101906117cb91906130b5565b90508a8110156117f8576040516306e10c5760e21b815260048101829052602481018c9052604401610821565b828660040154101561182a5760048681015460405163b35743e360e01b81529182015260248101849052604401610821565b600486018054849003905583156119805760088801546040516309b6d81d60e11b8152336004820152602481018690526001600160a01b039091169063136db03a90604401600060405180830381600087803b15801561188957600080fd5b505af115801561189d573d6000803e3d6000fd5b505050506008880154600289015460405163095ea7b360e01b81526001600160a01b0391821660048201526024810187905291169063095ea7b3906044016020604051808303816000875af11580156118fa573d6000803e3d6000fd5b505050506040513d601f19601f8201168201806040525081019061191e919061321b565b50600288015460405163d053316f60e01b8152600481018690526001600160a01b039091169063d053316f90602401600060405180830381600087803b15801561196757600080fd5b505af115801561197b573d6000803e3d6000fd5b505050505b6008880154604051632770a7eb60e21b8152336004820152602481018590526001600160a01b0390911690639dc29fac90604401600060405180830381600087803b1580156119ce57600080fd5b505af11580156119e2573d6000803e3d6000fd5b505050506001600160a01b038c1660008181526101278a0160209081526040808320338085529083529281902086905580519384529083019190915281018390526060810185905263ffffffff861660808201527f21714ae00c051a3720d823d14aaeea1c5da9f634deeeffdc1b339966afc641b99060a00160405180910390a1509750505050505050611a83600160008051602061333b83398151915255565b5092915050565b6060806000611a97612519565b90506000855167ffffffffffffffff811115611ab557611ab5612d77565b604051908082528060200260200182016040528015611ade578160200160208202803683370190505b5090506000865167ffffffffffffffff811115611afd57611afd612d77565b604051908082528060200260200182016040528015611b26578160200160208202803683370190505b50905060005b8751811015611c5c5783610127016000898381518110611b4e57611b4e61309f565b60200260200101516001600160a01b03166001600160a01b031681526020019081526020016000206000886001600160a01b03166001600160a01b0316815260200190815260200160002054838281518110611bac57611bac61309f565b60200260200101818152505083610126016000898381518110611bd157611bd161309f565b60200260200101516001600160a01b03166001600160a01b031681526020019081526020016000206000886001600160a01b03166001600160a01b0316815260200190815260200160002060009054906101000a900463ffffffff16828281518110611c3f57611c3f61309f565b63ffffffff90921660209283029190910190910152600101611b2c565b5090969095509350505050565b60008051602061331b833981519152611c818161250c565b6000611c8b612519565b6001600160a01b038516600081815261012583016020908152604091829020805460ff19168815159081179091558251938452908301529192507fe390a3a7c10db437a8fad5663cd457cbd22965da0563edb3bbfafcd46cf6c9f1910160405180910390a150505050565b600080611d01612519565b61012381015490915060ff1615611d2b576040516313d0ff5960e31b815260040160405180910390fd5b6000611d35612519565b3360009081526101258201602052604090205490915060ff16611d6a5760405162461bcd60e51b815260040161082190613197565b60008051602061333b83398151915254600203611d9a57604051635db5c7cd60e11b815260040160405180910390fd5b611db1600260008051602061333b83398151915255565b611dba85612711565b611dc3846125ab565b611dcc866125cc565b6000611dd6612519565b90506000611de6888760016126d6565b60088301546040516370a0823160e01b81523360048201529192506000916001600160a01b03909116906370a0823190602401602060405180830381865afa158015611e36573d6000803e3d6000fd5b505050506040513d601f19601f82011682018060405250810190611e5a91906130b5565b905086811015611e87576040516306e10c5760e21b81526004810182905260248101889052604401610821565b6001600160a01b03891660009081526101288401602052604090206004810154881115611ed45760048181015460405163b35743e360e01b81529182015260248101899052604401610821565b600481810180548a900390556008850154604051632770a7eb60e21b81523392810192909252602482018a90526001600160a01b031690639dc29fac90604401600060405180830381600087803b158015611f2e57600080fd5b505af1158015611f42573d6000803e3d6000fd5b50611f5b925050506001600160a01b038b168a85612547565b7fb9a644dd69f3d5dc45f7f2d517c539643b36524fe350a7c171dfb3502133f0a0338a8c8b876000604051611f95969594939291906131e2565b60405180910390a15090945050506114b9600160008051602061333b83398151915255565b60008051602061331b833981519152611fd28161250c565b6000611fdc612519565b6001600160a01b03851660009081526101258201602052604090205490915060ff166120265760405163311bfacf60e21b81526001600160a01b0385166004820152602401610821565b61203a6001600160a01b0386168585612547565b836001600160a01b0316856001600160a01b03167f9c8515990fd8c61431c4ac8db9b81475f90c292a1dda77731e56c22e64fc76438560405161207f91815260200190565b60405180910390a35050505050565b600080612099612519565b610123015460ff1692915050565b6000806120b2612519565b61012381015490915060ff16156120dc576040516313d0ff5960e31b815260040160405180910390fd5b60008051602061333b8339815191525460020361210c57604051635db5c7cd60e11b815260040160405180910390fd5b612123600260008051602061333b83398151915255565b61212c84612711565b612135836125ab565b61213e856125cc565b600061214a8685612796565b9050600061215a87836000612777565b9050600061216a88836000612624565b905060006121788284612f85565b90506000612184612519565b6001600160a01b038b1660009081526101288201602052604090206002810154600482015492935090916121b99087906130ce565b11156121f257600481810154600283015460405163de5119d160e01b815292830191909152602482018790526044820152606401610821565b60006122016201518042612f40565b90508261012401548111156122355761012483018190556001600160a01b038c16600090815261012a840160205260408120555b6001600160a01b038c16600090815261012a84016020526040902054600383015461226088836130ce565b1115612296576003830154604051631e36636f60e11b815260048101839052602481018990526044810191909152606401610821565b60048084018054890190556001600160a01b03808f16600090815261012a870160205260409081902080548b019055600887015490516340c10f1960e01b81528f8316938101939093526024830188905216906340c10f1990604401600060405180830381600087803b15801561230c57600080fd5b505af1158015612320573d6000803e3d6000fd5b50505050856000146124715760088401546040516340c10f1960e01b8152306004820152602481018890526001600160a01b03909116906340c10f1990604401600060405180830381600087803b15801561237a57600080fd5b505af115801561238e573d6000803e3d6000fd5b505050506008840154600285015460405163095ea7b360e01b81526001600160a01b0391821660048201526024810189905291169063095ea7b3906044016020604051808303816000875af11580156123eb573d6000803e3d6000fd5b505050506040513d601f19601f8201168201806040525081019061240f919061321b565b50600284015460405163d053316f60e01b8152600481018890526001600160a01b039091169063d053316f90602401600060405180830381600087803b15801561245857600080fd5b505af115801561246c573d6000803e3d6000fd5b505050505b7f1b1629da5a8e7e72dd9c9846e728e1a28d816bbd216ee25704c948a2f6579d59338d8f8b898b6040516124aa969594939291906131e2565b60405180910390a1509297505050505050506124d3600160008051602061333b83398151915255565b509392505050565b6000806124e6612519565b6001600160a01b0390931660009081526101289093016020525050604090206001015490565b6125168133612891565b50565b60008061068a60017f32dc5fac1ec0f102a33b5c15528dfb46fd85a8972ea61127a23d80a03590a782612f85565b6040516001600160a01b038381166024830152604482018390526125a691859182169063a9059cbb906064015b604051602081830303815290604052915060e01b6020820180516001600160e01b0383818316178352505050506128f3565b505050565b8060000361251657604051631f2a200560e01b815260040160405180910390fd5b60006125d6612519565b6001600160a01b03831660009081526101298201602052604090205490915060ff1661262057604051632777a68f60e11b81526001600160a01b0383166004820152602401610821565b5050565b60008061262f612519565b6001600160a01b03861660009081526101288201602052604081209192508085600181111561266057612660613238565b0361266d57508054612674565b5060018101545b8060000361268857600093505050506126cf565b60006126948288613088565b90506127108110156126bc5760405163717d748560e11b815260048101829052602401610821565b6126c861271082612f40565b9450505050505b9392505050565b60006126e28483612964565b670de0b6b3a76400006126f586866114c2565b6126ff9190613088565b6127099190612f40565b949350505050565b6001600160a01b0381166125165760405163d92e233d60e01b815260040160405180910390fd5b6040516001600160a01b0384811660248301528381166044830152606482018390526127719186918216906323b872dd90608401612574565b50505050565b6000670de0b6b3a764000061278c8584612964565b6126f586866105b7565b6040516370a0823160e01b815230600482015260009081906001600160a01b038516906370a0823190602401602060405180830381865afa1580156127df573d6000803e3d6000fd5b505050506040513d601f19601f8201168201806040525081019061280391906130b5565b905061281a6001600160a01b038516333086612738565b6040516370a0823160e01b81523060048201526000906001600160a01b038616906370a0823190602401602060405180830381865afa158015612861573d6000803e3d6000fd5b505050506040513d601f19601f8201168201806040525081019061288591906130b5565b9050610ea98282612f85565b61289b8282612ab0565b612620576128b1816001600160a01b0316612b09565b6128bc836020612b1b565b6040516020016128cd929190613272565b60408051601f198184030181529082905262461bcd60e51b8252610821916004016132e7565b600080602060008451602086016000885af180612916576040513d6000823e3d81fd5b50506000513d9150811561292e57806001141561293b565b6001600160a01b0384163b155b1561277157604051635274afe760e01b81526001600160a01b0385166004820152602401610821565b60008061296f612519565b6001600160a01b038516600090815261012882016020526040902060088101549192509060ff166129ac57670de0b6b3a76400009250505061068a565b604051635670bcc760e11b81526001600160a01b0386166004820152600090309063ace1798e906024016020604051808303816000875af11580156129f5573d6000803e3d6000fd5b505050506040513d601f19601f82011682018060405250810190612a1991906130b5565b90508160060154811180612a305750816007015481105b15612a5157604051637cb1974360e11b815260048101829052602401610821565b6000856001811115612a6557612a65613238565b03612a9357670de0b6b3a76400008110612a8757670de0b6b3a7640000612a89565b805b935050505061068a565b670de0b6b3a76400008111612a8757670de0b6b3a7640000612a89565b60006126cf827fd3889cc5458b268d0544e5534672df1296288ca3f93cbd39bd6f497a5c622811600086815260209190915260409020906001600160a01b038116600090815260018301602052604081205415156126cf565b606061068a6001600160a01b03831660145b60011b600201606060008267ffffffffffffffff811115612b3e57612b3e612d77565b6040519080825280601f01601f191660200182016040528015612b68576020820181803683370190505b509050600360fc1b81600081518110612b8357612b8361309f565b60200101906001600160f81b031916908160001a905350600f60fb1b81600181518110612bb257612bb261309f565b60200101906001600160f81b031916908160001a9053505b6002831115612c3b57600019909201916f181899199a1a9b1b9c1cb0b131b232b360811b600f851660108110612c0257612c0261309f565b1a60f81b818481518110612c1857612c1861309f565b60200101906001600160f81b031916908160001a905350600484901c9350612bca565b83156126cf576040516355a04ff160e11b815260040160405180910390fd5b600081356001600160a81b0381168114612c7357600080fd5b6001600160a01b031692915050565b600060208284031215612c9457600080fd5b6126cf82612c5a565b60008060408385031215612cb057600080fd5b612cb983612c5a565b946020939093013593505050565b600080828403610140811215612cdc57600080fd5b612ce584612c5a565b9250610120601f1982011215612cfa57600080fd5b506020830190509250929050565b60008060408385031215612d1b57600080fd5b612d2483612c5a565b9150612d3260208401612c5a565b90509250929050565b600080600060608486031215612d5057600080fd5b612d5984612c5a565b9250612d6760208501612c5a565b9150604084013590509250925092565b634e487b7160e01b600052604160045260246000fd5b60008060408385031215612da057600080fd5b823567ffffffffffffffff80821115612db857600080fd5b818501915085601f830112612dcc57600080fd5b8135602082821115612de057612de0612d77565b8160051b604051601f19603f83011681018181108682111715612e0557612e05612d77565b604052928352818301935084810182019289841115612e2357600080fd5b948201945b83861015612e4857612e3986612c5a565b85529482019493820193612e28565b9650612e579050878201612c5a565b9450505050509250929050565b604080825283519082018190526000906020906060840190828701845b82811015612e9d57815184529284019290840190600101612e81565b5050508381038285015284518082528583019183019060005b81811015612ed857835163ffffffff1683529284019291840191600101612eb6565b5090979650505050505050565b801515811461251657600080fd5b60008060408385031215612f0657600080fd5b612f0f83612c5a565b91506020830135612f1f81612ee5565b809150509250929050565b634e487b7160e01b600052601160045260246000fd5b600082612f5d57634e487b7160e01b600052601260045260246000fd5b500490565b600060208284031215612f7457600080fd5b815160ff811681146126cf57600080fd5b8181038181111561068a5761068a612f2a565b600181815b80851115612fd3578160001904821115612fb957612fb9612f2a565b80851615612fc657918102915b93841c9390800290612f9d565b509250929050565b600082612fea5750600161068a565b81612ff75750600061068a565b816001811461300d576002811461301757613033565b600191505061068a565b60ff84111561302857613028612f2a565b50506001821b61068a565b5060208310610133831016604e8410600b8410161715613056575081810a61068a565b6130608383612f98565b806000190482111561307457613074612f2a565b029392505050565b60006126cf8383612fdb565b808202811582820484141761068a5761068a612f2a565b634e487b7160e01b600052603260045260246000fd5b6000602082840312156130c757600080fd5b5051919050565b8082018082111561068a5761068a612f2a565b634e487b7160e01b600052603160045260246000fd5b60006020828403121561310957600080fd5b81356126cf81612ee5565b60006101408201905060018060a01b038416825282356020830152602083013560408301526040830135606083015260608301356080830152608083013560a083015260a083013560c083015260c083013560e083015261010060e08401358184015280840135905061318681612ee5565b801515610120840152509392505050565b6020808252602b908201527f4e657875735969656c644d616e616765723a2063616c6c6572206973206e6f7460408201526a081c1c9a5d9a5b1959d95960aa1b606082015260800190565b6001600160a01b03968716815294861660208601529290941660408401526060830152608082019290925260a081019190915260c00190565b60006020828403121561322d57600080fd5b81516126cf81612ee5565b634e487b7160e01b600052602160045260246000fd5b60005b83811015613269578181015183820152602001613251565b50506000910152565b7f416363657373436f6e74726f6c3a206163636f756e74200000000000000000008152600083516132aa81601785016020880161324e565b7001034b99036b4b9b9b4b733903937b6329607d1b60179184019182015283516132db81602884016020880161324e565b01602801949350505050565b602081526000825180602084015261330681604085016020870161324e565b601f01601f1916919091016040019291505056feb19546dff01e856fb3f010c267a7b1c60363cf8a4664e21cc89c26224620214e09acf4e54214992e70883cf7dcd6957ff2c71cd9e14df4bec4383bc0d11607dca26474726f6e582212204bf2e943d6d5b7a1c0c4c2ced9878778ebfb135bdaecd99c975b818ca6e55ed964736f6c63430008160033",
  "source": "// SPDX-License-Identifier: BSD-3-Clause\npragma solidity ^0.8.20;\n\nimport { IRewardManager } from \"../../OSHI/interfaces/IRewardManager.sol\";\nimport { AppStorage } from \"../AppStorage.sol\";\nimport { Config } from \"../Config.sol\";\nimport { AssetConfig, ChainConfig, INexusYieldManagerFacet } from \"../interfaces/INexusYieldManagerFacet.sol\";\nimport { IPriceFeedAggregatorFacet } from \"../interfaces/IPriceFeedAggregatorFacet.sol\";\nimport { IERC20 } from \"@openzeppelin/contracts/token/ERC20/IERC20.sol\";\nimport { IERC20Metadata } from \"@openzeppelin/contracts/token/ERC20/extensions/IERC20Metadata.sol\";\nimport { SafeERC20 } from \"@openzeppelin/contracts/token/ERC20/utils/SafeERC20.sol\";\nimport { AccessControlInternal } from \"@solidstate/contracts/access/access_control/AccessControlInternal.sol\";\nimport { ReentrancyGuard } from \"@solidstate/contracts/security/reentrancy_guard/ReentrancyGuard.sol\";\n\n/**\n * @title Nexus Yield Manager Contract.\n * Mutated from:\n * https://github.com/VenusProtocol/venus-protocol/blob/develop/contracts/PegStability/PegStability.sol\n * @notice Contract for swapping stable token for debtToken token and vice versa to maintain the peg stability between them.\n */\ncontract NexusYieldManagerFacet is INexusYieldManagerFacet, AccessControlInternal, ReentrancyGuard {\n    using SafeERC20 for IERC20;\n\n    /**\n     * @dev Prevents functions to execute when contract is paused.\n     */\n    modifier isActive() {\n        AppStorage.Layout storage s = AppStorage.layout();\n        if (s.isNymPaused) revert Paused();\n        _;\n    }\n\n    /**\n     * @dev Prevents functions to execute when msg.sender is not a privileged address.\n     */\n    modifier onlyPrivileged() {\n        AppStorage.Layout storage s = AppStorage.layout();\n        require(s.isPrivileged[msg.sender], \"NexusYieldManager: caller is not privileged\");\n        _;\n    }\n\n    function setAssetConfig(address asset, AssetConfig calldata assetConfig_) external onlyRole(Config.OWNER_ROLE) {\n        AppStorage.Layout storage s = AppStorage.layout();\n        if (assetConfig_.feeIn >= Config.BASIS_POINTS_DIVISOR || assetConfig_.feeOut >= Config.BASIS_POINTS_DIVISOR) {\n            revert INexusYieldManagerFacet.InvalidFee(assetConfig_.feeIn, assetConfig_.feeOut);\n        }\n        AssetConfig storage assetConfig = s.assetConfigs[asset];\n        assetConfig.feeIn = assetConfig_.feeIn;\n        assetConfig.feeOut = assetConfig_.feeOut;\n        assetConfig.debtTokenMintCap = assetConfig_.debtTokenMintCap;\n        assetConfig.dailyDebtTokenMintCap = assetConfig_.dailyDebtTokenMintCap;\n        assetConfig.swapWaitingPeriod = assetConfig_.swapWaitingPeriod;\n        assetConfig.maxPrice = assetConfig_.maxPrice;\n        assetConfig.minPrice = assetConfig_.minPrice;\n        assetConfig.isUsingOracle = assetConfig_.isUsingOracle;\n        s.isAssetSupported[asset] = true;\n        if (!s.nymAssetIndexed[asset]) {\n            s.nymAssetArrayIndex[asset] = s.nymSupportedAssets.length;\n            s.nymAssetIndexed[asset] = true;\n            s.nymSupportedAssets.push(asset);\n        }\n\n        emit AssetConfigSetting(asset, assetConfig_);\n    }\n\n    /**\n     * @notice Removes support for an asset and marks it as sunset.\n     * @param asset The address of the asset to sunset.\n     */\n    function sunsetAsset(address asset) external onlyRole(Config.OWNER_ROLE) {\n        AppStorage.Layout storage s = AppStorage.layout();\n        s.isAssetSupported[asset] = false;\n\n        // Remove from nymSupportedAssets via swap-and-pop so the array stays clean\n        // and the asset can be cleanly re-added if setAssetConfig is called again later.\n        if (s.nymAssetIndexed[asset]) {\n            uint256 idx = s.nymAssetArrayIndex[asset];\n            uint256 lastIdx = s.nymSupportedAssets.length - 1;\n            if (idx != lastIdx) {\n                address lastAsset = s.nymSupportedAssets[lastIdx];\n                s.nymSupportedAssets[idx] = lastAsset;\n                s.nymAssetArrayIndex[lastAsset] = idx;\n            }\n            s.nymSupportedAssets.pop();\n            s.nymAssetIndexed[asset] = false;\n            delete s.nymAssetArrayIndex[asset];\n        }\n\n        emit AssetSunset(asset);\n    }\n\n    /**\n     * @notice Transfer the token to the privileged vault.\n     * @param token The address of the token to transfer.\n     * @param vault The address of the privileged vault.\n     * @param amount The amount of token to transfer.\n     */\n    function transferTokenToPrivilegedVault(\n        address token,\n        address vault,\n        uint256 amount\n    )\n        external\n        onlyRole(Config.OWNER_ROLE)\n    {\n        AppStorage.Layout storage s = AppStorage.layout();\n        if (!s.isPrivileged[vault]) {\n            revert NotPrivileged(vault);\n        }\n        IERC20(token).safeTransfer(vault, amount);\n        emit TokenTransferred(token, vault, amount);\n    }\n\n    /**\n     * Swap Functions **\n     */\n\n    /**\n     * @notice Swaps asset for debtToken with fees.\n     * @dev This function adds support to fee-on-transfer tokens. The actualTransferAmt is calculated, by recording token balance state before and after the transfer.\n     * @param receiver The address that will receive the debtToken tokens.\n     * @param assetAmount The amount of asset to be swapped.\n     * @return Amount of debtToken minted to the sender.\n     */\n    // @custom:event Emits AssetForDebtTokenSwapped event.\n    function swapIn(\n        address asset,\n        address receiver,\n        uint256 assetAmount\n    )\n        external\n        isActive\n        nonReentrant\n        returns (uint256)\n    {\n        _ensureNonzeroAddress(receiver);\n        _ensureNonzeroAmount(assetAmount);\n        _ensureAssetSupported(asset);\n\n        uint256 actualTransferAmt = _getActualTransferAmount(asset, assetAmount);\n        // convert to decimal 18\n        uint256 actualTransferAmtInUSD = _previewTokenUSDAmount(asset, actualTransferAmt, FeeDirection.IN);\n\n        // calculate feeIn\n        uint256 fee = _calculateFee(asset, actualTransferAmtInUSD, FeeDirection.IN);\n        uint256 debtTokenToMint = actualTransferAmtInUSD - fee;\n\n        AppStorage.Layout storage s = AppStorage.layout();\n        AssetConfig storage assetConfig = s.assetConfigs[asset];\n        if (assetConfig.debtTokenMinted + actualTransferAmtInUSD > assetConfig.debtTokenMintCap) {\n            revert DebtTokenMintCapReached(\n                assetConfig.debtTokenMinted, actualTransferAmtInUSD, assetConfig.debtTokenMintCap\n            );\n        }\n\n        uint256 today = block.timestamp / 1 days;\n\n        if (today > s.day) {\n            s.day = today;\n            s.dailyMintCount[asset] = 0;\n        }\n\n        uint256 dailyMinted = s.dailyMintCount[asset];\n        if (dailyMinted + actualTransferAmtInUSD > assetConfig.dailyDebtTokenMintCap) {\n            revert DebtTokenDailyMintCapReached(dailyMinted, actualTransferAmtInUSD, assetConfig.dailyDebtTokenMintCap);\n        }\n\n        unchecked {\n            assetConfig.debtTokenMinted += actualTransferAmtInUSD;\n            s.dailyMintCount[asset] += actualTransferAmtInUSD;\n        }\n\n        // mint debtToken to receiver\n        s.debtToken.mint(receiver, debtTokenToMint);\n\n        // mint debtToken fee to rewardManager\n        if (fee != 0) {\n            s.debtToken.mint(address(this), fee);\n            s.debtToken.approve(address(s.rewardManager), fee);\n            s.rewardManager.increaseSATPerUintStaked(fee);\n        }\n\n        emit AssetForDebtTokenSwapped(msg.sender, receiver, asset, actualTransferAmt, debtTokenToMint, fee);\n        return debtTokenToMint;\n    }\n\n    function _getActualTransferAmount(address asset, uint256 amount) internal returns (uint256) {\n        uint256 balanceBefore = IERC20(asset).balanceOf(address(this));\n        IERC20(asset).safeTransferFrom(msg.sender, address(this), amount);\n        uint256 balanceAfter = IERC20(asset).balanceOf(address(this));\n        return balanceAfter - balanceBefore;\n    }\n\n    /**\n     * @notice Schedule a swap debtToken for asset.\n     * @param asset The address of the asset.\n     * @param amount The amount of debt tokens.\n     */\n    function scheduleSwapOut(address asset, uint256 amount) external isActive nonReentrant returns (uint256) {\n        _ensureNonzeroAmount(amount);\n        _ensureAssetSupported(asset);\n\n        AppStorage.Layout storage s = AppStorage.layout();\n        uint32 withdrawalTimeCatched = s.withdrawalTime[asset][msg.sender];\n        if (withdrawalTimeCatched != 0) {\n            revert WithdrawalAlreadyScheduled(withdrawalTimeCatched);\n        }\n\n        AssetConfig storage assetConfig = s.assetConfigs[asset];\n        uint32 withdrawalTime = uint32(block.timestamp + assetConfig.swapWaitingPeriod);\n        s.withdrawalTime[asset][msg.sender] = withdrawalTime;\n\n        uint256 fee = _calculateFee(asset, amount, FeeDirection.OUT);\n        uint256 swapAmount = amount - fee;\n        uint256 assetAmount = _previewAssetAmountFromDebtToken(asset, swapAmount, FeeDirection.OUT);\n\n        uint256 debtBalance = s.debtToken.balanceOf(msg.sender);\n        if (debtBalance < amount) {\n            revert NotEnoughDebtToken(debtBalance, amount);\n        }\n\n        if (assetConfig.debtTokenMinted < swapAmount) {\n            revert DebtTokenMintedUnderflow(assetConfig.debtTokenMinted, swapAmount);\n        }\n\n        unchecked {\n            assetConfig.debtTokenMinted -= swapAmount;\n        }\n\n        if (fee != 0) {\n            s.debtToken.sendToXApp(msg.sender, fee);\n            s.debtToken.approve(address(s.rewardManager), fee);\n            s.rewardManager.increaseSATPerUintStaked(fee);\n        }\n\n        s.debtToken.burn(msg.sender, swapAmount);\n        s.scheduledWithdrawalAmount[asset][msg.sender] = assetAmount;\n        emit WithdrawalScheduled(asset, msg.sender, assetAmount, fee, withdrawalTime);\n        return assetAmount;\n    }\n\n    /**\n     * @dev Withdraw a specific asset after scheduling a swapOut.\n     * @param asset The address of the asset to be withdrawn.\n     */\n    function withdraw(address asset) external {\n        AppStorage.Layout storage s = AppStorage.layout();\n        uint32 withdrawalTimeCatched = s.withdrawalTime[asset][msg.sender];\n        if (withdrawalTimeCatched == 0 || block.timestamp < withdrawalTimeCatched) {\n            revert WithdrawalNotAvailable(withdrawalTimeCatched);\n        }\n\n        s.withdrawalTime[asset][msg.sender] = 0;\n\n        uint256 _amount = s.scheduledWithdrawalAmount[asset][msg.sender];\n        s.scheduledWithdrawalAmount[asset][msg.sender] = 0;\n\n        // check the asset is enough\n        uint256 assetAmount = IERC20(asset).balanceOf(address(this));\n        if (assetAmount < _amount) {\n            revert AssetNotEnough(assetAmount, _amount);\n        }\n\n        IERC20(asset).safeTransfer(msg.sender, _amount);\n        emit Withdraw(asset, msg.sender, _amount);\n    }\n\n    /**\n     * @notice Swaps debtToken for a asset.\n     * @param receiver The address where the stablecoin will be sent.\n     * @param amount The amount of stable tokens to swap.\n     * @return The amount of asset received.\n     */\n    // @custom:event Emits DebtTokenForAssetSwapped event.\n    function swapOutPrivileged(\n        address asset,\n        address receiver,\n        uint256 amount\n    )\n        external\n        isActive\n        onlyPrivileged\n        nonReentrant\n        returns (uint256)\n    {\n        _ensureNonzeroAddress(receiver);\n        _ensureNonzeroAmount(amount);\n        _ensureAssetSupported(asset);\n\n        AppStorage.Layout storage s = AppStorage.layout();\n\n        // get asset amount\n        uint256 assetAmount = _previewAssetAmountFromDebtToken(asset, amount, FeeDirection.OUT);\n\n        uint256 debtBalance = s.debtToken.balanceOf(msg.sender);\n        if (debtBalance < amount) {\n            revert NotEnoughDebtToken(debtBalance, amount);\n        }\n\n        AssetConfig storage assetConfig = s.assetConfigs[asset];\n\n        if (assetConfig.debtTokenMinted < amount) {\n            revert DebtTokenMintedUnderflow(assetConfig.debtTokenMinted, amount);\n        }\n\n        unchecked {\n            assetConfig.debtTokenMinted -= amount;\n        }\n\n        s.debtToken.burn(msg.sender, amount);\n        IERC20(asset).safeTransfer(receiver, assetAmount);\n        emit DebtTokenForAssetSwapped(msg.sender, receiver, asset, amount, assetAmount, 0);\n        return assetAmount;\n    }\n\n    /**\n     * @notice Swaps stable tokens for debtToken.\n     * @dev This function adds support to fee-on-transfer tokens. The actualTransferAmt is calculated, by recording token balance state before and after the transfer.\n     * @param receiver The address that will receive the debtToken tokens.\n     * @param assetAmount The amount of stable tokens to be swapped.\n     * @return Amount of debtToken minted to the sender.\n     */\n    // @custom:event Emits AssetForDebtTokenSwapped event.\n    function swapInPrivileged(\n        address asset,\n        address receiver,\n        uint256 assetAmount\n    )\n        external\n        isActive\n        onlyPrivileged\n        nonReentrant\n        returns (uint256)\n    {\n        _ensureNonzeroAddress(receiver);\n        _ensureNonzeroAmount(assetAmount);\n        _ensureAssetSupported(asset);\n\n        AppStorage.Layout storage s = AppStorage.layout();\n\n        // transfer IN, supporting fee-on-transfer tokens\n        uint256 balanceBefore = IERC20(asset).balanceOf(address(this));\n        IERC20(asset).safeTransferFrom(msg.sender, address(this), assetAmount);\n        uint256 balanceAfter = IERC20(asset).balanceOf(address(this));\n\n        // calculate actual transfered amount (in case of fee-on-transfer tokens)\n        uint256 actualTransferAmt = balanceAfter - balanceBefore;\n\n        // convert to decimal 18\n        uint256 actualTransferAmtInUSD = _previewTokenUSDAmount(asset, actualTransferAmt, FeeDirection.IN);\n\n        AssetConfig storage assetConfig = s.assetConfigs[asset];\n        if (assetConfig.debtTokenMinted + actualTransferAmtInUSD > assetConfig.debtTokenMintCap) {\n            revert DebtTokenMintCapReached(\n                assetConfig.debtTokenMinted, actualTransferAmtInUSD, assetConfig.debtTokenMintCap\n            );\n        }\n        unchecked {\n            assetConfig.debtTokenMinted += actualTransferAmtInUSD;\n        }\n\n        // mint debtToken to receiver\n        s.debtToken.mint(receiver, actualTransferAmtInUSD);\n\n        emit AssetForDebtTokenSwapped(msg.sender, receiver, asset, actualTransferAmt, actualTransferAmtInUSD, 0);\n        return actualTransferAmtInUSD;\n    }\n\n    /**\n     * Admin Functions **\n     */\n\n    /**\n     * @notice Pause the NYM contract.\n     * @dev Reverts if the contract is already paused.\n     */\n    // @custom:event Emits NYMPaused event.\n    function pause() external onlyRole(Config.OWNER_ROLE) {\n        AppStorage.Layout storage s = AppStorage.layout();\n        if (s.isNymPaused) {\n            revert AlreadyPaused();\n        }\n        s.isNymPaused = true;\n        emit NYMPaused(msg.sender);\n    }\n\n    /**\n     * @notice Resume the NYM contract.\n     * @dev Reverts if the contract is not paused.\n     */\n    // @custom:event Emits NYMResumed event.\n    function resume() external onlyRole(Config.OWNER_ROLE) {\n        AppStorage.Layout storage s = AppStorage.layout();\n        if (!s.isNymPaused) {\n            revert NotPaused();\n        }\n        s.isNymPaused = false;\n        emit NYMResumed(msg.sender);\n    }\n\n    /**\n     * @notice Set the privileged status of an address.\n     * @param account The address to set the privileged status.\n     * @param isPrivileged_ The privileged status to set.\n     */\n    function setPrivileged(address account, bool isPrivileged_) external onlyRole(Config.OWNER_ROLE) {\n        AppStorage.Layout storage s = AppStorage.layout();\n        s.isPrivileged[account] = isPrivileged_;\n        emit PrivilegedSet(account, isPrivileged_);\n    }\n\n    /**\n     * Helper Functions **\n     */\n\n    /**\n     * @notice Calculates the amount of debtToken that would be burnt from the user.\n     * @dev This calculation might be off with a bit, if the price of the oracle for this asset is not updated in the block this function is invoked.\n     * @param amount The amount of debt tokens used for swap.\n     * @return The amount of asset that would be taken from the user.\n     */\n    function previewSwapOut(address asset, uint256 amount) external returns (uint256, uint256) {\n        _ensureNonzeroAmount(amount);\n        _ensureAssetSupported(asset);\n\n        uint256 fee = _calculateFee(asset, amount, FeeDirection.OUT);\n        uint256 assetAmount = _previewAssetAmountFromDebtToken(asset, amount - fee, FeeDirection.OUT);\n\n        return (assetAmount, fee);\n    }\n\n    /**\n     * @notice Calculates the amount of debtToken that would be sent to the receiver.\n     * @dev This calculation might be off with a bit, if the price of the oracle for this asset is not updated in the block this function is invoked.\n     * @param assetAmount The amount of stable tokens provided for the swap.\n     * @return The amount of debtToken that would be sent to the receiver.\n     */\n    function previewSwapIn(address asset, uint256 assetAmount) external returns (uint256, uint256) {\n        _ensureNonzeroAmount(assetAmount);\n        _ensureAssetSupported(asset);\n\n        uint256 assetAmountUSD = _previewTokenUSDAmount(asset, assetAmount, FeeDirection.IN);\n\n        //calculate feeIn\n        uint256 fee = _calculateFee(asset, assetAmountUSD, FeeDirection.IN);\n        uint256 debtTokenToMint = assetAmountUSD - fee;\n\n        return (debtTokenToMint, fee);\n    }\n\n    // @notice Converts the given amount of debtToken to asset amount based on the asset's decimals.\n    // @param asset The address of the asset.\n    // @param amount The amount of debtToken.\n    // @return The converted asset amount.\n    function convertDebtTokenToAssetAmount(address asset, uint256 amount) public view returns (uint256) {\n        uint256 scaledAmt;\n        uint256 decimals = IERC20Metadata(asset).decimals();\n        if (decimals == Config.TARGET_DIGITS) {\n            scaledAmt = amount;\n        } else if (decimals < Config.TARGET_DIGITS) {\n            scaledAmt = amount / (10 ** (Config.TARGET_DIGITS - decimals));\n        } else {\n            scaledAmt = amount * (10 ** (decimals - Config.TARGET_DIGITS));\n        }\n\n        return scaledAmt;\n    }\n\n    /**\n     * @notice Converts the given amount of asset to debtToken amount based on the asset's decimals.\n     * @param asset The address of the asset.\n     * @param amount The amount of asset.\n     * @return The converted debtToken amount.\n     */\n    function convertAssetToDebtTokenAmount(address asset, uint256 amount) public view returns (uint256) {\n        uint256 scaledAmt;\n        uint256 decimals = IERC20Metadata(asset).decimals();\n        if (decimals == Config.TARGET_DIGITS) {\n            scaledAmt = amount;\n        } else if (decimals < Config.TARGET_DIGITS) {\n            scaledAmt = amount * (10 ** (Config.TARGET_DIGITS - decimals));\n        } else {\n            scaledAmt = amount / (10 ** (decimals - Config.TARGET_DIGITS));\n        }\n\n        return scaledAmt;\n    }\n\n    /**\n     * @dev Calculates the USD value of the given amount of stable tokens depending on the swap direction.\n     * @param amount The amount of stable tokens.\n     * @return The USD value of the given amount of stable tokens scaled by 1e18 taking into account the direction of the swap\n     */\n    function _previewTokenUSDAmount(address asset, uint256 amount, FeeDirection direction) internal returns (uint256) {\n        return (convertAssetToDebtTokenAmount(asset, amount) * _getPriceInUSD(asset, direction)) / Config.MANTISSA_ONE;\n    }\n\n    /**\n     * @dev Calculate the amount of assets from the given amount of debt tokens.\n     * @param asset The address of the asset.\n     * @param amount The amount of debt tokens.\n     */\n    function _previewAssetAmountFromDebtToken(\n        address asset,\n        uint256 amount,\n        FeeDirection direction\n    )\n        internal\n        returns (uint256)\n    {\n        return (convertDebtTokenToAssetAmount(asset, amount) * Config.MANTISSA_ONE) / _getPriceInUSD(asset, direction);\n    }\n\n    /**\n     * @notice Get the price of asset in USD.\n     * @dev This function gets the price of the asset in USD.\n     * @return The price in USD, adjusted based on the selected direction.\n     */\n    function _getPriceInUSD(address asset, FeeDirection direction) internal returns (uint256) {\n        AppStorage.Layout storage s = AppStorage.layout();\n        AssetConfig storage assetConfig = s.assetConfigs[asset];\n        if (!assetConfig.isUsingOracle) {\n            return Config.ONE_DOLLAR;\n        }\n\n        // get price with decimals 18\n        uint256 price = IPriceFeedAggregatorFacet(address(this)).fetchPrice(IERC20(asset));\n\n        if (price > assetConfig.maxPrice || price < assetConfig.minPrice) {\n            revert InvalidPrice(price);\n        }\n\n        if (direction == FeeDirection.IN) {\n            // MIN(1, price)\n            return price < Config.ONE_DOLLAR ? price : Config.ONE_DOLLAR;\n        } else {\n            // MAX(1, price)\n            return price > Config.ONE_DOLLAR ? price : Config.ONE_DOLLAR;\n        }\n    }\n\n    /**\n     * @notice Calculate the fee amount based on the input amount and fee percentage.\n     * @dev Reverts if the fee percentage calculation results in rounding down to 0.\n     * @param amount The input amount to calculate the fee from.\n     * @param direction The direction of the fee: FeeDirection.IN or FeeDirection.OUT.\n     * @return The fee amount.\n     */\n    function _calculateFee(address asset, uint256 amount, FeeDirection direction) internal view returns (uint256) {\n        AppStorage.Layout storage s = AppStorage.layout();\n        AssetConfig storage assetConfig = s.assetConfigs[asset];\n        uint256 feePercent;\n        if (direction == FeeDirection.IN) {\n            feePercent = assetConfig.feeIn;\n        } else {\n            feePercent = assetConfig.feeOut;\n        }\n        if (feePercent == 0) {\n            return 0;\n        } else {\n            uint256 feeAmount = amount * feePercent;\n            // checking if the percent calculation will result in rounding down to 0\n            if (feeAmount < Config.BASIS_POINTS_DIVISOR) {\n                revert AmountTooSmall(feeAmount);\n            }\n            return (feeAmount) / Config.BASIS_POINTS_DIVISOR;\n        }\n    }\n\n    /**\n     * @notice Checks that the address is not the zero address.\n     * @param someone The address to check.\n     */\n    function _ensureNonzeroAddress(address someone) private pure {\n        if (someone == address(0)) revert ZeroAddress();\n    }\n\n    /**\n     * @notice Checks that the amount passed as stable tokens is bigger than zero\n     * @param amount The amount to validate\n     */\n    function _ensureNonzeroAmount(uint256 amount) private pure {\n        if (amount == 0) revert ZeroAmount();\n    }\n\n    /**\n     * @notice Ensures that the given asset is supported.\n     * @param asset The address of the asset.\n     */\n    function _ensureAssetSupported(address asset) private view {\n        AppStorage.Layout storage s = AppStorage.layout();\n        if (!s.isAssetSupported[asset]) {\n            revert AssetNotSupported(asset);\n        }\n    }\n\n    /* Getters */\n\n    // @notice Get the asset configuration for the given asset.\n    function getAssetConfig(address asset) external view returns (AssetConfig memory) {\n        AppStorage.Layout storage s = AppStorage.layout();\n        return s.assetConfigs[asset];\n    }\n\n    // @notice Get the feeIn for the given asset.\n    function feeIn(address asset) public view returns (uint256) {\n        AppStorage.Layout storage s = AppStorage.layout();\n        return s.assetConfigs[asset].feeIn;\n    }\n\n    // @notice Get the feeOut for the given asset.\n    function feeOut(address asset) public view returns (uint256) {\n        AppStorage.Layout storage s = AppStorage.layout();\n        return s.assetConfigs[asset].feeOut;\n    }\n\n    // @notice Get the debt token mint cap for the given asset.\n    function debtTokenMintCap(address asset) public view returns (uint256) {\n        AppStorage.Layout storage s = AppStorage.layout();\n        return s.assetConfigs[asset].debtTokenMintCap;\n    }\n\n    // @notice Get the daily debt token mint cap for the given asset.\n    function dailyDebtTokenMintCap(address asset) public view returns (uint256) {\n        AppStorage.Layout storage s = AppStorage.layout();\n        return s.assetConfigs[asset].dailyDebtTokenMintCap;\n    }\n\n    // @notice Get the debt token minted amount for the given asset.\n    function debtTokenMinted(address asset) public view returns (uint256) {\n        AppStorage.Layout storage s = AppStorage.layout();\n        return s.assetConfigs[asset].debtTokenMinted;\n    }\n\n    // @notice Check if the given asset is using an oracle.\n    function isUsingOracle(address asset) public view returns (bool) {\n        AppStorage.Layout storage s = AppStorage.layout();\n        return s.assetConfigs[asset].isUsingOracle;\n    }\n\n    // @notice Get the swap waiting period for the given asset.\n    function swapWaitingPeriod(address asset) public view returns (uint256) {\n        AppStorage.Layout storage s = AppStorage.layout();\n        return s.assetConfigs[asset].swapWaitingPeriod;\n    }\n\n    // @notice Get the remaining daily debt token mint cap for the given asset.\n    function debtTokenDailyMintCapRemain(address asset) external view returns (uint256) {\n        AppStorage.Layout storage s = AppStorage.layout();\n        uint256 today = block.timestamp / 1 days;\n        uint256 currentDailyMintCount;\n        if (today > s.day) {\n            currentDailyMintCount = 0; // If it's a new day and no swapIn has occurred yet, current count is 0\n        } else {\n            currentDailyMintCount = s.dailyMintCount[asset];\n        }\n        return s.assetConfigs[asset].dailyDebtTokenMintCap - currentDailyMintCount;\n    }\n\n    function dailyMintCount(address asset) external view returns (uint256) {\n        AppStorage.Layout storage s = AppStorage.layout();\n        uint256 today = block.timestamp / 1 days;\n        if (today > s.day) {\n            return 0; // If it's a new day and no swapIn has occurred yet, return 0\n        }\n        return s.dailyMintCount[asset];\n    }\n\n    // @notice Get the pending withdrawal amount and time for the given asset and account.\n    function pendingWithdrawal(address asset, address account) external view returns (uint256, uint32) {\n        AppStorage.Layout storage s = AppStorage.layout();\n        return (s.scheduledWithdrawalAmount[asset][account], s.withdrawalTime[asset][account]);\n    }\n\n    // @notice Get the pending withdrawals for the given assets and account.\n    function pendingWithdrawals(\n        address[] memory assets,\n        address account\n    )\n        external\n        view\n        returns (uint256[] memory, uint32[] memory)\n    {\n        AppStorage.Layout storage s = AppStorage.layout();\n        uint256[] memory amounts = new uint256[](assets.length);\n        uint32[] memory times = new uint32[](assets.length);\n        for (uint256 i; i < assets.length; ++i) {\n            amounts[i] = s.scheduledWithdrawalAmount[assets[i]][account];\n            times[i] = s.withdrawalTime[assets[i]][account];\n        }\n\n        return (amounts, times);\n    }\n\n    function isNymPaused() external view returns (bool) {\n        AppStorage.Layout storage s = AppStorage.layout();\n        return s.isNymPaused;\n    }\n\n    function isAssetSupported(address asset) external view returns (bool) {\n        AppStorage.Layout storage s = AppStorage.layout();\n        return s.isAssetSupported[asset];\n    }\n\n    // @notice Returns the debtTokenMinted-weighted average rate of all supported assets.\n    // @dev Skips sunset assets and assets with zero debtTokenMinted.\n    //      Reverts with NoActiveAssets when no asset has any weight.\n    function getWeightedAssetRate() external returns (uint256) {\n        AppStorage.Layout storage s = AppStorage.layout();\n        uint256 totalWeight;\n        uint256 weightedSum;\n\n        for (uint256 i; i < s.nymSupportedAssets.length; ++i) {\n            address asset = s.nymSupportedAssets[i];\n            if (!s.isAssetSupported[asset]) continue;\n\n            AssetConfig storage assetConfig = s.assetConfigs[asset];\n            uint256 weight = assetConfig.debtTokenMinted;\n            if (weight == 0) continue;\n\n            uint256 rate;\n            if (!assetConfig.isUsingOracle) {\n                rate = Config.ONE_DOLLAR;\n            } else {\n                rate = IPriceFeedAggregatorFacet(address(this)).fetchPrice(IERC20(asset));\n                if (rate > assetConfig.maxPrice || rate < assetConfig.minPrice) {\n                    revert InvalidPrice(rate);\n                }\n            }\n\n            weightedSum += rate * weight;\n            totalWeight += weight;\n        }\n\n        if (totalWeight == 0) revert NoActiveAssets();\n        return weightedSum / totalWeight;\n    }\n}\n",
  "sourcePath": "/Users/ashley/Documents/satoshi/satoshi-v2/src/core/facets/NexusYieldManagerFacet.sol",
  "compiler": {
    "name": "solc",
    "version": "0.8.22+commit.5ed3e10f.Emscripten.clang"
  },
  "schemaVersion": "2.0.1",
  "updatedAt": "2026-04-14T07:11:27.750Z"
}