{
  "contractName": "OracleMock",
  "abi": [
    {
      "inputs": [
        {
          "internalType": "uint8",
          "name": "decimals_",
          "type": "uint8"
        },
        {
          "internalType": "uint256",
          "name": "version_",
          "type": "uint256"
        }
      ],
      "stateMutability": "nonpayable",
      "type": "constructor"
    },
    {
      "inputs": [],
      "name": "Deprecated",
      "type": "error"
    },
    {
      "inputs": [],
      "name": "InvalidMaxTimeThreshold",
      "type": "error"
    },
    {
      "inputs": [
        {
          "internalType": "int224",
          "name": "price",
          "type": "int224"
        }
      ],
      "name": "InvalidPriceInt224",
      "type": "error"
    },
    {
      "inputs": [
        {
          "internalType": "int256",
          "name": "price",
          "type": "int256"
        }
      ],
      "name": "InvalidPriceInt256",
      "type": "error"
    },
    {
      "inputs": [
        {
          "internalType": "uint128",
          "name": "price",
          "type": "uint128"
        }
      ],
      "name": "InvalidPriceUInt128",
      "type": "error"
    },
    {
      "inputs": [
        {
          "internalType": "uint256",
          "name": "price",
          "type": "uint256"
        }
      ],
      "name": "InvalidPriceUInt256",
      "type": "error"
    },
    {
      "inputs": [
        {
          "internalType": "address",
          "name": "owner",
          "type": "address"
        }
      ],
      "name": "OwnableInvalidOwner",
      "type": "error"
    },
    {
      "inputs": [
        {
          "internalType": "address",
          "name": "account",
          "type": "address"
        }
      ],
      "name": "OwnableUnauthorizedAccount",
      "type": "error"
    },
    {
      "inputs": [],
      "name": "PriceTooOld",
      "type": "error"
    },
    {
      "anonymous": false,
      "inputs": [
        {
          "indexed": true,
          "internalType": "int256",
          "name": "current",
          "type": "int256"
        },
        {
          "indexed": true,
          "internalType": "uint256",
          "name": "roundId",
          "type": "uint256"
        },
        {
          "indexed": false,
          "internalType": "uint256",
          "name": "updatedAt",
          "type": "uint256"
        }
      ],
      "name": "AnswerUpdated",
      "type": "event"
    },
    {
      "anonymous": false,
      "inputs": [
        {
          "components": [
            {
              "internalType": "contract AggregatorV3Interface",
              "name": "source",
              "type": "address"
            },
            {
              "internalType": "uint256",
              "name": "maxTimeThreshold",
              "type": "uint256"
            },
            {
              "internalType": "uint256",
              "name": "weight",
              "type": "uint256"
            }
          ],
          "indexed": false,
          "internalType": "struct SourceConfig",
          "name": "sources",
          "type": "tuple"
        }
      ],
      "name": "ConfigSet",
      "type": "event"
    },
    {
      "anonymous": false,
      "inputs": [
        {
          "indexed": false,
          "internalType": "uint256",
          "name": "newMaxTimeThreshold",
          "type": "uint256"
        }
      ],
      "name": "MaxTimeThresholdUpdated",
      "type": "event"
    },
    {
      "anonymous": false,
      "inputs": [
        {
          "indexed": false,
          "internalType": "uint256[]",
          "name": "newMaxTimeThreshold",
          "type": "uint256[]"
        }
      ],
      "name": "MaxTimeThresholdsUpdated",
      "type": "event"
    },
    {
      "anonymous": false,
      "inputs": [
        {
          "indexed": true,
          "internalType": "address",
          "name": "previousOwner",
          "type": "address"
        },
        {
          "indexed": true,
          "internalType": "address",
          "name": "newOwner",
          "type": "address"
        }
      ],
      "name": "OwnershipTransferred",
      "type": "event"
    },
    {
      "anonymous": false,
      "inputs": [
        {
          "indexed": false,
          "internalType": "bytes32",
          "name": "newPriceID",
          "type": "bytes32"
        }
      ],
      "name": "PriceIDUpdated",
      "type": "event"
    },
    {
      "inputs": [],
      "name": "decimals",
      "outputs": [
        {
          "internalType": "uint8",
          "name": "",
          "type": "uint8"
        }
      ],
      "stateMutability": "view",
      "type": "function"
    },
    {
      "inputs": [],
      "name": "description",
      "outputs": [
        {
          "internalType": "string",
          "name": "",
          "type": "string"
        }
      ],
      "stateMutability": "pure",
      "type": "function"
    },
    {
      "inputs": [],
      "name": "fetchPrice",
      "outputs": [
        {
          "internalType": "uint256",
          "name": "",
          "type": "uint256"
        }
      ],
      "stateMutability": "view",
      "type": "function"
    },
    {
      "inputs": [],
      "name": "fetchPriceUnsafe",
      "outputs": [
        {
          "internalType": "uint256",
          "name": "",
          "type": "uint256"
        },
        {
          "internalType": "uint256",
          "name": "",
          "type": "uint256"
        }
      ],
      "stateMutability": "view",
      "type": "function"
    },
    {
      "inputs": [
        {
          "internalType": "uint80",
          "name": "_roundId",
          "type": "uint80"
        }
      ],
      "name": "getRoundData",
      "outputs": [
        {
          "internalType": "uint80",
          "name": "roundId",
          "type": "uint80"
        },
        {
          "internalType": "int256",
          "name": "answer",
          "type": "int256"
        },
        {
          "internalType": "uint256",
          "name": "startedAt",
          "type": "uint256"
        },
        {
          "internalType": "uint256",
          "name": "updatedAt",
          "type": "uint256"
        },
        {
          "internalType": "uint80",
          "name": "answeredInRound",
          "type": "uint80"
        }
      ],
      "stateMutability": "view",
      "type": "function"
    },
    {
      "inputs": [
        {
          "internalType": "bytes[]",
          "name": "",
          "type": "bytes[]"
        }
      ],
      "name": "getUpdateFee",
      "outputs": [
        {
          "internalType": "uint256",
          "name": "",
          "type": "uint256"
        }
      ],
      "stateMutability": "pure",
      "type": "function"
    },
    {
      "inputs": [],
      "name": "latestRoundData",
      "outputs": [
        {
          "internalType": "uint80",
          "name": "roundId",
          "type": "uint80"
        },
        {
          "internalType": "int256",
          "name": "answer",
          "type": "int256"
        },
        {
          "internalType": "uint256",
          "name": "startedAt",
          "type": "uint256"
        },
        {
          "internalType": "uint256",
          "name": "updatedAt",
          "type": "uint256"
        },
        {
          "internalType": "uint80",
          "name": "answeredInRound",
          "type": "uint80"
        }
      ],
      "stateMutability": "view",
      "type": "function"
    },
    {
      "inputs": [],
      "name": "maxTimeThreshold",
      "outputs": [
        {
          "internalType": "uint256",
          "name": "",
          "type": "uint256"
        }
      ],
      "stateMutability": "view",
      "type": "function"
    },
    {
      "inputs": [],
      "name": "owner",
      "outputs": [
        {
          "internalType": "address",
          "name": "",
          "type": "address"
        }
      ],
      "stateMutability": "view",
      "type": "function"
    },
    {
      "inputs": [],
      "name": "renounceOwnership",
      "outputs": [],
      "stateMutability": "nonpayable",
      "type": "function"
    },
    {
      "inputs": [],
      "name": "source",
      "outputs": [
        {
          "internalType": "address",
          "name": "",
          "type": "address"
        }
      ],
      "stateMutability": "view",
      "type": "function"
    },
    {
      "inputs": [
        {
          "internalType": "address",
          "name": "newOwner",
          "type": "address"
        }
      ],
      "name": "transferOwnership",
      "outputs": [],
      "stateMutability": "nonpayable",
      "type": "function"
    },
    {
      "inputs": [
        {
          "internalType": "uint256",
          "name": "_maxTimeThreshold",
          "type": "uint256"
        }
      ],
      "name": "updateMaxTimeThreshold",
      "outputs": [],
      "stateMutability": "nonpayable",
      "type": "function"
    },
    {
      "inputs": [
        {
          "internalType": "bytes[]",
          "name": "",
          "type": "bytes[]"
        }
      ],
      "name": "updatePriceFeeds",
      "outputs": [],
      "stateMutability": "nonpayable",
      "type": "function"
    },
    {
      "inputs": [
        {
          "components": [
            {
              "internalType": "int256",
              "name": "answer",
              "type": "int256"
            },
            {
              "internalType": "uint256",
              "name": "startedAt",
              "type": "uint256"
            },
            {
              "internalType": "uint256",
              "name": "updatedAt",
              "type": "uint256"
            },
            {
              "internalType": "uint80",
              "name": "answeredInRound",
              "type": "uint80"
            }
          ],
          "internalType": "struct RoundData",
          "name": "roundData",
          "type": "tuple"
        }
      ],
      "name": "updateRoundData",
      "outputs": [],
      "stateMutability": "nonpayable",
      "type": "function"
    },
    {
      "inputs": [],
      "name": "version",
      "outputs": [
        {
          "internalType": "uint256",
          "name": "",
          "type": "uint256"
        }
      ],
      "stateMutability": "view",
      "type": "function"
    }
  ],
  "bytecode": "0x60c060405234801561001057600080fd5b50d3801561001d57600080fd5b50d2801561002a57600080fd5b50604051610a0b380380610a0b83398101604081905261004991610118565b338061006f57604051631e4fbdf760e01b81526000600482015260240160405180910390fd5b610078816100c8565b5060ff821660805260a08190526201518060028190556040519081527f31196645d05fc4d46fdbadcc63e38712aede3c733ac1d26f42c619c932043be29060200160405180910390a1505061014c565b600080546001600160a01b038381166001600160a01b0319831681178455604051919092169283917f8be0079c531659141344cd1fd0a4f28419497f9722a3daafe3b4186f6b6457e09190a35050565b6000806040838503121561012b57600080fd5b825160ff8116811461013c57600080fd5b6020939093015192949293505050565b60805160a05161089a610171600039600061018b0152600061015f015261089a6000f3fe608060405234801561001057600080fd5b50d3801561001d57600080fd5b50d2801561002a57600080fd5b506004361061011a5760003560e01c80638da5cb5b116100b1578063ef9e5e2811610080578063ef9e5e28146102cf578063f2fde38b146102e1578063feaf968c146102f4578063fed01919146102fc57600080fd5b80638da5cb5b146101fe5780639a6fc8f51461020f578063d47eed45146102a9578063d9b8144c146102bc57600080fd5b806354fd4d50116100ed57806354fd4d501461018957806367e828bf146101af578063715018a6146101c95780637284e416146101d157600080fd5b806301f5c5de1461011f5780630fdb11cf1461013b5780631cf097bf14610143578063313ce56714610158575b600080fd5b61012860025481565b6040519081526020015b60405180910390f35b610128610319565b610156610151366004610665565b610388565b005b60405160ff7f0000000000000000000000000000000000000000000000000000000000000000168152602001610132565b7f0000000000000000000000000000000000000000000000000000000000000000610128565b305b6040516001600160a01b039091168152602001610132565b610156610469565b604080518082018252600b81526a4d6f636b204f7261636c6560a81b6020820152905161013291906106dd565b6000546001600160a01b03166101b1565b61027561021d36600461072c565b6001600160501b03818116600090815260016020818152604092839020835160808101855281548082529382015492810183905260028201549481018590526003909101549094166060909401849052939490939290565b604080516001600160501b03968716815260208101959095528401929092526060830152909116608082015260a001610132565b6101286102b736600461074e565b61047d565b6101566102ca3660046107c3565b610486565b6101566102dd36600461074e565b5050565b6101566102ef3660046107dc565b6104ea565b610275610528565b61030461058a565b60408051928352602083019190915201610132565b6000806000610326610528565b5093505092505060008213610356576040516373f4157160e11b8152600481018390526024015b60405180910390fd5b600254610363824261082b565b11156103825760405163c9cf1f8b60e01b815260040160405180910390fd5b50919050565b6103906105cc565b60008054600160a01b90046001600160501b03169060146103b08361083e565b82546101009290920a6001600160501b0381810219909316918316021790915560008054600160a01b908190048316825260016020818152604080852088518082558984015194820194909455888201516002820181905560608a01516003909201805469ffffffffffffffffffff191692891692909217909155945490519485529290920490931693507f0559884fd3a460db3073b7fc896cc77986f16e378210ded43186175bf646fc5f910160405180910390a350565b6104716105cc565b61047b60006105f9565b565b60005b92915050565b61048e6105cc565b607881116104af576040516304e2feaf60e31b815260040160405180910390fd5b60028190556040518181527f31196645d05fc4d46fdbadcc63e38712aede3c733ac1d26f42c619c932043be29060200160405180910390a150565b6104f26105cc565b6001600160a01b03811661051c57604051631e4fbdf760e01b81526000600482015260240161034d565b610525816105f9565b50565b60008054600160a01b90046001600160501b039081168083526001602081815260409485902085516080810187528154808252938201549281018390526002820154968101879052600390910154909416606090940184905291949093919290565b600080600080610598610528565b50935050925050600082136105c3576040516373f4157160e11b81526004810183905260240161034d565b90939092509050565b6000546001600160a01b0316331461047b5760405163118cdaa760e01b815233600482015260240161034d565b600080546001600160a01b038381166001600160a01b0319831681178455604051919092169283917f8be0079c531659141344cd1fd0a4f28419497f9722a3daafe3b4186f6b6457e09190a35050565b80356001600160501b038116811461066057600080fd5b919050565b60006080828403121561067757600080fd5b6040516080810181811067ffffffffffffffff821117156106a857634e487b7160e01b600052604160045260246000fd5b80604052508235815260208301356020820152604083013560408201526106d160608401610649565b60608201529392505050565b60006020808352835180602085015260005b8181101561070b578581018301518582016040015282016106ef565b506000604082860101526040601f19601f8301168501019250505092915050565b60006020828403121561073e57600080fd5b61074782610649565b9392505050565b6000806020838503121561076157600080fd5b823567ffffffffffffffff8082111561077957600080fd5b818501915085601f83011261078d57600080fd5b81358181111561079c57600080fd5b8660208260051b85010111156107b157600080fd5b60209290920196919550909350505050565b6000602082840312156107d557600080fd5b5035919050565b6000602082840312156107ee57600080fd5b81356001600160a81b038116811461080557600080fd5b6001600160a01b03169392505050565b634e487b7160e01b600052601160045260246000fd5b8181038181111561048057610480610815565b60006001600160501b0380831681810361085a5761085a610815565b600101939250505056fea26474726f6e5822122033276f960c508a50d3ef228430057ed157e418b68f42419d4426402029db11f564736f6c63430008160033",
  "source": "// SPDX-License-Identifier: MIT\npragma solidity ^0.8.20;\n\nimport { AggregatorV3Interface } from \"../../src/priceFeed/interfaces/AggregatorV3Interface.sol\";\nimport { IPriceFeed } from \"../../src/priceFeed/interfaces/IPriceFeed.sol\";\nimport { Ownable } from \"@openzeppelin/contracts/access/Ownable.sol\";\n\nstruct RoundData {\n    int256 answer;\n    uint256 startedAt;\n    uint256 updatedAt;\n    uint80 answeredInRound;\n}\n\ncontract OracleMock is AggregatorV3Interface, IPriceFeed, Ownable {\n    string private constant _description = \"Mock Oracle\";\n    uint8 private immutable _decimals;\n    uint256 private immutable _version;\n    uint80 private _lastRoundId;\n    mapping(uint80 => RoundData) private _roundData;\n    uint256 public maxTimeThreshold;\n\n    event AnswerUpdated(int256 indexed current, uint256 indexed roundId, uint256 updatedAt);\n\n    /* deciamls = 8, version = 1 */\n    constructor(uint8 decimals_, uint256 version_) Ownable(msg.sender) {\n        _decimals = decimals_;\n        _version = version_;\n        maxTimeThreshold = 86_400;\n        emit MaxTimeThresholdUpdated(86_400);\n    }\n\n    function description() external pure override returns (string memory) {\n        return _description;\n    }\n\n    function decimals() external view override(AggregatorV3Interface, IPriceFeed) returns (uint8) {\n        return _decimals;\n    }\n\n    function version() external view override returns (uint256) {\n        return _version;\n    }\n\n    function getRoundData(uint80 _roundId)\n        external\n        view\n        override\n        returns (uint80 roundId, int256 answer, uint256 startedAt, uint256 updatedAt, uint80 answeredInRound)\n    {\n        RoundData memory roundData = _roundData[_roundId];\n        return (_roundId, roundData.answer, roundData.startedAt, roundData.updatedAt, roundData.answeredInRound);\n    }\n\n    function latestRoundData()\n        public\n        view\n        override\n        returns (uint80 roundId, int256 answer, uint256 startedAt, uint256 updatedAt, uint80 answeredInRound)\n    {\n        RoundData memory roundData = _roundData[_lastRoundId];\n        return (_lastRoundId, roundData.answer, roundData.startedAt, roundData.updatedAt, roundData.answeredInRound);\n    }\n\n    function updateRoundData(RoundData memory roundData) external onlyOwner {\n        _lastRoundId++;\n        _roundData[_lastRoundId] = roundData;\n        emit AnswerUpdated(roundData.answer, _lastRoundId, roundData.updatedAt);\n    }\n\n    function getUpdateFee(bytes[] calldata) external pure returns (uint256) {\n        return 0;\n    }\n\n    function updatePriceFeeds(bytes[] calldata) external {\n        // do nothing\n    }\n\n    function fetchPrice() external view returns (uint256) {\n        (, int256 price,, uint256 updatedAt,) = latestRoundData();\n        if (price <= 0) revert InvalidPriceInt256(price);\n        if (block.timestamp - updatedAt > maxTimeThreshold) {\n            revert PriceTooOld();\n        }\n        return uint256(price);\n    }\n\n    function fetchPriceUnsafe() external view returns (uint256, uint256) {\n        (, int256 price,, uint256 updatedAt,) = latestRoundData();\n        if (price <= 0) revert InvalidPriceInt256(price);\n        return (uint256(price), updatedAt);\n    }\n\n    function updateMaxTimeThreshold(uint256 _maxTimeThreshold) external onlyOwner {\n        if (_maxTimeThreshold <= 120) {\n            revert InvalidMaxTimeThreshold();\n        }\n\n        maxTimeThreshold = _maxTimeThreshold;\n        emit MaxTimeThresholdUpdated(_maxTimeThreshold);\n    }\n\n    function source() external view returns (address) {\n        return address(this);\n    }\n}\n",
  "sourcePath": "/Users/ashley/Documents/satoshi/satoshi-v2/test/mocks/OracleMock.sol",
  "compiler": {
    "name": "solc",
    "version": "0.8.22+commit.5ed3e10f.Emscripten.clang"
  },
  "schemaVersion": "2.0.1",
  "updatedAt": "2026-04-14T07:11:27.784Z"
}