{
  "contractName": "OSHIToken",
  "abi": [
    {
      "inputs": [],
      "stateMutability": "nonpayable",
      "type": "constructor"
    },
    {
      "inputs": [
        {
          "internalType": "address",
          "name": "target",
          "type": "address"
        }
      ],
      "name": "AddressEmptyCode",
      "type": "error"
    },
    {
      "inputs": [],
      "name": "ECDSAInvalidSignature",
      "type": "error"
    },
    {
      "inputs": [
        {
          "internalType": "uint256",
          "name": "length",
          "type": "uint256"
        }
      ],
      "name": "ECDSAInvalidSignatureLength",
      "type": "error"
    },
    {
      "inputs": [
        {
          "internalType": "bytes32",
          "name": "s",
          "type": "bytes32"
        }
      ],
      "name": "ECDSAInvalidSignatureS",
      "type": "error"
    },
    {
      "inputs": [
        {
          "internalType": "address",
          "name": "implementation",
          "type": "address"
        }
      ],
      "name": "ERC1967InvalidImplementation",
      "type": "error"
    },
    {
      "inputs": [],
      "name": "ERC1967NonPayable",
      "type": "error"
    },
    {
      "inputs": [
        {
          "internalType": "address",
          "name": "spender",
          "type": "address"
        },
        {
          "internalType": "uint256",
          "name": "allowance",
          "type": "uint256"
        },
        {
          "internalType": "uint256",
          "name": "needed",
          "type": "uint256"
        }
      ],
      "name": "ERC20InsufficientAllowance",
      "type": "error"
    },
    {
      "inputs": [
        {
          "internalType": "address",
          "name": "sender",
          "type": "address"
        },
        {
          "internalType": "uint256",
          "name": "balance",
          "type": "uint256"
        },
        {
          "internalType": "uint256",
          "name": "needed",
          "type": "uint256"
        }
      ],
      "name": "ERC20InsufficientBalance",
      "type": "error"
    },
    {
      "inputs": [
        {
          "internalType": "address",
          "name": "approver",
          "type": "address"
        }
      ],
      "name": "ERC20InvalidApprover",
      "type": "error"
    },
    {
      "inputs": [
        {
          "internalType": "address",
          "name": "receiver",
          "type": "address"
        }
      ],
      "name": "ERC20InvalidReceiver",
      "type": "error"
    },
    {
      "inputs": [
        {
          "internalType": "address",
          "name": "sender",
          "type": "address"
        }
      ],
      "name": "ERC20InvalidSender",
      "type": "error"
    },
    {
      "inputs": [
        {
          "internalType": "address",
          "name": "spender",
          "type": "address"
        }
      ],
      "name": "ERC20InvalidSpender",
      "type": "error"
    },
    {
      "inputs": [
        {
          "internalType": "uint256",
          "name": "deadline",
          "type": "uint256"
        }
      ],
      "name": "ERC2612ExpiredSignature",
      "type": "error"
    },
    {
      "inputs": [
        {
          "internalType": "address",
          "name": "signer",
          "type": "address"
        },
        {
          "internalType": "address",
          "name": "owner",
          "type": "address"
        }
      ],
      "name": "ERC2612InvalidSigner",
      "type": "error"
    },
    {
      "inputs": [],
      "name": "FailedCall",
      "type": "error"
    },
    {
      "inputs": [
        {
          "internalType": "address",
          "name": "account",
          "type": "address"
        },
        {
          "internalType": "uint256",
          "name": "currentNonce",
          "type": "uint256"
        }
      ],
      "name": "InvalidAccountNonce",
      "type": "error"
    },
    {
      "inputs": [],
      "name": "InvalidInitialization",
      "type": "error"
    },
    {
      "inputs": [],
      "name": "NotInitializing",
      "type": "error"
    },
    {
      "inputs": [
        {
          "internalType": "address",
          "name": "owner",
          "type": "address"
        }
      ],
      "name": "OwnableInvalidOwner",
      "type": "error"
    },
    {
      "inputs": [
        {
          "internalType": "address",
          "name": "account",
          "type": "address"
        }
      ],
      "name": "OwnableUnauthorizedAccount",
      "type": "error"
    },
    {
      "inputs": [],
      "name": "UUPSUnauthorizedCallContext",
      "type": "error"
    },
    {
      "inputs": [
        {
          "internalType": "bytes32",
          "name": "slot",
          "type": "bytes32"
        }
      ],
      "name": "UUPSUnsupportedProxiableUUID",
      "type": "error"
    },
    {
      "inputs": [],
      "name": "ZeroAddress",
      "type": "error"
    },
    {
      "anonymous": false,
      "inputs": [
        {
          "indexed": true,
          "internalType": "address",
          "name": "owner",
          "type": "address"
        },
        {
          "indexed": true,
          "internalType": "address",
          "name": "spender",
          "type": "address"
        },
        {
          "indexed": false,
          "internalType": "uint256",
          "name": "value",
          "type": "uint256"
        }
      ],
      "name": "Approval",
      "type": "event"
    },
    {
      "anonymous": false,
      "inputs": [],
      "name": "EIP712DomainChanged",
      "type": "event"
    },
    {
      "anonymous": false,
      "inputs": [
        {
          "indexed": false,
          "internalType": "uint64",
          "name": "version",
          "type": "uint64"
        }
      ],
      "name": "Initialized",
      "type": "event"
    },
    {
      "anonymous": false,
      "inputs": [
        {
          "indexed": true,
          "internalType": "address",
          "name": "previousOwner",
          "type": "address"
        },
        {
          "indexed": true,
          "internalType": "address",
          "name": "newOwner",
          "type": "address"
        }
      ],
      "name": "OwnershipTransferred",
      "type": "event"
    },
    {
      "anonymous": false,
      "inputs": [
        {
          "indexed": true,
          "internalType": "address",
          "name": "from",
          "type": "address"
        },
        {
          "indexed": true,
          "internalType": "address",
          "name": "to",
          "type": "address"
        },
        {
          "indexed": false,
          "internalType": "uint256",
          "name": "value",
          "type": "uint256"
        }
      ],
      "name": "Transfer",
      "type": "event"
    },
    {
      "anonymous": false,
      "inputs": [
        {
          "indexed": true,
          "internalType": "address",
          "name": "implementation",
          "type": "address"
        }
      ],
      "name": "Upgraded",
      "type": "event"
    },
    {
      "inputs": [],
      "name": "DOMAIN_SEPARATOR",
      "outputs": [
        {
          "internalType": "bytes32",
          "name": "",
          "type": "bytes32"
        }
      ],
      "stateMutability": "view",
      "type": "function"
    },
    {
      "inputs": [],
      "name": "UPGRADE_INTERFACE_VERSION",
      "outputs": [
        {
          "internalType": "string",
          "name": "",
          "type": "string"
        }
      ],
      "stateMutability": "view",
      "type": "function"
    },
    {
      "inputs": [
        {
          "internalType": "address",
          "name": "owner",
          "type": "address"
        },
        {
          "internalType": "address",
          "name": "spender",
          "type": "address"
        }
      ],
      "name": "allowance",
      "outputs": [
        {
          "internalType": "uint256",
          "name": "",
          "type": "uint256"
        }
      ],
      "stateMutability": "view",
      "type": "function"
    },
    {
      "inputs": [
        {
          "internalType": "address",
          "name": "spender",
          "type": "address"
        },
        {
          "internalType": "uint256",
          "name": "value",
          "type": "uint256"
        }
      ],
      "name": "approve",
      "outputs": [
        {
          "internalType": "bool",
          "name": "",
          "type": "bool"
        }
      ],
      "stateMutability": "nonpayable",
      "type": "function"
    },
    {
      "inputs": [
        {
          "internalType": "address",
          "name": "account",
          "type": "address"
        }
      ],
      "name": "balanceOf",
      "outputs": [
        {
          "internalType": "uint256",
          "name": "",
          "type": "uint256"
        }
      ],
      "stateMutability": "view",
      "type": "function"
    },
    {
      "inputs": [
        {
          "internalType": "address",
          "name": "account",
          "type": "address"
        },
        {
          "internalType": "uint256",
          "name": "amount",
          "type": "uint256"
        }
      ],
      "name": "burn",
      "outputs": [],
      "stateMutability": "nonpayable",
      "type": "function"
    },
    {
      "inputs": [],
      "name": "decimals",
      "outputs": [
        {
          "internalType": "uint8",
          "name": "",
          "type": "uint8"
        }
      ],
      "stateMutability": "view",
      "type": "function"
    },
    {
      "inputs": [],
      "name": "eip712Domain",
      "outputs": [
        {
          "internalType": "bytes1",
          "name": "fields",
          "type": "bytes1"
        },
        {
          "internalType": "string",
          "name": "name",
          "type": "string"
        },
        {
          "internalType": "string",
          "name": "version",
          "type": "string"
        },
        {
          "internalType": "uint256",
          "name": "chainId",
          "type": "uint256"
        },
        {
          "internalType": "address",
          "name": "verifyingContract",
          "type": "address"
        },
        {
          "internalType": "bytes32",
          "name": "salt",
          "type": "bytes32"
        },
        {
          "internalType": "uint256[]",
          "name": "extensions",
          "type": "uint256[]"
        }
      ],
      "stateMutability": "view",
      "type": "function"
    },
    {
      "inputs": [
        {
          "internalType": "address",
          "name": "owner",
          "type": "address"
        }
      ],
      "name": "initialize",
      "outputs": [],
      "stateMutability": "nonpayable",
      "type": "function"
    },
    {
      "inputs": [
        {
          "internalType": "address",
          "name": "account",
          "type": "address"
        },
        {
          "internalType": "uint256",
          "name": "amount",
          "type": "uint256"
        }
      ],
      "name": "mint",
      "outputs": [],
      "stateMutability": "nonpayable",
      "type": "function"
    },
    {
      "inputs": [],
      "name": "name",
      "outputs": [
        {
          "internalType": "string",
          "name": "",
          "type": "string"
        }
      ],
      "stateMutability": "view",
      "type": "function"
    },
    {
      "inputs": [
        {
          "internalType": "address",
          "name": "owner",
          "type": "address"
        }
      ],
      "name": "nonces",
      "outputs": [
        {
          "internalType": "uint256",
          "name": "",
          "type": "uint256"
        }
      ],
      "stateMutability": "view",
      "type": "function"
    },
    {
      "inputs": [],
      "name": "owner",
      "outputs": [
        {
          "internalType": "address",
          "name": "",
          "type": "address"
        }
      ],
      "stateMutability": "view",
      "type": "function"
    },
    {
      "inputs": [
        {
          "internalType": "address",
          "name": "owner",
          "type": "address"
        },
        {
          "internalType": "address",
          "name": "spender",
          "type": "address"
        },
        {
          "internalType": "uint256",
          "name": "value",
          "type": "uint256"
        },
        {
          "internalType": "uint256",
          "name": "deadline",
          "type": "uint256"
        },
        {
          "internalType": "uint8",
          "name": "v",
          "type": "uint8"
        },
        {
          "internalType": "bytes32",
          "name": "r",
          "type": "bytes32"
        },
        {
          "internalType": "bytes32",
          "name": "s",
          "type": "bytes32"
        }
      ],
      "name": "permit",
      "outputs": [],
      "stateMutability": "nonpayable",
      "type": "function"
    },
    {
      "inputs": [],
      "name": "proxiableUUID",
      "outputs": [
        {
          "internalType": "bytes32",
          "name": "",
          "type": "bytes32"
        }
      ],
      "stateMutability": "view",
      "type": "function"
    },
    {
      "inputs": [],
      "name": "renounceOwnership",
      "outputs": [],
      "stateMutability": "nonpayable",
      "type": "function"
    },
    {
      "inputs": [],
      "name": "symbol",
      "outputs": [
        {
          "internalType": "string",
          "name": "",
          "type": "string"
        }
      ],
      "stateMutability": "view",
      "type": "function"
    },
    {
      "inputs": [],
      "name": "totalSupply",
      "outputs": [
        {
          "internalType": "uint256",
          "name": "",
          "type": "uint256"
        }
      ],
      "stateMutability": "view",
      "type": "function"
    },
    {
      "inputs": [
        {
          "internalType": "address",
          "name": "to",
          "type": "address"
        },
        {
          "internalType": "uint256",
          "name": "value",
          "type": "uint256"
        }
      ],
      "name": "transfer",
      "outputs": [
        {
          "internalType": "bool",
          "name": "",
          "type": "bool"
        }
      ],
      "stateMutability": "nonpayable",
      "type": "function"
    },
    {
      "inputs": [
        {
          "internalType": "address",
          "name": "from",
          "type": "address"
        },
        {
          "internalType": "address",
          "name": "to",
          "type": "address"
        },
        {
          "internalType": "uint256",
          "name": "value",
          "type": "uint256"
        }
      ],
      "name": "transferFrom",
      "outputs": [
        {
          "internalType": "bool",
          "name": "",
          "type": "bool"
        }
      ],
      "stateMutability": "nonpayable",
      "type": "function"
    },
    {
      "inputs": [
        {
          "internalType": "address",
          "name": "newOwner",
          "type": "address"
        }
      ],
      "name": "transferOwnership",
      "outputs": [],
      "stateMutability": "nonpayable",
      "type": "function"
    },
    {
      "inputs": [
        {
          "internalType": "address",
          "name": "newImplementation",
          "type": "address"
        },
        {
          "internalType": "bytes",
          "name": "data",
          "type": "bytes"
        }
      ],
      "name": "upgradeToAndCall",
      "outputs": [],
      "stateMutability": "payable",
      "type": "function"
    }
  ],
  "bytecode": "0x60a0604052306080523480156200001557600080fd5b50d380156200002357600080fd5b50d280156200003157600080fd5b506200003c62000042565b620000f6565b7ff0c57e16840df040f15088dc2f81fe391c3923bec73e23a9662efc9c229c6a00805468010000000000000000900460ff1615620000935760405163f92ee8a960e01b815260040160405180910390fd5b80546001600160401b0390811614620000f35780546001600160401b0319166001600160401b0390811782556040519081527fc7f505b2f371ae2175ee4913f4499e1f2633a7b5936321eed1cdaeb6115181d29060200160405180910390a15b50565b608051611e8e6200012060003960008181610de901528181610e120152610f530152611e8e6000f3fe6080604052600436106101355760003560e01c80637ecebe00116100ab578063a9059cbb1161006f578063a9059cbb146104ed578063ad3cb1cc14610527578063c4d66de814610572578063d505accf146105ac578063dd62ed3e146105e6578063f2fde38b1461062057600080fd5b80637ecebe00146103a757806384b0196e146103e15780638da5cb5b1461042357806395d89b41146104845780639dc29fac146104b357600080fd5b80633644e515116100fd5780633644e5151461029157806340c10f19146102c05780634f1ef286146102fc57806352d1902d1461030f57806370a082311461033e578063715018a61461037857600080fd5b806306fdde031461013a578063095ea7b31461017f57806318160ddd146101c957806323b872dd14610221578063313ce5671461025b575b600080fd5b34801561014657600080fd5b50d3801561015357600080fd5b50d2801561016057600080fd5b5061016961065a565b6040516101769190611977565b60405180910390f35b34801561018b57600080fd5b50d3801561019857600080fd5b50d280156101a557600080fd5b506101b96101b43660046119b2565b610703565b6040519015158152602001610176565b3480156101d557600080fd5b50d380156101e257600080fd5b50d280156101ef57600080fd5b507f52c63247e1f47db19d5ce0460030c497f067ca4cebf71ba98eeadabe20bace02545b604051908152602001610176565b34801561022d57600080fd5b50d3801561023a57600080fd5b50d2801561024757600080fd5b506101b96102563660046119dc565b61071d565b34801561026757600080fd5b50d3801561027457600080fd5b50d2801561028157600080fd5b5060405160128152602001610176565b34801561029d57600080fd5b50d380156102aa57600080fd5b50d280156102b757600080fd5b50610213610743565b3480156102cc57600080fd5b50d380156102d957600080fd5b50d280156102e657600080fd5b506102fa6102f53660046119b2565b610752565b005b6102fa61030a366004611a2e565b610768565b34801561031b57600080fd5b50d3801561032857600080fd5b50d2801561033557600080fd5b50610213610783565b34801561034a57600080fd5b50d3801561035757600080fd5b50d2801561036457600080fd5b50610213610373366004611af0565b6107a0565b34801561038457600080fd5b50d3801561039157600080fd5b50d2801561039e57600080fd5b506102fa6107d3565b3480156103b357600080fd5b50d380156103c057600080fd5b50d280156103cd57600080fd5b506102136103dc366004611af0565b6107e7565b3480156103ed57600080fd5b50d380156103fa57600080fd5b50d2801561040757600080fd5b506104106107f2565b6040516101769796959493929190611b0b565b34801561042f57600080fd5b50d3801561043c57600080fd5b50d2801561044957600080fd5b507f9016d09d72d40fdae2fd8ceac6b6234c7706214fd39c1cd1e609a0528c199300546040516001600160a01b039091168152602001610176565b34801561049057600080fd5b50d3801561049d57600080fd5b50d280156104aa57600080fd5b506101696108a3565b3480156104bf57600080fd5b50d380156104cc57600080fd5b50d280156104d957600080fd5b506102fa6104e83660046119b2565b6108e2565b3480156104f957600080fd5b50d3801561050657600080fd5b50d2801561051357600080fd5b506101b96105223660046119b2565b6108f4565b34801561053357600080fd5b50d3801561054057600080fd5b50d2801561054d57600080fd5b50610169604051806040016040528060058152602001640352e302e360dc1b81525081565b34801561057e57600080fd5b50d3801561058b57600080fd5b50d2801561059857600080fd5b506102fa6105a7366004611af0565b610902565b3480156105b857600080fd5b50d380156105c557600080fd5b50d280156105d257600080fd5b506102fa6105e1366004611ba4565b610a8a565b3480156105f257600080fd5b50d380156105ff57600080fd5b50d2801561060c57600080fd5b5061021361061b366004611c17565b610be3565b34801561062c57600080fd5b50d3801561063957600080fd5b50d2801561064657600080fd5b506102fa610655366004611af0565b610c2d565b60606000600080516020611df98339815191525b905080600301805461067f90611c4a565b80601f01602080910402602001604051908101604052809291908181526020018280546106ab90611c4a565b80156106f85780601f106106cd576101008083540402835291602001916106f8565b820191906000526020600020905b8154815290600101906020018083116106db57829003601f168201915b505050505091505090565b600033610711818585610c6b565b60019150505b92915050565b60003361072b858285610c7d565b610736858585610ce4565b60019150505b9392505050565b600061074d610d43565b905090565b61075a610d4d565b6107648282610da8565b5050565b610770610dde565b61077982610e83565b6107648282610e8b565b600061078d610f48565b50600080516020611e3983398151915290565b600080600080516020611df98339815191525b6001600160a01b0390931660009081526020939093525050604090205490565b6107db610d4d565b6107e56000610f91565b565b600061071782611002565b60006060808280808381600080516020611e19833981519152805490915015801561081f57506001810154155b6108685760405162461bcd60e51b81526020600482015260156024820152741152540dcc4c8e88155b9a5b9a5d1a585b1a5e9959605a1b60448201526064015b60405180910390fd5b61087061102b565b61087861106a565b60408051600080825260208201909252600f60f81b9c939b5091995046985030975095509350915050565b7f52c63247e1f47db19d5ce0460030c497f067ca4cebf71ba98eeadabe20bace048054606091600080516020611df98339815191529161067f90611c4a565b6108ea610d4d565b6107648282611082565b600033610711818585610ce4565b7ff0c57e16840df040f15088dc2f81fe391c3923bec73e23a9662efc9c229c6a008054600160401b810460ff16159067ffffffffffffffff166000811580156109485750825b905060008267ffffffffffffffff1660011480156109655750303b155b905081158015610973575080155b156109915760405163f92ee8a960e01b815260040160405180910390fd5b845467ffffffffffffffff1916600117855583156109bb57845460ff60401b1916600160401b1785555b6109c4866110b8565b6109cc6110df565b6109d5866110e7565b610a17604051806040016040528060048152602001634f53484960e01b815250604051806040016040528060048152602001634f53484960e01b8152506110ef565b610a3c604051806040016040528060048152602001634f53484960e01b815250611101565b8315610a8257845460ff60401b19168555604051600181527fc7f505b2f371ae2175ee4913f4499e1f2633a7b5936321eed1cdaeb6115181d29060200160405180910390a15b505050505050565b83421115610aae5760405163313c898160e11b81526004810185905260240161085f565b60007f6e71edae12b1b97f4d1f60370fef10105fa2faae0126114a169c64845d6126c9888888610b1a8c6001600160a01b031660009081527f5ab42ced628888259c08ac98db1eb0cf702fc1501344311d8b100cd1bfe4bb006020526040902080546001810190915590565b6040805160208101969096526001600160a01b0394851690860152929091166060840152608083015260a082015260c0810186905260e0016040516020818303038152906040528051906020012090506000610b758261112c565b90506000610b8582878787611159565b9050896001600160a01b0316816001600160a01b031614610bcc576040516325c0072360e11b81526001600160a01b0380831660048301528b16602482015260440161085f565b610bd78a8a8a610c6b565b50505050505050505050565b6001600160a01b0391821660009081527f52c63247e1f47db19d5ce0460030c497f067ca4cebf71ba98eeadabe20bace016020908152604080832093909416825291909152205490565b610c35610d4d565b6001600160a01b038116610c5f57604051631e4fbdf760e01b81526000600482015260240161085f565b610c6881610f91565b50565b610c788383836001611187565b505050565b6000610c898484610be3565b9050600019811015610cde5781811015610ccf57604051637dc7a0d960e11b81526001600160a01b0384166004820152602481018290526044810183905260640161085f565b610cde84848484036000611187565b50505050565b6001600160a01b038316610d0e57604051634b637e8f60e11b81526000600482015260240161085f565b6001600160a01b038216610d385760405163ec442f0560e01b81526000600482015260240161085f565b610c7883838361126f565b600061074d6113ad565b33610d7f7f9016d09d72d40fdae2fd8ceac6b6234c7706214fd39c1cd1e609a0528c199300546001600160a01b031690565b6001600160a01b0316146107e55760405163118cdaa760e01b815233600482015260240161085f565b6001600160a01b038216610dd25760405163ec442f0560e01b81526000600482015260240161085f565b6107646000838361126f565b306001600160a01b037f0000000000000000000000000000000000000000000000000000000000000000161480610e6557507f00000000000000000000000000000000000000000000000000000000000000006001600160a01b0316610e59600080516020611e39833981519152546001600160a01b031690565b6001600160a01b031614155b156107e55760405163703e46dd60e11b815260040160405180910390fd5b610c68610d4d565b816001600160a01b03166352d1902d6040518163ffffffff1660e01b8152600401602060405180830381865afa925050508015610ee5575060408051601f3d908101601f19168201909252610ee291810190611c84565b60015b610f0d57604051634c9c8ce360e01b81526001600160a01b038316600482015260240161085f565b600080516020611e398339815191528114610f3e57604051632a87526960e21b81526004810182905260240161085f565b610c788383611421565b306001600160a01b037f000000000000000000000000000000000000000000000000000000000000000016146107e55760405163703e46dd60e11b815260040160405180910390fd5b7f9016d09d72d40fdae2fd8ceac6b6234c7706214fd39c1cd1e609a0528c19930080546001600160a01b031981166001600160a01b03848116918217845560405192169182907f8be0079c531659141344cd1fd0a4f28419497f9722a3daafe3b4186f6b6457e090600090a3505050565b6000807f5ab42ced628888259c08ac98db1eb0cf702fc1501344311d8b100cd1bfe4bb006107b3565b7fa16a46d94261c7517cc8ff89f61c0ce93598e3c849801011dee649a6a557d1028054606091600080516020611e198339815191529161067f90611c4a565b60606000600080516020611e1983398151915261066e565b6001600160a01b0382166110ac57604051634b637e8f60e11b81526000600482015260240161085f565b6107648260008361126f565b6001600160a01b038116610c685760405163d92e233d60e01b815260040160405180910390fd5b6107e5611477565b610c35611477565b6110f7611477565b61076482826114c0565b611109611477565b610c6881604051806040016040528060018152602001603160f81b815250611511565b6000610717611139610d43565b8360405161190160f01b8152600281019290925260228201526042902090565b60008060008061116b88888888611572565b92509250925061117b8282611641565b50909695505050505050565b600080516020611df98339815191526001600160a01b0385166111c05760405163e602df0560e01b81526000600482015260240161085f565b6001600160a01b0384166111ea57604051634a1406b160e11b81526000600482015260240161085f565b6001600160a01b0380861660009081526001830160209081526040808320938816835292905220839055811561126857836001600160a01b0316856001600160a01b03167f8c5be1e5ebec7d5bd14f71427d1e84f3dd0314c0f7b2291e5b200ac8c7c3b9258560405161125f91815260200190565b60405180910390a35b5050505050565b600080516020611df98339815191526001600160a01b0384166112ab57818160020160008282546112a09190611c9d565b9091555061131d9050565b6001600160a01b038416600090815260208290526040902054828110156112fe5760405163391434e360e21b81526001600160a01b0386166004820152602481018290526044810184905260640161085f565b6001600160a01b03851660009081526020839052604090209083900390555b6001600160a01b03831661133b57600281018054839003905561135a565b6001600160a01b03831660009081526020829052604090208054830190555b826001600160a01b0316846001600160a01b03167fddf252ad1be2c89b69c2b068fc378daa952ba7f163c4a11628f55a4df523b3ef8460405161139f91815260200190565b60405180910390a350505050565b60007f8b73c3c69bb8fe3d512ecc4cf759cc79239f7b179b0ffacaa9a75d522b39400f6113d86116fa565b6113e0611764565b60408051602081019490945283019190915260608201524660808201523060a082015260c00160405160208183030381529060405280519060200120905090565b61142a826117a8565b6040516001600160a01b038316907fbc7cd75a20ee27fd9adebab32041f755214dbc6bffa90cc0225b39da2e5c2d3b90600090a280511561146f57610c78828261180d565b610764611883565b7ff0c57e16840df040f15088dc2f81fe391c3923bec73e23a9662efc9c229c6a0054600160401b900460ff166107e557604051631afcd79f60e31b815260040160405180910390fd5b6114c8611477565b600080516020611df98339815191527f52c63247e1f47db19d5ce0460030c497f067ca4cebf71ba98eeadabe20bace036115028482611d06565b5060048101610cde8382611d06565b611519611477565b600080516020611e198339815191527fa16a46d94261c7517cc8ff89f61c0ce93598e3c849801011dee649a6a557d1026115538482611d06565b50600381016115628382611d06565b5060008082556001909101555050565b600080807f7fffffffffffffffffffffffffffffff5d576e7357a4501ddfe92f46681b20a08411156115ad5750600091506003905082611637565b604080516000808252602082018084528a905260ff891692820192909252606081018790526080810186905260019060a0016020604051602081039080840390855afa158015611601573d6000803e3d6000fd5b5050604051601f1901519150506001600160a01b03811661162d57506000925060019150829050611637565b9250600091508190505b9450945094915050565b600082600381111561165557611655611dc6565b0361165e575050565b600182600381111561167257611672611dc6565b036116905760405163f645eedf60e01b815260040160405180910390fd5b60028260038111156116a4576116a4611dc6565b036116c55760405163fce698f760e01b81526004810182905260240161085f565b60038260038111156116d9576116d9611dc6565b03610764576040516335e2f38360e21b81526004810182905260240161085f565b6000600080516020611e198339815191528161171461102b565b80519091501561172c57805160209091012092915050565b8154801561173b579392505050565b7fc5d2460186f7233c927e7db2dcc703c0e500b653ca82273b7bfad8045d85a470935050505090565b6000600080516020611e198339815191528161177e61106a565b80519091501561179657805160209091012092915050565b6001820154801561173b579392505050565b806001600160a01b03163b6000036117de57604051634c9c8ce360e01b81526001600160a01b038216600482015260240161085f565b600080516020611e3983398151915280546001600160a01b0319166001600160a01b0392909216919091179055565b6060600080846001600160a01b03168460405161182a9190611ddc565b600060405180830381855af49150503d8060008114611865576040519150601f19603f3d011682016040523d82523d6000602084013e61186a565b606091505b509150915061187a8583836118a2565b95945050505050565b34156107e55760405163b398979f60e01b815260040160405180910390fd5b6060826118b7576118b2826118fe565b61073c565b81511580156118ce57506001600160a01b0384163b155b156118f757604051639996b31560e01b81526001600160a01b038516600482015260240161085f565b508061073c565b80511561190e5780518082602001fd5b60405163d6bda27560e01b815260040160405180910390fd5b60005b8381101561194257818101518382015260200161192a565b50506000910152565b60008151808452611963816020860160208601611927565b601f01601f19169290920160200192915050565b60208152600061073c602083018461194b565b600081356001600160a81b03811681146119a357600080fd5b6001600160a01b031692915050565b600080604083850312156119c557600080fd5b6119ce8361198a565b946020939093013593505050565b6000806000606084860312156119f157600080fd5b6119fa8461198a565b9250611a086020850161198a565b9150604084013590509250925092565b634e487b7160e01b600052604160045260246000fd5b60008060408385031215611a4157600080fd5b611a4a8361198a565b9150602083013567ffffffffffffffff80821115611a6757600080fd5b818501915085601f830112611a7b57600080fd5b813581811115611a8d57611a8d611a18565b604051601f8201601f19908116603f01168101908382118183101715611ab557611ab5611a18565b81604052828152886020848701011115611ace57600080fd5b8260208601602083013760006020848301015280955050505050509250929050565b600060208284031215611b0257600080fd5b61073c8261198a565b60ff60f81b881681526000602060e06020840152611b2c60e084018a61194b565b8381036040850152611b3e818a61194b565b606085018990526001600160a01b038816608086015260a0850187905284810360c08601528551808252602080880193509091019060005b81811015611b9257835183529284019291840191600101611b76565b50909c9b505050505050505050505050565b600080600080600080600060e0888a031215611bbf57600080fd5b611bc88861198a565b9650611bd66020890161198a565b95506040880135945060608801359350608088013560ff81168114611bfa57600080fd5b9699959850939692959460a0840135945060c09093013592915050565b60008060408385031215611c2a57600080fd5b611c338361198a565b9150611c416020840161198a565b90509250929050565b600181811c90821680611c5e57607f821691505b602082108103611c7e57634e487b7160e01b600052602260045260246000fd5b50919050565b600060208284031215611c9657600080fd5b5051919050565b8082018082111561071757634e487b7160e01b600052601160045260246000fd5b601f821115610c78576000816000526020600020601f850160051c81016020861015611ce75750805b601f850160051c820191505b81811015610a8257828155600101611cf3565b815167ffffffffffffffff811115611d2057611d20611a18565b611d3481611d2e8454611c4a565b84611cbe565b602080601f831160018114611d695760008415611d515750858301515b600019600386901b1c1916600185901b178555610a82565b600085815260208120601f198616915b82811015611d9857888601518255948401946001909101908401611d79565b5085821015611db65787850151600019600388901b60f8161c191681555b5050505050600190811b01905550565b634e487b7160e01b600052602160045260246000fd5b60008251611dee818460208701611927565b919091019291505056fe52c63247e1f47db19d5ce0460030c497f067ca4cebf71ba98eeadabe20bace00a16a46d94261c7517cc8ff89f61c0ce93598e3c849801011dee649a6a557d100360894a13ba1a3210667c828492db98dca3e2076cc3735a920a3ca505d382bbca26474726f6e58221220b3accde77685100d95a0e231f39dae7de141b89f80a33ff6f49f2f42841d1cae64736f6c63430008160033",
  "source": "// SPDX-License-Identifier: MIT\n\npragma solidity ^0.8.20;\n\nimport { Utils } from \"../library/Utils.sol\";\nimport { IOSHIToken } from \"./interfaces/IOSHIToken.sol\";\nimport { OwnableUpgradeable } from \"@openzeppelin/contracts-upgradeable/access/OwnableUpgradeable.sol\";\nimport { UUPSUpgradeable } from \"@openzeppelin/contracts-upgradeable/proxy/utils/UUPSUpgradeable.sol\";\nimport { ERC20Upgradeable } from \"@openzeppelin/contracts-upgradeable/token/ERC20/ERC20Upgradeable.sol\";\n\nimport {\n    ERC20PermitUpgradeable\n} from \"@openzeppelin/contracts-upgradeable/token/ERC20/extensions/ERC20PermitUpgradeable.sol\";\nimport { ECDSA } from \"@openzeppelin/contracts/utils/cryptography/ECDSA.sol\";\n\ncontract OSHIToken is IOSHIToken, ERC20Upgradeable, ERC20PermitUpgradeable, UUPSUpgradeable, OwnableUpgradeable {\n    // --- ERC20 Data ---\n    string internal constant _NAME = \"OSHI\";\n    string internal constant _SYMBOL = \"OSHI\";\n\n    // --- Functions ---\n    constructor() {\n        _disableInitializers();\n    }\n\n    /// @notice Override the _authorizeUpgrade function inherited from UUPSUpgradeable contract\n    // solhint-disable-next-line no-empty-blocks\n    function _authorizeUpgrade(address newImplementation) internal view override onlyOwner {\n        // No additional authorization logic is needed for this contract\n    }\n\n    function initialize(address owner) external override initializer {\n        Utils.ensureNonzeroAddress(owner);\n\n        __UUPSUpgradeable_init_unchained();\n        __Ownable_init_unchained(owner);\n        __ERC20_init(_NAME, _SYMBOL);\n        __ERC20Permit_init(_NAME);\n    }\n\n    function mint(address account, uint256 amount) external onlyOwner {\n        _mint(account, amount);\n    }\n\n    function burn(address account, uint256 amount) external onlyOwner {\n        _burn(account, amount);\n    }\n}\n",
  "sourcePath": "/Users/ashley/Documents/satoshi/satoshi-v2/src/OSHI/OSHIToken.sol",
  "compiler": {
    "name": "solc",
    "version": "0.8.22+commit.5ed3e10f.Emscripten.clang"
  },
  "schemaVersion": "2.0.1",
  "updatedAt": "2026-04-14T07:11:27.716Z"
}