{
  "contractName": "PriceFeedChainlink",
  "abi": [
    {
      "inputs": [
        {
          "internalType": "contract AggregatorV3Interface",
          "name": "source_",
          "type": "address"
        },
        {
          "internalType": "uint256",
          "name": "_maxTimeThreshold",
          "type": "uint256"
        }
      ],
      "stateMutability": "nonpayable",
      "type": "constructor"
    },
    {
      "inputs": [],
      "name": "Deprecated",
      "type": "error"
    },
    {
      "inputs": [],
      "name": "InvalidMaxTimeThreshold",
      "type": "error"
    },
    {
      "inputs": [
        {
          "internalType": "int224",
          "name": "price",
          "type": "int224"
        }
      ],
      "name": "InvalidPriceInt224",
      "type": "error"
    },
    {
      "inputs": [
        {
          "internalType": "int256",
          "name": "price",
          "type": "int256"
        }
      ],
      "name": "InvalidPriceInt256",
      "type": "error"
    },
    {
      "inputs": [
        {
          "internalType": "uint128",
          "name": "price",
          "type": "uint128"
        }
      ],
      "name": "InvalidPriceUInt128",
      "type": "error"
    },
    {
      "inputs": [
        {
          "internalType": "uint256",
          "name": "price",
          "type": "uint256"
        }
      ],
      "name": "InvalidPriceUInt256",
      "type": "error"
    },
    {
      "inputs": [
        {
          "internalType": "address",
          "name": "owner",
          "type": "address"
        }
      ],
      "name": "OwnableInvalidOwner",
      "type": "error"
    },
    {
      "inputs": [
        {
          "internalType": "address",
          "name": "account",
          "type": "address"
        }
      ],
      "name": "OwnableUnauthorizedAccount",
      "type": "error"
    },
    {
      "inputs": [],
      "name": "PriceTooOld",
      "type": "error"
    },
    {
      "anonymous": false,
      "inputs": [
        {
          "components": [
            {
              "internalType": "contract AggregatorV3Interface",
              "name": "source",
              "type": "address"
            },
            {
              "internalType": "uint256",
              "name": "maxTimeThreshold",
              "type": "uint256"
            },
            {
              "internalType": "uint256",
              "name": "weight",
              "type": "uint256"
            }
          ],
          "indexed": false,
          "internalType": "struct SourceConfig",
          "name": "sources",
          "type": "tuple"
        }
      ],
      "name": "ConfigSet",
      "type": "event"
    },
    {
      "anonymous": false,
      "inputs": [
        {
          "indexed": false,
          "internalType": "uint256",
          "name": "newMaxTimeThreshold",
          "type": "uint256"
        }
      ],
      "name": "MaxTimeThresholdUpdated",
      "type": "event"
    },
    {
      "anonymous": false,
      "inputs": [
        {
          "indexed": false,
          "internalType": "uint256[]",
          "name": "newMaxTimeThreshold",
          "type": "uint256[]"
        }
      ],
      "name": "MaxTimeThresholdsUpdated",
      "type": "event"
    },
    {
      "anonymous": false,
      "inputs": [
        {
          "indexed": true,
          "internalType": "address",
          "name": "previousOwner",
          "type": "address"
        },
        {
          "indexed": true,
          "internalType": "address",
          "name": "newOwner",
          "type": "address"
        }
      ],
      "name": "OwnershipTransferred",
      "type": "event"
    },
    {
      "anonymous": false,
      "inputs": [
        {
          "indexed": false,
          "internalType": "bytes32",
          "name": "newPriceID",
          "type": "bytes32"
        }
      ],
      "name": "PriceIDUpdated",
      "type": "event"
    },
    {
      "inputs": [],
      "name": "decimals",
      "outputs": [
        {
          "internalType": "uint8",
          "name": "",
          "type": "uint8"
        }
      ],
      "stateMutability": "view",
      "type": "function"
    },
    {
      "inputs": [],
      "name": "fetchPrice",
      "outputs": [
        {
          "internalType": "uint256",
          "name": "",
          "type": "uint256"
        }
      ],
      "stateMutability": "view",
      "type": "function"
    },
    {
      "inputs": [],
      "name": "fetchPriceUnsafe",
      "outputs": [
        {
          "internalType": "uint256",
          "name": "",
          "type": "uint256"
        },
        {
          "internalType": "uint256",
          "name": "",
          "type": "uint256"
        }
      ],
      "stateMutability": "view",
      "type": "function"
    },
    {
      "inputs": [],
      "name": "maxTimeThreshold",
      "outputs": [
        {
          "internalType": "uint256",
          "name": "",
          "type": "uint256"
        }
      ],
      "stateMutability": "view",
      "type": "function"
    },
    {
      "inputs": [],
      "name": "owner",
      "outputs": [
        {
          "internalType": "address",
          "name": "",
          "type": "address"
        }
      ],
      "stateMutability": "view",
      "type": "function"
    },
    {
      "inputs": [],
      "name": "renounceOwnership",
      "outputs": [],
      "stateMutability": "nonpayable",
      "type": "function"
    },
    {
      "inputs": [],
      "name": "source",
      "outputs": [
        {
          "internalType": "address",
          "name": "",
          "type": "address"
        }
      ],
      "stateMutability": "view",
      "type": "function"
    },
    {
      "inputs": [
        {
          "internalType": "address",
          "name": "newOwner",
          "type": "address"
        }
      ],
      "name": "transferOwnership",
      "outputs": [],
      "stateMutability": "nonpayable",
      "type": "function"
    },
    {
      "inputs": [
        {
          "internalType": "uint256",
          "name": "_maxTimeThreshold",
          "type": "uint256"
        }
      ],
      "name": "updateMaxTimeThreshold",
      "outputs": [],
      "stateMutability": "nonpayable",
      "type": "function"
    }
  ],
  "bytecode": "0x60a060405234801561001057600080fd5b50d3801561001d57600080fd5b50d2801561002a57600080fd5b506040516107b93803806107b983398101604081905261004991610115565b338061006f57604051631e4fbdf760e01b81526000600482015260240160405180910390fd5b610078816100c5565b506001600160a01b03821660805260018190556040518181527f31196645d05fc4d46fdbadcc63e38712aede3c733ac1d26f42c619c932043be29060200160405180910390a15050610159565b600080546001600160a01b038381166001600160a01b0319831681178455604051919092169283917f8be0079c531659141344cd1fd0a4f28419497f9722a3daafe3b4186f6b6457e09190a35050565b6000806040838503121561012857600080fd5b82516001600160a81b038116811461013f57600080fd5b602093909301516001600160a01b03909316949293505050565b6080516106316101886000396000818160f20152818161018f0152818161027501526103b801526106316000f3fe608060405234801561001057600080fd5b50d3801561001d57600080fd5b50d2801561002a57600080fd5b50600436106100ad5760003560e01c8063715018a611610080578063715018a61461012a5780638da5cb5b14610134578063d9b8144c14610145578063f2fde38b14610158578063fed019191461016b57600080fd5b806301f5c5de146100b25780630fdb11cf146100ce578063313ce567146100d657806367e828bf146100f0575b600080fd5b6100bb60015481565b6040519081526020015b60405180910390f35b6100bb610188565b6100de610271565b60405160ff90911681526020016100c5565b7f00000000000000000000000000000000000000000000000000000000000000005b6040516001600160a01b0390911681526020016100c5565b6101326102fa565b005b6000546001600160a01b0316610112565b6101326101533660046104e9565b61030e565b610132610166366004610502565b610372565b6101736103b0565b604080519283526020830191909152016100c5565b60008060007f00000000000000000000000000000000000000000000000000000000000000006001600160a01b031663feaf968c6040518163ffffffff1660e01b815260040160a060405180830381865afa1580156101eb573d6000803e3d6000fd5b505050506040513d601f19601f8201168201806040525081019061020f919061055a565b509350509250506000821361023f576040516373f4157160e11b8152600481018390526024015b60405180910390fd5b60015461024c82426105aa565b111561026b5760405163c9cf1f8b60e01b815260040160405180910390fd5b50919050565b60007f00000000000000000000000000000000000000000000000000000000000000006001600160a01b031663313ce5676040518163ffffffff1660e01b8152600401602060405180830381865afa1580156102d1573d6000803e3d6000fd5b505050506040513d601f19601f820116820180604052508101906102f591906105d1565b905090565b61030261046c565b61030c6000610499565b565b61031661046c565b60788111610337576040516304e2feaf60e31b815260040160405180910390fd5b60018190556040518181527f31196645d05fc4d46fdbadcc63e38712aede3c733ac1d26f42c619c932043be29060200160405180910390a150565b61037a61046c565b6001600160a01b0381166103a457604051631e4fbdf760e01b815260006004820152602401610236565b6103ad81610499565b50565b6000806000807f00000000000000000000000000000000000000000000000000000000000000006001600160a01b031663feaf968c6040518163ffffffff1660e01b815260040160a060405180830381865afa158015610414573d6000803e3d6000fd5b505050506040513d601f19601f82011682018060405250810190610438919061055a565b5093505092505060008213610463576040516373f4157160e11b815260048101839052602401610236565b90939092509050565b6000546001600160a01b0316331461030c5760405163118cdaa760e01b8152336004820152602401610236565b600080546001600160a01b038381166001600160a01b0319831681178455604051919092169283917f8be0079c531659141344cd1fd0a4f28419497f9722a3daafe3b4186f6b6457e09190a35050565b6000602082840312156104fb57600080fd5b5035919050565b60006020828403121561051457600080fd5b81356001600160a81b038116811461052b57600080fd5b6001600160a01b03169392505050565b805169ffffffffffffffffffff8116811461055557600080fd5b919050565b600080600080600060a0868803121561057257600080fd5b61057b8661053b565b945060208601519350604086015192506060860151915061059e6080870161053b565b90509295509295909350565b818103818111156105cb57634e487b7160e01b600052601160045260246000fd5b92915050565b6000602082840312156105e357600080fd5b815160ff811681146105f457600080fd5b939250505056fea26474726f6e58221220e27f325fa3a8103d47b56dad203891ee7650b8a309f37a7a31b6ac42e9058fda64736f6c63430008160033",
  "source": "// SPDX-License-Identifier: MIT\npragma solidity ^0.8.20;\n\nimport { AggregatorV3Interface } from \"./interfaces/AggregatorV3Interface.sol\";\nimport { IPriceFeed } from \"./interfaces/IPriceFeed.sol\";\nimport { Ownable } from \"@openzeppelin/contracts/access/Ownable.sol\";\n\n/**\n * @title PriceFeed Contract to integrate with Chainlink\n *        Convert data from interface of Chainlink to Satoshi's IPriceFeed\n */\ncontract PriceFeedChainlink is IPriceFeed, Ownable {\n    AggregatorV3Interface internal immutable _source;\n    uint256 public maxTimeThreshold;\n\n    constructor(AggregatorV3Interface source_, uint256 _maxTimeThreshold) Ownable(msg.sender) {\n        _source = source_;\n        maxTimeThreshold = _maxTimeThreshold;\n        emit MaxTimeThresholdUpdated(_maxTimeThreshold);\n    }\n\n    function fetchPrice() external view returns (uint256) {\n        (, int256 price,, uint256 updatedAt,) = _source.latestRoundData();\n        if (price <= 0) revert InvalidPriceInt256(price);\n        if (block.timestamp - updatedAt > maxTimeThreshold) {\n            revert PriceTooOld();\n        }\n        return uint256(price);\n    }\n\n    function fetchPriceUnsafe() external view returns (uint256, uint256) {\n        (, int256 price,, uint256 updatedAt,) = _source.latestRoundData();\n        if (price <= 0) revert InvalidPriceInt256(price);\n        return (uint256(price), updatedAt);\n    }\n\n    function decimals() external view returns (uint8) {\n        return _source.decimals();\n    }\n\n    function updateMaxTimeThreshold(uint256 _maxTimeThreshold) external onlyOwner {\n        if (_maxTimeThreshold <= 120) {\n            revert InvalidMaxTimeThreshold();\n        }\n\n        maxTimeThreshold = _maxTimeThreshold;\n        emit MaxTimeThresholdUpdated(_maxTimeThreshold);\n    }\n\n    function source() external view returns (address) {\n        return address(_source);\n    }\n}\n",
  "sourcePath": "/Users/ashley/Documents/satoshi/satoshi-v2/src/priceFeed/PriceFeedChainlink.sol",
  "compiler": {
    "name": "solc",
    "version": "0.8.22+commit.5ed3e10f.Emscripten.clang"
  },
  "schemaVersion": "2.0.1",
  "updatedAt": "2026-04-14T07:11:27.780Z"
}