{
  "contractName": "PriceFeedAggregatorFacet",
  "abi": [
    {
      "inputs": [
        {
          "internalType": "contract IPriceFeed",
          "name": "priceFeed",
          "type": "address"
        }
      ],
      "name": "InvalidFeedResponse",
      "type": "error"
    },
    {
      "inputs": [],
      "name": "InvalidPriceFeedAddress",
      "type": "error"
    },
    {
      "inputs": [],
      "name": "UintUtils__InsufficientPadding",
      "type": "error"
    },
    {
      "anonymous": false,
      "inputs": [
        {
          "indexed": true,
          "internalType": "contract IERC20",
          "name": "token",
          "type": "address"
        },
        {
          "indexed": true,
          "internalType": "contract IPriceFeed",
          "name": "priceFeed",
          "type": "address"
        }
      ],
      "name": "NewOracleRegistered",
      "type": "event"
    },
    {
      "anonymous": false,
      "inputs": [
        {
          "indexed": true,
          "internalType": "bytes32",
          "name": "role",
          "type": "bytes32"
        },
        {
          "indexed": true,
          "internalType": "bytes32",
          "name": "previousAdminRole",
          "type": "bytes32"
        },
        {
          "indexed": true,
          "internalType": "bytes32",
          "name": "newAdminRole",
          "type": "bytes32"
        }
      ],
      "name": "RoleAdminChanged",
      "type": "event"
    },
    {
      "anonymous": false,
      "inputs": [
        {
          "indexed": true,
          "internalType": "bytes32",
          "name": "role",
          "type": "bytes32"
        },
        {
          "indexed": true,
          "internalType": "address",
          "name": "account",
          "type": "address"
        },
        {
          "indexed": true,
          "internalType": "address",
          "name": "sender",
          "type": "address"
        }
      ],
      "name": "RoleGranted",
      "type": "event"
    },
    {
      "anonymous": false,
      "inputs": [
        {
          "indexed": true,
          "internalType": "bytes32",
          "name": "role",
          "type": "bytes32"
        },
        {
          "indexed": true,
          "internalType": "address",
          "name": "account",
          "type": "address"
        },
        {
          "indexed": true,
          "internalType": "address",
          "name": "sender",
          "type": "address"
        }
      ],
      "name": "RoleRevoked",
      "type": "event"
    },
    {
      "inputs": [
        {
          "internalType": "contract IERC20",
          "name": "_token",
          "type": "address"
        }
      ],
      "name": "fetchPrice",
      "outputs": [
        {
          "internalType": "uint256",
          "name": "",
          "type": "uint256"
        }
      ],
      "stateMutability": "nonpayable",
      "type": "function"
    },
    {
      "inputs": [
        {
          "internalType": "contract IERC20",
          "name": "_token",
          "type": "address"
        }
      ],
      "name": "fetchPriceUnsafe",
      "outputs": [
        {
          "internalType": "uint256",
          "name": "",
          "type": "uint256"
        },
        {
          "internalType": "uint256",
          "name": "",
          "type": "uint256"
        }
      ],
      "stateMutability": "nonpayable",
      "type": "function"
    },
    {
      "inputs": [
        {
          "internalType": "contract IERC20",
          "name": "_token",
          "type": "address"
        }
      ],
      "name": "oracleRecords",
      "outputs": [
        {
          "internalType": "contract IPriceFeed",
          "name": "priceFeed",
          "type": "address"
        },
        {
          "internalType": "uint8",
          "name": "decimals",
          "type": "uint8"
        }
      ],
      "stateMutability": "view",
      "type": "function"
    },
    {
      "inputs": [
        {
          "internalType": "contract IERC20",
          "name": "_token",
          "type": "address"
        },
        {
          "internalType": "contract IPriceFeed",
          "name": "_priceFeed",
          "type": "address"
        }
      ],
      "name": "setPriceFeed",
      "outputs": [],
      "stateMutability": "nonpayable",
      "type": "function"
    }
  ],
  "bytecode": "0x608060405234801561001057600080fd5b50d3801561001d57600080fd5b50d2801561002a57600080fd5b50610b808061003a6000396000f3fe608060405234801561001057600080fd5b50d3801561001d57600080fd5b50d2801561002a57600080fd5b50600436106100665760003560e01c8063061b11af1461006b57806376e11286146100985780637cdde506146100ad578063ace1798e146100e1575b600080fd5b61007e61007936600461082d565b610102565b604080519283526020830191909152015b60405180910390f35b6100ab6100a636600461085a565b61023d565b005b6100c06100bb36600461082d565b610276565b604080516001600160a01b03909316835260ff90911660208301520161008f565b6100f46100ef36600461082d565b6102cc565b60405190815260200161008f565b600080600061010f6103f9565b6001600160a01b038581166000908152610122830160209081526040808320815180830183529054948516808252600160a01b90950460ff1692810192909252805163fed0191960e01b81528151959650919492938493909263fed01919926004808301939192829003018187875af1158015610190573d6000803e3d6000fd5b505050506040513d601f19601f820116820180604052508101906101b491906108a0565b60208501519193509150600060111960ff8316016101d357508261022f565b60128260ff161015610209576101ed60ff831660126108da565b6101f890600a6109d1565b61020290856109dd565b905061022f565b610217601260ff84166108da565b61022290600a6109d1565b61022c90856109f4565b90505b989197509095505050505050565b7fb19546dff01e856fb3f010c267a7b1c60363cf8a4664e21cc89c26224620214e6102678161042d565b610271838361043a565b505050565b60008060006102836103f9565b6001600160a01b039485166000908152610122919091016020908152604091829020825180840190935254958616808352600160a01b90960460ff169101819052939492505050565b6000806102d76103f9565b6001600160a01b038481166000908152610122830160209081526040808320815180830183529054948516808252600160a01b90950460ff16818401528151630fdb11cf60e01b8152915195965094929392630fdb11cf92600480840193919291829003018187875af1158015610352573d6000803e3d6000fd5b505050506040513d601f19601f820116820180604052508101906103769190610a16565b6020830151909150600060111960ff8316016103935750816103ef565b60128260ff1610156103c9576103ad60ff831660126108da565b6103b890600a6109d1565b6103c290846109dd565b90506103ef565b6103d7601260ff84166108da565b6103e290600a6109d1565b6103ec90846109f4565b90505b9695505050505050565b60008061042760017f32dc5fac1ec0f102a33b5c15528dfb46fd85a8972ea61127a23d80a03590a7826108da565b92915050565b6104378133610605565b50565b6001600160a01b0381166104615760405163e358806360e01b815260040160405180910390fd5b6000816001600160a01b0316630fdb11cf6040518163ffffffff1660e01b81526004016020604051808303816000875af11580156104a3573d6000803e3d6000fd5b505050506040513d601f19601f820116820180604052508101906104c79190610a16565b036104f557604051635d2aed4560e01b81526001600160a01b03821660048201526024015b60405180910390fd5b60006104ff6103f9565b905060006040518060400160405280846001600160a01b03168152602001846001600160a01b031663313ce5676040518163ffffffff1660e01b8152600401602060405180830381865afa15801561055b573d6000803e3d6000fd5b505050506040513d601f19601f8201168201806040525081019061057f9190610a2f565b60ff9081169091526001600160a01b0380871660008181526101228701602090815260408083208751815493890151909716600160a01b026001600160a81b0319909316968616969096179190911790945592519394509086169290917fd47c7275e633726e4e34f435fd883a2c6bbc8b65a35278390d2ee3707565140091a350505050565b61060f828261066b565b61066757610625816001600160a01b03166106c7565b6106308360206106d9565b604051602001610641929190610a76565b60408051601f198184030181529082905262461bcd60e51b82526104ec91600401610aeb565b5050565b60006106c0827fd3889cc5458b268d0544e5534672df1296288ca3f93cbd39bd6f497a5c622811600086815260209190915260409020906001600160a01b038116600090815260018301602052604081205415155b9392505050565b60606104276001600160a01b03831660145b60011b600201606060008267ffffffffffffffff8111156106fc576106fc610b1e565b6040519080825280601f01601f191660200182016040528015610726576020820181803683370190505b509050600360fc1b8160008151811061074157610741610b34565b60200101906001600160f81b031916908160001a905350600f60fb1b8160018151811061077057610770610b34565b60200101906001600160f81b031916908160001a9053505b60028311156107f957600019909201916f181899199a1a9b1b9c1cb0b131b232b360811b600f8516601081106107c0576107c0610b34565b1a60f81b8184815181106107d6576107d6610b34565b60200101906001600160f81b031916908160001a905350600484901c9350610788565b83156106c0576040516355a04ff160e11b815260040160405180910390fd5b6001600160a81b038116811461043757600080fd5b60006020828403121561083f57600080fd5b813561084a81610818565b6001600160a01b03169392505050565b6000806040838503121561086d57600080fd5b823561087881610818565b6001600160a01b03908116925060208401359061089482610818565b92959216935090915050565b600080604083850312156108b357600080fd5b505080516020909101519092909150565b634e487b7160e01b600052601160045260246000fd5b81810381811115610427576104276108c4565b600181815b8085111561092857816000190482111561090e5761090e6108c4565b8085161561091b57918102915b93841c93908002906108f2565b509250929050565b60008261093f57506001610427565b8161094c57506000610427565b8160018114610962576002811461096c57610988565b6001915050610427565b60ff84111561097d5761097d6108c4565b50506001821b610427565b5060208310610133831016604e8410600b84101617156109ab575081810a610427565b6109b583836108ed565b80600019048211156109c9576109c96108c4565b029392505050565b60006106c08383610930565b8082028115828204841417610427576104276108c4565b600082610a1157634e487b7160e01b600052601260045260246000fd5b500490565b600060208284031215610a2857600080fd5b5051919050565b600060208284031215610a4157600080fd5b815160ff811681146106c057600080fd5b60005b83811015610a6d578181015183820152602001610a55565b50506000910152565b7f416363657373436f6e74726f6c3a206163636f756e7420000000000000000000815260008351610aae816017850160208801610a52565b7001034b99036b4b9b9b4b733903937b6329607d1b6017918401918201528351610adf816028840160208801610a52565b01602801949350505050565b6020815260008251806020840152610b0a816040850160208701610a52565b601f01601f19169190910160400192915050565b634e487b7160e01b600052604160045260246000fd5b634e487b7160e01b600052603260045260246000fdfea26474726f6e58221220c3c2e81ed3b68dad9e88bd394d74a6a6a917397bed9231687641270151016bd664736f6c63430008160033",
  "source": "// SPDX-License-Identifier: MIT\npragma solidity ^0.8.20;\n\nimport { IPriceFeed } from \"../../priceFeed/interfaces/IPriceFeed.sol\";\nimport { AppStorage } from \"../AppStorage.sol\";\nimport { Config } from \"../Config.sol\";\nimport { IPriceFeedAggregatorFacet, OracleRecord } from \"../interfaces/IPriceFeedAggregatorFacet.sol\";\nimport { IERC20 } from \"@openzeppelin/contracts/token/ERC20/IERC20.sol\";\nimport { AccessControlInternal } from \"@solidstate/contracts/access/access_control/AccessControlInternal.sol\";\n\ncontract PriceFeedAggregatorFacet is IPriceFeedAggregatorFacet, AccessControlInternal {\n    function setPriceFeed(IERC20 _token, IPriceFeed _priceFeed) external onlyRole(Config.OWNER_ROLE) {\n        _setPriceFeed(_token, _priceFeed);\n    }\n\n    function _setPriceFeed(IERC20 _token, IPriceFeed _priceFeed) internal {\n        if (address(_priceFeed) == address(0)) {\n            revert InvalidPriceFeedAddress();\n        }\n        if (_priceFeed.fetchPrice() == uint256(0)) {\n            revert InvalidFeedResponse(_priceFeed);\n        }\n\n        AppStorage.Layout storage s = AppStorage.layout();\n        OracleRecord memory record = OracleRecord({ priceFeed: _priceFeed, decimals: _priceFeed.decimals() });\n        s.oracleRecords[_token] = record;\n\n        emit NewOracleRegistered(_token, _priceFeed);\n    }\n\n    // Public functions -------------------------------------------------------------------------------------------------\n\n    function fetchPrice(IERC20 _token) public returns (uint256) {\n        AppStorage.Layout storage s = AppStorage.layout();\n        OracleRecord memory oracle = s.oracleRecords[_token];\n\n        uint256 rawPrice = oracle.priceFeed.fetchPrice();\n        uint8 decimals = oracle.decimals;\n\n        uint256 scaledPrice;\n        if (decimals == Config.PRICE_TARGET_DIGITS) {\n            scaledPrice = rawPrice;\n        } else if (decimals < Config.PRICE_TARGET_DIGITS) {\n            scaledPrice = rawPrice * (10 ** (Config.PRICE_TARGET_DIGITS - decimals));\n        } else {\n            scaledPrice = rawPrice / (10 ** (decimals - Config.PRICE_TARGET_DIGITS));\n        }\n        return scaledPrice;\n    }\n\n    function fetchPriceUnsafe(IERC20 _token) external returns (uint256, uint256) {\n        AppStorage.Layout storage s = AppStorage.layout();\n        OracleRecord memory oracle = s.oracleRecords[_token];\n\n        (uint256 rawPrice, uint256 updatedAt) = oracle.priceFeed.fetchPriceUnsafe();\n        uint8 decimals = oracle.decimals;\n\n        uint256 scaledPrice;\n        if (decimals == Config.PRICE_TARGET_DIGITS) {\n            scaledPrice = rawPrice;\n        } else if (decimals < Config.PRICE_TARGET_DIGITS) {\n            scaledPrice = rawPrice * (10 ** (Config.PRICE_TARGET_DIGITS - decimals));\n        } else {\n            scaledPrice = rawPrice / (10 ** (decimals - Config.PRICE_TARGET_DIGITS));\n        }\n        return (scaledPrice, updatedAt);\n    }\n\n    function oracleRecords(IERC20 _token) external view returns (IPriceFeed priceFeed, uint8 decimals) {\n        AppStorage.Layout storage s = AppStorage.layout();\n        OracleRecord memory record = s.oracleRecords[_token];\n        return (record.priceFeed, record.decimals);\n    }\n}\n",
  "sourcePath": "/Users/ashley/Documents/satoshi/satoshi-v2/src/core/facets/PriceFeedAggregatorFacet.sol",
  "compiler": {
    "name": "solc",
    "version": "0.8.22+commit.5ed3e10f.Emscripten.clang"
  },
  "schemaVersion": "2.0.1",
  "updatedAt": "2026-04-14T07:11:27.755Z"
}