{
  "contractName": "RewardManager",
  "abi": [
    {
      "inputs": [],
      "stateMutability": "nonpayable",
      "type": "constructor"
    },
    {
      "inputs": [
        {
          "internalType": "address",
          "name": "target",
          "type": "address"
        }
      ],
      "name": "AddressEmptyCode",
      "type": "error"
    },
    {
      "inputs": [
        {
          "internalType": "address",
          "name": "implementation",
          "type": "address"
        }
      ],
      "name": "ERC1967InvalidImplementation",
      "type": "error"
    },
    {
      "inputs": [],
      "name": "ERC1967NonPayable",
      "type": "error"
    },
    {
      "inputs": [],
      "name": "FailedCall",
      "type": "error"
    },
    {
      "inputs": [],
      "name": "InvalidInitialization",
      "type": "error"
    },
    {
      "inputs": [],
      "name": "NativeTokenTransferFailed",
      "type": "error"
    },
    {
      "inputs": [],
      "name": "NotInitializing",
      "type": "error"
    },
    {
      "inputs": [
        {
          "internalType": "address",
          "name": "owner",
          "type": "address"
        }
      ],
      "name": "OwnableInvalidOwner",
      "type": "error"
    },
    {
      "inputs": [
        {
          "internalType": "address",
          "name": "account",
          "type": "address"
        }
      ],
      "name": "OwnableUnauthorizedAccount",
      "type": "error"
    },
    {
      "inputs": [
        {
          "internalType": "address",
          "name": "token",
          "type": "address"
        }
      ],
      "name": "SafeERC20FailedOperation",
      "type": "error"
    },
    {
      "inputs": [],
      "name": "UUPSUnauthorizedCallContext",
      "type": "error"
    },
    {
      "inputs": [
        {
          "internalType": "bytes32",
          "name": "slot",
          "type": "bytes32"
        }
      ],
      "name": "UUPSUnsupportedProxiableUUID",
      "type": "error"
    },
    {
      "inputs": [],
      "name": "ZeroAddress",
      "type": "error"
    },
    {
      "anonymous": false,
      "inputs": [
        {
          "indexed": false,
          "internalType": "address",
          "name": "",
          "type": "address"
        }
      ],
      "name": "DebtTokenSet",
      "type": "event"
    },
    {
      "anonymous": false,
      "inputs": [
        {
          "indexed": false,
          "internalType": "address",
          "name": "",
          "type": "address"
        },
        {
          "indexed": false,
          "internalType": "uint256",
          "name": "",
          "type": "uint256"
        }
      ],
      "name": "F_COLLUpdated",
      "type": "event"
    },
    {
      "anonymous": false,
      "inputs": [
        {
          "indexed": false,
          "internalType": "uint256",
          "name": "",
          "type": "uint256"
        }
      ],
      "name": "F_SATUpdated",
      "type": "event"
    },
    {
      "anonymous": false,
      "inputs": [
        {
          "indexed": false,
          "internalType": "uint64",
          "name": "version",
          "type": "uint64"
        }
      ],
      "name": "Initialized",
      "type": "event"
    },
    {
      "anonymous": false,
      "inputs": [
        {
          "indexed": false,
          "internalType": "address",
          "name": "",
          "type": "address"
        }
      ],
      "name": "OSHITokenSet",
      "type": "event"
    },
    {
      "anonymous": false,
      "inputs": [
        {
          "indexed": true,
          "internalType": "address",
          "name": "previousOwner",
          "type": "address"
        },
        {
          "indexed": true,
          "internalType": "address",
          "name": "newOwner",
          "type": "address"
        }
      ],
      "name": "OwnershipTransferred",
      "type": "event"
    },
    {
      "anonymous": false,
      "inputs": [
        {
          "indexed": false,
          "internalType": "address",
          "name": "",
          "type": "address"
        }
      ],
      "name": "SatoshiXappSet",
      "type": "event"
    },
    {
      "anonymous": false,
      "inputs": [
        {
          "indexed": false,
          "internalType": "address",
          "name": "",
          "type": "address"
        },
        {
          "indexed": false,
          "internalType": "uint256",
          "name": "",
          "type": "uint256"
        }
      ],
      "name": "StakeChanged",
      "type": "event"
    },
    {
      "anonymous": false,
      "inputs": [
        {
          "indexed": false,
          "internalType": "address",
          "name": "",
          "type": "address"
        },
        {
          "indexed": false,
          "internalType": "uint256[]",
          "name": "",
          "type": "uint256[]"
        },
        {
          "indexed": false,
          "internalType": "uint256",
          "name": "",
          "type": "uint256"
        }
      ],
      "name": "StakerSnapshotsUpdated",
      "type": "event"
    },
    {
      "anonymous": false,
      "inputs": [
        {
          "indexed": false,
          "internalType": "address",
          "name": "",
          "type": "address"
        },
        {
          "indexed": false,
          "internalType": "uint256[]",
          "name": "",
          "type": "uint256[]"
        },
        {
          "indexed": false,
          "internalType": "uint256",
          "name": "",
          "type": "uint256"
        }
      ],
      "name": "StakingGainsWithdrawn",
      "type": "event"
    },
    {
      "anonymous": false,
      "inputs": [
        {
          "indexed": false,
          "internalType": "uint256",
          "name": "",
          "type": "uint256"
        }
      ],
      "name": "TotalOSHIStakedUpdated",
      "type": "event"
    },
    {
      "anonymous": false,
      "inputs": [
        {
          "indexed": false,
          "internalType": "contract ITroveManager",
          "name": "",
          "type": "address"
        }
      ],
      "name": "TroveManagerRegistered",
      "type": "event"
    },
    {
      "anonymous": false,
      "inputs": [
        {
          "indexed": false,
          "internalType": "contract ITroveManager",
          "name": "",
          "type": "address"
        }
      ],
      "name": "TroveManagerRemoved",
      "type": "event"
    },
    {
      "anonymous": false,
      "inputs": [
        {
          "indexed": true,
          "internalType": "address",
          "name": "implementation",
          "type": "address"
        }
      ],
      "name": "Upgraded",
      "type": "event"
    },
    {
      "anonymous": false,
      "inputs": [
        {
          "indexed": false,
          "internalType": "address",
          "name": "",
          "type": "address"
        }
      ],
      "name": "WETHSet",
      "type": "event"
    },
    {
      "anonymous": false,
      "inputs": [
        {
          "indexed": false,
          "internalType": "address",
          "name": "",
          "type": "address"
        },
        {
          "indexed": false,
          "internalType": "bool",
          "name": "",
          "type": "bool"
        }
      ],
      "name": "WhitelistCallerSet",
      "type": "event"
    },
    {
      "inputs": [],
      "name": "DECIMAL_PRECISION",
      "outputs": [
        {
          "internalType": "uint256",
          "name": "",
          "type": "uint256"
        }
      ],
      "stateMutability": "view",
      "type": "function"
    },
    {
      "inputs": [],
      "name": "FEE_RATIO_BASE",
      "outputs": [
        {
          "internalType": "uint256",
          "name": "",
          "type": "uint256"
        }
      ],
      "stateMutability": "view",
      "type": "function"
    },
    {
      "inputs": [],
      "name": "FEE_TO_STAKER_RATIO",
      "outputs": [
        {
          "internalType": "uint256",
          "name": "",
          "type": "uint256"
        }
      ],
      "stateMutability": "view",
      "type": "function"
    },
    {
      "inputs": [
        {
          "internalType": "uint256",
          "name": "",
          "type": "uint256"
        }
      ],
      "name": "F_COLL",
      "outputs": [
        {
          "internalType": "uint256",
          "name": "",
          "type": "uint256"
        }
      ],
      "stateMutability": "view",
      "type": "function"
    },
    {
      "inputs": [],
      "name": "F_SAT",
      "outputs": [
        {
          "internalType": "uint256",
          "name": "",
          "type": "uint256"
        }
      ],
      "stateMutability": "view",
      "type": "function"
    },
    {
      "inputs": [],
      "name": "UPGRADE_INTERFACE_VERSION",
      "outputs": [
        {
          "internalType": "string",
          "name": "",
          "type": "string"
        }
      ],
      "stateMutability": "view",
      "type": "function"
    },
    {
      "inputs": [],
      "name": "claimFee",
      "outputs": [],
      "stateMutability": "nonpayable",
      "type": "function"
    },
    {
      "inputs": [],
      "name": "claimReward",
      "outputs": [],
      "stateMutability": "nonpayable",
      "type": "function"
    },
    {
      "inputs": [
        {
          "internalType": "uint256",
          "name": "",
          "type": "uint256"
        }
      ],
      "name": "collForFeeReceiver",
      "outputs": [
        {
          "internalType": "uint256",
          "name": "",
          "type": "uint256"
        }
      ],
      "stateMutability": "view",
      "type": "function"
    },
    {
      "inputs": [
        {
          "internalType": "uint256",
          "name": "",
          "type": "uint256"
        }
      ],
      "name": "collToken",
      "outputs": [
        {
          "internalType": "contract IERC20",
          "name": "",
          "type": "address"
        }
      ],
      "stateMutability": "view",
      "type": "function"
    },
    {
      "inputs": [
        {
          "internalType": "address",
          "name": "",
          "type": "address"
        }
      ],
      "name": "collTokenIndex",
      "outputs": [
        {
          "internalType": "uint256",
          "name": "",
          "type": "uint256"
        }
      ],
      "stateMutability": "view",
      "type": "function"
    },
    {
      "inputs": [],
      "name": "debtToken",
      "outputs": [
        {
          "internalType": "contract IDebtToken",
          "name": "",
          "type": "address"
        }
      ],
      "stateMutability": "view",
      "type": "function"
    },
    {
      "inputs": [
        {
          "internalType": "address",
          "name": "_user",
          "type": "address"
        }
      ],
      "name": "getAvailableUnstakeAmount",
      "outputs": [
        {
          "internalType": "uint256",
          "name": "",
          "type": "uint256"
        }
      ],
      "stateMutability": "view",
      "type": "function"
    },
    {
      "inputs": [
        {
          "internalType": "address",
          "name": "_user",
          "type": "address"
        }
      ],
      "name": "getPendingCollGain",
      "outputs": [
        {
          "internalType": "uint256[]",
          "name": "",
          "type": "uint256[]"
        }
      ],
      "stateMutability": "view",
      "type": "function"
    },
    {
      "inputs": [
        {
          "internalType": "address",
          "name": "_user",
          "type": "address"
        }
      ],
      "name": "getPendingSATGain",
      "outputs": [
        {
          "internalType": "uint256",
          "name": "",
          "type": "uint256"
        }
      ],
      "stateMutability": "view",
      "type": "function"
    },
    {
      "inputs": [
        {
          "internalType": "address",
          "name": "_user",
          "type": "address"
        }
      ],
      "name": "getSnapshot",
      "outputs": [
        {
          "components": [
            {
              "internalType": "uint256[1000]",
              "name": "F_COLL_Snapshot",
              "type": "uint256[1000]"
            },
            {
              "internalType": "uint256",
              "name": "F_SAT_Snapshot",
              "type": "uint256"
            }
          ],
          "internalType": "struct IRewardManager.Snapshot",
          "name": "",
          "type": "tuple"
        }
      ],
      "stateMutability": "view",
      "type": "function"
    },
    {
      "inputs": [
        {
          "internalType": "address",
          "name": "_user",
          "type": "address"
        }
      ],
      "name": "getStakeData",
      "outputs": [
        {
          "components": [
            {
              "internalType": "uint256",
              "name": "lockWeights",
              "type": "uint256"
            },
            {
              "internalType": "uint32[4]",
              "name": "nextUnlockIndex",
              "type": "uint32[4]"
            }
          ],
          "internalType": "struct IRewardManager.StakeData",
          "name": "",
          "type": "tuple"
        }
      ],
      "stateMutability": "view",
      "type": "function"
    },
    {
      "inputs": [
        {
          "internalType": "address",
          "name": "_user",
          "type": "address"
        },
        {
          "internalType": "uint256",
          "name": "_index",
          "type": "uint256"
        }
      ],
      "name": "getUserStakes",
      "outputs": [
        {
          "components": [
            {
              "internalType": "address",
              "name": "staker",
              "type": "address"
            },
            {
              "internalType": "uint256",
              "name": "amount",
              "type": "uint256"
            },
            {
              "internalType": "enum LockDuration",
              "name": "lockDuration",
              "type": "uint8"
            },
            {
              "internalType": "uint32",
              "name": "endTime",
              "type": "uint32"
            }
          ],
          "internalType": "struct IRewardManager.Stake[]",
          "name": "",
          "type": "tuple[]"
        }
      ],
      "stateMutability": "view",
      "type": "function"
    },
    {
      "inputs": [
        {
          "internalType": "uint256",
          "name": "_amount",
          "type": "uint256"
        }
      ],
      "name": "increaseCollPerUintStaked",
      "outputs": [],
      "stateMutability": "nonpayable",
      "type": "function"
    },
    {
      "inputs": [
        {
          "internalType": "uint256",
          "name": "_amount",
          "type": "uint256"
        }
      ],
      "name": "increaseSATPerUintStaked",
      "outputs": [],
      "stateMutability": "nonpayable",
      "type": "function"
    },
    {
      "inputs": [
        {
          "internalType": "address",
          "name": "_owner",
          "type": "address"
        },
        {
          "internalType": "address",
          "name": "_satoshiXApp",
          "type": "address"
        },
        {
          "internalType": "address",
          "name": "_weth",
          "type": "address"
        },
        {
          "internalType": "address",
          "name": "_debtToken",
          "type": "address"
        },
        {
          "internalType": "address",
          "name": "_oshiToken",
          "type": "address"
        }
      ],
      "name": "initialize",
      "outputs": [],
      "stateMutability": "nonpayable",
      "type": "function"
    },
    {
      "inputs": [
        {
          "internalType": "address",
          "name": "",
          "type": "address"
        }
      ],
      "name": "isTroveManagerRegistered",
      "outputs": [
        {
          "internalType": "bool",
          "name": "",
          "type": "bool"
        }
      ],
      "stateMutability": "view",
      "type": "function"
    },
    {
      "inputs": [],
      "name": "oshiToken",
      "outputs": [
        {
          "internalType": "contract IOSHIToken",
          "name": "",
          "type": "address"
        }
      ],
      "stateMutability": "view",
      "type": "function"
    },
    {
      "inputs": [],
      "name": "owner",
      "outputs": [
        {
          "internalType": "address",
          "name": "",
          "type": "address"
        }
      ],
      "stateMutability": "view",
      "type": "function"
    },
    {
      "inputs": [],
      "name": "proxiableUUID",
      "outputs": [
        {
          "internalType": "bytes32",
          "name": "",
          "type": "bytes32"
        }
      ],
      "stateMutability": "view",
      "type": "function"
    },
    {
      "inputs": [
        {
          "internalType": "contract ITroveManager",
          "name": "_troveManager",
          "type": "address"
        }
      ],
      "name": "registerTroveManager",
      "outputs": [],
      "stateMutability": "nonpayable",
      "type": "function"
    },
    {
      "inputs": [
        {
          "internalType": "contract ITroveManager",
          "name": "_troveManager",
          "type": "address"
        }
      ],
      "name": "removeTroveManager",
      "outputs": [],
      "stateMutability": "nonpayable",
      "type": "function"
    },
    {
      "inputs": [],
      "name": "renounceOwnership",
      "outputs": [],
      "stateMutability": "nonpayable",
      "type": "function"
    },
    {
      "inputs": [],
      "name": "satForFeeReceiver",
      "outputs": [
        {
          "internalType": "uint256",
          "name": "",
          "type": "uint256"
        }
      ],
      "stateMutability": "view",
      "type": "function"
    },
    {
      "inputs": [],
      "name": "satoshiXApp",
      "outputs": [
        {
          "internalType": "address",
          "name": "",
          "type": "address"
        }
      ],
      "stateMutability": "view",
      "type": "function"
    },
    {
      "inputs": [
        {
          "internalType": "address",
          "name": "_satoshiXApp",
          "type": "address"
        },
        {
          "internalType": "address",
          "name": "_weth",
          "type": "address"
        },
        {
          "internalType": "address",
          "name": "_debtToken",
          "type": "address"
        },
        {
          "internalType": "address",
          "name": "_oshiToken",
          "type": "address"
        }
      ],
      "name": "setAddresses",
      "outputs": [],
      "stateMutability": "nonpayable",
      "type": "function"
    },
    {
      "inputs": [
        {
          "internalType": "address",
          "name": "_caller",
          "type": "address"
        },
        {
          "internalType": "bool",
          "name": "_status",
          "type": "bool"
        }
      ],
      "name": "setWhitelistCaller",
      "outputs": [],
      "stateMutability": "nonpayable",
      "type": "function"
    },
    {
      "inputs": [
        {
          "internalType": "uint256",
          "name": "_amount",
          "type": "uint256"
        },
        {
          "internalType": "enum LockDuration",
          "name": "_duration",
          "type": "uint8"
        }
      ],
      "name": "stake",
      "outputs": [],
      "stateMutability": "nonpayable",
      "type": "function"
    },
    {
      "inputs": [],
      "name": "totalOSHIWeightedStaked",
      "outputs": [
        {
          "internalType": "uint256",
          "name": "",
          "type": "uint256"
        }
      ],
      "stateMutability": "view",
      "type": "function"
    },
    {
      "inputs": [
        {
          "internalType": "address",
          "name": "newOwner",
          "type": "address"
        }
      ],
      "name": "transferOwnership",
      "outputs": [],
      "stateMutability": "nonpayable",
      "type": "function"
    },
    {
      "inputs": [
        {
          "internalType": "uint256",
          "name": "_amount",
          "type": "uint256"
        }
      ],
      "name": "unstake",
      "outputs": [],
      "stateMutability": "nonpayable",
      "type": "function"
    },
    {
      "inputs": [
        {
          "internalType": "address",
          "name": "newImplementation",
          "type": "address"
        },
        {
          "internalType": "bytes",
          "name": "data",
          "type": "bytes"
        }
      ],
      "name": "upgradeToAndCall",
      "outputs": [],
      "stateMutability": "payable",
      "type": "function"
    },
    {
      "inputs": [],
      "name": "weth",
      "outputs": [
        {
          "internalType": "contract IWETH",
          "name": "",
          "type": "address"
        }
      ],
      "stateMutability": "view",
      "type": "function"
    },
    {
      "inputs": [
        {
          "internalType": "address",
          "name": "",
          "type": "address"
        }
      ],
      "name": "whitelistCaller",
      "outputs": [
        {
          "internalType": "bool",
          "name": "",
          "type": "bool"
        }
      ],
      "stateMutability": "view",
      "type": "function"
    }
  ],
  "bytecode": "0x60a0604052306080523480156200001557600080fd5b50d380156200002357600080fd5b50d280156200003157600080fd5b506200003c62000042565b620000f6565b7ff0c57e16840df040f15088dc2f81fe391c3923bec73e23a9662efc9c229c6a00805468010000000000000000900460ff1615620000935760405163f92ee8a960e01b815260040160405180910390fd5b80546001600160401b0390811614620000f35780546001600160401b0319166001600160401b0390811782556040519081527fc7f505b2f371ae2175ee4913f4499e1f2633a7b5936321eed1cdaeb6115181d29060200160405180910390a15b50565b6080516138776200012060003960008181612a1801528181612a410152612b8201526138776000f3fe6080604052600436106102305760003560e01c8063884689f31161012e578063d01d6831116100ab578063e1f5dfef1161006f578063e1f5dfef14610a3a578063f2fde38b14610a74578063f444900e14610aae578063f8d8989814610af5578063fab7963b14610b2f57600080fd5b8063d01d6831146108fb578063d053316f14610935578063d99f0fe41461096f578063da66d4dc146109b9578063e19c80c214610a0057600080fd5b8063ad3cb1cc116100f2578063ad3cb1cc146107c6578063b76b0c081461081e578063b844043114610858578063b88a802f14610892578063cf492201146108c157600080fd5b8063884689f3146106a65780638da5cb5b146106d657806399d32fc41461072d578063a20baee61461075c578063abd3b3fb1461079657600080fd5b80634a945f8d116101bc578063680249d111610180578063680249d1146105995780637111c747146105d3578063715018a61461060d5780637421f7bc1461063c578063782a91f91461067657600080fd5b80634a945f8d1461049c5780634f1ef286146104d65780635166166d146104e957806352d1902d146105235780635a106cf11461055257600080fd5b80632157025611610203578063215702561461034457806322ccbb8c1461038b5780632e17de78146103c95780633fc8cef314610403578063419bc8ad1461045557600080fd5b8063052d3384146102355780630da234fb1461029457806310087fb1146102d05780631459457a1461030a575b600080fd5b34801561024157600080fd5b50d3801561024e57600080fd5b50d2801561025b57600080fd5b5061027f61026a3660046131c4565b600f6020526000908152604090205460ff1681565b60405190151581526020015b60405180910390f35b3480156102a057600080fd5b50d380156102ad57600080fd5b50d280156102ba57600080fd5b506102ce6102c93660046131ff565b610b5f565b005b3480156102dc57600080fd5b50d380156102e957600080fd5b50d280156102f657600080fd5b506102ce610305366004613241565b610bcb565b34801561031657600080fd5b50d3801561032357600080fd5b50d2801561033057600080fd5b506102ce61033f36600461326a565b610f37565b34801561035057600080fd5b50d3801561035d57600080fd5b50d2801561036a57600080fd5b5061037e6103793660046131c4565b61108c565b60405161028b91906132f6565b34801561039757600080fd5b50d380156103a457600080fd5b50d280156103b157600080fd5b506103bb600b5481565b60405190815260200161028b565b3480156103d557600080fd5b50d380156103e257600080fd5b50d280156103ef57600080fd5b506102ce6103fe366004613336565b6110f8565b34801561040f57600080fd5b50d3801561041c57600080fd5b50d2801561042957600080fd5b5060035461043d906001600160a01b031681565b6040516001600160a01b03909116815260200161028b565b34801561046157600080fd5b50d3801561046e57600080fd5b50d2801561047b57600080fd5b5061048f61048a36600461334f565b6116ea565b60405161028b919061339a565b3480156104a857600080fd5b50d380156104b557600080fd5b50d280156104c257600080fd5b506102ce6104d136600461342c565b6117d1565b6102ce6104e43660046134b6565b6117eb565b3480156104f557600080fd5b50d3801561050257600080fd5b50d2801561050f57600080fd5b506103bb61051e366004613336565b61180a565b34801561052f57600080fd5b50d3801561053c57600080fd5b50d2801561054957600080fd5b506103bb61182b565b34801561055e57600080fd5b50d3801561056b57600080fd5b50d2801561057857600080fd5b506103bb6105873660046131c4565b60066020526000908152604090205481565b3480156105a557600080fd5b50d380156105b257600080fd5b50d280156105bf57600080fd5b506102ce6105ce366004613336565b611848565b3480156105df57600080fd5b50d380156105ec57600080fd5b50d280156105f957600080fd5b5060015461043d906001600160a01b031681565b34801561061957600080fd5b50d3801561062657600080fd5b50d2801561063357600080fd5b506102ce611a3e565b34801561064857600080fd5b50d3801561065557600080fd5b50d2801561066257600080fd5b506103bb610671366004613336565b611a52565b34801561068257600080fd5b50d3801561068f57600080fd5b50d2801561069c57600080fd5b506103bb60095481565b3480156106b257600080fd5b50d380156106bf57600080fd5b50d280156106cc57600080fd5b506103bb60075481565b3480156106e257600080fd5b50d380156106ef57600080fd5b50d280156106fc57600080fd5b507f9016d09d72d40fdae2fd8ceac6b6234c7706214fd39c1cd1e609a0528c199300546001600160a01b031661043d565b34801561073957600080fd5b50d3801561074657600080fd5b50d2801561075357600080fd5b506102ce611a62565b34801561076857600080fd5b50d3801561077557600080fd5b50d2801561078257600080fd5b506103bb6b033b2e3c9fd0803ce800000081565b3480156107a257600080fd5b50d380156107af57600080fd5b50d280156107bc57600080fd5b506103bb6103e881565b3480156107d257600080fd5b50d380156107df57600080fd5b50d280156107ec57600080fd5b50610811604051806040016040528060058152602001640352e302e360dc1b81525081565b60405161028b91906135a7565b34801561082a57600080fd5b50d3801561083757600080fd5b50d2801561084457600080fd5b5060045461043d906001600160a01b031681565b34801561086457600080fd5b50d3801561087157600080fd5b50d2801561087e57600080fd5b506102ce61088d3660046131c4565b611c8c565b34801561089e57600080fd5b50d380156108ab57600080fd5b50d280156108b857600080fd5b506102ce611e91565b3480156108cd57600080fd5b50d380156108da57600080fd5b50d280156108e757600080fd5b506103bb6108f63660046131c4565b611f28565b34801561090757600080fd5b50d3801561091457600080fd5b50d2801561092157600080fd5b5061043d610930366004613336565b611f33565b34801561094157600080fd5b50d3801561094e57600080fd5b50d2801561095b57600080fd5b506102ce61096a366004613336565b611f5d565b34801561097b57600080fd5b50d3801561098857600080fd5b50d2801561099557600080fd5b5061027f6109a43660046131c4565b60056020526000908152604090205460ff1681565b3480156109c557600080fd5b50d380156109d257600080fd5b50d280156109df57600080fd5b506109f36109ee3660046131c4565b6120be565b60405161028b91906135da565b348015610a0c57600080fd5b50d38015610a1957600080fd5b50d28015610a2657600080fd5b506102ce610a353660046131c4565b612157565b348015610a4657600080fd5b50d38015610a5357600080fd5b50d28015610a6057600080fd5b506103bb610a6f3660046131c4565b6121b6565b348015610a8057600080fd5b50d38015610a8d57600080fd5b50d28015610a9a57600080fd5b506102ce610aa93660046131c4565b6123b0565b348015610aba57600080fd5b50d38015610ac757600080fd5b50d28015610ad457600080fd5b50610ae8610ae33660046131c4565b6123ee565b60405161028b9190613659565b348015610b0157600080fd5b50d38015610b0e57600080fd5b50d28015610b1b57600080fd5b5060005461043d906001600160a01b031681565b348015610b3b57600080fd5b50d38015610b4857600080fd5b50d28015610b5557600080fd5b506103bb6103cf81565b610b676123f9565b6001600160a01b0382166000818152600f6020908152604091829020805460ff19168515159081179091558251938452908301527f4f1b8ac8d8c872380e1a8aa311c518004bea95b8a5b276842be84f4f2c13f6c491015b60405180910390a15050565b60008211610c355760405162461bcd60e51b815260206004820152602c60248201527f5265776172644d616e616765723a20416d6f756e74206d75737420626520677260448201526b06561746572207468616e20360a41b60648201526084015b60405180910390fd5b6001546040516323b872dd60e01b8152336004820152306024820152604481018490526001600160a01b03909116906323b872dd906064016020604051808303816000875af1158015610c8c573d6000803e3d6000fd5b505050506040513d601f19601f82011682018060405250810190610cb0919061366c565b50336000818152600e6020908152604080832081516080810183529485529184018690529092908101846003811115610ceb57610ceb613384565b8152602001610cf985612454565b610d03904261369f565b63ffffffff169052336000908152600d60205260408120919250846003811115610d2f57610d2f613384565b815260208082019290925260409081016000908120805460018082018355918352918490208551600393840290910180546001600160a01b0319166001600160a01b039092169190911781559385015184820155918401516002840180548695949293919260ff19909116918490811115610dac57610dac613384565b02179055506060918201516002909101805463ffffffff9092166101000264ffffffff001990921691909117905582549060008215610dfc57610dee3361248d565b9150610df93361259c565b90505b610e053361260c565b6000610e1188886126c3565b610e1b908561369f565b8087559050610e2a88886126c3565b60076000828254610e3b919061369f565b909155505060408051338152602081018390527f39df0e5286a3ef2f42a0bf52f32cfe2c58e5b0405f47fe512f2c2439e4cfe204910160405180910390a17faeb41f942485bbe3d10278c389573940848acaf6ccb83e92f3276c5365828a0e338484604051610eac939291906136b2565b60405180910390a18315610f2d57610ec3826126f3565b60005b600254811015610f2b57610f2360028281548110610ee657610ee66136e6565b9060005260206000200160009054906101000a90046001600160a01b0316858381518110610f1657610f166136e6565b6020026020010151612773565b600101610ec6565b505b5050505050505050565b7ff0c57e16840df040f15088dc2f81fe391c3923bec73e23a9662efc9c229c6a008054600160401b810460ff16159067ffffffffffffffff16600081158015610f7d5750825b905060008267ffffffffffffffff166001148015610f9a5750303b155b905081158015610fa8575080155b15610fc65760405163f92ee8a960e01b815260040160405180910390fd5b845467ffffffffffffffff191660011785558315610ff057845460ff60401b1916600160401b1785555b610ff98a612870565b61100289612870565b61100b88612870565b61101487612870565b61101d86612870565b61102989898989612897565b6110316129e7565b61103a8a6129ef565b831561108057845460ff60401b19168555604051600181527fc7f505b2f371ae2175ee4913f4499e1f2633a7b5936321eed1cdaeb6115181d29060200160405180910390a15b50505050505050505050565b611094613132565b6001600160a01b0382166000908152600c6020526040908190208151617d40810183529182908101826103e88282826020028201915b8154815260200190600101908083116110ca57505050505081526020016103e8820154815250509050919050565b336000908152600e602052604081208054909160018301919080805b60048110156114b457336000908152600d60209081526040808320848452825280832080548251818502810185019093528083529192909190849084015b828210156111ec57600084815260209081902060408051608081018252600380870290930180546001600160a01b0316825260018101549482019490945260028401549093929184019160ff909116908111156111b1576111b1613384565b60038111156111c2576111c2613384565b815260029190910154610100900463ffffffff166020918201529082526001929092019101611152565b5050505090506000868360048110611206576112066136e6565b600891828204019190066004029054906101000a900463ffffffff1663ffffffff1690505b815181101561143b5742828281518110611247576112476136e6565b60200260200101516060015163ffffffff16118061126457508885145b61143b57888510801561129457506000828281518110611286576112866136e6565b602002602001015160200151115b80156112c35750428282815181106112ae576112ae6136e6565b60200260200101516060015163ffffffff1611155b156113915760006112fa6112d7878c6136fc565b8484815181106112e9576112e96136e6565b6020026020010151602001516129f7565b9050611306818761369f565b955061132f8184848151811061131e5761131e6136e6565b6020026020010151604001516126c3565b611339908661369f565b336000908152600d602090815260408083208884529091529020805491965082918490811061136a5761136a6136e6565b9060005260206000209060030201600101600082825461138a91906136fc565b9091555050505b336000908152600d6020908152604080832086845290915290208054829081106113bd576113bd6136e6565b906000526020600020906003020160010154600003611433578683600481106113e8576113e86136e6565b6008918282040191900660040281819054906101000a900463ffffffff16809291906114139061370f565b91906101000a81548163ffffffff021916908363ffffffff160217905550505b60010161122b565b5085826004811061144e5761144e6136e6565b600891828204019190066004029054906101000a900463ffffffff1687600101836004811061147f5761147f6136e6565b600891828204019190066004026101000a81548163ffffffff021916908363ffffffff16021790555050806001019050611114565b5060006114c03361248d565b905060006114cd3361259c565b90506114d83361260c565b836000036115335760405162461bcd60e51b815260206004820152602260248201527f5265776172644d616e616765723a204e6f204f53484920746f20776974686472604482015261617760f01b6064820152608401610c2c565b831561164b57600061154584876136fc565b80895560078054919250859160009061155f9084906136fc565b90915550506007546040519081527f2410cac90ce77056e173922904724a833d17ce67044807347728771e6c3a3c539060200160405180910390a160015460405163a9059cbb60e01b8152336004820152602481018790526001600160a01b039091169063a9059cbb906044016020604051808303816000875af11580156115eb573d6000803e3d6000fd5b505050506040513d601f19601f8201168201806040525081019061160f919061366c565b5060408051338152602081018390527f39df0e5286a3ef2f42a0bf52f32cfe2c58e5b0405f47fe512f2c2439e4cfe204910160405180910390a1505b7faeb41f942485bbe3d10278c389573940848acaf6ccb83e92f3276c5365828a0e33838360405161167e939291906136b2565b60405180910390a161168f816126f3565b60005b600254811015610f2b576116e2600282815481106116b2576116b26136e6565b9060005260206000200160009054906101000a90046001600160a01b0316848381518110610f1657610f166136e6565b600101611692565b6001600160a01b0382166000908152600d602090815260408083208484528252808320805482518185028101850190935280835260609492939192909184015b828210156117c457600084815260209081902060408051608081018252600380870290930180546001600160a01b0316825260018101549482019490945260028401549093929184019160ff9091169081111561178957611789613384565b600381111561179a5761179a613384565b815260029190910154610100900463ffffffff16602091820152908252600192909201910161172a565b5050505090505b92915050565b6117d96123f9565b6117e584848484612897565b50505050565b6117f3612a0d565b6117fc82612ab2565b6118068282612aba565b5050565b600a818154811061181a57600080fd5b600091825260209091200154905081565b6000611835612b77565b5060008051602061382283398151915290565b611850612bc0565b6000336001600160a01b031663b2016bd46040518163ffffffff1660e01b8152600401602060405180830381865afa158015611890573d6000803e3d6000fd5b505050506040513d601f19601f820116820180604052508101906118b49190613732565b6001600160a01b038116600081815260066020526040812054929350906118dd90333087612d9a565b600754156119705760006103e86118f66103cf8761374f565b6119009190613766565b9050600061190e82876136fc565b60075490915061192a6b033b2e3c9fd0803ce80000008461374f565b6119349190613766565b925080600a858154811061194a5761194a6136e6565b906000526020600020016000828254611963919061369f565b909155506119a392505050565b83600a8381548110611984576119846136e6565b90600052602060002001600082825461199d919061369f565b90915550505b80600883815481106119b7576119b76136e6565b9060005260206000200160008282546119d0919061369f565b925050819055507f930568377493086526b812e81f317f336e00f94ae6ca0ccde3ac0a5afab1ab218360088481548110611a0c57611a0c6136e6565b60009182526020918290200154604080516001600160a01b03909416845291830152015b60405180910390a150505050565b611a466123f9565b611a506000612e01565b565b6008818154811061181a57600080fd5b611a6a6123f9565b600454600b546001600160a01b039091169015611b7e5760008054906101000a90046001600160a01b03166001600160a01b031663a9059cbb826001600160a01b031663b3f006746040518163ffffffff1660e01b8152600401602060405180830381865afa158015611ae1573d6000803e3d6000fd5b505050506040513d601f19601f82011682018060405250810190611b059190613732565b600b546040516001600160e01b031960e085901b1681526001600160a01b03909216600483015260248201526044016020604051808303816000875af1158015611b53573d6000803e3d6000fd5b505050506040513d601f19601f82011682018060405250810190611b77919061366c565b506000600b555b60005b60025481101561180657600a8181548110611b9e57611b9e6136e6565b9060005260206000200154600014611c8457611c62826001600160a01b031663b3f006746040518163ffffffff1660e01b8152600401602060405180830381865afa158015611bf1573d6000803e3d6000fd5b505050506040513d601f19601f82011682018060405250810190611c159190613732565b600a8381548110611c2857611c286136e6565b906000526020600020015460028481548110611c4657611c466136e6565b6000918252602090912001546001600160a01b03169190612e72565b6000600a8281548110611c7757611c776136e6565b6000918252602090912001555b600101611b81565b611c946123f9565b6001600160a01b0381166000818152600560209081526040808320805460ff191660011790558051632c805af560e21b8152905192939263b2016bd4926004808401939192918290030181865afa158015611cf3573d6000803e3d6000fd5b505050506040513d601f19601f82011682018060405250810190611d179190613732565b90506001600160a01b038116611d7f5760405162461bcd60e51b815260206004820152602760248201527f5265776172644d616e616765723a20496e76616c696420636f6c6c617465726160448201526636103a37b5b2b760c91b6064820152608401610c2c565b600280546001808201835560008390527f405787fa12a823e0f2b7631cc41b3ba8828b3321ca811111fa75cd3aa3bb5ace90910180546001600160a01b0319166001600160a01b0385161790559054611dd891906136fc565b6001600160a01b038216600090815260066020526040808220929092556008805460018181019092557ff3f7a9fe364faab93b216da50a3214154f22a0a2b415b23a84c8169e8b636ee301829055600a8054918201815582527fc65a7bb8d6351c1cf70c95a316cc6a92839c986682d98bc35f958f4883f9d2a80155517fe9a566b37a0c9dcd2f502590ac44ffc3762c8aadb5935ab2f1ec12cd6f5870c490610bbf9084906001600160a01b0391909116815260200190565b6000611e9c3361248d565b90506000611ea93361259c565b9050611eb43361260c565b7faeb41f942485bbe3d10278c389573940848acaf6ccb83e92f3276c5365828a0e338383604051611ee7939291906136b2565b60405180910390a1611ef8816126f3565b60005b600254811015611f2357611f1b600282815481106116b2576116b26136e6565b600101611efb565b505050565b60006117cb8261259c565b60028181548110611f4357600080fd5b6000918252602090912001546001600160a01b0316905081565b611f65612bc0565b6000546040516323b872dd60e01b8152336004820152306024820152604481018390526001600160a01b03909116906323b872dd906064016020604051808303816000875af1158015611fbc573d6000803e3d6000fd5b505050506040513d601f19601f82011682018060405250810190611fe0919061366c565b506007546000901561205c5760006103e8611ffd6103cf8561374f565b6120079190613766565b9050600061201582856136fc565b6007549091506120316b033b2e3c9fd0803ce80000008461374f565b61203b9190613766565b925080600b600082825461204f919061369f565b9091555061207492505050565b81600b600082825461206e919061369f565b90915550505b8060096000828254612086919061369f565b90915550506009546040519081527fe36bd60dd6c67e11d8d52b26d76919116ae28278b4feca1da717d8abd19ab06190602001610bbf565b6120c6613152565b6001600160a01b0382166000908152600e6020908152604080832081518083018352815481528251608081019384905290949193850192909160018501916004918390855b82829054906101000a900463ffffffff1663ffffffff168152602001906004019060208260030104928301926001038202915080841161210b5790505050505050815250509050919050565b61215f6123f9565b6001600160a01b038116600081815260056020908152604091829020805460ff1916905590519182527fe44bbef3bc872937d7daf489db0badffc044d1813a027aea391838c546514303910160405180910390a150565b6001600160a01b0381166000908152600e60205260408082208151608081019283905283929091600101906004908285855b82829054906101000a900463ffffffff1663ffffffff16815260200190600401906020826003010492830192600103820291508084116121e8579050505050505090506000805b60048110156123a8576001600160a01b0385166000908152600d60209081526040808320848452825280832080548251818502810185019093528083529192909190849084015b8282101561231057600084815260209081902060408051608081018252600380870290930180546001600160a01b0316825260018101549482019490945260028401549093929184019160ff909116908111156122d5576122d5613384565b60038111156122e6576122e6613384565b815260029190910154610100900463ffffffff166020918201529082526001929092019101612276565b505050509050600084836004811061232a5761232a6136e6565b602002015163ffffffff1690505b815181101561239e5742828281518110612354576123546136e6565b60200260200101516060015163ffffffff161161239e5781818151811061237d5761237d6136e6565b60200260200101516020015184612394919061369f565b9350600101612338565b505060010161222f565b509392505050565b6123b86123f9565b6001600160a01b0381166123e257604051631e4fbdf760e01b815260006004820152602401610c2c565b6123eb81612e01565b50565b60606117cb8261248d565b3361242b7f9016d09d72d40fdae2fd8ceac6b6234c7706214fd39c1cd1e609a0528c199300546001600160a01b031690565b6001600160a01b031614611a505760405163118cdaa760e01b8152336004820152602401610c2c565b600062278d00600383600381111561246e5761246e613384565b612478919061374f565b61248390600361369f565b6117cb919061374f565b60025460609060008167ffffffffffffffff8111156124ae576124ae6134a0565b6040519080825280602002602001820160405280156124d7578160200160208202803683370190505b50905060005b828110156123a8576001600160a01b0385166000908152600c60205260408120826103e8811061250f5761250f6136e6565b015490506b033b2e3c9fd0803ce80000008160088481548110612534576125346136e6565b906000526020600020015461254991906136fc565b6001600160a01b0388166000908152600e602052604090205461256c919061374f565b6125769190613766565b838381518110612588576125886136e6565b6020908102919091010152506001016124dd565b6001600160a01b0381166000908152600c602052604081206103e8015460095482906b033b2e3c9fd0803ce8000000906125d79084906136fc565b6001600160a01b0386166000908152600e60205260409020546125fa919061374f565b6126049190613766565b949350505050565b60025460005b8181101561266d576008818154811061262d5761262d6136e6565b60009182526020808320909101546001600160a01b0386168352600c9091526040909120826103e88110612663576126636136e6565b0155600101612612565b506009546001600160a01b0383166000908152600c6020526040908190206103e801829055517fd590897789f0774c7df1ec1c5d061124e9b46a47a85cd3d2fddf218f7a04f46591610bbf918591600891613788565b60008160038111156126d7576126d7613384565b6126e290600161369f565b6126ec908461374f565b9392505050565b806000036126fe5750565b60005460405163a9059cbb60e01b8152336004820152602481018390526001600160a01b039091169063a9059cbb906044016020604051808303816000875af115801561274f573d6000803e3d6000fd5b505050506040513d601f19601f82011682018060405250810190611806919061366c565b8060000361277f575050565b6003546001600160a01b039081169083160361285c57600354604051632e1a7d4d60e01b8152600481018390526001600160a01b0390911690632e1a7d4d90602401600060405180830381600087803b1580156127db57600080fd5b505af11580156127ef573d6000803e3d6000fd5b50506040516000925033915083908381818185875af1925050503d8060008114612835576040519150601f19603f3d011682016040523d82523d6000602084013e61283a565b606091505b5050905080611f2357604051630c08bcb960e21b815260040160405180910390fd5b6118066001600160a01b0383163383612e72565b6001600160a01b0381166123eb5760405163d92e233d60e01b815260040160405180910390fd5b6128a084612870565b6128a983612870565b6128b282612870565b6128bb81612870565b600480546001600160a01b038681166001600160a01b03199283168117909355600380548783169084161790556000805486831690841617905560018054918516919092161790556040519081527f636ef48a457e65a80b78ff7dc628882eea0a3fc567db8232532cfc0bac13635c9060200160405180910390a16040516001600160a01b03831681527f066f10e42df49bba948e2e987181156b9451f4d4db55b013c5ccc92e6ca80c1f9060200160405180910390a16040516001600160a01b03821681527f470ca2010a1d1fd617fbf2d3ec851b4674bda05f4795c0d7b86da46f6810d72d9060200160405180910390a16040516001600160a01b03841681527f41408be49f75701fe4bb8484ce88d68f1d82e03cb4eb44263b6682ce2dbd32f090602001611a30565b611a50612ea3565b6123b8612ea3565b6000818310612a0657816126ec565b5090919050565b306001600160a01b037f0000000000000000000000000000000000000000000000000000000000000000161480612a9457507f00000000000000000000000000000000000000000000000000000000000000006001600160a01b0316612a88600080516020613822833981519152546001600160a01b031690565b6001600160a01b031614155b15611a505760405163703e46dd60e11b815260040160405180910390fd5b6123eb6123f9565b816001600160a01b03166352d1902d6040518163ffffffff1660e01b8152600401602060405180830381865afa925050508015612b14575060408051601f3d908101601f19168201909252612b11918101906137ec565b60015b612b3c57604051634c9c8ce360e01b81526001600160a01b0383166004820152602401610c2c565b6000805160206138228339815191528114612b6d57604051632a87526960e21b815260048101829052602401610c2c565b611f238383612eec565b306001600160a01b037f00000000000000000000000000000000000000000000000000000000000000001614611a505760405163703e46dd60e11b815260040160405180910390fd5b6004546000906001600160a01b0316331480612c6a575060048054604051632474521560e21b81527fb19546dff01e856fb3f010c267a7b1c60363cf8a4664e21cc89c26224620214e928101929092523360248301526001600160a01b0316906391d1485490604401602060405180830381865afa158015612c46573d6000803e3d6000fd5b505050506040513d601f19601f82011682018060405250810190612c6a919061366c565b80612c7f57506000546001600160a01b031633145b80612d0557506004805460408051632cfc019d60e21b815290516001600160a01b039092169263b3f006749282820192602092908290030181865afa158015612ccc573d6000803e3d6000fd5b505050506040513d601f19601f82011682018060405250810190612cf09190613732565b6001600160a01b0316336001600160a01b0316145b80612d1f57503360009081526005602052604090205460ff165b80612d395750336000908152600f602052604090205460ff165b15612d42575060015b806123eb5760405162461bcd60e51b815260206004820152602260248201527f5265776172644d616e616765723a2043616c6c6572206973206e6f742056616c6044820152611a5960f21b6064820152608401610c2c565b6040516001600160a01b0384811660248301528381166044830152606482018390526117e59186918216906323b872dd906084015b604051602081830303815290604052915060e01b6020820180516001600160e01b038381831617835250505050612f42565b7f9016d09d72d40fdae2fd8ceac6b6234c7706214fd39c1cd1e609a0528c19930080546001600160a01b031981166001600160a01b03848116918217845560405192169182907f8be0079c531659141344cd1fd0a4f28419497f9722a3daafe3b4186f6b6457e090600090a3505050565b6040516001600160a01b03838116602483015260448201839052611f2391859182169063a9059cbb90606401612dcf565b7ff0c57e16840df040f15088dc2f81fe391c3923bec73e23a9662efc9c229c6a0054600160401b900460ff16611a5057604051631afcd79f60e31b815260040160405180910390fd5b612ef582612fb3565b6040516001600160a01b038316907fbc7cd75a20ee27fd9adebab32041f755214dbc6bffa90cc0225b39da2e5c2d3b90600090a2805115612f3a57611f238282613018565b61180661308e565b600080602060008451602086016000885af180612f65576040513d6000823e3d81fd5b50506000513d91508115612f7d578060011415612f8a565b6001600160a01b0384163b155b156117e557604051635274afe760e01b81526001600160a01b0385166004820152602401610c2c565b806001600160a01b03163b600003612fe957604051634c9c8ce360e01b81526001600160a01b0382166004820152602401610c2c565b60008051602061382283398151915280546001600160a01b0319166001600160a01b0392909216919091179055565b6060600080846001600160a01b0316846040516130359190613805565b600060405180830381855af49150503d8060008114613070576040519150601f19603f3d011682016040523d82523d6000602084013e613075565b606091505b50915091506130858583836130ad565b95945050505050565b3415611a505760405163b398979f60e01b815260040160405180910390fd5b6060826130c2576130bd82613109565b6126ec565b81511580156130d957506001600160a01b0384163b155b1561310257604051639996b31560e01b81526001600160a01b0385166004820152602401610c2c565b5092915050565b8051156131195780518082602001fd5b60405163d6bda27560e01b815260040160405180910390fd5b6040518060400160405280613145613171565b8152602001600081525090565b60405180604001604052806000815260200161316c613191565b905290565b60405180617d0001604052806103e8906020820280368337509192915050565b60405180608001604052806004906020820280368337509192915050565b6001600160a81b03811681146123eb57600080fd5b6000602082840312156131d657600080fd5b81356131e1816131af565b6001600160a01b03169392505050565b80151581146123eb57600080fd5b6000806040838503121561321257600080fd5b823561321d816131af565b6001600160a01b031691506020830135613236816131f1565b809150509250929050565b6000806040838503121561325457600080fd5b8235915060208301356004811061323657600080fd5b600080600080600060a0868803121561328257600080fd5b853561328d816131af565b6001600160a01b0390811695506020870135906132a9826131af565b90811694506040870135906132bd826131af565b90811693506060870135906132d1826131af565b90811692506080870135906132e5826131af565b808216925050509295509295909350565b8151617d208201908260005b6103e8811015613322578251825260209283019290910190600101613302565b5050506020830151617d0083015292915050565b60006020828403121561334857600080fd5b5035919050565b6000806040838503121561336257600080fd5b823561336d816131af565b6001600160a01b0316946020939093013593505050565b634e487b7160e01b600052602160045260246000fd5b60208082528251828201819052600091906040908185019086840185805b8381101561341e57825180516001600160a01b0316865287810151888701528681015160048082106133f757634e487b7160e01b855260218152602485fd5b508688015260609081015163ffffffff1690860152608090940193918601916001016133b8565b509298975050505050505050565b6000806000806080858703121561344257600080fd5b843561344d816131af565b6001600160a01b039081169450602086013590613469826131af565b908116935060408601359061347d826131af565b9081169250606086013590613491826131af565b94979396509194505090911690565b634e487b7160e01b600052604160045260246000fd5b600080604083850312156134c957600080fd5b82356134d4816131af565b6001600160a01b03169150602083013567ffffffffffffffff808211156134fa57600080fd5b818501915085601f83011261350e57600080fd5b813581811115613520576135206134a0565b604051601f8201601f19908116603f01168101908382118183101715613548576135486134a0565b8160405282815288602084870101111561356157600080fd5b8260208601602083013760006020848301015280955050505050509250929050565b60005b8381101561359e578181015183820152602001613586565b50506000910152565b60208152600082518060208401526135c6816040850160208701613583565b601f01601f19169190910160400192915050565b8151815260208083015160a08301919081840160005b600481101561361357825163ffffffff16825291830191908301906001016135f0565b5050505092915050565b60008151808452602080850194506020840160005b8381101561364e57815187529582019590820190600101613632565b509495945050505050565b6020815260006126ec602083018461361d565b60006020828403121561367e57600080fd5b81516126ec816131f1565b634e487b7160e01b600052601160045260246000fd5b808201808211156117cb576117cb613689565b6001600160a01b03841681526060602082018190526000906136d69083018561361d565b9050826040830152949350505050565b634e487b7160e01b600052603260045260246000fd5b818103818111156117cb576117cb613689565b600063ffffffff80831681810361372857613728613689565b6001019392505050565b60006020828403121561374457600080fd5b81516131e1816131af565b80820281158282048414176117cb576117cb613689565b60008261378357634e487b7160e01b600052601260045260246000fd5b500490565b6001600160a01b0384168152606060208083018290528454918301829052600085815281812090929091906080850190845b818110156137d6578454835260019485019492840192016137ba565b5050809350505050826040830152949350505050565b6000602082840312156137fe57600080fd5b5051919050565b60008251613817818460208701613583565b919091019291505056fe360894a13ba1a3210667c828492db98dca3e2076cc3735a920a3ca505d382bbca26474726f6e58221220cd0e4ff30981dc4bbb4d8a005307412a01d67dde6e424ee0e2c7caf96f4867ef64736f6c63430008160033",
  "source": "// SPDX-License-Identifier: MIT\npragma solidity ^0.8.20;\n\nimport { Config } from \"../core/Config.sol\";\nimport { IWETH } from \"../core/helpers/interfaces/IWETH.sol\";\nimport { ICoreFacet } from \"../core/interfaces/ICoreFacet.sol\";\nimport { IDebtToken } from \"../core/interfaces/IDebtToken.sol\";\nimport { ITroveManager } from \"../core/interfaces/ITroveManager.sol\";\nimport { SatoshiMath } from \"../library/SatoshiMath.sol\";\n\nimport { Utils } from \"../library/Utils.sol\";\nimport { IOSHIToken } from \"./interfaces/IOSHIToken.sol\";\nimport { IRewardManager, LockDuration, NUMBER_OF_LOCK_DURATIONS } from \"./interfaces/IRewardManager.sol\";\nimport { OwnableUpgradeable } from \"@openzeppelin/contracts-upgradeable/access/OwnableUpgradeable.sol\";\nimport { UUPSUpgradeable } from \"@openzeppelin/contracts-upgradeable/proxy/utils/UUPSUpgradeable.sol\";\nimport { IERC20 } from \"@openzeppelin/contracts/token/ERC20/IERC20.sol\";\nimport { SafeERC20 } from \"@openzeppelin/contracts/token/ERC20/utils/SafeERC20.sol\";\nimport { IAccessControl } from \"@solidstate/contracts/access/access_control/IAccessControl.sol\";\n\n/**\n * @title Reward Manager Contract\n *\n *        Receive and manage protocol fees.\n *        Stake OSHI to receive sOSHI (lock weight) and gain protocol fees.\n *        stake 3 months: 1x, 6 months: 2x, 9 months: 3x, 12 months: 4x\n *        The lock weight will not decay.\n */\ncontract RewardManager is IRewardManager, UUPSUpgradeable, OwnableUpgradeable {\n    using SafeERC20 for IERC20;\n\n    uint256 public constant DECIMAL_PRECISION = 1e27;\n    uint256 public constant FEE_TO_STAKER_RATIO = 975;\n    uint256 public constant FEE_RATIO_BASE = 1000;\n\n    uint256 internal constant DURATION_MULTIPLIER = 3; // 3 months = 1x, 6 months = 2x, 9 months = 3x, 12 months = 4x\n    uint256 internal constant ONE_MONTH = 30 days;\n\n    IDebtToken public debtToken;\n    IOSHIToken public oshiToken;\n    IERC20[] public collToken;\n    IWETH public weth;\n\n    address public satoshiXApp;\n    mapping(address => bool) public isTroveManagerRegistered;\n    mapping(address => uint256) public collTokenIndex;\n\n    uint256 public totalOSHIWeightedStaked;\n\n    uint256[] public F_COLL; // running sum of Coll fees per-OSHI-point-staked\n    uint256 public F_SAT; // running sum of SAT fees per-OSHI-point-staked\n\n    uint256[] public collForFeeReceiver;\n    uint256 public satForFeeReceiver;\n\n    // User snapshots of F_SAT and F_COLL, taken at the point at which their latest deposit was made\n    mapping(address => Snapshot) internal snapshots;\n    mapping(address => mapping(uint256 => Stake[])) internal userStakes;\n    mapping(address => StakeData) internal stakeData;\n\n    // for valid caller\n    mapping(address => bool) public whitelistCaller;\n\n    constructor() {\n        _disableInitializers();\n    }\n\n    /// @notice Override the _authorizeUpgrade function inherited from UUPSUpgradeable contract\n    // solhint-disable-next-line no-empty-blocks\n    function _authorizeUpgrade(address newImplementation) internal view override onlyOwner {\n        // No additional authorization logic is needed for this contract\n    }\n\n    function initialize(\n        address _owner,\n        address _satoshiXApp,\n        address _weth,\n        address _debtToken,\n        address _oshiToken\n    )\n        external\n        initializer\n    {\n        Utils.ensureNonzeroAddress(_owner);\n        Utils.ensureNonzeroAddress(_satoshiXApp);\n        Utils.ensureNonzeroAddress(_weth);\n        Utils.ensureNonzeroAddress(_debtToken);\n        Utils.ensureNonzeroAddress(_oshiToken);\n\n        _setAddresses(_satoshiXApp, _weth, _debtToken, _oshiToken);\n\n        __UUPSUpgradeable_init_unchained();\n        __Ownable_init_unchained(_owner);\n    }\n\n    // --- External Functions ---\n    function stake(uint256 _amount, LockDuration _duration) external {\n        require(_amount > 0, \"RewardManager: Amount must be greater than 0\");\n        oshiToken.transferFrom(msg.sender, address(this), _amount);\n\n        StakeData storage data = stakeData[msg.sender];\n\n        Stake memory newStake = Stake({\n            staker: msg.sender,\n            amount: _amount,\n            lockDuration: _duration,\n            endTime: uint32(block.timestamp + _calculateDurationTimeStamp(_duration))\n        });\n\n        userStakes[msg.sender][uint256(_duration)].push(newStake);\n\n        uint256 currentWeight = data.lockWeights;\n\n        uint256[] memory CollGain;\n        uint256 SATGain;\n\n        if (currentWeight != 0) {\n            CollGain = _getPendingCollGain(msg.sender);\n            SATGain = _getPendingSATGain(msg.sender);\n        }\n\n        _updateUserSnapshots(msg.sender);\n\n        uint256 newWeight = currentWeight + _calculateLockWeight(_amount, _duration);\n\n        // Increase user’s lock weight and total OSHI staked (weighted)\n        data.lockWeights = newWeight;\n        totalOSHIWeightedStaked += _calculateLockWeight(_amount, _duration);\n\n        emit StakeChanged(msg.sender, newWeight);\n        emit StakingGainsWithdrawn(msg.sender, CollGain, SATGain);\n\n        // transfer gains to user\n        if (currentWeight != 0) {\n            _sendDebtToken(SATGain);\n            for (uint256 i; i < collToken.length; ++i) {\n                _sendCollToken(collToken[i], CollGain[i]);\n            }\n        }\n    }\n\n    function unstake(uint256 _amount) external {\n        StakeData storage data = stakeData[msg.sender];\n        uint32[NUMBER_OF_LOCK_DURATIONS] storage nextUnlockIndex = data.nextUnlockIndex;\n        uint256 currentWeight = data.lockWeights;\n        uint256 OSHIToWithdraw;\n        uint256 weightDecreased;\n        for (uint256 i; i < NUMBER_OF_LOCK_DURATIONS; ++i) {\n            Stake[] memory userStake = userStakes[msg.sender][i];\n            for (uint256 j = nextUnlockIndex[i]; j < userStake.length; ++j) {\n                if (userStake[j].endTime > block.timestamp || OSHIToWithdraw == _amount) break;\n                if (OSHIToWithdraw < _amount && userStake[j].amount > 0 && userStake[j].endTime <= block.timestamp) {\n                    uint256 withdrawAmount = SatoshiMath._min(_amount - OSHIToWithdraw, userStake[j].amount);\n                    OSHIToWithdraw += withdrawAmount;\n                    weightDecreased += _calculateLockWeight(withdrawAmount, userStake[j].lockDuration);\n                    // remove stake amount\n                    userStakes[msg.sender][i][j].amount -= withdrawAmount;\n                }\n                // set next unlock index\n                if (userStakes[msg.sender][i][j].amount == 0) {\n                    nextUnlockIndex[i]++;\n                }\n            }\n            // update next unlock index\n            data.nextUnlockIndex[i] = nextUnlockIndex[i];\n        }\n\n        uint256[] memory CollGain = _getPendingCollGain(msg.sender);\n        uint256 SATGain = _getPendingSATGain(msg.sender);\n\n        _updateUserSnapshots(msg.sender);\n\n        require(OSHIToWithdraw != 0, \"RewardManager: No OSHI to withdraw\");\n\n        if (OSHIToWithdraw != 0) {\n            uint256 newWeight = currentWeight - weightDecreased;\n\n            // Decrease user's lock weight and total OSHI staked (weighted)\n            data.lockWeights = newWeight;\n            totalOSHIWeightedStaked -= weightDecreased;\n            emit TotalOSHIStakedUpdated(totalOSHIWeightedStaked);\n\n            // Transfer unstaked OSHI to user\n            oshiToken.transfer(msg.sender, OSHIToWithdraw);\n\n            emit StakeChanged(msg.sender, newWeight);\n        }\n\n        emit StakingGainsWithdrawn(msg.sender, CollGain, SATGain);\n\n        // send gains to user\n        _sendDebtToken(SATGain);\n        for (uint256 i; i < collToken.length; ++i) {\n            _sendCollToken(collToken[i], CollGain[i]);\n        }\n    }\n\n    function claimReward() external {\n        uint256[] memory CollGain = _getPendingCollGain(msg.sender);\n        uint256 SATGain = _getPendingSATGain(msg.sender);\n\n        _updateUserSnapshots(msg.sender);\n\n        emit StakingGainsWithdrawn(msg.sender, CollGain, SATGain);\n\n        // send gains to user\n        _sendDebtToken(SATGain);\n        for (uint256 i; i < collToken.length; ++i) {\n            _sendCollToken(collToken[i], CollGain[i]);\n        }\n    }\n\n    function increaseCollPerUintStaked(uint256 _amount) external {\n        _isValidCaller();\n\n        address collateralToken = address(ITroveManager(msg.sender).collateralToken());\n        uint256 index = collTokenIndex[collateralToken];\n        uint256 collFeePerOSHIStaked;\n\n        IERC20(collateralToken).safeTransferFrom(msg.sender, address(this), _amount);\n\n        if (totalOSHIWeightedStaked > 0) {\n            uint256 _amountToStaker = _amount * FEE_TO_STAKER_RATIO / FEE_RATIO_BASE;\n            uint256 _amountToFeeReceiver = _amount - _amountToStaker;\n            collFeePerOSHIStaked = _amountToStaker * DECIMAL_PRECISION / totalOSHIWeightedStaked;\n            collForFeeReceiver[index] += _amountToFeeReceiver;\n        } else {\n            // when no OSHI is staked\n            collForFeeReceiver[index] += _amount;\n        }\n\n        F_COLL[index] += collFeePerOSHIStaked;\n        emit F_COLLUpdated(collateralToken, F_COLL[index]);\n    }\n\n    function increaseSATPerUintStaked(uint256 _amount) external {\n        _isValidCaller();\n\n        debtToken.transferFrom(msg.sender, address(this), _amount);\n\n        uint256 SATFeePerOSHIStaked;\n\n        if (totalOSHIWeightedStaked > 0) {\n            uint256 _amountToStaker = _amount * FEE_TO_STAKER_RATIO / FEE_RATIO_BASE;\n            uint256 _amountToFeeReceiver = _amount - _amountToStaker;\n            SATFeePerOSHIStaked = _amountToStaker * DECIMAL_PRECISION / totalOSHIWeightedStaked;\n            satForFeeReceiver += _amountToFeeReceiver;\n        } else {\n            // when no OSHI is staked\n            satForFeeReceiver += _amount;\n        }\n\n        F_SAT += SATFeePerOSHIStaked;\n        emit F_SATUpdated(F_SAT);\n    }\n\n    // --- Pending reward functions ---\n\n    function getPendingCollGain(address _user) external view returns (uint256[] memory) {\n        return _getPendingCollGain(_user);\n    }\n\n    function _getPendingCollGain(address _user) internal view returns (uint256[] memory) {\n        uint256 collTokenLength = collToken.length;\n        uint256[] memory CollGain = new uint256[](collTokenLength);\n        for (uint256 i; i < collTokenLength; ++i) {\n            uint256 F_COLL_Snapshot = snapshots[_user].F_COLL_Snapshot[i];\n            CollGain[i] = stakeData[_user].lockWeights * (F_COLL[i] - F_COLL_Snapshot) / DECIMAL_PRECISION;\n        }\n        return CollGain;\n    }\n\n    function getPendingSATGain(address _user) external view returns (uint256) {\n        return _getPendingSATGain(_user);\n    }\n\n    function _getPendingSATGain(address _user) internal view returns (uint256) {\n        uint256 F_SAT_Snapshot = snapshots[_user].F_SAT_Snapshot;\n        uint256 SATGain = stakeData[_user].lockWeights * (F_SAT - F_SAT_Snapshot) / DECIMAL_PRECISION;\n        return SATGain;\n    }\n\n    function getAvailableUnstakeAmount(address _user) external view returns (uint256) {\n        uint32[NUMBER_OF_LOCK_DURATIONS] memory nextUnlockIndex = stakeData[_user].nextUnlockIndex;\n        uint256 availableUnstakeAmount;\n        for (uint256 i; i < NUMBER_OF_LOCK_DURATIONS; ++i) {\n            Stake[] memory userStake = userStakes[_user][i];\n            for (uint256 j = nextUnlockIndex[i]; j < userStake.length; ++j) {\n                if (userStake[j].endTime > block.timestamp) break;\n                availableUnstakeAmount += userStake[j].amount;\n            }\n        }\n        return availableUnstakeAmount;\n    }\n\n    function getSnapshot(address _user) external view returns (Snapshot memory) {\n        return snapshots[_user];\n    }\n\n    function getUserStakes(address _user, uint256 _index) external view returns (Stake[] memory) {\n        return userStakes[_user][_index];\n    }\n\n    function getStakeData(address _user) external view returns (StakeData memory) {\n        return stakeData[_user];\n    }\n\n    // --- Admin Functions ---\n    function registerTroveManager(ITroveManager _troveManager) external onlyOwner {\n        isTroveManagerRegistered[address(_troveManager)] = true;\n        IERC20 collateralToken = _troveManager.collateralToken();\n        require(address(collateralToken) != address(0), \"RewardManager: Invalid collateral token\");\n        collToken.push(collateralToken);\n        collTokenIndex[address(collateralToken)] = collToken.length - 1;\n        F_COLL.push(0);\n        collForFeeReceiver.push(0);\n        emit TroveManagerRegistered(_troveManager);\n    }\n\n    function removeTroveManager(ITroveManager _troveManager) external onlyOwner {\n        isTroveManagerRegistered[address(_troveManager)] = false;\n        emit TroveManagerRemoved(_troveManager);\n    }\n\n    function setAddresses(\n        address _satoshiXApp,\n        address _weth,\n        address _debtToken,\n        address _oshiToken\n    )\n        external\n        onlyOwner\n    {\n        _setAddresses(_satoshiXApp, _weth, _debtToken, _oshiToken);\n    }\n\n    function claimFee() external onlyOwner {\n        ICoreFacet coreFacet = ICoreFacet(satoshiXApp);\n        if (satForFeeReceiver != 0) {\n            debtToken.transfer(coreFacet.feeReceiver(), satForFeeReceiver);\n            satForFeeReceiver = 0;\n        }\n        for (uint256 i; i < collToken.length; ++i) {\n            if (collForFeeReceiver[i] != 0) {\n                collToken[i].safeTransfer(coreFacet.feeReceiver(), collForFeeReceiver[i]);\n                collForFeeReceiver[i] = 0;\n            }\n        }\n    }\n\n    function setWhitelistCaller(address _caller, bool _status) external onlyOwner {\n        whitelistCaller[_caller] = _status;\n\n        emit WhitelistCallerSet(_caller, _status);\n    }\n\n    // --- Internal Functions ---\n    function _updateUserSnapshots(address _user) internal {\n        uint256 length = collToken.length;\n        for (uint256 i; i < length; ++i) {\n            snapshots[_user].F_COLL_Snapshot[i] = F_COLL[i];\n        }\n        snapshots[_user].F_SAT_Snapshot = F_SAT;\n        emit StakerSnapshotsUpdated(_user, F_COLL, F_SAT);\n    }\n\n    function _calculateLockWeight(uint256 _amount, LockDuration _duration) internal pure returns (uint256) {\n        return _amount * (uint256(_duration) + 1);\n    }\n\n    function _calculateDurationTimeStamp(LockDuration _duration) internal pure returns (uint256) {\n        return (DURATION_MULTIPLIER + uint256(_duration) * DURATION_MULTIPLIER) * ONE_MONTH;\n    }\n\n    function _sendCollToken(IERC20 collateralToken, uint256 collAmount) private {\n        if (collAmount == 0) return;\n\n        if (address(collateralToken) == address(weth)) {\n            IWETH(weth).withdraw(collAmount);\n            (bool success,) = payable(msg.sender).call{ value: collAmount }(\"\");\n            if (!success) revert NativeTokenTransferFailed();\n        } else {\n            collateralToken.safeTransfer(msg.sender, collAmount);\n        }\n    }\n\n    function _sendDebtToken(uint256 debtAmount) private {\n        if (debtAmount == 0) return;\n\n        debtToken.transfer(msg.sender, debtAmount);\n    }\n\n    function _setAddresses(address _satoshiXApp, address _weth, address _debtToken, address _oshiToken) internal {\n        Utils.ensureNonzeroAddress(_satoshiXApp);\n        Utils.ensureNonzeroAddress(_weth);\n        Utils.ensureNonzeroAddress(_debtToken);\n        Utils.ensureNonzeroAddress(_oshiToken);\n\n        satoshiXApp = _satoshiXApp;\n        weth = IWETH(_weth);\n        debtToken = IDebtToken(_debtToken);\n        oshiToken = IOSHIToken(_oshiToken);\n        emit SatoshiXappSet(_satoshiXApp);\n        emit DebtTokenSet(_debtToken);\n        emit OSHITokenSet(_oshiToken);\n        emit WETHSet(_weth);\n    }\n\n    // --- Require ---\n\n    function _isValidCaller() internal view {\n        bool isRegistered;\n        if (\n            msg.sender == satoshiXApp || IAccessControl(satoshiXApp).hasRole(Config.OWNER_ROLE, msg.sender)\n                || msg.sender == address(debtToken) || msg.sender == ICoreFacet(satoshiXApp).feeReceiver()\n                || isTroveManagerRegistered[msg.sender] || whitelistCaller[msg.sender]\n        ) isRegistered = true;\n        require(isRegistered, \"RewardManager: Caller is not Valid\");\n    }\n}\n",
  "sourcePath": "/Users/ashley/Documents/satoshi/satoshi-v2/src/OSHI/RewardManager.sol",
  "compiler": {
    "name": "solc",
    "version": "0.8.22+commit.5ed3e10f.Emscripten.clang"
  },
  "schemaVersion": "2.0.1",
  "updatedAt": "2026-04-14T07:11:27.716Z"
}