{
  "contractName": "SatoshiPeriphery",
  "abi": [
    {
      "inputs": [
        {
          "internalType": "address",
          "name": "target",
          "type": "address"
        }
      ],
      "name": "AddressEmptyCode",
      "type": "error"
    },
    {
      "inputs": [],
      "name": "CannotWithdrawAndAddColl",
      "type": "error"
    },
    {
      "inputs": [
        {
          "internalType": "address",
          "name": "implementation",
          "type": "address"
        }
      ],
      "name": "ERC1967InvalidImplementation",
      "type": "error"
    },
    {
      "inputs": [],
      "name": "ERC1967NonPayable",
      "type": "error"
    },
    {
      "inputs": [],
      "name": "FailedCall",
      "type": "error"
    },
    {
      "inputs": [
        {
          "internalType": "uint256",
          "name": "msgValue",
          "type": "uint256"
        },
        {
          "internalType": "uint256",
          "name": "requiredValue",
          "type": "uint256"
        }
      ],
      "name": "InsufficientMsgValue",
      "type": "error"
    },
    {
      "inputs": [],
      "name": "InvalidInitialization",
      "type": "error"
    },
    {
      "inputs": [
        {
          "internalType": "uint256",
          "name": "msgValue",
          "type": "uint256"
        }
      ],
      "name": "InvalidMsgValue",
      "type": "error"
    },
    {
      "inputs": [],
      "name": "InvalidZeroAddress",
      "type": "error"
    },
    {
      "inputs": [
        {
          "internalType": "uint256",
          "name": "msgValue",
          "type": "uint256"
        },
        {
          "internalType": "uint256",
          "name": "collAmount",
          "type": "uint256"
        }
      ],
      "name": "MsgValueMismatch",
      "type": "error"
    },
    {
      "inputs": [],
      "name": "NativeTokenTransferFailed",
      "type": "error"
    },
    {
      "inputs": [],
      "name": "NotInitializing",
      "type": "error"
    },
    {
      "inputs": [
        {
          "internalType": "address",
          "name": "owner",
          "type": "address"
        }
      ],
      "name": "OwnableInvalidOwner",
      "type": "error"
    },
    {
      "inputs": [
        {
          "internalType": "address",
          "name": "account",
          "type": "address"
        }
      ],
      "name": "OwnableUnauthorizedAccount",
      "type": "error"
    },
    {
      "inputs": [],
      "name": "RefundFailed",
      "type": "error"
    },
    {
      "inputs": [
        {
          "internalType": "address",
          "name": "token",
          "type": "address"
        }
      ],
      "name": "SafeERC20FailedOperation",
      "type": "error"
    },
    {
      "inputs": [],
      "name": "UUPSUnauthorizedCallContext",
      "type": "error"
    },
    {
      "inputs": [
        {
          "internalType": "bytes32",
          "name": "slot",
          "type": "bytes32"
        }
      ],
      "name": "UUPSUnsupportedProxiableUUID",
      "type": "error"
    },
    {
      "anonymous": false,
      "inputs": [
        {
          "indexed": false,
          "internalType": "uint64",
          "name": "version",
          "type": "uint64"
        }
      ],
      "name": "Initialized",
      "type": "event"
    },
    {
      "anonymous": false,
      "inputs": [
        {
          "indexed": true,
          "internalType": "address",
          "name": "previousOwner",
          "type": "address"
        },
        {
          "indexed": true,
          "internalType": "address",
          "name": "newOwner",
          "type": "address"
        }
      ],
      "name": "OwnershipTransferred",
      "type": "event"
    },
    {
      "anonymous": false,
      "inputs": [
        {
          "indexed": true,
          "internalType": "address",
          "name": "implementation",
          "type": "address"
        }
      ],
      "name": "Upgraded",
      "type": "event"
    },
    {
      "inputs": [],
      "name": "UPGRADE_INTERFACE_VERSION",
      "outputs": [
        {
          "internalType": "string",
          "name": "",
          "type": "string"
        }
      ],
      "stateMutability": "view",
      "type": "function"
    },
    {
      "inputs": [
        {
          "internalType": "contract ITroveManager",
          "name": "troveManager",
          "type": "address"
        },
        {
          "internalType": "uint256",
          "name": "_collAmount",
          "type": "uint256"
        },
        {
          "internalType": "address",
          "name": "_upperHint",
          "type": "address"
        },
        {
          "internalType": "address",
          "name": "_lowerHint",
          "type": "address"
        }
      ],
      "name": "addColl",
      "outputs": [],
      "stateMutability": "nonpayable",
      "type": "function"
    },
    {
      "inputs": [
        {
          "internalType": "contract ITroveManager",
          "name": "troveManager",
          "type": "address"
        },
        {
          "internalType": "uint256",
          "name": "_maxFeePercentage",
          "type": "uint256"
        },
        {
          "internalType": "uint256",
          "name": "_collDeposit",
          "type": "uint256"
        },
        {
          "internalType": "uint256",
          "name": "_collWithdrawal",
          "type": "uint256"
        },
        {
          "internalType": "uint256",
          "name": "_debtChange",
          "type": "uint256"
        },
        {
          "internalType": "bool",
          "name": "_isDebtIncrease",
          "type": "bool"
        },
        {
          "internalType": "address",
          "name": "_upperHint",
          "type": "address"
        },
        {
          "internalType": "address",
          "name": "_lowerHint",
          "type": "address"
        },
        {
          "components": [
            {
              "internalType": "uint32",
              "name": "dstEid",
              "type": "uint32"
            },
            {
              "internalType": "bytes",
              "name": "extraOptions",
              "type": "bytes"
            },
            {
              "components": [
                {
                  "internalType": "uint256",
                  "name": "nativeFee",
                  "type": "uint256"
                },
                {
                  "internalType": "uint256",
                  "name": "lzTokenFee",
                  "type": "uint256"
                }
              ],
              "internalType": "struct MessagingFee",
              "name": "fee",
              "type": "tuple"
            }
          ],
          "internalType": "struct LzSendParam",
          "name": "_lzSendParam",
          "type": "tuple"
        }
      ],
      "name": "adjustTrove",
      "outputs": [],
      "stateMutability": "payable",
      "type": "function"
    },
    {
      "inputs": [
        {
          "internalType": "contract ITroveManager",
          "name": "troveManager",
          "type": "address"
        }
      ],
      "name": "closeTrove",
      "outputs": [],
      "stateMutability": "nonpayable",
      "type": "function"
    },
    {
      "inputs": [],
      "name": "debtToken",
      "outputs": [
        {
          "internalType": "contract DebtTokenWithLz",
          "name": "",
          "type": "address"
        }
      ],
      "stateMutability": "view",
      "type": "function"
    },
    {
      "inputs": [
        {
          "internalType": "contract IDebtToken",
          "name": "_debtToken",
          "type": "address"
        },
        {
          "internalType": "address",
          "name": "_xApp",
          "type": "address"
        },
        {
          "internalType": "address",
          "name": "_owner",
          "type": "address"
        }
      ],
      "name": "initialize",
      "outputs": [],
      "stateMutability": "nonpayable",
      "type": "function"
    },
    {
      "inputs": [
        {
          "internalType": "contract ITroveManager",
          "name": "troveManager",
          "type": "address"
        },
        {
          "internalType": "uint256",
          "name": "maxTrovesToLiquidate",
          "type": "uint256"
        },
        {
          "internalType": "uint256",
          "name": "maxICR",
          "type": "uint256"
        },
        {
          "components": [
            {
              "internalType": "uint32",
              "name": "dstEid",
              "type": "uint32"
            },
            {
              "internalType": "bytes",
              "name": "extraOptions",
              "type": "bytes"
            },
            {
              "components": [
                {
                  "internalType": "uint256",
                  "name": "nativeFee",
                  "type": "uint256"
                },
                {
                  "internalType": "uint256",
                  "name": "lzTokenFee",
                  "type": "uint256"
                }
              ],
              "internalType": "struct MessagingFee",
              "name": "fee",
              "type": "tuple"
            }
          ],
          "internalType": "struct LzSendParam",
          "name": "_lzSendParam",
          "type": "tuple"
        }
      ],
      "name": "liquidateTroves",
      "outputs": [],
      "stateMutability": "payable",
      "type": "function"
    },
    {
      "inputs": [
        {
          "internalType": "contract ITroveManager",
          "name": "troveManager",
          "type": "address"
        },
        {
          "internalType": "uint256",
          "name": "_maxFeePercentage",
          "type": "uint256"
        },
        {
          "internalType": "uint256",
          "name": "_collAmount",
          "type": "uint256"
        },
        {
          "internalType": "uint256",
          "name": "_debtAmount",
          "type": "uint256"
        },
        {
          "internalType": "address",
          "name": "_upperHint",
          "type": "address"
        },
        {
          "internalType": "address",
          "name": "_lowerHint",
          "type": "address"
        },
        {
          "components": [
            {
              "internalType": "uint32",
              "name": "dstEid",
              "type": "uint32"
            },
            {
              "internalType": "bytes",
              "name": "extraOptions",
              "type": "bytes"
            },
            {
              "components": [
                {
                  "internalType": "uint256",
                  "name": "nativeFee",
                  "type": "uint256"
                },
                {
                  "internalType": "uint256",
                  "name": "lzTokenFee",
                  "type": "uint256"
                }
              ],
              "internalType": "struct MessagingFee",
              "name": "fee",
              "type": "tuple"
            }
          ],
          "internalType": "struct LzSendParam",
          "name": "_lzSendParam",
          "type": "tuple"
        }
      ],
      "name": "openTrove",
      "outputs": [],
      "stateMutability": "payable",
      "type": "function"
    },
    {
      "inputs": [],
      "name": "owner",
      "outputs": [
        {
          "internalType": "address",
          "name": "",
          "type": "address"
        }
      ],
      "stateMutability": "view",
      "type": "function"
    },
    {
      "inputs": [],
      "name": "proxiableUUID",
      "outputs": [
        {
          "internalType": "bytes32",
          "name": "",
          "type": "bytes32"
        }
      ],
      "stateMutability": "view",
      "type": "function"
    },
    {
      "inputs": [],
      "name": "renounceOwnership",
      "outputs": [],
      "stateMutability": "nonpayable",
      "type": "function"
    },
    {
      "inputs": [
        {
          "internalType": "contract ITroveManager",
          "name": "troveManager",
          "type": "address"
        },
        {
          "internalType": "uint256",
          "name": "_debtAmount",
          "type": "uint256"
        },
        {
          "internalType": "address",
          "name": "_upperHint",
          "type": "address"
        },
        {
          "internalType": "address",
          "name": "_lowerHint",
          "type": "address"
        }
      ],
      "name": "repayDebt",
      "outputs": [],
      "stateMutability": "nonpayable",
      "type": "function"
    },
    {
      "inputs": [
        {
          "internalType": "address",
          "name": "newOwner",
          "type": "address"
        }
      ],
      "name": "transferOwnership",
      "outputs": [],
      "stateMutability": "nonpayable",
      "type": "function"
    },
    {
      "inputs": [
        {
          "internalType": "address",
          "name": "newImplementation",
          "type": "address"
        },
        {
          "internalType": "bytes",
          "name": "data",
          "type": "bytes"
        }
      ],
      "name": "upgradeToAndCall",
      "outputs": [],
      "stateMutability": "payable",
      "type": "function"
    },
    {
      "inputs": [
        {
          "internalType": "contract ITroveManager",
          "name": "troveManager",
          "type": "address"
        },
        {
          "internalType": "uint256",
          "name": "_collWithdrawal",
          "type": "uint256"
        },
        {
          "internalType": "address",
          "name": "_upperHint",
          "type": "address"
        },
        {
          "internalType": "address",
          "name": "_lowerHint",
          "type": "address"
        }
      ],
      "name": "withdrawColl",
      "outputs": [],
      "stateMutability": "nonpayable",
      "type": "function"
    },
    {
      "inputs": [
        {
          "internalType": "contract ITroveManager",
          "name": "troveManager",
          "type": "address"
        },
        {
          "internalType": "uint256",
          "name": "_maxFeePercentage",
          "type": "uint256"
        },
        {
          "internalType": "uint256",
          "name": "_debtAmount",
          "type": "uint256"
        },
        {
          "internalType": "address",
          "name": "_upperHint",
          "type": "address"
        },
        {
          "internalType": "address",
          "name": "_lowerHint",
          "type": "address"
        },
        {
          "components": [
            {
              "internalType": "uint32",
              "name": "dstEid",
              "type": "uint32"
            },
            {
              "internalType": "bytes",
              "name": "extraOptions",
              "type": "bytes"
            },
            {
              "components": [
                {
                  "internalType": "uint256",
                  "name": "nativeFee",
                  "type": "uint256"
                },
                {
                  "internalType": "uint256",
                  "name": "lzTokenFee",
                  "type": "uint256"
                }
              ],
              "internalType": "struct MessagingFee",
              "name": "fee",
              "type": "tuple"
            }
          ],
          "internalType": "struct LzSendParam",
          "name": "_lzSendParam",
          "type": "tuple"
        }
      ],
      "name": "withdrawDebt",
      "outputs": [],
      "stateMutability": "payable",
      "type": "function"
    },
    {
      "inputs": [],
      "name": "xApp",
      "outputs": [
        {
          "internalType": "address",
          "name": "",
          "type": "address"
        }
      ],
      "stateMutability": "view",
      "type": "function"
    },
    {
      "stateMutability": "payable",
      "type": "receive"
    }
  ],
  "bytecode": "0x60a06040523060805234801561001457600080fd5b50d3801561002157600080fd5b50d2801561002e57600080fd5b50608051612968610058600039600081816116a2015281816116cb015261180c01526129686000f3fe6080604052600436106101025760003560e01c8063a281d48e11610095578063cbd138ae11610064578063cbd138ae146103a3578063e696416c146103dd578063f14c7941146103f0578063f2fde38b14610403578063f8d898981461043d57600080fd5b8063a281d48e146102c4578063ad3cb1cc146102fe578063b5becd4d14610356578063c0c53b8b1461036957600080fd5b806352d1902d116100d157806352d1902d146101ee578063715018a61461022b57806388ca8da61461025a5780638da5cb5b1461026d57600080fd5b8063477d104c1461010e57806348a4a39d1461016557806349b010c5146101a15780634f1ef286146101db57600080fd5b3661010957005b600080fd5b34801561011a57600080fd5b50d3801561012757600080fd5b50d2801561013457600080fd5b50600154610148906001600160a01b031681565b6040516001600160a01b0390911681526020015b60405180910390f35b34801561017157600080fd5b50d3801561017e57600080fd5b50d2801561018b57600080fd5b5061019f61019a3660046120be565b610477565b005b3480156101ad57600080fd5b50d380156101ba57600080fd5b50d280156101c757600080fd5b5061019f6101d63660046120be565b610558565b61019f6101e936600461216c565b61078d565b3480156101fa57600080fd5b50d3801561020757600080fd5b50d2801561021457600080fd5b5061021d6107ac565b60405190815260200161015c565b34801561023757600080fd5b50d3801561024457600080fd5b50d2801561025157600080fd5b5061019f6107c9565b61019f610268366004612235565b6107dd565b34801561027957600080fd5b50d3801561028657600080fd5b50d2801561029357600080fd5b507f9016d09d72d40fdae2fd8ceac6b6234c7706214fd39c1cd1e609a0528c199300546001600160a01b0316610148565b3480156102d057600080fd5b50d380156102dd57600080fd5b50d280156102ea57600080fd5b5061019f6102f93660046120be565b6109f9565b34801561030a57600080fd5b50d3801561031757600080fd5b50d2801561032457600080fd5b50610349604051806040016040528060058152602001640352e302e360dc1b81525081565b60405161015c9190612328565b61019f610364366004612349565b610a68565b34801561037557600080fd5b50d3801561038257600080fd5b50d2801561038f57600080fd5b5061019f61039e36600461240b565b610cdb565b3480156103af57600080fd5b50d380156103bc57600080fd5b50d280156103c957600080fd5b5061019f6103d8366004612469565b610e72565b61019f6103eb366004612496565b61107c565b61019f6103fe366004612502565b611404565b34801561040f57600080fd5b50d3801561041c57600080fd5b50d2801561042957600080fd5b5061019f610438366004612469565b61159c565b34801561044957600080fd5b50d3801561045657600080fd5b50d2801561046357600080fd5b50600054610148906001600160a01b031681565b6000846001600160a01b031663b2016bd46040518163ffffffff1660e01b8152600401602060405180830381865afa1580156104b7573d6000803e3d6000fd5b505050506040513d601f19601f820116820180604052508101906104db919061259a565b90506104e781856115da565b60015460405163fded3d3560e01b81526001600160a01b039091169063fded3d359061051f90889033908990899089906004016125b7565b600060405180830381600087803b15801561053957600080fd5b505af115801561054d573d6000803e3d6000fd5b505050505050505050565b6000846001600160a01b031663b2016bd46040518163ffffffff1660e01b8152600401602060405180830381865afa158015610598573d6000803e3d6000fd5b505050506040513d601f19601f820116820180604052508101906105bc919061259a565b6040516370a0823160e01b81523060048201529091506000906001600160a01b038316906370a0823190602401602060405180830381865afa158015610606573d6000803e3d6000fd5b505050506040513d601f19601f8201168201806040525081019061062a91906125e9565b60015460405163535b647760e11b81529192506001600160a01b03169063a6b6c8ee9061066390899033908a908a908a906004016125b7565b600060405180830381600087803b15801561067d57600080fd5b505af1158015610691573d6000803e3d6000fd5b50506040516370a0823160e01b8152306004820152600092506001600160a01b03851691506370a0823190602401602060405180830381865afa1580156106dc573d6000803e3d6000fd5b505050506040513d601f19601f8201168201806040525081019061070091906125e9565b9050600061070e8383612602565b90508681146107795760405162461bcd60e51b815260206004820152602c60248201527f5361746f7368695065726970686572793a20436f6c6c61746572616c20616d6f60448201526b0eadce840dad2e6dac2e8c6d60a31b60648201526084015b60405180910390fd5b6107838482611677565b5050505050505050565b610795611697565b61079e8261173c565b6107a88282611744565b5050565b60006107b6611801565b5060008051602061291383398151915290565b6107d161184a565b6107db60006118a5565b565b6000876001600160a01b031663b2016bd46040518163ffffffff1660e01b8152600401602060405180830381865afa15801561081d573d6000803e3d6000fd5b505050506040513d601f19601f82011682018060405250810190610841919061259a565b905061084d81876115da565b600080546040516370a0823160e01b81523060048201526001600160a01b03909116906370a0823190602401602060405180830381865afa158015610896573d6000803e3d6000fd5b505050506040513d601f19601f820116820180604052508101906108ba91906125e9565b6001546040516311c61ad360e01b81526001600160a01b038c81166004830152336024830152604482018c9052606482018b9052608482018a905288811660a483015287811660c48301529293509116906311c61ad39060e401600060405180830381600087803b15801561092e57600080fd5b505af1158015610942573d6000803e3d6000fd5b5050600080546040516370a0823160e01b81523060048201529193506001600160a01b031691506370a0823190602401602060405180830381865afa15801561098f573d6000803e3d6000fd5b505050506040513d601f19601f820116820180604052508101906109b391906125e9565b905060006109c18383612602565b90508781146109e25760405162461bcd60e51b815260040161077090612623565b6109ec8186611916565b5050505050505050505050565b610a0283611d33565b6001546040516351746e0560e11b81526001600160a01b039091169063a2e8dc0a90610a3a90879033908890889088906004016125b7565b600060405180830381600087803b158015610a5457600080fd5b505af1158015610783573d6000803e3d6000fd5b8615801590610a7657508515155b15610a9457604051632e6e728160e11b815260040160405180910390fd5b6000896001600160a01b031663b2016bd46040518163ffffffff1660e01b8152600401602060405180830381865afa158015610ad4573d6000803e3d6000fd5b505050506040513d601f19601f82011682018060405250810190610af8919061259a565b9050610b0481896115da565b600080546040516370a0823160e01b81523060048201526001600160a01b03909116906370a0823190602401602060405180830381865afa158015610b4d573d6000803e3d6000fd5b505050506040513d601f19601f82011682018060405250810190610b7191906125e9565b905085610b8157610b8187611d33565b60015460405163c5a62a9960e01b81526001600160a01b038d81166004830152336024830152604482018d9052606482018c9052608482018b905260a482018a905288151560c483015287811660e48301528681166101048301529091169063c5a62a999061012401600060405180830381600087803b158015610c0457600080fd5b505af1158015610c18573d6000803e3d6000fd5b5050600080546040516370a0823160e01b81523060048201529193506001600160a01b031691506370a0823190602401602060405180830381865afa158015610c65573d6000803e3d6000fd5b505050506040513d601f19601f82011682018060405250810190610c8991906125e9565b9050610c95838a611677565b8615610ccd5787610ca68383612602565b14610cc35760405162461bcd60e51b815260040161077090612623565b610ccd8885611916565b505050505050505050505050565b7ff0c57e16840df040f15088dc2f81fe391c3923bec73e23a9662efc9c229c6a008054600160401b810460ff16159067ffffffffffffffff16600081158015610d215750825b905060008267ffffffffffffffff166001148015610d3e5750303b155b905081158015610d4c575080155b15610d6a5760405163f92ee8a960e01b815260040160405180910390fd5b845467ffffffffffffffff191660011785558315610d9457845460ff60401b1916600160401b1785555b6001600160a01b038816610dbb5760405163f6b2911f60e01b815260040160405180910390fd5b6001600160a01b038716610de25760405163f6b2911f60e01b815260040160405180910390fd5b600080546001600160a01b03808b166001600160a01b03199283161790925560018054928a1692909116919091179055610e1b86611d56565b610e23611d67565b831561078357845460ff60401b19168555604051600181527fc7f505b2f371ae2175ee4913f4499e1f2633a7b5936321eed1cdaeb6115181d29060200160405180910390a15050505050505050565b604051630acacaeb60e21b815233600482015260009081906001600160a01b03841690632b2b2bac906024016040805180830381865afa158015610eba573d6000803e3d6000fd5b505050506040513d601f19601f82011682018060405250810190610ede9190612669565b915091506000600160009054906101000a90046001600160a01b03166001600160a01b03166384f5c2d26040518163ffffffff1660e01b8152600401602060405180830381865afa158015610f37573d6000803e3d6000fd5b505050506040513d601f19601f82011682018060405250810190610f5b91906125e9565b610f659083612602565b9050610f7081611d33565b6000846001600160a01b031663b2016bd46040518163ffffffff1660e01b8152600401602060405180830381865afa158015610fb0573d6000803e3d6000fd5b505050506040513d601f19601f82011682018060405250810190610fd4919061259a565b6040516370a0823160e01b81523060048201529091506000906001600160a01b038316906370a0823190602401602060405180830381865afa15801561101e573d6000803e3d6000fd5b505050506040513d601f19601f8201168201806040525081019061104291906125e9565b6001546040516317d5218560e21b81526001600160a01b038981166004830152336024830152929350911690635f54861490604401610663565b600080546040516370a0823160e01b81523060048201526001600160a01b03909116906370a0823190602401602060405180830381865afa1580156110c5573d6000803e3d6000fd5b505050506040513d601f19601f820116820180604052508101906110e991906125e9565b90506000856001600160a01b031663b2016bd46040518163ffffffff1660e01b8152600401602060405180830381865afa15801561112b573d6000803e3d6000fd5b505050506040513d601f19601f8201168201806040525081019061114f919061259a565b6040516370a0823160e01b81523060048201526001600160a01b0391909116906370a0823190602401602060405180830381865afa158015611195573d6000803e3d6000fd5b505050506040513d601f19601f820116820180604052508101906111b991906125e9565b600154604051633da818d960e11b81526001600160a01b0389811660048301526024820189905260448201889052929350911690637b5031b290606401600060405180830381600087803b15801561121057600080fd5b505af1158015611224573d6000803e3d6000fd5b5050600080546040516370a0823160e01b81523060048201529193506001600160a01b031691506370a0823190602401602060405180830381865afa158015611271573d6000803e3d6000fd5b505050506040513d601f19601f8201168201806040525081019061129591906125e9565b90506000876001600160a01b031663b2016bd46040518163ffffffff1660e01b8152600401602060405180830381865afa1580156112d7573d6000803e3d6000fd5b505050506040513d601f19601f820116820180604052508101906112fb919061259a565b6040516370a0823160e01b81523060048201526001600160a01b0391909116906370a0823190602401602060405180830381865afa158015611341573d6000803e3d6000fd5b505050506040513d601f19601f8201168201806040525081019061136591906125e9565b905060006113738584612602565b905060006113818584612602565b905061138d8288611916565b6113f88a6001600160a01b031663b2016bd46040518163ffffffff1660e01b8152600401602060405180830381865afa1580156113ce573d6000803e3d6000fd5b505050506040513d601f19601f820116820180604052508101906113f2919061259a565b82611677565b50505050505050505050565b600080546040516370a0823160e01b81523060048201526001600160a01b03909116906370a0823190602401602060405180830381865afa15801561144d573d6000803e3d6000fd5b505050506040513d601f19601f8201168201806040525081019061147191906125e9565b6001546040516361578f6560e11b81526001600160a01b038a81166004830152336024830152604482018a905260648201899052878116608483015286811660a483015292935091169063c2af1eca9060c401600060405180830381600087803b1580156114de57600080fd5b505af11580156114f2573d6000803e3d6000fd5b5050600080546040516370a0823160e01b81523060048201529193506001600160a01b031691506370a0823190602401602060405180830381865afa15801561153f573d6000803e3d6000fd5b505050506040513d601f19601f8201168201806040525081019061156391906125e9565b905060006115718383612602565b90508681146115925760405162461bcd60e51b815260040161077090612623565b61054d8185611916565b6115a461184a565b6001600160a01b0381166115ce57604051631e4fbdf760e01b815260006004820152602401610770565b6115d7816118a5565b50565b806000036115e6575050565b6115fb6001600160a01b038316333084611d6f565b60015460405163095ea7b360e01b81526001600160a01b039182166004820152602481018390529083169063095ea7b3906044016020604051808303816000875af115801561164e573d6000803e3d6000fd5b505050506040513d601f19601f82011682018060405250810190611672919061268d565b505050565b80600003611683575050565b6107a86001600160a01b0383163383611ddc565b306001600160a01b037f000000000000000000000000000000000000000000000000000000000000000016148061171e57507f00000000000000000000000000000000000000000000000000000000000000006001600160a01b0316611712600080516020612913833981519152546001600160a01b031690565b6001600160a01b031614155b156107db5760405163703e46dd60e11b815260040160405180910390fd5b6115d761184a565b816001600160a01b03166352d1902d6040518163ffffffff1660e01b8152600401602060405180830381865afa92505050801561179e575060408051601f3d908101601f1916820190925261179b918101906125e9565b60015b6117c657604051634c9c8ce360e01b81526001600160a01b0383166004820152602401610770565b60008051602061291383398151915281146117f757604051632a87526960e21b815260048101829052602401610770565b6116728383611e0d565b306001600160a01b037f000000000000000000000000000000000000000000000000000000000000000016146107db5760405163703e46dd60e11b815260040160405180910390fd5b3361187c7f9016d09d72d40fdae2fd8ceac6b6234c7706214fd39c1cd1e609a0528c199300546001600160a01b031690565b6001600160a01b0316146107db5760405163118cdaa760e01b8152336004820152602401610770565b7f9016d09d72d40fdae2fd8ceac6b6234c7706214fd39c1cd1e609a0528c19930080546001600160a01b031981166001600160a01b03848116918217845560405192169182907f8be0079c531659141344cd1fd0a4f28419497f9722a3daafe3b4186f6b6457e090600090a3505050565b81600003611922575050565b3361193060208301836126aa565b63ffffffff1660000361195457600054611672906001600160a01b03168285611ddc565b6000546001600160a01b031663bb0b6a5361197260208501856126aa565b6040516001600160e01b031960e084901b16815263ffffffff919091166004820152602401602060405180830381865afa1580156119b4573d6000803e3d6000fd5b505050506040513d601f19601f820116820180604052508101906119d891906125e9565b6000036119f657600054611672906001600160a01b03168285611ddc565b6040805160e0810190915260009080611a1260208601866126aa565b63ffffffff168152602001836001600160a01b031660001b8152602001858152602001858152602001848060200190611a4b91906126d0565b8080601f016020809104026020016040519081016040528093929190818152602001838380828437600092018290525093855250506040805160208181018352848252808601919091528151908101825292835290920152509050606083013515611b0b5760405162461bcd60e51b815260206004820152602a60248201527f5361746f7368695065726970686572793a206c7a546f6b656e466565206e6f74604482015269081cdd5c1c1bdc9d195960b21b6064820152608401610770565b34604084013514611b6a5760405162461bcd60e51b8152602060048201526024808201527f5361746f7368695065726970686572793a206e6174697665466565206e6f74206044820152631cd95b9d60e21b6064820152608401610770565b60008054604051633b6f743b60e01b81526001600160a01b0390911690633b6f743b90611ba39085906060890135151590600401612794565b6040805180830381865afa158015611bbf573d6000803e3d6000fd5b505050506040513d601f19601f82011682018060405250810190611be39190612807565b8051909150604085013514611c485760405162461bcd60e51b815260206004820152602560248201527f5361746f7368695065726970686572793a206e617469766546656520696e636f6044820152641c9c9958dd60da1b6064820152608401610770565b6020810151606085013514611cae5760405162461bcd60e51b815260206004820152602660248201527f5361746f7368695065726970686572793a206c7a546f6b656e46656520696e636044820152651bdc9c9958dd60d21b6064820152608401610770565b6000546040805163c7c7f5b360e01b81526001600160a01b039092169163c7c7f5b3913491611ce7918791908a01908990600401612823565b60c06040518083038185885af1158015611d05573d6000803e3d6000fd5b50505050506040513d601f19601f82011682018060405250810190611d2a9190612862565b50505050505050565b80600003611d3e5750565b6000546115d7906001600160a01b0316333084611d6f565b611d5e611e63565b6115d781611eac565b6107db611e63565b6040516001600160a01b038481166024830152838116604483015260648201839052611dd69186918216906323b872dd906084015b604051602081830303815290604052915060e01b6020820180516001600160e01b038381831617835250505050611eb4565b50505050565b6040516001600160a01b0383811660248301526044820183905261167291859182169063a9059cbb90606401611da4565b611e1682611f25565b6040516001600160a01b038316907fbc7cd75a20ee27fd9adebab32041f755214dbc6bffa90cc0225b39da2e5c2d3b90600090a2805115611e5b576116728282611f8a565b6107a8612002565b7ff0c57e16840df040f15088dc2f81fe391c3923bec73e23a9662efc9c229c6a0054600160401b900460ff166107db57604051631afcd79f60e31b815260040160405180910390fd5b6115a4611e63565b600080602060008451602086016000885af180611ed7576040513d6000823e3d81fd5b50506000513d91508115611eef578060011415611efc565b6001600160a01b0384163b155b15611dd657604051635274afe760e01b81526001600160a01b0385166004820152602401610770565b806001600160a01b03163b600003611f5b57604051634c9c8ce360e01b81526001600160a01b0382166004820152602401610770565b60008051602061291383398151915280546001600160a01b0319166001600160a01b0392909216919091179055565b6060600080846001600160a01b031684604051611fa791906128f6565b600060405180830381855af49150503d8060008114611fe2576040519150601f19603f3d011682016040523d82523d6000602084013e611fe7565b606091505b5091509150611ff7858383612021565b925050505b92915050565b34156107db5760405163b398979f60e01b815260040160405180910390fd5b6060826120365761203182612080565b612079565b815115801561204d57506001600160a01b0384163b155b1561207657604051639996b31560e01b81526001600160a01b0385166004820152602401610770565b50805b9392505050565b8051156120905780518082602001fd5b60405163d6bda27560e01b815260040160405180910390fd5b6001600160a81b03811681146115d757600080fd5b600080600080608085870312156120d457600080fd5b84356120df816120a9565b6001600160a01b03908116945060208601359350604086013590612102826120a9565b9081169250606086013590612116826120a9565b94979396509194505090911690565b634e487b7160e01b600052604160045260246000fd5b604051601f8201601f1916810167ffffffffffffffff8111828210171561216457612164612125565b604052919050565b6000806040838503121561217f57600080fd5b823561218a816120a9565b6001600160a01b0316915060208381013567ffffffffffffffff808211156121b157600080fd5b818601915086601f8301126121c557600080fd5b8135818111156121d7576121d7612125565b6121e9601f8201601f1916850161213b565b915080825287848285010111156121ff57600080fd5b80848401858401376000848284010152508093505050509250929050565b60006080828403121561222f57600080fd5b50919050565b600080600080600080600060e0888a03121561225057600080fd5b873561225b816120a9565b6001600160a01b03908116975060208901359650604089013595506060890135945060808901359061228c826120a9565b908116935060a0890135906122a0826120a9565b16915060c088013567ffffffffffffffff8111156122bd57600080fd5b6122c98a828b0161221d565b91505092959891949750929550565b60005b838110156122f35781810151838201526020016122db565b50506000910152565b600081518084526123148160208601602086016122d8565b601f01601f19169290920160200192915050565b60208152600061207960208301846122fc565b80151581146115d757600080fd5b60008060008060008060008060006101208a8c03121561236857600080fd5b8935612373816120a9565b6001600160a01b03908116995060208b0135985060408b0135975060608b0135965060808b0135955060a08b0135906123ab8261233b565b90945060c08b0135906123bd826120a9565b908116935060e08b0135906123d1826120a9565b1691506101008a013567ffffffffffffffff8111156123ef57600080fd5b6123fb8c828d0161221d565b9150509295985092959850929598565b60008060006060848603121561242057600080fd5b833561242b816120a9565b6001600160a01b039081169350602085013590612447826120a9565b908116925060408501359061245b826120a9565b808216925050509250925092565b60006020828403121561247b57600080fd5b8135612486816120a9565b6001600160a01b03169392505050565b600080600080608085870312156124ac57600080fd5b84356124b7816120a9565b6001600160a01b031693506020850135925060408501359150606085013567ffffffffffffffff8111156124ea57600080fd5b6124f68782880161221d565b91505092959194509250565b60008060008060008060c0878903121561251b57600080fd5b8635612526816120a9565b6001600160a01b0390811696506020880135955060408801359450606088013590612550826120a9565b9081169350608088013590612564826120a9565b16915060a087013567ffffffffffffffff81111561258157600080fd5b61258d89828a0161221d565b9150509295509295509295565b6000602082840312156125ac57600080fd5b8151612486816120a9565b6001600160a01b0395861681529385166020850152604084019290925283166060830152909116608082015260a00190565b6000602082840312156125fb57600080fd5b5051919050565b81810381811115611ffc57634e487b7160e01b600052601160045260246000fd5b60208082526026908201527f5361746f7368695065726970686572793a204465627420616d6f756e74206d696040820152650e6dac2e8c6d60d31b606082015260800190565b6000806040838503121561267c57600080fd5b505080516020909101519092909150565b60006020828403121561269f57600080fd5b81516120798161233b565b6000602082840312156126bc57600080fd5b813563ffffffff8116811461207957600080fd5b6000808335601e198436030181126126e757600080fd5b83018035915067ffffffffffffffff82111561270257600080fd5b60200191503681900382131561271757600080fd5b9250929050565b63ffffffff81511682526020810151602083015260408101516040830152606081015160608301526000608082015160e0608085015261276160e08501826122fc565b905060a083015184820360a086015261277a82826122fc565b91505060c083015184820360c0860152611ff782826122fc565b6040815260006127a7604083018561271e565b905082151560208301529392505050565b6000604082840312156127ca57600080fd5b6040516040810181811067ffffffffffffffff821117156127ed576127ed612125565b604052825181526020928301519281019290925250919050565b60006040828403121561281957600080fd5b61207983836127b8565b608081526000612836608083018661271e565b8435602084810191909152909401356040830152506001600160a01b0391909116606090910152919050565b60008082840360c081121561287657600080fd5b608081121561288457600080fd5b506040516060810167ffffffffffffffff82821081831117156128a9576128a9612125565b81604052855183526020860151915080821682146128c657600080fd5b5060208201526128d985604086016127b8565b604082015291506128ed84608085016127b8565b90509250929050565b600082516129088184602087016122d8565b919091019291505056fe360894a13ba1a3210667c828492db98dca3e2076cc3735a920a3ca505d382bbca26474726f6e582212202e43d8cadb8648bd40fef513036a3ecfbff9e389e0df4960f25f24248bc5abde64736f6c63430008160033",
  "source": "// SPDX-License-Identifier: MIT\npragma solidity ^0.8.20;\n\nimport { SafeERC20 } from \"@openzeppelin/contracts/token/ERC20/utils/SafeERC20.sol\";\n\nimport { IPriceFeed } from \"../../priceFeed/interfaces/IPriceFeed.sol\";\nimport { Config } from \"../Config.sol\";\nimport { DebtTokenWithLz } from \"../DebtTokenWithLz.sol\";\nimport { IBorrowerOperationsFacet } from \"../interfaces/IBorrowerOperationsFacet.sol\";\nimport { ICoreFacet } from \"../interfaces/ICoreFacet.sol\";\nimport { ILiquidationFacet } from \"../interfaces/ILiquidationFacet.sol\";\nimport { ITroveManager } from \"../interfaces/ITroveManager.sol\";\n\nimport { IDebtToken } from \"../interfaces/IDebtToken.sol\";\nimport { ISatoshiPeriphery, LzSendParam } from \"./interfaces/ISatoshiPeriphery.sol\";\nimport { IWETH } from \"./interfaces/IWETH.sol\";\nimport {\n    IOFT,\n    MessagingFee,\n    MessagingReceipt,\n    OFTFeeDetail,\n    OFTLimit,\n    OFTReceipt,\n    SendParam\n} from \"@layerzerolabs/oft-evm/contracts/interfaces/IOFT.sol\";\nimport { OwnableUpgradeable } from \"@openzeppelin/contracts-upgradeable/access/OwnableUpgradeable.sol\";\nimport { UUPSUpgradeable } from \"@openzeppelin/contracts-upgradeable/proxy/utils/UUPSUpgradeable.sol\";\nimport { IERC20 } from \"@openzeppelin/contracts/token/ERC20/IERC20.sol\";\n\n/**\n * @title Satoshi Borrower Operations Router\n *        Handle the native token and ERC20 for the borrower operations\n */\ncontract SatoshiPeriphery is ISatoshiPeriphery, UUPSUpgradeable, OwnableUpgradeable {\n    using SafeERC20 for IERC20;\n    using SafeERC20 for DebtTokenWithLz;\n\n    DebtTokenWithLz public debtToken;\n    address public xApp;\n\n    function initialize(IDebtToken _debtToken, address _xApp, address _owner) external initializer {\n        if (address(_debtToken) == address(0)) revert InvalidZeroAddress();\n        if (_xApp == address(0)) revert InvalidZeroAddress();\n\n        debtToken = DebtTokenWithLz(address(_debtToken));\n        xApp = _xApp;\n\n        __Ownable_init(_owner);\n        __UUPSUpgradeable_init_unchained();\n    }\n\n    receive() external payable {\n        // to receive native token\n    }\n\n    // EXTERNAL FUNCTIONS //\n\n    /// @notice Open a trove\n    /// @dev Account should call `setDelegateApproval()` first to approve this contract to call openTrove\n    /// @param troveManager The TroveManager contract\n    /// @param _maxFeePercentage User willing to accept in case of a fee slippage\n    /// @param _collAmount The amount of collateral to deposit\n    /// @param _debtAmount The expected debt amount of borrowed\n    /// @param _upperHint The upper hint (for querying the position of the sorted trove)\n    /// @param _lowerHint The lower hint (for querying the position of the sorted trove)\n    /// @param _lzSendParam The send param for cross-chain (lz)\n    function openTrove(\n        ITroveManager troveManager,\n        uint256 _maxFeePercentage,\n        uint256 _collAmount,\n        uint256 _debtAmount,\n        address _upperHint,\n        address _lowerHint,\n        LzSendParam calldata _lzSendParam\n    )\n        external\n        payable\n    {\n        IERC20 collateralToken = troveManager.collateralToken();\n\n        _beforeAddColl(collateralToken, _collAmount);\n\n        uint256 debtTokenBalanceBefore = debtToken.balanceOf(address(this));\n\n        IBorrowerOperationsFacet(xApp)\n            .openTrove(troveManager, msg.sender, _maxFeePercentage, _collAmount, _debtAmount, _upperHint, _lowerHint);\n\n        uint256 debtTokenBalanceAfter = debtToken.balanceOf(address(this));\n        uint256 userDebtAmount = debtTokenBalanceAfter - debtTokenBalanceBefore;\n        require(userDebtAmount == _debtAmount, \"SatoshiPeriphery: Debt amount mismatch\");\n\n        _afterWithdrawDebt(userDebtAmount, _lzSendParam);\n    }\n\n    /// @notice Add collateral to a active trove\n    /// @param troveManager The TroveManager contract\n    /// @param _collAmount The amount of additional collateral\n    /// @param _upperHint The upper hint (for querying the position of the sorted trove)\n    /// @param _lowerHint The lower hint (for querying the position of the sorted trove)\n    function addColl(ITroveManager troveManager, uint256 _collAmount, address _upperHint, address _lowerHint) external {\n        IERC20 collateralToken = troveManager.collateralToken();\n\n        _beforeAddColl(collateralToken, _collAmount);\n\n        IBorrowerOperationsFacet(xApp).addColl(troveManager, msg.sender, _collAmount, _upperHint, _lowerHint);\n    }\n\n    /// @notice Withdraws _collWithdrawal of collateral from the caller’s Trove\n    /// @dev Executes only if the user has an active Trove,\n    /// @dev Withdrawal would not pull the user’s Trove below the MCR, and the resulting total collateralization ratio of the system is above 150%(TCR)\n    /// @param troveManager The TroveManager contract\n    /// @param _collWithdrawal The amount of collateral to withdraw\n    /// @param _upperHint The upper hint (for querying the position of the sorted trove)\n    /// @param _lowerHint The lower hint (for querying the position of the sorted trove)\n    function withdrawColl(\n        ITroveManager troveManager,\n        uint256 _collWithdrawal,\n        address _upperHint,\n        address _lowerHint\n    )\n        external\n    {\n        IERC20 collateralToken = troveManager.collateralToken();\n        uint256 collTokenBalanceBefore = collateralToken.balanceOf(address(this));\n\n        IBorrowerOperationsFacet(xApp).withdrawColl(troveManager, msg.sender, _collWithdrawal, _upperHint, _lowerHint);\n\n        uint256 collTokenBalanceAfter = collateralToken.balanceOf(address(this));\n        uint256 userCollAmount = collTokenBalanceAfter - collTokenBalanceBefore;\n        require(userCollAmount == _collWithdrawal, \"SatoshiPeriphery: Collateral amount mismatch\");\n        _afterWithdrawColl(collateralToken, userCollAmount);\n    }\n\n    /// @notice Issues _debtAmount of Debt token from the caller’s Trove to the caller.\n    /// @dev Executes only if the Trove's collateralization ratio would remain above the minimum\n    /// @param troveManager The TroveManager contract\n    /// @param _maxFeePercentage User willing to accept in case of a fee slippage\n    /// @param _debtAmount The amount of debt to withdraw\n    /// @param _upperHint The upper hint (for querying the position of the sorted trove)\n    /// @param _lowerHint The lower hint (for querying the position of the sorted trove)\n    function withdrawDebt(\n        ITroveManager troveManager,\n        uint256 _maxFeePercentage,\n        uint256 _debtAmount,\n        address _upperHint,\n        address _lowerHint,\n        LzSendParam calldata _lzSendParam\n    )\n        external\n        payable\n    {\n        uint256 debtTokenBalanceBefore = debtToken.balanceOf(address(this));\n        IBorrowerOperationsFacet(xApp)\n            .withdrawDebt(troveManager, msg.sender, _maxFeePercentage, _debtAmount, _upperHint, _lowerHint);\n        uint256 debtTokenBalanceAfter = debtToken.balanceOf(address(this));\n        uint256 userDebtAmount = debtTokenBalanceAfter - debtTokenBalanceBefore;\n        require(userDebtAmount == _debtAmount, \"SatoshiPeriphery: Debt amount mismatch\");\n\n        _afterWithdrawDebt(userDebtAmount, _lzSendParam);\n    }\n\n    /// @notice Repays _debtAmount of Debt token to the caller’s Trove\n    /// @param troveManager The TroveManager contract\n    /// @param _debtAmount The amount of debt to repay\n    /// @param _upperHint The upper hint (for querying the position of the sorted trove)\n    /// @param _lowerHint The lower hint (for querying the position of the sorted trove)\n    function repayDebt(\n        ITroveManager troveManager,\n        uint256 _debtAmount,\n        address _upperHint,\n        address _lowerHint\n    )\n        external\n    {\n        _beforeRepayDebt(_debtAmount);\n\n        IBorrowerOperationsFacet(xApp).repayDebt(troveManager, msg.sender, _debtAmount, _upperHint, _lowerHint);\n    }\n\n    /// @notice Enables a borrower to simultaneously change (decrease/increase) both their collateral and debt,\n    function adjustTrove(\n        ITroveManager troveManager,\n        uint256 _maxFeePercentage,\n        uint256 _collDeposit,\n        uint256 _collWithdrawal,\n        uint256 _debtChange,\n        bool _isDebtIncrease,\n        address _upperHint,\n        address _lowerHint,\n        LzSendParam calldata _lzSendParam\n    )\n        external\n        payable\n    {\n        if (_collDeposit != 0 && _collWithdrawal != 0) revert CannotWithdrawAndAddColl();\n\n        IERC20 collateralToken = troveManager.collateralToken();\n        _beforeAddColl(collateralToken, _collDeposit);\n\n        uint256 debtTokenBalanceBefore = debtToken.balanceOf(address(this));\n\n        // repay debt\n        if (!_isDebtIncrease) {\n            _beforeRepayDebt(_debtChange);\n        }\n\n        IBorrowerOperationsFacet(xApp)\n            .adjustTrove(\n                troveManager,\n                msg.sender,\n                _maxFeePercentage,\n                _collDeposit,\n                _collWithdrawal,\n                _debtChange,\n                _isDebtIncrease,\n                _upperHint,\n                _lowerHint\n            );\n\n        uint256 debtTokenBalanceAfter = debtToken.balanceOf(address(this));\n        // withdraw collateral\n        _afterWithdrawColl(collateralToken, _collWithdrawal);\n\n        // withdraw debt\n        if (_isDebtIncrease) {\n            require(\n                debtTokenBalanceAfter - debtTokenBalanceBefore == _debtChange, \"SatoshiPeriphery: Debt amount mismatch\"\n            );\n\n            _afterWithdrawDebt(_debtChange, _lzSendParam);\n        }\n    }\n\n    /// @notice Close the trove from the caller\n    /// @param troveManager The TroveManager contract\n    function closeTrove(ITroveManager troveManager) external {\n        (uint256 collAmount, uint256 debtAmount) = troveManager.getTroveCollAndDebt(msg.sender);\n        uint256 netDebtAmount = debtAmount - ICoreFacet(xApp).gasCompensation();\n        _beforeRepayDebt(netDebtAmount);\n\n        IERC20 collateralToken = troveManager.collateralToken();\n        uint256 collTokenBalanceBefore = collateralToken.balanceOf(address(this));\n\n        IBorrowerOperationsFacet(xApp).closeTrove(troveManager, msg.sender);\n\n        uint256 collTokenBalanceAfter = collateralToken.balanceOf(address(this));\n        uint256 userCollAmount = collTokenBalanceAfter - collTokenBalanceBefore;\n        require(userCollAmount == collAmount, \"SatoshiPeriphery: Collateral amount mismatch\");\n        _afterWithdrawColl(collateralToken, userCollAmount);\n    }\n\n    function liquidateTroves(\n        ITroveManager troveManager,\n        uint256 maxTrovesToLiquidate,\n        uint256 maxICR,\n        LzSendParam calldata _lzSendParam\n    )\n        external\n        payable\n    {\n        uint256 debtTokenBalanceBefore = debtToken.balanceOf(address(this));\n        uint256 collTokenBalanceBefore = troveManager.collateralToken().balanceOf(address(this));\n\n        ILiquidationFacet(xApp).liquidateTroves(troveManager, maxTrovesToLiquidate, maxICR);\n\n        uint256 debtTokenBalanceAfter = debtToken.balanceOf(address(this));\n        uint256 collTokenBalanceAfter = troveManager.collateralToken().balanceOf(address(this));\n\n        uint256 userDebtAmount = debtTokenBalanceAfter - debtTokenBalanceBefore;\n        uint256 userCollAmount = collTokenBalanceAfter - collTokenBalanceBefore;\n\n        _afterWithdrawDebt(userDebtAmount, _lzSendParam);\n        _afterWithdrawColl(troveManager.collateralToken(), userCollAmount);\n    }\n\n    // INTERNAL FUNCTIONS //\n\n    /// @dev Only support ERC20 token, not support native token\n    function _beforeAddColl(IERC20 collateralToken, uint256 collAmount) private {\n        if (collAmount == 0) return;\n\n        collateralToken.safeTransferFrom(msg.sender, address(this), collAmount);\n        collateralToken.approve(xApp, collAmount);\n    }\n\n    function _afterWithdrawColl(IERC20 collateralToken, uint256 collAmount) private {\n        if (collAmount == 0) return;\n\n        collateralToken.safeTransfer(msg.sender, collAmount);\n    }\n\n    /// @notice Withdraw the debt token to the msg sender\n    /// @dev Need used in the payable functions\n    /// @dev Transfer the debt token in current chain if dstEid is 0\n    /// @dev Only debt token need to provide lzSendParam, and support native token as lz fee\n    function _afterWithdrawDebt(uint256 debtAmount, LzSendParam calldata lzSendParam) private {\n        if (debtAmount == 0) return;\n        address account = msg.sender;\n\n        if (lzSendParam.dstEid == 0) {\n            // In current chain\n            debtToken.safeTransfer(account, debtAmount);\n        } else if (debtToken.peers(lzSendParam.dstEid) == 0) {\n            // If the dstEid is not supported, just transfer the debt token to the msg sender\n            debtToken.safeTransfer(account, debtAmount);\n        } else {\n            // Step 1: Prepare the SendParam\n            SendParam memory _sendParam = SendParam(\n                lzSendParam.dstEid,\n                bytes32(uint256(uint160(account))),\n                debtAmount,\n                debtAmount,\n                lzSendParam.extraOptions,\n                \"\",\n                \"\"\n            );\n\n            // Step 2: Quote the fee\n            require(lzSendParam.fee.lzTokenFee == 0, \"SatoshiPeriphery: lzTokenFee not supported\");\n            require(msg.value == lzSendParam.fee.nativeFee, \"SatoshiPeriphery: nativeFee not sent\");\n\n            MessagingFee memory expectFee = debtToken.quoteSend(_sendParam, lzSendParam.fee.lzTokenFee > 0);\n            require(expectFee.nativeFee == lzSendParam.fee.nativeFee, \"SatoshiPeriphery: nativeFee incorrect\");\n            require(expectFee.lzTokenFee == lzSendParam.fee.lzTokenFee, \"SatoshiPeriphery: lzTokenFee incorrect\");\n\n            // Step 3: Send the Debt tokens to the other chain\n            debtToken.send{ value: msg.value }(_sendParam, lzSendParam.fee, account);\n        }\n    }\n\n    function _beforeRepayDebt(uint256 debtAmount) private {\n        if (debtAmount == 0) return;\n\n        debtToken.safeTransferFrom(msg.sender, address(this), debtAmount);\n    }\n\n    /// @notice Override the _authorizeUpgrade function inherited from UUPSUpgradeable contract\n    // solhint-disable-next-line no-empty-blocks\n    function _authorizeUpgrade(address newImplementation) internal view override onlyOwner {\n        // No additional authorization logic is needed for this contract\n    }\n}\n",
  "sourcePath": "/Users/ashley/Documents/satoshi/satoshi-v2/src/core/helpers/SatoshiPeriphery.sol",
  "compiler": {
    "name": "solc",
    "version": "0.8.22+commit.5ed3e10f.Emscripten.clang"
  },
  "schemaVersion": "2.0.1",
  "updatedAt": "2026-04-14T07:11:27.762Z"
}