{
  "contractName": "SatoshiXApp",
  "abi": [
    {
      "inputs": [],
      "name": "DiamondWritable__InvalidInitializationParameters",
      "type": "error"
    },
    {
      "inputs": [],
      "name": "DiamondWritable__RemoveTargetNotZeroAddress",
      "type": "error"
    },
    {
      "inputs": [],
      "name": "DiamondWritable__ReplaceTargetIsIdentical",
      "type": "error"
    },
    {
      "inputs": [],
      "name": "DiamondWritable__SelectorAlreadyAdded",
      "type": "error"
    },
    {
      "inputs": [],
      "name": "DiamondWritable__SelectorIsImmutable",
      "type": "error"
    },
    {
      "inputs": [],
      "name": "DiamondWritable__SelectorNotFound",
      "type": "error"
    },
    {
      "inputs": [],
      "name": "DiamondWritable__SelectorNotSpecified",
      "type": "error"
    },
    {
      "inputs": [],
      "name": "DiamondWritable__TargetHasNoCode",
      "type": "error"
    },
    {
      "inputs": [],
      "name": "ERC165Base__InvalidInterfaceId",
      "type": "error"
    },
    {
      "inputs": [],
      "name": "EnumerableSet__IndexOutOfBounds",
      "type": "error"
    },
    {
      "inputs": [],
      "name": "Ownable__NotOwner",
      "type": "error"
    },
    {
      "inputs": [],
      "name": "Ownable__NotTransitiveOwner",
      "type": "error"
    },
    {
      "inputs": [],
      "name": "Proxy__ImplementationIsNotContract",
      "type": "error"
    },
    {
      "inputs": [],
      "name": "SafeOwnable__NotNomineeOwner",
      "type": "error"
    },
    {
      "inputs": [],
      "name": "UintUtils__InsufficientPadding",
      "type": "error"
    },
    {
      "anonymous": false,
      "inputs": [
        {
          "components": [
            {
              "internalType": "address",
              "name": "target",
              "type": "address"
            },
            {
              "internalType": "enum IERC2535DiamondCutInternal.FacetCutAction",
              "name": "action",
              "type": "uint8"
            },
            {
              "internalType": "bytes4[]",
              "name": "selectors",
              "type": "bytes4[]"
            }
          ],
          "indexed": false,
          "internalType": "struct IERC2535DiamondCutInternal.FacetCut[]",
          "name": "facetCuts",
          "type": "tuple[]"
        },
        {
          "indexed": false,
          "internalType": "address",
          "name": "target",
          "type": "address"
        },
        {
          "indexed": false,
          "internalType": "bytes",
          "name": "data",
          "type": "bytes"
        }
      ],
      "name": "DiamondCut",
      "type": "event"
    },
    {
      "anonymous": false,
      "inputs": [
        {
          "indexed": true,
          "internalType": "address",
          "name": "previousOwner",
          "type": "address"
        },
        {
          "indexed": true,
          "internalType": "address",
          "name": "newOwner",
          "type": "address"
        }
      ],
      "name": "OwnershipTransferred",
      "type": "event"
    },
    {
      "anonymous": false,
      "inputs": [
        {
          "indexed": true,
          "internalType": "bytes32",
          "name": "role",
          "type": "bytes32"
        },
        {
          "indexed": true,
          "internalType": "bytes32",
          "name": "previousAdminRole",
          "type": "bytes32"
        },
        {
          "indexed": true,
          "internalType": "bytes32",
          "name": "newAdminRole",
          "type": "bytes32"
        }
      ],
      "name": "RoleAdminChanged",
      "type": "event"
    },
    {
      "anonymous": false,
      "inputs": [
        {
          "indexed": true,
          "internalType": "bytes32",
          "name": "role",
          "type": "bytes32"
        },
        {
          "indexed": true,
          "internalType": "address",
          "name": "account",
          "type": "address"
        },
        {
          "indexed": true,
          "internalType": "address",
          "name": "sender",
          "type": "address"
        }
      ],
      "name": "RoleGranted",
      "type": "event"
    },
    {
      "anonymous": false,
      "inputs": [
        {
          "indexed": true,
          "internalType": "bytes32",
          "name": "role",
          "type": "bytes32"
        },
        {
          "indexed": true,
          "internalType": "address",
          "name": "account",
          "type": "address"
        },
        {
          "indexed": true,
          "internalType": "address",
          "name": "sender",
          "type": "address"
        }
      ],
      "name": "RoleRevoked",
      "type": "event"
    },
    {
      "stateMutability": "payable",
      "type": "fallback"
    },
    {
      "inputs": [],
      "name": "acceptOwnership",
      "outputs": [],
      "stateMutability": "nonpayable",
      "type": "function"
    },
    {
      "inputs": [
        {
          "components": [
            {
              "internalType": "address",
              "name": "target",
              "type": "address"
            },
            {
              "internalType": "enum IERC2535DiamondCutInternal.FacetCutAction",
              "name": "action",
              "type": "uint8"
            },
            {
              "internalType": "bytes4[]",
              "name": "selectors",
              "type": "bytes4[]"
            }
          ],
          "internalType": "struct IERC2535DiamondCutInternal.FacetCut[]",
          "name": "facetCuts",
          "type": "tuple[]"
        },
        {
          "internalType": "address",
          "name": "target",
          "type": "address"
        },
        {
          "internalType": "bytes",
          "name": "data",
          "type": "bytes"
        }
      ],
      "name": "diamondCut",
      "outputs": [],
      "stateMutability": "nonpayable",
      "type": "function"
    },
    {
      "inputs": [
        {
          "internalType": "bytes4",
          "name": "selector",
          "type": "bytes4"
        }
      ],
      "name": "facetAddress",
      "outputs": [
        {
          "internalType": "address",
          "name": "facet",
          "type": "address"
        }
      ],
      "stateMutability": "view",
      "type": "function"
    },
    {
      "inputs": [],
      "name": "facetAddresses",
      "outputs": [
        {
          "internalType": "address[]",
          "name": "addresses",
          "type": "address[]"
        }
      ],
      "stateMutability": "view",
      "type": "function"
    },
    {
      "inputs": [
        {
          "internalType": "address",
          "name": "facet",
          "type": "address"
        }
      ],
      "name": "facetFunctionSelectors",
      "outputs": [
        {
          "internalType": "bytes4[]",
          "name": "selectors",
          "type": "bytes4[]"
        }
      ],
      "stateMutability": "view",
      "type": "function"
    },
    {
      "inputs": [],
      "name": "facets",
      "outputs": [
        {
          "components": [
            {
              "internalType": "address",
              "name": "target",
              "type": "address"
            },
            {
              "internalType": "bytes4[]",
              "name": "selectors",
              "type": "bytes4[]"
            }
          ],
          "internalType": "struct IERC2535DiamondLoupeInternal.Facet[]",
          "name": "diamondFacets",
          "type": "tuple[]"
        }
      ],
      "stateMutability": "view",
      "type": "function"
    },
    {
      "inputs": [],
      "name": "getFallbackAddress",
      "outputs": [
        {
          "internalType": "address",
          "name": "fallbackAddress",
          "type": "address"
        }
      ],
      "stateMutability": "view",
      "type": "function"
    },
    {
      "inputs": [
        {
          "internalType": "bytes32",
          "name": "role",
          "type": "bytes32"
        }
      ],
      "name": "getRoleAdmin",
      "outputs": [
        {
          "internalType": "bytes32",
          "name": "",
          "type": "bytes32"
        }
      ],
      "stateMutability": "view",
      "type": "function"
    },
    {
      "inputs": [
        {
          "internalType": "bytes32",
          "name": "role",
          "type": "bytes32"
        },
        {
          "internalType": "uint256",
          "name": "index",
          "type": "uint256"
        }
      ],
      "name": "getRoleMember",
      "outputs": [
        {
          "internalType": "address",
          "name": "",
          "type": "address"
        }
      ],
      "stateMutability": "view",
      "type": "function"
    },
    {
      "inputs": [
        {
          "internalType": "bytes32",
          "name": "role",
          "type": "bytes32"
        }
      ],
      "name": "getRoleMemberCount",
      "outputs": [
        {
          "internalType": "uint256",
          "name": "",
          "type": "uint256"
        }
      ],
      "stateMutability": "view",
      "type": "function"
    },
    {
      "inputs": [
        {
          "internalType": "bytes32",
          "name": "role",
          "type": "bytes32"
        },
        {
          "internalType": "address",
          "name": "account",
          "type": "address"
        }
      ],
      "name": "grantRole",
      "outputs": [],
      "stateMutability": "nonpayable",
      "type": "function"
    },
    {
      "inputs": [
        {
          "internalType": "bytes32",
          "name": "role",
          "type": "bytes32"
        },
        {
          "internalType": "address",
          "name": "account",
          "type": "address"
        }
      ],
      "name": "hasRole",
      "outputs": [
        {
          "internalType": "bool",
          "name": "",
          "type": "bool"
        }
      ],
      "stateMutability": "view",
      "type": "function"
    },
    {
      "inputs": [],
      "name": "nomineeOwner",
      "outputs": [
        {
          "internalType": "address",
          "name": "",
          "type": "address"
        }
      ],
      "stateMutability": "view",
      "type": "function"
    },
    {
      "inputs": [],
      "name": "owner",
      "outputs": [
        {
          "internalType": "address",
          "name": "",
          "type": "address"
        }
      ],
      "stateMutability": "view",
      "type": "function"
    },
    {
      "inputs": [
        {
          "internalType": "bytes32",
          "name": "role",
          "type": "bytes32"
        }
      ],
      "name": "renounceRole",
      "outputs": [],
      "stateMutability": "nonpayable",
      "type": "function"
    },
    {
      "inputs": [
        {
          "internalType": "bytes32",
          "name": "role",
          "type": "bytes32"
        },
        {
          "internalType": "address",
          "name": "account",
          "type": "address"
        }
      ],
      "name": "revokeRole",
      "outputs": [],
      "stateMutability": "nonpayable",
      "type": "function"
    },
    {
      "inputs": [
        {
          "internalType": "address",
          "name": "fallbackAddress",
          "type": "address"
        }
      ],
      "name": "setFallbackAddress",
      "outputs": [],
      "stateMutability": "nonpayable",
      "type": "function"
    },
    {
      "inputs": [
        {
          "internalType": "bytes4",
          "name": "interfaceId",
          "type": "bytes4"
        }
      ],
      "name": "supportsInterface",
      "outputs": [
        {
          "internalType": "bool",
          "name": "",
          "type": "bool"
        }
      ],
      "stateMutability": "view",
      "type": "function"
    },
    {
      "inputs": [
        {
          "internalType": "address",
          "name": "account",
          "type": "address"
        }
      ],
      "name": "transferOwnership",
      "outputs": [],
      "stateMutability": "nonpayable",
      "type": "function"
    },
    {
      "stateMutability": "payable",
      "type": "receive"
    }
  ],
  "bytecode": "0x60806040523480156200001157600080fd5b50d380156200001f57600080fd5b50d280156200002d57600080fd5b5060408051600c8082526101a0820190925260009160208201610180803683370190505090506000632c40805960e01b82826200006a8162000ce1565b9350815181106200007f576200007f62000d09565b6001600160e01b031990921660209283029190910190910152639142376560e01b8282620000ad8162000ce1565b935081518110620000c257620000c262000d09565b6001600160e01b031990921660209283029190910190910152620000ef632f40adcf60e21b60016200049c565b6307e4c70760e21b8282620001048162000ce1565b93508151811062000119576200011962000d09565b6001600160e01b031990921660209283029190910190910152620001466307e4c70760e21b60016200049c565b637a0ed62760e01b82826200015b8162000ce1565b93508151811062000170576200017062000d09565b6001600160e01b0319909216602092830291909101909101526356fe50af60e11b82826200019e8162000ce1565b935081518110620001b357620001b362000d09565b6001600160e01b0319909216602092830291909101909101526314bbdacb60e21b8282620001e18162000ce1565b935081518110620001f657620001f662000d09565b6001600160e01b0319909216602092830291909101909101526366ffd66360e11b8282620002248162000ce1565b93508151811062000239576200023962000d09565b6001600160e01b031990921660209283029190910190910152620002666348e2b09360e01b60016200049c565b6301ffc9a760e01b82826200027b8162000ce1565b93508151811062000290576200029062000d09565b6001600160e01b031990921660209283029190910190910152620002bd6301ffc9a760e01b60016200049c565b638da5cb5b60e01b8282620002d28162000ce1565b935081518110620002e757620002e762000d09565b6001600160e01b03199092166020928302919091019091015263455a8a8560e11b8282620003158162000ce1565b9350815181106200032a576200032a62000d09565b6001600160e01b03199092166020928302919091019091015263f2fde38b60e01b8282620003588162000ce1565b9350815181106200036d576200036d62000d09565b6001600160e01b0319909216602092830291909101909101526379ba509760e01b82826200039b8162000ce1565b935081518110620003b057620003b062000d09565b6001600160e01b031990921660209283029190910190910152620003dd6307f5828d60e41b60016200049c565b604080516001808252818301909252600091816020015b60408051606080820183526000808352602083015291810191909152815260200190600190039081620003f4579050506040805160608101909152308152909150602081016000815260200184815250816000815181106200045a576200045a62000d09565b602002602001018190525062000488816000604051806020016040528060008152506200051360201b60201c565b620004933362000714565b50505062000eb1565b6001600160e01b03198083169003620004c85760405163b0a19dd560e01b815260040160405180910390fd5b6001600160e01b03199190911660009081527ffc606c433378e3a7e0a6a531deac289b66caa1b4aa8554fd4ab2c6f1570f92d860205260409020805460ff1916911515919091179055565b7f177481ac65e4292921c69f62d1cc7f57541261e5d61c8175cf4e36a01c9bfc94547f177481ac65e4292921c69f62d1cc7f57541261e5d61c8175cf4e36a01c9bfc939061ffff811690819060009060071615620005835750600381901c60009081526002840160205260409020545b60005b875181101562000682576000888281518110620005a757620005a762000d09565b60200260200101519050600081602001519050816040015151600003620005e15760405163eb6c3aeb60e01b815260040160405180910390fd5b6000816002811115620005f857620005f862000d1f565b0362000617576200060c878387876200078e565b909550935062000677565b60018160028111156200062e576200062e62000d1f565b036200064657620006408783620008f1565b62000677565b60028160028111156200065d576200065d62000d1f565b036200067757620006718783878762000a37565b90955093505b505060010162000586565b508282146200069f5760018401805461ffff191661ffff84161790555b6007821615620006c257600382901c600090815260028501602052604090208190555b7f8faa70878671ccd212d20771b795c50af8fd3ff6cf27f4bde57e5d4de0aeb673878787604051620006f79392919062000d89565b60405180910390a16200070b868662000bfd565b50505050505050565b7f8a22373512790c48b83a1fe2efdd2888d4a917bcdc24d0adf63e60f67168046080546040516001600160a01b038481169216907f8be0079c531659141344cd1fd0a4f28419497f9722a3daafe3b4186f6b6457e090600090a380546001600160a01b0319166001600160a01b0392909216919091179055565b825160009081903b15620007cf578451306001600160a01b0390911603620007c95760405163e983573160e01b815260040160405180910390fd5b620007fa565b84516001600160a01b03163014620007fa57604051633ddc5cab60e21b815260040160405180910390fd5b60005b856040015151811015620008e45760008660400151828151811062000826576200082662000d09565b6020908102919091018101516001600160e01b031981166000908152918a9052604090912054909150156200086e57604051634923a77160e11b815260040160405180910390fd5b86516001600160e01b0319828116600081815260208c90526040902060609390931b6001600160601b0319168917909255600588901b60e01691821c90821c1987161795508060e003620008d557600387901c600090815260028a01602052604090208690555b505060019485019401620007fd565b5092959194509092505050565b80513b6200091257604051633ddc5cab60e21b815260040160405180910390fd5b60005b81604001515181101562000a32576000826040015182815181106200093e576200093e62000d09565b6020908102919091018101516001600160e01b03198116600090815291869052604090912054909150606081901c806200098b576040516337e25a9760e11b815260040160405180910390fd5b306001600160a01b03821603620009b55760405163e983573160e01b815260040160405180910390fd5b84600001516001600160a01b0316816001600160a01b031603620009ec576040516330baabf360e11b815260040160405180910390fd5b5083516001600160e01b031992909216600090815260208690526040902060609290921b6001600160601b0319166001600160601b039190911617905560010162000915565b505050565b825160009081906001600160a01b03161562000a6657604051633ab3490960e21b815260040160405180910390fd5b60005b856040015151811015620008e45784806001900395505060008660400151828151811062000a9b5762000a9b62000d09565b6020908102919091018101516001600160e01b031981166000908152918a90526040822080549290559150606081901c62000ae9576040516337e25a9760e11b815260040160405180910390fd5b30606082901c0362000b0e5760405163e983573160e01b815260040160405180910390fd5b8660071660070362000b3357600387901c600090815260028a01602052604090205495505b60e0600588901b1686901b6001600160e01b03198082169084161462000b86576001600160e01b03198116600090815260208b90526040902080546001600160601b0319166001600160601b0384161790555b600382811c611fff1690600584901b60e016908a901c820362000bc0576001600160e01b031980821c198a16908416821c17985062000beb565b600082815260028d016020526040902080546001600160e01b0319858116841c90841c199091161790555b50506001909301925062000a69915050565b8051156001600160a01b038316151462000c2a576040516326df4ccd60e01b815260040160405180910390fd5b6001600160a01b0382161562000cdd576001600160a01b038216301462000c6b57813b62000c6b57604051633ddc5cab60e21b815260040160405180910390fd5b6000826001600160a01b03168260405162000c87919062000e93565b600060405180830381855af49150503d806000811462000cc4576040519150601f19603f3d011682016040523d82523d6000602084013e62000cc9565b606091505b505090508062000a32573d6000803e3d6000fd5b5050565b60006001820162000d0257634e487b7160e01b600052601160045260246000fd5b5060010190565b634e487b7160e01b600052603260045260246000fd5b634e487b7160e01b600052602160045260246000fd5b60005b8381101562000d5257818101518382015260200162000d38565b50506000910152565b6000815180845262000d7581602086016020860162000d35565b601f01601f19169290920160200192915050565b60006060808301606084528087518083526080925060808601915060808160051b8701016020808b0160005b8481101562000e6157898403607f19018652815180516001600160a01b0316855283810151898601906003811062000dfd57634e487b7160e01b600052602160045260246000fd5b868601526040918201519186018a905281519081905290840190600090898701905b8083101562000e4b5783516001600160e01b031916825292860192600192909201919086019062000e1f565b5097850197955050509082019060010162000db5565b50506001600160a01b038a1690880152868103604088015262000e85818962000d5b565b9a9950505050505050505050565b6000825162000ea781846020870162000d35565b9190910192915050565b61253a8062000ec16000396000f3fe6080604052600436106101185760003560e01c80638bb9c5bf116100a0578063adfca15e11610064578063adfca15e146104af578063ca15c873146104f6578063cdffacc614610530578063d547741f1461056a578063f2fde38b146105a45761011f565b80638bb9c5bf146103985780638da5cb5b146103d25780639010d07c14610401578063914237651461043b57806391d14854146104755761011f565b80632f2ff15d116100e75780632f2ff15d1461028857806352ef6b2c146102c257806379ba5097146102fe5780637a0ed6271461032d5780638ab5150a146103695761011f565b806301ffc9a7146101705780631f931c1c146101bf578063248a9ca3146101f95780632c408059146102415761011f565b3661011f57005b60006101296105de565b9050803b61014a576040516321f27f0d60e21b815260040160405180910390fd5b3660008037600080366000845af43d6000803e808015610169573d6000f35b3d6000fd5b005b34801561017c57600080fd5b50d3801561018957600080fd5b50d2801561019657600080fd5b506101aa6101a5366004611d7a565b6105fc565b60405190151581526020015b60405180910390f35b3480156101cb57600080fd5b50d380156101d857600080fd5b50d280156101e557600080fd5b5061016e6101f4366004611e06565b61063f565b34801561020557600080fd5b50d3801561021257600080fd5b50d2801561021f57600080fd5b5061023361022e366004611eb8565b6106c9565b6040519081526020016101b6565b34801561024d57600080fd5b50d3801561025a57600080fd5b50d2801561026757600080fd5b506102706106d4565b6040516001600160a01b0390911681526020016101b6565b34801561029457600080fd5b50d380156102a157600080fd5b50d280156102ae57600080fd5b5061016e6102bd366004611ed1565b610707565b3480156102ce57600080fd5b50d380156102db57600080fd5b50d280156102e857600080fd5b506102f1610728565b6040516101b69190611efd565b34801561030a57600080fd5b50d3801561031757600080fd5b50d2801561032457600080fd5b5061016e610732565b34801561033957600080fd5b50d3801561034657600080fd5b50d2801561035357600080fd5b5061035c610775565b6040516101b69190611f90565b34801561037557600080fd5b50d3801561038257600080fd5b50d2801561038f57600080fd5b5061027061077f565b3480156103a457600080fd5b50d380156103b157600080fd5b50d280156103be57600080fd5b5061016e6103cd366004611eb8565b610789565b3480156103de57600080fd5b50d380156103eb57600080fd5b50d280156103f857600080fd5b50610270610795565b34801561040d57600080fd5b50d3801561041a57600080fd5b50d2801561042757600080fd5b5061027061043636600461200f565b61079f565b34801561044757600080fd5b50d3801561045457600080fd5b50d2801561046157600080fd5b5061016e610470366004612031565b6107b2565b34801561048157600080fd5b50d3801561048e57600080fd5b50d2801561049b57600080fd5b506101aa6104aa366004611ed1565b610828565b3480156104bb57600080fd5b50d380156104c857600080fd5b50d280156104d557600080fd5b506104e96104e4366004612031565b610834565b6040516101b6919061204c565b34801561050257600080fd5b50d3801561050f57600080fd5b50d2801561051c57600080fd5b5061023361052b366004611eb8565b61083f565b34801561053c57600080fd5b50d3801561054957600080fd5b50d2801561055657600080fd5b50610270610565366004611d7a565b61084a565b34801561057657600080fd5b50d3801561058357600080fd5b50d2801561059057600080fd5b5061016e61059f366004611ed1565b610879565b3480156105b057600080fd5b50d380156105bd57600080fd5b50d280156105ca57600080fd5b5061016e6105d9366004612031565b610895565b600060043610156105ef5750600090565b6105f76108d7565b905090565b6001600160e01b0319811660009081527ffc606c433378e3a7e0a6a531deac289b66caa1b4aa8554fd4ab2c6f1570f92d8602052604081205460ff165b92915050565b610647610938565b6001600160a01b0316336001600160a01b03161461067857604051632f7a8ee160e01b815260040160405180910390fd5b6106c26106858587612122565b8484848080601f01602080910402602001604051908101604052809392919081815260200183838082843760009201919091525061096b92505050565b5050505050565b600061063982610b27565b60006105f77f177481ac65e4292921c69f62d1cc7f57541261e5d61c8175cf4e36a01c9bfc96546001600160a01b031690565b61071082610b27565b61071981610b49565b6107238383610b53565b505050565b60606105f7610bb5565b61073a610d53565b6001600160a01b0316336001600160a01b03161461076b5760405163efd1052d60e01b815260040160405180910390fd5b610773610d7b565b565b60606105f7610db5565b60006105f7610d53565b610792816111cd565b50565b60006105f7610938565b60006107ab83836111d7565b9392505050565b6107ba610938565b6001600160a01b0316336001600160a01b0316146107eb57604051632f7a8ee160e01b815260040160405180910390fd5b7f177481ac65e4292921c69f62d1cc7f57541261e5d61c8175cf4e36a01c9bfc9680546001600160a01b0319166001600160a01b03831617905550565b60006107ab83836111fc565b606061063982611221565b600061063982611372565b6001600160e01b0319811660009081526000805160206124e5833981519152602052604081205460601c610639565b61088282610b27565b61088b81610b49565b6107238383611396565b61089d610938565b6001600160a01b0316336001600160a01b0316146108ce57604051632f7a8ee160e01b815260040160405180910390fd5b610792816113f8565b600080356001600160e01b03191681526000805160206124e5833981519152602052604090205460601c8061093557507f177481ac65e4292921c69f62d1cc7f57541261e5d61c8175cf4e36a01c9bfc96546001600160a01b031690565b90565b60007f8a22373512790c48b83a1fe2efdd2888d4a917bcdc24d0adf63e60f6716804605b546001600160a01b0316919050565b6000805160206124c5833981519152546000805160206124e58339815191529061ffff8116908190600090600716156109b65750600381901c60009081526002840160205260409020545b60005b8751811015610a9b5760008882815181106109d6576109d6612256565b60200260200101519050600081602001519050816040015151600003610a0f5760405163eb6c3aeb60e01b815260040160405180910390fd5b6000816002811115610a2357610a2361226c565b03610a3e57610a3487838787611401565b9095509350610a91565b6001816002811115610a5257610a5261226c565b03610a6657610a618783611559565b610a91565b6002816002811115610a7a57610a7a61226c565b03610a9157610a8b87838787611696565b90955093505b50506001016109b9565b50828214610ab75760018401805461ffff191661ffff84161790555b6007821615610ad957600382901c600090815260028501602052604090208190555b7f8faa70878671ccd212d20771b795c50af8fd3ff6cf27f4bde57e5d4de0aeb673878787604051610b0c939291906122d2565b60405180910390a1610b1e8686611855565b50505050505050565b60009081526000805160206124a5833981519152602052604090206002015490565b6107928133611930565b60008281526000805160206124a583398151915260205260409020610b78908261199b565b5060405133906001600160a01b0383169084907f2f8788117e7eff1d82e926ec794901d17c78024a50270940304540a733656f0d90600090a45050565b6000805160206124c5833981519152546060906000805160206124e58339815191529061ffff1667ffffffffffffffff811115610bf457610bf461208e565b604051908082528060200260200182016040528015610c1d578160200160208202803683370190505b50915060008060005b600184015461ffff16821015610d4b576000818152600285016020526040812054905b6008811015610d365783610c5c816123b2565b600188015490955061ffff1685119050610d3657600581901b82901b6001600160e01b0319811660009081526020889052604081205460601c90805b88811015610ce3578a8181518110610cb257610cb2612256565b60200260200101516001600160a01b0316836001600160a01b031603610cdb5760019150610ce3565b600101610c98565b508015610cf257505050610d2e565b818a8981518110610d0557610d05612256565b6001600160a01b039092166020928302919091019091015287610d27816123b2565b9850505050505b600101610c49565b50508080610d43906123b2565b915050610c26565b505082525090565b60007f24aa1f7b31fd188a8d3ecfb06bc55c806040e59b03bd4396283442fce661789061095c565b610d84336119b0565b7f24aa1f7b31fd188a8d3ecfb06bc55c806040e59b03bd4396283442fce661789080546001600160a01b0319169055565b6000805160206124c5833981519152546060906000805160206124e58339815191529061ffff1667ffffffffffffffff811115610df457610df461208e565b604051908082528060200260200182016040528015610e3a57816020015b604080518082019091526000815260606020820152815260200190600190039081610e125790505b50600182015490925060009061ffff1667ffffffffffffffff811115610e6257610e6261208e565b604051908082528060200260200182016040528015610e8b578160200160208202803683370190505b50905060008060005b600185015461ffff16821015611166576000818152600286016020526040812054905b60088110156111515783610eca816123b2565b600189015490955061ffff168511905061115157600581901b82901b6001600160e01b0319811660009081526020899052604081205460601c90805b8881101561101957826001600160a01b03168c8281518110610f2a57610f2a612256565b6020026020010151600001516001600160a01b03160361101157838c8281518110610f5757610f57612256565b6020026020010151602001518b8381518110610f7557610f75612256565b602002602001015160ff1681518110610f9057610f90612256565b60200260200101906001600160e01b03191690816001600160e01b0319168152505060ff8a8281518110610fc657610fc6612256565b602002602001015160ff1610610fdb57600080fd5b898181518110610fed57610fed612256565b602002602001018051809190611002906123cb565b60ff1690525060019150611019565b600101610f06565b50801561102857505050611149565b818b898151811061103b5761103b612256565b60209081029190910101516001600160a01b03909116905260018a015461ffff1667ffffffffffffffff8111156110745761107461208e565b60405190808252806020026020018201604052801561109d578160200160208202803683370190505b508b89815181106110b0576110b0612256565b602002602001015160200181905250828b89815181106110d2576110d2612256565b6020026020010151602001516000815181106110f0576110f0612256565b60200260200101906001600160e01b03191690816001600160e01b03191681525050600189898151811061112657611126612256565b60ff9092166020928302919091019091015287611142816123b2565b9850505050505b600101610eb7565b5050808061115e906123b2565b915050610e94565b5060005b828110156111c257600084828151811061118657611186612256565b602002602001015160ff16905060008783815181106111a7576111a7612256565b6020908102919091018101510151919091525060010161116a565b508185525050505090565b6107928133611396565b60008281526000805160206124a5833981519152602052604081206107ab9083611a2a565b60008281526000805160206124a5833981519152602052604081206107ab9083611a36565b6000805160206124c5833981519152546060906000805160206124e58339815191529061ffff1667ffffffffffffffff8111156112605761126061208e565b604051908082528060200260200182016040528015611289578160200160208202803683370190505b50915060008060005b600184015461ffff16821015611368576000818152600285016020526040812054905b600881101561135357836112c8816123b2565b600188015490955061ffff168511905061135357600581901b82901b6001600160e01b0319811660009081526020889052604090205460601c6001600160a01b038a160361134a578088878151811061132357611323612256565b6001600160e01b03199092166020928302919091019091015285611346816123b2565b9650505b506001016112b5565b50508080611360906123b2565b915050611292565b5050825250919050565b60008181526000805160206124a58339815191526020526040812061063990611a58565b60008281526000805160206124a5833981519152602052604090206113bb9082611a62565b5060405133906001600160a01b0383169084907ff6391f5c32d9c69d2a47ea670b442974b53935d1edc7fd64eb21e047a839171b90600090a45050565b61079281611a77565b825160009081903b1561143f578451306001600160a01b039091160361143a5760405163e983573160e01b815260040160405180910390fd5b611469565b84516001600160a01b0316301461146957604051633ddc5cab60e21b815260040160405180910390fd5b60005b85604001515181101561154c5760008660400151828151811061149157611491612256565b6020908102919091018101516001600160e01b031981166000908152918a9052604090912054909150156114d857604051634923a77160e11b815260040160405180910390fd5b86516001600160e01b0319828116600081815260208c90526040902060609390931b6001600160601b0319168917909255600588901b60e01691821c90821c1987161795508060e00361153e57600387901c600090815260028a01602052604090208690555b50506001948501940161146c565b5092959194509092505050565b80513b61157957604051633ddc5cab60e21b815260040160405180910390fd5b60005b816040015151811015610723576000826040015182815181106115a1576115a1612256565b6020908102919091018101516001600160e01b03198116600090815291869052604090912054909150606081901c806115ed576040516337e25a9760e11b815260040160405180910390fd5b306001600160a01b038216036116165760405163e983573160e01b815260040160405180910390fd5b84600001516001600160a01b0316816001600160a01b03160361164c576040516330baabf360e11b815260040160405180910390fd5b5083516001600160e01b031992909216600090815260208690526040902060609290921b6001600160601b0319166bffffffffffffffffffffffff9190911617905560010161157c565b825160009081906001600160a01b0316156116c457604051633ab3490960e21b815260040160405180910390fd5b60005b85604001515181101561154c578480600190039550506000866040015182815181106116f5576116f5612256565b6020908102919091018101516001600160e01b031981166000908152918a90526040822080549290559150606081901c611742576040516337e25a9760e11b815260040160405180910390fd5b30606082901c036117665760405163e983573160e01b815260040160405180910390fd5b8660071660070361178a57600387901c600090815260028a01602052604090205495505b60e0600588901b1686901b6001600160e01b0319808216908416146117e1576001600160e01b03198116600090815260208b90526040902080546001600160601b0319166bffffffffffffffffffffffff84161790555b600382811c611fff1690600584901b60e016908a901c8203611819576001600160e01b031980821c198a16908416821c179850611844565b600082815260028d016020526040902080546001600160e01b0319858116841c90841c199091161790555b5050600190930192506116c7915050565b8051156001600160a01b0383161514611881576040516326df4ccd60e01b815260040160405180910390fd5b6001600160a01b0382161561192c576001600160a01b03821630146118bf57813b6118bf57604051633ddc5cab60e21b815260040160405180910390fd5b6000826001600160a01b0316826040516118d991906123ea565b600060405180830381855af49150503d8060008114611914576040519150601f19603f3d011682016040523d82523d6000602084013e611919565b606091505b5050905080610723573d6000803e3d6000fd5b5050565b61193a82826111fc565b61192c57611950816001600160a01b0316611ab8565b61195b836020611aca565b60405160200161196c929190612406565b60408051601f198184030181529082905262461bcd60e51b82526119929160040161247b565b60405180910390fd5b60006107ab836001600160a01b038416611c09565b7f8a22373512790c48b83a1fe2efdd2888d4a917bcdc24d0adf63e60f67168046080546040516001600160a01b038481169216907f8be0079c531659141344cd1fd0a4f28419497f9722a3daafe3b4186f6b6457e090600090a380546001600160a01b0319166001600160a01b0392909216919091179055565b60006107ab8383611c4c565b6001600160a01b038116600090815260018301602052604081205415156107ab565b6000610639825490565b60006107ab836001600160a01b038416611c98565b7f24aa1f7b31fd188a8d3ecfb06bc55c806040e59b03bd4396283442fce661789080546001600160a01b0319166001600160a01b0383161790556107928181565b60606106396001600160a01b03831660145b60011b600201606060008267ffffffffffffffff811115611aed57611aed61208e565b6040519080825280601f01601f191660200182016040528015611b17576020820181803683370190505b509050600360fc1b81600081518110611b3257611b32612256565b60200101906001600160f81b031916908160001a905350600f60fb1b81600181518110611b6157611b61612256565b60200101906001600160f81b031916908160001a9053505b6002831115611bea57600019909201916f181899199a1a9b1b9c1cb0b131b232b360811b600f851660108110611bb157611bb1612256565b1a60f81b818481518110611bc757611bc7612256565b60200101906001600160f81b031916908160001a905350600484901c9350611b79565b83156107ab576040516355a04ff160e11b815260040160405180910390fd5b6000818152600183016020526040812054610639575081546001808201845560008481526020808220909301849055845493815293810190915260409092205590565b81546000908210611c705760405163e637bf3b60e01b815260040160405180910390fd5b826000018281548110611c8557611c85612256565b9060005260206000200154905092915050565b60008181526001830160205260408120548015611d5657835460009085906000198101908110611cca57611cca612256565b9060005260206000200154905080856000016001840381548110611cf057611cf0612256565b6000918252602080832090910192909255918252600186019052604090208190558354849080611d2257611d2261248e565b6001900381819060005260206000200160009055905583600101600084815260200190815260200160002060009055600191505b5092915050565b80356001600160e01b031981168114611d7557600080fd5b919050565b600060208284031215611d8c57600080fd5b6107ab82611d5d565b600081356001600160a81b0381168114611dae57600080fd5b6001600160a01b031692915050565b60008083601f840112611dcf57600080fd5b50813567ffffffffffffffff811115611de757600080fd5b602083019150836020828501011115611dff57600080fd5b9250929050565b600080600080600060608688031215611e1e57600080fd5b853567ffffffffffffffff80821115611e3657600080fd5b818801915088601f830112611e4a57600080fd5b813581811115611e5957600080fd5b8960208260051b8501011115611e6e57600080fd5b60208301975080965050611e8460208901611d95565b94506040880135915080821115611e9a57600080fd5b50611ea788828901611dbd565b969995985093965092949392505050565b600060208284031215611eca57600080fd5b5035919050565b60008060408385031215611ee457600080fd5b82359150611ef460208401611d95565b90509250929050565b6020808252825182820181905260009190848201906040850190845b81811015611f3e5783516001600160a01b031683529284019291840191600101611f19565b50909695505050505050565b60008151808452602080850194506020840160005b83811015611f855781516001600160e01b03191687529582019590820190600101611f5f565b509495945050505050565b600060208083018184528085518083526040925060408601915060408160051b87010184880160005b8381101561200157888303603f19018552815180516001600160a01b03168452870151878401879052611fee87850182611f4a565b9588019593505090860190600101611fb9565b509098975050505050505050565b6000806040838503121561202257600080fd5b50508035926020909101359150565b60006020828403121561204357600080fd5b6107ab82611d95565b6020808252825182820181905260009190848201906040850190845b81811015611f3e5783516001600160e01b03191683529284019291840191600101612068565b634e487b7160e01b600052604160045260246000fd5b6040516060810167ffffffffffffffff811182821017156120c7576120c761208e565b60405290565b604051601f8201601f1916810167ffffffffffffffff811182821017156120f6576120f661208e565b604052919050565b600067ffffffffffffffff8211156121185761211861208e565b5060051b60200190565b6000612135612130846120fe565b6120cd565b83815260208082019190600586811b86013681111561215357600080fd5b865b8181101561224957803567ffffffffffffffff808211156121765760008081fd5b818a0191506060823603121561218c5760008081fd5b6121946120a4565b61219d83611d95565b815286830135600381106121b15760008081fd5b81880152604083810135838111156121c95760008081fd5b939093019236601f8501126121e057600092508283fd5b833592506121f0612130846120fe565b83815292871b8401880192888101903685111561220d5760008081fd5b948901945b848610156122325761222386611d5d565b82529489019490890190612212565b918301919091525088525050948301948301612155565b5092979650505050505050565b634e487b7160e01b600052603260045260246000fd5b634e487b7160e01b600052602160045260246000fd5b60005b8381101561229d578181015183820152602001612285565b50506000910152565b600081518084526122be816020860160208601612282565b601f01601f19169290920160200192915050565b600060608083016060845280875180835260808601915060808160051b87010192506020808a016000805b8481101561236c57898703607f19018652825180516001600160a01b03168852848101516003811061233d57634e487b7160e01b84526021600452602484fd5b8886015260409081015190880189905261235989890182611f4a565b97505094830194918301916001016122fd565b5050506001600160a01b038916908701525050838103604085015261239181866122a6565b979650505050505050565b634e487b7160e01b600052601160045260246000fd5b6000600182016123c4576123c461239c565b5060010190565b600060ff821660ff81036123e1576123e161239c565b60010192915050565b600082516123fc818460208701612282565b9190910192915050565b7f416363657373436f6e74726f6c3a206163636f756e742000000000000000000081526000835161243e816017850160208801612282565b7001034b99036b4b9b9b4b733903937b6329607d1b601791840191820152835161246f816028840160208801612282565b01602801949350505050565b6020815260006107ab60208301846122a6565b634e487b7160e01b600052603160045260246000fdfed3889cc5458b268d0544e5534672df1296288ca3f93cbd39bd6f497a5c622811177481ac65e4292921c69f62d1cc7f57541261e5d61c8175cf4e36a01c9bfc94177481ac65e4292921c69f62d1cc7f57541261e5d61c8175cf4e36a01c9bfc93a26474726f6e582212209b268260091107561a34890bdc8940629b3c9589eed76c92a7444147ce57ef3664736f6c63430008160033",
  "source": "// SPDX-License-Identifier: MIT\npragma solidity ^0.8.20;\n\nimport { AccessControl } from \"@solidstate/contracts/access/access_control/AccessControl.sol\";\n\n// SatoshiXApp use SolidStateDiamond from SolidState's implementation\n// but add `msg.data.length` check in `_getImplementation` function, which could lead to\n// undesired behavior or vulnerabilities in the protocol's logic.\nimport { SolidStateDiamond } from \"../library/proxy/SolidStateDiamond.sol\";\n\n/**\n * @title SatoshiXAPP Diamond Proxy\n * @author Satoshi Protocol\n * @notice The core contract of Satoshi Protocol, which implemented by\n *         diamond proxy standard.\n */\n// solhint-disable-next-line no-empty-blocks\ncontract SatoshiXApp is SolidStateDiamond, AccessControl {\n    // No extra logic\n\n    }\n",
  "sourcePath": "/Users/ashley/Documents/satoshi/satoshi-v2/src/core/SatoshiXApp.sol",
  "compiler": {
    "name": "solc",
    "version": "0.8.22+commit.5ed3e10f.Emscripten.clang"
  },
  "schemaVersion": "2.0.1",
  "updatedAt": "2026-04-14T07:11:27.729Z"
}