{
  "contractName": "SatoshiMath",
  "abi": [
    {
      "inputs": [],
      "name": "PERCENT_DIVISOR",
      "outputs": [
        {
          "internalType": "uint256",
          "name": "",
          "type": "uint256"
        }
      ],
      "stateMutability": "view",
      "type": "function"
    }
  ],
  "bytecode": "0x6087610038600b82828239805160001a607314602b57634e487b7160e01b600052600060045260246000fd5b30600052607381538281f3fe730000000000000000000000000000000000000000301460806040526004361060335760003560e01c80634870dd9a146038575b600080fd5b603f60c881565b60405190815260200160405180910390f3fea26474726f6e582212200c9c7a48cd124d403ca98e13ab6f092d2fd565d0987869ac73489805a0b1b90d64736f6c63430008160033",
  "source": "// SPDX-License-Identifier: MIT\npragma solidity ^0.8.20;\n\nimport { Config } from \"../core/Config.sol\";\n\n/**\n * @title Satoshi Math Library Contract\n *        Mutated from:\n *        https://github.com/prisma-fi/prisma-contracts/blob/main/contracts/dependencies/PrismaMath.sol\n *        https://github.com/liquity/dev/blob/main/packages/contracts/contracts/Dependencies/LiquityMath.sol\n *\n */\nlibrary SatoshiMath {\n    uint256 internal constant DECIMAL_PRECISION = 1e18;\n\n    /* Precision for Nominal ICR (independent of price). Rationale for the value:\n     *\n     * - Making it “too high” could lead to overflows.\n     * - Making it “too low” could lead to an ICR equal to zero, due to truncation from Solidity floor division.\n     *\n     * This value of 1e20 is chosen for safety: the NICR will only overflow for numerator > ~1e39,\n     * and will only truncate to 0 if the denominator is at least 1e20 times greater than the numerator.\n     *\n     */\n    uint256 internal constant NICR_PRECISION = 1e20;\n\n    uint256 public constant PERCENT_DIVISOR = 200; // dividing by 200 yields 0.5%\n\n    function _min(uint256 _a, uint256 _b) internal pure returns (uint256) {\n        return (_a < _b) ? _a : _b;\n    }\n\n    function _max(uint256 _a, uint256 _b) internal pure returns (uint256) {\n        return (_a >= _b) ? _a : _b;\n    }\n\n    /*\n     * Multiply two decimal numbers and use normal rounding rules:\n     * -round product up if 19'th mantissa digit >= 5\n     * -round product down if 19'th mantissa digit < 5\n     *\n     * Used only inside the exponentiation, _decPow().\n     */\n    function decMul(uint256 x, uint256 y) internal pure returns (uint256 decProd) {\n        uint256 prod_xy = x * y;\n\n        decProd = (prod_xy + (DECIMAL_PRECISION / 2)) / DECIMAL_PRECISION;\n    }\n\n    /*\n     * _decPow: Exponentiation function for 18-digit decimal base, and integer exponent n.\n     *\n     * Uses the efficient \"exponentiation by squaring\" algorithm. O(log(n)) complexity.\n     *\n     * Called by two functions that represent time in units of minutes:\n     * 1) TroveManager._calcDecayedBaseRate\n     * 2) CommunityIssuance._getCumulativeIssuanceFraction\n     *\n     * The exponent is capped to avoid reverting due to overflow. The cap 525600000 equals\n     * \"minutes in 1000 years\": 60 * 24 * 365 * 1000\n     *\n     * If a period of > 1000 years is ever used as an exponent in either of the above functions, the result will be\n     * negligibly different from just passing the cap, since:\n     *\n     * In function 1), the decayed base rate will be 0 for 1000 years or > 1000 years\n     * In function 2), the difference in tokens issued at 1000 years and any time > 1000 years, will be negligible\n     */\n    function _decPow(uint256 _base, uint256 _minutes) internal pure returns (uint256) {\n        if (_minutes > 525_600_000) {\n            _minutes = 525_600_000;\n        } // cap to avoid overflow\n\n        if (_minutes == 0) {\n            return DECIMAL_PRECISION;\n        }\n\n        uint256 y = DECIMAL_PRECISION;\n        uint256 x = _base;\n        uint256 n = _minutes;\n\n        // Exponentiation-by-squaring\n        while (n > 1) {\n            if (n % 2 == 0) {\n                x = decMul(x, x);\n                n = n / 2;\n            } else {\n                // if (n % 2 != 0)\n                y = decMul(x, y);\n                x = decMul(x, x);\n                n = (n - 1) / 2;\n            }\n        }\n\n        return decMul(x, y);\n    }\n\n    function _getAbsoluteDifference(uint256 _a, uint256 _b) internal pure returns (uint256) {\n        return (_a >= _b) ? _a - _b : _b - _a;\n    }\n\n    function _computeNominalCR(uint256 _coll, uint256 _debt) internal pure returns (uint256) {\n        if (_debt > 0) {\n            return (_coll * NICR_PRECISION) / _debt;\n        }\n        // Return the maximal value for uint256 if the Trove has a debt of 0. Represents \"infinite\" CR.\n        else {\n            // if (_debt == 0)\n            return 2 ** 256 - 1;\n        }\n    }\n\n    function _computeCR(uint256 _coll, uint256 _debt, uint256 _price) internal pure returns (uint256) {\n        if (_debt > 0) {\n            uint256 newCollRatio = (_coll * _price) / _debt;\n\n            return newCollRatio;\n        }\n        // Return the maximal value for uint256 if the Trove has a debt of 0. Represents \"infinite\" CR.\n        else {\n            // if (_debt == 0)\n            return 2 ** 256 - 1;\n        }\n    }\n\n    function _computeCR(uint256 _coll, uint256 _debt) internal pure returns (uint256) {\n        if (_debt > 0) {\n            uint256 newCollRatio = (_coll) / _debt;\n\n            return newCollRatio;\n        }\n        // Return the maximal value for uint256 if the Trove has a debt of 0. Represents \"infinite\" CR.\n        else {\n            // if (_debt == 0)\n            return 2 ** 256 - 1;\n        }\n    }\n\n    function _approximatelyEqual(uint256 _a, uint256 _b, uint256 _tolerance) internal pure returns (bool) {\n        return _getAbsoluteDifference(_a, _b) <= _tolerance;\n    }\n\n    function _getScaledCollateralAmount(uint256 _collateralAmount, uint8 _decimals) internal pure returns (uint256) {\n        // Scale the collateral amount to the target digits\n        uint256 scaledAmount;\n        uint8 TARGET_DIGITS = 18;\n\n        if (_decimals == TARGET_DIGITS) {\n            scaledAmount = _collateralAmount;\n        } else if (_decimals < TARGET_DIGITS) {\n            scaledAmount = _collateralAmount * (10 ** (TARGET_DIGITS - _decimals));\n        } else {\n            scaledAmount = _collateralAmount / (10 ** (_decimals - TARGET_DIGITS));\n        }\n\n        return scaledAmount;\n    }\n\n    function _getOriginalCollateralAmount(\n        uint256 _scaledCollateralAmount,\n        uint8 _decimals\n    )\n        internal\n        pure\n        returns (uint256)\n    {\n        // Scale the collateral amount with decimals 18 to the target digits\n        uint256 originalAmount;\n        uint8 TARGET_DIGITS = 18;\n\n        if (_decimals == TARGET_DIGITS) {\n            originalAmount = _scaledCollateralAmount;\n        } else if (_decimals < TARGET_DIGITS) {\n            originalAmount = _scaledCollateralAmount / (10 ** (TARGET_DIGITS - _decimals));\n        } else {\n            originalAmount = _scaledCollateralAmount * (10 ** (_decimals - TARGET_DIGITS));\n        }\n\n        return originalAmount;\n    }\n\n    // --- Gas compensation functions ---\n\n    // Returns the composite debt (drawn debt + gas compensation) of a trove, for the purpose of ICR calculation\n    function _getCompositeDebt(uint256 _debt, uint256 _gasCompensation) internal pure returns (uint256) {\n        return _debt + _gasCompensation;\n    }\n\n    function _getNetDebt(uint256 _debt, uint256 _gasCompensation) internal pure returns (uint256) {\n        return _debt - _gasCompensation;\n    }\n\n    // Return the amount of collateral to be drawn from a trove's collateral and sent as gas compensation.\n    function _getCollGasCompensation(uint256 _entireColl) internal pure returns (uint256) {\n        return _entireColl / PERCENT_DIVISOR;\n    }\n\n    function _requireUserAcceptsFee(uint256 _fee, uint256 _amount, uint256 _maxFeePercentage) internal pure {\n        uint256 feePercentage = (_fee * DECIMAL_PRECISION) / _amount;\n        require(feePercentage <= _maxFeePercentage, \"Fee exceeded provided maximum\");\n    }\n}\n",
  "sourcePath": "/Users/ashley/Documents/satoshi/satoshi-v2/src/library/SatoshiMath.sol",
  "compiler": {
    "name": "solc",
    "version": "0.8.22+commit.5ed3e10f.Emscripten.clang"
  },
  "schemaVersion": "2.0.1",
  "updatedAt": "2026-04-14T07:11:27.778Z"
}