{
  "contractName": "SortedTroves",
  "abi": [
    {
      "inputs": [],
      "stateMutability": "nonpayable",
      "type": "constructor"
    },
    {
      "inputs": [],
      "name": "InvalidInitialization",
      "type": "error"
    },
    {
      "inputs": [],
      "name": "NotInitializing",
      "type": "error"
    },
    {
      "inputs": [
        {
          "internalType": "address",
          "name": "owner",
          "type": "address"
        }
      ],
      "name": "OwnableInvalidOwner",
      "type": "error"
    },
    {
      "inputs": [
        {
          "internalType": "address",
          "name": "account",
          "type": "address"
        }
      ],
      "name": "OwnableUnauthorizedAccount",
      "type": "error"
    },
    {
      "inputs": [],
      "name": "ZeroAddress",
      "type": "error"
    },
    {
      "anonymous": false,
      "inputs": [
        {
          "indexed": false,
          "internalType": "uint64",
          "name": "version",
          "type": "uint64"
        }
      ],
      "name": "Initialized",
      "type": "event"
    },
    {
      "anonymous": false,
      "inputs": [
        {
          "indexed": false,
          "internalType": "address",
          "name": "_id",
          "type": "address"
        },
        {
          "indexed": false,
          "internalType": "uint256",
          "name": "_NICR",
          "type": "uint256"
        }
      ],
      "name": "NodeAdded",
      "type": "event"
    },
    {
      "anonymous": false,
      "inputs": [
        {
          "indexed": false,
          "internalType": "address",
          "name": "_id",
          "type": "address"
        }
      ],
      "name": "NodeRemoved",
      "type": "event"
    },
    {
      "anonymous": false,
      "inputs": [
        {
          "indexed": true,
          "internalType": "address",
          "name": "previousOwner",
          "type": "address"
        },
        {
          "indexed": true,
          "internalType": "address",
          "name": "newOwner",
          "type": "address"
        }
      ],
      "name": "OwnershipTransferred",
      "type": "event"
    },
    {
      "anonymous": false,
      "inputs": [
        {
          "indexed": false,
          "internalType": "address",
          "name": "_troveManager",
          "type": "address"
        }
      ],
      "name": "SetTroveManager",
      "type": "event"
    },
    {
      "inputs": [
        {
          "internalType": "address",
          "name": "_id",
          "type": "address"
        }
      ],
      "name": "contains",
      "outputs": [
        {
          "internalType": "bool",
          "name": "",
          "type": "bool"
        }
      ],
      "stateMutability": "view",
      "type": "function"
    },
    {
      "inputs": [],
      "name": "data",
      "outputs": [
        {
          "internalType": "address",
          "name": "head",
          "type": "address"
        },
        {
          "internalType": "address",
          "name": "tail",
          "type": "address"
        },
        {
          "internalType": "uint256",
          "name": "size",
          "type": "uint256"
        }
      ],
      "stateMutability": "view",
      "type": "function"
    },
    {
      "inputs": [
        {
          "internalType": "uint256",
          "name": "_NICR",
          "type": "uint256"
        },
        {
          "internalType": "address",
          "name": "_prevId",
          "type": "address"
        },
        {
          "internalType": "address",
          "name": "_nextId",
          "type": "address"
        }
      ],
      "name": "findInsertPosition",
      "outputs": [
        {
          "internalType": "address",
          "name": "",
          "type": "address"
        },
        {
          "internalType": "address",
          "name": "",
          "type": "address"
        }
      ],
      "stateMutability": "view",
      "type": "function"
    },
    {
      "inputs": [],
      "name": "getFirst",
      "outputs": [
        {
          "internalType": "address",
          "name": "",
          "type": "address"
        }
      ],
      "stateMutability": "view",
      "type": "function"
    },
    {
      "inputs": [],
      "name": "getLast",
      "outputs": [
        {
          "internalType": "address",
          "name": "",
          "type": "address"
        }
      ],
      "stateMutability": "view",
      "type": "function"
    },
    {
      "inputs": [
        {
          "internalType": "address",
          "name": "_id",
          "type": "address"
        }
      ],
      "name": "getNext",
      "outputs": [
        {
          "internalType": "address",
          "name": "",
          "type": "address"
        }
      ],
      "stateMutability": "view",
      "type": "function"
    },
    {
      "inputs": [
        {
          "internalType": "address",
          "name": "_id",
          "type": "address"
        }
      ],
      "name": "getPrev",
      "outputs": [
        {
          "internalType": "address",
          "name": "",
          "type": "address"
        }
      ],
      "stateMutability": "view",
      "type": "function"
    },
    {
      "inputs": [],
      "name": "getSize",
      "outputs": [
        {
          "internalType": "uint256",
          "name": "",
          "type": "uint256"
        }
      ],
      "stateMutability": "view",
      "type": "function"
    },
    {
      "inputs": [
        {
          "internalType": "address",
          "name": "owner",
          "type": "address"
        }
      ],
      "name": "initialize",
      "outputs": [],
      "stateMutability": "nonpayable",
      "type": "function"
    },
    {
      "inputs": [
        {
          "internalType": "address",
          "name": "_id",
          "type": "address"
        },
        {
          "internalType": "uint256",
          "name": "_NICR",
          "type": "uint256"
        },
        {
          "internalType": "address",
          "name": "_prevId",
          "type": "address"
        },
        {
          "internalType": "address",
          "name": "_nextId",
          "type": "address"
        }
      ],
      "name": "insert",
      "outputs": [],
      "stateMutability": "nonpayable",
      "type": "function"
    },
    {
      "inputs": [],
      "name": "isEmpty",
      "outputs": [
        {
          "internalType": "bool",
          "name": "",
          "type": "bool"
        }
      ],
      "stateMutability": "view",
      "type": "function"
    },
    {
      "inputs": [],
      "name": "owner",
      "outputs": [
        {
          "internalType": "address",
          "name": "",
          "type": "address"
        }
      ],
      "stateMutability": "view",
      "type": "function"
    },
    {
      "inputs": [
        {
          "internalType": "address",
          "name": "_id",
          "type": "address"
        },
        {
          "internalType": "uint256",
          "name": "_newNICR",
          "type": "uint256"
        },
        {
          "internalType": "address",
          "name": "_prevId",
          "type": "address"
        },
        {
          "internalType": "address",
          "name": "_nextId",
          "type": "address"
        }
      ],
      "name": "reInsert",
      "outputs": [],
      "stateMutability": "nonpayable",
      "type": "function"
    },
    {
      "inputs": [
        {
          "internalType": "address",
          "name": "_id",
          "type": "address"
        }
      ],
      "name": "remove",
      "outputs": [],
      "stateMutability": "nonpayable",
      "type": "function"
    },
    {
      "inputs": [],
      "name": "renounceOwnership",
      "outputs": [],
      "stateMutability": "nonpayable",
      "type": "function"
    },
    {
      "inputs": [
        {
          "internalType": "contract ITroveManager",
          "name": "_troveManager",
          "type": "address"
        }
      ],
      "name": "setConfig",
      "outputs": [],
      "stateMutability": "nonpayable",
      "type": "function"
    },
    {
      "inputs": [
        {
          "internalType": "address",
          "name": "newOwner",
          "type": "address"
        }
      ],
      "name": "transferOwnership",
      "outputs": [],
      "stateMutability": "nonpayable",
      "type": "function"
    },
    {
      "inputs": [],
      "name": "troveManager",
      "outputs": [
        {
          "internalType": "contract ITroveManager",
          "name": "",
          "type": "address"
        }
      ],
      "stateMutability": "view",
      "type": "function"
    },
    {
      "inputs": [
        {
          "internalType": "uint256",
          "name": "_NICR",
          "type": "uint256"
        },
        {
          "internalType": "address",
          "name": "_prevId",
          "type": "address"
        },
        {
          "internalType": "address",
          "name": "_nextId",
          "type": "address"
        }
      ],
      "name": "validInsertPosition",
      "outputs": [
        {
          "internalType": "bool",
          "name": "",
          "type": "bool"
        }
      ],
      "stateMutability": "view",
      "type": "function"
    }
  ],
  "bytecode": "0x608060405234801561001057600080fd5b50d3801561001d57600080fd5b50d2801561002a57600080fd5b50610033610038565b6100ea565b7ff0c57e16840df040f15088dc2f81fe391c3923bec73e23a9662efc9c229c6a00805468010000000000000000900460ff16156100885760405163f92ee8a960e01b815260040160405180910390fd5b80546001600160401b03908116146100e75780546001600160401b0319166001600160401b0390811782556040519081527fc7f505b2f371ae2175ee4913f4499e1f2633a7b5936321eed1cdaeb6115181d29060200160405180910390a15b50565b611582806100f96000396000f3fe608060405234801561001057600080fd5b50d3801561001d57600080fd5b50d2801561002a57600080fd5b506004361061013b5760003560e01c80635dbe47e8116100c75780638da5cb5b1161008b5780638da5cb5b146102e4578063b72703ac14610314578063c4d66de814610343578063de8fa43114610356578063f2fde38b1461036757600080fd5b80635dbe47e814610232578063681fe70c1461025e578063715018a61461026757806373d4a13a1461026f578063765e0159146102b357600080fd5b80633d83908a1161010e5780633d83908a146101a55780633fce12d5146101b8578063416980dc146101db57806346f7cf871461020e5780634d6228311461022157600080fd5b80631e2231431461014057806320e3dbd41461016a57806329092d0e1461017f5780632be2126014610192575b600080fd5b6001546001600160a01b03165b6040516001600160a01b0390911681526020015b60405180910390f35b61017d61017836600461140c565b61037a565b005b61017d61018d36600461140c565b61041a565b61017d6101a0366004611439565b610454565b60005461014d906001600160a01b031681565b6101cb6101c63660046114a0565b6104a1565b6040519015158152602001610161565b6101ee6101e93660046114a0565b6104c2565b604080516001600160a01b03938416815292909116602083015201610161565b61017d61021c366004611439565b6104ea565b6002546001600160a01b031661014d565b6101cb61024036600461140c565b6001600160a01b031660009081526004602052604090205460ff1690565b600354156101cb565b61017d6105d4565b60015460025460035461028d926001600160a01b0390811692169083565b604080516001600160a01b03948516815293909216602084015290820152606001610161565b61014d6102c136600461140c565b6001600160a01b0390811660009081526004602052604090205461010090041690565b7f9016d09d72d40fdae2fd8ceac6b6234c7706214fd39c1cd1e609a0528c199300546001600160a01b031661014d565b61014d61032236600461140c565b6001600160a01b039081166000908152600460205260409020600101541690565b61017d61035136600461140c565b6105e8565b600354604051908152602001610161565b61017d61037536600461140c565b610700565b6000546001600160a01b0316156103c65760405162461bcd60e51b815260206004820152600b60248201526a105b1c9958591e481cd95d60aa1b60448201526064015b60405180910390fd5b600080546001600160a01b0319166001600160a01b0383169081179091556040519081527fc39dcba09f659337f9c112f1103c2b79aa05b2293fade97981bc53932940d78c9060200160405180910390a150565b60005461042f906001600160a01b031661073b565b6001600160a01b038116600090815260046020526040902061045190826107a8565b50565b6000546001600160a01b03166104698161073b565b6001600160a01b038516600090815260046020526040902061048b81876107a8565b6104998183888888886109d0565b505050505050565b600080546104ba906001600160a01b0316858585610c4d565b949350505050565b6000805481906104dd906001600160a01b0316868686610e84565b915091505b935093915050565b6000546001600160a01b03166104ff8161073b565b6001600160a01b0385166000908152600460205260409020805460ff161561057e5760405162461bcd60e51b815260206004820152602c60248201527f536f7274656454726f7665733a204c69737420616c726561647920636f6e746160448201526b696e7320746865206e6f646560a01b60648201526084016103bd565b6001600160a01b03861661048b5760405162461bcd60e51b815260206004820152601f60248201527f536f7274656454726f7665733a2049642063616e6e6f74206265207a65726f0060448201526064016103bd565b6105dc611067565b6105e660006110c2565b565b7ff0c57e16840df040f15088dc2f81fe391c3923bec73e23a9662efc9c229c6a008054600160401b810460ff16159067ffffffffffffffff1660008115801561062e5750825b905060008267ffffffffffffffff16600114801561064b5750303b155b905081158015610659575080155b156106775760405163f92ee8a960e01b815260040160405180910390fd5b845467ffffffffffffffff1916600117855583156106a157845460ff60401b1916600160401b1785555b6106aa86611133565b6106b38661115a565b831561049957845460ff60401b19168555604051600181527fc7f505b2f371ae2175ee4913f4499e1f2633a7b5936321eed1cdaeb6115181d29060200160405180910390a1505050505050565b610708611067565b6001600160a01b03811661073257604051631e4fbdf760e01b8152600060048201526024016103bd565b610451816110c2565b336001600160a01b038216146104515760405162461bcd60e51b815260206004820152602c60248201527f536f7274656454726f7665733a2043616c6c6572206973206e6f74207468652060448201526b2a3937bb32a6b0b730b3b2b960a11b60648201526084016103bd565b815460ff1661080c5760405162461bcd60e51b815260206004820152602a60248201527f536f7274656454726f7665733a204c69737420646f6573206e6f7420636f6e74604482015269185a5b881d1a19481a5960b21b60648201526084016103bd565b6003546001101561092a576001546001600160a01b039081169082160361086d578154600180546101009092046001600160a01b03166001600160a01b03199283168117825560009081526004602052604090200180549091169055610947565b6002546001600160a01b03908116908216036108c8576001820154600280546001600160a01b0319166001600160a01b03909216918217905560009081526004602052604090208054610100600160a81b0319169055610947565b60018281015483546001600160a01b039182166000818152600460205260408082208054610100600160a81b031916610100958690049096169485029590951790945591825291902090910180546001600160a01b0319169091179055610947565b600180546001600160a01b03199081169091556002805490911690555b6001600160a01b038116600090815260046020526040902080546001600160a81b0319168155600190810180546001600160a01b031916905560035461098d9190611507565b6003556040516001600160a01b03821681527fcfc24166db4bb677e857cacabd1541fb2b30645021b27c5130419589b84db52b9060200160405180910390a15050565b60008311610a2c5760405162461bcd60e51b815260206004820152602360248201527f536f7274656454726f7665733a204e494352206d75737420626520706f73697460448201526269766560e81b60648201526084016103bd565b8181610a3a87868484610c4d565b610a5057610a4a87868484610e84565b90925090505b875460ff191660011788556001600160a01b038216158015610a7957506001600160a01b038116155b15610aae57600180546001600160a01b0388166001600160a01b03199182168117909255600280549091169091179055610bf0565b6001600160a01b038216610b1657600180548954610100600160a81b0319166101006001600160a01b03928316908102919091178b556000908152600460205260409020820180546001600160a01b0319908116928a16928317909155825416179055610bf0565b6001600160a01b038116610b7d576002805460018a0180546001600160a01b039283166001600160a01b031991821681179092556000918252600460205260409091208054610100600160a81b031916610100938b16938402179055825416179055610bf0565b87546001600160a01b03808316610100818102610100600160a81b0319948516178c556001808d0180548886166001600160a01b031991821681179092556000918252600460205260408083208054978f1695860297909816969096179096559283529290912090910180549092161790555b600354610bfe906001611520565b600355604080516001600160a01b0388168152602081018790527fe02b43adbee0c123de070a04554a71877a0007e2fc161466299cae3c094fe82f910160405180910390a15050505050505050565b60006001600160a01b038316158015610c6d57506001600160a01b038216155b15610c7e57600354155b90506104ba565b6001600160a01b038316610d19576001546001600160a01b038381169116148015610c77575060405163b0d8e18160e01b81526001600160a01b03838116600483015286169063b0d8e181906024015b602060405180830381865afa158015610ceb573d6000803e3d6000fd5b505050506040513d601f19601f82011682018060405250810190610d0f9190611533565b84101590506104ba565b6001600160a01b038216610db3576002546001600160a01b038481169116148015610c77575060405163b0d8e18160e01b81526001600160a01b03848116600483015286169063b0d8e18190602401602060405180830381865afa158015610d85573d6000803e3d6000fd5b505050506040513d601f19601f82011682018060405250810190610da99190611533565b84111590506104ba565b6001600160a01b0383811660009081526004602052604090205461010090048116908316148015610e4f575060405163b0d8e18160e01b81526001600160a01b03848116600483015285919087169063b0d8e18190602401602060405180830381865afa158015610e28573d6000803e3d6000fd5b505050506040513d601f19601f82011682018060405250810190610e4c9190611533565b10155b8015610c77575060405163b0d8e18160e01b81526001600160a01b03838116600483015286169063b0d8e18190602401610cce565b60008083836001600160a01b03821615610f32576001600160a01b03821660009081526004602052604090205460ff161580610f28575060405163b0d8e18160e01b81526001600160a01b03838116600483015289169063b0d8e18190602401602060405180830381865afa158015610f01573d6000803e3d6000fd5b505050506040513d601f19601f82011682018060405250810190610f259190611533565b87115b15610f3257600091505b6001600160a01b03811615610fda576001600160a01b03811660009081526004602052604090205460ff161580610fd1575060405163b0d8e18160e01b81526001600160a01b03828116600483015289169063b0d8e18190602401602060405180830381865afa158015610faa573d6000803e3d6000fd5b505050506040513d601f19601f82011682018060405250810190610fce9190611533565b87105b15610fda575060005b6001600160a01b038216158015610ff857506001600160a01b038116155b156110215760015461101690899089906001600160a01b0316611162565b93509350505061105e565b6001600160a01b03821661103a5761101688888361128b565b6001600160a01b03811661105357611016888884611162565b611016888884611162565b94509492505050565b336110997f9016d09d72d40fdae2fd8ceac6b6234c7706214fd39c1cd1e609a0528c199300546001600160a01b031690565b6001600160a01b0316146105e65760405163118cdaa760e01b81523360048201526024016103bd565b7f9016d09d72d40fdae2fd8ceac6b6234c7706214fd39c1cd1e609a0528c19930080546001600160a01b031981166001600160a01b03848116918217845560405192169182907f8be0079c531659141344cd1fd0a4f28419497f9722a3daafe3b4186f6b6457e090600090a3505050565b6001600160a01b0381166104515760405163d92e233d60e01b815260040160405180910390fd5b6107086113ae565b60015460009081906001600160a01b0384811691161480156111ed575060405163b0d8e18160e01b81526001600160a01b03848116600483015286169063b0d8e18190602401602060405180830381865afa1580156111c5573d6000803e3d6000fd5b505050506040513d601f19601f820116820180604052508101906111e99190611533565b8410155b156111fd575060009050816104e2565b6001600160a01b038084166000908152600460205260409020548491610100909104165b6001600160a01b03821615801590611242575061124087878484610c4d565b155b1561127f57506001600160a01b03908116600090815260046020526040808220546101009081900484168084529190922054909291900416611221565b90969095509350505050565b60025460009081906001600160a01b038481169116148015611316575060405163b0d8e18160e01b81526001600160a01b03848116600483015286169063b0d8e18190602401602060405180830381865afa1580156112ee573d6000803e3d6000fd5b505050506040513d601f19601f820116820180604052508101906113129190611533565b8411155b15611326575081905060006104e2565b6001600160a01b038084166000908152600460205260409020600101548491165b6001600160a01b03821615801590611368575061136687878385610c4d565b155b156113a357506001600160a01b0390811660009081526004602052604080822060019081015484168084529190922090910154909116611347565b969095509350505050565b7ff0c57e16840df040f15088dc2f81fe391c3923bec73e23a9662efc9c229c6a0054600160401b900460ff166105e657604051631afcd79f60e31b815260040160405180910390fd5b6001600160a81b038116811461045157600080fd5b60006020828403121561141e57600080fd5b8135611429816113f7565b6001600160a01b03169392505050565b6000806000806080858703121561144f57600080fd5b843561145a816113f7565b6001600160a01b0390811694506020860135935060408601359061147d826113f7565b9081169250606086013590611491826113f7565b94979396509194505090911690565b6000806000606084860312156114b557600080fd5b8335925060208401356114c7816113f7565b6001600160a01b0390811692506040850135906114e3826113f7565b808216925050509250925092565b634e487b7160e01b600052601160045260246000fd5b8181038181111561151a5761151a6114f1565b92915050565b8082018082111561151a5761151a6114f1565b60006020828403121561154557600080fd5b505191905056fea26474726f6e58221220aed204baaa9cea992f6c110584191591633c8669a039a69333c18f289adf0a8264736f6c63430008160033",
  "source": "// SPDX-License-Identifier: MIT\npragma solidity ^0.8.20;\n\nimport { Utils } from \"../library/Utils.sol\";\nimport { Data, ISortedTroves, Node } from \"./interfaces/ISortedTroves.sol\";\nimport { ITroveManager } from \"./interfaces/ITroveManager.sol\";\nimport { OwnableUpgradeable } from \"@openzeppelin/contracts-upgradeable/access/OwnableUpgradeable.sol\";\nimport { Initializable } from \"@openzeppelin/contracts-upgradeable/proxy/utils/Initializable.sol\";\n\ncontract SortedTroves is ISortedTroves, Initializable, OwnableUpgradeable {\n    ITroveManager public troveManager;\n\n    Data public data;\n\n    constructor() {\n        _disableInitializers();\n    }\n\n    function initialize(address owner) external initializer {\n        Utils.ensureNonzeroAddress(owner);\n\n        __Ownable_init_unchained(owner);\n    }\n\n    function setConfig(ITroveManager _troveManager) external {\n        require(address(troveManager) == address(0), \"Already set\");\n        troveManager = _troveManager;\n        emit SetTroveManager(address(_troveManager));\n    }\n\n    /*\n     * @dev Add a node to the list\n     * @param _id Node's id\n     * @param _NICR Node's NICR\n     * @param _prevId Id of previous node for the insert position\n     * @param _nextId Id of next node for the insert position\n     */\n\n    function insert(address _id, uint256 _NICR, address _prevId, address _nextId) external {\n        ITroveManager troveManagerCached = troveManager;\n\n        _requireCallerIsTroveManager(troveManagerCached);\n\n        Node storage node = data.nodes[_id];\n        // List must not already contain node\n        require(!node.exists, \"SortedTroves: List already contains the node\");\n        // Node id must not be null\n        require(_id != address(0), \"SortedTroves: Id cannot be zero\");\n\n        _insert(node, troveManagerCached, _id, _NICR, _prevId, _nextId);\n    }\n\n    function _insert(\n        Node storage node,\n        ITroveManager _troveManager,\n        address _id,\n        uint256 _NICR,\n        address _prevId,\n        address _nextId\n    )\n        internal\n    {\n        // NICR must be non-zero\n        require(_NICR > 0, \"SortedTroves: NICR must be positive\");\n\n        address prevId = _prevId;\n        address nextId = _nextId;\n\n        if (!_validInsertPosition(_troveManager, _NICR, prevId, nextId)) {\n            // Sender's hint was not a valid insert position\n            // Use sender's hint to find a valid insert position\n            (prevId, nextId) = _findInsertPosition(_troveManager, _NICR, prevId, nextId);\n        }\n\n        node.exists = true;\n\n        if (prevId == address(0) && nextId == address(0)) {\n            // Insert as head and tail\n            data.head = _id;\n            data.tail = _id;\n        } else if (prevId == address(0)) {\n            // Insert before `prevId` as the head\n            address head = data.head;\n            node.nextId = head;\n            data.nodes[head].prevId = _id;\n            data.head = _id;\n        } else if (nextId == address(0)) {\n            // Insert after `nextId` as the tail\n            address tail = data.tail;\n            node.prevId = tail;\n            data.nodes[tail].nextId = _id;\n            data.tail = _id;\n        } else {\n            // Insert at insert position between `prevId` and `nextId`\n            node.nextId = nextId;\n            node.prevId = prevId;\n            data.nodes[prevId].nextId = _id;\n            data.nodes[nextId].prevId = _id;\n        }\n\n        data.size = data.size + 1;\n        emit NodeAdded(_id, _NICR);\n    }\n\n    function remove(address _id) external {\n        _requireCallerIsTroveManager(troveManager);\n        _remove(data.nodes[_id], _id);\n    }\n\n    /*\n     * @dev Remove a node from the list\n     * @param _id Node's id\n     */\n    function _remove(Node storage node, address _id) internal {\n        // List must contain the node\n        require(node.exists, \"SortedTroves: List does not contain the id\");\n\n        if (data.size > 1) {\n            // List contains more than a single node\n            if (_id == data.head) {\n                // The removed node is the head\n                // Set head to next node\n                address head = node.nextId;\n                data.head = head;\n                // Set prev pointer of new head to null\n                data.nodes[head].prevId = address(0);\n            } else if (_id == data.tail) {\n                address tail = node.prevId;\n                // The removed node is the tail\n                // Set tail to previous node\n                data.tail = tail;\n                // Set next pointer of new tail to null\n                data.nodes[tail].nextId = address(0);\n            } else {\n                address prevId = node.prevId;\n                address nextId = node.nextId;\n                // The removed node is neither the head nor the tail\n                // Set next pointer of previous node to the next node\n                data.nodes[prevId].nextId = nextId;\n                // Set prev pointer of next node to the previous node\n                data.nodes[nextId].prevId = prevId;\n            }\n        } else {\n            // List contains a single node\n            // Set the head and tail to null\n            data.head = address(0);\n            data.tail = address(0);\n        }\n\n        delete data.nodes[_id];\n        data.size = data.size - 1;\n        emit NodeRemoved(_id);\n    }\n\n    /*\n     * @dev Re-insert the node at a new position, based on its new NICR\n     * @param _id Node's id\n     * @param _newNICR Node's new NICR\n     * @param _prevId Id of previous node for the new insert position\n     * @param _nextId Id of next node for the new insert position\n     */\n    function reInsert(address _id, uint256 _newNICR, address _prevId, address _nextId) external {\n        ITroveManager troveManagerCached = troveManager;\n\n        _requireCallerIsTroveManager(troveManagerCached);\n\n        Node storage node = data.nodes[_id];\n\n        // Remove node from the list\n        _remove(node, _id);\n\n        _insert(node, troveManagerCached, _id, _newNICR, _prevId, _nextId);\n    }\n\n    /*\n     * @dev Checks if the list contains a node\n     */\n    function contains(address _id) public view returns (bool) {\n        return data.nodes[_id].exists;\n    }\n\n    /*\n     * @dev Checks if the list is empty\n     */\n    function isEmpty() public view returns (bool) {\n        return data.size == 0;\n    }\n\n    /*\n     * @dev Returns the current size of the list\n     */\n    function getSize() external view returns (uint256) {\n        return data.size;\n    }\n\n    /*\n     * @dev Returns the first node in the list (node with the largest NICR)\n     */\n    function getFirst() external view returns (address) {\n        return data.head;\n    }\n\n    /*\n     * @dev Returns the last node in the list (node with the smallest NICR)\n     */\n    function getLast() external view returns (address) {\n        return data.tail;\n    }\n\n    /*\n     * @dev Returns the next node (with a smaller NICR) in the list for a given node\n     * @param _id Node's id\n     */\n    function getNext(address _id) external view returns (address) {\n        return data.nodes[_id].nextId;\n    }\n\n    /*\n     * @dev Returns the previous node (with a larger NICR) in the list for a given node\n     * @param _id Node's id\n     */\n    function getPrev(address _id) external view returns (address) {\n        return data.nodes[_id].prevId;\n    }\n\n    /*\n     * @dev Check if a pair of nodes is a valid insertion point for a new node with the given NICR\n     * @param _NICR Node's NICR\n     * @param _prevId Id of previous node for the insert position\n     * @param _nextId Id of next node for the insert position\n     */\n    function validInsertPosition(uint256 _NICR, address _prevId, address _nextId) external view returns (bool) {\n        return _validInsertPosition(troveManager, _NICR, _prevId, _nextId);\n    }\n\n    function _validInsertPosition(\n        ITroveManager _troveManager,\n        uint256 _NICR,\n        address _prevId,\n        address _nextId\n    )\n        internal\n        view\n        returns (bool)\n    {\n        if (_prevId == address(0) && _nextId == address(0)) {\n            // `(null, null)` is a valid insert position if the list is empty\n            return isEmpty();\n        } else if (_prevId == address(0)) {\n            // `(null, _nextId)` is a valid insert position if `_nextId` is the head of the list\n            return data.head == _nextId && _NICR >= _troveManager.getNominalICR(_nextId);\n        } else if (_nextId == address(0)) {\n            // `(_prevId, null)` is a valid insert position if `_prevId` is the tail of the list\n            return data.tail == _prevId && _NICR <= _troveManager.getNominalICR(_prevId);\n        } else {\n            // `(_prevId, _nextId)` is a valid insert position if they are adjacent nodes and `_NICR` falls between the two nodes' NICRs\n            return data.nodes[_prevId].nextId == _nextId && _troveManager.getNominalICR(_prevId) >= _NICR\n                && _NICR >= _troveManager.getNominalICR(_nextId);\n        }\n    }\n\n    /*\n     * @dev Descend the list (larger NICRs to smaller NICRs) to find a valid insert position\n     * @param _troveManager TroveManager contract, passed in as param to save SLOAD’s\n     * @param _NICR Node's NICR\n     * @param _startId Id of node to start descending the list from\n     */\n    function _descendList(\n        ITroveManager _troveManager,\n        uint256 _NICR,\n        address _startId\n    )\n        internal\n        view\n        returns (address, address)\n    {\n        // If `_startId` is the head, check if the insert position is before the head\n        if (data.head == _startId && _NICR >= _troveManager.getNominalICR(_startId)) {\n            return (address(0), _startId);\n        }\n\n        address prevId = _startId;\n        address nextId = data.nodes[prevId].nextId;\n\n        // Descend the list until we reach the end or until we find a valid insert position\n        while (prevId != address(0) && !_validInsertPosition(_troveManager, _NICR, prevId, nextId)) {\n            prevId = data.nodes[prevId].nextId;\n            nextId = data.nodes[prevId].nextId;\n        }\n\n        return (prevId, nextId);\n    }\n\n    /*\n     * @dev Ascend the list (smaller NICRs to larger NICRs) to find a valid insert position\n     * @param _troveManager TroveManager contract, passed in as param to save SLOAD’s\n     * @param _NICR Node's NICR\n     * @param _startId Id of node to start ascending the list from\n     */\n    function _ascendList(\n        ITroveManager _troveManager,\n        uint256 _NICR,\n        address _startId\n    )\n        internal\n        view\n        returns (address, address)\n    {\n        // If `_startId` is the tail, check if the insert position is after the tail\n        if (data.tail == _startId && _NICR <= _troveManager.getNominalICR(_startId)) {\n            return (_startId, address(0));\n        }\n\n        address nextId = _startId;\n        address prevId = data.nodes[nextId].prevId;\n\n        // Ascend the list until we reach the end or until we find a valid insertion point\n        while (nextId != address(0) && !_validInsertPosition(_troveManager, _NICR, prevId, nextId)) {\n            nextId = data.nodes[nextId].prevId;\n            prevId = data.nodes[nextId].prevId;\n        }\n\n        return (prevId, nextId);\n    }\n\n    /*\n     * @dev Find the insert position for a new node with the given NICR\n     * @param _NICR Node's NICR\n     * @param _prevId Id of previous node for the insert position\n     * @param _nextId Id of next node for the insert position\n     */\n    function findInsertPosition(\n        uint256 _NICR,\n        address _prevId,\n        address _nextId\n    )\n        external\n        view\n        returns (address, address)\n    {\n        return _findInsertPosition(troveManager, _NICR, _prevId, _nextId);\n    }\n\n    function _findInsertPosition(\n        ITroveManager _troveManager,\n        uint256 _NICR,\n        address _prevId,\n        address _nextId\n    )\n        internal\n        view\n        returns (address, address)\n    {\n        address prevId = _prevId;\n        address nextId = _nextId;\n\n        if (prevId != address(0)) {\n            if (!contains(prevId) || _NICR > _troveManager.getNominalICR(prevId)) {\n                // `prevId` does not exist anymore or now has a smaller NICR than the given NICR\n                prevId = address(0);\n            }\n        }\n\n        if (nextId != address(0)) {\n            if (!contains(nextId) || _NICR < _troveManager.getNominalICR(nextId)) {\n                // `nextId` does not exist anymore or now has a larger NICR than the given NICR\n                nextId = address(0);\n            }\n        }\n\n        if (prevId == address(0) && nextId == address(0)) {\n            // No hint - descend list starting from head\n            return _descendList(_troveManager, _NICR, data.head);\n        } else if (prevId == address(0)) {\n            // No `prevId` for hint - ascend list starting from `nextId`\n            return _ascendList(_troveManager, _NICR, nextId);\n        } else if (nextId == address(0)) {\n            // No `nextId` for hint - descend list starting from `prevId`\n            return _descendList(_troveManager, _NICR, prevId);\n        } else {\n            // Descend list starting from `prevId`\n            return _descendList(_troveManager, _NICR, prevId);\n        }\n    }\n\n    function _requireCallerIsTroveManager(ITroveManager _troveManager) internal view {\n        require(msg.sender == address(_troveManager), \"SortedTroves: Caller is not the TroveManager\");\n    }\n}\n",
  "sourcePath": "/Users/ashley/Documents/satoshi/satoshi-v2/src/core/SortedTroves.sol",
  "compiler": {
    "name": "solc",
    "version": "0.8.22+commit.5ed3e10f.Emscripten.clang"
  },
  "schemaVersion": "2.0.1",
  "updatedAt": "2026-04-14T07:11:27.726Z"
}