{
  "contractName": "StabilityPoolFacet",
  "abi": [
    {
      "inputs": [
        {
          "internalType": "address",
          "name": "token",
          "type": "address"
        }
      ],
      "name": "SafeERC20FailedOperation",
      "type": "error"
    },
    {
      "inputs": [],
      "name": "UintUtils__InsufficientPadding",
      "type": "error"
    },
    {
      "anonymous": false,
      "inputs": [
        {
          "indexed": false,
          "internalType": "uint256",
          "name": "_startTime",
          "type": "uint256"
        }
      ],
      "name": "ClaimStartTimeSet",
      "type": "event"
    },
    {
      "anonymous": false,
      "inputs": [
        {
          "indexed": true,
          "internalType": "address",
          "name": "_depositor",
          "type": "address"
        },
        {
          "indexed": false,
          "internalType": "uint256[]",
          "name": "_collateralAmounts",
          "type": "uint256[]"
        }
      ],
      "name": "CollateralGainWithdrawn",
      "type": "event"
    },
    {
      "anonymous": false,
      "inputs": [
        {
          "indexed": true,
          "internalType": "address",
          "name": "_collateralToken",
          "type": "address"
        }
      ],
      "name": "CollateralSunset",
      "type": "event"
    },
    {
      "anonymous": false,
      "inputs": [
        {
          "indexed": true,
          "internalType": "address",
          "name": "_depositor",
          "type": "address"
        },
        {
          "indexed": false,
          "internalType": "uint256",
          "name": "_P",
          "type": "uint256"
        },
        {
          "indexed": false,
          "internalType": "uint256",
          "name": "_G",
          "type": "uint256"
        }
      ],
      "name": "DepositSnapshotUpdated",
      "type": "event"
    },
    {
      "anonymous": false,
      "inputs": [
        {
          "indexed": false,
          "internalType": "uint256",
          "name": "_G",
          "type": "uint256"
        },
        {
          "indexed": false,
          "internalType": "uint128",
          "name": "_epoch",
          "type": "uint128"
        },
        {
          "indexed": false,
          "internalType": "uint128",
          "name": "_scale",
          "type": "uint128"
        }
      ],
      "name": "G_Updated",
      "type": "event"
    },
    {
      "anonymous": false,
      "inputs": [
        {
          "indexed": true,
          "internalType": "address",
          "name": "account",
          "type": "address"
        },
        {
          "indexed": true,
          "internalType": "address",
          "name": "recipient",
          "type": "address"
        },
        {
          "indexed": false,
          "internalType": "uint256",
          "name": "claimed",
          "type": "uint256"
        }
      ],
      "name": "RewardClaimed",
      "type": "event"
    },
    {
      "anonymous": false,
      "inputs": [
        {
          "indexed": false,
          "internalType": "uint128",
          "name": "_newRate",
          "type": "uint128"
        }
      ],
      "name": "RewardRateUpdated",
      "type": "event"
    },
    {
      "anonymous": false,
      "inputs": [
        {
          "indexed": true,
          "internalType": "bytes32",
          "name": "role",
          "type": "bytes32"
        },
        {
          "indexed": true,
          "internalType": "bytes32",
          "name": "previousAdminRole",
          "type": "bytes32"
        },
        {
          "indexed": true,
          "internalType": "bytes32",
          "name": "newAdminRole",
          "type": "bytes32"
        }
      ],
      "name": "RoleAdminChanged",
      "type": "event"
    },
    {
      "anonymous": false,
      "inputs": [
        {
          "indexed": true,
          "internalType": "bytes32",
          "name": "role",
          "type": "bytes32"
        },
        {
          "indexed": true,
          "internalType": "address",
          "name": "account",
          "type": "address"
        },
        {
          "indexed": true,
          "internalType": "address",
          "name": "sender",
          "type": "address"
        }
      ],
      "name": "RoleGranted",
      "type": "event"
    },
    {
      "anonymous": false,
      "inputs": [
        {
          "indexed": true,
          "internalType": "bytes32",
          "name": "role",
          "type": "bytes32"
        },
        {
          "indexed": true,
          "internalType": "address",
          "name": "account",
          "type": "address"
        },
        {
          "indexed": true,
          "internalType": "address",
          "name": "sender",
          "type": "address"
        }
      ],
      "name": "RoleRevoked",
      "type": "event"
    },
    {
      "anonymous": false,
      "inputs": [
        {
          "indexed": false,
          "internalType": "uint256",
          "name": "_newBalance",
          "type": "uint256"
        }
      ],
      "name": "StabilityPoolDebtBalanceUpdated",
      "type": "event"
    },
    {
      "anonymous": false,
      "inputs": [
        {
          "indexed": true,
          "internalType": "address",
          "name": "_depositor",
          "type": "address"
        },
        {
          "indexed": false,
          "internalType": "uint256",
          "name": "_newDeposit",
          "type": "uint256"
        }
      ],
      "name": "UserDepositChanged",
      "type": "event"
    },
    {
      "inputs": [],
      "name": "P",
      "outputs": [
        {
          "internalType": "uint256",
          "name": "",
          "type": "uint256"
        }
      ],
      "stateMutability": "view",
      "type": "function"
    },
    {
      "inputs": [
        {
          "internalType": "address",
          "name": "_depositor",
          "type": "address"
        }
      ],
      "name": "accountDeposits",
      "outputs": [
        {
          "internalType": "uint128",
          "name": "amount",
          "type": "uint128"
        },
        {
          "internalType": "uint128",
          "name": "timestamp",
          "type": "uint128"
        }
      ],
      "stateMutability": "view",
      "type": "function"
    },
    {
      "inputs": [
        {
          "internalType": "address",
          "name": "recipient",
          "type": "address"
        },
        {
          "internalType": "uint256[]",
          "name": "collateralIndexes",
          "type": "uint256[]"
        }
      ],
      "name": "claimCollateralGains",
      "outputs": [],
      "stateMutability": "nonpayable",
      "type": "function"
    },
    {
      "inputs": [
        {
          "internalType": "address",
          "name": "recipient",
          "type": "address"
        }
      ],
      "name": "claimReward",
      "outputs": [
        {
          "internalType": "uint256",
          "name": "amount",
          "type": "uint256"
        }
      ],
      "stateMutability": "nonpayable",
      "type": "function"
    },
    {
      "inputs": [
        {
          "internalType": "address",
          "name": "_depositor",
          "type": "address"
        }
      ],
      "name": "claimableReward",
      "outputs": [
        {
          "internalType": "uint256",
          "name": "",
          "type": "uint256"
        }
      ],
      "stateMutability": "view",
      "type": "function"
    },
    {
      "inputs": [
        {
          "internalType": "address",
          "name": "depositor",
          "type": "address"
        },
        {
          "internalType": "uint256",
          "name": "index",
          "type": "uint256"
        }
      ],
      "name": "collateralGainsByDepositor",
      "outputs": [
        {
          "internalType": "uint80",
          "name": "gains",
          "type": "uint80"
        }
      ],
      "stateMutability": "view",
      "type": "function"
    },
    {
      "inputs": [
        {
          "internalType": "uint256",
          "name": "index",
          "type": "uint256"
        }
      ],
      "name": "collateralTokens",
      "outputs": [
        {
          "internalType": "contract IERC20",
          "name": "",
          "type": "address"
        }
      ],
      "stateMutability": "view",
      "type": "function"
    },
    {
      "inputs": [],
      "name": "currentEpoch",
      "outputs": [
        {
          "internalType": "uint128",
          "name": "",
          "type": "uint128"
        }
      ],
      "stateMutability": "view",
      "type": "function"
    },
    {
      "inputs": [],
      "name": "currentScale",
      "outputs": [
        {
          "internalType": "uint128",
          "name": "",
          "type": "uint128"
        }
      ],
      "stateMutability": "view",
      "type": "function"
    },
    {
      "inputs": [
        {
          "internalType": "address",
          "name": "depositor",
          "type": "address"
        }
      ],
      "name": "depositSnapshots",
      "outputs": [
        {
          "internalType": "uint256",
          "name": "_P",
          "type": "uint256"
        },
        {
          "internalType": "uint256",
          "name": "_G",
          "type": "uint256"
        },
        {
          "internalType": "uint128",
          "name": "scale",
          "type": "uint128"
        },
        {
          "internalType": "uint128",
          "name": "epoch",
          "type": "uint128"
        }
      ],
      "stateMutability": "view",
      "type": "function"
    },
    {
      "inputs": [
        {
          "internalType": "address",
          "name": "depositor",
          "type": "address"
        },
        {
          "internalType": "uint256",
          "name": "index",
          "type": "uint256"
        }
      ],
      "name": "depositSums",
      "outputs": [
        {
          "internalType": "uint256",
          "name": "",
          "type": "uint256"
        }
      ],
      "stateMutability": "view",
      "type": "function"
    },
    {
      "inputs": [
        {
          "internalType": "uint128",
          "name": "epoch",
          "type": "uint128"
        },
        {
          "internalType": "uint128",
          "name": "scale",
          "type": "uint128"
        }
      ],
      "name": "epochToScaleToG",
      "outputs": [
        {
          "internalType": "uint256",
          "name": "",
          "type": "uint256"
        }
      ],
      "stateMutability": "view",
      "type": "function"
    },
    {
      "inputs": [
        {
          "internalType": "uint128",
          "name": "epoch",
          "type": "uint128"
        },
        {
          "internalType": "uint128",
          "name": "scale",
          "type": "uint128"
        },
        {
          "internalType": "uint256",
          "name": "index",
          "type": "uint256"
        }
      ],
      "name": "epochToScaleToSums",
      "outputs": [
        {
          "internalType": "uint256",
          "name": "",
          "type": "uint256"
        }
      ],
      "stateMutability": "view",
      "type": "function"
    },
    {
      "inputs": [
        {
          "internalType": "address",
          "name": "_depositor",
          "type": "address"
        }
      ],
      "name": "getCompoundedDebtDeposit",
      "outputs": [
        {
          "internalType": "uint256",
          "name": "",
          "type": "uint256"
        }
      ],
      "stateMutability": "view",
      "type": "function"
    },
    {
      "inputs": [
        {
          "internalType": "address",
          "name": "_depositor",
          "type": "address"
        }
      ],
      "name": "getDepositorCollateralGain",
      "outputs": [
        {
          "internalType": "uint256[]",
          "name": "collateralGains",
          "type": "uint256[]"
        }
      ],
      "stateMutability": "view",
      "type": "function"
    },
    {
      "inputs": [],
      "name": "getTotalDebtTokenDeposits",
      "outputs": [
        {
          "internalType": "uint256",
          "name": "",
          "type": "uint256"
        }
      ],
      "stateMutability": "view",
      "type": "function"
    },
    {
      "inputs": [
        {
          "internalType": "contract IERC20",
          "name": "collateral",
          "type": "address"
        }
      ],
      "name": "indexByCollateral",
      "outputs": [
        {
          "internalType": "uint256",
          "name": "index",
          "type": "uint256"
        }
      ],
      "stateMutability": "view",
      "type": "function"
    },
    {
      "inputs": [],
      "name": "isClaimStart",
      "outputs": [
        {
          "internalType": "bool",
          "name": "",
          "type": "bool"
        }
      ],
      "stateMutability": "view",
      "type": "function"
    },
    {
      "inputs": [
        {
          "internalType": "uint256",
          "name": "_amount",
          "type": "uint256"
        }
      ],
      "name": "provideToSP",
      "outputs": [],
      "stateMutability": "nonpayable",
      "type": "function"
    },
    {
      "inputs": [],
      "name": "rewardRate",
      "outputs": [
        {
          "internalType": "uint128",
          "name": "",
          "type": "uint128"
        }
      ],
      "stateMutability": "view",
      "type": "function"
    },
    {
      "inputs": [
        {
          "internalType": "uint32",
          "name": "_claimStartTime",
          "type": "uint32"
        }
      ],
      "name": "setClaimStartTime",
      "outputs": [],
      "stateMutability": "nonpayable",
      "type": "function"
    },
    {
      "inputs": [
        {
          "internalType": "uint128",
          "name": "_newRewardRate",
          "type": "uint128"
        }
      ],
      "name": "setRewardRate",
      "outputs": [],
      "stateMutability": "nonpayable",
      "type": "function"
    },
    {
      "inputs": [
        {
          "internalType": "uint128",
          "name": "_newRewardRate",
          "type": "uint128"
        }
      ],
      "name": "setSPRewardRate",
      "outputs": [],
      "stateMutability": "nonpayable",
      "type": "function"
    },
    {
      "inputs": [
        {
          "internalType": "contract IERC20",
          "name": "collateral",
          "type": "address"
        }
      ],
      "name": "startCollateralSunset",
      "outputs": [],
      "stateMutability": "nonpayable",
      "type": "function"
    },
    {
      "inputs": [
        {
          "internalType": "uint256",
          "name": "_amount",
          "type": "uint256"
        }
      ],
      "name": "withdrawFromSP",
      "outputs": [],
      "stateMutability": "nonpayable",
      "type": "function"
    }
  ],
  "bytecode": "0x608060405234801561001057600080fd5b50d3801561001d57600080fd5b50d2801561002a57600080fd5b50612f1e8061003a6000396000f3fe608060405234801561001057600080fd5b50d3801561001d57600080fd5b50d2801561002a57600080fd5b506004361061018d5760003560e01c80637b0a47ee116100f8578063ac9bb6bf116100b1578063d5f195fe1161008b578063d5f195fe146103a3578063db03fdaa146103b6578063e650d293146103c9578063e9503425146103e157600080fd5b8063ac9bb6bf1461036a578063cd60214a1461037d578063d279c1911461039057600080fd5b80637b0a47ee146102ca57806382e0a574146102d2578063835dada0146102e557806386da0824146103185780638b8fbd921461035a578063a4e59ac81461036257600080fd5b80632e54bf951161014a5780632e54bf951461023e578063307d3612146102515780635383dfcb146102715780635e3078ec14610284578063766718081461029757806378c77a24146102b757600080fd5b8063034f4a091461019257806309e2acb0146101a75780630d9a6b35146101cd5780631500d2c3146101d5578063172c48c71461020057806319f27b3b1461022b575b600080fd5b6101a56101a0366004612933565b6103f4565b005b6101ba6101b5366004612963565b6104bc565b6040519081526020015b60405180910390f35b6101ba610503565b6101e86101e3366004612963565b610521565b6040516001600160501b0390911681526020016101c4565b61021361020e366004612998565b610584565b6040516001600160a01b0390911681526020016101c4565b6101a56102393660046129b1565b6105c2565b6101a561024c366004612998565b610763565b61026461025f3660046129b1565b6109b0565b6040516101c491906129de565b6101ba61027f3660046129b1565b610cf0565b6101a5610292366004612a22565b610d1d565b61029f610f77565b6040516001600160801b0390911681526020016101c4565b6101a56102c5366004612998565b610f9c565b61029f6111ce565b6101ba6102e0366004612ab3565b6111ec565b6102f86102f33660046129b1565b611229565b604080516001600160801b039384168152929091166020830152016101c4565b61032b6103263660046129b1565b611270565b6040805194855260208501939093526001600160801b03918216928401929092521660608201526080016101c4565b6101ba6112ef565b61029f611304565b6101a5610378366004612933565b611322565b6101a561038b366004612ae6565b61137f565b6101ba61039e3660046129b1565b6113fa565b6101ba6103b13660046129b1565b611532565b6101ba6103c4366004612b0c565b611550565b6103d16115a2565b60405190151581526020016101c4565b6101ba6103ef3660046129b1565b6115cd565b600080516020612ec983398151915261040c816118f5565b6000610416611902565b905066e14fc68e3008d06001600160801b03841611156104515760405162461bcd60e51b815260040161044890612b48565b60405180910390fd5b61045a81611930565b6011810180546fffffffffffffffffffffffffffffffff19166001600160801b0385169081179091556040519081527f600cbee8f1e8abd4e7c79121f551d3faa3c754f0fdb72bb0e6ae003aeafebe56906020015b60405180910390a1505050565b6000806104c7611902565b6001600160a01b038516600090815261011f8201602052604090209091508361010081106104f7576104f7612b8b565b01549150505b92915050565b60008061050e611902565b905061051b816018015490565b91505090565b60008061052c611902565b6001600160a01b038516600090815261012082016020526040902090915083610100811061055c5761055c612b8b565b60039182820401919006600a029054906101000a90046001600160501b031691505092915050565b60008061058f611902565b90508060130183815481106105a6576105a6612b8b565b6000918252602090912001546001600160a01b03169392505050565b600080516020612ec98339815191526105da816118f5565b60006105e4611902565b6001600160a01b038416600090815260128201602052604090205490915061064e5760405162461bcd60e51b815260206004820152601d60248201527f436f6c6c61746572616c20616c72656164792073756e73657474696e670000006044820152606401610448565b6040805180820182526001600160a01b0385166000908152601284016020529190912054819061068090600190612bb7565b6001600160801b0316815260200161069b62ed4e0042612bca565b6001600160801b03169052601682018054601784019160009162010000900461ffff169060026106ca83612bdd565b825461ffff9182166101009390930a928302928202191691909117909155168152602080820192909252604090810160009081208451948401516001600160801b03908116600160801b029516949094179093556001600160a01b038616808452601285019092528083208390555190917f533f06b240a397cf2ca964000d05e7c24c8093ddf1bdb4a7e5f865cd0c6442d691a2505050565b600061076d611902565b33600090815261011d820160205260409020549091506001600160801b0380821691600160801b900416816107fd5760405162461bcd60e51b815260206004820152603060248201527f53746162696c697479506f6f6c3a2055736572206d757374206861766520612060448201526f1b9bdb8b5e995c9bc819195c1bdcda5d60821b6064820152608401610448565b42816001600160801b0316106108555760405162461bcd60e51b815260206004820181905260248201527f214465706f73697420616e642077697468647261772073616d6520626c6f636b6044820152606401610448565b61085e83611930565b61086883336119c8565b5060006108758433611c7a565b905060006108838683611d1f565b905061088f8533611d35565b8015610914576008850154604051631062c15f60e11b8152306004820152336024820152604481018390526001600160a01b03909116906320c582be90606401600060405180830381600087803b1580156108e957600080fd5b505af11580156108fd573d6000803e3d6000fd5b505050506109148186611d7b90919063ffffffff16565b60006109208284612bb7565b6040805180820182526001600160801b038084168252878116602080840191825233600081815261011d8e01909252949020925190518216600160801b02911617905590915061097290879083611dc7565b60405181815233907fbce78369dccab09eec1986f4d409ab09ffbb47d65423e5148fcf98411c5111c99060200160405180910390a250505050505050565b606060006109bc611902565b601381015490915067ffffffffffffffff8111156109dc576109dc612bfe565b604051908082528060200260200182016040528015610a05578160200160208202803683370190505b506001600160a01b03841660009081526101208301602052604081209193505b8351811015610a8e5781816101008110610a4157610a41612b8b565b60039182820401919006600a029054906101000a90046001600160501b03166001600160501b0316848281518110610a7b57610a7b612b8b565b6020908102919091010152600101610a25565b506001600160a01b038416600090815261011e8301602052604081205490819003610abb57505050919050565b6001600160a01b038516600090815261011d8401602090815260408083205461011e87018352818420600201546001600160801b03600160801b8204811680875260148a0180875285882093831680895284885295882082895296529216949193919081610b2a856001612c14565b6001600160801b03168152602080820192909252604090810160009081206001600160a01b038e16825261011f8c019093529081209192505b8a51811015610ce15783816101008110610b7f57610b7f612b8b565b015415610cd957600082826101008110610b9b57610b9b612b8b565b015485836101008110610bb057610bb0612b8b565b0154610bbc9190612bb7565b90506000633b9aca0085846101008110610bd857610bd8612b8b565b0154610be49190612c3b565b905060008c6013018481548110610bfd57610bfd612b8b565b600091825260209182902001546040805163313ce56760e01b815290516001600160a01b039092169263313ce567926004808401938290030181865afa158015610c4b573d6000803e3d6000fd5b505050506040513d601f19601f82011682018060405250810190610c6f9190612c5d565b9050670de0b6b3a76400008b610c8e610c888587612bca565b84611fb4565b610c98908d612c80565b610ca29190612c3b565b610cac9190612c3b565b8e8581518110610cbe57610cbe612b8b565b60200260200101818151610cd29190612bca565b9052505050505b600101610b63565b50505050505050505050919050565b600080610cfb611902565b6001600160a01b03909316600090815260129093016020525050604090205490565b6000610d27611902565b90506000610d358233611c7a565b33600081815261011d85016020526040902054919250600160801b9091046001600160801b031690610d689084906119c8565b506013830154849060009067ffffffffffffffff811115610d8b57610d8b612bfe565b604051908082528060200260200182016040528015610db4578160200160208202803683370190505b503360009081526101208701602052604081209192505b83811015610edb576000898983818110610de757610de7612b8b565b905060200201359050600083826101008110610e0557610e05612b8b565b60039182820401919006600a029054906101000a90046001600160501b03166001600160501b031690506000811115610ed15780858381518110610e4b57610e4b612b8b565b602002602001018181525050600084836101008110610e6c57610e6c612b8b565b60039182820401919006600a026101000a8154816001600160501b0302191690836001600160501b03160217905550610ed18c828b6013018581548110610eb557610eb5612b8b565b6000918252602090912001546001600160a01b0316919061202b565b5050600101610dcb565b506040805180820182526001600160801b038088168252868116602080840191825233600081815261011d8d01909252949020925190518216600160801b029116179055610f2b90879087611dc7565b336001600160a01b03167faecf5c2e84838a7ed87234d73965fc51f96b87b4c957f03bf22cfeb618c9aae183604051610f6491906129de565b60405180910390a2505050505050505050565b600080610f82611902565b60150154600160801b90046001600160801b031692915050565b6000610fa6611902565b600681015490915060ff1615610ff45760405162461bcd60e51b815260206004820152601360248201527211195c1bdcda5d1cc8185c99481c185d5cd959606a1b6044820152606401610448565b600082116110535760405162461bcd60e51b815260206004820152602660248201527f53746162696c697479506f6f6c3a20416d6f756e74206d757374206265206e6f6044820152656e2d7a65726f60d01b6064820152608401610448565b61105c81611930565b61106681336119c8565b5060006110738233611c7a565b905061107f8233611d35565b60088201546040516309b6d81d60e11b8152336004820152602481018590526001600160a01b039091169063136db03a90604401600060405180830381600087803b1580156110cd57600080fd5b505af11580156110e1573d6000803e3d6000fd5b5050505060008383601801546110f79190612bca565b601884018190556040518181529091507f5c1eb83edfbe7709b9a63e8c7e294df8731e15bc212a85bf6e95cb906600bcbb9060200160405180910390a160006111408584612bca565b6040805180820182526001600160801b038084168252428116602080840191825233600081815261011d8c01909252949020925190518216600160801b02911617905590915061119290859083611dc7565b60405181815233907fbce78369dccab09eec1986f4d409ab09ffbb47d65423e5148fcf98411c5111c99060200160405180910390a25050505050565b6000806111d9611902565b601101546001600160801b031692915050565b6000806111f7611902565b6001600160801b03948516600090815261011c9190910160209081526040808320959096168252939093525050205490565b6000806000611236611902565b6001600160a01b03909416600090815261011d90940160205250506040909120546001600160801b0380821693600160801b909204169150565b6000806000806000611280611902565b6001600160a01b03909616600090815261011e90960160209081526040968790208751608081018952815480825260018301549382018490526002909201546001600160801b038082169a83018b9052600160801b909104166060909101819052909891979650945092505050565b6000806112fa611902565b6019015492915050565b60008061130f611902565b601501546001600160801b031692915050565b600080516020612ec983398151915261133a816118f5565b66e14fc68e3008d06001600160801b038316111561136a5760405162461bcd60e51b815260040161044890612b48565b6000611374611902565b905061045a81611930565b600080516020612ec9833981519152611397816118f5565b60006113a1611902565b60118101805463ffffffff60a01b1916600160a01b63ffffffff8716908102919091179091556040519081529091507f9a117d50db495b8e5b6defa7f392b1b49b14632c64e0187edc7d487038007b6a906020016104af565b600080611405611902565b9050611425816011015463ffffffff428116600160a01b90920416111590565b6114715760405162461bcd60e51b815260206004820181905260248201527f53746162696c697479506f6f6c3a20436c61696d206e6f7420737461727465646044820152606401610448565b61147b8133612082565b915081156114ec576003810154604051631ed7a09b60e31b81526001600160a01b038581166004830152602482018590529091169063f6bd04d890604401600060405180830381600087803b1580156114d357600080fd5b505af11580156114e7573d6000803e3d6000fd5b505050505b6040518281526001600160a01b0384169033907f0aa4d283470c904c551d18bb894d37e17674920f3261a7f854be501e25f421b79060200160405180910390a350919050565b60008061153d611902565b90506115498184611c7a565b9392505050565b60008061155b611902565b6001600160801b038087166000908152601483016020908152604080832093891683529290522090915083610100811061159757611597612b8b565b015495945050505050565b6000806115ad611902565b905061051b816011015463ffffffff428116600160a01b90920416111590565b6000806115d8611902565b60188101546001600160a01b038516600090815261011d83016020526040902054919250906001600160801b0316811580611611575080155b1561164f5761162083866121e7565b6001600160a01b0386166000908152610121850160205260409020546116469190612bca565b95945050505050565b6001600160a01b038516600090815261011e840160209081526040808320815160808101835281548152600182015493810193909352600201546001600160801b03808216928401839052600160801b909104166060830181905261011b87015492939092670de0b6b3a76400006116c689612284565b6116d09190612c80565b6116da9190612bca565b905060006116e88783612c3b565b60158901549091506000906001600160801b03868116600160801b9092041614611713576000611722565b60198901546117229083612c80565b60158a015490915060009081906001600160801b03908116908716036117e8576020808901516001600160801b03808a16600090815261011c8f0184526040808220928b1682529190935290912054849161177c91612bb7565b6117869190612bca565b6001600160801b038816600090815261011c8d0160205260408120919350633b9aca0091906117b6896001612c14565b6001600160801b03166001600160801b03168152602001908152602001600020546117e19190612c3b565b905061188a565b6020808901516001600160801b03808a16600090815261011c8f0184526040808220928b16825291909352909120546118219190612bb7565b6001600160801b038816600090815261011c8d0160205260408120919350633b9aca009185916118528a6001612c14565b6001600160801b03166001600160801b031681526020019081526020016000205461187d9190612bca565b6118879190612c3b565b90505b8751670de0b6b3a7640000906118a08385612bca565b6118aa908c612c80565b6118b49190612c3b565b6118be9190612c3b565b6001600160a01b038e1660009081526101218d0160205260409020546118e49190612bca565b9d9c50505050505050505050505050565b6118ff8133612349565b50565b6000806104fd60017f32dc5fac1ec0f102a33b5c15528dfb46fd85a8972ea61127a23d80a03590a782612bb7565b600061193b82612284565b600383015460405163cf6120bd60e01b8152600481018390529192506001600160a01b03169063cf6120bd90602401600060405180830381600087803b15801561198457600080fd5b505af1158015611998573d6000803e3d6000fd5b505050506119a682826123af565b50601101805463ffffffff60801b1916600160801b4263ffffffff1602179055565b6001600160a01b0381166000908152610120830160209081526040808320601386015461011d8701909352908320549091906001600160801b0316808403611a12575050506104fd565b6001600160a01b038516600090815261011e870160209081526040808320600281015490546001600160801b03600160801b8304811680875260148d0180875285882092909416808852828752948720818852939095529394929390929081611a7c866001612c14565b6001600160801b03168152602080820192909252604090810160009081206001600160a01b038e16825261011f8f019093529081209192505b88811015611c6a5783816101008110611ad057611ad0612b8b565b015415611c625760019a50600082826101008110611af057611af0612b8b565b015485836101008110611b0557611b05612b8b565b0154611b119190612bb7565b90506000633b9aca0085846101008110611b2d57611b2d612b8b565b0154611b399190612c3b565b905060008f6013018481548110611b5257611b52612b8b565b600091825260209182902001546040805163313ce56760e01b815290516001600160a01b039092169263313ce567926004808401938290030181865afa158015611ba0573d6000803e3d6000fd5b505050506040513d601f19601f82011682018060405250810190611bc49190612c5d565b9050670de0b6b3a764000088611bdd610c888587612bca565b611be7908e612c80565b611bf19190612c3b565b611bfb9190612c3b565b8d856101008110611c0e57611c0e612b8b565b60039182820401919006600a028282829054906101000a90046001600160501b0316611c3a9190612c97565b92506101000a8154816001600160501b0302191690836001600160501b031602179055505050505b600101611ab5565b5050505050505050505092915050565b6001600160a01b038116600090815261011d830160205260408120546001600160801b0316808203611cb05760009150506104fd565b6001600160a01b038316600090815261011e850160209081526040808320815160808101835281548152600182015493810193909352600201546001600160801b0380821692840192909252600160801b900416606082015290611d158684846124ba565b9695505050505050565b6000818310611d2e5781611549565b5090919050565b6000611d4183836121e7565b6001600160a01b038316600090815261012185016020526040812080549293508392909190611d71908490612bca565b9091555050505050565b6000818360180154611d8d9190612bb7565b601884018190556040518181529091507f5c1eb83edfbe7709b9a63e8c7e294df8731e15bc212a85bf6e95cb906600bcbb906020016104af565b600081600003611e8e57506001600160a01b038216600090815261011e840160205260408120818155600181018290556002018190556013840154905b81811015611e43576001600160a01b038416600090815261011f860160205260408120826101008110611e3957611e39612b8b565b0155600101611e04565b5060408051600080825260208201526001600160a01b038516917fc48943df4095f4f20d171fd2872eafdc0eed4d9014ac3672f3bde7fd425449d5910160405180910390a250505050565b50601583015460198401546001600160801b03600160801b8084048216600081815260148901602090815260408083209590971680835294815286822083835261011c8b0182528783208684528252878320546001600160a01b038b16845261011e8c01909252968220868155600181018290559383028517600290940193909355601389015495939491939192905b86811015611f725782816101008110611f3957611f39612b8b565b01546001600160a01b038a16600090815261011f8c0160205260409020826101008110611f6857611f68612b8b565b0155600101611f1e565b5060408051848152602081018390526001600160a01b038a16917fc48943df4095f4f20d171fd2872eafdc0eed4d9014ac3672f3bde7fd425449d59101610f64565b600080601260111960ff851601611fcd57849150612023565b8060ff168460ff16101561200157611fe58482612cb7565b611ff090600a612db4565b611ffa9086612c3b565b9150612023565b61200b8185612cb7565b61201690600a612db4565b6120209086612c80565b91505b509392505050565b604080516001600160a01b038416602482015260448082018490528251808303909101815260649091019091526020810180516001600160e01b031663a9059cbb60e01b17905261207d9084906125b0565b505050565b6001600160a01b038116600090815261011d830160205260408120546001600160801b03168015612194576001600160a01b038316600090815261011d85016020526040902054600160801b90046001600160801b03166120e285611930565b60006120ee86866119c8565b905060006120fc8787611c7a565b9050600061210a8286612bb7565b905061211688886121e7565b955060008111806121245750825b8061212f5750600086115b1561218f576040805180820182526001600160801b03808516825286811660208084019182526001600160a01b038c16600090815261011d8e0190915293909320915192518116600160801b02921691909117905561218f888884611dc7565b505050505b6001600160a01b03831660009081526101218501602052604090205480156121df576121c08184612bca565b6001600160a01b03851660009081526101218701602052604081205592505b505092915050565b6001600160a01b038116600090815261011d830160205260408120546001600160801b031680820361221d5760009150506104fd565b6001600160a01b038316600090815261011e85016020908152604091829020825160808101845281548152600182015492810192909252600201546001600160801b0380821693830193909352600160801b90049091166060820152611646858383612627565b601181015460009081906122a590600160801b900463ffffffff1642612bb7565b60118401549091506000906122c3906001600160801b031683612c80565b6003850154604051634225e5bb60e01b81523060048201529192506000916001600160a01b0390911690634225e5bb90602401602060405180830381865afa158015612313573d6000803e3d6000fd5b505050506040513d601f19601f820116820180604052508101906123379190612dc3565b90508082111561202357949350505050565b6123538282612712565b6123ab57612369816001600160a01b031661276b565b61237483602061277d565b604051602001612385929190612e00565b60408051601f198184030181529082905262461bcd60e51b825261044891600401612e75565b5050565b60188201548015806123bf575081155b156123c957505050565b60006123d68484846128bc565b601585015460198601549192506001600160801b03600160801b82048116929116906000906124059085612c80565b6001600160801b03808516600090815261011c8a01602090815260408083209387168352929052908120549192509061243f908390612bca565b6001600160801b03858116600081815261011c8c0160209081526040808320948916808452948252918290208590558151858152908101929092528101919091529091507f2d6127771b164a9cc8827d24b5955db2a77e7a81dac389107ebb8bce9fb649689060600160405180910390a15050505050505050565b80516040820151606083015160158601546000939291906001600160801b03600160801b909104811690821610156124f85760009350505050611549565b601587015460009081906125169085906001600160801b0316612ea8565b9050806001600160801b031660000361254b578489601901548961253a9190612c80565b6125449190612c3b565b9150612581565b806001600160801b031660010361257c57633b9aca00858a601901548a6125729190612c80565b61253a9190612c3b565b600091505b61258f633b9aca0089612c3b565b8210156125a457600095505050505050611549565b50979650505050505050565b600080602060008451602086016000885af1806125d3576040513d6000823e3d81fd5b50506000513d915081156125eb5780600114156125f8565b6001600160a01b0384163b155b1561262157604051635274afe760e01b81526001600160a01b0385166004820152602401610448565b50505050565b606081015160408083015160208085015185516001600160801b03808716600090815261011c8b018552868120918616815293529382205491949390918590612671908490612bb7565b6001600160801b038616600090815261011c8b016020526040812091925090633b9aca0090826126a2886001612c14565b6001600160801b03166001600160801b03168152602001908152602001600020546126cd9190612c3b565b90506000670de0b6b3a7640000846126e58486612bca565b6126ef908d612c80565b6126f99190612c3b565b6127039190612c3b565b9b9a5050505050505050505050565b6000611549827fd3889cc5458b268d0544e5534672df1296288ca3f93cbd39bd6f497a5c622811600086815260209190915260409020906001600160a01b03811660009081526001830160205260408120541515611549565b60606104fd6001600160a01b03831660145b60011b600201606060008267ffffffffffffffff8111156127a0576127a0612bfe565b6040519080825280601f01601f1916602001820160405280156127ca576020820181803683370190505b509050600360fc1b816000815181106127e5576127e5612b8b565b60200101906001600160f81b031916908160001a905350600f60fb1b8160018151811061281457612814612b8b565b60200101906001600160f81b031916908160001a9053505b600283111561289d57600019909201916f181899199a1a9b1b9c1cb0b131b232b360811b600f85166010811061286457612864612b8b565b1a60f81b81848151811061287a5761287a612b8b565b60200101906001600160f81b031916908160001a905350600484901c935061282c565b8315611549576040516355a04ff160e11b815260040160405180910390fd5b6000808461011b0154670de0b6b3a7640000856128d99190612c80565b6128e39190612bca565b905060006128f18483612c3b565b90506128fd8482612c80565b6129079083612bb7565b61011b8701559150509392505050565b80356001600160801b038116811461292e57600080fd5b919050565b60006020828403121561294557600080fd5b61154982612917565b6001600160a81b03811681146118ff57600080fd5b6000806040838503121561297657600080fd5b82356129818161294e565b6001600160a01b0316946020939093013593505050565b6000602082840312156129aa57600080fd5b5035919050565b6000602082840312156129c357600080fd5b81356129ce8161294e565b6001600160a01b03169392505050565b6020808252825182820181905260009190848201906040850190845b81811015612a16578351835292840192918401916001016129fa565b50909695505050505050565b600080600060408486031215612a3757600080fd5b8335612a428161294e565b6001600160a01b03169250602084013567ffffffffffffffff80821115612a6857600080fd5b818601915086601f830112612a7c57600080fd5b813581811115612a8b57600080fd5b8760208260051b8501011115612aa057600080fd5b6020830194508093505050509250925092565b60008060408385031215612ac657600080fd5b612acf83612917565b9150612add60208401612917565b90509250929050565b600060208284031215612af857600080fd5b813563ffffffff8116811461154957600080fd5b600080600060608486031215612b2157600080fd5b612b2a84612917565b9250612b3860208501612917565b9150604084013590509250925092565b60208082526023908201527f53746162696c697479506f6f6c3a20526577617264207261746520746f6f20686040820152620d2ced60eb1b606082015260800190565b634e487b7160e01b600052603260045260246000fd5b634e487b7160e01b600052601160045260246000fd5b818103818111156104fd576104fd612ba1565b808201808211156104fd576104fd612ba1565b600061ffff808316818103612bf457612bf4612ba1565b6001019392505050565b634e487b7160e01b600052604160045260246000fd5b6001600160801b03818116838216019080821115612c3457612c34612ba1565b5092915050565b600082612c5857634e487b7160e01b600052601260045260246000fd5b500490565b600060208284031215612c6f57600080fd5b815160ff8116811461154957600080fd5b80820281158282048414176104fd576104fd612ba1565b6001600160501b03818116838216019080821115612c3457612c34612ba1565b60ff82811682821603908111156104fd576104fd612ba1565b600181815b80851115612d0b578160001904821115612cf157612cf1612ba1565b80851615612cfe57918102915b93841c9390800290612cd5565b509250929050565b600082612d22575060016104fd565b81612d2f575060006104fd565b8160018114612d455760028114612d4f57612d6b565b60019150506104fd565b60ff841115612d6057612d60612ba1565b50506001821b6104fd565b5060208310610133831016604e8410600b8410161715612d8e575081810a6104fd565b612d988383612cd0565b8060001904821115612dac57612dac612ba1565b029392505050565b600061154960ff841683612d13565b600060208284031215612dd557600080fd5b5051919050565b60005b83811015612df7578181015183820152602001612ddf565b50506000910152565b7f416363657373436f6e74726f6c3a206163636f756e7420000000000000000000815260008351612e38816017850160208801612ddc565b7001034b99036b4b9b9b4b733903937b6329607d1b6017918401918201528351612e69816028840160208801612ddc565b01602801949350505050565b6020815260008251806020840152612e94816040850160208701612ddc565b601f01601f19169190910160400192915050565b6001600160801b03828116828216039080821115612c3457612c34612ba156feb19546dff01e856fb3f010c267a7b1c60363cf8a4664e21cc89c26224620214ea26474726f6e582212209efa2b115d32f200164c24ffdb8a316565f69f59befbc8edb351a4d3b91b606f64736f6c63430008160033",
  "source": "// SPDX-License-Identifier: MIT\npragma solidity ^0.8.20;\n\nimport { SatoshiMath } from \"../../library/SatoshiMath.sol\";\n\nimport { AppStorage } from \"../AppStorage.sol\";\nimport { Config } from \"../Config.sol\";\nimport { IDebtToken } from \"../interfaces/IDebtToken.sol\";\nimport {\n    AccountDeposit,\n    IStabilityPoolFacet,\n    Queue,\n    Snapshots,\n    SunsetIndex\n} from \"../interfaces/IStabilityPoolFacet.sol\";\n\nimport { StabilityPoolLib } from \"../libs/StabilityPoolLib.sol\";\nimport { IERC20 } from \"@openzeppelin/contracts/token/ERC20/IERC20.sol\";\nimport { IERC20Metadata } from \"@openzeppelin/contracts/token/ERC20/extensions/IERC20Metadata.sol\";\nimport { SafeERC20 } from \"@openzeppelin/contracts/token/ERC20/utils/SafeERC20.sol\";\nimport { AccessControlInternal } from \"@solidstate/contracts/access/access_control/AccessControlInternal.sol\";\n\ncontract StabilityPoolFacet is IStabilityPoolFacet, AccessControlInternal {\n    using SafeERC20 for IERC20;\n    using StabilityPoolLib for AppStorage.Layout;\n\n    function setSPRewardRate(uint128 _newRewardRate) external onlyRole(Config.OWNER_ROLE) {\n        require(_newRewardRate <= Config.SP_MAX_REWARD_RATE, \"StabilityPool: Reward rate too high\");\n        AppStorage.Layout storage s = AppStorage.layout();\n        s._triggerOSHIIssuance();\n        s.spRewardRate = _newRewardRate;\n        emit RewardRateUpdated(_newRewardRate);\n    }\n\n    /**\n     * @notice Starts sunsetting a collateral\n     *         During sunsetting liquidated collateral handoff to the SP will revert\n     *     @dev IMPORTANT: When sunsetting a collateral, `TroveManager.startSunset`\n     *                     should be called on all TM linked to that collateral\n     *     @param collateral Collateral to sunset\n     */\n    function startCollateralSunset(IERC20 collateral) external onlyRole(Config.OWNER_ROLE) {\n        AppStorage.Layout storage s = AppStorage.layout();\n        require(s.indexByCollateral[collateral] > 0, \"Collateral already sunsetting\");\n        s.sunsetIndexes[s.queue.nextSunsetIndexKey++] = SunsetIndex(\n            uint128(s.indexByCollateral[collateral] - 1), uint128(block.timestamp + Config.SUNSET_DURATION)\n        );\n        delete s.indexByCollateral[collateral]; //This will prevent calls to the SP in case of liquidations\n        emit CollateralSunset(address(collateral));\n    }\n\n    function getTotalDebtTokenDeposits() external view returns (uint256) {\n        AppStorage.Layout storage s = AppStorage.layout();\n        return s._getTotalDebtTokenDeposits();\n    }\n\n    // --- External Depositor Functions ---\n\n    /*  provideToSP():\n     *\n     * - Triggers a Satoshi issuance, based on time passed since the last issuance. The Satoshi issuance is shared between *all* depositors and front ends\n     * - Tags the deposit with the provided front end tag param, if it's a new deposit\n     * - Sends depositor's accumulated gains (Satoshi, collateral) to depositor\n     * - Sends the tagged front end's accumulated Satoshi gains to the tagged front end\n     * - Increases deposit and tagged front end's stake, and takes new snapshots for each.\n     */\n    function provideToSP(uint256 _amount) external {\n        AppStorage.Layout storage s = AppStorage.layout();\n        require(!s.paused, \"Deposits are paused\");\n        require(_amount > 0, \"StabilityPool: Amount must be non-zero\");\n\n        s._triggerOSHIIssuance();\n\n        _accrueDepositorCollateralGain(s, msg.sender);\n\n        uint256 compoundedDebtDeposit = s._getCompoundedDebtDeposit(msg.sender);\n\n        _accrueRewards(s, msg.sender);\n\n        s.debtToken.sendToXApp(msg.sender, _amount);\n        uint256 newTotalDebtTokenDeposits = s.totalDebtTokenDeposits + _amount;\n        s.totalDebtTokenDeposits = newTotalDebtTokenDeposits;\n        emit StabilityPoolLib.StabilityPoolDebtBalanceUpdated(newTotalDebtTokenDeposits);\n\n        uint256 newDeposit = compoundedDebtDeposit + _amount;\n        s.accountDeposits[msg.sender] =\n            AccountDeposit({ amount: uint128(newDeposit), timestamp: uint128(block.timestamp) });\n\n        _updateSnapshots(s, msg.sender, newDeposit);\n        emit UserDepositChanged(msg.sender, newDeposit);\n    }\n\n    /*  withdrawFromSP():\n     *\n     * - Triggers a Satoshi issuance, based on time passed since the last issuance. The Satoshi issuance is shared between *all* depositors and front ends\n     * - Removes the deposit's front end tag if it is a full withdrawal\n     * - Sends all depositor's accumulated gains (Satoshi, collateral) to depositor\n     * - Sends the tagged front end's accumulated Satoshi gains to the tagged front end\n     * - Decreases deposit and tagged front end's stake, and takes new snapshots for each.\n     *\n     * If _amount > userDeposit, the user withdraws all of their compounded deposit.\n     */\n    function withdrawFromSP(uint256 _amount) external {\n        AppStorage.Layout storage s = AppStorage.layout();\n        uint256 initialDeposit = s.accountDeposits[msg.sender].amount;\n        uint128 depositTimestamp = s.accountDeposits[msg.sender].timestamp;\n        require(initialDeposit > 0, \"StabilityPool: User must have a non-zero deposit\");\n        require(depositTimestamp < block.timestamp, \"!Deposit and withdraw same block\");\n\n        s._triggerOSHIIssuance();\n\n        _accrueDepositorCollateralGain(s, msg.sender);\n\n        uint256 compoundedDebtDeposit = s._getCompoundedDebtDeposit(msg.sender);\n        uint256 debtToWithdraw = SatoshiMath._min(_amount, compoundedDebtDeposit);\n\n        _accrueRewards(s, msg.sender);\n\n        if (debtToWithdraw > 0) {\n            s.debtToken.returnFromPool(address(this), msg.sender, debtToWithdraw);\n            s._decreaseDebt(debtToWithdraw);\n        }\n\n        // Update deposit\n        uint256 newDeposit = compoundedDebtDeposit - debtToWithdraw;\n        s.accountDeposits[msg.sender] = AccountDeposit({ amount: uint128(newDeposit), timestamp: depositTimestamp });\n\n        _updateSnapshots(s, msg.sender, newDeposit);\n        emit UserDepositChanged(msg.sender, newDeposit);\n    }\n\n    // --- Liquidation functions ---\n\n    // --- Reward calculator functions for depositor ---\n\n    /* Calculates the collateral gain earned by the deposit since its last snapshots were taken.\n     * Given by the formula:  E = d0 * (S - S(0))/P(0)\n     * where S(0) and P(0) are the depositor's snapshots of the sum S and product P, respectively.\n     * d0 is the last recorded deposit value.\n     */\n    function getDepositorCollateralGain(address _depositor) external view returns (uint256[] memory collateralGains) {\n        AppStorage.Layout storage s = AppStorage.layout();\n        collateralGains = new uint256[](s.collateralTokens.length);\n        uint80[256] storage depositorGains = s.collateralGainsByDepositor[_depositor];\n        for (uint256 i = 0; i < collateralGains.length; i++) {\n            collateralGains[i] = depositorGains[i];\n        }\n\n        uint256 P_Snapshot = s.depositSnapshots[_depositor].P;\n        if (P_Snapshot == 0) return collateralGains;\n        uint256 initialDeposit = s.accountDeposits[_depositor].amount;\n        uint128 epochSnapshot = s.depositSnapshots[_depositor].epoch;\n        uint128 scaleSnapshot = s.depositSnapshots[_depositor].scale;\n        uint256[256] storage sums = s.epochToScaleToSums[epochSnapshot][scaleSnapshot];\n        uint256[256] storage nextSums = s.epochToScaleToSums[epochSnapshot][scaleSnapshot + 1];\n        uint256[256] storage depSums = s.depositSums[_depositor];\n\n        for (uint256 i = 0; i < collateralGains.length; i++) {\n            if (sums[i] == 0) continue; // Collateral was overwritten or not gains\n            uint256 firstPortion = sums[i] - depSums[i];\n            uint256 secondPortion = nextSums[i] / Config.SCALE_FACTOR;\n            uint8 _decimals = IERC20Metadata(address(s.collateralTokens[i])).decimals();\n            collateralGains[i] += initialDeposit\n                * SatoshiMath._getOriginalCollateralAmount(firstPortion + secondPortion, _decimals) / P_Snapshot\n                / SatoshiMath.DECIMAL_PRECISION;\n        }\n        return collateralGains;\n    }\n\n    function _accrueDepositorCollateralGain(\n        AppStorage.Layout storage s,\n        address _depositor\n    )\n        private\n        returns (bool hasGains)\n    {\n        uint80[256] storage depositorGains = s.collateralGainsByDepositor[_depositor];\n        uint256 collaterals = s.collateralTokens.length;\n        uint256 initialDeposit = s.accountDeposits[_depositor].amount;\n        hasGains = false;\n        if (initialDeposit == 0) {\n            return hasGains;\n        }\n\n        uint128 epochSnapshot = s.depositSnapshots[_depositor].epoch;\n        uint128 scaleSnapshot = s.depositSnapshots[_depositor].scale;\n        uint256 P_Snapshot = s.depositSnapshots[_depositor].P;\n\n        uint256[256] storage sums = s.epochToScaleToSums[epochSnapshot][scaleSnapshot];\n        uint256[256] storage nextSums = s.epochToScaleToSums[epochSnapshot][scaleSnapshot + 1];\n        uint256[256] storage depSums = s.depositSums[_depositor];\n\n        for (uint256 i = 0; i < collaterals; i++) {\n            if (sums[i] == 0) continue; // Collateral was overwritten or not gains\n            hasGains = true;\n            uint256 firstPortion = sums[i] - depSums[i];\n            uint256 secondPortion = nextSums[i] / Config.SCALE_FACTOR;\n            uint8 _decimals = IERC20Metadata(address(s.collateralTokens[i])).decimals();\n            depositorGains[\n                i\n            ] += uint80(\n                (initialDeposit * SatoshiMath._getOriginalCollateralAmount(firstPortion + secondPortion, _decimals)\n                        / P_Snapshot / SatoshiMath.DECIMAL_PRECISION)\n            );\n        }\n        return (hasGains);\n    }\n\n    /*\n     * Calculate the OSHI gain earned by a deposit since its last snapshots were taken.\n     * Given by the formula:  OSHI = d0 * (G - G(0))/P(0)\n     * where G(0) and P(0) are the depositor's snapshots of the sum G and product P, respectively.\n     * d0 is the last recorded deposit value.\n     */\n    function claimableReward(address _depositor) external view returns (uint256) {\n        AppStorage.Layout storage s = AppStorage.layout();\n        uint256 totalDebt = s.totalDebtTokenDeposits;\n        uint256 initialDeposit = s.accountDeposits[_depositor].amount;\n\n        if (totalDebt == 0 || initialDeposit == 0) {\n            return s.storedPendingReward[_depositor] + _claimableReward(s, _depositor);\n        }\n\n        Snapshots memory snapshots = s.depositSnapshots[_depositor];\n        uint128 epochSnapshot = snapshots.epoch;\n        uint128 scaleSnapshot = snapshots.scale;\n        uint256 oshiNumerator = (s._OSHIIssuance() * SatoshiMath.DECIMAL_PRECISION) + s.lastOSHIError;\n        uint256 oshiPerUnitStaked = oshiNumerator / totalDebt;\n        uint256 marginalOSHIGain = (epochSnapshot == s.currentEpoch) ? oshiPerUnitStaked * s.P : 0;\n        uint256 firstPortion;\n        uint256 secondPortion;\n\n        if (scaleSnapshot == s.currentScale) {\n            firstPortion = s.epochToScaleToG[epochSnapshot][scaleSnapshot] - snapshots.G + marginalOSHIGain;\n            secondPortion = s.epochToScaleToG[epochSnapshot][scaleSnapshot + 1] / Config.SCALE_FACTOR;\n        } else {\n            firstPortion = s.epochToScaleToG[epochSnapshot][scaleSnapshot] - snapshots.G;\n            secondPortion =\n                (s.epochToScaleToG[epochSnapshot][scaleSnapshot + 1] + marginalOSHIGain) / Config.SCALE_FACTOR;\n        }\n\n        return s.storedPendingReward[_depositor] + (initialDeposit * (firstPortion + secondPortion)) / snapshots.P\n            / SatoshiMath.DECIMAL_PRECISION;\n    }\n\n    function _claimableReward(AppStorage.Layout storage s, address _depositor) private view returns (uint256) {\n        uint256 initialDeposit = s.accountDeposits[_depositor].amount;\n        if (initialDeposit == 0) {\n            return 0;\n        }\n\n        Snapshots memory snapshots = s.depositSnapshots[_depositor];\n\n        return s._getOSHIGainFromSnapshots(initialDeposit, snapshots);\n    }\n\n    // --- Compounded deposit ---\n\n    /*\n     * Return the user's compounded deposit. Given by the formula:  d = d0 * P/P(0)\n     * where P(0) is the depositor's snapshot of the product P, taken when they last updated their deposit.\n     */\n    function getCompoundedDebtDeposit(address _depositor) external view returns (uint256) {\n        AppStorage.Layout storage s = AppStorage.layout();\n        return s._getCompoundedDebtDeposit(_depositor);\n    }\n\n    // --- Sender functions for Debt deposit, collateral gains and Satoshi gains ---\n    function claimCollateralGains(address recipient, uint256[] calldata collateralIndexes) external virtual {\n        AppStorage.Layout storage s = AppStorage.layout();\n        uint256 compoundedDebtDeposit = s._getCompoundedDebtDeposit(msg.sender);\n        uint128 depositTimestamp = s.accountDeposits[msg.sender].timestamp;\n        _accrueDepositorCollateralGain(s, msg.sender);\n\n        uint256 loopEnd = collateralIndexes.length;\n        uint256[] memory collateralGains = new uint256[](s.collateralTokens.length);\n\n        uint80[256] storage depositorGains = s.collateralGainsByDepositor[msg.sender];\n        for (uint256 i; i < loopEnd;) {\n            uint256 collateralIndex = collateralIndexes[i];\n            uint256 gains = depositorGains[collateralIndex];\n            if (gains > 0) {\n                collateralGains[collateralIndex] = gains;\n                depositorGains[collateralIndex] = 0;\n                s.collateralTokens[collateralIndex].safeTransfer(recipient, gains);\n            }\n            unchecked {\n                ++i;\n            }\n        }\n        s.accountDeposits[msg.sender] =\n            AccountDeposit({ amount: uint128(compoundedDebtDeposit), timestamp: depositTimestamp });\n        _updateSnapshots(s, msg.sender, compoundedDebtDeposit);\n        emit CollateralGainWithdrawn(msg.sender, collateralGains);\n    }\n\n    // --- Stability Pool Deposit Functionality ---\n\n    function _updateSnapshots(AppStorage.Layout storage s, address _depositor, uint256 _newValue) internal {\n        uint256 length;\n        if (_newValue == 0) {\n            delete s.depositSnapshots[_depositor];\n\n            length = s.collateralTokens.length;\n            for (uint256 i = 0; i < length; i++) {\n                s.depositSums[_depositor][i] = 0;\n            }\n            emit DepositSnapshotUpdated(_depositor, 0, 0);\n            return;\n        }\n        uint128 currentScaleCached = s.currentScale;\n        uint128 currentEpochCached = s.currentEpoch;\n        uint256 currentP = s.P;\n\n        // Get S and G for the current epoch and current scale\n        uint256[256] storage currentS = s.epochToScaleToSums[currentEpochCached][currentScaleCached];\n        uint256 currentG = s.epochToScaleToG[currentEpochCached][currentScaleCached];\n\n        // Record new snapshots of the latest running product P, sum S, and sum G, for the depositor\n        s.depositSnapshots[_depositor].P = currentP;\n        s.depositSnapshots[_depositor].G = currentG;\n        s.depositSnapshots[_depositor].scale = currentScaleCached;\n        s.depositSnapshots[_depositor].epoch = currentEpochCached;\n\n        length = s.collateralTokens.length;\n        for (uint256 i = 0; i < length; i++) {\n            s.depositSums[_depositor][i] = currentS[i];\n        }\n\n        emit DepositSnapshotUpdated(_depositor, currentP, currentG);\n    }\n\n    // --- Reward ---\n    function _accrueRewards(AppStorage.Layout storage s, address _depositor) internal {\n        uint256 amount = _claimableReward(s, _depositor);\n        s.storedPendingReward[_depositor] += amount;\n    }\n\n    function claimReward(address recipient) external returns (uint256 amount) {\n        AppStorage.Layout storage s = AppStorage.layout();\n        require(s._isClaimStart(), \"StabilityPool: Claim not started\");\n        amount = _claimReward(s, msg.sender);\n\n        if (amount > 0) {\n            s.communityIssuance.transferAllocatedTokens(recipient, amount);\n        }\n        emit RewardClaimed(msg.sender, recipient, amount);\n        return amount;\n    }\n\n    function _claimReward(AppStorage.Layout storage s, address account) internal returns (uint256 amount) {\n        uint256 initialDeposit = s.accountDeposits[account].amount;\n\n        if (initialDeposit > 0) {\n            uint128 depositTimestamp = s.accountDeposits[account].timestamp;\n            s._triggerOSHIIssuance();\n            bool hasGains = _accrueDepositorCollateralGain(s, account);\n\n            uint256 compoundedDebtDeposit = s._getCompoundedDebtDeposit(account);\n            uint256 debtLoss = initialDeposit - compoundedDebtDeposit;\n\n            amount = _claimableReward(s, account);\n            // we update only if the snapshot has changed\n            if (debtLoss > 0 || hasGains || amount > 0) {\n                // Update deposit\n                s.accountDeposits[account] =\n                    AccountDeposit({ amount: uint128(compoundedDebtDeposit), timestamp: depositTimestamp });\n                _updateSnapshots(s, account, compoundedDebtDeposit);\n            }\n        }\n        uint256 pending = s.storedPendingReward[account];\n        if (pending > 0) {\n            amount += pending;\n            s.storedPendingReward[account] = 0;\n        }\n        return amount;\n    }\n\n    // set the time when the OSHI claim starts\n    function setClaimStartTime(uint32 _claimStartTime) external onlyRole(Config.OWNER_ROLE) {\n        AppStorage.Layout storage s = AppStorage.layout();\n        s.claimStartTime = _claimStartTime;\n        emit ClaimStartTimeSet(_claimStartTime);\n    }\n\n    // check the start time\n    function isClaimStart() external view returns (bool) {\n        AppStorage.Layout storage s = AppStorage.layout();\n        return s._isClaimStart();\n    }\n\n    function accountDeposits(address _depositor) external view returns (uint128 amount, uint128 timestamp) {\n        AppStorage.Layout storage s = AppStorage.layout();\n        amount = s.accountDeposits[_depositor].amount;\n        timestamp = s.accountDeposits[_depositor].timestamp;\n    }\n\n    function collateralGainsByDepositor(address depositor, uint256 index) external view returns (uint80 gains) {\n        AppStorage.Layout storage s = AppStorage.layout();\n        gains = s.collateralGainsByDepositor[depositor][index];\n    }\n\n    function collateralTokens(uint256 index) external view returns (IERC20) {\n        AppStorage.Layout storage s = AppStorage.layout();\n        return s.collateralTokens[index];\n    }\n\n    function currentEpoch() external view returns (uint128) {\n        AppStorage.Layout storage s = AppStorage.layout();\n        return s.currentEpoch;\n    }\n\n    function currentScale() external view returns (uint128) {\n        AppStorage.Layout storage s = AppStorage.layout();\n        return s.currentScale;\n    }\n\n    function depositSnapshots(address depositor)\n        external\n        view\n        returns (uint256 _P, uint256 _G, uint128 scale, uint128 epoch)\n    {\n        AppStorage.Layout storage s = AppStorage.layout();\n        Snapshots memory snapshots = s.depositSnapshots[depositor];\n        _P = snapshots.P;\n        _G = snapshots.G;\n        scale = snapshots.scale;\n        epoch = snapshots.epoch;\n    }\n\n    function depositSums(address depositor, uint256 index) external view returns (uint256) {\n        AppStorage.Layout storage s = AppStorage.layout();\n        return s.depositSums[depositor][index];\n    }\n\n    function epochToScaleToG(uint128 epoch, uint128 scale) external view returns (uint256) {\n        AppStorage.Layout storage s = AppStorage.layout();\n        return s.epochToScaleToG[epoch][scale];\n    }\n\n    function epochToScaleToSums(uint128 epoch, uint128 scale, uint256 index) external view returns (uint256) {\n        AppStorage.Layout storage s = AppStorage.layout();\n        return s.epochToScaleToSums[epoch][scale][index];\n    }\n\n    function indexByCollateral(IERC20 collateral) external view returns (uint256 index) {\n        AppStorage.Layout storage s = AppStorage.layout();\n        return s.indexByCollateral[collateral];\n    }\n\n    function rewardRate() external view returns (uint128) {\n        AppStorage.Layout storage s = AppStorage.layout();\n        return s.spRewardRate;\n    }\n\n    function P() external view returns (uint256) {\n        AppStorage.Layout storage s = AppStorage.layout();\n        return s.P;\n    }\n\n    function setRewardRate(uint128 _newRewardRate) external onlyRole(Config.OWNER_ROLE) {\n        AppStorage.Layout storage s = AppStorage.layout();\n\n        require(_newRewardRate <= Config.SP_MAX_REWARD_RATE, \"StabilityPool: Reward rate too high\");\n        s._triggerOSHIIssuance();\n        s.spRewardRate = _newRewardRate;\n        emit RewardRateUpdated(_newRewardRate);\n    }\n}\n",
  "sourcePath": "/Users/ashley/Documents/satoshi/satoshi-v2/src/core/facets/StabilityPoolFacet.sol",
  "compiler": {
    "name": "solc",
    "version": "0.8.22+commit.5ed3e10f.Emscripten.clang"
  },
  "schemaVersion": "2.0.1",
  "updatedAt": "2026-04-14T07:11:27.756Z"
}