{
  "contractName": "SwapRouter",
  "abi": [
    {
      "inputs": [
        {
          "internalType": "address",
          "name": "target",
          "type": "address"
        }
      ],
      "name": "AddressEmptyCode",
      "type": "error"
    },
    {
      "inputs": [
        {
          "internalType": "address",
          "name": "implementation",
          "type": "address"
        }
      ],
      "name": "ERC1967InvalidImplementation",
      "type": "error"
    },
    {
      "inputs": [],
      "name": "ERC1967NonPayable",
      "type": "error"
    },
    {
      "inputs": [],
      "name": "FailedCall",
      "type": "error"
    },
    {
      "inputs": [],
      "name": "InvalidInitialization",
      "type": "error"
    },
    {
      "inputs": [],
      "name": "InvalidZeroAddress",
      "type": "error"
    },
    {
      "inputs": [],
      "name": "NotInitializing",
      "type": "error"
    },
    {
      "inputs": [
        {
          "internalType": "address",
          "name": "owner",
          "type": "address"
        }
      ],
      "name": "OwnableInvalidOwner",
      "type": "error"
    },
    {
      "inputs": [
        {
          "internalType": "address",
          "name": "account",
          "type": "address"
        }
      ],
      "name": "OwnableUnauthorizedAccount",
      "type": "error"
    },
    {
      "inputs": [
        {
          "internalType": "address",
          "name": "token",
          "type": "address"
        }
      ],
      "name": "SafeERC20FailedOperation",
      "type": "error"
    },
    {
      "inputs": [],
      "name": "UUPSUnauthorizedCallContext",
      "type": "error"
    },
    {
      "inputs": [
        {
          "internalType": "bytes32",
          "name": "slot",
          "type": "bytes32"
        }
      ],
      "name": "UUPSUnsupportedProxiableUUID",
      "type": "error"
    },
    {
      "anonymous": false,
      "inputs": [
        {
          "indexed": false,
          "internalType": "uint64",
          "name": "version",
          "type": "uint64"
        }
      ],
      "name": "Initialized",
      "type": "event"
    },
    {
      "anonymous": false,
      "inputs": [
        {
          "indexed": true,
          "internalType": "address",
          "name": "previousOwner",
          "type": "address"
        },
        {
          "indexed": true,
          "internalType": "address",
          "name": "newOwner",
          "type": "address"
        }
      ],
      "name": "OwnershipTransferred",
      "type": "event"
    },
    {
      "anonymous": false,
      "inputs": [
        {
          "indexed": true,
          "internalType": "address",
          "name": "user",
          "type": "address"
        },
        {
          "indexed": true,
          "internalType": "address",
          "name": "receiver",
          "type": "address"
        },
        {
          "indexed": true,
          "internalType": "address",
          "name": "asset",
          "type": "address"
        },
        {
          "indexed": false,
          "internalType": "uint256",
          "name": "assetAmount",
          "type": "uint256"
        },
        {
          "indexed": false,
          "internalType": "uint256",
          "name": "debtAmount",
          "type": "uint256"
        },
        {
          "components": [
            {
              "internalType": "uint32",
              "name": "dstEid",
              "type": "uint32"
            },
            {
              "internalType": "bytes",
              "name": "extraOptions",
              "type": "bytes"
            },
            {
              "components": [
                {
                  "internalType": "uint256",
                  "name": "nativeFee",
                  "type": "uint256"
                },
                {
                  "internalType": "uint256",
                  "name": "lzTokenFee",
                  "type": "uint256"
                }
              ],
              "internalType": "struct MessagingFee",
              "name": "fee",
              "type": "tuple"
            }
          ],
          "indexed": false,
          "internalType": "struct LzSendParam",
          "name": "lzSendParam",
          "type": "tuple"
        }
      ],
      "name": "SwapInCrossChain",
      "type": "event"
    },
    {
      "anonymous": false,
      "inputs": [
        {
          "indexed": true,
          "internalType": "address",
          "name": "implementation",
          "type": "address"
        }
      ],
      "name": "Upgraded",
      "type": "event"
    },
    {
      "inputs": [],
      "name": "UPGRADE_INTERFACE_VERSION",
      "outputs": [
        {
          "internalType": "string",
          "name": "",
          "type": "string"
        }
      ],
      "stateMutability": "view",
      "type": "function"
    },
    {
      "inputs": [],
      "name": "debtToken",
      "outputs": [
        {
          "internalType": "contract DebtTokenWithLz",
          "name": "",
          "type": "address"
        }
      ],
      "stateMutability": "view",
      "type": "function"
    },
    {
      "inputs": [
        {
          "internalType": "contract IDebtToken",
          "name": "_debtToken",
          "type": "address"
        },
        {
          "internalType": "address",
          "name": "_xApp",
          "type": "address"
        },
        {
          "internalType": "address",
          "name": "_owner",
          "type": "address"
        }
      ],
      "name": "initialize",
      "outputs": [],
      "stateMutability": "nonpayable",
      "type": "function"
    },
    {
      "inputs": [],
      "name": "owner",
      "outputs": [
        {
          "internalType": "address",
          "name": "",
          "type": "address"
        }
      ],
      "stateMutability": "view",
      "type": "function"
    },
    {
      "inputs": [],
      "name": "proxiableUUID",
      "outputs": [
        {
          "internalType": "bytes32",
          "name": "",
          "type": "bytes32"
        }
      ],
      "stateMutability": "view",
      "type": "function"
    },
    {
      "inputs": [],
      "name": "renounceOwnership",
      "outputs": [],
      "stateMutability": "nonpayable",
      "type": "function"
    },
    {
      "inputs": [
        {
          "internalType": "address",
          "name": "asset",
          "type": "address"
        },
        {
          "internalType": "uint256",
          "name": "assetAmount",
          "type": "uint256"
        },
        {
          "internalType": "address",
          "name": "receiver",
          "type": "address"
        },
        {
          "components": [
            {
              "internalType": "uint32",
              "name": "dstEid",
              "type": "uint32"
            },
            {
              "internalType": "bytes",
              "name": "extraOptions",
              "type": "bytes"
            },
            {
              "components": [
                {
                  "internalType": "uint256",
                  "name": "nativeFee",
                  "type": "uint256"
                },
                {
                  "internalType": "uint256",
                  "name": "lzTokenFee",
                  "type": "uint256"
                }
              ],
              "internalType": "struct MessagingFee",
              "name": "fee",
              "type": "tuple"
            }
          ],
          "internalType": "struct LzSendParam",
          "name": "_lzSendParam",
          "type": "tuple"
        }
      ],
      "name": "swapInCrossChain",
      "outputs": [],
      "stateMutability": "payable",
      "type": "function"
    },
    {
      "inputs": [
        {
          "internalType": "address",
          "name": "newOwner",
          "type": "address"
        }
      ],
      "name": "transferOwnership",
      "outputs": [],
      "stateMutability": "nonpayable",
      "type": "function"
    },
    {
      "inputs": [
        {
          "internalType": "address",
          "name": "newImplementation",
          "type": "address"
        },
        {
          "internalType": "bytes",
          "name": "data",
          "type": "bytes"
        }
      ],
      "name": "upgradeToAndCall",
      "outputs": [],
      "stateMutability": "payable",
      "type": "function"
    },
    {
      "inputs": [],
      "name": "xApp",
      "outputs": [
        {
          "internalType": "address",
          "name": "",
          "type": "address"
        }
      ],
      "stateMutability": "view",
      "type": "function"
    },
    {
      "stateMutability": "payable",
      "type": "receive"
    }
  ],
  "bytecode": "0x60a06040523060805234801561001457600080fd5b50d3801561002157600080fd5b50d2801561002e57600080fd5b50608051611906610058600039600081816107580152818161078101526108c701526119066000f3fe6080604052600436106100955760003560e01c80638da5cb5b116100595780638da5cb5b1461018c578063ad3cb1cc146101e3578063c0c53b8b1461023b578063f2fde38b14610275578063f8d89898146102af57600080fd5b8063477d104c146100a15780634f1ef286146100f857806352d1902d1461010d578063715018a61461014a578063770da4421461017957600080fd5b3661009c57005b600080fd5b3480156100ad57600080fd5b50d380156100ba57600080fd5b50d280156100c757600080fd5b506001546100db906001600160a01b031681565b6040516001600160a01b0390911681526020015b60405180910390f35b61010b610106366004611312565b6102e9565b005b34801561011957600080fd5b50d3801561012657600080fd5b50d2801561013357600080fd5b5061013c610308565b6040519081526020016100ef565b34801561015657600080fd5b50d3801561016357600080fd5b50d2801561017057600080fd5b5061010b610325565b61010b6101873660046113c3565b610339565b34801561019857600080fd5b50d380156101a557600080fd5b50d280156101b257600080fd5b507f9016d09d72d40fdae2fd8ceac6b6234c7706214fd39c1cd1e609a0528c199300546001600160a01b03166100db565b3480156101ef57600080fd5b50d380156101fc57600080fd5b50d2801561020957600080fd5b5061022e604051806040016040528060058152602001640352e302e360dc1b81525081565b6040516100ef9190611491565b34801561024757600080fd5b50d3801561025457600080fd5b50d2801561026157600080fd5b5061010b6102703660046114a4565b610577565b34801561028157600080fd5b50d3801561028e57600080fd5b50d2801561029b57600080fd5b5061010b6102aa366004611502565b61070f565b3480156102bb57600080fd5b50d380156102c857600080fd5b50d280156102d557600080fd5b506000546100db906001600160a01b031681565b6102f161074d565b6102fa826107f2565b61030482826107fa565b5050565b60006103126108bc565b506000805160206118b183398151915290565b61032d610905565b6103376000610960565b565b61034384846109d1565b600080546040516370a0823160e01b81523060048201526001600160a01b03909116906370a0823190602401602060405180830381865afa15801561038c573d6000803e3d6000fd5b505050506040513d601f19601f820116820180604052508101906103b0919061152f565b600154604051637bc6c40760e11b81526001600160a01b038881166004830152306024830152604482018890529293506000929091169063f78d880e906064016020604051808303816000875af115801561040f573d6000803e3d6000fd5b505050506040513d601f19601f82011682018060405250810190610433919061152f565b600080546040516370a0823160e01b815230600482015292935090916001600160a01b03909116906370a0823190602401602060405180830381865afa158015610481573d6000803e3d6000fd5b505050506040513d601f19601f820116820180604052508101906104a5919061152f565b905060006104b3848361155e565b90508281146105095760405162461bcd60e51b815260206004820181905260248201527f53776170526f757465723a204465627420616d6f756e74206d69736d6174636860448201526064015b60405180910390fd5b610514838787610a0c565b876001600160a01b0316866001600160a01b0316336001600160a01b03167fca0f67a6fa70a46a4e5b00ff578e07a353ab12a6eec80ad919b2f4564c52003f8a878a6040516105659392919061158a565b60405180910390a45050505050505050565b7ff0c57e16840df040f15088dc2f81fe391c3923bec73e23a9662efc9c229c6a008054600160401b810460ff16159067ffffffffffffffff166000811580156105bd5750825b905060008267ffffffffffffffff1660011480156105da5750303b155b9050811580156105e8575080155b156106065760405163f92ee8a960e01b815260040160405180910390fd5b845467ffffffffffffffff19166001178555831561063057845460ff60401b1916600160401b1785555b6001600160a01b0388166106575760405163f6b2911f60e01b815260040160405180910390fd5b6001600160a01b03871661067e5760405163f6b2911f60e01b815260040160405180910390fd5b600080546001600160a01b03808b166001600160a01b03199283161790925560018054928a16929091169190911790556106b786610dfa565b6106bf610e0b565b831561070557845460ff60401b19168555604051600181527fc7f505b2f371ae2175ee4913f4499e1f2633a7b5936321eed1cdaeb6115181d29060200160405180910390a15b5050505050505050565b610717610905565b6001600160a01b03811661074157604051631e4fbdf760e01b815260006004820152602401610500565b61074a81610960565b50565b306001600160a01b037f00000000000000000000000000000000000000000000000000000000000000001614806107d457507f00000000000000000000000000000000000000000000000000000000000000006001600160a01b03166107c86000805160206118b1833981519152546001600160a01b031690565b6001600160a01b031614155b156103375760405163703e46dd60e11b815260040160405180910390fd5b61074a610905565b816001600160a01b03166352d1902d6040518163ffffffff1660e01b8152600401602060405180830381865afa925050508015610854575060408051601f3d908101601f191682019092526108519181019061152f565b60015b61087c57604051634c9c8ce360e01b81526001600160a01b0383166004820152602401610500565b6000805160206118b183398151915281146108ad57604051632a87526960e21b815260048101829052602401610500565b6108b78383610e13565b505050565b306001600160a01b037f000000000000000000000000000000000000000000000000000000000000000016146103375760405163703e46dd60e11b815260040160405180910390fd5b336109377f9016d09d72d40fdae2fd8ceac6b6234c7706214fd39c1cd1e609a0528c199300546001600160a01b031690565b6001600160a01b0316146103375760405163118cdaa760e01b8152336004820152602401610500565b7f9016d09d72d40fdae2fd8ceac6b6234c7706214fd39c1cd1e609a0528c19930080546001600160a01b031981166001600160a01b03848116918217845560405192169182907f8be0079c531659141344cd1fd0a4f28419497f9722a3daafe3b4186f6b6457e090600090a3505050565b806000036109dd575050565b6109f26001600160a01b038316333084610e69565b600154610304906001600160a01b03848116911683610ed6565b82600003610a1957505050565b610a26602082018261163a565b63ffffffff16600003610a4a576000546108b7906001600160a01b03168385610f60565b6000546001600160a01b031663bb0b6a53610a68602084018461163a565b6040516001600160e01b031960e084901b16815263ffffffff919091166004820152602401602060405180830381865afa158015610aaa573d6000803e3d6000fd5b505050506040513d601f19601f82011682018060405250810190610ace919061152f565b600003610aec576000546108b7906001600160a01b03163385610f60565b6040805160e0810190915260009080610b08602085018561163a565b63ffffffff168152602001846001600160a01b031660001b815260200185815260200160008152602001838060200190610b429190611655565b8080601f016020809104026020016040519081016040528093929190818152602001838380828437600092018290525093855250506040805160208181018352848252808601919091528151908101825292835290920152509050606082013515610bfb5760405162461bcd60e51b8152602060048201526024808201527f53776170526f757465723a206c7a546f6b656e466565206e6f7420737570706f6044820152631c9d195960e21b6064820152608401610500565b34604083013514610c4e5760405162461bcd60e51b815260206004820152601e60248201527f53776170526f757465723a206e6174697665466565206e6f742073656e7400006044820152606401610500565b60008054604051633b6f743b60e01b81526001600160a01b0390911690633b6f743b90610c879085906060880135151590600401611719565b6040805180830381865afa158015610ca3573d6000803e3d6000fd5b505050506040513d601f19601f82011682018060405250810190610cc7919061178c565b8051909150604084013514610d1e5760405162461bcd60e51b815260206004820152601f60248201527f53776170526f757465723a206e617469766546656520696e636f7272656374006044820152606401610500565b6020810151606084013514610d755760405162461bcd60e51b815260206004820181905260248201527f53776170526f757465723a206c7a546f6b656e46656520696e636f72726563746044820152606401610500565b6000546040805163c7c7f5b360e01b81526001600160a01b039092169163c7c7f5b3913491610dae9187919089019033906004016117a8565b60c06040518083038185885af1158015610dcc573d6000803e3d6000fd5b50505050506040513d601f19601f82011682018060405250810190610df191906117ed565b50505050505050565b610e02610f91565b61074a81610fda565b610337610f91565b610e1c82610fe2565b6040516001600160a01b038316907fbc7cd75a20ee27fd9adebab32041f755214dbc6bffa90cc0225b39da2e5c2d3b90600090a2805115610e61576108b78282611047565b6103046110bf565b6040516001600160a01b038481166024830152838116604483015260648201839052610ed09186918216906323b872dd906084015b604051602081830303815290604052915060e01b6020820180516001600160e01b0383818316178352505050506110de565b50505050565b604051636eb1769f60e11b81523060048201526001600160a01b0383811660248301526000919085169063dd62ed3e90604401602060405180830381865afa158015610f26573d6000803e3d6000fd5b505050506040513d601f19601f82011682018060405250810190610f4a919061152f565b9050610ed08484610f5b8585611881565b61114f565b6040516001600160a01b038381166024830152604482018390526108b791859182169063a9059cbb90606401610e9e565b7ff0c57e16840df040f15088dc2f81fe391c3923bec73e23a9662efc9c229c6a0054600160401b900460ff1661033757604051631afcd79f60e31b815260040160405180910390fd5b610717610f91565b806001600160a01b03163b60000361101857604051634c9c8ce360e01b81526001600160a01b0382166004820152602401610500565b6000805160206118b183398151915280546001600160a01b0319166001600160a01b0392909216919091179055565b6060600080846001600160a01b0316846040516110649190611894565b600060405180830381855af49150503d806000811461109f576040519150601f19603f3d011682016040523d82523d6000602084013e6110a4565b606091505b50915091506110b48583836111df565b925050505b92915050565b34156103375760405163b398979f60e01b815260040160405180910390fd5b600080602060008451602086016000885af180611101576040513d6000823e3d81fd5b50506000513d91508115611119578060011415611126565b6001600160a01b0384163b155b15610ed057604051635274afe760e01b81526001600160a01b0385166004820152602401610500565b604080516001600160a01b038416602482015260448082018490528251808303909101815260649091019091526020810180516001600160e01b031663095ea7b360e01b1790526111a0848261123e565b610ed0576040516001600160a01b038481166024830152600060448301526111d591869182169063095ea7b390606401610e9e565b610ed084826110de565b6060826111f4576111ef8261128d565b611237565b815115801561120b57506001600160a01b0384163b155b1561123457604051639996b31560e01b81526001600160a01b0385166004820152602401610500565b50805b9392505050565b6000806000806020600086516020880160008a5af192503d91506000519050828015611283575081156112745780600114611283565b6000866001600160a01b03163b115b9695505050505050565b80511561129d5780518082602001fd5b60405163d6bda27560e01b815260040160405180910390fd5b6001600160a81b038116811461074a57600080fd5b634e487b7160e01b600052604160045260246000fd5b604051601f8201601f1916810167ffffffffffffffff8111828210171561130a5761130a6112cb565b604052919050565b6000806040838503121561132557600080fd5b8235611330816112b6565b6001600160a01b0316915060208381013567ffffffffffffffff8082111561135757600080fd5b818601915086601f83011261136b57600080fd5b81358181111561137d5761137d6112cb565b61138f601f8201601f191685016112e1565b915080825287848285010111156113a557600080fd5b80848401858401376000848284010152508093505050509250929050565b600080600080608085870312156113d957600080fd5b84356113e4816112b6565b6001600160a01b03908116945060208601359350604086013590611407826112b6565b169150606085013567ffffffffffffffff81111561142457600080fd5b85016080818803121561143657600080fd5b939692955090935050565b60005b8381101561145c578181015183820152602001611444565b50506000910152565b6000815180845261147d816020860160208601611441565b601f01601f19169290920160200192915050565b6020815260006112376020830184611465565b6000806000606084860312156114b957600080fd5b83356114c4816112b6565b6001600160a01b0390811693506020850135906114e0826112b6565b90811692506040850135906114f4826112b6565b808216925050509250925092565b60006020828403121561151457600080fd5b813561151f816112b6565b6001600160a01b03169392505050565b60006020828403121561154157600080fd5b5051919050565b634e487b7160e01b600052601160045260246000fd5b818103818111156110b9576110b9611548565b803563ffffffff8116811461158557600080fd5b919050565b8381528260208201526060604082015263ffffffff6115a883611571565b16606082015260006020830135601e198436030181126115c757600080fd5b830160208101903567ffffffffffffffff8111156115e457600080fd5b8036038213156115f357600080fd5b6080808501528060e08501526101008183828701376000828601820152604086013560a086015260609095013560c0850152601f01601f1916909201909201949350505050565b60006020828403121561164c57600080fd5b61123782611571565b6000808335601e1984360301811261166c57600080fd5b83018035915067ffffffffffffffff82111561168757600080fd5b60200191503681900382131561169c57600080fd5b9250929050565b63ffffffff81511682526020810151602083015260408101516040830152606081015160608301526000608082015160e060808501526116e660e0850182611465565b905060a083015184820360a08601526116ff8282611465565b91505060c083015184820360c08601526110b48282611465565b60408152600061172c60408301856116a3565b905082151560208301529392505050565b60006040828403121561174f57600080fd5b6040516040810181811067ffffffffffffffff82111715611772576117726112cb565b604052825181526020928301519281019290925250919050565b60006040828403121561179e57600080fd5b611237838361173d565b6080815260006117bb60808301866116a3565b90506117d4602083018580358252602090810135910152565b6001600160a01b03929092166060919091015292915050565b60008082840360c081121561180157600080fd5b608081121561180f57600080fd5b506040516060810167ffffffffffffffff8282108183111715611834576118346112cb565b816040528551835260208601519150808216821461185157600080fd5b506020820152611864856040860161173d565b60408201529150611878846080850161173d565b90509250929050565b808201808211156110b9576110b9611548565b600082516118a6818460208701611441565b919091019291505056fe360894a13ba1a3210667c828492db98dca3e2076cc3735a920a3ca505d382bbca26474726f6e582212201a8539956d5231e530cb22e8b98ec32a52bc00ee827743989a830c34c4d84f0364736f6c63430008160033",
  "source": "// SPDX-License-Identifier: MIT\npragma solidity ^0.8.20;\n\nimport { SafeERC20 } from \"@openzeppelin/contracts/token/ERC20/utils/SafeERC20.sol\";\n\nimport { Config } from \"../Config.sol\";\nimport { DebtTokenWithLz } from \"../DebtTokenWithLz.sol\";\nimport { INexusYieldManagerFacet } from \"../interfaces/INexusYieldManagerFacet.sol\";\n\nimport { IDebtToken } from \"../interfaces/IDebtToken.sol\";\nimport { ISwapRouter, LzSendParam } from \"./interfaces/ISwapRouter.sol\";\nimport {\n    IOFT,\n    MessagingFee,\n    MessagingReceipt,\n    OFTFeeDetail,\n    OFTLimit,\n    OFTReceipt,\n    SendParam\n} from \"@layerzerolabs/oft-evm/contracts/interfaces/IOFT.sol\";\nimport { OwnableUpgradeable } from \"@openzeppelin/contracts-upgradeable/access/OwnableUpgradeable.sol\";\nimport { UUPSUpgradeable } from \"@openzeppelin/contracts-upgradeable/proxy/utils/UUPSUpgradeable.sol\";\nimport { IERC20 } from \"@openzeppelin/contracts/token/ERC20/IERC20.sol\";\n\n/**\n * @title Satoshi Swap Router\n */\ncontract SwapRouter is ISwapRouter, UUPSUpgradeable, OwnableUpgradeable {\n    using SafeERC20 for IERC20;\n    using SafeERC20 for DebtTokenWithLz;\n\n    DebtTokenWithLz public debtToken;\n    address public xApp;\n\n    function initialize(IDebtToken _debtToken, address _xApp, address _owner) external initializer {\n        if (address(_debtToken) == address(0)) revert InvalidZeroAddress();\n        if (_xApp == address(0)) revert InvalidZeroAddress();\n\n        debtToken = DebtTokenWithLz(address(_debtToken));\n        xApp = _xApp;\n\n        __Ownable_init(_owner);\n        __UUPSUpgradeable_init_unchained();\n    }\n\n    receive() external payable {\n        // to receive native token\n    }\n\n    // EXTERNAL FUNCTIONS //\n\n    function swapInCrossChain(\n        address asset,\n        uint256 assetAmount,\n        address receiver,\n        LzSendParam calldata _lzSendParam\n    )\n        external\n        payable\n    {\n        _beforeAddAsset(IERC20(asset), assetAmount);\n        uint256 debtTokenBalanceBefore = debtToken.balanceOf(address(this));\n\n        uint256 debtAmount = INexusYieldManagerFacet(xApp).swapIn(asset, address(this), assetAmount);\n\n        uint256 debtTokenBalanceAfter = debtToken.balanceOf(address(this));\n        uint256 userDebtAmount = debtTokenBalanceAfter - debtTokenBalanceBefore;\n        require(userDebtAmount == debtAmount, \"SwapRouter: Debt amount mismatch\");\n\n        _sendDebt(debtAmount, receiver, _lzSendParam);\n\n        emit SwapInCrossChain(msg.sender, receiver, asset, assetAmount, debtAmount, _lzSendParam);\n    }\n\n    // INTERNAL FUNCTIONS //\n\n    /// @dev Only support ERC20 token, not support native token\n    function _beforeAddAsset(IERC20 token, uint256 amount) private {\n        if (amount == 0) return;\n\n        token.safeTransferFrom(msg.sender, address(this), amount);\n        token.safeIncreaseAllowance(xApp, amount);\n    }\n\n    /// @notice Withdraw the debt token to the receiver\n    /// @dev Need used in the payable functions\n    /// @dev Transfer the debt token in current chain if dstEid is 0\n    /// @dev Only debt token need to provide lzSendParam, and support native token as lz fee\n    function _sendDebt(uint256 debtAmount, address receiver, LzSendParam calldata lzSendParam) private {\n        if (debtAmount == 0) return;\n\n        if (lzSendParam.dstEid == 0) {\n            // In current chain\n            debtToken.safeTransfer(receiver, debtAmount);\n        } else if (debtToken.peers(lzSendParam.dstEid) == 0) {\n            // If the dstEid is not supported, just transfer the debt token to the msg sender\n            debtToken.safeTransfer(msg.sender, debtAmount);\n        } else {\n            // Step 1: Prepare the SendParam\n            SendParam memory _sendParam = SendParam(\n                lzSendParam.dstEid,\n                bytes32(uint256(uint160(receiver))),\n                debtAmount,\n                0, /* minAmountLD */\n                lzSendParam.extraOptions,\n                \"\",\n                \"\"\n            );\n\n            // Step 2: Quote the fee\n            require(lzSendParam.fee.lzTokenFee == 0, \"SwapRouter: lzTokenFee not supported\");\n            require(msg.value == lzSendParam.fee.nativeFee, \"SwapRouter: nativeFee not sent\");\n\n            MessagingFee memory expectFee = debtToken.quoteSend(_sendParam, lzSendParam.fee.lzTokenFee > 0);\n            require(expectFee.nativeFee == lzSendParam.fee.nativeFee, \"SwapRouter: nativeFee incorrect\");\n            require(expectFee.lzTokenFee == lzSendParam.fee.lzTokenFee, \"SwapRouter: lzTokenFee incorrect\");\n\n            // Step 3: Send the Debt tokens to the other chain\n            debtToken.send{ value: msg.value }(_sendParam, lzSendParam.fee, msg.sender);\n        }\n    }\n\n    /// @notice Override the _authorizeUpgrade function inherited from UUPSUpgradeable contract\n    // solhint-disable-next-line no-empty-blocks\n    function _authorizeUpgrade(address newImplementation) internal view override onlyOwner {\n        // No additional authorization logic is needed for this contract\n    }\n}\n",
  "sourcePath": "/Users/ashley/Documents/satoshi/satoshi-v2/src/core/helpers/SwapRouter.sol",
  "compiler": {
    "name": "solc",
    "version": "0.8.22+commit.5ed3e10f.Emscripten.clang"
  },
  "schemaVersion": "2.0.1",
  "updatedAt": "2026-04-14T07:11:27.765Z"
}