{
  "contractName": "TroveManagerGetter",
  "abi": [
    {
      "inputs": [
        {
          "internalType": "address",
          "name": "_satoshiXApp",
          "type": "address"
        }
      ],
      "stateMutability": "nonpayable",
      "type": "constructor"
    },
    {
      "inputs": [
        {
          "internalType": "address",
          "name": "account",
          "type": "address"
        }
      ],
      "name": "getActiveTroveManagersForAccount",
      "outputs": [
        {
          "internalType": "contract ITroveManager[]",
          "name": "",
          "type": "address[]"
        },
        {
          "internalType": "uint256",
          "name": "",
          "type": "uint256"
        }
      ],
      "stateMutability": "view",
      "type": "function"
    },
    {
      "inputs": [],
      "name": "getAllCollateralsAndTroveManagers",
      "outputs": [
        {
          "components": [
            {
              "internalType": "address",
              "name": "collateral",
              "type": "address"
            },
            {
              "internalType": "address[]",
              "name": "troveManagers",
              "type": "address[]"
            }
          ],
          "internalType": "struct Collateral[]",
          "name": "",
          "type": "tuple[]"
        }
      ],
      "stateMutability": "view",
      "type": "function"
    },
    {
      "inputs": [],
      "name": "satoshiXApp",
      "outputs": [
        {
          "internalType": "address",
          "name": "",
          "type": "address"
        }
      ],
      "stateMutability": "view",
      "type": "function"
    }
  ],
  "bytecode": "0x60a060405234801561001057600080fd5b50d3801561001d57600080fd5b50d2801561002a57600080fd5b50604051610c03380380610c038339810160408190526100499161005a565b6001600160a01b0316608052610093565b60006020828403121561006c57600080fd5b81516001600160a81b038116811461008357600080fd5b6001600160a01b03169392505050565b608051610b3b6100c86000396000818160830152818160e401528181610229015281816106ea01526107d80152610b3b6000f3fe608060405234801561001057600080fd5b50d3801561001d57600080fd5b50d2801561002a57600080fd5b506004361061005b5760003560e01c8063a8ea80f714610060578063b76b0c081461007e578063d5df056e146100bd575b600080fd5b6100686100de565b6040516100759190610930565b60405180910390f35b6100a57f000000000000000000000000000000000000000000000000000000000000000081565b6040516001600160a01b039091168152602001610075565b6100d06100cb3660046109f9565b6106e3565b604051610075929190610a26565b606060007f00000000000000000000000000000000000000000000000000000000000000006001600160a01b031663679df0d96040518163ffffffff1660e01b8152600401602060405180830381865afa158015610140573d6000803e3d6000fd5b505050506040513d601f19601f820116820180604052508101906101649190610a7c565b905060008167ffffffffffffffff81111561018157610181610a95565b6040519080825280602002602001820160405280156101ba57816020015b6101a7610912565b81526020019060019003908161019f5790505b50905060008267ffffffffffffffff8111156101d8576101d8610a95565b604051908082528060200260200182016040528015610201578160200160208202803683370190505b5090506000805b8481101561041b5760405163076e0e8f60e31b8152600481018290526000907f00000000000000000000000000000000000000000000000000000000000000006001600160a01b031690633b70747890602401602060405180830381865afa158015610278573d6000803e3d6000fd5b505050506040513d601f19601f8201168201806040525081019061029c9190610aab565b90506000816001600160a01b031663b2016bd46040518163ffffffff1660e01b8152600401602060405180830381865afa1580156102de573d6000803e3d6000fd5b505050506040513d601f19601f820116820180604052508101906103029190610aab565b90506040518060400160405280836001600160a01b03166001600160a01b03168152602001826001600160a01b03166001600160a01b031681525086848151811061034f5761034f610ac8565b602002602001018190525060005b8781101561041057816001600160a01b031686828151811061038157610381610ac8565b60200260200101516001600160a01b031603156104105760006001600160a01b03168682815181106103b5576103b5610ac8565b60200260200101516001600160a01b03160361040857818682815181106103de576103de610ac8565b6001600160a01b03909216602092830291909101909101528461040081610ade565b955050610410565b60010161035d565b505050600101610208565b5060008167ffffffffffffffff81111561043757610437610a95565b60405190808252806020026020018201604052801561047d57816020015b6040805180820190915260008152606060208201528152602001906001900390816104555790505b50905060005b828110156106d95783818151811061049d5761049d610ac8565b60200260200101518282815181106104b7576104b7610ac8565b60209081029190910101516001600160a01b0390911690526000808767ffffffffffffffff8111156104eb576104eb610a95565b604051908082528060200260200182016040528015610514578160200160208202803683370190505b50905060005b888110156105f55786848151811061053457610534610ac8565b60200260200101516001600160a01b031688828151811061055757610557610ac8565b602002602001015160016002811061057157610571610ac8565b60200201516001600160a01b0316036105ed5787818151811061059657610596610ac8565b60200260200101516000600281106105b0576105b0610ac8565b60200201518284815181106105c7576105c7610ac8565b6001600160a01b0390921660209283029190910190910152826105e981610ade565b9350505b60010161051a565b508167ffffffffffffffff81111561060f5761060f610a95565b604051908082528060200260200182016040528015610638578160200160208202803683370190505b5084848151811061064b5761064b610ac8565b60200260200101516020018190525060005b828110156106ce5781818151811061067757610677610ac8565b602002602001015185858151811061069157610691610ac8565b60200260200101516020015182815181106106ae576106ae610ac8565b6001600160a01b039092166020928302919091019091015260010161065d565b505050600101610483565b5095945050505050565b60606000807f00000000000000000000000000000000000000000000000000000000000000006001600160a01b031663679df0d96040518163ffffffff1660e01b8152600401602060405180830381865afa158015610746573d6000803e3d6000fd5b505050506040513d601f19601f8201168201806040525081019061076a9190610a7c565b905060008167ffffffffffffffff81111561078757610787610a95565b6040519080825280602002602001820160405280156107b0578160200160208202803683370190505b5090506000805b838110156109035760405163076e0e8f60e31b8152600481018290526000907f00000000000000000000000000000000000000000000000000000000000000006001600160a01b031690633b70747890602401602060405180830381865afa158015610827573d6000803e3d6000fd5b505050506040513d601f19601f8201168201806040525081019061084b9190610aab565b6040516321e3780160e01b81526001600160a01b038a811660048301529192506000918316906321e3780190602401602060405180830381865afa158015610897573d6000803e3d6000fd5b505050506040513d601f19601f820116820180604052508101906108bb9190610a7c565b11156108fa57808484815181106108d4576108d4610ac8565b6001600160a01b0390921660209283029190910190910152826108f681610ade565b9350505b506001016107b7565b50808252909590945092505050565b60405180604001604052806002906020820280368337509192915050565b600060208083018184528085518083526040925060408601915060408160051b8701018488016000805b848110156109d257898403603f19018652825180516001600160a01b039081168652908901518986018990528051898701819052908a0191849160608801905b808410156109bc57845183168252938c019360019390930192908c019061099a565b50988b019896505050928801925060010161095a565b50919998505050505050505050565b6001600160a81b03811681146109f657600080fd5b50565b600060208284031215610a0b57600080fd5b8135610a16816109e1565b6001600160a01b03169392505050565b604080825283519082018190526000906020906060840190828701845b82811015610a685781516001600160a01b031684529284019290840190600101610a43565b505050602093909301939093525092915050565b600060208284031215610a8e57600080fd5b5051919050565b634e487b7160e01b600052604160045260246000fd5b600060208284031215610abd57600080fd5b8151610a16816109e1565b634e487b7160e01b600052603260045260246000fd5b600060018201610afe57634e487b7160e01b600052601160045260246000fd5b506001019056fea26474726f6e58221220c5dc7bebaf6713ce07cd45ebe00a8dbac5c68b12df52cbd7188089148bbc1a6364736f6c63430008160033",
  "source": "// SPDX-License-Identifier: MIT\npragma solidity ^0.8.20;\n\nimport { IFactoryFacet } from \"../interfaces/IFactoryFacet.sol\";\nimport { ITroveManager } from \"../interfaces/ITroveManager.sol\";\n\nimport { Collateral, ITroveManagerGetter } from \"./interfaces/ITroveManagerGetter.sol\";\nimport { IERC20 } from \"@openzeppelin/contracts/token/ERC20/IERC20.sol\";\n\ncontract TroveManagerGetter is ITroveManagerGetter {\n    address public immutable satoshiXApp;\n\n    constructor(address _satoshiXApp) {\n        satoshiXApp = _satoshiXApp;\n    }\n\n    /**\n     * @notice Returns all active system trove managers and collaterals, as an\n     *     `       array of tuples of [(collateral, [troveManager, ...]), ...]\n     */\n    function getAllCollateralsAndTroveManagers() external view returns (Collateral[] memory) {\n        uint256 length = IFactoryFacet(satoshiXApp).troveManagerCount();\n        address[2][] memory troveManagersAndCollaterals = new address[2][](length);\n        address[] memory uniqueCollaterals = new address[](length);\n        uint256 collateralCount;\n        for (uint256 i = 0; i < length; i++) {\n            ITroveManager troveManager = IFactoryFacet(satoshiXApp).troveManagers(i);\n            IERC20 collateral = troveManager.collateralToken();\n            troveManagersAndCollaterals[i] = [address(troveManager), address(collateral)];\n            for (uint256 x = 0; x < length; x++) {\n                if (uniqueCollaterals[x] == address(collateral)) break;\n                if (uniqueCollaterals[x] == address(0)) {\n                    uniqueCollaterals[x] = address(collateral);\n                    collateralCount++;\n                    break;\n                }\n            }\n        }\n        Collateral[] memory collateralMap = new Collateral[](collateralCount);\n        for (uint256 i = 0; i < collateralCount; i++) {\n            collateralMap[i].collateral = uniqueCollaterals[i];\n            uint256 tmCollCount = 0;\n            address[] memory troveManagers = new address[](length);\n            for (uint256 x = 0; x < length; x++) {\n                if (troveManagersAndCollaterals[x][1] == uniqueCollaterals[i]) {\n                    troveManagers[tmCollCount] = troveManagersAndCollaterals[x][0];\n                    tmCollCount++;\n                }\n            }\n            collateralMap[i].troveManagers = new address[](tmCollCount);\n            for (uint256 x = 0; x < tmCollCount; x++) {\n                collateralMap[i].troveManagers[x] = troveManagers[x];\n            }\n        }\n\n        return collateralMap;\n    }\n\n    /**\n     * @notice Returns a list of trove managers where `account` has an existing trove\n     */\n    function getActiveTroveManagersForAccount(address account) external view returns (ITroveManager[] memory, uint256) {\n        uint256 length = IFactoryFacet(satoshiXApp).troveManagerCount();\n        ITroveManager[] memory troveManagers = new ITroveManager[](length);\n        uint256 tmCount;\n        for (uint256 i = 0; i < length; i++) {\n            ITroveManager troveManager = IFactoryFacet(satoshiXApp).troveManagers(i);\n            if (troveManager.getTroveStatus(account) > 0) {\n                troveManagers[tmCount] = troveManager;\n                tmCount++;\n            }\n        }\n        assembly {\n            mstore(troveManagers, tmCount)\n        }\n        return (troveManagers, tmCount);\n    }\n}\n",
  "sourcePath": "/Users/ashley/Documents/satoshi/satoshi-v2/src/core/helpers/TroveManagerGetter.sol",
  "compiler": {
    "name": "solc",
    "version": "0.8.22+commit.5ed3e10f.Emscripten.clang"
  },
  "schemaVersion": "2.0.1",
  "updatedAt": "2026-04-14T07:11:27.766Z"
}