{
  "contractName": "TroveHelper",
  "abi": [
    {
      "inputs": [],
      "stateMutability": "nonpayable",
      "type": "constructor"
    },
    {
      "inputs": [
        {
          "internalType": "contract ITroveManager",
          "name": "troveManager",
          "type": "address"
        },
        {
          "internalType": "uint256",
          "name": "time",
          "type": "uint256"
        }
      ],
      "name": "calculateInterestIndexByTime",
      "outputs": [
        {
          "internalType": "uint256",
          "name": "currentInterestIndex",
          "type": "uint256"
        },
        {
          "internalType": "uint256",
          "name": "interestFactor",
          "type": "uint256"
        }
      ],
      "stateMutability": "view",
      "type": "function"
    },
    {
      "inputs": [
        {
          "internalType": "contract ITroveManager",
          "name": "troveManager",
          "type": "address"
        },
        {
          "internalType": "address",
          "name": "_borrower",
          "type": "address"
        },
        {
          "internalType": "uint256",
          "name": "time",
          "type": "uint256"
        }
      ],
      "name": "getNicrByTime",
      "outputs": [
        {
          "internalType": "uint256",
          "name": "",
          "type": "uint256"
        }
      ],
      "stateMutability": "view",
      "type": "function"
    },
    {
      "inputs": [
        {
          "internalType": "contract ITroveManager",
          "name": "troveManager",
          "type": "address"
        },
        {
          "internalType": "address[]",
          "name": "_borrower",
          "type": "address[]"
        },
        {
          "internalType": "uint256",
          "name": "time",
          "type": "uint256"
        }
      ],
      "name": "getNicrListByTime",
      "outputs": [
        {
          "internalType": "uint256[]",
          "name": "",
          "type": "uint256[]"
        }
      ],
      "stateMutability": "view",
      "type": "function"
    },
    {
      "inputs": [
        {
          "internalType": "address",
          "name": "sortedTrovesAddress",
          "type": "address"
        },
        {
          "internalType": "address",
          "name": "_borrower",
          "type": "address"
        }
      ],
      "name": "getNode",
      "outputs": [
        {
          "internalType": "bool",
          "name": "exist",
          "type": "bool"
        },
        {
          "internalType": "address",
          "name": "nextId",
          "type": "address"
        },
        {
          "internalType": "address",
          "name": "prevId",
          "type": "address"
        }
      ],
      "stateMutability": "view",
      "type": "function"
    },
    {
      "inputs": [
        {
          "internalType": "contract ITroveManager",
          "name": "troveManager",
          "type": "address"
        },
        {
          "internalType": "address",
          "name": "_borrower",
          "type": "address"
        },
        {
          "internalType": "uint256",
          "name": "time",
          "type": "uint256"
        }
      ],
      "name": "getTroveCollAndDebtByTime",
      "outputs": [
        {
          "internalType": "uint256",
          "name": "",
          "type": "uint256"
        },
        {
          "internalType": "uint256",
          "name": "",
          "type": "uint256"
        }
      ],
      "stateMutability": "view",
      "type": "function"
    }
  ],
  "bytecode": "0x608060405234801561001057600080fd5b50d3801561001d57600080fd5b50d2801561002a57600080fd5b50610c538061003a6000396000f3fe608060405234801561001057600080fd5b50d3801561001d57600080fd5b50d2801561002a57600080fd5b50600436106100715760003560e01c806323b0dfbb1461007657806339be0437146100a357806359ec4385146100c3578063856fe227146100d65780639fb19c1f146100f7575b600080fd5b610089610084366004610833565b610131565b604080519283526020830191909152015b60405180910390f35b6100b66100b136600461087e565b610172565b60405161009a9190610969565b6100896100d13660046109ad565b61023c565b6100e96100e43660046109ad565b6103a7565b60405190815260200161009a565b61010a6101053660046109fb565b6103f2565b6040805193151584526001600160a01b03928316602085015291169082015260600161009a565b6000804283101561015d5760405162461bcd60e51b815260040161015490610a41565b60405180910390fd5b6101678484610550565b909590945092505050565b6060428210156101945760405162461bcd60e51b815260040161015490610a41565b6000835167ffffffffffffffff8111156101b0576101b0610868565b6040519080825280602002602001820160405280156101d9578160200160208202803683370190505b50905060005b84518110156102315761020c868683815181106101fe576101fe610a78565b6020026020010151866103a7565b82828151811061021e5761021e610a78565b60209081029190910101526001016101df565b5090505b9392505050565b6000804283101561025f5760405162461bcd60e51b815260040161015490610a41565b604051633fafb71d60e21b81526001600160a01b038581166004830152600091829182919089169063febedc749060240160c060405180830381865afa1580156102ad573d6000803e3d6000fd5b505050506040513d601f19601f820116820180604052508101906102d19190610a8e565b60405163d12ae84160e01b81526001600160a01b038e8116600483015296995094975095506000948594908e16935063d12ae841925060240190506040805180830381865afa158015610328573d6000803e3d6000fd5b505050506040513d601f19601f8201168201806040525081019061034c9190610b06565b90925090508280156103805760006103648c8b610550565b509050816103728289610b40565b61037c9190610b6d565b9650505b61038a8287610b8f565b95506103968386610b8f565b9b959a509498505050505050505050565b6000428210156103c95760405162461bcd60e51b815260040161015490610a41565b6000806103d786868661023c565b9150915060006103e783836106fa565b979650505050505050565b604051630bb7c8fd60e31b81526001600160a01b038281166004830152600091829182918691821690635dbe47e890602401602060405180830381865afa158015610441573d6000803e3d6000fd5b505050506040513d601f19601f820116820180604052508101906104659190610ba2565b935083156105485760405163765e015960e01b81526001600160a01b03868116600483015282169063765e015990602401602060405180830381865afa1580156104b3573d6000803e3d6000fd5b505050506040513d601f19601f820116820180604052508101906104d79190610bc4565b604051632dc9c0eb60e21b81526001600160a01b0387811660048301529194509082169063b72703ac90602401602060405180830381865afa158015610521573d6000803e3d6000fd5b505050506040513d601f19601f820116820180604052508101906105459190610bc4565b91505b509250925092565b6000806000846001600160a01b0316632d587e106040518163ffffffff1660e01b8152600401602060405180830381865afa158015610593573d6000803e3d6000fd5b505050506040513d601f19601f820116820180604052508101906105b79190610bf1565b9050808410156105d95760405162461bcd60e51b815260040161015490610a41565b6000856001600160a01b0316638bbb1de86040518163ffffffff1660e01b8152600401602060405180830381865afa158015610619573d6000803e3d6000fd5b505050506040513d601f19601f8201168201806040525081019061063d9190610bf1565b90506000866001600160a01b0316637c3a00fd6040518163ffffffff1660e01b8152600401602060405180830381865afa15801561067f573d6000803e3d6000fd5b505050506040513d601f19601f820116820180604052508101906106a39190610bf1565b905081945060008111156106f05760006106bd8488610c0a565b90506106c98282610b40565b94506106e286866b033b2e3c9fd0803ce8000000610732565b6106ec9087610b8f565b9550505b5050509250929050565b60008115610727578161071668056bc75e2d6310000085610b40565b6107209190610b6d565b905061072c565b506000195b92915050565b60008383028160001985870982811083820303915050806000036107695783828161075f5761075f610b57565b0492505050610235565b8084116107805761078060038515026011186107ed565b6000848688096000868103871696879004966002600389028118808a02820302808a02820302808a02820302808a02820302808a02820302808a02909103029181900381900460010186841190950394909402919094039290920491909117919091029150509392505050565b634e487b71600052806020526024601cfd5b6001600160a81b038116811461081457600080fd5b50565b60008135610824816107ff565b6001600160a01b031692915050565b6000806040838503121561084657600080fd5b8235610851816107ff565b6001600160a01b0316946020939093013593505050565b634e487b7160e01b600052604160045260246000fd5b60008060006060848603121561089357600080fd5b833561089e816107ff565b6001600160a01b0316925060208481013567ffffffffffffffff808211156108c557600080fd5b818701915087601f8301126108d957600080fd5b8135818111156108eb576108eb610868565b8060051b604051601f19603f8301168101818110858211171561091057610910610868565b60405291825284820192508381018501918a83111561092e57600080fd5b938501935b828510156109535761094485610817565b84529385019392850192610933565b979a979950505050604095909501359450505050565b6020808252825182820181905260009190848201906040850190845b818110156109a157835183529284019291840191600101610985565b50909695505050505050565b6000806000606084860312156109c257600080fd5b83356109cd816107ff565b6001600160a01b0390811693506020850135906109e9826107ff565b93969316945050506040919091013590565b60008060408385031215610a0e57600080fd5b8235610a19816107ff565b6001600160a01b039081169250602084013590610a35826107ff565b92959216935090915050565b60208082526019908201527f54726f766548656c7065723a20696e76616c69642074696d6500000000000000604082015260600190565b634e487b7160e01b600052603260045260246000fd5b60008060008060008060c08789031215610aa757600080fd5b865195506020870151945060408701519350606087015160058110610acb57600080fd5b60808801519093506fffffffffffffffffffffffffffffffff81168114610af157600080fd5b8092505060a087015190509295509295509295565b60008060408385031215610b1957600080fd5b505080516020909101519092909150565b634e487b7160e01b600052601160045260246000fd5b808202811582820484141761072c5761072c610b2a565b634e487b7160e01b600052601260045260246000fd5b600082610b8a57634e487b7160e01b600052601260045260246000fd5b500490565b8082018082111561072c5761072c610b2a565b600060208284031215610bb457600080fd5b8151801515811461023557600080fd5b600060208284031215610bd657600080fd5b8151610be1816107ff565b6001600160a01b03169392505050565b600060208284031215610c0357600080fd5b5051919050565b8181038181111561072c5761072c610b2a56fea26474726f6e58221220f64d107133a53a68b3884b72aba475551d200078f70ceff62709be1202166f6e64736f6c63430008160033",
  "source": "// SPDX-License-Identifier: MIT\npragma solidity ^0.8.20;\n\nimport { SatoshiMath } from \"../../library/SatoshiMath.sol\";\nimport { ISortedTroves } from \"../interfaces/ISortedTroves.sol\";\nimport { ITroveManager } from \"../interfaces/ITroveManager.sol\";\nimport { ITroveHelper } from \"./interfaces/ITroveHelper.sol\";\nimport { IERC20 } from \"@openzeppelin/contracts/token/ERC20/IERC20.sol\";\nimport { Math } from \"@openzeppelin/contracts/utils/math/Math.sol\";\n\ncontract TroveHelper is ITroveHelper {\n    uint256 constant INTEREST_PRECISION = 1e27;\n\n    constructor() { }\n\n    function getNicrByTime(ITroveManager troveManager, address _borrower, uint256 time) public view returns (uint256) {\n        require(time >= block.timestamp, \"TroveHelper: invalid time\");\n        (uint256 currentCollateral, uint256 currentDebt) = getTroveCollAndDebtByTime(troveManager, _borrower, time);\n        uint256 NICR = SatoshiMath._computeNominalCR(currentCollateral, currentDebt);\n\n        return NICR;\n    }\n\n    function getNicrListByTime(\n        ITroveManager troveManager,\n        address[] memory _borrower,\n        uint256 time\n    )\n        external\n        view\n        returns (uint256[] memory)\n    {\n        require(time >= block.timestamp, \"TroveHelper: invalid time\");\n        uint256[] memory nicrList = new uint256[](_borrower.length);\n        for (uint256 i; i < _borrower.length; ++i) {\n            nicrList[i] = getNicrByTime(troveManager, _borrower[i], time);\n        }\n\n        return nicrList;\n    }\n\n    function calculateInterestIndexByTime(\n        ITroveManager troveManager,\n        uint256 time\n    )\n        external\n        view\n        returns (uint256 currentInterestIndex, uint256 interestFactor)\n    {\n        require(time >= block.timestamp, \"TroveHelper: invalid time\");\n        (currentInterestIndex, interestFactor) = _calculateInterestIndex(troveManager, time);\n    }\n\n    // SortedTroves\n    function getNode(\n        address sortedTrovesAddress,\n        address _borrower\n    )\n        external\n        view\n        returns (bool exist, address nextId, address prevId)\n    {\n        ISortedTroves sortedTroves = ISortedTroves(sortedTrovesAddress);\n        // check if the trove exists\n        exist = sortedTroves.contains(_borrower);\n        if (exist) {\n            nextId = sortedTroves.getNext(_borrower);\n            prevId = sortedTroves.getPrev(_borrower);\n        }\n    }\n\n    function getTroveCollAndDebtByTime(\n        ITroveManager troveManager,\n        address _borrower,\n        uint256 time\n    )\n        public\n        view\n        returns (uint256, uint256)\n    {\n        require(time >= block.timestamp, \"TroveHelper: invalid time\");\n        (uint256 debt, uint256 coll,,,, uint256 activeInterestIndex) = troveManager.troves(_borrower);\n\n        (uint256 pendingCollateralReward, uint256 pendingDebtReward) =\n            troveManager.getPendingCollAndDebtRewards(_borrower);\n        // Accrued trove interest for correct liquidation values. This assumes the index to be updated.\n        uint256 troveInterestIndex = activeInterestIndex;\n        if (troveInterestIndex > 0) {\n            (uint256 currentIndex,) = _calculateInterestIndex(troveManager, time);\n            debt = (debt * currentIndex) / troveInterestIndex;\n        }\n\n        debt = debt + pendingDebtReward;\n        coll = coll + pendingCollateralReward;\n\n        return (coll, debt);\n    }\n\n    // --- internal functions ---\n\n    function _calculateInterestIndex(\n        ITroveManager troveManager,\n        uint256 time\n    )\n        internal\n        view\n        returns (uint256 currentInterestIndex, uint256 interestFactor)\n    {\n        uint256 lastIndexUpdateCached = troveManager.lastActiveIndexUpdate();\n        require(time >= lastIndexUpdateCached, \"TroveHelper: invalid time\");\n        uint256 activeInterestIndex = troveManager.activeInterestIndex();\n        uint256 currentInterest = troveManager.interestRate();\n        currentInterestIndex = activeInterestIndex; // we need to return this if it's already up to date\n        if (currentInterest > 0) {\n            /*\n                * Calculate the interest accumulated and the new index:\n                * We compound the index and increase the debt accordingly\n                */\n            uint256 deltaT = time - lastIndexUpdateCached;\n            interestFactor = deltaT * currentInterest;\n            currentInterestIndex =\n                currentInterestIndex + Math.mulDiv(currentInterestIndex, interestFactor, INTEREST_PRECISION);\n        }\n    }\n}\n",
  "sourcePath": "/Users/ashley/Documents/satoshi/satoshi-v2/src/core/helpers/TroveHelper.sol",
  "compiler": {
    "name": "solc",
    "version": "0.8.22+commit.5ed3e10f.Emscripten.clang"
  },
  "schemaVersion": "2.0.1",
  "updatedAt": "2026-04-14T07:11:27.766Z"
}