{
  "contractName": "VaultManager",
  "abi": [
    {
      "inputs": [],
      "stateMutability": "nonpayable",
      "type": "constructor"
    },
    {
      "inputs": [
        {
          "internalType": "address",
          "name": "target",
          "type": "address"
        }
      ],
      "name": "AddressEmptyCode",
      "type": "error"
    },
    {
      "inputs": [],
      "name": "CallerIsNotTroveManager",
      "type": "error"
    },
    {
      "inputs": [
        {
          "internalType": "address",
          "name": "implementation",
          "type": "address"
        }
      ],
      "name": "ERC1967InvalidImplementation",
      "type": "error"
    },
    {
      "inputs": [],
      "name": "ERC1967NonPayable",
      "type": "error"
    },
    {
      "inputs": [],
      "name": "FailedCall",
      "type": "error"
    },
    {
      "inputs": [],
      "name": "InvalidInitialization",
      "type": "error"
    },
    {
      "inputs": [],
      "name": "NotInitializing",
      "type": "error"
    },
    {
      "inputs": [
        {
          "internalType": "address",
          "name": "owner",
          "type": "address"
        }
      ],
      "name": "OwnableInvalidOwner",
      "type": "error"
    },
    {
      "inputs": [
        {
          "internalType": "address",
          "name": "account",
          "type": "address"
        }
      ],
      "name": "OwnableUnauthorizedAccount",
      "type": "error"
    },
    {
      "inputs": [
        {
          "internalType": "address",
          "name": "token",
          "type": "address"
        }
      ],
      "name": "SafeERC20FailedOperation",
      "type": "error"
    },
    {
      "inputs": [],
      "name": "UUPSUnauthorizedCallContext",
      "type": "error"
    },
    {
      "inputs": [
        {
          "internalType": "bytes32",
          "name": "slot",
          "type": "bytes32"
        }
      ],
      "name": "UUPSUnsupportedProxiableUUID",
      "type": "error"
    },
    {
      "inputs": [],
      "name": "VaultNotWhitelisted",
      "type": "error"
    },
    {
      "anonymous": false,
      "inputs": [
        {
          "indexed": false,
          "internalType": "address",
          "name": "troveManager",
          "type": "address"
        },
        {
          "indexed": false,
          "internalType": "uint256",
          "name": "amount",
          "type": "uint256"
        }
      ],
      "name": "CollateralTransferredToTroveManager",
      "type": "event"
    },
    {
      "anonymous": false,
      "inputs": [
        {
          "indexed": false,
          "internalType": "address",
          "name": "vault",
          "type": "address"
        },
        {
          "indexed": false,
          "internalType": "address",
          "name": "dest",
          "type": "address"
        },
        {
          "indexed": false,
          "internalType": "bytes",
          "name": "data",
          "type": "bytes"
        }
      ],
      "name": "ExecuteCall",
      "type": "event"
    },
    {
      "anonymous": false,
      "inputs": [
        {
          "indexed": false,
          "internalType": "address",
          "name": "vault",
          "type": "address"
        },
        {
          "indexed": false,
          "internalType": "bytes",
          "name": "data",
          "type": "bytes"
        }
      ],
      "name": "ExecuteStrategy",
      "type": "event"
    },
    {
      "anonymous": false,
      "inputs": [
        {
          "indexed": false,
          "internalType": "address",
          "name": "vault",
          "type": "address"
        },
        {
          "indexed": false,
          "internalType": "bytes",
          "name": "data",
          "type": "bytes"
        }
      ],
      "name": "ExitStrategy",
      "type": "event"
    },
    {
      "anonymous": false,
      "inputs": [
        {
          "indexed": false,
          "internalType": "uint64",
          "name": "version",
          "type": "uint64"
        }
      ],
      "name": "Initialized",
      "type": "event"
    },
    {
      "anonymous": false,
      "inputs": [
        {
          "indexed": false,
          "internalType": "address",
          "name": "nexusYieldManager",
          "type": "address"
        }
      ],
      "name": "NexusYieldManagerSet",
      "type": "event"
    },
    {
      "anonymous": false,
      "inputs": [
        {
          "indexed": true,
          "internalType": "address",
          "name": "previousOwner",
          "type": "address"
        },
        {
          "indexed": true,
          "internalType": "address",
          "name": "newOwner",
          "type": "address"
        }
      ],
      "name": "OwnershipTransferred",
      "type": "event"
    },
    {
      "anonymous": false,
      "inputs": [
        {
          "indexed": false,
          "internalType": "address",
          "name": "troveManager",
          "type": "address"
        },
        {
          "indexed": false,
          "internalType": "contract IVault[]",
          "name": "priority",
          "type": "address[]"
        }
      ],
      "name": "PrioritySet",
      "type": "event"
    },
    {
      "anonymous": false,
      "inputs": [
        {
          "indexed": false,
          "internalType": "address",
          "name": "token",
          "type": "address"
        },
        {
          "indexed": false,
          "internalType": "uint256",
          "name": "amount",
          "type": "uint256"
        }
      ],
      "name": "TokenTransferredToNYM",
      "type": "event"
    },
    {
      "anonymous": false,
      "inputs": [
        {
          "indexed": false,
          "internalType": "address",
          "name": "troveManager",
          "type": "address"
        },
        {
          "indexed": false,
          "internalType": "bool",
          "name": "status",
          "type": "bool"
        }
      ],
      "name": "TroveManagerSet",
      "type": "event"
    },
    {
      "anonymous": false,
      "inputs": [
        {
          "indexed": true,
          "internalType": "address",
          "name": "implementation",
          "type": "address"
        }
      ],
      "name": "Upgraded",
      "type": "event"
    },
    {
      "anonymous": false,
      "inputs": [
        {
          "indexed": false,
          "internalType": "address",
          "name": "vault",
          "type": "address"
        },
        {
          "indexed": false,
          "internalType": "bool",
          "name": "isWhitelisted",
          "type": "bool"
        }
      ],
      "name": "WhiteListVaultSet",
      "type": "event"
    },
    {
      "inputs": [],
      "name": "UPGRADE_INTERFACE_VERSION",
      "outputs": [
        {
          "internalType": "string",
          "name": "",
          "type": "string"
        }
      ],
      "stateMutability": "view",
      "type": "function"
    },
    {
      "inputs": [
        {
          "internalType": "uint256",
          "name": "amount",
          "type": "uint256"
        }
      ],
      "name": "burnDebtToken",
      "outputs": [],
      "stateMutability": "nonpayable",
      "type": "function"
    },
    {
      "inputs": [],
      "name": "debtToken",
      "outputs": [
        {
          "internalType": "contract IDebtToken",
          "name": "",
          "type": "address"
        }
      ],
      "stateMutability": "view",
      "type": "function"
    },
    {
      "inputs": [
        {
          "internalType": "address",
          "name": "vault",
          "type": "address"
        },
        {
          "internalType": "address",
          "name": "dest",
          "type": "address"
        },
        {
          "internalType": "bytes",
          "name": "data",
          "type": "bytes"
        }
      ],
      "name": "executeCall",
      "outputs": [],
      "stateMutability": "nonpayable",
      "type": "function"
    },
    {
      "inputs": [
        {
          "internalType": "address",
          "name": "vault",
          "type": "address"
        },
        {
          "internalType": "bytes",
          "name": "data",
          "type": "bytes"
        }
      ],
      "name": "executeStrategy",
      "outputs": [],
      "stateMutability": "nonpayable",
      "type": "function"
    },
    {
      "inputs": [
        {
          "internalType": "uint256",
          "name": "amount",
          "type": "uint256"
        }
      ],
      "name": "exitStrategyByTroveManager",
      "outputs": [],
      "stateMutability": "nonpayable",
      "type": "function"
    },
    {
      "inputs": [
        {
          "internalType": "address",
          "name": "_debtToken",
          "type": "address"
        },
        {
          "internalType": "address",
          "name": "_nexusYieldManager",
          "type": "address"
        },
        {
          "internalType": "address",
          "name": "_owner",
          "type": "address"
        }
      ],
      "name": "initialize",
      "outputs": [],
      "stateMutability": "nonpayable",
      "type": "function"
    },
    {
      "inputs": [
        {
          "internalType": "uint256",
          "name": "amount",
          "type": "uint256"
        }
      ],
      "name": "mintDebtToken",
      "outputs": [],
      "stateMutability": "nonpayable",
      "type": "function"
    },
    {
      "inputs": [],
      "name": "nexusYieldManager",
      "outputs": [
        {
          "internalType": "address",
          "name": "",
          "type": "address"
        }
      ],
      "stateMutability": "view",
      "type": "function"
    },
    {
      "inputs": [],
      "name": "owner",
      "outputs": [
        {
          "internalType": "address",
          "name": "",
          "type": "address"
        }
      ],
      "stateMutability": "view",
      "type": "function"
    },
    {
      "inputs": [
        {
          "internalType": "address",
          "name": "",
          "type": "address"
        },
        {
          "internalType": "uint256",
          "name": "",
          "type": "uint256"
        }
      ],
      "name": "priority",
      "outputs": [
        {
          "internalType": "contract IVault",
          "name": "",
          "type": "address"
        }
      ],
      "stateMutability": "view",
      "type": "function"
    },
    {
      "inputs": [],
      "name": "proxiableUUID",
      "outputs": [
        {
          "internalType": "bytes32",
          "name": "",
          "type": "bytes32"
        }
      ],
      "stateMutability": "view",
      "type": "function"
    },
    {
      "inputs": [],
      "name": "renounceOwnership",
      "outputs": [],
      "stateMutability": "nonpayable",
      "type": "function"
    },
    {
      "inputs": [
        {
          "internalType": "address",
          "name": "nexusYieldManager_",
          "type": "address"
        }
      ],
      "name": "setNexusYieldManager",
      "outputs": [],
      "stateMutability": "nonpayable",
      "type": "function"
    },
    {
      "inputs": [
        {
          "internalType": "address",
          "name": "troveManager_",
          "type": "address"
        },
        {
          "internalType": "contract IVault[]",
          "name": "_priority",
          "type": "address[]"
        }
      ],
      "name": "setPriority",
      "outputs": [],
      "stateMutability": "nonpayable",
      "type": "function"
    },
    {
      "inputs": [
        {
          "internalType": "address",
          "name": "troveManager_",
          "type": "address"
        },
        {
          "internalType": "bool",
          "name": "status",
          "type": "bool"
        }
      ],
      "name": "setTroveManager",
      "outputs": [],
      "stateMutability": "nonpayable",
      "type": "function"
    },
    {
      "inputs": [
        {
          "internalType": "address",
          "name": "vault",
          "type": "address"
        },
        {
          "internalType": "bool",
          "name": "status",
          "type": "bool"
        }
      ],
      "name": "setWhiteListVault",
      "outputs": [],
      "stateMutability": "nonpayable",
      "type": "function"
    },
    {
      "inputs": [
        {
          "internalType": "address",
          "name": "",
          "type": "address"
        }
      ],
      "name": "tokenOutput",
      "outputs": [
        {
          "internalType": "uint256",
          "name": "",
          "type": "uint256"
        }
      ],
      "stateMutability": "view",
      "type": "function"
    },
    {
      "inputs": [
        {
          "internalType": "address",
          "name": "troveManager_",
          "type": "address"
        },
        {
          "internalType": "uint256",
          "name": "amount",
          "type": "uint256"
        }
      ],
      "name": "transferCollToTroveManager",
      "outputs": [],
      "stateMutability": "nonpayable",
      "type": "function"
    },
    {
      "inputs": [
        {
          "internalType": "address",
          "name": "newOwner",
          "type": "address"
        }
      ],
      "name": "transferOwnership",
      "outputs": [],
      "stateMutability": "nonpayable",
      "type": "function"
    },
    {
      "inputs": [
        {
          "internalType": "address",
          "name": "token",
          "type": "address"
        },
        {
          "internalType": "uint256",
          "name": "amount",
          "type": "uint256"
        }
      ],
      "name": "transferTokenToNYM",
      "outputs": [],
      "stateMutability": "nonpayable",
      "type": "function"
    },
    {
      "inputs": [
        {
          "internalType": "address",
          "name": "",
          "type": "address"
        }
      ],
      "name": "troveManagers",
      "outputs": [
        {
          "internalType": "bool",
          "name": "",
          "type": "bool"
        }
      ],
      "stateMutability": "view",
      "type": "function"
    },
    {
      "inputs": [
        {
          "internalType": "address",
          "name": "newImplementation",
          "type": "address"
        },
        {
          "internalType": "bytes",
          "name": "data",
          "type": "bytes"
        }
      ],
      "name": "upgradeToAndCall",
      "outputs": [],
      "stateMutability": "payable",
      "type": "function"
    },
    {
      "inputs": [
        {
          "internalType": "address",
          "name": "",
          "type": "address"
        }
      ],
      "name": "whitelistVaults",
      "outputs": [
        {
          "internalType": "bool",
          "name": "",
          "type": "bool"
        }
      ],
      "stateMutability": "view",
      "type": "function"
    }
  ],
  "bytecode": "0x60a0604052306080523480156200001557600080fd5b50d380156200002357600080fd5b50d280156200003157600080fd5b506200003c62000042565b620000f6565b7ff0c57e16840df040f15088dc2f81fe391c3923bec73e23a9662efc9c229c6a00805468010000000000000000900460ff1615620000935760405163f92ee8a960e01b815260040160405180910390fd5b80546001600160401b0390811614620000f35780546001600160401b0319166001600160401b0390811782556040519081527fc7f505b2f371ae2175ee4913f4499e1f2633a7b5936321eed1cdaeb6115181d29060200160405180910390a15b50565b60805161227f62000120600039600081816115c6015281816115ef0152611735015261227f6000f3fe60806040526004361061014b5760003560e01c8063715018a6116100b6578063ada3f0ca1161006f578063ada3f0ca146105cc578063b0e493da14610606578063bf97e2df14610640578063c0c53b8b1461067a578063f2fde38b146106b4578063f8d89898146106ee57600080fd5b8063715018a6146104305780638da5cb5b1461045f5780638fec6efa146104b65780639cfd6973146105005780639f3e40d91461053a578063ad3cb1cc1461057457600080fd5b806325a72b031161010857806325a72b03146102ee5780634f1ef2861461032857806352d1902d1461033b578063539135311461036a5780635c84a373146103bc5780636c9ecb9f146103f657600080fd5b80630e0232151461015057806316d556d0146101aa5780631f7bc5fa146102045780631fdbbbcf1461024057806322098ce81461027a578063223b2083146102b4575b600080fd5b34801561015c57600080fd5b50d3801561016957600080fd5b50d2801561017657600080fd5b50610197610185366004611b55565b60026020526000908152604090205481565b6040519081526020015b60405180910390f35b3480156101b657600080fd5b50d380156101c357600080fd5b50d280156101d057600080fd5b506101f46101df366004611b55565b60036020526000908152604090205460ff1681565b60405190151581526020016101a1565b34801561021057600080fd5b50d3801561021d57600080fd5b50d2801561022a57600080fd5b5061023e610239366004611b82565b610728565b005b34801561024c57600080fd5b50d3801561025957600080fd5b50d2801561026657600080fd5b5061023e610275366004611b9b565b610798565b34801561028657600080fd5b50d3801561029357600080fd5b50d280156102a057600080fd5b5061023e6102af366004611c19565b6108b7565b3480156102c057600080fd5b50d380156102cd57600080fd5b50d280156102da57600080fd5b5061023e6102e9366004611cd2565b61096d565b3480156102fa57600080fd5b50d3801561030757600080fd5b50d2801561031457600080fd5b5061023e610323366004611b82565b610a45565b61023e610336366004611dd0565b610a80565b34801561034757600080fd5b50d3801561035457600080fd5b50d2801561036157600080fd5b50610197610a9f565b34801561037657600080fd5b50d3801561038357600080fd5b50d2801561039057600080fd5b506005546103a4906001600160a01b031681565b6040516001600160a01b0390911681526020016101a1565b3480156103c857600080fd5b50d380156103d557600080fd5b50d280156103e257600080fd5b5061023e6103f1366004611e6c565b610abc565b34801561040257600080fd5b50d3801561040f57600080fd5b50d2801561041c57600080fd5b5061023e61042b366004611ed8565b610c5a565b34801561043c57600080fd5b50d3801561044957600080fd5b50d2801561045657600080fd5b5061023e610cbe565b34801561046b57600080fd5b50d3801561047857600080fd5b50d2801561048557600080fd5b507f9016d09d72d40fdae2fd8ceac6b6234c7706214fd39c1cd1e609a0528c199300546001600160a01b03166103a4565b3480156104c257600080fd5b50d380156104cf57600080fd5b50d280156104dc57600080fd5b506101f46104eb366004611b55565b60016020526000908152604090205460ff1681565b34801561050c57600080fd5b50d3801561051957600080fd5b50d2801561052657600080fd5b506103a4610535366004611b9b565b610cd2565b34801561054657600080fd5b50d3801561055357600080fd5b50d2801561056057600080fd5b5061023e61056f366004611b9b565b610d0a565b34801561058057600080fd5b50d3801561058d57600080fd5b50d2801561059a57600080fd5b506105bf604051806040016040528060058152602001640352e302e360dc1b81525081565b6040516101a19190611f6a565b3480156105d857600080fd5b50d380156105e557600080fd5b50d280156105f257600080fd5b5061023e610601366004611b55565b610d5d565b34801561061257600080fd5b50d3801561061f57600080fd5b50d2801561062c57600080fd5b5061023e61063b366004611ed8565b610db9565b34801561064c57600080fd5b50d3801561065957600080fd5b50d2801561066657600080fd5b5061023e610675366004611b82565b610e1d565b34801561068657600080fd5b50d3801561069357600080fd5b50d280156106a057600080fd5b5061023e6106af366004611f7d565b611266565b3480156106c057600080fd5b50d380156106cd57600080fd5b50d280156106da57600080fd5b5061023e6106e9366004611b55565b6113e1565b3480156106fa57600080fd5b50d3801561070757600080fd5b50d2801561071457600080fd5b506000546103a4906001600160a01b031681565b61073133611424565b6000546040516340c10f1960e01b81526001600160a01b03909116906340c10f19906107639033908590600401611fdb565b600060405180830381600087803b15801561077d57600080fd5b505af1158015610791573d6000803e3d6000fd5b5050505050565b6107a061145d565b6107a9826114b8565b6108208282846001600160a01b031663b2016bd46040518163ffffffff1660e01b8152600401602060405180830381865afa1580156107ec573d6000803e3d6000fd5b505050506040513d601f19601f820116820180604052508101906108109190611ff4565b6001600160a01b031691906114f1565b60405163011a28f960e31b8152600481018290526001600160a01b038316906308d147c890602401600060405180830381600087803b15801561086257600080fd5b505af1158015610876573d6000803e3d6000fd5b505050507fb07913b91db8254fede3e8687eff5689e836f92f4eddbd220e83a83e0ed7742582826040516108ab929190611fdb565b60405180910390a15050565b6108bf61145d565b6108c884611424565b60405163bca8c7b560e01b81526001600160a01b0385169063bca8c7b5906108f89086908690869060040161203a565b600060405180830381600087803b15801561091257600080fd5b505af1158015610926573d6000803e3d6000fd5b505050507fb501a6eaf2a82b4e8d0de4cac1a57c1299c1e2fbcbfce3044197fd12a792f8ec8484848460405161095f949392919061205f565b60405180910390a150505050565b61097561145d565b6001600160a01b038216600090815260046020526040812061099691611b0e565b60005b8151811015610a13576001600160a01b038316600090815260046020526040902082518390839081106109ce576109ce612096565b60209081029190910181015182546001808201855560009485529290932090920180546001600160a01b0319166001600160a01b039093169290921790915501610999565b507f2c0110dce8e5200f19f605a429a9f7edc079281bd270730a214bc462abdfe00e82826040516108ab9291906120ac565b610a4e33611424565b600054604051632770a7eb60e21b81526001600160a01b0390911690639dc29fac906107639033908590600401611fdb565b610a886115bb565b610a9182611660565b610a9b8282611668565b5050565b6000610aa961172a565b5060008051602061222a83398151915290565b610ac461145d565b610acd83611424565b604051635917cc3160e01b81526000906001600160a01b03851690635917cc3190610afe9086908690600401612108565b6020604051808303816000875af1158015610b1d573d6000803e3d6000fd5b505050506040513d601f19601f82011682018060405250810190610b419190611ff4565b90506001600160a01b03811615610bc75760405163095ea7b360e01b81526001600160a01b0382169063095ea7b390610b8290879060001990600401611fdb565b6020604051808303816000875af1158015610ba1573d6000803e3d6000fd5b505050506040513d601f19601f82011682018060405250810190610bc59190612124565b505b604051630c4c9b7b60e11b81526001600160a01b0385169063189936f690610bf59086908690600401612108565b600060405180830381600087803b158015610c0f57600080fd5b505af1158015610c23573d6000803e3d6000fd5b505050507ff8b25ce6daf2f4d6a8c2b91e6adfe749f40da732cec13da22e283d5954c83c0084848460405161095f9392919061203a565b610c6261145d565b6001600160a01b038216600081815260016020908152604091829020805460ff19168515159081179091558251938452908301527f094a0829434c378ab837cd9a7c0248d16cb509a04c478bb86d43f2782eb8c3fa91016108ab565b610cc661145d565b610cd06000611773565b565b60046020528160005260406000208181548110610cee57600080fd5b6000918252602090912001546001600160a01b03169150829050565b610d1261145d565b600554610d2c906001600160a01b038481169116836117e4565b7fce2727f2c21fadf4f1a46e2adcf97214bb5c2ed6085d056ff48f1c2e5b9fa9dd82826040516108ab929190611fdb565b610d6561145d565b600580546001600160a01b0319166001600160a01b0383169081179091556040519081527f14240f72b2dc3cf459ae53b2ad51e118aac6d42f60bbd403c07de6bf5b094e559060200160405180910390a150565b610dc161145d565b6001600160a01b038216600081815260036020908152604091829020805460ff19168515159081179091558251938452908301527fa0aed515a357c4886ff5ca2bddb9629597ad1d4899a2f3f8cd9501b4367854c691016108ab565b610e26336114b8565b80600003610e315750565b6000336001600160a01b031663b2016bd46040518163ffffffff1660e01b8152600401602060405180830381865afa158015610e71573d6000803e3d6000fd5b505050506040513d601f19601f82011682018060405250810190610e959190611ff4565b6040516370a0823160e01b81523060048201529091506000906001600160a01b038316906370a0823190602401602060405180830381865afa158015610edf573d6000803e3d6000fd5b505050506040513d601f19601f82011682018060405250810190610f039190612141565b90506000818411610f15576000610f1f565b610f1f828561215a565b905060005b336000908152600460205260409020548110156111865784831015611186576040516370a0823160e01b81523060048201526000906001600160a01b038616906370a0823190602401602060405180830381865afa158015610f8a573d6000803e3d6000fd5b505050506040513d601f19601f82011682018060405250810190610fae9190612141565b3360009081526004602052604081208054929350909184908110610fd457610fd4612096565b600091825260208220015460405163e0d630fd60e01b81526001600160a01b039091169250829063e0d630fd90611011908a908990600401611fdb565b600060405180830381865afa15801561102e573d6000803e3d6000fd5b505050506040513d6000823e601f3d908101601f19168201604052611056919081019061217b565b604051630c4c9b7b60e11b81529091506001600160a01b0383169063189936f690611085908490600401611f6a565b600060405180830381600087803b15801561109f57600080fd5b505af19250505080156110b0575060015b6110bc5750505061117e565b6040516370a0823160e01b81523060048201526001600160a01b038816906370a0823190602401602060405180830381865afa158015611100573d6000803e3d6000fd5b505050506040513d601f19601f820116820180604052508101906111249190612141565b95506000611132848861215a565b905061113e818761215a565b9550507fd1978d32718b6f4aee55a3c1f74bbb966a24758cfd7d90c67db52a35d2ed137182826040516111729291906121e9565b60405180910390a15050505b600101610f24565b506000848310156111975782611199565b845b60405163095ea7b360e01b81529091506001600160a01b0385169063095ea7b3906111ca9033908590600401611fdb565b6020604051808303816000875af11580156111e9573d6000803e3d6000fd5b505050506040513d601f19601f8201168201806040525081019061120d9190612124565b5060405163011a28f960e31b81526004810182905233906308d147c890602401600060405180830381600087803b15801561124757600080fd5b505af115801561125b573d6000803e3d6000fd5b505050505050505050565b7ff0c57e16840df040f15088dc2f81fe391c3923bec73e23a9662efc9c229c6a008054600160401b810460ff16159067ffffffffffffffff166000811580156112ac5750825b905060008267ffffffffffffffff1660011480156112c95750303b155b9050811580156112d7575080155b156112f55760405163f92ee8a960e01b815260040160405180910390fd5b845467ffffffffffffffff19166001178555831561131f57845460ff60401b1916600160401b1785555b61132761180a565b61133086611812565b600080546001600160a01b038a81166001600160a01b03199283161790925560058054928a1692909116821790556040519081527f14240f72b2dc3cf459ae53b2ad51e118aac6d42f60bbd403c07de6bf5b094e559060200160405180910390a183156113d757845460ff60401b19168555604051600181527fc7f505b2f371ae2175ee4913f4499e1f2633a7b5936321eed1cdaeb6115181d29060200160405180910390a15b5050505050505050565b6113e961145d565b6001600160a01b03811661141857604051631e4fbdf760e01b8152600060048201526024015b60405180910390fd5b61142181611773565b50565b6001600160a01b03811660009081526001602052604090205460ff16611421576040516335ba7b3760e01b815260040160405180910390fd5b3361148f7f9016d09d72d40fdae2fd8ceac6b6234c7706214fd39c1cd1e609a0528c199300546001600160a01b031690565b6001600160a01b031614610cd05760405163118cdaa760e01b815233600482015260240161140f565b6001600160a01b03811660009081526003602052604090205460ff1661142157604051638c75e52760e01b815260040160405180910390fd5b6000836001600160a01b031663095ea7b38484604051602401611515929190611fdb565b604051602081830303815290604052915060e01b6020820180516001600160e01b038381831617835250505050905061154e8482611823565b6115b5576115ab84856001600160a01b031663095ea7b3866000604051602401611579929190611fdb565b604051602081830303815290604052915060e01b6020820180516001600160e01b038381831617835250505050611874565b6115b58482611874565b50505050565b306001600160a01b037f000000000000000000000000000000000000000000000000000000000000000016148061164257507f00000000000000000000000000000000000000000000000000000000000000006001600160a01b031661163660008051602061222a833981519152546001600160a01b031690565b6001600160a01b031614155b15610cd05760405163703e46dd60e11b815260040160405180910390fd5b61142161145d565b816001600160a01b03166352d1902d6040518163ffffffff1660e01b8152600401602060405180830381865afa9250505080156116c2575060408051601f3d908101601f191682019092526116bf91810190612141565b60015b6116ea57604051634c9c8ce360e01b81526001600160a01b038316600482015260240161140f565b60008051602061222a833981519152811461171b57604051632a87526960e21b81526004810182905260240161140f565b61172583836118e5565b505050565b306001600160a01b037f00000000000000000000000000000000000000000000000000000000000000001614610cd05760405163703e46dd60e11b815260040160405180910390fd5b7f9016d09d72d40fdae2fd8ceac6b6234c7706214fd39c1cd1e609a0528c19930080546001600160a01b031981166001600160a01b03848116918217845560405192169182907f8be0079c531659141344cd1fd0a4f28419497f9722a3daafe3b4186f6b6457e090600090a3505050565b61172583846001600160a01b031663a9059cbb8585604051602401611579929190611fdb565b610cd061193b565b61181a61193b565b61142181611984565b6000806000806020600086516020880160008a5af192503d91506000519050828015611868575081156118595780600114611868565b6000866001600160a01b03163b115b93505050505b92915050565b600080602060008451602086016000885af180611897576040513d6000823e3d81fd5b50506000513d915081156118af5780600114156118bc565b6001600160a01b0384163b155b156115b557604051635274afe760e01b81526001600160a01b038516600482015260240161140f565b6118ee8261198c565b6040516001600160a01b038316907fbc7cd75a20ee27fd9adebab32041f755214dbc6bffa90cc0225b39da2e5c2d3b90600090a28051156119335761172582826119f1565b610a9b611a67565b7ff0c57e16840df040f15088dc2f81fe391c3923bec73e23a9662efc9c229c6a0054600160401b900460ff16610cd057604051631afcd79f60e31b815260040160405180910390fd5b6113e961193b565b806001600160a01b03163b6000036119c257604051634c9c8ce360e01b81526001600160a01b038216600482015260240161140f565b60008051602061222a83398151915280546001600160a01b0319166001600160a01b0392909216919091179055565b6060600080846001600160a01b031684604051611a0e919061220d565b600060405180830381855af49150503d8060008114611a49576040519150601f19603f3d011682016040523d82523d6000602084013e611a4e565b606091505b5091509150611a5e858383611a86565b95945050505050565b3415610cd05760405163b398979f60e01b815260040160405180910390fd5b606082611a9b57611a9682611ae5565b611ade565b8151158015611ab257506001600160a01b0384163b155b15611adb57604051639996b31560e01b81526001600160a01b038516600482015260240161140f565b50805b9392505050565b805115611af55780518082602001fd5b60405163d6bda27560e01b815260040160405180910390fd5b508054600082559060005260206000209081019061142191905b80821115611b3c5760008155600101611b28565b5090565b6001600160a81b038116811461142157600080fd5b600060208284031215611b6757600080fd5b8135611b7281611b40565b6001600160a01b03169392505050565b600060208284031215611b9457600080fd5b5035919050565b60008060408385031215611bae57600080fd5b8235611bb981611b40565b6001600160a01b0316946020939093013593505050565b60008083601f840112611be257600080fd5b50813567ffffffffffffffff811115611bfa57600080fd5b602083019150836020828501011115611c1257600080fd5b9250929050565b60008060008060608587031215611c2f57600080fd5b8435611c3a81611b40565b6001600160a01b039081169450602086013590611c5682611b40565b169250604085013567ffffffffffffffff811115611c7357600080fd5b611c7f87828801611bd0565b95989497509550505050565b634e487b7160e01b600052604160045260246000fd5b604051601f8201601f1916810167ffffffffffffffff81118282101715611cca57611cca611c8b565b604052919050565b60008060408385031215611ce557600080fd5b8235611cf081611b40565b6001600160a01b0390811692506020908482013567ffffffffffffffff80821115611d1a57600080fd5b818701915087601f830112611d2e57600080fd5b813581811115611d4057611d40611c8b565b8060051b9150611d51858301611ca1565b818152918301850191858101908a841115611d6b57600080fd5b938601935b83851015611d975784359250611d8583611b40565b82861682529386019390860190611d70565b809750505050505050509250929050565b600067ffffffffffffffff821115611dc257611dc2611c8b565b50601f01601f191660200190565b60008060408385031215611de357600080fd5b8235611dee81611b40565b6001600160a01b03169150602083013567ffffffffffffffff811115611e1357600080fd5b8301601f81018513611e2457600080fd5b8035611e37611e3282611da8565b611ca1565b818152866020838501011115611e4c57600080fd5b816020840160208301376000602083830101528093505050509250929050565b600080600060408486031215611e8157600080fd5b8335611e8c81611b40565b6001600160a01b03169250602084013567ffffffffffffffff811115611eb157600080fd5b611ebd86828701611bd0565b9497909650939450505050565b801515811461142157600080fd5b60008060408385031215611eeb57600080fd5b8235611ef681611b40565b6001600160a01b031691506020830135611f0f81611eca565b809150509250929050565b60005b83811015611f35578181015183820152602001611f1d565b50506000910152565b60008151808452611f56816020860160208601611f1a565b601f01601f19169290920160200192915050565b602081526000611ade6020830184611f3e565b600080600060608486031215611f9257600080fd5b8335611f9d81611b40565b6001600160a01b039081169350602085013590611fb982611b40565b9081169250604085013590611fcd82611b40565b808216925050509250925092565b6001600160a01b03929092168252602082015260400190565b60006020828403121561200657600080fd5b8151611b7281611b40565b81835281816020850137506000828201602090810191909152601f909101601f19169091010190565b6001600160a01b0384168152604060208201819052600090611a5e9083018486612011565b6001600160a01b0385811682528416602082015260606040820181905260009061208c9083018486612011565b9695505050505050565b634e487b7160e01b600052603260045260246000fd5b6001600160a01b038381168252604060208084018290528451918401829052600092858201929091906060860190855b818110156120fa5785518516835294830194918301916001016120dc565b509098975050505050505050565b60208152600061211c602083018486612011565b949350505050565b60006020828403121561213657600080fd5b8151611ade81611eca565b60006020828403121561215357600080fd5b5051919050565b8181038181111561186e57634e487b7160e01b600052601160045260246000fd5b60006020828403121561218d57600080fd5b815167ffffffffffffffff8111156121a457600080fd5b8201601f810184136121b557600080fd5b80516121c3611e3282611da8565b8181528560208385010111156121d857600080fd5b611a5e826020830160208601611f1a565b6001600160a01b038316815260406020820181905260009061211c90830184611f3e565b6000825161221f818460208701611f1a565b919091019291505056fe360894a13ba1a3210667c828492db98dca3e2076cc3735a920a3ca505d382bbca26474726f6e582212204948e9adc1a7f1777bec4f628f70c1e9dd7f35f0999d7043125478ca616afe7864736f6c63430008160033",
  "source": "// SPDX-License-Identifier: MIT\npragma solidity ^0.8.20;\n\nimport { OwnableUpgradeable } from \"@openzeppelin/contracts-upgradeable/access/OwnableUpgradeable.sol\";\nimport { UUPSUpgradeable } from \"@openzeppelin/contracts-upgradeable/proxy/utils/UUPSUpgradeable.sol\";\nimport { IERC20 } from \"@openzeppelin/contracts/token/ERC20/IERC20.sol\";\nimport { IERC20 } from \"@openzeppelin/contracts/token/ERC20/IERC20.sol\";\n\nimport { IDebtToken } from \"../../src/core/interfaces/IDebtToken.sol\";\nimport { ITroveManager } from \"../../src/core/interfaces/ITroveManager.sol\";\nimport { SatoshiMath } from \"../library/SatoshiMath.sol\";\nimport { IVault } from \"./interfaces/IVault.sol\";\nimport { IVaultManager } from \"./interfaces/IVaultManager.sol\";\n\nimport { SafeERC20 } from \"@openzeppelin/contracts/token/ERC20/utils/SafeERC20.sol\";\n\n/*\n    * @title VaultManager\n    * @dev The contract is responsible for managing the vaults\n    * Each TroveManager has a VaultManager\n    */\n\ncontract VaultManager is IVaultManager, OwnableUpgradeable, UUPSUpgradeable {\n    using SafeERC20 for IERC20;\n\n    IDebtToken public debtToken;\n    mapping(address => bool) public whitelistVaults;\n    // vault => tokenAmount\n    mapping(address => uint256) public tokenOutput;\n\n    // for CDP vault\n    mapping(address => bool) public troveManagers;\n\n    // troveManager => vaults\n    mapping(address => IVault[]) public priority;\n\n    address public nexusYieldManager;\n\n    constructor() {\n        _disableInitializers();\n    }\n\n    function initialize(address _debtToken, address _nexusYieldManager, address _owner) external override initializer {\n        __UUPSUpgradeable_init_unchained();\n        __Ownable_init(_owner);\n\n        debtToken = IDebtToken(_debtToken);\n        nexusYieldManager = _nexusYieldManager;\n\n        emit NexusYieldManagerSet(_nexusYieldManager);\n    }\n\n    /// @notice Override the _authorizeUpgrade function inherited from UUPSUpgradeable contract\n    // solhint-disable-next-line no-empty-blocks\n    function _authorizeUpgrade(address newImplementation) internal view virtual override onlyOwner {\n        // No additional authorization logic is needed for this contract\n    }\n\n    // --- External functions ---\n    function executeStrategy(address vault, bytes calldata data) external onlyOwner {\n        _checkWhitelistedVault(vault);\n        address token = IVault(vault).decodeTokenAddress(data);\n        if (token != address(0)) {\n            IERC20(token).approve(vault, type(uint256).max);\n        }\n        IVault(vault).executeStrategy(data);\n        emit ExecuteStrategy(vault, data);\n    }\n\n    function executeCall(address vault, address dest, bytes calldata data) external onlyOwner {\n        _checkWhitelistedVault(vault);\n        IVault(vault).executeCall(dest, data);\n        emit ExecuteCall(vault, dest, data);\n    }\n\n    function exitStrategyByTroveManager(uint256 amount) external {\n        _checkTroveManager(msg.sender);\n        if (amount == 0) return;\n\n        IERC20 collateralToken = ITroveManager(msg.sender).collateralToken();\n\n        // assign a value to balanceAfter to prevent the priority being empty\n        uint256 balanceAfter = collateralToken.balanceOf(address(this));\n        uint256 withdrawAmount = amount > balanceAfter ? amount - balanceAfter : 0;\n        for (uint256 i; i < priority[msg.sender].length; i++) {\n            if (balanceAfter >= amount) break;\n            uint256 balanceBefore = collateralToken.balanceOf(address(this));\n            IVault vault = priority[msg.sender][i];\n            bytes memory data = vault.constructExitByTroveManagerData(address(collateralToken), withdrawAmount);\n            try vault.executeStrategy(data) {\n                balanceAfter = collateralToken.balanceOf(address(this));\n                uint256 exitAmount = balanceAfter - balanceBefore;\n                withdrawAmount -= exitAmount;\n            } catch {\n                continue;\n            }\n\n            emit ExitStrategy(address(vault), data);\n        }\n\n        // if the balance is still not enough\n        uint256 actualTransferAmount = balanceAfter >= amount ? amount : balanceAfter;\n\n        // transfer token to TroveManager\n        collateralToken.approve(msg.sender, actualTransferAmount);\n        ITroveManager(msg.sender).receiveCollFromPrivilegedVault(actualTransferAmount);\n    }\n\n    function setPriority(address troveManager_, IVault[] memory _priority) external onlyOwner {\n        delete priority[troveManager_];\n        for (uint256 i; i < _priority.length; i++) {\n            priority[troveManager_].push(_priority[i]);\n        }\n        emit PrioritySet(troveManager_, _priority);\n    }\n\n    function setWhiteListVault(address vault, bool status) external onlyOwner {\n        whitelistVaults[vault] = status;\n        emit WhiteListVaultSet(vault, status);\n    }\n\n    function setNexusYieldManager(address nexusYieldManager_) external onlyOwner {\n        nexusYieldManager = nexusYieldManager_;\n        emit NexusYieldManagerSet(nexusYieldManager_);\n    }\n\n    function setTroveManager(address troveManager_, bool status) external onlyOwner {\n        troveManagers[troveManager_] = status;\n\n        emit TroveManagerSet(troveManager_, status);\n    }\n\n    function transferCollToTroveManager(address troveManager_, uint256 amount) external onlyOwner {\n        _checkTroveManager(troveManager_);\n        ITroveManager(troveManager_).collateralToken().forceApprove(troveManager_, amount);\n        ITroveManager(troveManager_).receiveCollFromPrivilegedVault(amount);\n\n        emit CollateralTransferredToTroveManager(troveManager_, amount);\n    }\n\n    function transferTokenToNYM(address token, uint256 amount) external onlyOwner {\n        IERC20(token).safeTransfer(nexusYieldManager, amount);\n        emit TokenTransferredToNYM(token, amount);\n    }\n\n    function mintDebtToken(uint256 amount) external {\n        _checkWhitelistedVault(msg.sender);\n        debtToken.mint(msg.sender, amount);\n    }\n\n    function burnDebtToken(uint256 amount) external {\n        _checkWhitelistedVault(msg.sender);\n        debtToken.burn(msg.sender, amount);\n    }\n\n    // --- Internal functions ---\n\n    function _checkWhitelistedVault(address _vault) internal view {\n        if (!whitelistVaults[_vault]) revert VaultNotWhitelisted();\n    }\n\n    function _checkTroveManager(address _troveManager) internal view {\n        if (!troveManagers[_troveManager]) revert CallerIsNotTroveManager();\n    }\n}\n",
  "sourcePath": "/Users/ashley/Documents/satoshi/satoshi-v2/src/vault/VaultManager.sol",
  "compiler": {
    "name": "solc",
    "version": "0.8.22+commit.5ed3e10f.Emscripten.clang"
  },
  "schemaVersion": "2.0.1",
  "updatedAt": "2026-04-14T07:11:27.780Z"
}